:100000000C944B010C9450240C9429240C947301EF
:100010000C9473010C9473010C9473010C94730190
:100020000C9473010C9473010C9473010C94730180
:100030000C9473010C9477240C9473010C94730149
:100040000C94DF230C9473010C94AD230C94872340
:100050000C9473010C9473010C9473010C94730150
:100060000C9473010C947301746F206C6F6E672095
:1000700000636F72727570740073656E6420636DD7
:10008000642000436F6D6D616E6420746F206C6F2F
:100090006E673A20004D43004D55003B003D004D3A
:1000A0005300206269747320736574003A20006302
:1000B0006372656720002000433345203D002064C3
:1000C000656C6179312000206368697053746174D4
:1000D00075732000636D645374726F626552656757
:1000E0002000556E737570706F727465642073684C
:1000F0006F727420636F6D6D616E6400636F6D6D00
:10010000616E642065006973206E6F7420636F7286
:10011000726563746C792073657420666F72204118
:10012000534B2F4F4F4B2E20506C656173652064ED
:100130006F206120666163746F72792072657365E8
:1001400074207669612000203D2000203A0045455A
:1001500050524F4D0020746F2050415441424C4545
:1001600020646F6E650077726974652000202D2011
:10017000636F6D70696C6564206174204E6F7620CA
:10018000323520323032302031383A33363A313558
:100190000020756E6B6E6F776E0043433131300017
:1001A0006368697000636331313031200056203359
:1001B0002E352E302D6465762B323032303131328F
:1001C000355F69746F61205349474E414C647569CE
:1001D0006E6F2000200020557365206F6E65206FC4
:1001E0006620006363466163746F7279526573655C
:1001F0007420646F6E65000D2E2D47D3913D04323F
:100200000000060010B07157C43023B90007001871
:10021000146C070091876BF8B611E92A001F4100A2
:10022000496E697420656570726F6D20746F20640B
:10023000656661756C747320616674657220666CA6
:10024000617368003B523D004D4E3B443D00000051
:100250000000250028002B00040404040404040406
:100260000202020202020303030303030102040861
:100270001020408001020408102001020408102010
:100280000000000800020100000304070000000055
:10029000000000009E2411241FBECFEFD8E0DEBF77
:1002A000CDBF11E0A0E0B1E0EAE6FFE502C00590B5
:1002B0000D92AA3FB107D9F724E0AAEFB1E001C03F
:1002C0001D92A139B207E1F711E0CBE4D1E004C0FF
:1002D0002197FE010E945F2FCA34D107C9F70E94FF
:1002E00022250C94B32F0C940000FC010994FC010E
:1002F000CB01642F0994E9E8F2E02491E5E7F2E00C
:100300009491E1E6F2E0E491EE23C9F0222339F082
:10031000233001F1A8F4213019F1223029F1F0E065
:10032000EE0FFF1FE25BFD4FA591B4912FB7F8943C
:10033000EC91811126C090959E239C932FBF089528
:100340002730A9F02830C9F0243049F720918000E7
:100350002F7D03C0209180002F7720938000DFCF76
:1003600024B52F7724BDDBCF24B52F7DFBCF209183
:10037000B0002F772093B000D2CF2091B0002F7D16
:10038000F9CF9E2BDACFEF92FF920F931F93CF936B
:10039000DF93FB01009759F480E380831182CF0142
:1003A000DF91CF911F910F91FF90EF90089540E062
:1003B00097FF04C091958195910941E0EF0110E00C
:1003C00000E02AE0E22EF12C98012F5F3F4FB701A9
:1003D0000E94252F805D8993CB01009721F544234E
:1003E00041F02E0F3F1F8DE2D9018C9398012E5FB3
:1003F0003F4FDF01A20FB31F1C9235952795BD011A
:10040000EF01CE018E1B9F0B8217930744F6899153
:10041000DB019E91BD01AE0141505109DA019C936F
:10042000DB018C93EECF8901CFCF80E00895AF92AE
:10043000BF92CF92DF92EF92FF920F931F93CF93D1
:10044000DF936C017B018B01040F151FEB015E0133
:10045000AE18BF08C017D10759F06991D601ED91C8
:10046000FC910190F081E02DC6010995892B79F767
:10047000C501DF91CF911F910F91FF90EF90DF9019
:10048000CF90BF90AF900895FC01538D448D252FE0
:1004900030E0842F90E0821B930B541710F0CF961E
:1004A000089501970895FC01918D828D981761F050
:1004B000A28DAE0FBF2FB11D5D968C91928D9F5F67
:1004C0009F73928F90E008958FEF9FEF08952FB75D
:1004D000F89480915F0290916002A0916102B091C6
:1004E00062022FBF80936B0290936C02A0936D0207
:1004F000B0936E0283E692E00E94530297FF26C0FB
:100500002FB7F89480915F0290916002A0916102F0
:10051000B09162022FBF40916B0250916C026091CA
:100520006D0270916E02841B950BA60BB70B409168
:100530006702509168026091690270916A028417A3
:100540009507A607B707B0F28FEF9FEF0895FC015C
:10055000918D828D981731F0828DE80FF11D858D78
:1005600090E008958FEF9FEF0895FC01918D228D0B
:10057000892F90E0805C9F4F821B91098F73992790
:10058000089583E692E00E94B50221E0892B09F4E8
:1005900020E0822F0895FC01A48DA80FB92FB11D72
:1005A000A35ABF4F2C91848D90E001968F739927A9
:1005B000848FA689B7892C93A089B1898C91837087
:1005C00080648C93938D848D981306C00288F38980
:1005D000E02D80818F7D80830895EF92FF920F93AD
:1005E0001F93CF93DF93EC0181E0888F9B8D8C8DDF
:1005F00098131AC0E889F989808185FF15C09FB7D3
:10060000F894EE89FF896083E889F9898081837095
:10061000806480839FBF81E090E0DF91CF911F9144
:100620000F91FF90EF900895F62E0B8D10E00F5F65
:100630001F4F0F731127E02E8C8D8E110CC00FB63B
:1006400007FCFACFE889F989808185FFF5CFCE01D3
:100650000E94CB02F1CFEB8DEC0FFD2FF11DE35A81
:10066000FF4FF0829FB7F8940B8FEA89FB89808156
:100670008062CFCF0F931F93CF93DF938C01D0E095
:10068000C0E0F801EC0FFD1F6491662341F083E6A2
:1006900092E00E94ED02892B11F02196F2CFCE015B
:1006A000DF91CF911F910F910895682F83E692E01B
:1006B0000C94ED02CF93DF93EC01888D8823B9F081
:1006C000AA89BB89E889F9898C9185FD03C080815D
:1006D00086FD0DC00FB607FCF7CF8C9185FFF2CFDA
:1006E000808185FFEDCFCE010E94CB02E9CFDF9163
:1006F000CF9108953FB7F894809111029091120222
:10070000A0911302B091140226B5A89B05C02F3FFB
:1007100019F00196A11DB11D3FBFBA2FA92F982F27
:100720008827BC01CD01620F711D811D911D42E022
:10073000660F771F881F991F4A95D1F708958F92EA
:100740009F92AF92BF92CF92DF92EF92FF926B0196
:100750007C010E947A034B015C01C114D104E104C5
:10076000F104B9F00E947A03681979098A099B0992
:10077000683E73408105910580F321E0C21AD108DB
:10078000E108F10888EE880E83E0981EA11CB11CD8
:10079000E4CFFF90EF90DF90CF90BF90AF909F900D
:1007A0008F9008950895CF93DF93FC01EE57FF4F8C
:1007B0004081469FF001479FF00D1124DF0123E0A7
:1007C000B695A7952A95E1F7EC01CB57DF4F288125
:1007D0002A171B0629F124F12297288130E0E770BF
:1007E000FF27E90102C0D595C795EA95E2F7A80F62
:1007F000B91F2C912C2330E058E0541B469F402D0C
:1008000011244770541B02C0359527955A95E2F77D
:100810008A579F4FFC012083822FDF91CF9108954B
:100820008FEFFBCFCF93DF93FC0187A943A954A996
:10083000873081F4141615066CF4A2A920AD21505E
:10084000330BA21713067CF5AF5FA2ABAE0FBF2F21
:10085000B11D1C9275A9C72FD0E0282F30E02F5F63
:100860003F4F2C1B3D0B1216130624F401C0660FDC
:100870002A95EAF7A2A9AE0FBF2FB11D9C91692B53
:100880006C934F5F5F4F54AB43AB282F082E000C87
:10089000330B2C1B3D0B871B37FD87E087AB81E0BB
:1008A000DF91CF91089580E0FBCFCF93DF93DC0100
:1008B0001296ED91FC91139714962D913C911597FA
:1008C000E901D595C7958D919C918C0F9D1F20FFB7
:1008D00008C0DC012D913C91E20FF31F0190F081E3
:1008E000E02DDF91CF9109940F931F93CF93DF9366
:1008F000FC018089882309F469C01682178210865A
:1009000011861286138614861586411101C0482F60
:10091000262F30E035952795A42FB0E0B595A79503
:1009200080E060FF14C0EF01C955DF4F88812817B0
:10093000A0F5EF01C20FD31F8AA1C82FCF70CE0F31
:10094000DF2FD11D9E819F5F9E832F5F3F4FBF0191
:1009500069557F4F022F10E00A171B0700F5EB01C6
:100960009881291720F4E801CE0FDF1F8AA1C82F34
:10097000D0E034E0D595C7953A95E1F7CE0FDF1F6B
:100980009E819F5F9E83C82FCF70CE0FDF2FD11D1A
:100990009E819F5F9E832F5FDDCF80E0CECF40FFA3
:1009A00015C0EF01C955DF4F9881A91720F4AE0F8C
:1009B000BF1F92968C9190E024E0959587952A959B
:1009C000E1F7E80FF91F86818F5F8683DF91CF9172
:1009D0001F910F910895CF93DF93FC019C01235445
:1009E0003F4FD9011C9211961C9212A25D971C9246
:1009F000119611961C921E92149687E08C93108A81
:100A0000118E108E59968FEF8C9380835297CF0161
:100A100006961D921D92EC011992CE01A217B30702
:100A2000C1F7138A86E990E0978B868BDF01A75583
:100A3000BF4F40E050E060E87EE34D935D936D93DF
:100A40007C931397118A148A158A57961C92128ADE
:100A500011A210A283E08583DF91CF910895FC015C
:100A600080819181892B51F482819381892B31F48A
:100A70008481958121E082278170089580E0089526
:100A80000F931F93CF93DF931F92CDB7DEB7698388
:100A90008C0107531F4FC8010E942F0581110DC003
:100AA00041E0BE016F5F7F4FC8010E9455040F9067
:100AB000DF91CF911F910F91089590E080E0F7CFE3
:100AC000CF93DF93EC018031910538F024E09695C7
:100AD00087952A95E1F70E946005CF70DD27C75DF5
:100AE000DE4F688184E093E0DF91CF910C94400564
:100AF0008EBD0DB407FEFDCF8EB50895CF93DF9365
:100B0000D82FC62F2A981C9B0EC061E070E080E0B1
:100B100090E00E949F0380910401882359F0815046
:100B200080930401F0CF8D2F0E9478058C2F0E94B6
:100B300078052A9ADF91CF910895CF93DF93D82F2C
:100B4000C62F2A981C9B0EC061E070E080E090E008
:100B50000E949F0380910301882361F0815080935C
:100B60000301F0CF8D2F8C2B0E94780580E00E942E
:100B700078052A9ADF91CF910895809106018130FE
:100B800021F084E360EC0C949D0584EFFBCF60E8DA
:100B900088E00E949D05823339F460E880E00E947D
:100BA0009D0591E08D3009F090E0892F0895CF9355
:100BB000C091060181E3C13009F481EF60E80E9431
:100BC0009D05CC2359F09FEF980F9E3F38F010926F
:100BD000060160E881E3CF910C949D05CF910895C3
:100BE0002A989FEF23E230E01C9B08C0F90131975F
:100BF000F1F79150C9F72A9A80E008950E9478058C
:100C00002A9A81E00895CF93C82F2A981C9B12C07E
:100C100061E070E080E090E00E949F03809102011B
:100C2000811104C0C0E08C2FCF9108958150809332
:100C30000201ECCF8C2F0E947805C82F1C9B0EC0A0
:100C400061E070E080E090E00E949F0380910101EC
:100C5000882341F3815080930101F0CF2A9AE3CF9A
:100C600086E30E94030661E070E080E090E00C946F
:100C70009F03CF930E943006CFEF84E30E940306C8
:100C8000C1508077803141F061E070E080E090E019
:100C90000E949F03C111F1CF5398CF91089590ED19
:100CA000980F9A3030F09FE9980F963020F499EA27
:100CB000980F892F08959FEB980F963010F499ECB8
:100CC000F7CF982FF6CF0F931F93CF938C01C62F9A
:100CD00083E692E00E944402892BD1F34C2F50E02E
:100CE000B80183E692E0CF911F910F910C94170207
:100CF0008F929F92AF92BF92CF92DF92EF92FF922C
:100D00008FB7F89480905F0290906002A09061028B
:100D1000B09062028FBF8091FC019091FD01A09183
:100D2000FE01B091FF0188169906AA06BB0648F499
:100D30008091FA019091FB0101969093FB018093C1
:100D4000FA018092FC019092FD01A092FE01B09206
:100D5000FF01A091FA01B091FB0127E339E841E4DA
:100D600050E00E940C2E6B017C01C501B40128EEFD
:100D700033E040E050E00E94EA2DC701B601620F67
:100D8000731F841F951FFF90EF90DF90CF90BF904F
:100D9000AF909F908F900895CF92DF92EF92FF9245
:100DA0000F931F93F8940E947A030091000310910F
:100DB00001032091020330910303DC01CB01801B6E
:100DC000910BA20BB30B42E04093190221E03DE7E7
:100DD00030931802209317023093870020938600E7
:100DE00022E12093810081302DE79207A105B10512
:100DF00008F447C04A9942C02FEF32E88091D403EB
:100E00008A35D8F48091D4038F5F8093D403809186
:100E1000D5036091D3030E94052F9093D503E091F1
:100E2000D503F0E0EE0FFF1FE952FC4F3183208322
:100E30008091D5038F5F8093D5030E947A036093DE
:100E40000003709301038093020390930303809146
:100E50005D020E947B0110925D02789480910002F5
:100E600091E0980F90930002811146C01F910F915D
:100E7000FF90EF90DF90CF900C94780621E03DE753
:100E8000BDCF813157E29507A105B10500F301E11E
:100E90001DE720E030E068017901C81AD90AEA0AA2
:100EA000FB0A8601970153E0000F111F221F331F19
:100EB0005A95D1F70115110551E025073105A8F420
:100EC00081E0809319021093180200931702809119
:100ED000170290911802909387008093860080916A
:100EE0001902806180938100B2CF40931902D092A1
:100EF0001802C0921702EBCF1F910F91FF90EF9055
:100F0000DF90CF900895E89882ED93E090930901E7
:100F10008093080180911A0281110E94300610927C
:100F2000D4031092D6031092D5030895CF92DF9286
:100F3000EF92FF920F931F93F8940E947A0300910F
:100F400000031091010320910203309103036B0110
:100F50007C01C01AD10AE20AF30A6093000370937D
:100F6000010380930203909303038AE5C816D1041A
:100F7000E104F10498F181E0C8168DE7D806E10498
:100F8000F10430F0CC24C3949DE7D92EE12CF12C50
:100F900096014A9B04C0222733272C193D098091D2
:100FA000D4038A35D8F48091D4038F5F8093D4031F
:100FB0008091D5036091D3030E94052F9093D503B0
:100FC000E091D503F0E0EE0FFF1FE952FC4F3183B3
:100FD00020838091D5038F5F8093D50378941F91F0
:100FE0000F91FF90EF90DF90CF90089586E997E002
:100FF0009093090180930801809169008C7F816042
:1010000080936900E89A80911A0281110C94390644
:101010000895FC0101900020E9F73197AF01481BCA
:10102000590BBC0183E692E00C9417028F929F92B9
:10103000AF92BF920F931F93CF93DF93CDB7DEB7DD
:10104000A1970FB6F894DEBF0FBECDBF19A24230F4
:1010500008F44AE08E010F5D1F4F842E912CB12CB5
:10106000A12CA50194010E94EA2DE62FB901CA0125
:10107000EA30F4F4E05DD801EE938D01232B242BAC
:10108000252B79F790E080E0109719F0CD010E94B0
:101090000908A1960FB6F894DEBF0FBECDBFDF9151
:1010A000CF911F910F91BF90AF909F908F90089517
:1010B000E95CE1CFCF92DF92EF92FF92CF93DF9383
:1010C0006C01990FEE08FF08F7FE17C08DE20E9431
:1010D0005503EC0166277727CB016C197D098E0932
:1010E0009F094AE00E9416088C0F9D1FDF91CF9147
:1010F000FF90EF90DF90CF9008954AE0C701B601CE
:10110000DF91CF91FF90EF90DF90CF900C94160875
:10111000CF93C82F803120F490E080E00E945A08DD
:101120006C2F70E090E080E040E1CF910C941608C5
:10113000CF93DF930E940908EC018AE391E00E94BB
:1011400009088C0F9D1FDF91CF910895CF93DF93F6
:10115000D82F8EEF8D0F8E33F0F4C62F0E947E05B0
:10116000D43151F48C2F90E024E0959587952A9501
:10117000E1F7877080930C0187E50E9455038D2F5E
:101180000E9488088C2F0E9488088CE391E0DF91F0
:10119000CF910C949808DF91CF910895CF93DF936E
:1011A0000E943A03EC018AE391E00E9409088C0F47
:1011B0009D1FDF91CF910895CF92DF92EF92FF9222
:1011C000CF93DF936C01990FEE08FF08F7FE1DC067
:1011D0008DE20E945503EC0166277727CB016C193D
:1011E0007D098E099F094AE00E941608C80FD91F81
:1011F0008AE391E00E9409088C0F9D1FDF91CF9137
:10120000FF90EF90DF90CF9008954AE0C701B601BC
:101210000E941608EC01ECCF009711F00C9409081D
:1012200090E080E00895EF92FF920F931F93CF9389
:10123000DF9361157105E1F08B01FB010190002046
:10124000E9F731977F01E61AF70AEC01C753DF4F40
:10125000CE010E942F0581110BC04E2DB801CE0189
:10126000DF91CF911F910F91FF90EF900C94550457
:1012700090E080E0DF91CF911F910F91FF90EF9070
:1012800008952F923F924F925F926F927F928F922A
:101290009F92AF92BF92CF92DF92EF92FF920F9305
:1012A0001F93CF93DF9300D01F92CDB7DEB7DC0141
:1012B00054961C925497662309F46EC050962C9154
:1012C000222309F469C06217B8F00F900F900F90B5
:1012D000DF91CF911F910F91FF90EF90DF90CF9012
:1012E000BF90AF909F908F907F906F905F904F9046
:1012F0003F902F900C94EB04E62FF0E0309709F428
:101300004BC08C010E551F4FD8012D913C91E21717
:10131000F30708F041C09B838A837C01B2E2EB0EA5
:10132000F11C8F559F4F5C01C9010197E817F90720
:1013300009F048C0EA81FB8112A2D5011C92F80194
:101340001182108287E0EA81FB81EA55FF4F80839A
:1013500081E0AA81BB8154968C935497F8016081F7
:1013600050966C93662309F4D9C06150770BC7017E
:101370000E94D303EA81FB81E855FF4F8081880FEB
:10138000990B83559F4F2A813B81820F931FD9016F
:1013900091969C938E9390970F900F900F90DF9162
:1013A000CF911F910F91FF90EF90DF90CF90BF9062
:1013B000AF909F908F907F906F905F904F903F90F5
:1013C0002F9008952A803B8044EA240E311CD101DD
:1013D0004C91649F2001112453E0569447945A95F0
:1013E000E1F74982842E912C68E0C62ED12CC601EB
:1013F000B4010E94252FCF010E94112FBC01D501FD
:101400009C91320177246115710509F465C0469FEE
:10141000802D112468E0681BB2E26B0E711C2A80DB
:101420003B80260C371CA701742DD9807D194916E5
:10143000B0F4D101CD901D016C90712C062E02C02C
:10144000759467940A94E2F7082E01C0CC0C0A94B4
:10145000EAF7C628DA01CD92AD014394E5CF20FD2D
:1014600011C04A815B81470F511DAA81BB81A40D28
:10147000B11D92969C9101C0990F8A95EAF7DA0105
:1014800092969C932E1B3F0BF80131832083829E02
:10149000F001839EF00D929EF00D1124CF0168E0C3
:1014A00070E00E94252FAA81BB81AA55BF4F8823D7
:1014B00089F097E0981B892F8C93CF01881999099F
:1014C00097FD079623E0959587952A95E1F7D50135
:1014D0008C933ECF87E0F0CF9419F5019083492F8C
:1014E00050E04F5F5F4FB701660D771DC7010E9447
:1014F0007E2FD1016C9170E0C6010E94252F669D60
:101500009001679D300D769D300D1124F80180818A
:101510009181821B930B918380831ACFEA81FB8197
:1015200011A210A239CF2F923F924F925F926F92E9
:101530007F928F929F92AF92BF92CF92DF92EF9263
:10154000FF920F931F93CF93DF93CDB7DEB7C355B1
:10155000D1090FB6F894DEBF0FBECDBF9E012F5F3D
:101560003F4F38A72FA386E1D9011D928A95E9F74D
:101570008091C40320911403811103C0283208F420
:1015800097C31092170391E02E3F09F090E09093DB
:10159000190340E060E0811168C284E093E00E949A
:1015A0007404B12C8B2C912CB091C103BFA7EB2FED
:1015B000E150FF0B8E169F060CF008C1B394F401A6
:1015C000EC5FFC4FCF0106962681222359F3AB2C0A
:1015D0009401220F331FA9014F545C4F58AB4FA702
:1015E0009AAB89AB5CAB4BAB8091C103A816D0F62C
:1015F000EA2CF12CB7016C5F7C4F1B01DB011696C6
:101600008C91882309F4E0C0EFA5F8A9C080D180AF
:10161000F701EE0FFF1FEF54FC4F00811181C6014F
:101620008027912797FDD0C04090AD035090AE0326
:101630006090AF037090B003B80117FF04C0662735
:101640007727601B710B072E000C880B990B0E94EB
:10165000A72CA30192010E94062D6DAB7EAB8FAB30
:1016600098AFB601D7FE04C0662777276C197D09AD
:10167000072E000C880B990B0E94A72CA301920146
:101680000E94062D9B01AC016DA97EA98FA998AD82
:101690000E945E2E20E030E040E05FE30E94062DD5
:1016A0000E94CA2E0C191D0917FF03C01195019540
:1016B0001109601771070CF487C0D12C712CF6E06A
:1016C0002F0E311CD101CC9080911403D81608F054
:1016D00044C07C1408F041C06D2D70E086E293E0B8
:1016E0000E94D3038091AC03082E000C990BE816DE
:1016F000F90689F52091A803422F50E0D29E90016F
:101700001124F90173E0F695E7957A95E1F7809158
:10171000AB03E817F8F427703327FF27EC5FFC4F83
:101720008091A90390E0022E02C0959587950A94B6
:10173000E2F7809592A1892368E070E0641B750B45
:10174000AB01421B530B940101C0220F4A95EAF7EB
:10175000822B82A37394D394B5CFA9A9BAA9DC90A4
:101760004D2D50E0EBA9FCA9A081B1819A010E9406
:10177000582F2B013C018701000F111F0F541C4FE4
:10178000EC2DF0E0D8018D919C919F01DC010E942D
:10179000582F640D751D861D971D4E0F5F1F9A01F2
:1017A000550F440B550B0E94392FEBA9FCA931832F
:1017B0002083DC0CA9A9BAA9DC92F701EC5FFC4FED
:1017C0001682F80111821082A3940ECF10921D038D
:1017D00010921C038FEF80930403F0911403F9AB74
:1017E00021EB222E23E0322E10E000E0EE24EA94DA
:1017F000FE2C8F2E912CB12CA12C2FA5021708F0B6
:1018000055C0D101CD90DD901D01BFEFEB16FB0659
:1018100009F5D7FC48C0F801EC5FFC4F668170E029
:1018200090E080E00E94A72C2B013C01C501B4018F
:101830000E94A72C2BE734E14EE25EE30E94062DC6
:101840009B01AC01C301B2010E94002F181624F4C1
:10185000780129C0D7FC27C0F701EE0FFF1FEF5416
:10186000FC4F80819181C816D906ECF4F801EC5F39
:10187000FC4F668170E090E080E00E94A72C2B0175
:101880003C01C501B4010E94A72C2BE734E14EE2D4
:101890005EE30E94062D9B01AC01C301B2010E94D0
:1018A000002F1816ACF20F5F1F4FA7CFEFEFEE1609
:1018B000FE0641F0E092040381E090E090931D0366
:1018C00080931C0380911C0390911D03019709F0E4
:1018D0008FC080910703882309F48AC089A9863ABA
:1018E00008F085EA18EDF12EF80E0FA50150002E34
:1018F000000C110B86E0982EE02EFFEF0F1709F475
:10190000B1C0F801EE0FFF1FEF54FC4F80819181B1
:1019100097FFA5C022273327281B390B89399D4BF8
:101920000CF49DC0E0910403EE0FFF0BEF54FC4F4D
:101930000190F081E02DC901BF010E94112F6D328D
:10194000710508F08CC09E9EC0019F9E900D1124D1
:101950008217930708F083C0F801EC5FFC4FD68034
:101960006D2D70E090E080E00E94A72C2B013C01DF
:101970006091140370E090E080E00E94A72C2AE0C0
:1019800037ED43EA5DE30E94062D9B01AC01C301E4
:10199000B2010E94A02C87FF62C051E05D1508F0E3
:1019A0005EC0D12CC12CCF1408F059C056016FEF86
:1019B000A61AB60AB50186E293E00E94D30380918D
:1019C000AC03E8124AC0B60186E293E00E94D3035A
:1019D0009091AC038091040398133FC0E092C3033D
:1019E00082E090E090931D0380931C03C092150346
:1019F00080911C0390911D03029711F00C948F1895
:101A000080911403883210F40C948F188091150380
:101A10008E5F8093160310E06091160370E0809152
:101A200014038150990B6817790724F56F5F7F4F76
:101A300086E293E011110C944F180E94D30311E039
:101A40009091AC038091C303981301C010E0809182
:101A500016038E5F80931603DFCF6501A4CF01507C
:101A600011094ACF0093C303C3CF84E093E00E94DF
:101A70007404BECF10E00C946B18809114038E3F59
:101A800008F0D7C1861B990B88970CF4D2C162E08D
:101A900084E093E00E94400580910803882309F4C4
:101AA0002BC16DE371E084E093E00E941309F12CF7
:101AB0008091C103F816C8F58F2D90E0FC01EE0F60
:101AC000FF1FEF54FC4F008111810115110539F101
:101AD0008C5F9C4FDC0116968C91882301F16F2D51
:101AE00017FF1FC0606A119501951109E02E07FDCF
:101AF0001AC06894E7F884E093E00E9440056E2DD8
:101B000084E093E00E944005612F606884E093E0E8
:101B10000E9440056BE384E093E00E944005F3944B
:101B2000C7CF6068E3CF6061E6CF8091160364E4BD
:101B300080FF64E684E093E00E944005E091150395
:101B4000E0FF33C0E150E0931503E6958091AB03CD
:101B5000E81748F5F0E0EC5FFC4F82A18F708068D9
:101B60008FA7682F84E093E00E94400580911503C1
:101B70008E5F8093150310911503809116038117D2
:101B8000B0F0E12FE6958091AB03E81728F4F0E080
:101B9000EC5FFC4FB2A1BFA76FA584E093E00E9469
:101BA00040051E5FEACF80E0D9CF1FA6E4CF61E4F5
:101BB00071E084E093E00E94130960910403605D8A
:101BC00084E093E00E94400564E471E084E093E0E7
:101BD0000E9413096091C303605D84E093E00E945A
:101BE00040056BE384E093E00E94400587EC93E0BE
:101BF0000E942F0581110FC062E584E093E00E94EE
:101C000040058091C60390E00E9460056BE384E08C
:101C100093E00E94400580911903882331F068E524
:101C200071E084E093E00E94130910921803609120
:101C3000160380911403861B990B8897FCF0809102
:101C400009038823D9F08150809309036F5F84E0F2
:101C500093E00E944109109215036DE684E093E041
:101C60000E94400560910903605D84E093E00E945A
:101C700040056BE384E093E00E94400563E084E06C
:101C800093E00E9440056AE084E093E00E944005F2
:101C900081E0809317038091170381110C94A4169F
:101CA00080910603909105039111DAC08111DBC088
:101CB0008091170381110C942718809118038823B1
:101CC00011F40C942B184091C103E1EBF3E090E088
:101CD00080E020EDE22E27E0F22E841710F00C9425
:101CE0000918219131911216130624F42E153F057F
:101CF0000CF47C010196F1CF67E471E084E093E09D
:101D00000E94130910E08091C1031817C0F5812FBC
:101D100090E09C01220F331FF901EF54FC4F7F012B
:101D200020813181232B49F18C5F9C4FDC01169679
:101D30008C91882311F160E584E093E00E944005D6
:101D400060E3610F84E093E00E9440056DE384E06E
:101D500093E00E944005BE016F5F7F4FF7018081D5
:101D600091810E94C301BC0184E093E00E941309A9
:101D70006BE384E093E00E9440051F5FC4CF62E7FD
:101D800071E084E093E00E941309109115038091A3
:101D90001603811778F0612F70E086E293E00E94CD
:101DA000D3036091AC03605D84E093E00E94400542
:101DB0001F5FEDCF6BE471E084E093E00E941309B4
:101DC00060910403605D84E093E00E94400560E55B
:101DD00071E084E093E00E9413096091C303605DA9
:101DE00084E093E00E9440056BE384E093E00E946E
:101DF000400587EC93E00E942F05811118C065E52E
:101E000071E084E093E00E9413098091C603BE0153
:101E10006F5F7F4F90E00E94C301BC0184E093E0BC
:101E20000E9413096BE384E093E00E9440051FA623
:101E3000F2CE662361F0809116038D3F40F084E07E
:101E400093E00E944109109215030C948F1884E0CE
:101E500093E00E94EB0481E0809317030C948F18A9
:101E6000882309F471C78091120390911303892B81
:101E700039F585E490E00E946D29FC0182E380AF92
:101E800081E085AB108212AA14AA13AA87E087AB5F
:101E900080E886AB8FEF84AF85AF86AF87AFDF0179
:101EA000AD5BBF4F1C9211961C9284E093E093AF00
:101EB00082AF14971D921C92F0931303E0931203C8
:101EC0008091C403811121C0E0911203F0911303AA
:101ED0008FEF84AF85AF87AF86AFDF01AD5BBF4FBC
:101EE0001C9211961C9214971D921C92108212AA99
:101EF00014AA13AA87E087ABE0911203F0911303B1
:101F0000EE5BFF4F8091C50380838091C4038111F4
:101F10000C94BC182090120330901303D101DA9670
:101F20000D911C91F801E354FF4FF080B3E0BF1511
:101F300008F00AC7F801608970E090E080E00E9434
:101F4000A72C2AE037ED43E25DE30E94062D4B010A
:101F50005C0120E030E0A9010E94002F20E030E089
:101F600040E05FE387FD38C0C501B4010E945E2EEA
:101F70000E94CA2EA8014A5F5F4F980123553F4F28
:101F8000812C90E0DA018D91AD01861790F1E82D5A
:101F9000F0E03196A7E1B0E0AC0FBD1FEA0FFB1FE8
:101FA000882D8823F1F0DF011297EC90AE2DB0E080
:101FB000AA0FBB1FA00FB11F5D017DEAA70EB11CC8
:101FC000D901CD90DC90D501AD90BC90CA14DB0452
:101FD00044F4E2928150E5CFC501B4010E945D2E28
:101FE000C7CFE7E1F0E0EC0FFD1FE80FF11D908394
:101FF00083949F5F2E5F3F4FF912C4CFFE01779607
:10200000F8A7EFA32196FFAFEEAF21974091130100
:1020100050911401609115017091160129964CAFF1
:102020005DAF6EAF7FAF2997B1016D5B7F4F7CAF26
:102030006BAFC1018E5B9F4F2B969FAF8EAF2B97DF
:10204000D101AC5BBF4F6496BFAFAEAF64973C9617
:10205000FEA7EDA7FFA12E96FFAF2E978FAD8F1B8A
:10206000881508F071C6D101DA96ED91FC912196A0
:10207000AEADBFAD21978D912196BFAFAEAF219789
:1020800090E0880F991FE80FF91FE355FF4F8081FB
:10209000918118161906F4F68FEFD101DC968C9316
:1020A000DC97DD968C93DD97DF968C93DF97DE9639
:1020B0008C93208131813AAB29ABC90137FD019660
:1020C000AC01559547952D965FAF4EAF2D97BE014C
:1020D000695E7F4F23967FAF6EAF23971EAE1DAE16
:1020E0008FEF9FEF9AAF89AF29A93AA9032E000C71
:1020F000440B550B62962CAF3DAF4EAF5FAF62976E
:10210000AE01415E5F4F5AA749A7605F7F4F7CA732
:102110006BA722968FAD22972E967FAD2E97871BA9
:10212000881508F097CF2396AEADBFAD2397DD900D
:102130002396BFAFAEAF2397D101DA96ED91FC9114
:102140008D2D90E0880F991FE80FF91FE355FF4F81
:102150000081118162966CAD7DAD8EAD9FAD6297B1
:102160000E94A72C2B013C01780117FF04C0EE242C
:10217000FF24E01AF10A2DEC3CEC4CE45EE3C301D1
:10218000B2010E94062D0E94CA2E2D968EAD9FADE3
:102190002D978E199F0997FF03C0919581959109FD
:1021A000681779070CF0BEC72DEC3CEC4CEC5EE3F5
:1021B000C301B2010E94062D0E94CA2E89A99AA9C4
:1021C0008E199F0997FF03C0919581959109681712
:1021D00079070CF49ECF101611060CF44CC1D101F6
:1021E000DC96DC92A6C7F101D6AEBDADBF5FBDAF38
:1021F000E9ADFAADE00FF11FFAAFE9AFD101DC961E
:102200008C91DC978F3F09F484CFDF968C91DF9718
:102210008F3F09F47ECFDD968C91DD978F3F09F4D7
:1022200078CFDE968C918F3F09F473CF29962CAD31
:102230003DAD4EAD5FAD29972BA33CA34DA35EA34F
:102240002F8F38A349A35AA3B12CA12C1FEFD10182
:10225000DA96ED90FC90F70180898A151B0409F04D
:102260000CF457CFB501C70182960E94D303F70142
:10227000E855FF4F0081802F90E0D101DC962C9132
:10228000DC97022E000C330BDA96ED91FC91DB9774
:1022900082179307D1F0DD962C91DD97022E000C6A
:1022A000330B8217930789F0DF962C91DF97022E6C
:1022B000000C330B8217930741F0DE962C91022E0F
:1022C000000C330B8217930739F480898150990BE6
:1022D000A816B90609F0D3C081899501281B3109D8
:1022E0002B96AEADBFAD2B978C91082E000C990BA1
:1022F000821793070CF003C1A28AF10182AD93AD5E
:10230000DC0152964C91529751966C910E94740444
:10231000D101DA96ED91FC91DB97DE96BC91BBABD7
:10232000D101DD969C90DD97DF960C91DF97DC96CE
:10233000BC91BDABDF012BA9A20FB11D27FDBA9542
:102340001696CC90DF01A90DB11D97FCBA95169693
:102350008C91C80EDD24DD1CDF01A00FB11D07FD2F
:10236000BA9516968C91C81AD108DF013DA9A30F22
:10237000B11D37FDBA9516968C91ABADBCAD1C92D4
:10238000C81AD108D7FE03C0D194C194D1080D2C2E
:10239000000CEE08FF088089E82FF0E02596FFAFDB
:1023A000EEAF2597BF01FF0F880B990B0E94A72C5A
:1023B0002AE037ED43E25DE30E94062D2B013C014C
:1023C00020E030E0A9010E94002F20E030E040E052
:1023D0005FE387FD8FC0C301B2010E945E2E0E94A1
:1023E000CA2E6C157D058E059F050CF492CEFDADB1
:1023F0002EADF2138ECE3DA9931609F48ACE4BA9C9
:10240000401709F486CE031709F483CE491509F461
:1024100080CE431709F47DCE901609F47ACEDE0102
:102420005F96FE01B39681919D91891709F452C779
:102430009F3F19F08F3F09F04DC725962EAD3FAD58
:1024400025972A193B092B96EEADFFAD2B9780817E
:10245000082E000C990B821793070CF05ACE1BA381
:102460001F8F1CA318A31DA319A31EA31AA33FEF1C
:10247000A31AB30AECCED101DD96DC92B6CEABAD99
:10248000BCAD8C91811105C0A18AE1E0ABADBCADC2
:10249000EC93D101DA96ED90FC90B5016F5F7F4F20
:1024A000C70182960E94D303F701E855FF4F2081B0
:1024B000BAE00B9F200D11242A3008F42C599DA559
:1024C0008EA5A0FE02C099A58AA5E92FF82F80E06D
:1024D000422F50E09191692F092E000C770B641761
:1024E0007507F1F4982F8F5F843009F4C0CF9F3FB8
:1024F00089F3BDCFC301B2010E945D2E70CFABAD99
:10250000BCAD1C926496EEADFFAD649710821F8F38
:102510001BA318A31CA319A31DA31AA31EA3A7CF13
:102520009F3F21F4DF0111972C93DCCF9FEFDBCF8E
:10253000DE962C91DE97022E000C330B2E173F07F0
:10254000D9F0DA962D913C91DB97EE0FFF1FE20F49
:10255000F31FE355FF4FDD968C91A82FAA0FBB0BFD
:10256000A20FB31FA355BF4F208131818D919C9144
:10257000821793070CF0A6C681E0891080E0809353
:102580005E02E0905E026E2DC8010E9412045A9411
:10259000F801C2ACD3ACF1E0F51508F462C0D80183
:1025A000DA96ED91FC915188F5018081882309F438
:1025B0002CC1D801DA96CD90DC90E52CF12CB70136
:1025C000C60182960E94D303F601E855FF4FC080F2
:1025D000D12CF80184AD082E000C990B82AC93AC81
:1025E000C816D90639F085AD082E000C990BC8160F
:1025F000D90649F4D40150968C918150990BE81674
:10260000F9060CF4F4C0B7016F5F7F4FC4018296E6
:102610000E94D303F401E855FF4FE08180915E02F0
:10262000882309F4F4C0813009F00FC1D801DA968B
:102630008D919C91DC0150968C918250990BE816FB
:10264000F9060CF002C1D801DE968C91DE97082EB7
:10265000000C990B8C159D0509F0F7C0DF968C9145
:10266000EEC0852C912CB401C60182960E94D30342
:10267000F601E855FF4F808190E0F80127AD022E6A
:10268000000C330B8217930741F026AD022E000C8D
:10269000330B8217930709F082CFD801DA96CD90D9
:1026A000DC90B40161507109C60182960E94D30387
:1026B000F601E855FF4F808190E0F80127AD022E2A
:1026C000000C330B8217930741F026AD022E000C4D
:1026D000330B8217930709F062CFD801DA96CD90B9
:1026E000DC90B1E0EB1241C0E2E08E1A9108B40137
:1026F000C60182960E94D303F601E855FF4F9081F0
:10270000D801DF968C91981307C06E2DC8010E94E6
:1027100012045A945A943CCFF801C2ACD3ACB40121
:10272000C60182960E94D303F601E855FF4F8081CF
:10273000880F990BC80ED91EFDEACF0ED11CD80107
:10274000DA96ED91FC91DB97DC968C91880F990BD2
:10275000E80FF91FE355FF4FD6012D913C91808181
:102760009181281739078CF2D4CFE110D2CFB2E093
:102770008B1A9108B401C60182960E94D303F60118
:10278000E855FF4F9081F80186AD981709F4BDCF49
:10279000C2ACD3ACB401C60182960E94D303F60149
:1027A000E855FF4F8081880F990BC80ED91EFDEAAE
:1027B000CF0ED11CD801DA96ED91FC91DB97DD9616
:1027C0008C91880F990BE80FF91FE355FF4FD60145
:1027D0002D913C9180819181821793070CF495CFC4
:1027E00098CF81E0891080E080935E02DDCE8091F9
:1027F0005E02842580935E02D5018C91882329F0A6
:1028000060915E02C8010E9412045394D9C4D80199
:10281000DA968D919C91DC0150968C918250990BA7
:10282000E816F90694F4D801DF968C91DF97082E0C
:10283000000C990B8C159D0541F4DE968C91082EA9
:10284000000C990BE8171906C1F0D3018C91082EE2
:10285000000C990BD801D3962D913C91D497281751
:1028600039076CF4F1011082D5011C92F801108235
:1028700012AA14AA13AA27E027AB5394BDCFDA9665
:102880008D919C91DC0152965C92D801DA96AD90C4
:10289000BC90BDEF5B1213C0D50150968C918E3F5A
:1028A00071F4F501E054FF4F81E08083D801DA969E
:1028B000ED91FC9184E090E0918F808F76C0D801FB
:1028C000DC968C91A82FAA0FBB0BAA0DBB1DA3559C
:1028D000BF4F8D919C91D50150962C9130E0D6013F
:1028E000AA0FBB1FAA0DBB1DA355BF4F4D915C91F5
:1028F00048175907E4F4A90141505109E416F506B7
:10290000B4F46E2F70E0D801DD964C91DD97042E63
:10291000000C550B6417750709F432C1DE964C9113
:10292000042E000C550B6417750709F429C12250B9
:102930003109E216F306CCF5D801DF962C91DF972A
:10294000022E000C330BC216D30641F0DE962C91FA
:10295000022E000C330BC216D30639F5F0E0EE0F51
:10296000FF1FEA0DFB1DE355FF4F20813181281722
:102970003907DCF4B7016E5F7F4FC50182960E9474
:10298000D303F501E855FF4F808190E0F80124ADB5
:10299000022E000C330B8217930709F0C8C081E0A8
:1029A000850D5110ECC055245394652DF80182AD6E
:1029B00093AD0E944109D801DA96ED91FC91DB9725
:1029C000E054FF4F8081811100C1F3018081082E06
:1029D000000C990BD3962D913C91281739070CF4D4
:1029E000F4C062E084E093E00E9440056BE571E092
:1029F00084E093E00E941309E0911203F091130325
:102A0000E4ADEE0FFF0BEF54FC4FBE016F5F7F4F45
:102A1000808191810E94C301BC0184E093E00E9407
:102A2000130962E671E084E093E00E941309E091EB
:102A30001203F0911303E5ADEE0FFF0BEF54FC4FC3
:102A4000BE016F5F7F4F808191810E94C301BC01F5
:102A500084E093E00E94130967E671E084E093E06C
:102A60000E941309E0911203F0911303E7ADEE0FFA
:102A7000FF0BEF54FC4FBE016F5F7F4F8081918150
:102A80000E94C301BC0184E093E00E9413096CE63C
:102A900071E084E093E00E941309E0911203F09149
:102AA0001303E6ADEE0FFF0BEF54FC4FBE016F5F5B
:102AB0007F4F808191810E94C301BC0184E093E03B
:102AC0000E94130961E771E084E093E00E9413091A
:102AD000E0901203F090130310E0F70190AD82A98B
:102AE000181708F09CC080E0191718F4E10FF11DC9
:102AF0008081282F30E0F4E035952795FA95E1F7AD
:102B00002A3008F488C0295C2F8B8F708A3008F433
:102B100084C0895C888F198EBE01695E7F4FD701A2
:102B2000DA968D919C910E9413091F5FD6CFC2AC9B
:102B3000D3AC25AD022E000C330B8217930709F49A
:102B40002ECFB7016D5F7F4FC60182960E94D303DF
:102B5000F601E855FF4F808190E0F80127AD022E85
:102B6000000C330B8217930709F419CF26AD022E00
:102B7000000C330B8217930709F017CF10CF582E94
:102B8000539494CE528AAE5BBF4FFEEF5F123DC0AE
:102B9000F80142AD53AD8C9187FD8F5F8595082E6E
:102BA000000C990BF80123A934A9FA01E054FF4F56
:102BB0008217930724F581E08083D801DA96ED919E
:102BC000FC9184E090E0918F808F8091C4038823F2
:102BD00009F4BAC0809118038111B3C01092260382
:102BE0001092A5031092A7031092A60387E080938A
:102BF000AA031092140381E080931803A5C01082E9
:102C0000F80182AD93ADFC01148A8C91082E000C62
:102C1000990BD801DFCE205D77CF805D7BCF22ADD1
:102C200033AD60E0191718F4E10FF11D608170E019
:102C3000E4E075956795EA95E1F76A3008F4F1C02C
:102C4000695CC9010E944005D701D3962D913C9142
:102C5000C90168E070E00E94252F059724F42770D1
:102C60003327232B89F4F70182AD93AD20AD60E0CB
:102C7000121718F4E10FF11D60816F706A3008F4CB
:102C8000D2C0695C0E94400565E771E084E093E092
:102C90000E941309E0911203F0911303E05CFF4FCF
:102CA000BE016F5F7F4F808191810E94C301BC0193
:102CB00084E093E00E94130969E771E084E093E007
:102CC0000E941309E0911203F0911303BE016F5F9C
:102CD0007F4F83A994A90E94C301BC0184E093E0C3
:102CE0000E9413096BE384E093E00E94400587ECA7
:102CF00093E00E942F05811118C065E571E084E022
:102D000093E00E9413098091C603BE016F5F7F4F5D
:102D100090E00E94C301BC0184E093E00E9413098B
:102D20006BE384E093E00E94400563E084E093E07D
:102D30000E9440056AE084E093E00E944005109202
:102D4000C40381E08093170380910503882311F465
:102D50000C94580E8091C40381110C94580E8091EC
:102D60001C0390911D03019711F00C94580E809153
:102D7000170381116CC180911403883210F40C94F4
:102D80005D0E62E084E093E00E94400580910803BC
:102D9000882309F4AFC06DE771E084E093E00E94FE
:102DA000130940E060E084E093E00E947404F12C99
:102DB0008091C103F816E8F58F2D90E0FC01EE0F2D
:102DC000FF1FEF54FC4F008111810115110539F1EE
:102DD0008C5F9C4FDC0116968C91882301F16F2D3E
:102DE00017FF23C0606A119501951109E02E07FDB8
:102DF0001EC06894E7F884E093E00E9440056E2DC1
:102E000084E093E00E944005612F606884E093E0D5
:102E10000E9440056BE384E093E00E944005F39438
:102E2000C7CF605D0ECF605D2DCF6068DFCF606182
:102E3000E2CF8091140364E680FF64E484E093E0D1
:102E40000E94400510E08091A503811788F08091D1
:102E5000AB03181730F4E12FF0E0EC5FFC4FB2A1A8
:102E6000BFA76FA584E093E00E9440051F5FEBCFF2
:102E700061E471E084E093E00E941309609104032F
:102E8000605D84E093E00E9440056BE384E093E0A2
:102E90000E94400587EC93E00E942F0581110FC02E
:102EA00062E584E093E00E9440058091C60390E0D3
:102EB0000E9460056BE384E093E00E9440058091EE
:102EC0001903882331F068E571E084E093E00E9403
:102ED000130963E084E093E00E9440056AE084E027
:102EE00093E00E9440051092180381E0809317033D
:102EF0000C94580E61E871E084E093E00E9413099D
:102F000040E060E084E093E00E94740410E080916F
:102F1000C1031817C0F5812F90E09C01220F331FC9
:102F2000F901EF54FC4F7F0120813181232B49F1BE
:102F30008C5F9C4FDC0116968C91882311F160E523
:102F400084E093E00E94400560E3610F84E093E039
:102F50000E9440056DE384E093E00E944005BE01BD
:102F60006F5F7F4FF701808191810E94C301BC0197
:102F700084E093E00E9413096BE384E093E00E94F5
:102F800040051F5FC4CF62E771E084E093E00E94D8
:102F9000130910E080911403181778F4612F70E082
:102FA00086E293E00E94D3036091AC03605D84E00D
:102FB00093E00E9440051F5FEDCF6BE471E084E079
:102FC00093E00E94130960910403605D84E093E044
:102FD0000E9440056BE384E093E00E94400587EC8B
:102FE00093E00E942F0581116ACF65E571E084E0CE
:102FF00093E00E9413098091C603BE016F5F7F4F6B
:1030000090E00E94C301BC0184E093E00E94130998
:1030100051CF10E0809114031817C8F4F0EDEF16AB
:10302000F7E0FF06A1F0612F70E086E293E00E94D6
:10303000D3038091AC03082E000C990BE816F90617
:1030400061F56FEF610F84E093E00E944109809188
:103050001803811108C01091170384E093E00E94C7
:10306000EB0410931703CD5ADF4F0FB6F894DEBF71
:103070000FBECDBFDF91CF911F910F91FF90EF90C9
:10308000DF90CF90BF90AF909F908F907F906F9088
:103090005F904F903F902F9008951F5FBBCF0E948D
:1030A000D3039091AC038091C30398130C94270D24
:1030B0006091160370E086E293E00E94D303909142
:1030C000AC038091040398130C94270D8091160390
:1030D00081508093160380911403909116038917F1
:1030E00010F480931603409116036091150384E059
:1030F00093E00E94740460911503112311F40C9461
:103100003D0D80911603861B990B889714F00C9443
:10311000470D81E090E090931D0380931C031FA650
:103120000C944B0E101611060CF45DC8D101DF96FD
:10313000DC92BEADBF5FBEAFE9ADFAADE01BF10BF7
:103140005BC86F5F7F4FFDC04E175F07D1F7E61575
:10315000F70509F472C941E05FEFE51AF50A41117C
:10316000D8C0F101E05CFF4F89AD9AAD66E070E038
:103170000E94252F71836083009112031091130325
:10318000D801DA96ED91FC91DB97148ADA96ED91ED
:10319000FC91DB97118ADA96ED91FC91E054FF4F98
:1031A0001082512C5801B4E4AB0EB11C442443945A
:1031B0003801E2E46E0E711C1801F3E42F0E311C8D
:1031C000D801DA96CD90DC90DB97F601808958160D
:1031D00008F0D8CCD5018C918111E6C9E52CF12CF1
:1031E000B701C60182960E94D303F601E855FF4F4E
:1031F000808190E0F80124AD022E000C330B821781
:10320000930741F025AD022E000C330B8217930774
:1032100009F0CAC9D801DA96CD90DC90B701C60191
:1032200082960E94D303F601E855FF4F8080F80193
:1032300095AC81E0891001C080E080935E02D801E6
:10324000DA96CD90DC90B70161507109C601829683
:103250000E94D303F601E855FF4F8081F5014082BB
:10326000D801DA96ED91FC91DB97518A552009F44B
:10327000B8CAE82FF0E089105BC9DF962C91DF9780
:10328000022E000C330B2E173F0709F475C9DA968E
:103290002D913C91DF01AA0FBB1FA20FB31FA355B5
:1032A000BF4FF80184ADE82FEE0FFF0BE20FF31FC5
:1032B000E355FF4F2D913C9180819181281739076B
:1032C0000CF45AC9D801DA96ED91FC9181898F5F8F
:1032D000818B57C92BA53CA52E173F0709F0A3C822
:1032E0008DA95BA96AE0569F800D1124969E000D62
:1032F00011248A3008F48C590A3008F40C59DE0184
:103300005F967D019E012D5D3F4F390190E0202F9A
:1033100030E0D3014D913D01042E000C550B4817B0
:10332000590749F0D7014C91042E000C550B841716
:10333000950709F00CCFBE01615E7F4FAE014D5D78
:103340005F4FDA01CD90AD010C2C000CDD08C216E8
:10335000D30649F0DB01CC900C2C000CDD082C15B9
:103360003D0509F0F1CEE615F70509F4FACE40E087
:10337000F3CE0C94CC2DCF93DF93C2E0D0E0FE01CE
:10338000EB50FE4F6491CE010E94B9192196CB32C9
:10339000D105A9F7D0E0C0E0C13079F464E881E359
:1033A00090E00E94B9192196C830D105A9F783EEA3
:1033B00091E0DF91CF910C94CE0860E0CE01C096F1
:1033C000F0CF0C94C42DCF93DF932A981C9B0EC092
:1033D00061E070E080E090E00E949F038091050131
:1033E000882399F0815080930501F0CF8EE70E94E9
:1033F0007805C0E3D0E0CE010E94E1190E94780573
:103400002196C833D105B9F72A9ADF91CF91089553
:10341000CF93DF932A9A83E790E0FC013197F1F78D
:103420002A980197F1F72A9A8FEA90E00197F1F72D
:1034300080E30E9403066AE070E080E090E00E9472
:103440009F032A981C9B0EC061E070E080E090E032
:103450000E949F0380910701882381F1815080930E
:103460000701F0CF80E40E947805C2E0D0E0CE01F1
:103470000E94E1190E9478052196CB32D105B9F757
:103480002A9A83E290E00197F1F784E190E00E94AC
:10349000E11990E024E0959587952A95E1F78770EA
:1034A00080930C010E94E31961E070E080E090E0FD
:1034B0000E949F03DF91CF910C943906DF91CF9149
:1034C00008952F923F924F925F926F927F928F92C8
:1034D0009F92AF92BF92CF92DF92EF92FF920F93A3
:1034E0001F93CF93DF93CDB7DEB7CD59D1400FB641
:1034F000F894DEBF0FBECDBF0E948307CF5FDE4FC3
:1035000019821882C150D14081E0C85EDE4F8883A5
:10351000C851D140C75EDE4F19821882C951D140CF
:10352000C05DDE4F8883C053D140CF5CDE4F19822F
:103530001882C153D140C85BDE4F8883C854D14044
:10354000C75BDE4F19821882C954D140C05ADE4F82
:103550008883C056D140CF59DE4F19821882C15698
:10356000D140C858DE4F8883C857D1409E012F5F95
:103570003F4F290180E091E0D901FC011D92319774
:10358000E9F7CE57DE4F39832883C258D1406624ED
:103590006A9401E012E0EE24EA94C557DE4F1882E7
:1035A000CB58D140F1E0C257DE4FF883CE58D1401E
:1035B00088E1782E4E0193949CE0F92ED8018C91ED
:1035C000833509F06EC111968C91833481F4E394B4
:1035D000E1E0F1E0EC0FFD1F7E9CE00DF11D1124F8
:1035E0001282C257DE4F1882CE58D1400EC08D34A1
:1035F00009F03AC1E394E1E0F1E0EC0FFD1F7E9C9D
:10360000E00DF11D1124B1E0B283E11010C043E0E0
:1036100050E061E072E083E692E00E941702CE572C
:10362000DE4F59824882C258D14010E000E0CE57A8
:10363000DE4F88819981C258D14080179107C1F12E
:103640004816590639F00196CE57DE4F9983888384
:10365000C258D140CE57DE4F08811981C258D1409F
:10366000B12CCE57DE4FC880D980C258D140CB0C88
:10367000D11CCE57DE4FD982C882C258D1400E9499
:10368000670297FDFCC1D6018C936B18CE57DE4FB5
:10369000E881F981C258D14080818B3309F011C291
:1036A000662009F413C211820115110509F086CFB5
:1036B00080911A02882361F08BE30E94F005882331
:1036C00039F00E9430061EEF1F3F09F019C2539ACD
:1036D000CD5FDE4F8881C350D140811124C2C85EC6
:1036E000DE4FF881C851D140C657DE4FF883CA5823
:1036F000D140F11106C021E0C657DE4F2883CA58D9
:10370000D140C157DE4F1882CF58D1408E2D90E066
:10371000C856DE4F99838883C859D14081E091E033
:103720008C0F9D1FA8E1AE9D800D911D1124FC0101
:103730003396C656DE4FF983E883CA59D1409C01BF
:103740002E5F3F4FC456DE4F39832883CC59D1407A
:10375000F12C01E011E00C0F1D1F38E13F9D000D21
:10376000111D1124D80112968C91823009F0EDC1FF
:10377000912CF8017796C857DE4FF983E883C85833
:10378000D14098012B5F3F4FC457DE4F39832883C8
:10379000CC58D140C8010396CC57DE4F998388831B
:1037A000C458D14081E090E08C0F9D1FA8E1FA9EA3
:1037B000800D911D1124FC013796CA57DE4FF98305
:1037C000E883C658D140C857DE4FA881B981C85890
:1037D000D1408C91981608F0CCC2C457DE4FE881D6
:1037E000F981CC58D14020803180CC57DE4FA88160
:1037F000B981C458D140CC901196DC900E947A03D4
:103800002B013C018601F8010215130508F094C153
:103810000F5F1F4FE081E053F0E0EE0FFF1FCA572C
:10382000DE4F28813981C658D140E20FF31FF3954E
:10383000A080B1806501B7FE04C0CC24DD24CA1885
:10384000DB080E947A036415750586059705C8F3A1
:10385000B7FE70C15B98C601DD0CAA0BBB0B480E0E
:10386000591E6A1E7B1ECFCF823561F4E394E1E0DE
:10387000F1E0EC0FFD1F7E9CE00DF11D112422E014
:103880002283AFCE8E3409F0C0CEE394E1E0F1E0C4
:10389000EC0FFD1F7E9CE00DF11D112433E03283FF
:1038A000B4CE803569F512968C9112978D3309F05C
:1038B000BECE1196EC91B0EDDB2EDE0EB7E0BD155D
:1038C00008F4B5CE4AE050E0BE016E577E4FC80105
:1038D00003960E94922AFE9CF0011124ED0DF11D29
:1038E000EE0FFF1F21E031E02C0F3D1FE20FF31F11
:1038F00070876783E1109BCEC8010E940C098FCEB0
:103900008235C1F411968C918D3309F090CE4AE046
:1039100050E0BE016E577E4FC80102960E94A92B4F
:10392000E1E0F1E0EC0FFD1F7E9CE00DF11D1124A4
:10393000678BE0CF843449F5F80181818D3309F03C
:1039400076CECC24C394DC2CCC0EDD1E7E9CC00C29
:10395000D11C1124C8010296D60114969C938E9313
:103960001397A401401B510B4D5F5F4F6BE370E059
:1039700001960E94712FCE57DE4F99838883C258DB
:10398000D140F6019683858352CE8334C9F41196D3
:103990008C918D3309F04BCE4AE050E0BE016E575A
:1039A0007E4FC80102960E94A92BE1E0F1E0EC0FE6
:1039B000FD1F7E9CE00DF11D11247183608337CEC5
:1039C000CE57DE4F28813981C258D140863409F064
:1039D0002ECEF80181818D3309F029CE201B310BC9
:1039E000C901019797FDC90195958795C557DE4F88
:1039F0008883CB58D1408150853008F018CE809113
:103A00001A02882309F413CECF57DE4F1882C1580B
:103A1000D1405E01F7E8AF1AFEEFBF0A680122E06D
:103A2000C20ED11C312C5DE0252E230C60E8822DC6
:103A30000E949D05D5018D935D01F60181919191C3
:103A40006F01C158DE4F99838883CF57D14040E141
:103A500050E070E060E0CE0181589E4F0E94922AB3
:103A6000822D0E947E053394C557DE4FF881CB58D6
:103A7000D1403F16C0F2DBCDBB24B394F2CD89E731
:103A800090E00E943A0381E790E00E94CE08C3567E
:103A9000DE4F0FB6F894DEBF0FBECDBFDF91CF91E2
:103AA0001F910F91FF90EF90DF90CF90BF90AF905C
:103AB0009F908F907F906F905F904F903F902F904E
:103AC00008958A3009F4C4C16110D6CF8BEA94E01E
:103AD0000197F1F78E0113950E94670297FD09C0C7
:103AE0008A30910531F0F20181932F010E171F07E3
:103AF00099F789E790E00E943A0388E690E0C5CF05
:103B000085E30E9403060FEF010F8077803241F0BA
:103B100061E070E080E090E00E949F03102FD4CD20
:103B20001111D5CDD5CD31E0C657DE4F3883CA58F7
:103B3000D140E7CD5B9A8FCE0E947A03641575055C
:103B400086059705C8F393943ECE813009F0CAC02C
:103B5000C857DE4F1882C858D1406801C80147963F
:103B6000CE56DE4F99838883C259D140D80115962D
:103B7000CA56DE4FB983A883C659D140F80133969F
:103B8000CA57DE4FF983E883C658D140CE56DE4F80
:103B9000A881B981C259D1408C91C857DE4FB881F4
:103BA000C858D140B81708F0E4C0F60140805180F1
:103BB000CA56DE4FA881B981C659D1400D90BC913B
:103BC000A02DC057DE4FB983A883C059D140CA5732
:103BD000DE4FE881F981C658D140708011810E9482
:103BE0007A034B015C01CC57DE4F7882C458D14038
:103BF000CB57DE4F1883C558D140052C000C660802
:103C00007708C057DE4F28813981C059D140CC5741
:103C1000DE4F88819981C458D1408217930708F0FC
:103C200055C0DC018D91CC57DE4FB983A883C458B1
:103C3000D14090E38A330CF097E3891B04E010E055
:103C400038E0232EE82F880FFF0BCC56DE4FF98388
:103C5000E883C459D140312CCC56DE4F28813981BC
:103C6000C459D14022213321C457DE4F39832883E0
:103C7000CC58D140232B31F55B9A840C951CA61CA3
:103C8000B71C0E947A03681579058A059B05C8F35D
:103C9000C457DE4F88819981CC58D140892BA1F43B
:103CA0005B98840C951CA61CB71C0E947A036815AF
:103CB00079058A059B05C8F33594279401501109AD
:103CC00051F69FCF5B98D9CF5B9AEBCFC857DE4FA9
:103CD0009881C858D1409F5FC857DE4F9883C85815
:103CE000D14054CF833009F044C0712C5801A7E172
:103CF000AA0EB11C0B5F1F4FF50180817816C8F525
:103D0000D8018D909C90C656DE4FE881F981CA5942
:103D1000D140C080D1802A988FE70E947805C814CE
:103D2000D90498F4D6018C910E944F06682E6294B3
:103D300090EF6922F60181810E944F06860D0E9454
:103D40007805F2E0CF0ED11CEACF2A9A88ECD82E63
:103D500060EC85E30E949D05833149F461E070E0E9
:103D600080E090E00E949F03DA94D110F1CF739429
:103D7000C3CFC456DE4FA881B981CC59D1408C91B4
:103D8000833009F05B98F394EF1408F0E2CCC2574B
:103D9000DE4FB881CE58D140BB2331F061E070E0F6
:103DA00080E090E00E949F03C157DE4FE881CF582A
:103DB000D140EF5FC157DE4FE883CF58D140C6579F
:103DC000DE4FF881CA58D140FE13C2CCC557DE4F32
:103DD0002881CB58D1402223A9F07E0137E8E31A8D
:103DE0003EEFF30A10E0D7016D917D018DE0810F68
:103DF0000E947E051F5FC557DE4FB881CB58D1406A
:103E0000B113F1CFCE0101960E940C0988E1C8568A
:103E1000DE4F28813981C859D140829FF001839FAC
:103E2000F00D112481E091E08C0F9D1FE80FF91F28
:103E30008281833051F084E093E00E94EB04109281
:103E4000D4031092D6031092D5030E94F6071FCE1A
:103E5000662009F43BCE2CCCCF92DF92EF92FF92FA
:103E60000F931F93CF93DF93CDB7DEB728970FB68D
:103E7000F894DEBF0FBECDBF83E692E00E94B5028C
:103E8000892B71F010910F021E30C9F483E890E085
:103E90000E943A0381E092E00E94980810920F027B
:103EA00028960FB6F894DEBF0FBECDBFDF91CF913D
:103EB0001F910F91FF90EF90DF90CF90089583E6D0
:103EC00092E00E945302E12FF0E0EF5FFD4F80830C
:103ED0008D3029F0D4F4882311F08A30D9F4809100
:103EE0000102873509F421C30CF04BC0803509F479
:103EF00007C1A4F48F3309F49FC0833409F44FC180
:103F000082EE90E00E94CE08C9CF833241F38B331A
:103F100009F4F4C31F5F10930F02AECF823509F48A
:103F200017C1863569F78DEA91E00E943A038091C6
:103F30001A02882309F401C185EA91E00E943A033C
:103F400088E20E94550380EA91E00E943A0384EDE2
:103F500091E00E943A038AE991E00E943A030E94AC
:103F6000D705853009F4F1C008F0D6C0833009F4D4
:103F7000DDC0843009F4E6C081E991E00E943A0393
:103F8000D9C0823709F482C284F4883509F4FAC0B2
:103F9000853609F0B5CF80911A02882309F4B8C09C
:103FA0000E94BB190E94081AB3C0843709F4E0C00C
:103FB0000CF48EC3883709F0A3CF80910202082E3B
:103FC000000C990B0E94652F892B09F4A1C08091E8
:103FD0000302082E000C990B0E94652F892B09F40F
:103FE00097C080911A02882309F492C040E150E002
:103FF00070E060E082E092E00E94922AF62E10E0EB
:1040000000E06F2D81E390E0013019F060E0C8011D
:10401000C0960E94B9190F5F1F4F0830110589F72C
:104020000E94E31986E691E00E943A038F2D0E94D8
:10403000880885E591E083C08FE30E94550386EDF3
:1040400091E00E943A0386E50E94550384ED91E0D9
:104050000E943A0382E50E94550384ED91E00E949C
:104060003A0384E70E94550384ED91E00E943A03ED
:1040700088E50E94550384ED91E00E943A0383E5B0
:104080000E94550384ED91E00E943A0380E50E946E
:10409000550384ED91E00E943A0383E40E945503A6
:1040A00084ED91E00E943A0382E70E94550384ED7B
:1040B00091E00E943A0387E50E94550384ED91E068
:1040C0000E943A0383E70E94550384ED91E00E9429
:1040D0003A0380911A02882371F088E70E94550301
:1040E00084ED91E00E943A0385E60E94550384ED39
:1040F00091E00E943A038CE391E00E94980808C086
:1041000085E891E00E9498088BEC97E00197F1F721
:1041100081E080935D02C2CE8431A1F0873119F035
:10412000873009F029CF8FE891E002C088E891E05C
:104130000E940C0989E20E9455038DE691E00E94DD
:10414000CE08E6CF8AE891E0F3CF8CE891E0F0CF9B
:1041500020918B0430918C042115310511F421E953
:1041600034E0CE010196821B930B0E94DC08D0CF75
:104170000E9478064AE00E9416088AE391E00E94B5
:104180000908C6CF80910202813519F40E94830785
:10419000BFCF853409F0BCCF0E94F607B9CF80911C
:1041A0000202873409F484C00CF061C09CEB980FC4
:1041B000923008F4BCC0082E000C990B0E94652FA9
:1041C000892B09F4A5CF80910302082E000C990BCE
:1041D0000E94652F892B09F49BCF80911A028823B6
:1041E00009F496CF40E150E070E060E082E092E0B8
:1041F0000E94922A162F809104028E3609F0CDC0BB
:1042000080910502082E000C990B0E94652F892BC6
:1042100009F4C3C040E150E070E060E085E092E066
:104220000E94922A1F3208F073CF02E0060F83E447
:104230000E945503812F0E9488088EE60E94550334
:10424000802F0E9488088DE30E945503812F800FE4
:104250009927991F7C011E151F040CF04CCF60E8B4
:10426000812F0E949D050E9488081F5FF4CF83352F
:1042700009F0A1CF66E971E083E092E00E94902FFF
:10428000892B09F445CF4AE050E070E060E089E016
:1042900092E00E94922A6093C50377278827992786
:1042A0004AE00E94160882EA90E00E943A0330CF6A
:1042B0008FE990E00E943A038DE990E00E943A0372
:1042C0008091070390E00E945A088BE990E00E94D9
:1042D0003A0388E990E00E943A038DE990E00E9459
:1042E0003A038091050390E00E945A088BE990E020
:1042F0000E943A0385E990E00E943A038DE990E03C
:104300000E943A038091060390E00E945A088BE9CC
:1043100090E00E943A0381E991E00E940C098DE946
:1043200090E00E943A038091080390E01ECF9091A4
:104330000302923551F114F5E6E0F3E0933409F00D
:10434000E7CE853441F581E0808360910503660FF7
:104350008091060324E0829FC0011124682B809184
:104360000703682B80910803E8E08E9FC0011124A9
:10437000682B8FEF90E00E94B919CACE933541F0B7
:10438000E5E0F3E09535E9F2C3CEE8E0F3E0D9CF1C
:10439000E7E0F3E0D6CF1082D8CF1E33C8F01E334B
:1043A00009F04EC088EB90E00E943A032A981C9BCB
:1043B00025C061E070E080E090E00E949F03809162
:1043C0000001882309F4A4CE815080930001EFCF2F
:1043D00060E81F3208F060EC812F0E949D05082FD5
:1043E00083E40E945503812F0E9488088DE991E0A3
:1043F0000E940C09802F0E9488087DCE8EEF0E94BB
:1044000078058E010F5F1F4F6E0199E0C90ED11C18
:10441000780180E00E947805F70181937F01CE1634
:10442000DF06B9F72A9A86EB90E00E943A03F8017A
:1044300081918F010E948808E016F106A1F75BCEFA
:10444000193909F065CE10E0112341F0103111F057
:10445000103279F486EB90E00E943A038FEA90E004
:104460000E943A03812F0E9488088CEA90E00E9403
:104470003A0360E8812F0E949D050E94880880E22F
:104480000E9455031F5F1F32F9F635CE809102025C
:10449000082E000C990B0E94652F892B09F438CE49
:1044A00080910302082E000C990B0E94652F892B26
:1044B00009F42ECE80911A02882309F429CE40E116
:1044C00050E070E060E082E092E00E94922A062FC5
:1044D0008EE491E00E943A0384ED91E00E943A0359
:1044E000802F0E9488088091040210E08E36A9F483
:1044F0008BE491E00E943A03F12CE12CC8018E0D6F
:104500009F1D0E94E1190E948808FFEFEF1AFF0A21
:1045100020E1E216F10491F7EECD87E491E00E94EC
:104520003A03C8010E94E11966CF809102028335E7
:1045300009F040C0909103029333E1F580910402A9
:10454000082E000C990B0E94652F892B09F4E0CDF1
:1045500040E150E070E060E083E092E00E94922A47
:10456000162F6E3308F0D4CD862F0E940306F82E46
:1045700061E070E080E090E00E949F038DE30E9484
:104580000306082F84ED90E00E943A03812F0E94D9
:10459000880887EC90E00E943A038F2D82958F70F7
:1045A0000E9488088EEB90E00E943A03802F82954B
:1045B0008F7021CF082E000C990B0E94652F892B3C
:1045C00009F4A6CD80910302082E000C990B0E94DD
:1045D000652F892B09F49CCD80910402082E000CD4
:1045E000990B0E94652F892B09F492CD80910502C9
:1045F000082E000C990B0E94652F892B09F488CD99
:104600001B8280910202909103029A83898340E188
:1046100050E070E060E0CE0101960E94922A062FE1
:1046200080910402909105029A83898340E150E0D1
:1046300070E060E0CE0101960E94922A162F802F32
:1046400090E00E94B91980911A02882321F0612F0D
:10465000802F0E94A608023109F05ACD82E090E036
:104660000E94E1198D3009F053CD173C78F516EB17
:10467000612F83E290E00E94B91980911A02882389
:1046800021F0612F83E20E94A6088091040290919C
:1046900005029A83898340E150E070E060E0CE013A
:1046A00001960E94922A17E0673508F017E4612FFF
:1046B00085E090E00E94B91980911A02882309F4DC
:1046C00027CD612F85E00E94A60822CD16E5D0CF28
:1046D00080911A02811103C085E891E00ECD0E94FD
:1046E000C7058111F9CF85EA91E00E943A0386E07F
:1046F00091E00E943A038CEF90E021CD0E94611A74
:10470000CDCB0E94C10281110C942C1F08951F92E1
:104710000F920FB60F9211242F933F934F935F93F5
:104720006F937F938F939F93AF93BF93EF93FF9379
:1047300083E692E00E94CB02FF91EF91BF91AF918F
:104740009F918F917F916F915F914F913F912F91A9
:104750000F900FBE0F901F9018951F920F920FB6DB
:104760000F9211242F938F939F93EF93FF93E091D8
:104770007302F09174028081E0917902F0917A02E3
:1047800082FD1BC0908180917C028F5F8F7320918E
:104790007D02821741F0E0917C02F0E0ED59FD4F7F
:1047A000958F80937C02FF91EF919F918F912F9134
:1047B0000F900FBE0F901F9018958081F4CF1F921D
:1047C0000F920FB60F9211242F933F938F939F93C5
:1047D000AF93BF9380915F0290916002A0916102BC
:1047E000B09162023091100223E0230F2D3758F56B
:1047F0000196A11DB11D2093100280935F0290933A
:104800006002A0936102B0936202809111029091C4
:104810001202A0911302B09114020196A11DB11DC4
:104820008093110290931202A0931302B09314028A
:10483000BF91AF919F918F913F912F910F900FBE9C
:104840000F901F90189526E8230F0296A11DB11D09
:10485000D2CF1F920F920FB60F9211242F933F9336
:104860004F935F936F937F938F939F93AF93BF9378
:10487000EF93FF93E0910A01F0910B010995FF91ED
:10488000EF91BF91AF919F918F917F916F915F91C8
:104890004F913F912F910F900FBE0F901F90189541
:1048A0001F920F920FB60F9211242F933F934F93A5
:1048B0005F936F937F938F939F93AF93BF93EF9388
:1048C000FF93E0910801F09109010995FF91EF91A3
:1048D000BF91AF919F918F917F916F915F914F9118
:1048E0003F912F910F900FBE0F901F9018951F9220
:1048F0000F920FB60F9211242F933F934F935F9314
:104900006F937F938F939F93AF93BF93EF93FF9397
:10491000E0911502F09116020995FF91EF91BF9178
:10492000AF919F918F917F916F915F914F913F9147
:104930002F910F900FBE0F901F901895CF93DF937C
:10494000E3E6F2E01382128288EE93E0A0E0B0E0AA
:1049500084839583A683B7838BE191E091838083E1
:1049600085EC90E09587848784EC90E09787868734
:1049700080EC90E0918B808B81EC90E0938B828B2C
:1049800082EC90E0958B848B86EC90E0978B868B05
:10499000118E128E138E148EE3EDF3E08AE5808380
:1049A000118213821282C4E0D3E08EE193E09F8FE4
:1049B0008E8F19A218A28FE78093AB0384E08093B7
:1049C000A8031AA21092A5031092A7031092A6039F
:1049D00087E08093AA0380EF8093A9031092C60317
:1049E0001092C8031092C7031092CA031092C90311
:1049F0001092CC031092CB031092CE031092CD03F1
:104A00001092D0031092CF031092D2031092D103D0
:104A10001B8E1A8ECE010E94EB0481E18093C503A8
:104A20001D8281E08C831F861E860E947A0360931C
:104A30000003709301038093020390930303DF91BB
:104A4000CF910895CF93DF9300D000D000D0CDB7A1
:104A5000DEB7789484B5826084BD84B5816084BDFE
:104A600085B5826085BD85B5816085BD80916E000C
:104A7000816080936E00109281008091810082603D
:104A8000809381008091810081608093810080917A
:104A900080008160809380008091B1008460809369
:104AA000B1008091B00081608093B00080917A0065
:104AB000846080937A0080917A00826080937A008B
:104AC00080917A00816080937A0080917A0080687A
:104AD00080937A001092C100E0917302F091740209
:104AE00082E08083E0917302F09174021082E09181
:104AF0006F02F09170021082E0917102F0917202E7
:104B000080E1808310927B02E0917702F09178023D
:104B100086E08083E0917502F09176028081806169
:104B20008083E0917502F0917602808188608083B5
:104B3000E0917502F0917602808180688083E09137
:104B40007502F091760280818F7D80835298219A40
:104B5000259A239A2498229A80E58CBD2A9A2D9A28
:104B60002B98529853982D9A2B9890E080E00E94B1
:104B7000E119833331F481E090E00E94E1198D3135
:104B8000A9F06FE08FEF90E00E94B91980E292E007
:104B90000E94CE0863E390E080E00E94B9196DE1C5
:104BA00081E090E00E94B9190E94BB198FEF90E05C
:104BB0000E94E119982F91709093070381FB992728
:104BC00090F99093050382FB992790F9909306033F
:104BD00083FB882780F9809308030E94081A0E94AB
:104BE000D70581508E3F08F4B6C110921A0285E7AE
:104BF00091E09C838B831E821D828B819C81AD8181
:104C0000BE818093C9039093CA03A093CB03B09352
:104C1000CC0385E192E09093C8038093C703539A35
:104C200062E370E080E090E00E949F0380E1809367
:104C300081001092800082E08093190281E09DE75C
:104C400090931802809317029093870080938600B8
:104C500082E1809381008CEC96E090931602809321
:104C6000150281E080936F0087E791E09C838B833E
:104C70001E821D828B819C81AD81BE818093CF037A
:104C80009093D003A093D103B093D20383E696E030
:104C90009093CE038093CD0380911A02811173C14A
:104CA0000E94F60780E991E0A0E0B0E080936702FF
:104CB00090936802A0936902B0936A0252E0852E35
:104CC000912CA12CB12C67E0662E7724739473E0AD
:104CD000C72ED12C80910C01833009F080C28091C5
:104CE000D403882309F4F1C28091D40381508093C6
:104CF000D4038091D6036091D3030E94052F909333
:104D0000D603E091D60381E08E0F8093D603F0E0C6
:104D1000EE0FFF1FE952FC4F8081918190931C029E
:104D200080931B021092170360911403662309F409
:104D30002FC16150770B86E293E00E94D3038091EC
:104D4000AC03880F990B8F549C4F9093250380934D
:104D50002403E0912203F091230380911B029091A0
:104D60001C029183808390911403E0912203F091BF
:104D70002303992309F411C1A0912403B0912503C1
:104D8000109709F40AC1208131814D915C9135273A
:104D9000232F221F2227221F81E0408151814115AC
:104DA00053480CF480E031E09E3F09F430E0832367
:104DB00011F02111F4C00E94930A80911703811110
:104DC00004C08091C4038823B1F080911403882328
:104DD000D1F0E0912403F09125033097A1F0A09148
:104DE0002203B09123038D919C91208131818227F0
:104DF000932797FD08C084E093E00E94EB04109293
:104E0000250310922403809114038E3F29F460E05F
:104E100070E0CB010E949F03E0902203F0902303F7
:104E2000F70100811181B80117FF04C066277727B9
:104E3000601B710B072E000C880B990B0E94A72C8E
:104E40002DEC3CEC4CE45EE30E94062D0E94D12E3A
:104E50009B0170931B0360931A036091C103E1EB04
:104E6000F3E0512C6515C9F081919191A801482773
:104E7000592757FDC0C0009709F4BDC0A801481BC1
:104E8000590BCA0157FF03C09195819591092817C5
:104E900039070CF4B0C057FEB0C06830D9F540E017
:104EA00060E084E093E00E947404E091C203F0E0CB
:104EB000EC5FFC4F8681833040F00E94930A40E013
:104EC00060E084E093E00E94740410911403115098
:104ED000E091C203F0E0EC5FFC4F86818823D1F0C3
:104EE000809114038823B1F0612F70E086E293E093
:104EF0000E94D3038091AC03082E000C990B2091E3
:104F0000C2032817190619F761E0610F84E093E0E6
:104F10000E9441095090C203E0912203F0912303C3
:104F200080819181E52DF0E0EE0FFF1FEF54FC4FE3
:104F30009183808381E0850D883009F4C9C0809316
:104F4000C2038091C2039091C103981708F073C007
:104F50008093C10370C081E080931A0285E791E0DD
:104F60009C838B831E821D828B819C81AD81BE813F
:104F70008093C9039093CA03A093CB03B093CC034F
:104F80008DEB95E048CE0E94C705811189CE8ACE6F
:104F90001092250310922403DCCE21E0FDCE98323E
:104FA00009F03ACFD0921D03C0921C0387EC93E026
:104FB0000E942F05811130CFE091C903F091CA03FF
:104FC0002091CB033091CC03A90155954795809151
:104FD000C7039091C803840F951F20FF08C0DC0110
:104FE0002D913C91E20FF31F0190F081E02D099586
:104FF0008093C60311CF539435CF052D000F110BAD
:105000000F541C4FD8016D917C91072E000C880B1A
:10501000990BF70120813181032E000C440B550BB5
:10502000620F731F841F951FA50194010E94392FE1
:10503000D8012D933C93952D8091AA032091A6032E
:105040003091A7038730A1F4121613068CF4E09177
:10505000A5034091AB034150550BE41715060CF026
:1050600041C0EF5FE093A503F0E0EC5FFC4F12A2BC
:10507000A091A8034A2F50E0682F70E06F5F7F4F28
:10508000641B750B161617062CF4952D01C0990F8D
:105090006A95EAF7E091A503F0E0EC5FFC4F62A1AE
:1050A000962B92A32F5F3F4F3093A7032093A60325
:1050B000682F082E000C770B641B750B77FD0FC053
:1050C0008A1B8093AA0320931403109218037FC0B5
:1050D0001092C2038093C1031092C40332CF609236
:1050E000AA03F1CF60E070E0CB010E949F0361EA68
:1050F00071E084E093E00E9413096091150384E05D
:1051000093E00E9440056AEB71E084E093E00E9426
:1051100013096091160384E093E00E94400561EC5E
:1051200071E084E093E00E941309652D84E093E030
:105130000E94400567EC71E084E093E00E9413094F
:105140006091140384E093E00E94400560ED71E0FB
:1051500084E093E00E9413096091A50384E093E04A
:105160000E94400567ED71E084E093E00E9413091E
:105170006091A60384E093E00E9440056EED71E02B
:1051800084E093E00E9413096091180384E093E0A7
:105190000E94400567EE71E084E093E00E941309ED
:1051A00060911C0384E093E00E9440056FEE71E083
:1051B00084E093E00E9413096091170384E093E078
:1051C0000E9440056AE084E093E00E9440058091DF
:1051D0001703882309F483CD70925D0280CD4A9B2A
:1051E00074C080915D020E947B0160EC8BE30E94A1
:1051F0009D05582E882309F468C00E94BD05482EDD
:1052000057FC4CC0B0E4B51510F480E4582E2A9831
:105210008FEF0E9478050DE112E07801222423949B
:10522000312C80E00E947805F70191917F01891768
:1052300019F031978083212C3394351490F32A9AF6
:1052400080910C01823051F4211028C082E00E942C
:10525000550388E492E00E943A0302C08930B1F716
:10526000F12CD8018D918D010E948808F394F514DA
:10527000C0F384E492E00E943A03642D70E090E071
:1052800080E04AE00E9416088BE30E94550383E009
:105290000E9455038BE391E00E940C0960EC85E3CA
:1052A0000E949D05813121F080910C0181110DC07A
:1052B00086E30E94F005882341F08DE30E940306F7
:1052C0008AE30E9403060E9439060E94C1028823D5
:1052D00009F400CD0E942C1FFDCC0F931F93CF9398
:1052E000DF938230910510F482E090E0E0918D042C
:1052F000F0918E0430E020E0B0E0A0E0309799F427
:105300002115310509F44AC0281B390B2430310519
:10531000D8F58A819B816115710589F1FB01938321
:105320008283FE0111C0408151810281138148179F
:105330005907E0F04817590799F4109761F0129651
:105340000C93129713961C933296CF01DF91CF9155
:105350001F910F91089500938D0410938E04F4CF44
:105360002115310551F04217530738F0A901DB012F
:105370009A01BD01DF01F801C1CFEF01F9CF909390
:105380008E0480938D04CDCFFE01E20FF31F819335
:1053900091932250310939832883D7CF20918B04F0
:1053A00030918C04232B41F420910F013091100196
:1053B00030938C0420938B0420910D0130910E01C9
:1053C0002115310541F42DB73EB74091110150919F
:1053D0001201241B350BE0918B04F0918C04E21731
:1053E000F307A0F42E1B3F0B2817390778F0AC0108
:1053F0004E5F5F4F2417350748F04E0F5F1F5093E5
:105400008C0440938B04819391939FCFF0E0E0E074
:105410009CCFCF93DF930097E9F0FC013297138282
:105420001282A0918D04B0918E04ED0130E020E055
:105430001097A1F420813181820F931F20918B045A
:1054400030918C042817390709F061C0F0938C045F
:10545000E0938B04DF91CF910895EA01CE17DF0727
:10546000E8F54A815B819E0141155105B1F7E901DB
:10547000FB83EA8349915991C40FD51FEC17FD07AF
:1054800061F4808191810296840F951FE9019983CF
:105490008883828193819B838A83F0E0E0E0129687
:1054A0008D919C9113970097B9F52D913C9111978F
:1054B000CD010296820F931F20918B0430918C04B2
:1054C0002817390739F6309751F510928E0410924B
:1054D0008D04B0938C04A0938B04BCCFD383C28380
:1054E00040815181840F951FC817D90761F44E5F21
:1054F0005F4F88819981480F591F518340838A816A
:105500009B81938382832115310509F0B0CFF093FD
:105510008E04E0938D049ECFFD01DC01C0CF138289
:105520001282D7CFB0E0A0E0E8E9FAE20C94182E9E
:105530005C016B017A016115710519F0FB01918322
:105540008083E114F10451F0C7010297839730F092
:1055500040E030E020E090E072C05E01E50121967D
:10556000F5011081812F90E00E94942C892BA9F7DE
:105570001D3201F52196F501118101E0E114F104DC
:1055800009F4DAC0F0E1EF16F10409F082C010333B
:1055900059F488818F7D883509F076C0198122966B
:1055A0000260F0E1EF2EF12C812C912CA12C88E0EF
:1055B000B82E8CC01B3221F4E5012296F501118131
:1055C00000E0DCCFEAE0EE16F10409F4BBC0F0E144
:1055D000EF16F10409F06DC0E7CF78E0E72EF12C6B
:1055E000812C912CA12C60E1B62E70C03FE9310FC7
:1055F0003A3128F439EA332E80C021E09AC0302FA6
:105600003170C114D10431F0222309F12197F60140
:10561000D183C08327FF21C060E070E080E090E884
:10562000311104C06FEF7FEF8FEF9FE722E230E090
:105630003093900420938F04462F372F282F642F08
:10564000732F822FCDB7DEB7E1E10C94342E01FF2A
:1056500004C02297F601D183C083332341F0909593
:105660008095709561957F4F8F4F9F4FE5CF97FF46
:10567000E3CF82E290E09093900480938F046FEFE9
:105680007FEF8FEF9FE7D8CF10E3E114F10409F427
:10569000A4CF28E0E216F10409F4A2CF0CF092CFD7
:1056A000812C912CA12CE0E4BE2E82E0E816F104BE
:1056B00069F060E070E080E090E897010F2C000C4A
:1056C000440B550B0E94EA2D49015A0120E060E08D
:1056D00070E0CB0127010F2C000C66087708FE0153
:1056E00050ED352E310E39E0331540F43FEB310FDC
:1056F0003A3108F07BCF49EC342E310E3E141F04B2
:105700000CF07DCF27FD15C086169706A806B906B2
:1057100078F0A30192010E94DA2D630D711D811DA5
:10572000911D61307105810520E8920708F465CF6D
:105730002FEF21961081D3CF103309F42ACF2AE01E
:10574000E22EF12C9CEC892E982CA82C9CE0B92EF2
:10575000BDCFB0E0A0E0EFEAFBE20C94182E5C01B4
:105760006B017A016115710519F0FB01918380834A
:10577000E114F10449F0C7010297839728F060E033
:1057800070E0CB019CC05E01E5012196F50110811E
:10579000812F90E00E94942C892BA9F71D3209F0EB
:1057A00056C02196F501118101E0E114F10409F4DC
:1057B000AEC0F0E1EF16F10409F08EC0103341F4F1
:1057C00088818F7D883509F083C019812296026017
:1057D000E0E1EE2EF12C88248A94982CA82CFFE08E
:1057E000BF2E20E060E070E0CB0127010F2C000C01
:1057F00066087708FE0150ED352E310E39E033157D
:1058000038F43FEB310F3A31A0F549EC342E310E2C
:105810003E141F04BCF52F3FB9F086169706A80664
:10582000B90670F1A30192010E94DA2D232D30E018
:1058300050E040E0620F731F841F951F62177307CB
:1058400084079507E8F021E021961081D3CF1B3221
:1058500021F4E5012296F501118100E0A6CF78E060
:10586000E72EF12C88248A94982CA82C6FE1B62E70
:10587000B8CF3FE9310F3A3128F439EA332EC7CF98
:105880002FEFE2CFC114D10431F02223E9F02197A8
:10589000F601D183C08300FF07C090958095709575
:1058A00061957F4F8F4F9F4F2F3F49F482E290E0E9
:1058B0009093900480938F046FEF7FEFCB01CDB76F
:1058C000DEB7E1E10C94342E01FFE5CF2297E0CF63
:1058D00010E3E114F10419F23AE0E316F104E9F0FF
:1058E00080E1E816F10409F473CFE8E0EE16F10464
:1058F00009F4B8CF6FEF7FEFCB0197010F2C000CAD
:10590000440B550B0E94EA2D49015A016ACF10330E
:1059100009F456CF9AE0E92EF12C89E9882E982CCB
:10592000A82C89E1B82E5DCF91110C949D2C80326A
:1059300019F089508550C8F7089599278827089548
:105940000E94E22C08F481E00895E89409C097FBD6
:105950003EF490958095709561957F4F8F4F9F4F46
:105960009923A9F0F92F96E9BB279395F69587958A
:1059700077956795B795F111F8CFFAF4BB0F11F44D
:1059800060FF1BC06F5F7F4F8F4F9F4F16C08823F4
:1059900011F096E911C0772321F09EE8872F762F2A
:1059A00005C0662371F096E8862F70E060E02AF06B
:1059B0009A95660F771F881FDAF7880F9695879557
:1059C00097F90895990F0008550FAA0BE0E8FEEF2C
:1059D00016161706E807F907C0F012161306E407B3
:1059E000F50798F0621B730B840B950B39F40A26AC
:1059F00061F0232B242B252B21F408950A2609F48A
:105A0000A140A6958FEF811D811D08950E94192D3B
:105A10000C948A2D0E947C2D38F00E94832D20F05A
:105A2000952311F00C94732D0C94792D11240C9462
:105A3000BE2D0E949B2D70F3959FC1F3950F50E0F2
:105A4000551F629FF001729FBB27F00DB11D639F30
:105A5000AA27F00DB11DAA1F649F6627B00DA11DD6
:105A6000661F829F2227B00DA11D621F739FB00D7C
:105A7000A11D621F839FA00D611D221F749F3327EC
:105A8000A00D611D231F849F600D211D822F762F85
:105A90006A2F11249F5750409AF0F1F088234AF062
:105AA000EE0FFF1FBB1F661F771F881F91505040CE
:105AB000A9F79E3F510580F00C94732D0C94BE2DD8
:105AC0005F3FE4F3983ED4F3869577956795B79555
:105AD000F795E7959F5FC1F7FE2B880F911D96956F
