:100000000C94B2010C942C240C9405240C94DE2343
:100010000C94B7230C94DA010C94DA010C9490231D
:100020000C94DA010C94DA010C94A5200C941421A0
:100030000C94DA010C94DA010C94DA010C94DA01D4
:100040000C94DA010C94DA010C94DA010C94DA01C4
:100050000C9453240C94DA010C94DA010C9446238A
:100060000C94DA010C94DA010C94DA010C94DA01A4
:100070000C94DA010C94DA010C94DA010C94DA0194
:100080000C94DA010C94DA010C94DA010C94DA0184
:100090000C94DA010C94DA010C94DA010C94DA0174
:1000A0000C94DA010C94DA010C94DA01746F206C70
:1000B0006F6E672000636F72727570740073656E87
:1000C0006420636D6420006363466163746F7279BA
:1000D000526573657420646F6E65000D2E2D47D3D5
:1000E000913D04320000060010B07157C43023B9AE
:1000F00000070018146C070091876BF8B611E92A05
:10010000001F4100080B0002020200000904000069
:100110000102020000052400100105240101010470
:10012000240206052406000107058103100040098A
:10013000040100020A000000070502024000000757
:100140000583024000000403090412010002EF02CB
:100150000140A91D2C00000101020301556E6B6EC8
:100160006F776E00726164696E6F20434331313086
:100170003100496E697420656570726F6D20746F0F
:100180002064656661756C747320616674657220A5
:10019000666C61736800436F6D6D616E6420746F8F
:1001A000206C6F6E673A20004D43004D55003B00B8
:1001B0003D004D5300206269747320736574003AEA
:1001C0002000636372656720002000433345203DB3
:1001D000002064656C617931200020636869705388
:1001E00074617475732000636D645374726F62651B
:1001F0005265672000556E737570706F7274656418
:100200002073686F727420636F6D6D616E6400633C
:100210006F6D6D616E642065006973206E6F742070
:10022000636F72726563746C792073657420666F96
:10023000722041534B2F4F4F4B2E20506C656173F2
:100240006520646F206120666163746F727920722B
:1002500065736574207669612000203D2000203A96
:1002600000454550524F4D0020746F20504154417D
:10027000424C4520646F6E6500777269746520009A
:10028000202D20636F6D70696C6564206174204E51
:100290006F7620323520323032302031383A3335E3
:1002A0003A333800383638200034333320004D6874
:1002B0007A0063633131303120005620332E352EE1
:1002C000302D6465762B32303230313132355F6912
:1002D000746F61205349474E414C6475696E6F20BD
:1002E00000200020557365206F6E65206F6620002A
:1002F0003B523D004D4E3B443D00000000002500B8
:1003000028002B002E00310004040404040304051B
:1003100002020202040302020202060606060606A2
:10032000040402020204040802011040804010206C
:1003300040804080080204018040201002011080AB
:10034000102040400000000200090F0000030401DB
:10035000000C000000000000000000000000000091
:1003600000007A2411241FBECFEFDAE0DEBFCDBF3C
:1003700012E0A0E0B1E0E0E9F7E602C005900D92DE
:10038000AA30B107D9F724E0AAE0B2E001C01D927B
:10039000AA36B207E1F711E0C2EBD1E004C0219721
:1003A000FE010E946B33C13BD107C9F70E94E624CE
:1003B0000C94C6330C940000FC010994FC01CB01A1
:1003C000642F0994E1E5F3E02491E3E3F3E0349151
:1003D000E5E1F3E09491992309F430C02223E9F098
:1003E00021502F30D0F4E22FF0E0E750FE4F0C9474
:1003F0006B3327022B0208021F0223020D020D029B
:100400000D022E02340238023C0242020D02460264
:10041000209180002F7720938000E92FF0E0EE0FED
:10042000FF1FE650FD4FA591B4919FB7F894EC9152
:10043000811132C030953E233C939FBF0895209197
:1004400080002F7DE8CF20918000277FE4CF24B566
:100450002F7724BDE2CF24B52F7DFBCF20919000D4
:100460002F7720939000D9CF209190002F7DF9CF46
:1004700020919000277FF5CF2091C0002F77209307
:10048000C000CBCF2091C0002F7DF9CF2091C200BA
:10049000277F2093C200C1CF3E2BCECFEF92FF9299
:1004A0000F931F93CF93DF93FB01009759F480E3E1
:1004B00080831182CF01DF91CF911F910F91FF9027
:1004C000EF90089540E097FF04C0919581959109C0
:1004D00041E0EF0110E000E02AE0E22EF12C98016B
:1004E0002F5F3F4FB7010E943833805D8993CB0166
:1004F000009721F5442341F02E0F3F1F8DE2D901D3
:100500008C9398012E5F3F4FDF01A20FB31F1C9207
:1005100035952795BD01EF01CE018E1B9F0B8217EC
:10052000930744F68991DB019E91BD01AE014150D4
:100530005109DA019C93DB018C93EECF8901CFCF77
:100540002FB7F89483E08093E9009091E800892F19
:10055000807295FF04C09091F20080E4891B2FBF48
:100560000895FC0180918302882311F13FB7F8942C
:1005700082E08093E9002091F200822F90E018162B
:10058000190614F481E090E0882339F0289A44E6B3
:10059000409382024091F1004083222339F0209160
:1005A000F200211103C02BE62093E8003FBF08951D
:1005B0008FEF9FEF089580917A0281110DC082E044
:1005C0008093760284E080937702109279021092F1
:1005D000780281E080937A0286E792E0089580E0D5
:1005E00008954091180250911902209116023091FD
:1005F000170242175307B4F49091E8009570E1F3A5
:100600009091E80092FD19C08093F100809118024A
:100610009091190201968F739927892B19F48EEF07
:100620008093E800809118029091190201969093AE
:1006300019028093180281E0089580E00895EF92F6
:10064000FF920F931F93CF93DF93F82E192FE62E6F
:10065000042F81E0860F880F0E94F10283E00E9440
:10066000F102CF2DD12FEC0EFD2EF11CCE15DF05A2
:10067000B9F007FF13C0FE0184910E94F102182F08
:1006800080E00E94F102812321968111EFCFDF915A
:10069000CF911F910F91FF90EF9008958881EDCF3A
:1006A00081E0F5CFDF92EF92FF920F931F93CF93EC
:1006B000DF93D82E8A01EB017B01E40EF51ECE15E7
:1006C000DF0559F0D7FE12C0FE0184910E94F102AD
:1006D00021968111F4CF0FEF1FEFC801DF91CF9169
:1006E0001F910F91FF90EF90DF9008958881EECFDA
:1006F0000F931F93CF93DF931F92CDB7DEB782E0A6
:10070000898342E450E064E071E080E80E94520393
:100710000E94DB02DC0112960D911C91011511055E
:1007200089F0D801ED91FC910280F381E02DBE01AA
:100730006F5F7F4FC801099597FD04C0F8010085E0
:100740001185ECCF89810F90DF91CF911F910F918F
:100750000895615030F02091F100FC012083019652
:10076000F8CF289A84E6809382020895CF93DF938E
:100770001F92CDB7DEB76983DC01ED91FC91028059
:10078000F381E02D41E050E0BE016F5F7F4F09959E
:100790000F90DF91CF9108950F931F93CF93DF9325
:1007A0008C01D0E0C0E0F801EC0FFD1F64916623DE
:1007B00041F089E892E00E94B603892B11F021965E
:1007C000F2CFCE01DF91CF911F910F910895682F45
:1007D00089E892E00C94B60383E08093E90080916D
:1007E000F200882319F08AE38093E80008950E94BC
:1007F000A00290E00895CF93DF931F92CDB7DEB7AC
:10080000FC018485958597FD08C02FEF3FEF358764
:1008100024870F90DF91CF910895CE0101960E9419
:10082000B102019719F4898190E0F3CF8FEF9FEF28
:10083000F0CF2FB7F8948091850290918602A09115
:100840008702B09188022FBF809391029093920209
:10085000A0939302B093940289E892E00E94FB0374
:1008600097FF26C02FB7F894809185029091860259
:10087000A0918702B09188022FBF409191025091C0
:1008800092026091930270919402841B950BA60BC7
:10089000B70B40918D0250918E0260918F02709142
:1008A000900284179507A607B707B0F28FEF9FEF66
:1008B00008950F931F93CF93DF931F92CDB7DEB7A9
:1008C0008C01FC018485958597FF0BC0CE010196B4
:1008D0000E94B102019771F4898190E0F801958737
:1008E0008487F801848595850F90DF91CF911F91C2
:1008F0000F9108958FEF9FEFF1CFFC0184859585CF
:1009000097FD0BC09FB7F89482E08093E900809137
:10091000F2009FBF90E0019608959FB7F89482E09F
:100920008093E9008091F2009FBF90E008953FB767
:10093000F8948091120290911302A0911402B09148
:10094000150226B5A89B05C02F3F19F00196A11DE1
:10095000B11D3FBFBA2FA92F982F8827BC01CD0109
:10096000620F711D811D911D43E0660F771F881F67
:10097000991F4A95D1F708958F929F92AF92BF9297
:10098000CF92DF92EF92FF926B017C010E9497045D
:100990004B015C01C114D104E104F104B9F00E94DF
:1009A0009704681979098A099B09683E7340810593
:1009B000910580F321E0C21AD108E108F10888EE20
:1009C000880E83E0981EA11CB11CE4CFFF90EF902D
:1009D000DF90CF90BF90AF909F908F9008958F92AF
:1009E0009F92AF92BF92CF92DF92EF92FF920F93BE
:1009F0001F93CF93DF936C017B018A0180911B01D0
:100A0000882309F45CC080918302882309F457C0CD
:100A100080911C0280FF05C08091E000826080937D
:100A2000E000E801B12C8AEFA82E93E0892E2AE39A
:100A3000922E209711F4BB20D9F10E94A0028111BF
:100A40000AC0AA94AA20D9F161E070E080E090E0A9
:100A50000E94BC04EECF8C171D0611F00CF08C2FF9
:100A60009FB7F8948092E9002091E80025FD02C02C
:100A70009FBFDFCF282F30E0C21BD30BF70181507F
:100A800020F041914093F100FACFE20EF31EBB201B
:100A900021F09092E800B12CEBCF8091E80085FD29
:100AA000E7CF9092E800BB24B394209709F3F3CFEB
:100AB0005D9A84E680931B02101611063CF081E0DB
:100AC00090E0F6019383828310E000E0C801DF919B
:100AD000CF911F910F91FF90EF90DF90CF90BF903B
:100AE000AF909F908F9008950895CF93DF93FC016E
:100AF000EE57FF4F4081469FF001479FF00D1124B4
:100B0000DF0123E0B695A7952A95E1F7EC01CB57D5
:100B1000DF4F28812A171B0629F124F1229728810B
:100B200030E0E770FF27E90102C0D595C795EA9547
:100B3000E2F7A80FB91F2C912C2330E058E0541B8A
:100B4000469F402D11244770541B02C035952795B0
:100B50005A95E2F78A579F4FFC012083822FDF913D
:100B6000CF9108958FEFFBCFCF93DF93FC0187A93F
:100B700043A954A9873081F4141615066CF4A2A970
:100B800020AD2150330BA21713067CF5AF5FA2AB4B
:100B9000AE0FBF2FB11D1C9275A9C72FD0E0282F13
:100BA00030E02F5F3F4F2C1B3D0B1216130624F431
:100BB00001C0660F2A95EAF7A2A9AE0FBF2FB11D9B
:100BC0009C91692B6C934F5F5F4F54AB43AB282FC5
:100BD000082E000C330B2C1B3D0B871B37FD87E0C9
:100BE00087AB81E0DF91CF91089580E0FBCFCF9379
:100BF000DF93DC011296ED91FC91139714962D91E1
:100C00003C911597E901D595C7958D919C918C0FD5
:100C10009D1F20FF08C0DC012D913C91E20FF31FC6
:100C20000190F081E02DDF91CF9109940F931F93F4
:100C3000CF93DF93FC018089882309F469C0168271
:100C40001782108611861286138614861586411126
:100C500001C0482F262F30E035952795A42FB0E00E
:100C6000B595A79580E060FF14C0EF01C955DF4F2F
:100C700088812817A0F5EF01C20FD31F8AA1C82FC2
:100C8000CF70CE0FDF2FD11D9E819F5F9E832F5F80
:100C90003F4FBF0169557F4F022F10E00A171B0716
:100CA00000F5EB019881291720F4E801CE0FDF1F32
:100CB0008AA1C82FD0E034E0D595C7953A95E1F7E1
:100CC000CE0FDF1F9E819F5F9E83C82FCF70CE0FF8
:100CD000DF2FD11D9E819F5F9E832F5FDDCF80E040
:100CE000CECF40FF15C0EF01C955DF4F9881A9173E
:100CF00020F4AE0FBF1F92968C9190E024E0959562
:100D000087952A95E1F7E80FF91F86818F5F868323
:100D1000DF91CF911F910F910895CF93DF93FC0145
:100D20009C0123543F4FD9011C9211961C9212A290
:100D30005D971C92119611961C921E92149687E054
:100D40008C93108A118E108E59968FEF8C9380831E
:100D50005297CF0106961D921D92EC011992CE0179
:100D6000A217B307C1F7138A86E990E0978B868BA9
:100D7000DF01A755BF4F40E050E060E87EE34D93B0
:100D80005D936D937C931397118A148A158A5796F5
:100D90001C92128A11A210A283E08583DF91CF9169
:100DA0000895FC0180819181892B51F48281938186
:100DB000892B31F48481958121E082278170089507
:100DC00080E008950F931F93CF93DF931F92CDB7C9
:100DD000DEB769838C0107531F4FC8010E94D106FB
:100DE00081110DC041E0BE016F5F7F4FC8010E94BD
:100DF000F7050F90DF91CF911F910F91089590E02B
:100E000080E0F7CFCF93DF93EC018031910538F08C
:100E100024E0969587952A95E1F70E940207CF7006
:100E2000DD27CE5BDE4F68818DED92E0DF91CF91C3
:100E30000C94E2068EBD0DB407FEFDCF8EB508956D
:100E4000CF93DF93D82FC62F2C981B9B0EC061E049
:100E500070E080E090E00E94BC0480910301882350
:100E600059F0815080930301F0CF8D2F0E941A0713
:100E70008C2F0E941A072C9ADF91CF910895CF935F
:100E8000DF93D82FC62F2C981B9B0EC061E070E01B
:100E900080E090E00E94BC0480910201882361F010
:100EA000815080930201F0CF8D2F8C2B0E941A0766
:100EB00080E00E941A072C9ADF91CF9108958091CB
:100EC0001C01813021F084E360EC0C943F0784EF37
:100ED000FBCF60E888E00E943F07823339F460E886
:100EE00080E00E943F0791E08D3009F090E0892F6B
:100EF00008952C989FEF20E130E01B9B08C0F9017A
:100F00003197F1F79150C9F72C9A80E008950E942B
:100F10001A072C9A81E00895CF93C82F2C981B9B19
:100F200012C061E070E080E090E00E94BC0480911B
:100F30000101811104C0C0E08C2FCF910895815030
:100F400080930101ECCF8C2F0E941A07C82F1B9BA6
:100F50000EC061E070E080E090E00E94BC048091EF
:100F60000001882341F3815080930001F0CF2C9A37
:100F7000E3CF86E30E948C0761E070E080E090E0C0
:100F80000C94BC04CF930E94B907CFEF84E30E9476
:100F90008C07C1508077803141F061E070E080E0E3
:100FA00090E00E94BC04C111F1CF2598CF91089523
:100FB00090ED980F9A3030F09FE9980F963020F41A
:100FC00099EA980F892F08959FEB980F963010F4A7
:100FD00099ECF7CF982FF6CF0F931F93CF938C01F7
:100FE000C62F0E94A0028823E1F34C2F50E0B801E5
:100FF00089E892E0CF911F910F910C94EF048F92AA
:101000009F92AF92BF92CF92DF92EF92FF928FB7F3
:10101000F8948090850290908602A0908702B0900C
:1010200088028FBF80910C0290910D02A0910E0258
:10103000B0910F0288169906AA06BB0648F4809163
:101040000A0290910B02019690930B0280930A0280
:1010500080920C0290920D02A0920E02B0920F02AA
:10106000A0910A02B0910B0227E339E841E450E075
:101070000E941F326B017C01C501B40128EE33E0F0
:1010800040E050E00E94FD31C701B601620F731FBE
:10109000841F951FFF90EF90DF90CF90BF90AF908F
:1010A0009F908F9008950F931F93F8940E94970438
:1010B0000091D9021091DA022091DB023091DC021A
:1010C000AB01BC01401B510B620B730B22E0209360
:1010D000220280E89EE39093210280932002909365
:1010E00087008093860082E18093810041303DE754
:1010F00053076105710508F443C066993EC02FEFA0
:1011000032E88091AD038A35D8F48091AD038F5FCA
:101110008093AD038091AE036091AC030E941833BD
:101120009093AE03E091AE03F0E0EE0FFF1FE055A9
:10113000FC4F318320838091AE038F5F8093AE0399
:101140000E9497046093D9027093DA028093DB02C5
:101150009093DC02809175020E94E2011092750268
:1011600078948091100291E0980F90931002811171
:1011700040C01F910F910C94FF0721E03DE7C1CFC4
:10118000413187E258076105710520F381E19DE750
:10119000A0E0B0E0841B950BA60BB70B32E0880FE4
:1011A000991FAA1FBB1F3A95D1F7009731E0A307FB
:1011B000B105A8F421E020932202909321028093AC
:1011C00020028091200290912102909387008093C9
:1011D000860080912202806180938100BBCF2093A2
:1011E000220223E0B695A795979587952A95D1F782
:1011F000E4CF1F910F910895EE9884E795E09093C6
:101200000F0180930E018091230281110E94B90782
:101210001092AD031092AF031092AE03089582E2D4
:1012200099E090930F0180930E0180916A008F7C6A
:10123000806180936A00EE9A8091230281110C9460
:10124000C2070895CF92DF92EF92FF920F931F9300
:10125000F8940E9497040091D9021091DA0220912B
:10126000DB023091DC026B017C01C01AD10AE20A78
:10127000F30A6093D9027093DA028093DB029093B1
:10128000DC028AE5C816D104E104F10498F181E09A
:10129000C8168DE7D806E104F10430F0CC24C394DD
:1012A0009DE7D92EE12CF12C9601669B04C02227E4
:1012B00033272C193D098091AD038A35D8F48091EC
:1012C000AD038F5F8093AD038091AE036091AC035B
:1012D0000E9418339093AE03E091AE03F0E0EE0F5E
:1012E000FF1FE055FC4F318320838091AE038F5F59
:1012F0008093AE0378941F910F91FF90EF90DF9051
:10130000CF900895FC0101900020E9F73197AF01DB
:10131000481B590BBC0189E892E00C94EF048F92B2
:101320009F92AF92BF920F931F93CF93DF93CDB74E
:10133000DEB7A1970FB6F894DEBF0FBECDBF19A2DE
:10134000423008F44AE08E010F5D1F4F842E912C2D
:10135000B12CA12CA50194010E94FD31E62FB90109
:10136000CA01EA30F4F4E05DD801EE938D01232B3D
:10137000242B252B79F790E080E0109719F0CD0110
:101380000E948209A1960FB6F894DEBF0FBECDBFB2
:10139000DF91CF911F910F91BF90AF909F908F9051
:1013A0000895E95CE1CFCF92DF92EF92FF92CF9365
:1013B000DF936C01990FEE08FF08F7FE17C08DE26E
:1013C0000E94E703EC0166277727CB016C197D09A2
:1013D0008E099F094AE00E948F098C0F9D1FDF91A3
:1013E000CF91FF90EF90DF90CF9008954AE0C70132
:1013F000B601DF91CF91FF90EF90DF90CF900C94EA
:101400008F09CF93C82F803120F490E080E00E94B4
:10141000D3096C2F70E090E080E040E1CF910C9414
:101420008F09CF93DF930E948209EC0183E591E05D
:101430000E9482098C0F9D1FDF91CF910895CF9359
:10144000DF93D82F8EEF8D0F8E33F0F4C62F0E94CE
:101450002007D43151F48C2F90E024E095958795A6
:101460002A95E1F7877080931E0187E50E94E703C4
:101470008D2F0E94010A8C2F0E94010A85E591E0C0
:10148000DF91CF910C94110ADF91CF910895CF9302
:10149000DF930E94CC03EC0183E591E00E94820976
:1014A0008C0F9D1FDF91CF910895CF92DF92EF9225
:1014B000FF92CF93DF936C01990FEE08FF08F7FEC0
:1014C0001DC08DE20E94E703EC0166277727CB0160
:1014D0006C197D098E099F094AE00E948F09C80F87
:1014E000D91F83E591E00E9482098C0F9D1FDF9137
:1014F000CF91FF90EF90DF90CF9008954AE0C70121
:10150000B6010E948F09EC01ECCF009711F00C940A
:10151000820990E080E00895EF92FF920F931F936D
:10152000CF93DF9361157105E1F08B01FB01019011
:101530000020E9F731977F01E61AF70AEC01C7535B
:10154000DF4FCE010E94D10681110BC04E2DB80194
:10155000CE01DF91CF911F910F91FF90EF900C94EE
:10156000F70590E080E0DF91CF911F910F91FF9000
:10157000EF9008952F923F924F925F926F927F92D9
:101580008F929F92AF92BF92CF92DF92EF92FF9293
:101590000F931F93CF93DF9300D01F92CDB7DEB789
:1015A000DC0154961C925497662309F46EC0509641
:1015B0002C91222309F469C06217B8F00F900F90A4
:1015C0000F90DF91CF911F910F91FF90EF90DF90DF
:1015D000CF90BF90AF909F908F907F906F905F90D3
:1015E0004F903F902F900C948D06E62FF0E03097AF
:1015F00009F44BC08C010E551F4FD8012D913C9121
:10160000E217F30708F041C09B838A837C01B2E2B2
:10161000EB0EF11C8F559F4F5C01C9010197E81734
:10162000F90709F048C0EA81FB8112A2D5011C929A
:10163000F8011182108287E0EA81FB81EA55FF4FB1
:10164000808381E0AA81BB8154968C935497F801E2
:10165000608150966C93662309F4D9C06150770B72
:10166000C7010E947505EA81FB81E855FF4F808123
:10167000880F990B83559F4F2A813B81820F931FBF
:10168000D90191969C938E9390970F900F900F9005
:10169000DF91CF911F910F91FF90EF90DF90CF904E
:1016A000BF90AF909F908F907F906F905F904F9082
:1016B0003F902F9008952A803B8044EA240E311CED
:1016C000D1014C91649F2001112453E0569447941A
:1016D0005A95E1F74982842E912C68E0C62ED12CD0
:1016E000C601B4010E943833CF010E942433BC01EB
:1016F000D5019C91320177246115710509F465C00B
:10170000469F802D112468E0681BB2E26B0E711CAD
:101710002A803B80260C371CA701742DD9807D19A7
:101720004916B0F4D101CD901D016C90712C062E9C
:1017300002C0759467940A94E2F7082E01C0CC0C9D
:101740000A94EAF7C628DA01CD92AD014394E5CFB9
:1017500020FD11C04A815B81470F511DAA81BB81C9
:10176000A40DB11D92969C9101C0990F8A95EAF73C
:10177000DA0192969C932E1B3F0BF8013183208354
:10178000829EF001839EF00D929EF00D1124CF01F8
:1017900068E070E00E943833AA81BB81AA55BF4F30
:1017A000882389F097E0981B892F8C93CF018819A3
:1017B000990997FD079623E0959587952A95E1F776
:1017C000D5018C933ECF87E0F0CF9419F50190833B
:1017D000492F50E04F5F5F4FB701660D771DC7017E
:1017E0000E949133D1016C9170E0C6010E943833A0
:1017F000669D9001679D300D769D300D1124F80196
:1018000080819181821B930B918380831ACFEA811F
:10181000FB8111A210A239CF2F923F924F925F927B
:101820006F927F928F929F92AF92BF92CF92DF92F0
:10183000EF92FF920F931F93CF93DF93CDB7DEB755
:10184000C355D1090FB6F894DEBF0FBECDBF9E01C0
:101850002F5F3F4F38A72FA386E1D9011D928A95AC
:10186000E9F780919D032091ED02811103C0283298
:1018700008F497C31092F00291E02E3F09F090E037
:101880009093F20240E060E0811168C28DED92E039
:101890000E941606B12C8B2C912CB0919A03BFA7F5
:1018A000EB2FE150FF0B8E169F060CF008C1B3948E
:1018B000F401E352FD4FCF0106962681222359F30E
:1018C000AB2C9401220F331FA90146575C4F58AB34
:1018D0004FA79AAB89AB5CAB4BAB80919A03A81630
:1018E000D0F6EA2CF12CB70163527D4F1B01DB01CE
:1018F00016968C91882309F4E0C0EFA5F8A9C08062
:10190000D180F701EE0FFF1FE657FC4F00811181D8
:10191000C6018027912797FDD0C040908603509044
:1019200087036090880370908903B80117FF04C093
:1019300066277727601B710B072E000C880B990B0D
:101940000E94BA30A30192010E9419316DAB7EABA7
:101950008FAB98AFB601D7FE04C0662777276C1906
:101960007D09072E000C880B990B0E94BA30A30149
:1019700092010E9419319B01AC016DA97EA98FA92A
:1019800098AD0E94713220E030E040E05FE30E94B9
:1019900019310E94DD320C191D0917FF03C0119582
:1019A00001951109601771070CF487C0D12C712CB7
:1019B000F6E02F0E311CD101CC908091ED02D816AB
:1019C00008F044C07C1408F041C06D2D70E08FEF2A
:1019D00092E00E94750580918503082E000C990BFA
:1019E000E816F90689F520918103422F50E0D29E36
:1019F00090011124F90173E0F695E7957A95E1F7E6
:101A000080918403E817F8F427703327FF27E35207
:101A1000FD4F8091820390E0022E02C0959587953C
:101A20000A94E2F7809592A1892368E070E0641B34
:101A3000750BAB01421B530B940101C0220F4A9559
:101A4000EAF7822B82A37394D394B5CFA9A9BAA93C
:101A5000DC904D2D50E0EBA9FCA9A081B1819A0149
:101A60000E9471332B013C018701000F111F0657A3
:101A70001C4FEC2DF0E0D8018D919C919F01DC0171
:101A80000E947133640D751D861D971D4E0F5F1FDB
:101A90009A01550F440B550B0E944C33EBA9FCA93E
:101AA00031832083DC0CA9A9BAA9DC92F701E352A7
:101AB000FD4F1682F80111821082A3940ECF10926E
:101AC000F6021092F5028FEF8093DD02F091ED02A5
:101AD000F9AB2AE8222E23E0322E10E000E0EE24BB
:101AE000EA94FE2C8F2E912CB12CA12C2FA502173D
:101AF00008F055C0D101CD90DD901D01BFEFEB1670
:101B0000FB0609F5D7FC48C0F801E352FD4F66819A
:101B100070E090E080E00E94BA302B013C01C501EA
:101B2000B4010E94BA302BE734E14EE25EE30E943A
:101B300019319B01AC01C301B2010E941333181685
:101B400024F4780129C0D7FC27C0F701EE0FFF1F4E
:101B5000E657FC4F80819181C816D906ECF4F80154
:101B6000E352FD4F668170E090E080E00E94BA3061
:101B70002B013C01C501B4010E94BA302BE734E1CE
:101B80004EE25EE30E9419319B01AC01C301B20138
:101B90000E9413331816ACF20F5F1F4FA7CFEFEF61
:101BA000EE16FE0641F0E092DD0281E090E09093B7
:101BB000F6028093F5028091F5029091F60201976A
:101BC00009F08FC08091E002882309F48AC089A9B6
:101BD000863A08F085EA18EDF12EF80E0FA50150AF
:101BE000002E000C110B86E0982EE02EFFEF0F1751
:101BF00009F4B1C0F801EE0FFF1FE657FC4F8081DA
:101C0000918197FFA5C022273327281B390B8939DB
:101C10009D4B0CF49DC0E091DD02EE0FFF0BE657EB
:101C2000FC4F0190F081E02DC901BF010E942433D7
:101C30006D32710508F08CC09E9EC0019F9E900D74
:101C400011248217930708F083C0F801E352FD4F77
:101C5000D6806D2D70E090E080E00E94BA302B01BC
:101C60003C016091ED0270E090E080E00E94BA30AB
:101C70002AE037ED43EA5DE30E9419319B01AC0194
:101C8000C301B2010E94B33087FF62C051E05D150D
:101C900008F05EC0D12CC12CCF1408F059C05601F9
:101CA0006FEFA61AB60AB5018FEF92E00E94750594
:101CB00080918503E8124AC0B6018FEF92E00E943E
:101CC0007505909185038091DD0298133FC0E092E5
:101CD0009C0382E090E09093F6028093F502C0921C
:101CE000EE028091F5029091F602029711F00C94A9
:101CF000081A8091ED02883210F40C94081A809131
:101D0000EE028E5F8093EF0210E06091EF0270E0D0
:101D10008091ED028150990B6817790724F56F5F68
:101D20007F4F8FEF92E011110C94C8190E94750536
:101D300011E09091850380919C03981301C010E0FD
:101D40008091EF028E5F8093EF02DFCF6501A4CF19
:101D5000015011094ACF00939C03C3CF8DED92E04F
:101D60000E941606BECF10E00C94E4198091ED029B
:101D70008E3F08F0D7C1861B990B88970CF4D2C10F
:101D800062E08DED92E00E94E2068091E1028823FC
:101D900009F42BC166E571E08DED92E00E948C0A9A
:101DA000F12C80919A03F816C8F58F2D90E0FC0174
:101DB000EE0FFF1FE657FC4F008111810115110541
:101DC00039F183529D4FDC0116968C91882301F1E5
:101DD0006F2D17FF1FC0606A119501951109E02E44
:101DE00007FD1AC06894E7F88DED92E00E94E206C4
:101DF0006E2D8DED92E00E94E206612F60688DED00
:101E000092E00E94E2066BE38DED92E00E94E20612
:101E1000F394C7CF6068E3CF6061E6CF8091EF02B3
:101E200064E480FF64E68DED92E00E94E206E091BA
:101E3000EE02E0FF33C0E150E093EE02E6958091C0
:101E40008403E81748F5F0E0E352FD4F82A18F705C
:101E500080688FA7682F8DED92E00E94E206809146
:101E6000EE028E5F8093EE021091EE028091EF02FF
:101E70008117B0F0E12FE69580918403E81728F4EC
:101E8000F0E0E352FD4FB2A1BFA76FA58DED92E048
:101E90000E94E2061E5FEACF80E0D9CF1FA6E4CF02
:101EA0006AE571E08DED92E00E948C0A6091DD029E
:101EB000605D8DED92E00E94E2066DE571E08DEDD2
:101EC00092E00E948C0A60919C03605D8DED92E02F
:101ED0000E94E2066BE38DED92E00E94E20680EA4A
:101EE00093E00E94D10681110FC062E58DED92E072
:101EF0000E94E20680919F0390E00E9402076BE33C
:101F00008DED92E00E94E2068091F202882331F08A
:101F100061E771E08DED92E00E948C0A1092F1026F
:101F20006091EF028091ED02861B990B8897FCF07F
:101F30008091E2028823D9F081508093E2026F5FA2
:101F40008DED92E00E94BA0A1092EE026DE68DEDE0
:101F500092E00E94E2066091E202605D8DED92E007
:101F60000E94E2066BE38DED92E00E94E20663E0E0
:101F70008DED92E00E94E2066AE08DED92E00E9413
:101F8000E20681E08093F0028091F00281110C94CE
:101F90001D188091DF029091DE029111DAC081114B
:101FA000DBC08091F00281110C94A0198091F102A4
:101FB000882311F40C94A41940919A03EAE8F3E001
:101FC00090E080E020EDE22E27E0F22E841710F062
:101FD0000C948219219131911216130624F42E15B6
:101FE0003F050CF47C010196F1CF60E671E08DEDC8
:101FF00092E00E948C0A10E080919A031817C0F5B5
:10200000812F90E09C01220F331FF901E657FC4F0E
:102010007F0120813181232B49F183529D4FDC01C7
:1020200016968C91882311F160E58DED92E00E9467
:10203000E20660E3610F8DED92E00E94E2066DE33F
:102040008DED92E00E94E206BE016F5F7F4FF701C7
:10205000808191810E944E02BC018DED92E00E9430
:102060008C0A6BE38DED92E00E94E2061F5FC4CF05
:102070006BE871E08DED92E00E948C0A1091EE0207
:102080008091EF02811778F0612F70E08FEF92E07E
:102090000E94750560918503605D8DED92E00E9460
:1020A000E2061F5FEDCF64E671E08DED92E00E94E5
:1020B0008C0A6091DD02605D8DED92E00E94E20687
:1020C00069E671E08DED92E00E948C0A60919C03BC
:1020D000605D8DED92E00E94E2066BE38DED92E093
:1020E0000E94E20680EA93E00E94D106811118C0A6
:1020F0006EE671E08DED92E00E948C0A80919F0364
:10210000BE016F5F7F4F90E00E944E02BC018DEDDB
:1021100092E00E948C0A6BE38DED92E00E94E20651
:102120001FA6F2CE662361F08091EF028D3F40F052
:102130008DED92E00E94BA0A1092EE020C94081AF9
:102140008DED92E00E948D0681E08093F0020C9468
:10215000081A882309F471C78091EB029091EC0270
:10216000892B39F585E490E00E94802DFC0182E303
:1021700080AF81E085AB108212AA14AA13AA87E06F
:1021800087AB80E886AB8FEF84AF85AF86AF87AF34
:10219000DF01AD5BBF4F1C9211961C928DED92E05A
:1021A00093AF82AF14971D921C92F093EC02E093D0
:1021B000EB0280919D03811121C0E091EB02F0912F
:1021C000EC028FEF84AF85AF87AF86AFDF01AD5BE9
:1021D000BF4F1C9211961C9214971D921C92108254
:1021E00012AA14AA13AA87E087ABE091EB02F09140
:1021F000EC02EE5BFF4F80919E03808380919D03F4
:1022000081110C94351A2090EB023090EC02D10130
:10221000DA960D911C91F801E354FF4FF080B3E082
:10222000BF1508F00AC7F801608970E090E080E00F
:102230000E94BA302AE037ED43E25DE30E94193193
:102240004B015C0120E030E0A9010E94133320E043
:1022500030E040E05FE387FD38C0C501B4010E9473
:1022600071320E94DD32A8014A5F5F4F9801235509
:102270003F4F812C90E0DA018D91AD01861790F1EE
:10228000E82DF0E03196A7E1B0E0AC0FBD1FEA0FFA
:10229000FB1F882D8823F1F0DF011297EC90AE2D03
:1022A000B0E0AA0FBB1FA00FB11F5D017DEAA70E12
:1022B000B11CD901CD90DC90D501AD90BC90CA1471
:1022C000DB0444F4E2928150E5CFC501B4010E94E1
:1022D0007032C7CFE7E1F0E0EC0FFD1FE80FF11D12
:1022E000908383949F5F2E5F3F4FF912C4CFFE010E
:1022F0007796F8A7EFA32196FFAFEEAF2197409115
:10230000250150912601609127017091280129969D
:102310004CAF5DAF6EAF7FAF2997B1016D5B7F4F63
:102320007CAF6BAFC1018E5B9F4F2B969FAF8EAF83
:102330002B97D101AC5BBF4F6496BFAFAEAF649734
:102340003C96FEA7EDA7FFA12E96FFAF2E978FAD6F
:102350008F1B881508F071C6D101DA96ED91FC91BA
:102360002196AEADBFAD21978D912196BFAFAEAF97
:10237000219790E0880F991FE80FF91FE355FF4F51
:102380008081918118161906F4F68FEFD101DC9641
:102390008C93DC97DD968C93DD97DF968C93DF979B
:1023A000DE968C93208131813AAB29ABC90137FD90
:1023B0000196AC01559547952D965FAF4EAF2D9781
:1023C000BE01695E7F4F23967FAF6EAF23971EAE2F
:1023D0001DAE8FEF9FEF9AAF89AF29A93AA9032EBF
:1023E000000C440B550B62962CAF3DAF4EAF5FAF68
:1023F0006297AE01415E5F4F5AA749A7605F7F4F6A
:102400007CA76BA722968FAD22972E967FAD2E9735
:10241000871B881508F097CF2396AEADBFAD2397E5
:10242000DD902396BFAFAEAF2397D101DA96ED9141
:10243000FC918D2D90E0880F991FE80FF91FE3554F
:10244000FF4F0081118162966CAD7DAD8EAD9FAD69
:1024500062970E94BA302B013C01780117FF04C03B
:10246000EE24FF24E01AF10A2DEC3CEC4CE45EE390
:10247000C301B2010E9419310E94DD322D968EAD4A
:102480009FAD2D978E199F0997FF03C09195819558
:102490009109681779070CF0BEC72DEC3CEC4CECA9
:1024A0005EE3C301B2010E9419310E94DD3289A9A5
:1024B0009AA98E199F0997FF03C09195819591095B
:1024C000681779070CF49ECF101611060CF44CC156
:1024D000D101DC96DC92A6C7F101D6AEBDADBF5FDF
:1024E000BDAFE9ADFAADE00FF11FFAAFE9AFD10131
:1024F000DC968C91DC978F3F09F484CFDF968C912A
:10250000DF978F3F09F47ECFDD968C91DD978F3F6B
:1025100009F478CFDE968C918F3F09F473CF29961A
:102520002CAD3DAD4EAD5FAD29972BA33CA34DA384
:102530005EA32F8F38A349A35AA3B12CA12C1FEF60
:10254000D101DA96ED90FC90F70180898A151B0481
:1025500009F00CF457CFB501C70182960E947505AA
:10256000F701E855FF4F0081802F90E0D101DC9604
:102570002C91DC97022E000C330BDA96ED91FC9136
:10258000DB9782179307D1F0DD962C91DD97022E11
:10259000000C330B8217930789F0DF962C91DF979D
:1025A000022E000C330B8217930741F0DE962C911C
:1025B000022E000C330B8217930739F48089815067
:1025C000990BA816B90609F0D3C081899501281B7B
:1025D00031092B96AEADBFAD2B978C91082E000C18
:1025E000990B821793070CF003C1A28AF10182AD07
:1025F00093ADDC0152964C91529751966C910E948A
:102600001606D101DA96ED91FC91DB97DE96BC912E
:10261000BBABD101DD969C90DD97DF960C91DF97E7
:10262000DC96BC91BDABDF012BA9A20FB11D27FD2C
:10263000BA951696CC90DF01A90DB11D97FCBA95FD
:1026400016968C91C80EDD24DD1CDF01A00FB11D94
:1026500007FDBA9516968C91C81AD108DF013DA9DD
:10266000A30FB11D37FDBA9516968C91ABADBCADDD
:102670001C92C81AD108D7FE03C0D194C194D108C6
:102680000D2C000CEE08FF088089E82FF0E025965D
:10269000FFAFEEAF2597BF01FF0F880B990B0E948C
:1026A000BA302AE037ED43E25DE30E9419312B0195
:1026B0003C0120E030E0A9010E94133320E030E02B
:1026C00040E05FE387FD8FC0C301B2010E94713219
:1026D0000E94DD326C157D058E059F050CF492CEAF
:1026E000FDAD2EADF2138ECE3DA9931609F48ACE20
:1026F0004BA9401709F486CE031709F483CE491578
:1027000009F480CE431709F47DCE901609F47ACEF1
:10271000DE015F96FE01B39681919D91891709F4C0
:1027200052C79F3F19F08F3F09F04DC725962EAD38
:102730003FAD25972A193B092B96EEADFFAD2B97A0
:102740008081082E000C990B821793070CF05ACE4B
:102750001BA31F8F1CA318A31DA319A31EA31AA399
:102760003FEFA31AB30AECCED101DD96DC92B6CED0
:10277000ABADBCAD8C91811105C0A18AE1E0ABADE0
:10278000BCADEC93D101DA96ED90FC90B5016F5F92
:102790007F4FC70182960E947505F701E855FF4FEC
:1027A0002081BAE00B9F200D11242A3008F42C5907
:1027B0009DA58EA5A0FE02C099A58AA5E92FF82F98
:1027C00080E0422F50E09191692F092E000C770B89
:1027D00064177507F1F4982F8F5F843009F4C0CF28
:1027E0009F3F89F3BDCFC301B2010E94703270CF09
:1027F000ABADBCAD1C926496EEADFFAD649710829C
:102800001F8F1BA318A31CA319A31DA31AA31EA3E8
:10281000A7CF9F3F21F4DF0111972C93DCCF9FEFCF
:10282000DBCFDE962C91DE97022E000C330B2E1799
:102830003F07D9F0DA962D913C91DB97EE0FFF1F01
:10284000E20FF31FE355FF4FDD968C91A82FAA0FDF
:10285000BB0BA20FB31FA355BF4F208131818D91B8
:102860009C91821793070CF0A6C681E0891080E046
:1028700080938402E09084026E2DC8010E94B4050A
:102880005A94F801C2ACD3ACF1E0F51508F462C07B
:10289000D801DA96ED91FC915188F5018081882369
:1028A00009F42CC1D801DA96CD90DC90E52CF12CFE
:1028B000B701C60182960E947505F601E855FF4FE3
:1028C000C080D12CF80184AD082E000C990B82AC8D
:1028D00093ACC816D90639F085AD082E000C990BBB
:1028E000C816D90649F4D40150968C918150990BA1
:1028F000E816F9060CF4F4C0B7016F5F7F4FC4010E
:1029000082960E947505F401E855FF4FE0818091A1
:102910008402882309F4F4C0813009F00FC1D80182
:10292000DA968D919C91DC0150968C918250990B96
:10293000E816F9060CF002C1D801DE968C91DE97FC
:10294000082E000C990B8C159D0509F0F7C0DF9639
:102950008C91EEC0852C912CB401C60182960E9408
:102960007505F601E855FF4F808190E0F80127AD2D
:10297000022E000C330B8217930741F026AD022E76
:10298000000C330B8217930709F082CFD801DA9637
:10299000CD90DC90B40161507109C60182960E940D
:1029A0007505F601E855FF4F808190E0F80127ADED
:1029B000022E000C330B8217930741F026AD022E36
:1029C000000C330B8217930709F062CFD801DA9617
:1029D000CD90DC90B1E0EB1241C0E2E08E1A91089C
:1029E000B401C60182960E947505F601E855FF4FB5
:1029F0009081D801DF968C91981307C06E2DC80185
:102A00000E94B4055A945A943CCFF801C2ACD3AC9E
:102A1000B401C60182960E947505F601E855FF4F84
:102A20008081880F990BC80ED91EFDEACF0ED11CEC
:102A3000D801DA96ED91FC91DB97DC968C91880FAA
:102A4000990BE80FF91FE355FF4FD6012D913C91EB
:102A500080819181281739078CF2D4CFE110D2CF31
:102A6000B2E08B1A9108B401C60182960E947505E6
:102A7000F601E855FF4F9081F80186AD981709F4EB
:102A8000BDCFC2ACD3ACB401C60182960E9475051D
:102A9000F601E855FF4F8081880F990BC80ED91EAB
:102AA000FDEACF0ED11CD801DA96ED91FC91DB97AF
:102AB000DD968C91880F990BE80FF91FE355FF4FB6
:102AC000D6012D913C9180819181821793070CF45E
:102AD00095CF98CF81E0891080E080938402DDCE8D
:102AE00080918402842580938402D5018C9188236F
:102AF00029F060918402C8010E94B4055394D9C49E
:102B0000D801DA968D919C91DC0150968C9182507F
:102B1000990BE816F90694F4D801DF968C91DF97AB
:102B2000082E000C990B8C159D0541F4DE968C91B6
:102B3000082E000C990BE8171906C1F0D3018C91EF
:102B4000082E000C990BD801D3962D913C91D49767
:102B5000281739076CF4F1011082D5011C92F80195
:102B6000108212AA14AA13AA27E027AB5394BDCF50
:102B7000DA968D919C91DC0152965C92D801DA969E
:102B8000AD90BC90BDEF5B1213C0D50150968C91F7
:102B90008E3F71F4F501E054FF4F81E08083D8014E
:102BA000DA96ED91FC9184E090E0918F808F76C071
:102BB000D801DC968C91A82FAA0FBB0BAA0DBB1DC8
:102BC000A355BF4F8D919C91D50150962C9130E02B
:102BD000D601AA0FBB1FAA0DBB1DA355BF4F4D9118
:102BE0005C9148175907E4F4A90141505109E416D2
:102BF000F506B4F46E2F70E0D801DD964C91DD97A8
:102C0000042E000C550B6417750709F432C1DE96CB
:102C10004C91042E000C550B6417750709F429C15B
:102C200022503109E216F306CCF5D801DF962C913B
:102C3000DF97022E000C330BC216D30641F0DE964E
:102C40002C91022E000C330BC216D30639F5F0E09E
:102C5000EE0FFF1FEA0DFB1DE355FF4F2081318171
:102C600028173907DCF4B7016E5F7F4FC5018296E4
:102C70000E947505F501E855FF4F808190E0F8014D
:102C800024AD022E000C330B8217930709F0C8C045
:102C900081E0850D5110ECC055245394652DF80149
:102CA00082AD93AD0E94BA0AD801DA96ED91FC91FB
:102CB000DB97E054FF4F8081811100C1F3018081D7
:102CC000082E000C990BD3962D913C9128173907AB
:102CD0000CF4F4C062E08DED92E00E94E20664E73D
:102CE00071E08DED92E00E948C0AE091EB02F09190
:102CF000EC02E4ADEE0FFF0BE657FC4FBE016F5F39
:102D00007F4F808191810E944E02BC018DED92E047
:102D10000E948C0A6BE771E08DED92E00E948C0AB4
:102D2000E091EB02F091EC02E5ADEE0FFF0BE65700
:102D3000FC4FBE016F5F7F4F808191810E944E02E8
:102D4000BC018DED92E00E948C0A60E871E08DED8F
:102D500092E00E948C0AE091EB02F091EC02E7AD68
:102D6000EE0FFF0BE657FC4FBE016F5F7F4F808178
:102D700091810E944E02BC018DED92E00E948C0A6E
:102D800065E871E08DED92E00E948C0AE091EB0223
:102D9000F091EC02E6ADEE0FFF0BE657FC4FBE01E3
:102DA0006F5F7F4F808191810E944E02BC018DED4B
:102DB00092E00E948C0A6AE871E08DED92E00E9438
:102DC0008C0AE090EB02F090EC0210E0F70190AD7D
:102DD00082A9181708F09CC080E0191718F4E10FB9
:102DE000F11D8081282F30E0F4E035952795FA9584
:102DF000E1F72A3008F488C0295C2F8B8F708A3065
:102E000008F484C0895C888F198EBE01695E7F4F8B
:102E1000D701DA968D919C910E948C0A1F5FD6CFC4
:102E2000C2ACD3AC25AD022E000C330B8217930736
:102E300009F42ECFB7016D5F7F4FC60182960E94C5
:102E40007505F601E855FF4F808190E0F80127AD48
:102E5000022E000C330B8217930709F419CF26AD0D
:102E6000022E000C330B8217930709F017CF10CFF7
:102E7000582E539494CE528AAE5BBF4FFEEF5F1232
:102E80003DC0F80142AD53AD8C9187FD8F5F8595B4
:102E9000082E000C990BF80123A934A9FA01E0547B
:102EA000FF4F8217930724F581E08083D801DA96DB
:102EB000ED91FC9184E090E0918F808F80919D0353
:102EC000882309F4BAC08091F1028111B3C0109235
:102ED000FF0210927E031092800310927F0387E01E
:102EE000809383031092ED0281E08093F102A5C0EC
:102EF0001082F80182AD93ADFC01148A8C91082EEA
:102F0000000C990BD801DFCE205D77CF805D7BCFA1
:102F100022AD33AD60E0191718F4E10FF11D6081A7
:102F200070E0E4E075956795EA95E1F76A3008F49A
:102F3000F1C0695CC9010E94E206D701D3962D91C8
:102F40003C91C90168E070E00E943833059724F491
:102F500027703327232B89F4F70182AD93AD20AD81
:102F600060E0121718F4E10FF11D60816F706A3094
:102F700008F4D2C0695C0E94E2066EE871E08DED53
:102F800092E00E948C0AE091EB02F091EC02E05C8E
:102F9000FF4FBE016F5F7F4F808191810E944E0283
:102FA000BC018DED92E00E948C0A62E971E08DED2A
:102FB00092E00E948C0AE091EB02F091EC02BE01DB
:102FC0006F5F7F4F83A994A90E944E02BC018DEDD3
:102FD00092E00E948C0A6BE38DED92E00E94E20683
:102FE00080EA93E00E94D106811118C06EE671E07C
:102FF0008DED92E00E948C0A80919F03BE016F5F6D
:103000007F4F90E00E944E02BC018DED92E00E9445
:103010008C0A6BE38DED92E00E94E20663E08DED99
:1030200092E00E94E2066AE08DED92E00E94E206E4
:1030300010929D0381E08093F0028091DE0288234C
:1030400011F40C94D10F80919D0381110C94D10F38
:103050008091F5029091F602019711F00C94D10F36
:103060008091F00281116CC18091ED02883210F4E0
:103070000C94D60F62E08DED92E00E94E206809102
:10308000E102882309F4AFC066E971E08DED92E0BA
:103090000E948C0A40E060E08DED92E00E941606EE
:1030A000F12C80919A03F816E8F58F2D90E0FC0141
:1030B000EE0FFF1FE657FC4F00811181011511052E
:1030C00039F183529D4FDC0116968C91882301F1D2
:1030D0006F2D17FF23C0606A119501951109E02E2D
:1030E00007FD1EC06894E7F88DED92E00E94E206AD
:1030F0006E2D8DED92E00E94E206612F60688DEDED
:1031000092E00E94E2066BE38DED92E00E94E206FF
:10311000F394C7CF605D0ECF605D2DCF6068DFCFC9
:103120006061E2CF8091ED0264E680FF64E48DEDA2
:1031300092E00E94E20610E080917E03811788F001
:1031400080918403181730F4E12FF0E0E352FD4F33
:10315000B2A1BFA76FA58DED92E00E94E2061F5FAE
:10316000EBCF6AE571E08DED92E00E948C0A6091F0
:10317000DD02605D8DED92E00E94E2066BE38DED75
:1031800092E00E94E20680EA93E00E94D10681115B
:103190000FC062E58DED92E00E94E20680919F03F0
:1031A00090E00E9402076BE38DED92E00E94E20640
:1031B0008091F202882331F061E771E08DED92E0B9
:1031C0000E948C0A63E08DED92E00E94E2066AE0C4
:1031D0008DED92E00E94E2061092F10281E0809370
:1031E000F0020C94D10F6AE971E08DED92E00E943B
:1031F0008C0A40E060E08DED92E00E94160610E03F
:1032000080919A031817C0F5812F90E09C01220F3E
:10321000331FF901E657FC4F7F0120813181232BB9
:1032200049F183529D4FDC0116968C91882311F150
:1032300060E58DED92E00E94E20660E3610F8DEDA6
:1032400092E00E94E2066DE38DED92E00E94E206BC
:10325000BE016F5F7F4FF701808191810E944E0216
:10326000BC018DED92E00E948C0A6BE38DED92E043
:103270000E94E2061F5FC4CF6BE871E08DED92E023
:103280000E948C0A10E08091ED02181778F4612FEB
:1032900070E08FEF92E00E94750560918503605D9C
:1032A0008DED92E00E94E2061F5FEDCF64E671E0D3
:1032B0008DED92E00E948C0A6091DD02605D8DEDE3
:1032C00092E00E94E2066BE38DED92E00E94E2063E
:1032D00080EA93E00E94D10681116ACF6EE671E028
:1032E0008DED92E00E948C0A80919F03BE016F5F7A
:1032F0007F4F90E00E944E02BC018DED92E00E9453
:103300008C0A51CF10E08091ED021817C8F4F0ED4F
:10331000EF16F7E0FF06A1F0612F70E08FEF92E06B
:103320000E94750580918503082E000C990BE81604
:10333000F90661F56FEF610F8DED92E00E94BA0A18
:103340008091F102811108C01091F0028DED92E0A0
:103350000E948D061093F002CD5ADF4F0FB6F894FD
:10336000DEBF0FBECDBFDF91CF911F910F91FF90B8
:10337000EF90DF90CF90BF90AF909F908F907F9015
:103380006F905F904F903F902F9008951F5FBBCF3D
:103390000E9475059091850380919C0398130C946D
:1033A000A00E6091EF0270E08FEF92E00E94750531
:1033B000909185038091DD0298130C94A00E80916A
:1033C000EF0281508093EF028091ED029091EF0225
:1033D000891710F48093EF024091EF026091EE02A2
:1033E0008DED92E00E9416066091EE02112311F419
:1033F0000C94B60E8091EF02861B990B889714F0FF
:103400000C94C00E81E090E09093F6028093F50258
:103410001FA60C94C40F101611060CF45DC8D10140
:10342000DF96DC92BEADBF5FBEAFE9ADFAADE01B8B
:10343000F10B5BC86F5F7F4FFDC04E175F07D1F781
:10344000E615F70509F472C941E05FEFE51AF50AE0
:103450004111D8C0F101E05CFF4F89AD9AAD66E043
:1034600070E00E943833718360830091EB02109109
:10347000EC02D801DA96ED91FC91DB97148ADA968A
:10348000ED91FC91DB97118ADA96ED91FC91E05475
:10349000FF4F1082512C5801B4E4AB0EB11C4424F0
:1034A00043943801E2E46E0E711C1801F3E42F0E10
:1034B000311CD801DA96CD90DC90DB97F60180893B
:1034C000581608F0D8CCD5018C918111E6C9E52CAD
:1034D000F12CB701C60182960E947505F601E855E8
:1034E000FF4F808190E0F80124AD022E000C330BD9
:1034F0008217930741F025AD022E000C330B821783
:10350000930709F0CAC9D801DA96CD90DC90B701CB
:10351000C60182960E947505F601E855FF4F80802E
:10352000F80195AC81E0891001C080E080938402AD
:10353000D801DA96CD90DC90B70161507109C601CF
:1035400082960E947505F601E855FF4F8081F501CE
:103550004082D801DA96ED91FC91DB97518A552093
:1035600009F4B8CAE82FF0E089105BC9DF962C9106
:10357000DF97022E000C330B2E173F0709F475C995
:10358000DA962D913C91DF01AA0FBB1FA20FB31F4A
:10359000A355BF4FF80184ADE82FEE0FFF0BE20FEC
:1035A000F31FE355FF4F2D913C91808191812817A6
:1035B00039070CF45AC9D801DA96ED91FC9181894A
:1035C0008F5F818B57C92BA53CA52E173F0709F0AC
:1035D000A3C88DA95BA96AE0569F800D1124969E11
:1035E000000D11248A3008F48C590A3008F40C5963
:1035F000DE015F967D019E012D5D3F4F390190E018
:10360000202F30E0D3014D913D01042E000C550BCD
:103610004817590749F0D7014C91042E000C550B5F
:103620008417950709F00CCFBE01615E7F4FAE0194
:103630004D5D5F4FDA01CD90AD010C2C000CDD0823
:10364000C216D30649F0DB01CC900C2C000CDD082F
:103650002C153D0509F0F1CEE615F70509F4FACE73
:1036600040E0F3CE0C94DF31CF93DF93C2E0D0E0A3
:10367000FE01E752FF4F6491CE010E94321B21965A
:10368000CB32D105A9F7D0E0C0E0C13079F464E8CD
:1036900081E390E00E94321B2196C830D105A9F742
:1036A00087EC90E0DF91CF910C94470A60E0CE0167
:1036B000C096F0CF0C94D731CF93DF932C981B9BFF
:1036C0000EC061E070E080E090E00E94BC04809158
:1036D0000401882399F0815080930401F0CF8EE794
:1036E0000E941A07C0E3D0E0CE010E945A1B0E943C
:1036F0001A072196C833D105B9F72C9ADF91CF91DB
:103700000895CF93DF932C9A88E390E0FC013197E2
:10371000F1F72C980197F1F72C9A86E590E0019744
:10372000F1F780E30E948C076AE070E080E090E0AF
:103730000E94BC042C981B9B0EC061E070E080E0EE
:1037400090E00E94BC0480910501882381F18150A2
:1037500080930501F0CF80E40E941A07C2E0D0E018
:10376000CE010E945A1B0E941A072196CB32D10526
:10377000B9F72C9A80E190E00197F1F784E190E0AD
:103780000E945A1B90E024E0959587952A95E1F7D1
:10379000877080931E010E945C1B61E070E080E0F6
:1037A00090E00E94BC04DF91CF910C94C207DF919E
:1037B000CF9108952F923F924F925F926F927F9296
:1037C0008F929F92AF92BF92CF92DF92EF92FF9231
:1037D0000F931F93CF93DF93CDB7DEB7CD59D14071
:1037E0000FB6F894DEBF0FBECDBF0E94FC08CF5FBE
:1037F000DE4F19821882C150D14081E0C85EDE4F91
:103800008883C851D140C75EDE4F19821882C951E2
:10381000D140C05DDE4F8883C053D140CF5CDE4FC6
:1038200019821882C153D140C85BDE4F8883C854C7
:10383000D140C75BDE4F19821882C954D140C05AAB
:10384000DE4F8883C056D140CF59DE4F198218828F
:10385000C156D140C858DE4F8883C857D1409E0119
:103860002F5F3F4F290180E091E0D901FC011D92BB
:103870003197E9F7CE57DE4F39832883C258D140BC
:1038800066246A9404E212E0EE24EA94C557DE4FFF
:103890001882CB58D140F1E0C257DE4FF883CE58A2
:1038A000D14088E1782E4E0193949CE0F92ED80106
:1038B0008C91833509F06EC111968C91833481F41B
:1038C000E394E1E0F1E0EC0FFD1F7E9CE00DF11DC3
:1038D00011241282C257DE4F1882CE58D1400EC03A
:1038E0008D3409F03AC1E394E1E0F1E0EC0FFD1F03
:1038F0007E9CE00DF11D1124B1E0B283E11010C0F7
:1039000043E050E064E272E089E892E00E94EF0454
:10391000CE57DE4F59824882C258D14010E000E0B5
:10392000CE57DE4F88819981C258D14080179107C8
:10393000C1F14816590639F00196CE57DE4F9983EA
:103940008883C258D140CE57DE4F08811981C258B2
:10395000D140B12CCE57DE4FC880D980C258D1405B
:10396000CB0CD11CCE57DE4FD982C882C258D14071
:103970000E94190497FDFCC1D6018C936B18CE5799
:10398000DE4FE881F981C258D14080818B3309F044
:1039900011C2662009F413C211820115110509F044
:1039A00086CF80912302882361F08BE30E94790700
:1039B000882339F00E94B9071EEF1F3F09F019C292
:1039C000259ACD5FDE4F8881C350D140811124C23A
:1039D000C85EDE4FF881C851D140C657DE4FF8832C
:1039E000CA58D140F11106C021E0C657DE4F2883E6
:1039F000CA58D140C157DE4F1882CF58D1408E2DC2
:103A000090E0C856DE4F99838883C859D14081E041
:103A100091E08C0F9D1FA8E1AE9D800D911D11249A
:103A2000FC013396C656DE4FF983E883CA59D1406C
:103A30009C012E5F3F4FC456DE4F39832883CC59FB
:103A4000D140F12C01E011E00C0F1D1F38E13F9D2A
:103A5000000D111D1124D80112968C91823009F0AD
:103A6000EDC1912CF8017796C857DE4FF983E883B2
:103A7000C858D14098012B5F3F4FC457DE4F398360
:103A80002883CC58D140C8010396CC57DE4F998388
:103A90008883C458D14081E090E08C0F9D1FA8E13D
:103AA000FA9E800D911D1124FC013796CA57DE4FF6
:103AB000F983E883C658D140C857DE4FA881B98141
:103AC000C858D1408C91981608F0CCC2C457DE4F2C
:103AD000E881F981CC58D14020803180CC57DE4F2D
:103AE000A881B981C458D140CC901196DC900E9435
:103AF00097042B013C018601F8010215130508F01B
:103B000094C10F5F1F4FE081E053F0E0EE0FFF1F05
:103B1000CA57DE4F28813981C658D140E20FF31FC2
:103B2000F395A080B1806501B7FE04C0CC24DD24EC
:103B3000CA18DB080E949704641575058605970569
:103B4000C8F3B7FE70C12D98C601DD0CAA0BBB0BE4
:103B5000480E591E6A1E7B1ECFCF823561F4E39456
:103B6000E1E0F1E0EC0FFD1F7E9CE00DF11D112462
:103B700022E02283AFCE8E3409F0C0CEE394E1E0A0
:103B8000F1E0EC0FFD1F7E9CE00DF11D112433E0F0
:103B90003283B4CE803569F512968C9112978D33AD
:103BA00009F0BECE1196EC91B0EDDB2EDE0EB7E043
:103BB000BD1508F4B5CE4AE050E0BE016E577E4F09
:103BC000C80103960E94A52EFE9CF0011124ED0D64
:103BD000F11DEE0FFF1F21E031E02C0F3D1FE20F22
:103BE000F31F70876783E1109BCEC8010E94850A8E
:103BF0008FCE8235C1F411968C918D3309F090CE21
:103C00004AE050E0BE016E577E4FC80102960E9406
:103C1000BC2FE1E0F1E0EC0FFD1F7E9CE00DF11DFB
:103C20001124678BE0CF843449F5F80181818D330D
:103C300009F076CECC24C394DC2CCC0EDD1E7E9C09
:103C4000C00CD11C1124C8010296D60114969C9375
:103C50008E931397A401401B510B4D5F5F4F6BE395
:103C600070E001960E948433CE57DE4F998388839B
:103C7000C258D140F6019683858352CE8334C9F46D
:103C800011968C918D3309F04BCE4AE050E0BE0185
:103C90006E577E4FC80102960E94BC2FE1E0F1E012
:103CA000EC0FFD1F7E9CE00DF11D112471836083DC
:103CB00037CECE57DE4F28813981C258D140863465
:103CC00009F02ECEF80181818D3309F029CE201B19
:103CD000310BC901019797FDC90195958795C55786
:103CE000DE4F8883CB58D1408150853008F018CE04
:103CF00080912302882309F413CECF57DE4F188218
:103D0000C158D1405E01F7E8AF1AFEEFBF0A680163
:103D100022E0C20ED11C312C5DE0252E230C60E880
:103D2000822D0E943F07D5018D935D01F60181919F
:103D300091916F01C158DE4F99838883CF57D1404D
:103D400040E150E070E060E0CE0181589E4F0E945B
:103D5000A52E822D0E9420073394C557DE4FF8818F
:103D6000CB58D1403F16C0F2DBCDBB24B394F2CD8B
:103D70008DEB90E00E94CC0385EB90E00E94470A17
:103D8000C356DE4F0FB6F894DEBF0FBECDBFDF9136
:103D9000CF911F910F91FF90EF90DF90CF90BF9048
:103DA000AF909F908F907F906F905F904F903F90DB
:103DB0002F9008958A3009F4C4C16110D6CF84E5EC
:103DC00092E00197F1F78E0113950E94190497FD77
:103DD00009C08A30910531F0F20181932F010E174D
:103DE0001F0799F78DEB90E00E94CC038CEA90E0DE
:103DF000C5CF85E30E948C070FEF010F80778032DB
:103E000041F061E070E080E090E00E94BC04102F7F
:103E1000D4CD1111D5CDD5CD31E0C657DE4F388385
:103E2000CA58D140E7CD2D9A8FCE0E9497046415D1
:103E3000750586059705C8F393943ECE813009F049
:103E4000CAC0C857DE4F1882C858D1406801C8019F
:103E50004796CE56DE4F99838883C259D140D80108
:103E60001596CA56DE4FB983A883C659D140F801CA
:103E70003396CA57DE4FF983E883C658D140CE56F1
:103E8000DE4FA881B981C259D1408C91C857DE4F0D
:103E9000B881C858D140B81708F0E4C0F601408096
:103EA0005180CA56DE4FA881B981C659D1400D90C4
:103EB000BC91A02DC057DE4FB983A883C059D14013
:103EC000CA57DE4FE881F981C658D1407080118110
:103ED0000E9497044B015C01CC57DE4F7882C45896
:103EE000D140CB57DE4F1883C558D140052C000C6C
:103EF00066087708C057DE4F28813981C059D14004
:103F0000CC57DE4F88819981C458D14082179307DE
:103F100008F055C0DC018D91CC57DE4FB983A883E2
:103F2000C458D14090E38A330CF097E3891B04E036
:103F300010E038E0232EE82F880FFF0BCC56DE4F21
:103F4000F983E883C459D140312CCC56DE4F288107
:103F50003981C459D14022213321C457DE4F3983DE
:103F60002883CC58D140232B31F52D9A840C951CF5
:103F7000A61CB71C0E949704681579058A059B0545
:103F8000C8F3C457DE4F88819981CC58D140892B22
:103F9000A1F42D98840C951CA61CB71C0E949704B4
:103FA000681579058A059B05C8F335942794015057
:103FB000110951F69FCF2D98D9CF2D9AEBCFC85725
:103FC000DE4F9881C858D1409F5FC857DE4F988315
:103FD000C858D14054CF833009F044C0712C5801E7
:103FE000A7E1AA0EB11C0B5F1F4FF5018081781667
:103FF000C8F5D8018D909C90C656DE4FE881F981B6
:10400000CA59D140C080D1802C988FE70E941A07EE
:10401000C814D90498F4D6018C910E94D807682E50
:10402000629490EF6922F60181810E94D807860D83
:104030000E941A07F2E0CF0ED11CEACF2C9A88EC2E
:10404000D82E60EC85E30E943F07833149F461E09C
:1040500070E080E090E00E94BC04DA94D110F1CFCF
:104060007394C3CFC456DE4FA881B981CC59D140D7
:104070008C91833009F02D98F394EF1408F0E2CC82
:10408000C257DE4FB881CE58D140BB2331F061E03A
:1040900070E080E090E00E94BC04C157DE4FE881F0
:1040A000CF58D140EF5FC157DE4FE883CF58D140A2
:1040B000C657DE4FF881CA58D140FE13C2CCC5574F
:1040C000DE4F2881CB58D1402223A9F07E0137E86A
:1040D000E31A3EEFF30A10E0D7016D917D018DE008
:1040E000810F0E9420071F5FC557DE4FB881CB5854
:1040F000D140B113F1CFCE0101960E94850A88E12B
:10410000C856DE4F28813981C859D140829FF001BD
:10411000839FF00D112481E091E08C0F9D1FE80F2B
:10412000F91F8281833051F08DED92E00E948D065F
:104130001092AD031092AF031092AE030E940F09CC
:104140001FCE662009F43BCE2CCC1F920F920FB6E7
:104150000F9211248F939F938091E1009091E10041
:10416000937F9093E10083FF0FC01092E90091E0EC
:104170009093EB001092EC0092E39093ED0010927C
:10418000830298E09093F00082FF22C093E0909326
:10419000E9009091F200992319F09AE39093E800D6
:1041A00090911B02992341F090911B0291509093A2
:1041B0001B02911101C05D9890918202992341F0F8
:1041C00090918202915090938202911101C028989F
:1041D00084FF18C08091E2008E7E81608093E200AF
:1041E0008091E1008F7E8093E10080911C028E7EA1
:1041F000806180931C029F918F910F900FBE0F9052
:104200001F90189580FFF7CF8091E2008E7E80612D
:104210008093E2008091E1008E7E8093E1008091A6
:104220001C028E7E8160E5CF1F920F920FB60F9217
:104230001124CF92DF92EF92FF920F931F932F934F
:104240003F934F935F936F937F938F939F93AF931E
:10425000BF93EF93FF93CF93DF93CDB7DEB76C9708
:10426000DEBFCDBF1092E9008091E80083FF25C03A
:1042700068E0CE0145960E94A90382EF8093E80092
:104280008D8987FF39C09091E80090FFFCCF982F6F
:10429000907609F034C19E894F89588D2F89F88C0A
:1042A000911131C0803861F580911D028093F10039
:1042B0001092F1008EEF8093E8006C960FB6F894A0
:1042C000DEBF0FBECDBFDF91CF91FF91EF91BF91C8
:1042D000AF919F918F917F916F915F914F913F919E
:1042E0002F911F910F91FF90EF90DF90CF900F9043
:1042F0000FBE0F901F9018959EEF9093E800C7CFC8
:104300001092F100D5CF913059F48111D3CF4130C3
:10431000510581F680911D028D7F80931D02CACFC9
:10432000933049F48111C6CF4130510519F680917F
:104330001D028260F2CF953041F48091E80080FF49
:10434000FCCF20682093E300B5CF963009F0A9C0D8
:104350000B8D1C8D22E01092E90010921902109230
:104360001802F2122EC010921702109216020E942A
:1043700078031F8299E09983FA8291E09E8390EA04
:1043800098879AEF99872091180230911902275F38
:104390003F4F3C832B838D831092E90010921902CA
:1043A00010921802109317020093160249E050E091
:1043B000BE016F5F7F4F80E00E9452030E9478032E
:1043C00079CF10931702009316020E94DB02DC01E2
:1043D00012960D911C910115110509F451C1D801D6
:1043E000ED91FC910480F581E02DBE016B5E7F4F65
:1043F000C8010995009709F03EC1F80100851185B3
:10440000EACFF3E0FF120EC08F89882309F440C081
:10441000823061F440E86DE084E691E00E941F0381
:10442000811148CF81E28093EB0047CF813029F49E
:1044300040E867E08CE591E0F1CF833099F70E9486
:10444000DB02DC011296ED90FC908E010F5F1F4F96
:104450006801E114F10479F0D701ED91FC91068037
:10446000F781E02DB801C7010995080F111DF7016B
:10447000E084F184EECFD8011C92F6010190002077
:10448000E9F73197BF016C197D0940E0C601C6CF3D
:1044900066E471E0FB01449150E080E80E94520321
:1044A00009CF973009F4BECF983021F481E0809392
:1044B000F10000CF993009F0FDCE837009F0B2CF42
:1044C000EAE2F1E081E031E096E32191222371F00C
:1044D0008093E9003093EB00DF0111972C9120933A
:1044E000EC009093ED008F5F873079F78EE7809333
:1044F000EA001092EA008F8980938302DBCE8B8DD5
:104500009C8D1092E900109219021092180290935B
:10451000170280931602898D811192C08E899D8920
:10452000913A49F4813209F07DCF47E050E064E1EF
:1045300071E080E0B3CF913209F074CF833269F437
:104540008F89988DB0E0A0E08093100190931101C5
:10455000A0931201B0931301ADCE803269F4809123
:10456000E80082FFFCCF67E084E191E00E94A903AC
:104570008BEF8093E8009ECE823209F09BCE8F892C
:1045800080931B01EEEFFFE7859194918B3F9C4D4B
:1045900051F1E0E0F8E08091140190911501A091B3
:1045A0001601B0911701803B9440A105B105F1F4CB
:1045B00080911B0180FD1AC0EE3F8AE0F80789F563
:1045C00087E797E7918380838091600080931A0248
:1045D00088E19BE00FB6F894A895809360000FBE29
:1045E0009093600067CEEEEFFAE0D5CF80819181A5
:1045F0008737974709F05ECEA89580916000886163
:104600008093600080911A0280936000EE3F2AE060
:10461000F20789F08091FE0A9091FF0A91838083CE
:1046200049CE808191818737980751F29093FF0A94
:104630008093FE0AC5CF1092FF0A1092FE0A3ACE6E
:104640000E94DB02DC0112960D911C9101151105EF
:1046500009F4E8CED801ED91FC910190F081E02DB4
:10466000BE016B5E7F4FC8010995811123CEF80111
:1046700000851185EBCF181619060CF41BCED2CE8F
:10468000F1E0FF12BECE6AE471E004CF1F920F92F8
:104690000FB60F9211242F933F938F939F93AF9355
:1046A000BF938091850290918602A0918702B0917C
:1046B00088023091110226E0230F2D3758F502961B
:1046C000A11DB11D20931102809385029093860253
:1046D000A0938702B09388028091120290911302F6
:1046E000A0911402B09115020196A11DB11D8093F5
:1046F000120290931302A0931402B0931502BF917B
:10470000AF919F918F913F912F910F900FBE0F907E
:104710001F90189529E8230F0396A11DB11DD2CF34
:104720001F920F920FB60F9211242F933F934F9326
:104730005F936F937F938F939F93AF93BF93EF9309
:10474000FF93E0910E01F0910F010995FF91EF9118
:10475000BF91AF919F918F917F916F915F914F9199
:104760003F912F910F900FBE0F901F9018951F92A1
:104770000F920FB60F9211242F933F934F935F9395
:104780006F937F938F939F93AF93BF93EF93FF9319
:10479000E0910C01F0910D010995FF91EF91BF910E
:1047A000AF919F918F917F916F915F914F913F91C9
:1047B0002F910F900FBE0F901F9018951F920F9280
:1047C0000FB60F9211242F933F934F935F936F93E4
:1047D0007F938F939F93AF93BF93EF93FF93E0915A
:1047E0000A01F0910B010995FF91EF91BF91AF91F3
:1047F0009F918F917F916F915F914F913F912F91F9
:104800000F900FBE0F901F9018951F920F920FB62A
:104810000F9211242F933F934F935F936F937F9346
:104820008F939F93AF93BF93EF93FF93E091080112
:10483000F09109010995FF91EF91BF91AF919F917F
:104840008F917F916F915F914F913F912F910F9039
:104850000FBE0F901F9018951F920F920FB60F92D8
:1048600011242F933F934F935F936F937F938F9375
:104870009F93AF93BF93EF93FF93E0910601F09165
:1048800007010995FF91EF91BF91AF919F918F9192
:104890007F916F915F914F913F912F910F900FBE3C
:1048A0000F901F9018951F920F920FB60F92112420
:1048B0002F933F934F935F936F937F938F939F9328
:1048C000AF93BF93EF93FF93E0911E02F0911F020D
:1048D0000995FF91EF91BF91AF919F918F917F913A
:1048E0006F915F914F913F912F910F900FBE0F905D
:1048F0001F901895CF93DF93E9E8F2E013821282BC
:1049000088EE93E0A0E0B0E084839583A683B7832C
:1049100084E391E0918380838FEF9FEF9587848775
:10492000ECEAF3E08AE58083118213821282CDEDF6
:10493000D2E087EF92E09F8F8E8F19A218A28FE7A7
:104940008093840384E0809381031AA210927E03F3
:104950001092800310927F0387E08093830380EF9F
:104960008093820310929F031092A1031092A003E0
:104970001092A3031092A2031092A5031092A40315
:104980001092A7031092A6031092A9031092A803F5
:104990001092AB031092AA031B8E1A8ECE010E94B6
:1049A0008D0681E180939E031D8281E08C831F86AA
:1049B0001E860E9497046093D9027093DA02809356
:1049C000DB029093DC02DF91CF910895CF93DF93C8
:1049D000CDB7DEB728970FB6F894DEBF0FBECDBFB8
:1049E000789484B5826084BD84B5816084BD85B5CA
:1049F000826085BD85B5816085BD80916E008160D6
:104A000080936E001092810080918100826080937B
:104A1000810080918100816080938100809180007D
:104A200081608093800080919100826080939100EA
:104A300080919100816080939100809190008160CD
:104A4000809390008091C10084608093C100809128
:104A5000C10082608093C1008091C1008160809319
:104A6000C1008091C30081608093C3008091C00029
:104A700082608093C0008091C20081608093C200F8
:104A800080917A00846080937A0080917A008260BD
:104A900080937A0080917A008E7F80937A00809153
:104AA0007A00806880937A001092830210921D022F
:104AB00010921C028091D70081608093D70080EA19
:104AC0008093D80089B58F7E89BD89B5826089BD04
:104AD00009B400FEFDCF61E070E080E090E00E944C
:104AE000BC048091D8008F7C80618093D800809135
:104AF000E000807F8093E0008091E1008E7E8093D3
:104B0000E1008DE08093E200559A209A5D98289804
:104B10008FEF9FEF909396028093950210911B0167
:104B20006AE070E080E090E00E94BC041123B1F3E1
:104B30006E983F9A219A229A2398249A54985C9AC4
:104B400080E58CBD2C9A299A2A986E982598299AE6
:104B50002A9890E080E00E945A1B833331F481E070
:104B600090E00E945A1B8D31A9F06FE08FEF90E02A
:104B70000E94321B82E791E00E94470A63E390E0C3
:104B800080E00E94321B6DE181E090E00E94321BC8
:104B90000E94341B8FEF90E00E945A1B982F917057
:104BA0009093E00281FB992790F99093DE0282FBBB
:104BB000992790F99093DF0283FB882780F98093EF
:104BC000E1020E94811B10911C0181EF113009F05C
:104BD00081E360E80E943F07112351F09FEF980F97
:104BE0009E3F30F010921C0160E881E30E943F0775
:104BF00081508E3F08F4CEC1109223028CED91E0DB
:104C00009C838B831E821D828B819C81AD81BE81A2
:104C10008093A2039093A303A093A403B093A5034E
:104C20008FEE92E09093A1038093A003259A62E314
:104C300070E080E090E00E94BC0480E180938100FD
:104C40001092800082E08093220280E89EE390939D
:104C5000210280932002909387008093860082E156
:104C60008093810083E598E090931F0280931E0259
:104C700081E080936F008EED91E09C838B831E8298
:104C80001D828B819C81AD81BE818093A80390930E
:104C9000A903A093AA03B093AB038CEE97E0909383
:104CA000A7038093A6038091230281118BC10E94E8
:104CB0000F0980E991E0A0E0B0E080938D0290932D
:104CC0008E02A0938F02B09390029E012F5F3F4F00
:104CD00079013E0139E0630E711C52E0852E912C62
:104CE000A12CB12C89E892E00E947D04892B79F0F7
:104CF000109132021E3009F06AC186E991E00E94EB
:104D0000CC0384E292E00E94110A10923202809158
:104D10001E01833009F075C6442443948091AD038D
:104D2000882309F4E5C68091AD0381508093AD03DB
:104D30008091AF036091AC030E9418339093AF034E
:104D4000E091AF0381E08E0F8093AF03F0E0EE0FB0
:104D5000FF1FE055FC4F8081918190933402809336
:104D600033021092F0026091ED02662309F41FC530
:104D70006150770B8FEF92E00E947505809185035B
:104D8000880F990B86579C4F9093FE028093FD02EB
:104D9000E091FB02F091FC02809133029091340289
:104DA000918380839091ED02E091FB02F091FC02EF
:104DB000992309F401C5A091FD02B091FE0210975C
:104DC00009F4FAC4208131814D915C913527232F5C
:104DD000221F2227221F81E0408151814115534823
:104DE0000CF480E031E09E3F09F430E0832311F0C1
:104DF0002111E4C40E940C0C8091F002811104C0C6
:104E000080919D038823B1F08091ED028823D1F039
:104E1000E091FD02F091FE023097A1F0A091FB021B
:104E2000B091FC028D919C91208131818227932742
:104E300097FD08C08DED92E00E948D061092FE0253
:104E40001092FD028091ED028E3F29F460E070E047
:104E5000CB010E94BC04C090FB02D090FC02F60182
:104E600000811181B80117FF04C066277727601BF6
:104E7000710B072E000C880B990B0E94BA302DEC99
:104E80003CEC4CE45EE30E9419310E94E4329B0149
:104E90007093F4026093F30260919A03EAE8F3E0FE
:104EA000512C6515C9F081919191A8014827592786
:104EB00057FDB2C4009709F4AFC4A801481B590BB1
:104EC000CA0157FF03C091958195910928173907A9
:104ED0000CF4A2C457FEA2C46830D9F540E060E0EB
:104EE0008DED92E00E941606E0919B03F0E0E35204
:104EF000FD4F8681833040F00E940C0C40E060E062
:104F00008DED92E00E9416061091ED021150E09195
:104F10009B03F0E0E352FD4F86818823D1F080911E
:104F2000ED028823B1F0612F70E08FEF92E00E94D4
:104F3000750580918503082E000C990B20919B0329
:104F40002817190619F761E0610F8DED92E00E94B4
:104F5000BA0A50909B03E091FB02F091FC02808121
:104F60009181E52DF0E0EE0FFF1FE657FC4F918396
:104F7000808381E0850D883009F4BBC480939B0356
:104F800080919B0390919A03981708F065C48093D1
:104F90009A0362C481E0809323028CED91E09C83AC
:104FA0008B831E821D828B819C81AD81BE8180930B
:104FB000A2039093A303A093A403B093A5038FE54A
:104FC00097E030CE0E946907811171CE72CE89E8D8
:104FD00092E00E94FB03E12FF0E0EC5DFD4F808347
:104FE0008D3029F0CCF4882311F08A30D1F48091EF
:104FF0002402873509F4F2C2F4F5803509F4F8C0CB
:10500000A4F48F3309F490C0833409F425C185EFEB
:1050100091E00E94470A79CE833249F38B3309F439
:10502000C3C31F5F109332025DCE823509F4EFC017
:10503000863569F78AEB92E00E94CC0380912302C7
:105040008823A1F082EB92E00E94CC0388E20E94C8
:10505000E7034C99D9C089EA92E00E94CC038EEA1A
:1050600092E00E94CC0389E20E94E70380E892E08C
:105070000E94470AC5C0823709F461C27CF48835B2
:1050800009F4DEC0853619F680912302882309F4DD
:10509000B7C00E94341B0E94811BB2C0843709F440
:1050A000C5C00CF46BC3883709F0B1CF80912502DD
:1050B000082E000C990B0E947833892B09F4A0C0AC
:1050C00080912602082E000C990B0E947833892BC0
:1050D00009F496C080912302882309F491C040E12D
:1050E00050E070E060E085E292E00E94A52ED62EAE
:1050F00000E310E06D2D81E390E0013311F060E0FA
:10510000C8010E94321B0F5F1F4F0833110591F732
:105110000E945C1B89E792E00E94CC038D2D0E94C7
:10512000010A88E692E0A4CF8FE30E94E70383EEB2
:1051300092E00E94CC0386E50E94E70381EE92E0B4
:105140000E94CC0382E50E94E70381EE92E00E9478
:10515000CC0384E70E94E70381EE92E00E94CC0337
:1051600088E50E94E70381EE92E00E94CC0383E58C
:105170000E94E70381EE92E00E94CC0380E50E944A
:10518000E70381EE92E00E94CC0383E40E94E703F0
:1051900081EE92E00E94CC0382E70E94E70381EE59
:1051A00092E00E94CC0387E50E94E70381EE92E043
:1051B0000E94CC0383E70E94E70381EE92E00E9405
:1051C000CC0380912302882371F088E70E94E703D3
:1051D00081EE92E00E94CC0385E60E94E70381EE17
:1051E00092E00E94CC0385E591E00E94110A08C07C
:1051F0008EE991E00E94110A84EE93E00197F1F7A5
:1052000081E08093750281CD84EA92E026CF80917F
:10521000640490916504009711F48AE694E0A70174
:10522000481B590BCA010E94550AEACF0E94FF078A
:105230004AE00E948F0983E591E00E948209E0CF55
:1052400080912502813519F40E94FC08D9CF85345C
:10525000B9F60E940F09D4CF80912502873409F452
:1052600084C00CF061C09CEB980F923008F4BCC075
:10527000082E000C990B0E947833892B09F280913B
:105280002602082E000C990B0E947833892B09F412
:10529000B7CF80912302882309F4B2CF40E150E0D8
:1052A00070E060E085E292E00E94A52E162F8091CA
:1052B00027028E3609F0CEC080912802082E000CFD
:1052C000990B0E947833892B09F4C4C040E150E067
:1052D00070E060E088E292E00E94A52E1F3208F0A4
:1052E0008FCF02E0060F83E40E94E703812F0E9424
:1052F000010A8EE60E94E703802F0E94010A8DE3D7
:105300000E94E703D12EE12FE00FFF27FF1F8F013F
:10531000D01611060CF067CF60E88D2D0E943F0774
:105320000E94010AD394F4CF833509F0A1CF66EA35
:1053300071E086E292E00E94A333892B09F460CFEA
:105340004AE050E070E060E08CE292E00E94A52E1E
:1053500060939E037727882799274AE00E948F0948
:1053600085EB91E00E94CC034BCF82EB91E00E9451
:10537000CC0380EB91E00E94CC038091E00290E0AE
:105380000E94D3098EEA91E00E94CC038BEA91E05F
:105390000E94CC0380EB91E00E94CC038091DE025E
:1053A00090E00E94D3098EEA91E00E94CC0388EA43
:1053B00091E00E94CC0380EB91E00E94CC038091AD
:1053C000DF0290E00E94D3098EEA91E00E94CC03B4
:1053D00081EA91E00E94850A80EB91E00E94CC0373
:1053E0008091E10290E01FCF90912602923569F101
:1053F00014F5EFEDF2E0933409F002CF853441F576
:1054000081E080836091DE02660F8091DF0254E0CC
:10541000859FC0011124682B8091E002682B809148
:10542000E102A8E08A9FC0011124682B8FEF90E071
:105430000E94321BE5CE933529F0EEEDF2E0953572
:10544000E9F2DECEE0EEF2E0D9CFE1EEF2E0D6CF47
:105450001082D8CF1E33C8F01E3309F04AC08BEC3F
:1054600091E00E94CC032C981B9B25C061E070E06A
:1054700080E090E00E94BC0480911D01882309F423
:10548000BFCE815080931D01EFCF60E81F3208F03E
:1054900060EC812F0E943F07082F83E40E94E703FE
:1054A000812F0E94010A8DEA91E00E94850A802FD7
:1054B0000E94010A98CE8EEF0E941A078E010F5F9C
:1054C0001F4F680180E00E941A07D6018D936D017D
:1054D0006A167B06B9F72C9A89EC91E00E94CC03FE
:1054E000F80181918F010E94010AC016D106A1F72F
:1054F0007ACE193909F084CE10E0112341F0103131
:1055000011F0103279F489EC91E00E94CC0382EC26
:1055100091E00E94CC03812F0E94010A8FEB91E061
:105520000E94CC0360E8812F0E943F070E94010A7D
:1055300080E20E94E7031F5F1F32F9F654CE80918C
:105540002502082E000C990B0E947833892B09F450
:1055500057CE80912602082E000C990B0E947833BA
:10556000892B09F44DCE80912302882309F448CE7B
:1055700040E150E070E060E085E292E00E94A52EFC
:10558000062F81E692E00E94CC0381EE92E00E9419
:10559000CC03802F0E94010A8091270210E08E36F2
:1055A000A9F48EE592E00E94CC03D12CC12CC80155
:1055B0008C0D9D1D0E945A1B0E94010AFFEFCF1AFD
:1055C000DF0A20E1C216D10491F70DCE8AE592E000
:1055D0000E94CC03C8010E945A1B6ACF8091250209
:1055E000833509F040C0909126029333E1F5809114
:1055F0002702082E000C990B0E947833892B09F49E
:10560000FFCD40E150E070E060E086E292E00E9471
:10561000A52E162F6E3308F0F3CD862F0E948C072F
:10562000D82E61E070E080E090E00E94BC048DE341
:105630000E948C07082F87EE91E00E94CC03812FF7
:105640000E94010A8AED91E00E94CC038D2D829583
:105650008F700E94010A81ED91E00E94CC03802F9F
:1056600082958F7025CF082E000C990B0E947833FD
:10567000892B09F4C5CD80912602082E000C990BC8
:105680000E947833892B09F4BBCD80912702082E24
:10569000000C990B0E947833892B09F4B1CD8091CD
:1056A0002802082E000C990B0E947833892B09F4EC
:1056B000A7CD1B8280912502909126029A8389832F
:1056C00040E150E070E060E0C7010E94A52E062F87
:1056D00080912702909128029A83898340E150E0CB
:1056E00070E060E0C7010E94A52E162F802F90E089
:1056F0000E94321B80912302882321F0612F802F8A
:105700000E941F0A023109F07BCD82E090E00E94E6
:105710005A1B8D3009F074CD173C70F116E5612FDE
:1057200083E290E00E94321B80912302882321F0C3
:10573000612F83E20E941F0A809127029091280224
:105740009A83898340E150E070E060E0C7010E94E5
:10575000A52E17E4673508F417E0612F85E090E087
:105760000E94321B80912302882309F449CD612FC6
:1057700085E00E941F0A44CD16EBD1CF8091230211
:10578000811103C08EE991E030CD0E94690781113B
:10579000F9CF82EB92E00E94CC0389E192E00E9473
:1057A000CC038FE092E064CC0E94DA1BAECA109268
:1057B000FE021092FD02ECCA21E00DCB983209F0F6
:1057C0004ACB43E050E05093F6024093F50280EA62
:1057D00093E00E94D10681113ECBE091A203F091AB
:1057E000A3032091A4033091A503C9019595879542
:1057F0004091A0035091A103840F951F20FF08C082
:10580000DC012D913C91E20FF31F0190F081E02D1E
:10581000099580939F031FCB539443CB052D000F15
:10582000110B06571C4FD8016D917C91072E000C6F
:10583000880B990BF60120813181032E000C440B5B
:10584000550B620F731F841F951FA50194010E94C1
:105850004C33D8012D933C93952D80918303209157
:105860007F03309180038730A1F4121613068CF465
:10587000E0917E03409184034150550BE4171506D7
:105880000CF042C0EF5FE0937E03F0E0E352FD4F87
:1058900012A2A09181034A2F50E0682F70E06F5F41
:1058A0007F4F641B750B161617062CF4952D01C03F
:1058B000990F6A95EAF7E0917E03F0E0E352FD4F1D
:1058C00062A1962B92A32F5F3F4F309380032093CA
:1058D0007F03682F082E000C770B641B750B77FD78
:1058E0000FC08A1B809383032093ED021092F10274
:1058F00080C010929B0380939A0310929D0340CB2B
:10590000B7E0B0938303F0CF60E070E0CB010E947A
:10591000BC0461EB71E08DED92E00E948C0A609115
:10592000EE028DED92E00E94E2066AEC71E08DEDF0
:1059300092E00E948C0A6091EF028DED92E00E944D
:10594000E20661ED71E08DED92E00E948C0A652D1A
:105950008DED92E00E94E20667ED71E08DED92E040
:105960000E948C0A6091ED028DED92E00E94E206A9
:1059700060EE71E08DED92E00E948C0A60917E03F2
:105980008DED92E00E94E20667EE71E08DED92E00F
:105990000E948C0A60917F038DED92E00E94E206E6
:1059A0006EEE71E08DED92E00E948C0A6091F10242
:1059B0008DED92E00E94E20667EF71E08DED92E0DE
:1059C0000E948C0A6091F5028DED92E00E94E20641
:1059D0006FEF71E08DED92E00E948C0A6091F00211
:1059E0008DED92E00E94E2066AE08DED92E00E9469
:1059F000E2068091F002882309F490C94092750272
:105A00008DC9669B75C0809175020E94E20160ECB1
:105A10008BE30E943F07582E882309F469C00E9437
:105A20005F07482E57FC4DC0E0E4E51510F480E414
:105A3000582E2C988FEF0E941A0705E312E0680198
:105A400022242394312C80E00E941A07D6019D91D4
:105A50006D01891721F0FD0131978083212C33944A
:105A6000351488F32C9A80911E01823051F4211054
:105A700028C082E00E94E70384EF92E00E94CC03FA
:105A800002C08930B1F7D12CF80181918F010E94B9
:105A9000010AD394D514C0F380EF92E00E94CC03A6
:105AA000642D70E090E080E04AE00E948F098BE373
:105AB0000E94E70383E00E94E70384E591E00E94EF
:105AC000850A60EC85E30E943F07813121F08091D7
:105AD0001E0181110DC086E30E947907882341F0E1
