:100000000C94BF000C944F1C0C94281C0C94E7001B
:100010000C94E7000C94E7000C94E7000C94E700C4
:100020000C94E7000C94E7000C94E7000C94E700B4
:100030000C94E7000C941A1B0C94E7000C94E70056
:100040000C945C1E0C94E7000C949C1C0C94761C85
:100050000C94E7000C94E7000C94E7000C94E70084
:100060000C94E7000C94E700746F206C6F6E6720AF
:1000700000636F72727570740073656E6420636DD7
:1000800064200000000000250028002B0004040468
:100090000404040404020202020202030303030331
:1000A000030102040810204080010204081020010E
:1000B00002040810200000000800020100000304F0
:1000C000070000000000000000436F6D6D616E646A
:1000D00020746F206C6F6E673A20004D43004D55C1
:1000E000003B003D004D5300556E737570706F728C
:1000F0007465642073686F727420636F6D6D616ED8
:100100006400202D20636F6D70696C6564206174DC
:100110002041756720313420323032302031383A76
:1001200034363A3333005620332E352E302D646565
:10013000765F3230323030383131205349474E41CA
:100140004C6475696E6F2000200020557365206F28
:100150006E65206F662000496E6974206565707257
:100160006F6D20746F2064656661756C74732061B7
:100170006674657220666C61736800003022112419
:100180001FBECFEFD8E0DEBFCDBF12E0A0E0B1E0F0
:10019000E2E7F7E502C005900D92AE31B107D9F75D
:1001A00024E0AEE1B2E001C01D92A437B207E1F74E
:1001B00010E0CFEBD0E004C02197FE010E94942A0A
:1001C000CE3BD107C9F70E94C11E0C94B72B0C94EB
:1001D00000002F923F924F925F926F927F928F9288
:1001E0009F92AF92BF92CF92DF92EF92FF920F93C6
:1001F0001F93CF93DF93CDB7DEB7C955D1090FB6A3
:10020000F894DEBF0FBECDBF9E012F5F3F4F190197
:1002100086E1D9011D928A95E9F78091A703209183
:10022000F702811104C0283210F40C94520E10927F
:10023000FA0291E02E3F09F090E09093FC0240E03A
:1002400060E081114BC287EE92E00E943713D12CFF
:10025000ED2DF0E0FEA7EDA7F091A403FFA78F2FEF
:1002600090E001972DA53EA5281739070CF016C17F
:10027000F901E951FD4FCF0106962681222309F4A9
:100280000BC1CC24C394CD0C2DA53EA5220F331F4A
:10029000A9014C565C4F5AAB49AB9CAB8BAB5EABE8
:1002A0004DAB8091A403C81608F0F6C06C2C712CDD
:1002B000B30169517D4F78AB6FA7DB0116968C9126
:1002C000882309F4E7C0E9A9FAA9E080F180F301E5
:1002D000EE0FFF1FEC56FC4F00811181C7018027F4
:1002E000912797FDD7C08090900390909103A090A4
:1002F0009203B0909303B80117FF04C066277727D5
:10030000601B710B072E000C880B990B0E94842830
:10031000A50194010E94E3286FAB78AF89AF9AAF33
:10032000B701F7FE04C0662777276E197F09072EED
:10033000000C880B990B0E948428A50194010E944F
:10034000E3289B01AC016FA978AD89AD9AAD0E94FD
:100350009B2A20E030E040E05FE30E94E3280E9417
:10036000072B0E191F0917FF03C0119501951109DD
:10037000601771070CF48EC0F12CE12C0FA518A9A1
:100380000A5F1F4F8091F702F81608F049C0D801A4
:100390008C91E81608F044C06F2D70E089E093E07E
:1003A0000E94911280918F03082E000C990B681601
:1003B0007906A1F580918B03482F50E0F89EC0018B
:1003C0001124FC0163E0F695E7956A95E1F7209129
:1003D0008E03E21710F587709927FF27E951FD4F2B
:1003E00020918C0330E0082E02C0359527950A94A1
:1003F000E2F7209532A1232368E070E0641B750BBF
:10040000DB01A81BB90B4DA55EA502C0440F551F0B
:10041000AA95E2F7CA01822B82A3E394F394B2CFA8
:10042000ABA9BCA9EC90EFA5F8A9F680EDA9FEA9AF
:10043000A081B1818301000F111F0C561C4FF801E0
:10044000A080B180EE2DF0E09F010E948D2A2B014B
:100450003C014F2D50E09A01D5010E948D2A640D78
:10046000751D861D971DE40FF51F9F01FF0F440B9F
:10047000550B0E946E2AADA9BEA92D933C93FE0C8C
:10048000EBA9FCA9F082AFA5B8A916961C92F801B9
:1004900011821082C39405CFD394DACE1092000358
:1004A0001092FF028FEF8093E702F091F702F9AB11
:1004B0002F2F30E03CAB2BAB47EEC42E42E0D42EC6
:1004C00044E953E05EA74DA7E12CF12C0FEF1FEF9D
:1004D0004901330FAA08BB085FA5E51608F05EC006
:1004E0000F3F6FEF160709F5ADA5BEA58D919C9145
:1004F00097FD1BC0F601668170E080E090E00E94ED
:1005000084282B013C01C501B4010E9484282BE7FB
:1005100034E14EE25EE30E94E3289B01AC01C3019B
:10052000B2010E943D2B18165CF1ADA5BEA58D91C0
:100530009C9197FD26C0F801EE0FFF1FEC56FC4F73
:100540002081318182179307E4F4F601668170E01F
:1005500080E090E00E9484282B013C01C501B40199
:100560000E9484282BE734E14EE25EE30E94E328F8
:100570009B01AC01C301B2010E943D2B18160CF483
:100580008701FFEFEF1AFF0A2FEFC21AD20A4DA51B
:100590005EA54E5F5F4F5EA74DA79ECF0F3F5FEFFB
:1005A000150741F00093E70281E090E0909300038B
:1005B0008093FF028091FF0290910003019709F060
:1005C00091C08091EA02882309F48CC06BA97CA9B0
:1005D000663A71051CF409A9085201C00DE71FA570
:1005E000115096E0D92E1F3F09F475C0E12E012E5F
:1005F000000CFF08F701EE0FFF1FEC56FC4F2081A7
:10060000318137FF66C0319521953109283672E472
:1006100037070CF05EC0E091E702EE0FFF0BEC56DF
:10062000FC4F0190F081E02DC901BF010E94462AD4
:100630006D32710508F04DC0DE9EC001DF9E900D49
:1006400011248217930708F044C0F701E951FD4FC8
:10065000F6806F2D70E080E090E00E9484284B01CE
:100660005C016091F70270E080E090E00E948428D5
:100670002AE037ED43EA5DE30E94E3289B01AC01E9
:10068000C501B4010E947D2887FF23C081E08F153A
:1006900000F5E12CF12CE016E0F457019FEFA91AC8
:1006A000B90AB50189E093E00E94911280918F030D
:1006B00018130C949E0EB70189E093E00E949112EA
:1006C00090918F038091E70298130C949E0E0C94E6
:1006D000A10E115088CF1093A60304C087EE92E0BC
:1006E0000E9437138091FF0290910003029709F056
:1006F0001BC28091F702883208F416C28091F8027A
:100700008E5F8093F90210E06091F90270E08091B1
:10071000F70290E0019768177907ACF46F5F7F4F9D
:1007200089E093E011110C943E100E949112909177
:100730008F038091A603981311E08091F9028E5FD8
:100740008093F902E1CF10E08091F7029091F902D5
:10075000891710F48093F9024091F9026091F80230
:1007600087EE92E00E9437136091F802112371F036
:100770008091F90290E0861B9109889794F481E0BA
:1007800090E0909300038093FF02CEC18091F70226
:100790008E3F08F0B3C190E0861B910988970CF456
:1007A000ADC182E00E94A61E8091EB02882309F46D
:1007B000AFC060E271E087EE92E00E94EC1A8BE33A
:1007C0000E94A61EF12C8091A403F81688F58F2DA7
:1007D00090E0FC01EE0FFF1FEC56FC4F00811181F1
:1007E0000115110519F1FC01E951FD4F868188239E
:1007F000E9F08F2D17FF05C0806A11950195110949
:1008000001C08068E02E07FD04C0A02FA068EA2E7A
:1008100001C080610E94A61E8E2D0E94A61E812FFF
:1008200080680E94A61E8BE30E94A61EF394CBCF85
:100830008091F90280FF03C063E271E002C063E4CB
:1008400071E087EE92E00E94EC1AE091F802E0FF7E
:1008500019C0E150E093F802E69580918E03E81705
:1008600028F4F0E0E951FD4F12A101C010E01F7023
:100870001068812F0E94A61E8091F8028E5F8093DF
:10088000F80201C010E00091F8028091F90280178F
:1008900078F0E02FE69580918E03E81720F4F0E0E1
:1008A000E951FD4F12A1812F0E94A61E0E5FEDCFD0
:1008B0008091A603282F082E000C330B3F938F93B3
:1008C0008091E702282F082E000C330B3F938F9363
:1008D00085E291E09F938F933F922F920E948C2B01
:1008E000182FB10187EE92E00E94EC1A8AEA93E099
:1008F0000E94DB1A0FB6F894DEBF0FBECDBF811188
:100900009BC08091A9031F928F938FE291E09CC0BE
:1009100064E371E087EE92E00E94EC1A8BE30E94A0
:10092000A61E10E0B7E3EB2EB1E0FB2E8091A403EE
:10093000181740F5812F90E0FC01EE0FFF1FEC56D9
:10094000FC4F2081318121153105D1F0FC01E951A5
:10095000FD4F46814423A1F03F932F939F931F9314
:10096000FF92EF923F922F920E948C2BB10187EE63
:1009700092E00E94EC1A0FB6F894DEBF0FBECDBF16
:100980001F5FD4CF6FE371E087EE92E00E94EC1A14
:100990001091F80272E4E72E71E0F72E8091F902CF
:1009A000811708F1612F70E089E093E00E949112B5
:1009B00080918F03282F082E000C330B3F938F93C9
:1009C000FF92EF923F922F920E948C2BB10187EE03
:1009D00092E00E94EC1A1F5F0F900F900F900F9003
:1009E0000F900F90DBCF8091A603282F082E000CCC
:1009F000330B3F938F938091E702282F082E000C32
:100A0000330B3F938F9385E491E09F938F933F92B5
:100A10002F920E948C2B182FB10187EE92E00E943A
:100A2000EC1A8AEA93E00E94DB1A0FB6F894DEBF54
:100A30000FBECDBF882311F01DA718C08091A90358
:100A40001F928F9383E591E09F938F933F922F9214
:100A50000E948C2B8DA7B10187EE92E00E94EC1AC8
:100A60000F900F900F900F900F900F908091FC02BD
:100A7000882349F069E571E087EE92E00E94EC1A64
:100A80008BE30E94A61E1092FB026091F9028091F6
:100A9000F70290E0861B9109889734F18091EC026F
:100AA000882311F181508093EC026F5F87EE92E012
:100AB0000E94B6191092F8028091EC021F928F9357
:100AC0008BE591E09F938F933F922F920E948C2B06
:100AD0008DA7B10187EE92E00E94EC1A0F900F9063
:100AE0000F900F900F900F9083E00E94A61E8AE057
:100AF0000E94A61E81E08093FA0217C0662369F067
:100B00008091F90290E08D3F91053CF087EE92E0F4
:100B10000E94B6191092F80207C087EE92E00E9478
:100B2000B21381E08093FA021DA68091FA0281112E
:100B300040C78091E8025091E90227965FAF27975E
:100B4000811103C0552309F434C727966FAD279749
:100B5000662309F42EC78091F5029091F602892B45
:100B600039F585E490E00E94B422FC0182E380AF75
:100B700081E085AB108212AA14AA13AA87E087AB82
:100B800080E886AB8FEF84AF85AF86AF87AFDF019C
:100B9000AD5BBF4F1C9211961C9287EE92E093AF13
:100BA00082AF14971D921C92F093F602E093F50227
:100BB0008091A703882311F10091F5021091F602AC
:100BC000D801DA96ED91FC91DB97148A118ADA96B6
:100BD000ED91FC91DB97E054FF4F1082512C5801AE
:100BE000B4E4AB0EB11C442443943801E2E46E0E2D
:100BF000711C1801F3E42F0E311CB5C12090F502D1
:100C00003090F6028FEFD101DC968C93DC97DD9665
:100C10008C93DD97DF968C93DF97DE968C93DE972F
:100C2000F101ED5BFF4F10823196108234971182F3
:100C30001082F101108212AA14AA13AA87E087ABCE
:100C4000EE5BFF4F8091A8038083DA960D911C9193
:100C5000DB97F801E354FF4FF080B3E0BF1508F0D5
:100C6000A8C6F801608970E080E090E00E948428C6
:100C70002AE037ED43E25DE30E94E3284B015C018B
:100C800020E030E0A9010E943D2B20E030E040E070
:100C90005FE387FD05C0C501B4010E949B2A04C023
:100CA000C501B4010E949A2A0E94072B5801F6E060
:100CB000AF0EB11CF801E355FF4F1BAE70E0D5013C
:100CC0008D915D01861788F1EBAC8E2D90E0EE20C2
:100CD00009F126E130E02C0F3D1F280F391FD90103
:100CE000DC9098012D0D311D2D0D311D23553F4FE9
:100CF00040815181D9012D913C914217530754F401
:100D000027E130E02C0F3D1F820F931FDC01DC92A6
:100D1000EA94DBCF27E130E02C0F3D1F820F931FB9
:100D2000DC017C93BBADBF5FBBAF7F5F3296F71238
:100D3000C6CFFE017796F8A7EFA32696FFAFEEAFDA
:100D4000269740910A0150910B0160910C0170911E
:100D50000D0161964CAF5DAF6EAF7FAF6197B10192
:100D60006E5B7F4F63967FAF6EAF6397C1018D5B04
:100D70009F4F9DAF8CAFD101AC5BBF4F6A96BFAFA9
:100D8000AEAF6A973C96FCA7EBA7FFA16896FFAFB2
:100D9000689725968FAD25978F1B3BAD831708F07D
:100DA00008C6D101DA964C91DA97DB963C91DB9735
:100DB0002696EEADFFAD269721912696FFAFEEAFBA
:100DC0002697842F932F820F911D820F911DFC0176
:100DD000E355FF4F8081918118161906B4F68FEF05
:100DE000DC968C93DC97DD968C93DD97DF968C9365
:100DF000DF97DE968C932081318138AB2FA7B90124
:100E0000330F880B990B0E9484282B966CAF7DAF13
:100E10008EAF9FAF2B972DEC3CEC4CE45EE30E9431
:100E2000E3280E94072B65967FAF6EAF65978FA56D
:100E300098A997FD0196AC015595479567965FAFC8
:100E40004EAF6797BE01695E7F4F22967FAF6EAF50
:100E500022971FAE8FEF9FEF98AF8FAB1EAEDE01D4
:100E60005F96BAA7A9A74E01B7E28B0E911C2296F6
:100E7000EEADFFAD2297D1902296FFAFEEAF229755
:100E8000D101DA963C91DA97DB962C91832F922F41
:100E90008D0D911D8D0D911DFC01E355FF4F0081BE
:100EA0001181780117FF04C0EE24FF24E01AF10A33
:100EB00067968EAD9FAD67978E199F0997FF03C008
:100EC0009195819591096596EEADFFAD6597E8170F
:100ED000F907E4F42DEC3CEC4CEC5EE32B966CADA6
:100EE0007DAD8EAD9FAD2B970E94E3280E94072B0E
:100EF0008FA598A98E199F0997FF03C09195819599
:100F00009109681779070CF028C718C01016110648
:100F100014F00C942D10D101DE96DC92FEADFF5F33
:100F2000FEAF2FA938AD200F311F38AF2FABD10145
:100F3000DC968C91DC978F3F09F0D1C321968FAD61
:100F400021976896EFAD68978E1BFBAD8F1708F45D
:100F50008ECF1BCFD5018C91882379F0F50180814C
:100F600081110DC15394D801DA96CD90DC90DB97B6
:100F7000F6018089581670F3BAC2E52CF12CB7013E
:100F8000C60182960E949112F601E855FF4F8081BA
:100F900090E0F80124AD022E000C330B821793076A
:100FA00039F025AD022E000C330B82179307B1F6F2
:100FB000D801DA96CD90DC90DB97B701C601829616
:100FC0000E949112F601E855FF4F8080F80195AC20
:100FD00081E0891001C080E080931E02D801DA967A
:100FE000CD90DC90DB97B70161507109C601829604
:100FF0000E949112F601E855FF4F8081F501408271
:10100000D801DA96ED91FC91DB97518A552009F4CD
:10101000B0C090E0891026C0DF962C91DF97022E99
:10102000000C330B8217930709F43FC0DA962D9119
:101030003C91DB97FC01EE0FFF1FE20FF31FE3551E
:10104000FF4FDC968C91A82FAA0FBB0BA20FB31FEA
:10105000A355BF4F208131818D919C91281739076D
:1010600024F129C0F80126AD022E000C330B8217A3
:101070009307D9F022AD33ADFC01EE0FFF1FE20F55
:10108000F31FE355FF4FD801DD968C91A82FAA0FCF
:10109000BB0B2A0F3B1FD901A355BF4F20813181C4
:1010A0008D919C918217930734F481E0891080E040
:1010B00080931E0208C0D801DA96ED91FC91DB976F
:1010C00081898F5F818B60911E02C8010E94CF12BF
:1010D000FF24FA94F50CB1E0BF1508F043C0F80105
:1010E00082AC93ACCF2CD12CB601C40182960E9465
:1010F0009112F401E855FF4F808190E0D801DF960E
:101100002C91DF97022E000C330B8217930741F0CE
:10111000DE962C91022E000C330B8217930711F5EB
:10112000F80182AC93ACB60161507109C40182969A
:101130000E949112F401E855FF4F808190E0D801A0
:10114000DF962C91022E000C330B8217930709F4C3
:10115000A1C6F80126AD022E000C330B82179307AF
:1011600009F498C6D801DA96ED91FC91DB97518885
:10117000F5CE81E0891080E080931E02EFCED80189
:10118000DA96CD90DC90DB97E52CF12CB701C60107
:1011900082960E949112F601E855FF4FC080D12C33
:1011A000F80184AD082E000C990B82AC93ACC816E4
:1011B000D90609F4F5C685AD082E000C990BC816A2
:1011C000D90609F4EDC6B7016F5F7F4FC40182965F
:1011D0000E949112F401E855FF4F208180911E0278
:1011E000811119C0D801DA96ED91FC91DB978089C5
:1011F00090E00297E816F9067CF5DF968C91DF9770
:10120000082E000C990B8C159D0531F5422F50E0EE
:10121000DE968C911AC08130F9F4D801DA96ED91FE
:10122000FC91DB97808990E00297E816F906A4F418
:10123000DE968C91DE97082E000C990B8C159D057F
:1012400059F4422F50E0DF968C91082E000C990B38
:101250004817590709F43FC1F3018081082E000C9B
:10126000990BD801D3964D915C91D49748175907A3
:1012700064F4F1011082D5011C92F801108212AAC7
:1012800014AA13AA27E027AB26C1D801DA96ED915C
:10129000FC91DB97528ADA96AD90BC90DB97BDEF5C
:1012A0005B1213C0F501808990E00197E816F906FA
:1012B00061F4E054FF4F81E0808384E090E0D50149
:1012C00059969C938E93589775C0D801DC96EC91F3
:1012D000DC97EE0FFF0BEA0DFB1DE355FF4F40813E
:1012E0005181F601EE0FFF1FEA0DFB1DE355FF4F85
:1012F00060817181F501808964177507E4F4682FB6
:1013000070E061507109E616F706ACF4E22FF0E0E8
:10131000DD966C91DD97062E000C770BE617F7072C
:1013200009F476C6DE966C91062E000C770BE61754
:10133000F70709F46DC690E00297E816F906D4F5B0
:10134000D801DF968C91DF97082E000C990BC816F8
:10135000D90641F0DE968C91082E000C990BC81628
:10136000D90641F5C501820F911D820F911DFC0127
:10137000E355FF4F8081918184179507DCF4B70115
:101380006E5F7F4FC50182960E949112F501E8556C
:10139000FF4F808190E0F80124AD022E000C330B4A
:1013A0008217930709F00AC681E0850D51102FC6F8
:1013B00055245394652DD801DA968D919C91DB9735
:1013C0000E94B619D801DA96ED91FC91DB97E054B2
:1013D000FF4F8081811127C6F3018081082E000C08
:1013E000990BD3962D913C91D497281739070CF47B
:1013F0001AC682E00E94A61E60E671E087EE92E0C7
:101400000E94EC1AA091F502B091F602DD96EC91E3
:10141000DD97EE0FFF0BEC56FC4F81818F9380819F
:101420008F93DC96EC91EE0FFF0BEC56FC4F818115
:101430008F9380818F9383E691E09F938F939E019A
:101440002F5F3F4F79013F932F930E948C2BB70161
:1014500087EE92E00E94EC1AA091F502B091F6029C
:10146000DE96EC91DE97EE0FFF0BEC56FC4F818180
:101470008F9380818F93DF96EC91EE0FFF0BEC56EC
:10148000FC4F81818F9380818F9380E791E09F93C0
:101490008F93FF92EF920E948C2BB70187EE92E020
:1014A0000E94EC1A6FE371E087EE92E00E94EC1A62
:1014B0000091F5021091F6020FB6F894DEBF0FBE50
:1014C000CDBF712CBE01695E7F4F5B017EE7872E29
:1014D00071E0972E5AC05394D5018C91882309F45A
:1014E00041CD60911E02C8010E94CF123BCDF60192
:1014F000528AA8014E5B5F4FD801D3962D913C9143
:10150000D497BEEF5B1220C0FA01808187FD8F5F08
:101510008595082E000C990BD801DA96ED91FC9177
:10152000DB978217930754F4DF01A054BF4F81E08B
:101530008C9384E090E0918F808F75C5CF018054AB
:101540009F4FDC011C92148AFA018081082E000C46
:10155000990B4BCF721630F5F801EC0DFD1D808113
:101560001F928F939F928F92BF92AF920E948C2B6B
:10157000B501F80182AD93AD0E94EC1A73940F90FF
:101580000F900F900F900F900F90C72CD12CD80177
:10159000D2968C91D29790E0D8962C91C816D90605
:1015A000CCF202C080E0DCCF721628F4F801EC0D1A
:1015B000FD1D808101C080E082958F701F928F9306
:1015C00083E891E09F938F93BF92AF920E948C2B00
:1015D000D801D3962D913C91D497C90168E070E071
:1015E0000E945A2A0F900F900F900F900F900F901B
:1015F000059724F427703327232BE1F4F80180ADFD
:10160000781620F4EC0DFD1D808101C080E08F7004
:101610001F928F9383E891E09F938F93CE0148961A
:101620009F938F930E948C2B0F900F900F900F9091
:101630000F900F90B501D801DA968D919C91DB97B0
:101640000E94EC1AE091F502F091F60284A98F93C2
:1016500083A98F93E05CFF4F81818F9380818F936B
:1016600088E891E09F938F93FF92EF920E948C2BDA
:10167000182FB70187EE92E00E94EC1A8AEA93E0F5
:101680000E94DB1A0FB6F894DEBF0FBECDBF8823D1
:1016900011F01DA718C08091A9031F928F9383E5B5
:1016A00091E09F938F93FF92EF920E948C2B8DA7D6
:1016B000B70187EE92E00E94EC1A0F900F900F9006
:1016C0000F900F900F9083E00E94A61E8AE00E9468
:1016D000A61E1092A70381E08093FA026AC1DF96EA
:1016E0008C91DF978F3F09F429CCDD968C91DD97A3
:1016F0008F3F09F423CCDE968C918F3F09F41ECCEA
:1017000061962CAD3DAD4EAD5FAD61972BA33CA373
:101710004DA35EA32F8F38A349A35AA341E050E005
:1017200024965FAF4EAF2497A12CB12C1FEFD101AF
:10173000DA96ED90FC90DB97F701808990E0A8168F
:10174000B9060CF0FBCBB501C70182960E9491123D
:10175000F701E855FF4F0081802F90E0D101DC9622
:101760002C91DC97022E000C330B8217930709F49F
:10177000FBC2DD962C91022E000C330B82179307CF
:1017800009F4F2C2D101DF962C91022E000C330B2A
:101790008217930709F4E8C2F10126AD022E000C6E
:1017A000330B8217930709F4DFC2D101DA96ED916A
:1017B000FC91DB9781899501281B31096396AEADB9
:1017C000BFAD63978C91082E000C990B821793077D
:1017D0000CF00DC3A28AF10182AD93ADDC015296EB
:1017E0004C91529751966C910E943713D101DA9621
:1017F000ED91FC91DB97DE96BC91B9ABD101DD9602
:10180000BC91BBABD101DF960C91DF97DC96BC910C
:10181000BDABDF0129A9A20FB11D27FDBA95169610
:101820008C91DF013BA9A30FB11D37FDBA95169628
:10183000CC90D12CC80ED11CDF01A00FB11D07FD2B
:10184000BA9516968C91C81AD108DF014DA9A40F3C
:10185000B11D47FDBA9516968C91ACADBDAD1C92ED
:10186000C81AD108D7FE03C0D194C194D1080D2C59
:10187000000CEE08FF088089E82FF0E02D96FFAFFE
:10188000EEAF2D97BF01FF0F880B990B0E948428A4
:101890002AE037ED43E25DE30E94E3282B013C019F
:1018A00020E030E0A9010E943D2B20E030E040E044
:1018B0005FE387FD66C2C301B2010E949B2A0E94BA
:1018C000072B6C157D058E059F050CF437CBFEADFF
:1018D0002FADF21333CB3BA94DA9341709F42ECB0E
:1018E00059A9501709F42ACB041709F427CB531729
:1018F00009F424CB541709F421CB301709F41ECB7B
:10190000DE015F96FE01B39681919D9189133EC2DF
:101910008E169F06C9F78DA979A96AE0769F800D7A
:101920001124ABA99AE0A99F000D11248A3008F474
:101930008C590A3008F40C59AE01415E5F4FFE012C
:10194000B3966F01E82EF12C602F70E0D6018D91D7
:101950006D01082E000C990B8E159F0509F0ADC383
:10196000CE014F96FE01B3962191022E000C330B4F
:101970002617370709F0AAC3E815F90509F0B6C319
:1019800080E0C814D90409F407C24F5F5F4F81118A
:10199000DDCFF101E05CFF4F8FA998AD66E070E00C
:1019A0000E945A2A718360832796FFAD2797F11111
:1019B00003C98091E802882309F474C18091A703C8
:1019C000811170C18091FF0290910003019709F08D
:1019D00069C18091FA028111A4C18091F702883215
:1019E00008F464C182E00E94A61E8091EB02882365
:1019F00009F491C064E971E087EE92E00E94EC1A6C
:101A00008BE30E94A61E40E060E087EE92E00E9419
:101A10003713F12C8091A403F81688F58F2D90E0F0
:101A2000FC01EE0FFF1FEC56FC4F008111810115E8
:101A3000110519F1FC01E951FD4F86818823E9F078
:101A40008F2D17FF05C0806A11950195110901C0FE
:101A50008068E02E07FD04C0F02FF068EF2E01C073
:101A600080610E94A61E8E2D0E94A61E812F806876
:101A70000E94A61E8BE30E94A61EF394CBCF8091FA
:101A8000F70280FF08C063E471E087EE92E00E94F5
:101A9000EC1A10E011C063E271E0F7CF80918E0381
:101AA000181730F4E12FF0E0E951FD4F22A12DA7E6
:101AB0008DA50E94A61E1F5F80918803811770F775
:101AC0008091E702282F082E000C330B3F938F9351
:101AD00087E991E09F938F938E010F5F1F4F1F93B4
:101AE0000F930E948C2BB80187EE92E00E94EC1AB3
:101AF0008AEA93E00E94DB1A0F900F900F900F90EC
:101B00000F900F908111B6C08091A9031F928F93FF
:101B10008FE291E09EC06DE971E087EE92E00E9455
:101B2000EC1A8BE30E94A61E40E060E087EE92E094
:101B30000E94371310E057E3E52E51E0F52EAE0179
:101B40004F5F5F4F6A018091A403181740F5812F02
:101B500090E0FC01EE0FFF1FEC56FC4F208131811D
:101B600021153105D1F0FC01E951FD4F4681442397
:101B7000A1F03F932F939F931F93FF92EF92DF92D9
:101B8000CF920E948C2BB60187EE92E00E94EC1A55
:101B90000FB6F894DEBF0FBECDBF1F5FD4CF6FE38B
:101BA00071E087EE92E00E94EC1AF12C8E010F5F3B
:101BB0001F4F32E4C32E31E0D32E8091F702F81686
:101BC00008F56F2D70E089E093E00E9491128091FA
:101BD0008F03282F082E000C330B3F938F93DF9237
:101BE000CF921F930F930E948C2BB80187EE92E047
:101BF0000E94EC1AF3940F900F900F900F900F909B
:101C00000F90DBCF8091E702282F082E000C330BBA
:101C10003F938F9380EA91E09F938F931F930F934D
:101C20000E948C2BB80187EE92E00E94EC1A8AEA9F
:101C300093E00E94DB1A0F900F900F900F900F907F
:101C40000F90811117C08091A9031F928F9383E594
:101C500091E09F938F931F930F930E948C2BB80159
:101C600087EE92E00E94EC1A0F900F900F900F9069
:101C70000F900F908091FC02882349F069E571E094
:101C800087EE92E00E94EC1A8BE30E94A61E83E08E
:101C90000E94A61E8AE00E94A61E1092FB0281E00E
:101CA0008093FA028091FA0281113BC08091FB027D
:101CB0008823D9F14091A403E4E9F3E080E090E0C7
:101CC00020EDE22E27E0F22E841710F010E00CC079
:101CD000219131911216130624F42E153F050CF4B0
:101CE0007C010196F1CF1F5F8091F7021817C8F4AD
:101CF00070EDE71677E0F706A1F0612F70E089E05C
:101D000093E00E94911280918F03082E000C990B92
:101D1000E816F90641F76FEF610F87EE92E00E9437
:101D2000B6198091FB028111E7C11091FA0287EE8A
:101D300092E00E94B2131093FA02DEC175010C9476
:101D40004B031093A60382E090E0909300038093EE
:101D5000FF02E092F8020C947203101611060CF0C8
:101D600089C1F101D5AEDAC8D101DA96ED91FC91C5
:101D7000DB97808990E00197A816B90609F048C062
:101D800014CDC301B2010E949A2A99CD9F3F39F028
:101D90008F3F09F0BDCD03C0882309F4FACD2D96FD
:101DA0002EAD3FAD2D972A193B096396EEADFFADE1
:101DB00063978081082E000C990B821793070CF013
:101DC000BDC81BA31F8F1CA318A31DA319A31EA36B
:101DD0001AA35FEFA51AB50A24966EAD7FAD2497BE
:101DE0006F5F7F4F24967FAF6EAF2497A0CCACADD2
:101DF000BDAD1C926A96EEADFFAD6A9710821F8F43
:101E00001BA318A31CA319A31DA31AA31EA3E1CFF0
:101E1000ACADBDAD8C91811103C0A18AE1E0EC9322
:101E2000D101DA96ED90FC90DB9724966EAD7FADF4
:101E30002497C70182960E949112F701E855FF4F3F
:101E40008081BAE00B9F800D11248A3008F48C59F0
:101E5000A0FC03C02BA59CA502C029A59AA5E22F32
:101E6000F92F90E0482F50E06081262F062E000CBD
:101E7000330B2417350719F06F3F19F48083292F8E
:101E800001C02FEF9F5F943009F4A3CF31962F3F0D
:101E900059F39FCFE0901E02D801DA968D909C9066
:101EA000DB97B1E0EB123AC0E2E0CE1AD108B601FE
:101EB000C40182960E949112F401E855FF4F90816F
:101EC000D801DF968C91DF97981709F464C0DA96F1
:101ED0008D909C90DB97B601C40182960E9491126E
:101EE000F401E855FF4FA081AA0FBB0B8A0E9B1E81
:101EF000D401A355BF4FF80182AD93AD24ADE22FBD
:101F0000EE0FFF0BE80FF91FE355FF4F2D913C91AA
:101F10008081918128173907F4F13AC0E11038C067
:101F2000F2E0CF1AD108B601C40182960E94911244
:101F3000F401E855FF4F9081D801DE968C91DE9731
:101F4000981749F1DA968D909C90DB97B601C40101
:101F500082960E949112F401E855FF4FA081AA0FCA
:101F6000BB0B8A0E9B1ED401A355BF4FF80182AD57
:101F700093AD25ADE22FEE0FFF0BE80FF91FE355F0
:101F8000FF4F2D913C9180819181821793071CF026
:101F9000FA94FA94A0C86E2DC8010E94CF12F8CF0F
:101FA000F401808990E00197E816F9060CF00BC95E
:101FB00080911E02842580931E028ECA25AD022EBA
:101FC000000C330B8217930709F4EEC9C2ACD3ACF3
:101FD000B7016D5F7F4FC60182960E949112F60194
:101FE000E855FF4F808190E0F80127AD022E000CEC
:101FF000330B8217930709F4D7C9F80126AD022ED7
:10200000000C330B8217930709F0D4C9CDC9582EA1
:102010005394D801DA96ED91FC91DB9784E090E03F
:10202000918F808FC7C98091A703882309F4C1CC01
:102030008091FB0281114FCB10920903109288030B
:1020400010928A031092890387E080938D03109287
:10205000F70281E08093FB02ACCCF101D7AE3FAD3B
:102060003F5F3FAF4FA958AD401B510B58AF4FAB2F
:102070000C949707D101DC96DC92F1CF0E9491126B
:1020800090918F038091A60398130C949D03609107
:10209000F90270E089E093E00E94911290918F0321
:1020A0008091E70298130C949D038091F90281506E
:1020B0008093F90211E00C94A403FA018081082EA8
:1020C000000C990BE816F90651F44ACCDC012C916E
:1020D000022E000C330B6217730719F44DCC81E00C
:1020E00050CCE815F905D9F301963ECCC814D904B3
:1020F00009F44FCC80E049CCC75ADF4F0FB6F894B3
:10210000DEBF0FBECDBFDF91CF911F910F91FF902A
:10211000EF90DF90CF90BF90AF909F908F907F9087
:102120006F905F904F903F902F900895FC01CB01EE
:10213000642F0994FC0109948F929F92AF92BF92F1
:10214000CF92DF92EF92FF928FB7F894C0903D024A
:10215000D0903E02E0903F02F09040028FBF80910D
:10216000210290912202A0912302B0912402C8166C
:10217000D906EA06FB0648F480911F0290912002DE
:1021800001969093200280931F02C0922102D09268
:102190002202E0922302F0922402A0911F02B09149
:1021A000200227E339E841E450E00E94E9294B018D
:1021B0005C01C701B60128EE33E040E050E00E9428
:1021C000C729C501B401620F731F841F951FFF90BB
:1021D000EF90DF90CF90BF90AF909F908F90089539
:1021E000E89881E49BE19093010180930001E6EB84
:1021F000F3E011821382128208950F931F93CF93FD
:102200008C01C62F86E492E00E94701B892BD1F3CB
:102210004C2F50E0B80186E492E0CF911F910F91CE
:102220000C94421B0F931F93F8940E94FD1D009184
:10223000E3021091E4022091E5023091E602AB0145
:10224000BC01401B510B620B730B22E0209339023F
:1022500081E09DE790933802809337029093870046
:102260008093860082E18093810041303DE75307EF
:102270006105710588F14A9903C02FEF32E802C069
:1022800021E03DE78091B7038A35D8F48091B70308
:102290008F5F8093B7038091B8036091B6030E946B
:1022A0003A2A9093B803E091B803F0E0EE0FFF1FD5
:1022B000E654FC4F318320838091B8038F5F809375
:1022C000B8030E94FD1D6093E3027093E4028093C3
:1022D000E5029093E60238C0413187E25807610574
:1022E000710590F181E19DE7A0E0B0E0841B950BC2
:1022F000A60BB70B33E0880F991FAA1FBB1F3A9597
:10230000D1F7009731E0A307B10520F421E0209335
:10231000390209C02093390223E0B695A795979515
:1023200087952A95D1F79093380280933702809150
:1023300037029091380290938700809386008091B5
:10234000390280618093810020913A02E2ECF0E052
:102350008491EEEAF0E09491EAE9F0E0E491EE2372
:1023600009F43CC0882339F1833091F038F481308E
:10237000A9F0823001F584B58F7D12C0873091F0CD
:102380008830A1F08430B9F4809180008F7D03C043
:10239000809180008F77809380000DC084B58F7707
:1023A00084BD09C08091B0008F7703C08091B000D8
:1023B0008F7D8093B000F0E0EE0FFF1FED57FF4FD1
:1023C000A591B4913FB7F894211104C08C919095D8
:1023D000982302C0EC919E2B9C933FBF10923A022F
:1023E00078948091250291E0980F909325028111B5
:1023F00004C01F910F910C949C101F910F91089590
:10240000CF92DF92EF92FF920F931F93F8940E9466
:10241000FD1D0091E3021091E4022091E50230914C
:10242000E6026B017C01C01AD10AE20AF30A9701A5
:1024300086016093E3027093E4028093E502909337
:10244000E6020A3511052105310578F181E0C8164B
:102450008DE7D806E104F10410F4960102C021E0F2
:102460003DE74A9B03C03195219531098091B7031F
:102470008A35D8F48091B7038F5F8093B70380913A
:10248000B8036091B6030E943A2A9093B803E09192
:10249000B803F0E0EE0FFF1FE654FC4F31832083BA
:1024A0008091B8038F5F8093B80378941F910F9148
:1024B000FF90EF90DF90CF900895FC01848DDF01B5
:1024C000A80FB11DA35ABF4F2C91848D90E00196A7
:1024D0008F739927848FA689B7892C93A089B18996
:1024E0008C91837080648C93938D848D981306C037
:1024F0000288F389E02D80818F7D808308950C947C
:10250000A9290C94A12980E092E190930101809384
:102510000001E9E6F0E080818C7F81608083E89AA9
:102520000895CF93DF93FC01EE57FF4F4081469F04
:10253000D001479FB00D1124FD0123E0F695E795EA
:102540002A95E1F7EC01CB57DF4F288130E0E21705
:10255000F3070CF52297288130E0A770BB2702C053
:1025600035952795AA95E2F7E80FF91F30812323C7
:1025700030E058E0541B469F402D11244770541BF7
:1025800002C0359527955A95E2F7FC01EA57FF4FAF
:102590002083822F01C08FEFDF91CF910895FC013E
:1025A00087A98730A9F423A934A91216130684F445
:1025B00092A9492F50E020AD30E021503109421757
:1025C00053078CF59F5F92ABDF01A90FB11D1C92E1
:1025D00095A9492F50E0282F30E02F5F3F4F241B53
:1025E000350B1216130624F401C0660F2A95EAF77C
:1025F00022A9DF01A20FB11D2C91622B6C9323A99C
:1026000034A92F5F3F4F34AB23AB282F082E000C8B
:10261000330B241B350B37FD02C0891B01C087E03B
:1026200087AB81E0089580E00895CF93DF93DC01CC
:10263000CD91DC9111971296ED91FC911397149620
:102640002D913C911597C9019595879520FF0AC05A
:10265000DE01A80FB91F2D913C91E20FF31F0190ED
:10266000F081E02D8C0F9D1FDF91CF9109940F9386
:102670001F93CF93DF93DC0150968C915097882362
:1026800009F46BC0FD0136969D01225F3F4F119208
:102690002E173F07E1F7411101C0482F262F30E0E8
:1026A00035952795E42FF0E0F595E79560FF17C085
:1026B000ED01C955DF4F8881281728F4ED01C20FBD
:1026C000D31F9AA101C090E0892F8F70ED01C80F30
:1026D000D11D8E818F5F8E832F5F3F4F01C090E0B1
:1026E0008D0109551F4F622F70E06E177F07F0F4C0
:1026F000E8018881281720F4ED01C60FD71F9AA1A1
:10270000C92FD0E034E0D595C7953A95E1F7CA0FC7
:10271000DB1F8E818F5F8E83892F8F70ED01C80F35
:10272000D11D8E818F5F8E832F5FDDCF40FF15C05F
:10273000ED01C955DF4F8881E81718F4EA0FFB1F38
:1027400092A1E92FF0E084E0F595E7958A95E1F70D
:10275000EA0FFB1F86818F5F8683DF91CF911F91E8
:102760000F910895CF93DF93FC01DC01A354BF4F79
:102770001C9211961C9212A25D971C9211961196B2
:102780001C921E92149687E08C93108A118E108EE4
:1027900059968FEF8C938083EF01C355DF4FA95B70
:1027A000B109CF010E96199219921D92A817B90777
:1027B000D1F7138A86E990E0978B868BDF01A755C6
:1027C000BF4F40E050E060E87EE34D935D936D9332
:1027D0007C931397118A148A158A57961C92128A31
:1027E00011A210A283E08583DF91CF9108952F92EB
:1027F0003F924F925F926F927F928F929F92AF9291
:10280000BF92CF92DF92EF92FF920F931F93CF93DD
:10281000DF93CDB7DEB7C559D1400FB6F894DEBF10
:102820000FBECDBF0E94F010CF5FDE4F198218821D
:10283000C150D14081E0C85EDE4F8883C851D1408D
:10284000C75EDE4F19821882C951D140C05DDE4F8C
:102850008883C053D140CF5CDE4F19821882C153A8
:10286000D140C85BDE4F8883C854D140C75BDE4F80
:1028700019821882C954D140C05ADE4F8883C0568D
:10288000D140CF59DE4F19821882C156D140C85865
:10289000DE4F8883C857D1409E012F5F3F4F79019B
:1028A00080E091E0D901FC011D923197E9F7C7580A
:1028B000DE4F39832883C957D140CC24CA9406E21D
:1028C00012E022242A94F1E0CA57DE4FF883C6585A
:1028D000D14068E1D62E4E0193947CE0772EE2E061
:1028E0006E2E55245394D8018C918335C1F51196E1
:1028F0008C91833459F42394E1E0F1E0EC0FFD1F57
:10290000D29CE00DF11D1124128219C08D3459F4AE
:102910002394E1E0F1E0EC0FFD1FD29CE00DF11DEE
:102920001124528211C0823579F42394E1E0F1E060
:10293000EC0FFD1FD29CE00DF11D11246282CA57DD
:10294000DE4F1882C658D14021109DC043E050E0B0
:1029500066E272E086E492E00E94421B2CC0803561
:1029600099F5F80182818D3309F08DC0818150ED98
:10297000B52EB80EF7E0FB1508F485C04AE050E02C
:10298000BE0167587E4FC80103960E94D523729CF2
:10299000F0011124EB0DF11DEE0FFF1F21E031E0DE
:1029A0002C0F3D1FE20FF31F7087678321106BC050
:1029B000C8010E94BB1DC758DE4FF982E882C95783
:1029C000D14000E010E05FC08235C9F4D801119613
:1029D0008C918D3309F057C04AE050E0BE01675832
:1029E0007E4FC80102960E94EB24E1E0F1E0EC0F7B
:1029F000FD1FD29CE00DF11D1124678BD7CF8434CD
:102A000041F5F80181818D33F1F5AA24A394BA2C04
:102A1000AC0EBD1ED29CA00CB11C1124C8010296A4
:102A2000D50114969C938E931397A401401B510BD0
:102A30004D5F5F4F6BE370E001960E94532BC758C8
:102A4000DE4F99838883C957D140F50196838583EA
:102A50001AC08334C1F4D80111968C918D3399F446
:102A60004AE050E0BE0167587E4FC80102960E94BE
:102A7000EB24E1E0F1E0EC0FFD1FD29CE00DF11D35
:102A8000112471836083C758DE4F88819981C957AB
:102A9000D1400817190709F463C0E816F90639F0A0
:102AA0000196C758DE4F99838883C957D140C758CC
:102AB000DE4F08811981C957D140412CC758DE4FDC
:102AC000A880B980C957D140A40CB11CC758DE4FAB
:102AD000B982A882C957D1400E94BD1D97FD0DC083
:102AE000F5018083C418C758DE4FE881F981C957C2
:102AF000D14080818B3341F40FC089E790E00E9480
:102B0000CE1C81E790E01AC08A3009F421C2CC20A3
:102B100029F044244394D2CFC1101DC08BEA94E025
:102B20000197F1F78E0113950E94BD1D97FF09C013
:102B300089E790E00E94CE1C88E690E00E94091D83
:102B40000BC28A309105A1F3D7018D937D01A017A7
:102B5000B10751F7EDCF11820115110509F0C3CE70
:102B6000CD5FDE4F8881C350D140811113C0C85E54
:102B7000DE4FB881C851D140CF57DE4FB883C1581E
:102B8000D140B1110DC0E1E0CF57DE4FE883C1580D
:102B9000D14006C0F1E0CF57DE4FF883C158D14095
:102BA000C957DE4F1882C758D140312C28E1239DE8
:102BB000C0011124E1E0F1E0EC0FFD1FE80FF91F67
:102BC0002281223009F089C0C558DE4F1882CB57C8
:102BD000D140DF015796C358DE4FB983A883CD5744
:102BE000D140079621E031E02C0F3D1F280F391FFF
:102BF000C158DE4F39832883CF57D140CF01059686
:102C0000CE57DE4F99838883C258D1408F010D5F24
:102C10001F4FC358DE4FA881B981CD57D1408C9149
:102C2000C558DE4FB881CB57D140B81708F04FC117
:102C3000CE57DE4FE881F981C258D1408080918023
:102C4000D801CC901196DC900E94FD1D2B013C0117
:102C50007601F701E814F90468F5BFEFEB1AFB0AF7
:102C600080818053C158DE4FE881F981CF57D14030
:102C7000E80FF11DE80FF11DA080B1806501B7FEDE
:102C800004C0CC24DD24CA18DB080E94FD1D641595
:102C9000750586059705C8F3B7FE02C02B9801C0DD
:102CA0002B9AC601DD0CAA0BBB0B480E591E6A1EDF
:102CB0007B1ECFCF0E94FD1D641575058605970507
:102CC000C8F3C558DE4FE881CB57D140EF5FC558F8
:102CD000DE4FE883CB57D1409CCF213009F0F7C0BD
:102CE000C358DE4F1882CD57D1406F019F01295E36
:102CF0003F4FCE56DE4F39832883C259D140CF0192
:102D00000596CC56DE4F99838883C459D140DF01A4
:102D10001396C857DE4FB983A883C858D140CE5602
:102D2000DE4FE881F981C259D1408081C358DE4F1E
:102D3000F881CD57D140F81708F0C9C0D6010D91E0
:102D40001C91CC56DE4FE881F981C459D1400190E5
:102D5000F081E02DC657DE4FF983E883CA58D14091
:102D6000C857DE4FA881B981C858D140EC90119660
:102D7000FC900E94FD1D4B015C01C558DE4FE882AE
:102D8000CB57D140C458DE4FF882CC57D140C80150
:102D9000110FAA0BBB0BCE57DE4F88839983AA83F2
:102DA000BB83C258D140880F991FAA1FBB1FC457AD
:102DB000DE4F88839983AA83BB83CC58D140C55802
:102DC000DE4FA881B981CB57D140C657DE4FE8818D
:102DD000F981CA58D140AE17BF0708F06CC08D9179
:102DE000C558DE4FB983A883CB57D1408A3314F03E
:102DF00097E301C090E3891B24E030E0C158DE4F27
:102E000039832883CF57D14008E0A82F880FBB0B08
:102E1000C057DE4FB983A883C059D1402401350182
:102E200010E0E02EF12CC057DE4FE881F981C05947
:102E3000D140EE22FF22111104C0E114F10421F46B
:102E400005C0E114F10411F42B9801C02B9ACE5760
:102E5000DE4F88819981AA81BB81C258D140480E3A
:102E6000591E6A1E7B1E0E94FD1D64157505860590
:102E70009705C8F31F5F1230F1F6C457DE4F888103
:102E80009981AA81BB81CC58D140880E991EAA1E77
:102E9000BB1E0695C158DE4FA881B981CF57D140DE
:102EA0001197C158DE4FB983A883CF57D140AB2BC0
:102EB00009F0B4CF84CFC358DE4FB881CD57D1408D
:102EC000BF5FC358DE4FB883CD57D14028CF2B9872
:102ED0003394231408F06ACECA57DE4FE881C658EF
:102EE000D140EE2331F061E070E080E090E00E949C
:102EF000221EC957DE4FF881C758D140FF5FC9571E
:102F0000DE4FF883C758D140CF57DE4F2881C158D4
:102F1000D1402F134ACECE0101960E94BB1DE1E0A5
:102F2000F1E0EC0FFD1F38E1239EE00DF11D1124AF
:102F30008281833051F087EE92E00E94B2131092AA
:102F4000B7031092B9031092B8030E94831204C011
:102F5000CC2009F4E3CD04CECB56DE4F0FB6F89467
:102F6000DEBF0FBECDBFDF91CF911F910F91FF90BC
:102F7000EF90DF90CF90BF90AF909F908F907F9019
:102F80006F905F904F903F902F9008951F93CF9335
:102F9000DF9300D01F92CDB7DEB786E492E00E94A7
:102FA000A11B892B09F4D5C1109134021E3049F4BC
:102FB00089EC90E00E94CE1C86E292E00E94FB1C0D
:102FC000C1C186E492E00E947F1BE12FF0E0EA5D40
:102FD000FD4F80838D3079F034F4882361F08A309E
:102FE00009F0B3C108C0833231F08B3309F0ADC1B1
:102FF0000E94F713A7C180912602863509F482C08A
:103000000CF05FC0833409F4A1C00CF055C08F33BD
:1030100009F06EC18FE30E94581D8AE491E00E947E
:10302000CE1C86E50E94581D88E491E00E94CE1CCB
:1030300082E50E94581D88E491E00E94CE1C84E73E
:103040000E94581D88E491E00E94CE1C88E50E94F1
:10305000581D88E491E00E94CE1C83E50E94581D13
:1030600088E491E00E94CE1C80E50E94581D88E40F
:1030700091E00E94CE1C83E40E94581D88E491E0F8
:103080000E94CE1C82E70E94581D88E491E00E94B5
:10309000CE1C87E50E94581D88E491E00E94CE1C5A
:1030A00083E70E94581D88E491E00E94CE1C8DEABF
:1030B00091E00E94FB1C43C18035D9F0823559F163
:1030C00017C184374CF482370CF039C1873509F4C5
:1030D000E2C0883571F10CC1843709F009C10E9442
:1030E0009C104AE00E94171D8BEA91E00E94E91CA7
:1030F00026C188EA91E00E94FB1C8BEC97E00197C7
:10310000F1F71DC186E291E00E94CE1C82E091E0C1
:103110000E94091D14C120916E0430916F04211585
:10312000310511F424E734E0CE010196821B930BA4
:103130005AC080912702813519F40E94F010FFC017
:10314000853409F0FCC00E948312F9C080912702E7
:10315000873459F034F49CEB980F923008F446C051
:10316000EEC0833509F479C0EAC085EE90E00E9494
:10317000CE1C83EE90E00E94CE1C8091EA0290E08B
:103180000E945D1D81EE90E00E94CE1C8EED90E0CD
:103190000E94CE1C83EE90E00E94CE1C8091E8023B
:1031A00090E00E945D1D81EE90E00E94CE1C8BEDB0
:1031B00090E00E94CE1C83EE90E00E94CE1C809195
:1031C000E90290E00E945D1D81EE90E00E94CE1C1D
:1031D0008EEA91E00E94BB1D83EE90E00E94CE1C1F
:1031E0008091EB0290E00E948B1DA9C09091280273
:1031F000923579F034F4933409F0A1C0E9EEF2E0AD
:103200000DC0933549F0953509F099C0E8EEF2E02C
:1032100005C0EBEEF2E002C0EAEEF2E0853419F40C
:1032200081E0808301C010822091E802622F660F46
:103230009091E90284E0989F90011124262B6091DF
:10324000EA02262B9091EB0238E0939FC0011124F3
:10325000622F682B8FEF90E070C063EB71E088E223
:1032600092E00E94722B892B09F469C04AE050E079
:1032700060E070E08EE292E00E94D5236093A803A4
:103280007727882799274AE00E94171D8AEB91E04B
:103290000E94BB1D54C080912702833529F4909170
:1032A0002802933309F44BC0082E000C990B0E949E
:1032B000472B892B09F443C080912802082E000C6B
:1032C000990B0E94472B892BD1F180912902082E5E
:1032D000000C990B0E94472B892B89F180912A02BF
:1032E000082E000C990B0E94472B892B31F427C024
:1032F00088EE90E00E94091D25C01B828091270264
:10330000909128029A83898340E150E060E070E068
:10331000CE0101960E94D523162F8091290290910B
:103320002A029A83898340E150E060E070E0CE0198
:1033300001960E94D523812F90E00E947F1281E0A8
:1033400080933A021092340204C01F5F109334023B
:1033500024CE0F900F900F90DF91CF911F91089581
:103360000E94AD1B81110C94C61708953F924F9295
:103370005F926F927F928F929F92AF92BF92CF9205
:10338000DF92EF92FF920F931F93CF93DF93DC01B5
:1033900054961C925497662309F4FBC050962C91C6
:1033A0005097222309F4F5C030E0A62EB12CA216C6
:1033B000B3069CF0DF91CF911F910F91FF90EF909A
:1033C000DF90CF90BF90AF909F908F907F906F9045
:1033D0005F904F903F900C94B2138C010E551F4F8D
:1033E000F80120813181A216B30608F0D2C0EC01A9
:1033F0007C01F2E2EF0EF11CFC01EF55FF4FC90119
:103400000197A816B90641F41AA21082D8011D929C
:103410001C9287E035967CC02D01B4EA4B0E511CFE
:10342000D2014C91649F3001112453E0769467944B
:103430005A95E1F7362C842E912C68E0C62ED12CBB
:10344000C601B4010E945A2AC5010E94462A00976B
:1034500009F460C0489F802D112468E0681B9081AA
:103460002701462D43196916D8F46E01C60CD11CEC
:10347000D60193964C91939750E0062E02C0559535
:1034800047950A94E2F79296CC90082E01C0CC0C96
:103490000A94EAF74C29D2014D932D016394E1CFB0
:1034A00020FD10C0BE01640F711DAE01460D511DFF
:1034B000DA0192969C9101C0990F8A95EAF7DB0197
:1034C00092969C932A193B09D8012D933C93829E96
:1034D0006001839ED00C929ED00C1124C60168E03E
:1034E00070E00E945A2ADE01AA55BF4F882321F0BE
:1034F00097E0981B892F01C087E08C93C60188193B
:10350000990997FD079623E0959587952A95E1F708
:10351000808322C0408146194083772450E04F5F6A
:103520005F4FB701660D771DC7010E94602BF20146
:10353000608170E0C6010E945A2A669D9001679DD5
:10354000300D769D300D1124D8018D919C911197ED
:10355000821B930B8D939C9381E08C8BF80160818F
:103560007181688B662399F0772761507109C701D3
:103570000E949112FE01E855FF4F8081880F990B40
:1035800083559F4F8C0F9D1F99A388A302C019A23A
:1035900018A2DF91CF911F910F91FF90EF90DF90D4
:1035A000CF90BF90AF909F908F907F906F905F90E3
:1035B0004F903F900895FC0180819181892B51F4B7
:1035C00082819381892B31F48481958121E0822746
:1035D0008170089580E00895EF92FF920F931F93FA
:1035E000CF93DF9361157105E1F08B01FB01019031
:1035F0000020E9F731977F01E61AF70AEC01C7537B
:10360000DF4FCE010E94DB1A81110BC04E2DB80195
:10361000CE01DF91CF911F910F91FF90EF900C940D
:10362000151380E090E0DF91CF911F910F91FF90F3
:10363000EF9008951F920F920FB60F9211242F93BF
:103640003F934F935F936F937F938F939F93AF932A
:10365000BF93EF93FF93E0913502F0913602099505
:10366000FF91EF91BF91AF919F918F917F916F915A
:103670005F914F913F912F910F900FBE0F901F9030
:1036800018950895CF92DF92EF92FF920F931F93B8
:10369000CF93DF936C017A018B01C0E0D0E0CE15AF
:1036A000DF0581F0D8016D918D01D601ED91FC917E
:1036B0000190F081E02DC6010995892B11F021962A
:1036C000EECF7E01C701DF91CF911F910F91FF9047
:1036D000EF90DF90CF900895089580E090E00895F6
:1036E000FC01538D448D252F30E0842F90E0821B08
:1036F000930B541710F0CF96089501970895FC018D
:10370000918D828D981761F0828DDF01A80FB11D18
:103710005D968C91928D9F5F9F73928F90E008953C
:103720008FEF9FEF0895FC01918D828D981731F0F6
:10373000828DE80FF11D858D90E008958FEF9FEF4A
:103740000895FC01918D228D892F90E0805C9F4F20
:10375000821B91098F739927089586E492E00E9455
:10376000A11B21E0892B09F420E0822F08950E94FB
:10377000422BEF92FF920F931F93CF93DF93EC01B5
:1037800081E0888F9B8D8C8D981305C0E889F9891D
:10379000808185FD26C0F62E0B8D10E00F5F1F4F38
:1037A0000F731127E02E8C8DE8120CC00FB607FCAA
:1037B000FACFE889F989808185FFF5CFCE010E9493
:1037C0005D12F1CF8B8DFE01E80FF11DE35AFF4F23
:1037D000F0829FB7F8940B8FEA89FB898081806221
:1037E0000AC09FB7F894EE89FF896083E889F98958
:1037F00080818370806480839FBF81E090E0DF914F
:10380000CF911F910F91FF90EF900895CF93DF9389
:10381000EC01888D8823C9F0EA89FB89808185FDC8
:1038200005C0A889B9898C9186FD0FC00FB607FC29
:10383000F5CF808185FFF2CFA889B9898C9185FF6A
:10384000EDCFCE010E945D12E7CFDF91CF910895B9
:103850001F920F920FB60F9211242F933F934F9305
:103860005F936F937F938F939F93AF93BF93EF93E8
:10387000FF93E0910201F09103010995FF91EF910F
:10388000BF91AF919F918F917F916F915F914F9178
:103890003F912F910F900FBE0F901F9018951F9280
:1038A0000F920FB60F9211242F933F934F935F9374
:1038B0006F937F938F939F93AF93BF93EF93FF93F8
:1038C000E0910001F09101010995FF91EF91BF9105
:1038D000AF919F918F917F916F915F914F913F91A8
:1038E0002F910F900FBE0F901F9018951F920F925F
:1038F0000FB60F9211242F933F934F935F936F93C3
:103900007F938F939F93AF93BF93EF93FF9386E43F
:1039100092E00E945D12FF91EF91BF91AF919F9154
:103920008F917F916F915F914F913F912F910F9068
:103930000FBE0F901F9018951F920F920FB60F9207
:1039400011242F938F939F93EF93FF93E09156024F
:10395000F09157028081E0915C02F0915D0282FD5E
:1039600012C0908180915F028F5F8F7320916002FF
:10397000821751F0E0915F02F0E0EA5BFD4F958F16
:1039800080935F0201C08081FF91EF919F918F91A1
:103990002F910F900FBE0F901F9018950F931F93AC
:1039A000CF93DF938C01C0E0D0E0F801EC0FFD1F56
:1039B0006491662341F086E492E00E94B91B892B52
:1039C00011F02196F2CFCE01DF91CF911F910F918F
:1039D0000895009769F0FC0101900020E9F7319704
:1039E000AF01481B590BBC0186E492E00C94421BCA
:1039F00080E090E00895CF93DF930E94E91CEC01F2
:103A00008BEA91E00E94E91C8C0F9D1FDF91CF9102
:103A10000895CF93DF930E94CE1CEC018BEA91E0D6
:103A20000E94E91C8C0F9D1FDF91CF9108958F920A
:103A30009F92AF92BF920F931F93CF93DF93CDB717
:103A4000DEB7A1970FB6F894DEBF0FBECDBF19A2A7
:103A5000423008F44AE08E010F5D1F4F842E912CF6
:103A6000A12CB12CA50194010E94C729E62FB90110
:103A7000CA0101501109EA3014F4E05D01C0E95CAB
:103A8000D801EC93232B242B252B61F7C8010E942E
:103A9000E91CA1960FB6F894DEBF0FBECDBFDF9133
:103AA000CF911F910F91BF90AF909F908F900895ED
:103AB000682F86E492E00C94B91BCF92DF92EF92CC
:103AC000FF92CF93DF936C01990FEE08FF08F7FE8A
:103AD00017C08DE20E94581DEC0166277727CB01A5
:103AE0006C197D098E099F094AE00E94171D8C0FF1
:103AF0009D1FDF91CF91FF90EF90DF90CF900895C1
:103B00004AE0C701B601DF91CF91FF90EF90DF90BF
:103B1000CF900C94171DCF92DF92EF92FF92CF932C
:103B2000DF936C01990FEE08FF08F7FE11C08DE2DC
:103B30000E94581DEC0166277727CB016C197D097F
:103B40008E099F094AE00E94171DC80FD91F06C0A1
:103B50004AE0C701B6010E94171DEC018BEA91E013
:103B60000E94E91C8C0F9D1FDF91CF91FF90EF9079
:103B7000DF90CF9008950C94E91C2FB7F8948091B2
:103B80003D0290913E02A0913F02B09140022FBFB2
:103B900080934E0290934F02A0935002B093510233
:103BA00086E492E00E947F1B97FF26C02FB7F8940F
:103BB00080913D0290913E02A0913F02B09140025F
:103BC0002FBF40914E0250914F0260915002709170
:103BD0005102841B950BA60BB70B40914A025091E2
:103BE0004B0260914C0270914D0284179507A60715
:103BF000B707B0F28FEF9FEF08953FB7F894809129
:103C0000420290914302A0914402B091450226B530
:103C1000A89B05C02F3F19F00196A11DB11D3FBF04
:103C2000BA2FA92F982F8827820F911DA11DB11D92
:103C3000BC01CD0142E0660F771F881F991F4A958E
:103C4000D1F708958F929F92AF92BF92CF92DF9259
:103C5000EF92FF926B017C010E94FD1D4B015C0104
:103C6000C114D104E104F104F1F00E94FD1DDC0156
:103C7000CB0188199909AA09BB09883E9340A1057F
:103C8000B10570F321E0C21AD108E108F10888EE0D
:103C9000880E83E0981EA11CB11CC114D104E1045C
:103CA000F10419F7DDCFFF90EF90DF90CF90BF9038
:103CB000AF909F908F9008951F920F920FB60F9222
:103CC00011242F933F938F939F93AF93BF93809132
:103CD0003D0290913E02A0913F02B091400230918E
:103CE000410223E0230F2D3720F40196A11DB11DC1
:103CF00005C026E8230F0296A11DB11D20934102A5
:103D000080933D0290933E02A0933F02B093400205
:103D10008091420290914302A0914402B0914502E9
:103D20000196A11DB11D8093420290934302A0937E
:103D30004402B0934502BF91AF919F918F913F9103
:103D40002F910F900FBE0F901F901895CF93DF9378
:103D50001F92CDB7DEB7898380EB93E00E94DB1A18
:103D6000811109C041E0BE016F5F7F4F80EB93E09E
:103D70000E94151302C080E090E00F90DF91CF9178
:103D80000895CF93DF93CDB7DEB72A970FB6F89497
:103D9000DEBF0FBECDBF789484B5826084BD84B58C
:103DA000816084BD85B5826085BD85B5816085BD36
:103DB00080916E00816080936E00109281008091EE
:103DC0008100826080938100809181008160809376
:103DD0008100809180008160809380008091B1009B
:103DE00084608093B1008091B00081608093B000C6
:103DF00080917A00846080937A0080917A0082605A
:103E000080937A0080917A00816080937A0080911B
:103E10007A00806880937A001092C100E091560287
:103E2000F091570282E08083E0915602F0915702B0
:103E30001082E0915202F09153021082E0915402FC
:103E4000F091550280E1808310925E02E0915A0267
:103E5000F0915B0286E08083E0915802F091590274
:103E6000808180618083E0915802F09159028081C5
:103E700088608083E0915802F091590280818068C7
:103E80008083E0915802F091590280818F7D808378
:103E90005298259A80E090E00E948112833309F0C5
:103EA00032C281E090E00E9481128D3109F02BC274
:103EB0008FEF90E00E948112982F91709093EA0208
:103EC00081FB992790F99093E80282FB992790F95A
:103ED0009093E90283FB882780F98093EB02239A71
:103EE00062E370E080E090E00E94221E80E1809317
:103EF00081001092800082E08093390281E09DE78A
:103F000090933802809337029093870080938600C5
:103F100082E18093810082E191E190933602809367
:103F2000350281E080936F001E821D8286E990E158
:103F30009C838B838B819C81AD81BE818093B203F6
:103F40009093B303A093B403B093B5038DEF90E1C6
:103F50009093B1038093B0030E94831280E991E0B3
:103F6000A0E0B0E080934A0290934B02A0934C02F1
:103F7000B0934D0272E0472E512C612C712C992484
:103F80009394E7E08E2EF3E0AF2EB12C8091B7032F
:103F9000882309F4B5C18091B70381508093B7039A
:103FA0008091B9036091B6030E943A2A9093B903B5
:103FB000E091B90381E08E0F8093B903F0E0EE0F3A
:103FC000FF1FE654FC4F8081918190933C028093C7
:103FD0003B021092FA026091F702662391F070E0C2
:103FE0006150710989E093E00E94911280918F03E2
:103FF000880F990B8C569C4F90930803809307036E
:1040000004C0109208031092070340913B025091A4
:104010003C02E0910503F0910603518340839091A7
:10402000F702992379F0E0910703F09108033097A4
:1040300049F02081318124273527232F221F222771
:10404000221F01C021E031E09E3F09F430E081E011
:10405000411553480CF480E0832311F0211132C044
:104060000E94E9008091FA02811104C08091A703A7
:104070008823B1F08091F7028823D1F0E091070303
:10408000F09108033097A1F0A0910503B0910603C9
:104090002D913C91808191818227932797FD08C0C3
:1040A00087EE92E00E94B213109208031092070369
:1040B0008091F7028E3F91F560E070E0CB010E94A5
:1040C000221E2CC0983251F5B0920003A092FF023C
:1040D0008AEA93E00E94DB1A811120C02091AA0392
:1040E0003091AB03E091AC03F091AD034091AE038E
:1040F0005091AF03CA019595879540FF0AC0D90139
:10410000A80FB91F4D915C91E40FF51F0190F0814C
:10411000E02D820F931F09958093A903C09005039A
:10412000D0900603D6010D911C91B80117FF04C071
:1041300066277727601B710B072E000C880B990BE5
:104140000E9484282DEC3CEC4CE45EE30E94E328C2
:104150000E940E2B9B017093FE026093FD027091F2
:10416000A403E4E9F3E060E07617C1F08191919156
:10417000A8014827592757FD0FC0009769F0A801EB
:10418000481B590BCA0157FF03C0919581959109AE
:10419000281739070CF0CBC06F5FE6CF7830E1F518
:1041A00040E060E087EE92E00E943713E091A503C3
:1041B000F0E0E951FD4F8681833040F00E94E90034
:1041C00040E060E087EE92E00E9437131091F70222
:1041D0001150E091A503F0E0E951FD4F868188235D
:1041E000D9F08091F7028823B9F0612F70E089E05F
:1041F00093E00E94911220918F03022E000C330B4A
:104200008091A50390E02817390711F761E0610F4D
:1042100087EE92E00E94B6191091A503E091050384
:10422000F091060380819181E12FF0E0EE0FFF1FF6
:10423000EC56FC4F9183808381E0810F883019F028
:104240008093A50306C01092A5038093A403109247
:10425000A7038091A5039091A403981710F480936D
:10426000A403312F20918D038091890390918A03BB
:104270002730B9F418161906A4F4E09188036E2FBC
:1042800070E040918E0350E041505109641775076A
:104290000CF072C0EF5FE0938803F0E0E951FD4F4E
:1042A00012A2A0918B034A2F50E0622F70E06F5F43
:1042B0007F4F641B750B161617062CF4312F01C0A7
:1042C000330F6A95EAF7E0918803F0E0E951FD4F7A
:1042D00062A1362B32A3019690938A0380938903BF
:1042E000622F022E000C770BFB01E41BF50BF7FD90
:1042F00004C02A1B20938D03AEC080928D03ABC0F7
:104300000E94B01943CE6FE08FEF90E00E947F12C1
:1043100087E591E00E94091D63E380E090E00E9440
:104320007F126DE181E090E00E947F12C1CD162FD7
:1043300067FD34CF812F880F990BDC01AC56BC4F41
:104340007D016D917C919B01770F440B550BD6013C
:104350008D919C91092E000CAA0BBB0B280F391FC5
:104360004A1F5B1FCA01B901A30192010E946E2A74
:10437000F7013183208375CF60E070E0CB010E94AC
:10438000221E64EC71E087EE92E00E94EC1A65ED6B
:1043900071E087EE92E00E94EC1A8091F8020E9490
:1043A000A61E6EED71E087EE92E00E94EC1A8091FD
:1043B000F9020E94A61E65EE71E087EE92E00E946F
:1043C000EC1A812F0E94A61E6BEE71E087EE92E040
:1043D0000E94EC1A8091F7020E94A61E64EF71E021
:1043E00087EE92E00E94EC1A809188030E94A61E3C
:1043F0006BEF71E087EE92E00E94EC1A80918903E6
:104400000E94A61E62E072E087EE92E00E94EC1A23
:104410008091FB020E94A61E6BE072E087EE92E0A4
:104420000E94EC1A8091FF020E94A61E63E172E0D6
:1044300087EE92E00E94EC1A8091FA020E94A61E7A
:104440008AE00E94A61E8091FA02882309F49ECD7C
:1044500090923A029BCD8093F7021092FB02F3CF29
:10446000CF93DF93E6E4F2E01382128288EE93E0CA
:10447000A0E0B0E084839583A683B78382E191E0D6
:104480009183808385EC90E09587848784EC90E02D
:104490009787868780EC90E0918B808B81EC90E011
:1044A000938B828B82EC90E0958B848B86EC90E0F2
:1044B000978B868B118E128E138E148EE6EBF3E0A3
:1044C0008AE58083118213821282C7EED2E081E0F6
:1044D00093E09F8F8E8F19A218A28FE780938E038F
:1044E00084E080938B031AA21092880310928A03AF
:1044F0001092890387E080938D0380EF80938C0373
:104500001092A9031092AB031092AA031092AD036C
:104510001092AC031092AF031092AE031092B1034D
:104520001092B0031092B3031092B2031092B5032D
:104530001092B4031B8E1A8ECE010E94B21381E139
:104540008093A8031D8281E08C831F861E860E94B3
:10455000FD1D6093E3027093E4028093E502909363
:10456000E602DF91CF9108950F931F93CF93DF93CE
:104570008230910510F482E090E0E0917004F091B7
:10458000710420E030E0A0E0B0E0309719F1408104
:1045900051810281138148175907C8F08417950784
:1045A00069F4109731F012960C93129713961C939E
:1045B00027C0009370041093710422C021153105A7
:1045C00019F04217530718F49A01BD01EF01DF01FA
:1045D000F801DBCF21153105F9F0281B390B243008
:1045E000310580F48A819B816115710521F0FB0101
:1045F0009383828304C09093710480937004FE01BE
:10460000329644C0FE01E20FF31F81939193225032
:104610003109398328833AC020916E0430916F04A8
:10462000232B41F4209106013091070130936F0450
:1046300020936E042091040130910501211531056C
:1046400041F42DB73EB74091080150910901241B58
:10465000350BE0916E04F0916F04E217F307A0F4BC
:104660002E1B3F0B2817390778F0AC014E5F5F4FC8
:104670002417350748F04E0F5F1F50936F04409387
:104680006E048193919302C0E0E0F0E0CF01DF91EE
:10469000CF911F910F910895CF93DF93009709F465
:1046A00081C0FC01329713821282A0917004B091F4
:1046B0007104109781F420813181820F931F209122
:1046C0006E0430916F042817390751F5F0936F0489
:1046D000E0936E0467C0ED0120E030E0CE17DF0705
:1046E00040F44A815B819E0141155105F1F0EA01D8
:1046F000F5CFD383C28340815181840F951FC817A2
:10470000D90759F488819981840F951F0296918366
:1047100080838A819B81938382832115310529F4CB
:10472000F0937104E09370043DC0E901FB83EA83D8
:1047300049915991C40FD51FEC17FD0761F4808191
:104740009181840F951F0296E90199838883828164
:1047500093819B838A83E0E0F0E012968D919C9197
:104760001397009719F0FD01DC01F7CF8D919C9113
:1047700011979D012E5F3F4F820F931F20916E0472
:1047800030916F042817390769F4309729F4109293
:1047900071041092700402C013821282B0936F04ED
:1047A000A0936E04DF91CF910895A0E0B0E0EBED0F
:1047B000F3E20C94F5295C016B017A016115710536
:1047C00019F0FB0191838083E114F10429F0C70102
:1047D0000297839708F0E5C0E5012196F501108165
:1047E000812F90E00E94E025892B11F05E01F4CF2B
:1047F0001D3229F42196F501118101E007C01B3219
:1048000021F4E5012296F501118100E0E114F104A3
:1048100009F1F0E1EF16F10429F43FC010E3E114CF
:10482000F10421F128E0E216F10401F154F4E2E090
:10483000EE16F10421F5812C912CA12CB0E4BB2EB5
:104840003EC0FAE0EF16F10439F020E1E216F1047F
:10485000B1F430C0103319F1FAE0EF2EF12CACECCA
:104860008A2E982CA82CACE0BA2E29C078E0E72E2E
:10487000F12C812C912CA12CE0E1BE2E20C060E017
:1048800070E080E090E897010F2C000C440B550B72
:104890000E94C72949015A0112C0103359F4888176
:1048A0008F7D883509F0BACF19812296026080E1A8
:1048B000E82EF12C812C912CA12C68E0B62E40E042
:1048C00060E070E0CB0127010F2C000C6608770830
:1048D000FE0150ED352E310E29E0231570F42FEB3B
:1048E000210F2A3118F439EC332E06C02FE9210F9D
:1048F0002A3118F529EA322E310E232D30E02E15FB
:104900003F05DCF447FD16C086169706A806B906D3
:1049100070F0A30192010E94B729630D711D811DE2
:10492000911D61307105810520E8920710F04FEF6D
:1049300001C041E021961081CBCF202F2170C114FE
:10494000D10471F0442329F02197F601D183C0836B
:1049500007C001FF19C02297F601D183C08314C09C
:1049600047FF12C0222329F060E070E080E090E869
:1049700004C06FEF7FEF8FEF9FE722E230E03093CC
:1049800073042093720409C0222381F090958095CE
:10499000709561957F4F8F4F9F4F462F372F282F50
:1049A00012C040E030E020E090E00DC097FFF5CF6E
:1049B00082E290E090937304809372046FEF7FEF34
:1049C0008FEF9FE7EACF642F732F822FCDB7DEB72B
:1049D000E1E10C94112AA0E0B0E0E1EFF4E20C94E4
:1049E000F5295C016B017A016115710519F0FB0174
:1049F00091838083E114F10429F0C7010297839722
:104A000008F0C9C0E5012196F5011081812F90E0E1
:104A10000E94E025892B11F05E01F4CF1D3229F4AC
:104A20002196F501118101E007C01B3221F4E50157
:104A30002296F501118100E0E114F104B1F0F0E1FA
:104A4000EF16F10429F4B0C010E3E114F10401F110
:104A50002AE0E216F104B1F180E1E816F10471F008
:104A6000E8E0EE16F104F1F413C0103341F588814B
:104A70008F7D883549F7198122960260F0E1EF2E8B
:104A8000F12C88248A94982CA82CAFE0BA2E20C050
:104A900078E0E72EF12C88248A94982CA82CEFE15A
:104AA000BE2E16C06FEF7FEFCB0197010F2C000CCD
:104AB000440B550B0E94C72949015A0109C08AE0DD
:104AC000E82EF12C69E9862E982CA82C69E1B62EE7
:104AD00040E060E070E0CB0127010F2C000C66087D
:104AE0007708FE0150ED352E310E29E0231570F4C4
:104AF0002FEB210F2A3118F439EC332E06C02FE9A1
:104B0000210F2A3130F529EA322E310E232D30E0E3
:104B10002E153F05F4F44F3FC9F086169706A806F8
:104B2000B90688F0A30192010E94B729232D30E035
:104B300040E050E0620F731F841F951F62177307D8
:104B40008407950710F44FEF01C041E021961081D2
:104B5000C8CFC114D10451F0442311F0219703C0F0
:104B600001FF04C02297F601D183C08300FF07C074
:104B700090958095709561957F4F8F4F9F4F4F3FD8
:104B800079F482E290E090937304809372043FEF93
:104B90002FEF9FEF0DC040E030E020E090E008C034
:104BA000462F372F282F04C0103309F067CF5FCF6F
:104BB000642F732F822FCDB7DEB7E1E10C94112A59
:104BC00091110C94CA27803219F089508550C8F78A
:104BD0000895ABE0B0E0EFEEF5E20C94F4296C013F
:104BE0007B018A01FC0117821682838181FFCCC17F
:104BF000CE0101963C01F6019381F70193FD859169
:104C000093FF81917F01882309F4BAC1853239F479
:104C100093FD859193FF81917F01853229F4B6013F
:104C200090E00E94E327E7CF912C212C312CFFE16B
:104C3000F315D8F08B3279F038F4803279F0833282
:104C4000A1F4232D20611DC08D3261F0803369F401
:104C5000232D216016C0832D8260382EE32DE46061
:104C60003E2E2AC0F32DF8601DC037FC2DC020ED6C
:104C7000280F2A3040F08E32B9F436FC81C1232D42
:104C80002064322E19C036FE06C08AE0989E200DA0
:104C90001124922E11C0EAE02E9E200D1124222E06
:104CA000F32DF0623F2E08C08C3621F4832D8068EE
:104CB000382E02C0883641F4F70193FD859193FFA9
:104CC00081917F018111B3CF982F9F7D95549330AF
:104CD00028F40C5F1F4F9FE399830DC0833631F09A
:104CE000833771F0833509F059C021C0F801808104
:104CF00089830E5F1F4F88248394912C530113C026
:104D00002801F2E04F0E511CF801A080B18036FE60
:104D100003C0692D70E002C06FEF7FEFC5010E94F4
:104D2000D8274C018201F32DFF773F2E16C02801B2
:104D300022E0420E511CF801A080B18036FE03C073
:104D4000692D70E002C06FEF7FEFC5010E94CD2793
:104D50004C01F32DF0683F2E820133FC1BC0822DE5
:104D600090E088169906B0F4B60180E290E00E94C7
:104D7000E3272A94F4CFF50137FC859137FE819122
:104D80005F01B60190E00E94E32721102A9421E000
:104D9000821A91088114910471F7E8C0843611F0E9
:104DA000893641F5F80137FE07C060817181828143
:104DB00093810C5F1F4F08C060817181072E000C2A
:104DC000880B990B0E5F1F4FF32DFF763F2E97FF39
:104DD00009C090958095709561957F4F8F4F9F4F3B
:104DE000F0683F2E2AE030E0A3010E941F28882EA1
:104DF000861845C0853731F4232D2F7EB22E2AE048
:104E000030E025C0932D997FB92E8F36C1F018F46C
:104E1000883579F0B5C0803719F0883721F0B0C0F7
:104E2000E92FE061BE2EB4FE0DC0FB2DF460BF2E55
:104E300009C034FE0AC0292F2660B22E06C028E021
:104E400030E005C020E130E002C020E132E0F801AE
:104E5000B7FE07C060817181828193810C5F1F4F13
:104E600006C06081718180E090E00E5F1F4FA3015A
:104E70000E941F28882E8618FB2DFF773F2E36FEB6
:104E80000DC0232D2E7FA22E891458F434FE0BC0A2
:104E900032FC09C0832D8E7EA82E05C0B82CA32C11
:104EA00003C0B82C01C0B92CA4FE0FC0FE01E80D50
:104EB000F11D8081803321F49A2D997EA92E09C09D
:104EC000A2FE06C0B394B39404C08A2D867809F07C
:104ED000B394A3FC11C0A0FE06C0B21488F4280C41
:104EE000922C9B180EC0B21460F4B60180E290E0E0
:104EF0000E94E327B394F7CFB21418F42B1802C022
:104F0000982C212CA4FE10C0B60180E390E00E94F2
:104F1000E327A2FE17C0A1FC03C088E790E002C00F
:104F200088E590E0B6010CC08A2D867859F0A1FE84
:104F300002C08BE201C080E2A7FC8DE2B60190E0E6
:104F40000E94E327891438F4B60180E390E00E94C0
:104F5000E3279A94F7CF8A94F301E80DF11D80813D
:104F6000B60190E00E94E3278110F5CF222009F4DA
:104F700042CEB60180E290E00E94E3272A94F6CF69
:104F8000F6018681978102C08FEF9FEF2B96E2E1B9
:104F90000C94102A992788270895FC0105906150E8
:104FA00070400110D8F7809590958E0F9F1F08953F
:104FB000FC016150704001900110D8F780959095E8
:104FC0008E0F9F1F08950F931F93CF93DF93FB01C5
:104FD000238121FD03C08FEF9FEF2CC022FF16C05D
:104FE00046815781248135814217530744F4A081BB
:104FF000B1819D012F5F3F4F318320838C932681A8
:1050000037812F5F3F4F3783268314C08B01EC011C
:10501000FB010084F185E02D0995892BE1F6D8018B
:1050200016968D919C911797019617969C938E9347
:105030001697CE01DF91CF911F910F910895FA013C
:10504000AA27283051F1203181F1E8946F936E7FC7
:105050006E5F7F4F8F4F9F4FAF4FB1E03ED0B4E0B8
:105060003CD0670F781F891F9A1FA11D680F791FF9
:105070008A1F911DA11D6A0F711D811D911DA11D0A
:1050800020D009F468943F912AE0269F112430191A
:10509000305D3193DEF6CF010895462F4770405DB5
:1050A0004193B3E00FD0C9F7F6CF462F4F70405D64
:1050B0004A3318F0495D31FD4052419302D0A9F7BF
:1050C000EACFB4E0A6959795879577956795BA95B9
:1050D000C9F700976105710508959B01AC010A2E7F
:1050E00006945795479537952795BA95C9F7620F56
:1050F000731F841F951FA01D08950E94BF2808F4E8
:1051000081E00895E89409C097FB3EF4909580955E
:10511000709561957F4F8F4F9F4F9923A9F0F92F7D
:1051200096E9BB279395F695879577956795B795FB
:10513000F111F8CFFAF4BB0F11F460FF1BC06F5FE1
:105140007F4F8F4F9F4F16C0882311F096E911C0F3
:10515000772321F09EE8872F762F05C0662371F014
:1051600096E8862F70E060E02AF09A95660F771F28
:10517000881FDAF7880F9695879597F90895990F04
:105180000008550FAA0BE0E8FEEF16161706E80711
:10519000F907C0F012161306E407F50798F0621B32
:1051A000730B840B950B39F40A2661F0232B242B07
:1051B000252B21F408950A2609F4A140A6958FEF26
:1051C000811D811D08950E94F6280C9467290E9474
:1051D000592938F00E94602920F0952311F00C9491
:1051E00050290C94562911240C949B290E9478294B
:1051F00070F3959FC1F3950F50E0551F629FF0012A
:10520000729FBB27F00DB11D639FAA27F00DB11D42
:10521000AA1F649F6627B00DA11D661F829F2227CB
:10522000B00DA11D621F739FB00DA11D621F839F52
:10523000A00D611D221F749F3327A00D611D231F28
:10524000849F600D211D822F762F6A2F11249F5776
:1052500050409AF0F1F088234AF0EE0FFF1FBB1F79
:10526000661F771F881F91505040A9F79E3F510538
:1052700080F00C9450290C949B295F3FE4F3983EF6
:10528000D4F3869577956795B795F795E7959F5FE2
:10529000C1F7FE2B880F911D9695879597F9089574
:1052A00097F99F6780E870E060E008959FEF80ECD9
:1052B000089500240A94161617061806090608957C
:1052C00000240A9412161306140605060895092EE2
:1052D0000394000C11F4882352F0BB0F40F4BF2B51
:1052E00011F460FF04C06F5F7F4F8F4F9F4F089591
:1052F00057FD9058440F551F59F05F3F71F0479587
:10530000880F97FB991F61F09F3F79F0879508956B
:10531000121613061406551FF2CF4695F1DF08C08A
:10532000161617061806991FF1CF869571056105A7
:1053300008940895E894BB2766277727CB0197F94F
:105340000895F999FECF92BD81BDF89A992780B54D
:105350000895262FF999FECF1FBA92BD81BD20BDB9
:105360000FB6F894FA9AF99A0FBE01960895DB01E8
:105370008F939F930E94E929BF91AF91A29F800DC7
:10538000911DA39F900DB29F900D11240895A1E24D
:105390001A2EAA1BBB1BFD010DC0AA1FBB1FEE1FAF
:1053A000FF1FA217B307E407F50720F0A21BB30BFA
:1053B000E40BF50B661F771F881F991F1A9469F776
:1053C00060957095809590959B01AC01BD01CF01D2
:1053D00008950E942B2AA59F900DB49F900DA49F25
:1053E000800D911D112408952F923F924F925F924C
:1053F0006F927F928F929F92AF92BF92CF92DF92E5
:10540000EF92FF920F931F93CF93DF93CDB7DEB749
:10541000CA1BDB0B0FB6F894DEBF0FBECDBF0994DD
:105420002A88398848885F846E847D848C849B8434
:10543000AA84B984C884DF80EE80FD800C811B8142
:10544000AA81B981CE0FD11D0FB6F894DEBF0FBE71
:10545000CDBFED010895A29FB001B39FC001A39FEE
:10546000700D811D1124911DB29F700D811D11249D
:10547000911D0895991B79E004C0991F961708F0B3
:10548000961B881F7A95C9F780950895AA1BBB1BA8
:1054900051E107C0AA1FBB1FA617B70710F0A61B34
:1054A000B70B881F991F5A95A9F780959095BC0155
:1054B000CD01089597FB072E16F4009407D077FDD1
:1054C00009D00E94462A07FC05D03EF490958195AC
:1054D0009F4F0895709561957F4F0895052E97FB16
:1054E0001EF400940E94852A57FD07D00E94C72908
:1054F00007FC03D04EF40C94852A509540953095C6
:1055000021953F4F4F4F5F4F08959095809570952F
:1055100061957F4F8F4F9F4F08950E942B2AB7FFB1
:105520000895821B930B0895EE0FFF1F0590F491D1
:10553000E02D09945058BB27AA270E94B22A0C9448
:1055400067290E94592938F00E94602920F039F417
:105550009F3F19F426F40C9456290EF4E095E7FBCE
:105560000C945029E92F0E94782958F3BA17620742
:1055700073078407950720F079F4A6F50C949A290F
:105580000EF4E0950B2EBA2FA02D0B01B90190015E
:105590000C01CA01A0011124FF27591B99F0593FA2
:1055A00050F4503E68F11A16F040A22F232F342FEA
:1055B0004427585FF3CF469537952795A795F04038
:1055C0005395C9F77EF41F16BA0B620B730B840B4D
:1055D000BAF09150A1F0FF0FBB1F661F771F881F05
:1055E000C2F70EC0BA0F621F731F841F48F487955D
:1055F00077956795B795F7959E3F08F0B0CF93954F
:10560000880F08F09927EE0F9795879508950E94C7
:105610000E2B6894B1110C949B2908950E94802947
:1056200088F09F5798F0B92F9927B751B0F0E1F063
:10563000660F771F881F991F1AF0BA95C9F714C013
:10564000B13091F00E949A29B1E008950C949A2902
:10565000672F782F8827B85F39F0B93FCCF386954C
:1056600077956795B395D9F73EF4909580957095A9
:1056700061957F4F8F4F9F4F08950E94BF2808F478
:105680008FEF089581E090E0F8940C94B72B91117E
:105690000C94CA2780538A5028F0865C8062815619
:1056A0008650B0F70895FC014150504030F0019011
:1056B0000616D1F73197CF010895882799270895C5
:1056C0006817790768F4FB01DC01E40FF51FA40FEC
:1056D000B51F02C002900E9241505040D8F7089575
:1056E0000C94AE2BFB0151915523A9F0BF01DC01B5
:1056F0004D9145174111E1F759F4CD01019000207A
:1057000049F04D9140154111C9F3FB014111EFCF13
:1057100081E090E001970895AEE0B0E0E2E9FBE2BD
:105720000C94022A0D891E8986E08C831A830983D2
:105730008FEF9FE79E838D83AE01475E5F4F6F893A
:10574000788DCE0101960E94E925EF81F885E00F62
:10575000F11F10822E96E4E00C941E2AFB01DC015E
:1057600002C001900D9241505040D8F70895F8942E
:02577000FFCF69
:10577200411B411B000074042000FFFFFFFF0000DB
:105782000000B91B421B701B061CA11B7F1B931B35
:105792004D730044003B4325583B5325583B005270
:1057A20025583B004D53005025693D25693B004477
:1057B2003D002564003B43503D25693B53503D2548
:1057C200693B00523D25693B004F006D25693B0056
:1057D2004D43003B4C4C3D25693B4C483D256900FF
:1057E2003B534C3D25693B53483D25693B002530E1
:1057F20032580025303158003B433D25693B4C3D32
:1058020025693B004D75003B4325583B004D550033
:105812003B43503D25693B004F4B000D0A004D7242
:105822006564006D636D626C3D0020626974732073
:10583200736574002061646444617461206F666CF6
:105842006F772D3E00206D73746172743D00206D80
:10585200656E643D002076616C3D00206D73676C5F
:10586200656E3D0020627974633D002076616C6351
:105872003D00206D5472756E633D00207374617437
:0E588200653D0020737563636573733D000020
:00000001FF
