:100000000C94C4000C94D81C0C94B11C0C94EC00FF
:100010000C94EC000C94EC000C94EC000C94EC00B0
:100020000C94EC000C94EC000C94EC000C94EC00A0
:100030000C94EC000C94A31B0C94EC000C94EC00BE
:100040000C94E31E0C94EC000C94251D0C94FF1CE6
:100050000C94EC000C94EC000C94EC000C94EC0070
:100060000C94EC000C94EC00746F206C6F6E6720A5
:1000700000636F72727570740073656E6420636DD7
:1000800064200000000000250028002B0004040468
:100090000404040404020202020202030303030331
:1000A000030102040810204080010204081020010E
:1000B00002040810200000000800020100000304F0
:1000C000070000000000000000436F6D6D616E646A
:1000D00020746F206C6F6E673A20004D43004D55C1
:1000E000003B003D004D530020626974732073652E
:1000F0007400556E737570706F72746564207368E8
:100100006F727420636F6D6D616E6400202D2063CB
:100110006F6D70696C656420617420446563203183
:100120003520323032302031313A32333A323800F1
:100130005620332E352E302D6465762B32303230FA
:1001400031323037205349474E414C6475696E6FE8
:100150002000200020557365206F6E65206F66209B
:1001600000496E697420656570726F6D20746F2030
:1001700064656661756C747320616674657220666F
:100180006C6173680000C22211241FBECFEFD8E05B
:10019000DEBFCDBF12E0A0E0B1E0E0E3F3E502C0D6
:1001A00005900D92A830B107D9F724E0A8E0B2E09D
:1001B00001C01D92AE35B207E1F710E0C4ECD0E00B
:1001C00004C02197FE010E949528C33CD107C9F7BE
:1001D0000E94451F0C9496290C9400002F923F9288
:1001E0004F925F926F927F928F929F92AF92BF9247
:1001F000CF92DF92EF92FF920F931F93CF93DF93F3
:10020000CDB7DEB7C855D1090FB6F894DEBF0FBE23
:10021000CDBF9E012F5F3F4F38A72FA386E1D901A5
:100220001D928A95E9F7809191032091E102811155
:1002300004C0283210F40C94370E1092E40291E0BE
:100240002E3F09F090E09093E60240E060E08111DB
:100250003CC281ED92E00E942C13B12C8B2C912C8E
:10026000B0918E03BDA78B2F90E001978816990659
:100270000CF010C1F401EF52FD4FCF01069626811C
:10028000222309F405C1AA24A394AB0C9401220FE4
:10029000331FF901E258FC4FFEA7EDA798AB8FA7DB
:1002A000FAABE9AB80918E03A81608F0F1C0EA2CF6
:1002B000F12C97012F523D4F1901D90116968C91BF
:1002C000882309F4E3C0EDA5FEA5C080D180F70125
:1002D000EE0FFF1FE258FC4F00811181C6018027FD
:1002E000912797FDD3C040907A0350907B03609094
:1002F0007C0370907D03B80117FF04C06627772741
:10030000601B710B072E000C880B990B0E94852631
:10031000A30192010E94E4266BAB7CAB8DAB9EAB3C
:10032000B601D7FE04C0662777276C197D09072E12
:10033000000C880B990B0E948526A30192010E9454
:10034000E4269B01AC016BA97CA98DA99EA90E9402
:100350009C2820E030E040E05FE30E94E4260E9419
:1003600008290C191D0917FF03C0119501951109E2
:10037000601771070CF48AC0D12CC12C81010A5F6F
:100380001F4F8091E102D81608F048C0D8018C9127
:10039000C81608F043C06D2D70E083EF92E00E9414
:1003A000A81280917903082E000C990BE816F90623
:1003B00099F580917503482F50E0D89EC001112413
:1003C000FC0123E0F695E7952A95E1F72091780363
:1003D000E21708F587709927FF27EF52FD4F20910C
:1003E000760330E0082E02C0359527950A94E2F78F
:1003F000209532A1232368E070E0641B750BDB01BC
:10040000A81BB90BA40102C0440F551FAA95E2F71F
:10041000CA01822B82A3C394D394B3CFAFA5B8A94A
:10042000CC90F101D680E9A9FAA9A081B181870118
:10043000000F111F02581C4FF801E080F180EC2DD5
:10044000F0E09F010E948E282B013C014D2D50E0D1
:100450009A01D7010E948E28640D751D861D971D77
:10046000E40FF51F9F01FF0F440B550B0E946F28EF
:10047000A9A9BAA92D933C93DC0CEFA5F8A9D082C9
:10048000D10116961C92F80111821082A3940ACF12
:10049000B394E4CE1092EA021092E9028FEF8093B7
:1004A000D102F091E102FFA72F2F30E03AAB29AB48
:1004B000B1EDCB2EB2E0DB2E1EE7212E13E0312E64
:1004C000E12CF12C0FEF1FEF4901330FAA08BB08F5
:1004D0004DA5E41608F059C00F3F5FEF150701F571
:1004E000D1018D919C9197FD1BC0F601668170E052
:1004F00080E090E00E9485262B013C01C501B401FB
:100500000E9485262BE734E14EE25EE30E94E4265A
:100510009B01AC01C301B2010E943E29181654F19F
:10052000D1018D919C9197FD26C0F801EE0FFF1F20
:10053000E258FC4F2081318182179307E4F4F601E1
:10054000668170E080E090E00E9485262B013C01EE
:10055000C501B4010E9485262BE734E14EE25EE33B
:100560000E94E4269B01AC01C301B2010E943E2916
:1005700018160CF48701FFEFEF1AFF0A2FEFC21ACB
:10058000D20A32E0230E311CA3CF0F3F4FEF1407E6
:1005900041F00093D10281E090E09093EA028093D1
:1005A000E9028091E9029091EA02019709F091C075
:1005B0008091D402882309F48CC069A97AA9663A8B
:1005C00071051CF40FA5085201C00DE71DA51150BF
:1005D00076E0D72E1F3F09F475C0E12E012E000CE6
:1005E000FF08F701EE0FFF1FE258FC4F2081318119
:1005F00037FF66C0319521953109283672E43707F7
:100600000CF05EC0E091D102EE0FFF0BE258FC4F00
:100610000190F081E02DC901BF010E9447286D3291
:10062000710508F04DC0DE9EC001DF9E900D1124C3
:100630008217930708F044C0F701EF52FD4FF68090
:100640006F2D70E080E090E00E9485264B015C01F8
:100650006091E10270E080E090E00E9485262AE04F
:1006600037ED43EA5DE30E94E4269B01AC01C5013E
:10067000B4010E947E2687FF23C081E08F1500F51C
:10068000E12CF12CE016E0F457019FEFA91AB90A0A
:10069000B50183EF92E00E94A812809179031813AC
:1006A0000C94830EB70183EF92E00E94A812909100
:1006B00079038091D10298130C94830E0C94860ECA
:1006C000115088CF1093900304C081ED92E00E94F6
:1006D0002C138091E9029091EA02029709F012C26C
:1006E0008091E102883208F40DC28091E2028E5FAF
:1006F0008093E30210E06091E30270E08091E102F8
:1007000090E0019768177907ACF46F5F7F4F83EF34
:1007100092E011110C9423100E94A8129091790379
:1007200080919003981311E08091E3028E5F809393
:10073000E302E1CF10E08091E1029091E30289179A
:1007400010F48093E3024091E3026091E20281EDB4
:1007500092E00E942C136091E202112371F08091CB
:10076000E30290E0861B9109889794F481E090E081
:100770009093EA028093E902C5C18091E1028E3F25
:1007800008F0AAC190E0861B910988970CF4A4C1D7
:1007900062E081ED92E00E94831B8091D502882364
:1007A00009F4BDC068E271E081ED92E00E94551B42
:1007B000F12C80918E03F816C8F58F2D90E0FC0186
:1007C000EE0FFF1FE258FC4F00811181011511054A
:1007D00059F1FC01EF52FD4F8681882329F16F2DDD
:1007E00017FF05C0606A11950195110901C0606885
:1007F000E02E07FD04C0A02FA068EA2E01C06061B2
:1008000081ED92E00E94831B6E2D81ED92E00E94AB
:10081000831B612F606881ED92E00E94831B6BE374
:1008200081ED92E00E94831BF394C3CF8091E30299
:1008300080FF02C064E401C064E681ED92E00E94A2
:10084000831BE091E202E0FF1CC0E150E093E20272
:10085000E69580917803E81728F4F0E0EF52FD4F19
:1008600082A101C080E08F7080688DA7682F81ED24
:1008700092E00E94831B8091E2028E5F8093E202ED
:1008800001C01DA61091E2028091E302811790F051
:10089000E12FE69580917803E81728F4F0E0EF5215
:1008A000FD4FB2A1BDA76DA581ED92E00E94831B13
:1008B0001E5FEACF6CE271E081ED92E00E94551B71
:1008C0006091D102605D81ED92E00E94831B6FE236
:1008D00071E081ED92E00E94551B60919003605D94
:1008E00081ED92E00E94831B6BE381ED92E00E9418
:1008F000831B84E993E00E94441B8111ABC062E535
:1009000081ED92E00E94831B8091930390E00E940E
:100910002D1F6BE381ED92E00E94831B9BC062E37D
:1009200071E081ED92E00E94551B10E080918E03F2
:100930001817B8F5812F90E09C01220F331FF901A1
:10094000E258FC4F7F0120813181232B41F1FC01D2
:10095000EF52FD4F8681882311F160E581ED92E031
:100960000E94831B60E3610F81ED92E00E94831B74
:100970006DE381ED92E00E94831BBE016F5F7F4FAC
:10098000D7018D919C910E94111BBC0181ED92E0D9
:100990000E94551B6BE381ED92E00E94831B1F5F59
:1009A000C5CF6DE571E081ED92E00E94551B10917D
:1009B000E2028091E302811778F0612F70E083EF0B
:1009C00092E00E94A81260917903605D81ED92E04F
:1009D0000E94831B1F5FEDCF66E371E081ED92E023
:1009E0000E94551B6091D102605D81ED92E00E94F2
:1009F000831B6BE371E081ED92E00E94551B6091D7
:100A00009003605D81ED92E00E94831B6BE381EDBA
:100A100092E00E94831B84E993E00E94441B8111B1
:100A200018C060E471E081ED92E00E94551B809156
:100A30009303BE016F5F7F4F90E00E94111BBC01CA
:100A400081ED92E00E94551B6BE381ED92E00E94E4
:100A5000831B1DA68091E602882331F063E471E0D8
:100A600081ED92E00E94551B1092E5026091E30235
:100A70008091E10290E0861B91098897FCF08091BB
:100A8000D6028823D9F081508093D6026F5F81ED22
:100A900092E00E94EC191092E2026DE681ED92E084
:100AA0000E94831B6091D602605D81ED92E00E94FE
:100AB000831B6BE381ED92E00E94831B63E081ED79
:100AC00092E00E94831B6AE081ED92E00E94831B0A
:100AD00081E08093E40217C0662369F08091E3020D
:100AE00090E08D3F91053CF081ED92E00E94EC1981
:100AF0001092E20207C081ED92E00E94A71381E00C
:100B00008093E4021DA68091E402811153C7809175
:100B1000D202B091D3022696BFAF2697811104C0AE
:100B2000BB2311F40C94370E2696EFAD2697EE23D7
:100B300009F440C78091DF029091E002892B39F5DA
:100B400085E490E00E944623FC0182E380AF81E0CF
:100B500085AB108212AA14AA13AA87E087AB80E89B
:100B600086AB8FEF84AF85AF86AF87AFDF01AD5B1C
:100B7000BF4F1C9211961C9281ED92E093AF82AF11
:100B800014971D921C92F093E002E093DF02809193
:100B90009103882311F10091DF021091E002D80146
:100BA000DA96ED91FC91DB97148A118ADA96ED9131
:100BB000FC91DB97E054FF4F1082512C5801B4E4B4
:100BC000AB0EB11C442443943801E2E46E0E711C58
:100BD0001801F3E42F0E311CB3C12090DF023090D6
:100BE000E0028FEFD101DC968C93DC97DD968C933D
:100BF000DD97DF968C93DF97DE968C93DE97F1017D
:100C0000ED5BFF4F10823196108234971182108273
:100C1000F101108212AA14AA13AA87E087ABEE5B37
:100C2000FF4F809192038083DA960D911C91DB97A0
:100C3000F801E354FF4FF080B3E0BF1508F0BAC6E7
:100C4000F801608970E080E090E00E9485262AE04B
:100C500037ED43E25DE30E94E4264B015C0120E0B6
:100C600030E0A9010E943E2920E030E040E05FE34F
:100C700087FD05C0C501B4010E949C2804C0C501C0
:100C8000B4010E949B280E9408295801F6E0AF0E8B
:100C9000B11CF801E355FF4F1AAE70E0D5018D91FC
:100CA0005D01861788F1EAAC8E2D90E0EE2009F107
:100CB00026E130E02C0F3D1F280F391FD901DC90B1
:100CC00098012D0D311D2D0D311D23553F4F4081B4
:100CD0005181D9012D913C914217530754F427E1DA
:100CE00030E02C0F3D1F820F931FDC01DC92EA9451
:100CF000DBCF27E130E02C0F3D1F820F931FDC017B
:100D00007C93BAADBF5FBAAF7F5F3296F712C6CFA2
:100D1000FE017796F8A7EFA32596FFAFEEAF2597D4
:100D200040910A0150910B0160910C0170910D01ED
:100D300060964CAF5DAF6EAF7FAF6097B1016E5BF9
:100D40007F4F62967FAF6EAF6297C1018D5B9F4F01
:100D50009CAF8BAFD101AC5BBF4F6996BFAFAEAF5D
:100D600069973C96FCA7EBA7FFA16796FFAF679733
:100D700024968FAD24978F1B3AAD831708F01AC6BF
:100D8000D101DA964C91DA97DB963C91DB97259668
:100D9000EEADFFAD259721912596FFAFEEAF2597DC
:100DA000842F932F820F911D820F911DFC01E3551B
:100DB000FF4F8081918118161906B4F68FEFDC96EB
:100DC0008C93DC97DD968C93DD97DF968C93DF9781
:100DD000DE968C932081318138AB2FA7B901330F78
:100DE000880B990B0E9485262A966CAF7DAF8EAF3B
:100DF0009FAF2A972DEC3CEC4CE45EE30E94E42686
:100E00000E94082964967FAF6EAF64978FA598A95A
:100E100097FD0196AC015595479566965FAF4EAF2D
:100E20006697BE01695E7F4F21967FAF6EAF2197B7
:100E30001EAE8FEF9FEF99AF88AF1DAEDE015F96BC
:100E4000BAA7A9A74E01B7E28B0E911C2196EEAD71
:100E5000FFAD2197D1902196FFAFEEAF2197D10141
:100E6000DA963C91DA97DB962C91832F922F8D0D99
:100E7000911D8D0D911DFC01E355FF4F00811181E6
:100E8000780117FF04C0EE24FF24E01AF10A6696E9
:100E90008EAD9FAD66978E199F0997FF03C0919500
:100EA000819591096496EEADFFAD6497E817F90757
:100EB000E4F42DEC3CEC4CEC5EE32A966CAD7DAD9D
:100EC0008EAD9FAD2A970E94E4260E9408298FA527
:100ED00098A98E199F0997FF03C091958195910953
:100EE000681779070CF01EC718C01016110614F009
:100EF0000C941210D101DE96DC92FDADFF5FFDAFC8
:100F000028AD39AD200F311F39AF28AFD101DC96A4
:100F10008C91DC978F3F09F0E3C38FAD6796EFADFF
:100F200067978E1BFAAD8F1708F490CF1DCFD501B0
:100F30008C91882379F0F501808181110DC1539442
:100F4000D801DA96CD90DC90DB97F60180895816AF
:100F500070F3C5C2E52CF12CB701C60182960E9440
:100F6000A812F601E855FF4F808190E0F80124AD0A
:100F7000022E000C330B8217930739F025AD022E99
:100F8000000C330B82179307B1F6D801DA96CD9097
:100F9000DC90DB97B701C60182960E94A812F60189
:100FA000E855FF4F8080F80195AC81E0891001C0C1
:100FB00080E080930802D801DA96CD90DC90DB9730
:100FC000B70161507109C60182960E94A812F6010C
:100FD000E855FF4F8081F5014082D801DA96ED9106
:100FE000FC91DB97518A552009F4B0C090E089103C
:100FF00026C0DF962C91DF97022E000C330B821750
:10100000930709F43FC0DA962D913C91DB97FC01E0
:10101000EE0FFF1FE20FF31FE355FF4FDC968C919D
:10102000A82FAA0FBB0BA20FB31FA355BF4F208140
:1010300031818D919C912817390724F129C0F8013D
:1010400026AD022E000C330B82179307D9F022AD88
:1010500033ADFC01EE0FFF1FE20FF31FE355FF4F0F
:10106000D801DD968C91A82FAA0FBB0B2A0F3B1F2E
:10107000D901A355BF4F208131818D919C91821759
:10108000930734F481E0891080E08093080208C05F
:10109000D801DA96ED91FC91DB9781898F5F818B86
:1010A00060910802C8010E94E612FF24FA94F50C30
:1010B000B1E0BF1508F043C0F80182AC93ACCF2C6F
:1010C000D12CB601C40182960E94A812F401E85501
:1010D000FF4F808190E0D801DF962C91DF97022EA0
:1010E000000C330B8217930741F0DE962C91022EF1
:1010F000000C330B8217930711F5F80182AC93AC07
:10110000B60161507109C40182960E94A812F401CF
:10111000E855FF4F808190E0D801DF962C91022E98
:10112000000C330B8217930709F499C6F80126AD1A
:10113000022E000C330B8217930709F490C6D801D6
:10114000DA96ED91FC91DB975188F5CE81E089101C
:1011500080E080930802EFCED801DA96CD90DC9043
:10116000DB97E52CF12CB701C60182960E94A812EC
:10117000F601E855FF4FC080D12CF80184AD082E50
:10118000000C990B82AC93ACC816D90609F4EDC6D5
:1011900085AD082E000C990BC816D90609F4E5C6D2
:1011A000B7016F5F7F4FC40182960E94A812F401BD
:1011B000E855FF4F208180910802811119C0D801A4
:1011C000DA96ED91FC91DB97808990E00297E81622
:1011D000F9067CF5DF968C91DF97082E000C990BB1
:1011E0008C159D0531F5422F50E0DE968C911AC08A
:1011F0008130F9F4D801DA96ED91FC91DB97808982
:1012000090E00297E816F906A4F4DE968C91DE973A
:10121000082E000C990B8C159D0559F4422F50E0B7
:10122000DF968C91082E000C990B4817590709F48A
:101230004AC1F3018081082E000C990BD801D39686
:101240004D915C91D4974817590764F4F1011082CD
:10125000D5011C92F801108212AA14AA13AA27E041
:1012600027AB31C1D801DA96ED91FC91DB97528A18
:10127000DA96AD90BC90DB97BDEF5B1213C0F50121
:10128000808990E00197E816F90661F4E054FF4F79
:1012900081E0808384E090E0D50159969C938E9301
:1012A000589775C0D801DC96EC91DC97EE0FFF0BD8
:1012B000EA0DFB1DE355FF4F40815181F601EE0F12
:1012C000FF1FEA0DFB1DE355FF4F60817181F501A2
:1012D000808964177507E4F4682F70E06150710924
:1012E000E616F706ACF4E22FF0E0DD966C91DD97A0
:1012F000062E000C770BE617F70709F46EC6DE968C
:101300006C91062E000C770BE617F70709F465C6FB
:1013100090E00297E816F906D4F5D801DF968C9193
:10132000DF97082E000C990BC816D90641F0DE96FF
:101330008C91082E000C990BC816D90641F5C501F1
:10134000820F911D820F911DFC01E355FF4F80819B
:10135000918184179507DCF4B7016E5F7F4FC5015B
:1013600082960E94A812F501E855FF4F808190E017
:10137000F80124AD022E000C330B8217930709F0FD
:1013800002C681E0850D511027C655245394652D62
:10139000D801DA968D919C91DB970E94EC19D801C7
:1013A000DA96ED91FC91DB97E054FF4F808181113B
:1013B0001FC6F3018081082E000C990BD3962D9146
:1013C0003C91D497281739070CF412C662E081EDDE
:1013D00092E00E94831B66E471E081ED92E00E943E
:1013E000551BE091DF02F091E002E4ADEE0FFF0B40
:1013F000E258FC4FBE016F5F7F4F808191810E9458
:10140000111BBC0181ED92E00E94551B6DE471E05F
:1014100081ED92E00E94551BE091DF02F091E00225
:10142000E5ADEE0FFF0BE258FC4FBE016F5F7F4F43
:10143000808191810E94111BBC0181ED92E00E948C
:10144000551B62E571E081ED92E00E94551BE09131
:10145000DF02F091E002E7ADEE0FFF0BE258FC4F28
:10146000BE016F5F7F4F808191810E94111BBC0183
:1014700081ED92E00E94551B67E571E081ED92E0FD
:101480000E94551BE091DF02F091E002E6ADEE0F05
:10149000FF0BE258FC4FBE016F5F7F4F808191814F
:1014A0000E94111BBC0181ED92E00E94551B6CE56E
:1014B00071E081ED92E00E94551B0091DF021091D6
:1014C000E002F12C5FC05394D5018C91882309F47C
:1014D00036CD60910802C8010E94E61230CDF601B7
:1014E000528AA8014E5B5F4FD801D3962D913C9153
:1014F000D497BEEF5B1220C0FA01808187FD8F5F19
:101500008595082E000C990BD801DA96ED91FC9187
:10151000DB978217930754F4DF01A054BF4F81E09B
:101520008C9384E090E0918F808F62C5CF018054CE
:101530009F4FDC011C92148AFA018081082E000C56
:10154000990B40CFF21658F5F801EC0DFD1D808186
:10155000282F30E064E0359527956A95E1F72A3029
:1015600000F1295C2F8B8F708A30E8F0895C888FBE
:10157000198EBE01695E7F4FF80182AD93AD0E9466
:10158000551BF394CF2CD12CD801D2968C91D297A5
:1015900090E0D8962C91C816D906A4F206C080E037
:1015A000D7CF205DDFCF805DE2CFF21628F4F801BF
:1015B000EC0DFD1D608101C060E062956F706A30C6
:1015C00010F0695C01C0605DD801DA968D919C9144
:1015D000DB970E94831BF80123A934A9C90168E0A5
:1015E00070E00E945B28059724F427703327232B93
:1015F000B1F4D801D8968C91F81628F4F801EC0DC6
:10160000FD1D608101C060E06F706A3010F0695CA0
:1016100001C0605DF80182AD93AD0E94831B60E65E
:1016200071E081ED92E00E94551BE091DF02F091A4
:10163000E002E05CFF4FBE016F5F7F4F80819181D0
:101640000E94111BBC0181ED92E00E94551B64E6D3
:1016500071E081ED92E00E94551BE091DF02F09174
:10166000E002BE016F5F7F4F83A994A90E94111B06
:10167000BC0181ED92E00E94551B6BE381ED92E08D
:101680000E94831B84E993E00E94441B811118C0CF
:1016900060E471E081ED92E00E94551B809193031C
:1016A000BE016F5F7F4F90E00E94111BBC0181ED76
:1016B00092E00E94551B6BE381ED92E00E94831B38
:1016C00063E081ED92E00E94831B6AE081ED92E08D
:1016D0000E94831B1092910381E08093E4026AC10F
:1016E000DF968C91DF978F3F09F417CCDD968C91B4
:1016F000DD978F3F09F411CCDE968C918F3F09F472
:101700000CCC60962CAD3DAD4EAD5FAD60972BA37C
:101710003CA34DA35EA32F8F38A349A35AA341E056
:1017200050E023965FAF4EAF2397A12CB12C1FEF53
:10173000D101DA96ED90FC90DB97F701808990E07B
:10174000A816B9060CF0E9CBB501C70182960E9434
:10175000A812F701E855FF4F0081802F90E0D101DA
:10176000DC962C91DC97022E000C330B821793072A
:1017700009F4DFC2DD962C91022E000C330B821788
:10178000930709F4D6C2D101DF962C91022E000CEA
:10179000330B8217930709F4CCC2F10126AD022E58
:1017A000000C330B8217930709F4C3C2D101DA96F8
:1017B000ED91FC91DB9781899501281B3109629697
:1017C000AEADBFAD62978C91082E000C990B8217BD
:1017D00093070CF0F1C2A28AF10182AD93ADDC0156
:1017E00052964C91529751966C910E942C13D101B4
:1017F000DA96ED91FC91DB97DE96BC91B9ABD10105
:10180000DD96BC91BBABD101DF960C91DF97DC96E6
:10181000BC91BFABDF0129A9A20FB11D27FDBA956D
:1018200016968C91DF013BA9A30FB11D37FDBA9528
:101830001696CC90D12CC80ED11CDF01A00FB11D83
:1018400007FDBA9516968C91C81AD108DF014FA9E9
:10185000A40FB11D47FDBA9516968C91ABADBCADEA
:101860001C92C81AD108D7FE03C0D194C194D108E4
:101870000D2C000CEE08FF088089E82FF0E02C9674
:10188000FFAFEEAF2C97BF01FF0F880B990B0E94A3
:1018900085262AE037ED43E25DE30E94E4262B0132
:1018A0003C0120E030E0A9010E943E2920E030E028
:1018B00040E05FE387FD4AC2C301B2010E949C2859
:1018C0000E9408296C157D058E059F050CF425CB1B
:1018D000FDAD2EADF21321CB3BA94FA9341709F46E
:1018E0001CCB59A9501709F418CB041709F415CBD0
:1018F000531709F412CB541709F40FCB301709F41E
:101900000CCBDE015F96FE01B39681919D91891308
:1019100022C28E169F06C9F78FA979A96AE0769F21
:10192000800D1124ABA99AE0A99F000D11248A30E3
:1019300008F48C590A3008F40C59AE01415E5F4F2F
:10194000FE01B3966F01E82EF12C602F70E0D601F6
:101950008D916D01082E000C990B8E159F0509F0D5
:1019600091C3CE014F96FE01B3962191022E000C39
:10197000330B2617370709F08EC3E815F90509F070
:101980009AC380E0C814D90409F4EBC14F5F5F4FDC
:101990008111DDCFF101E05CFF4F88AD99AD66E0CC
:1019A00070E00E945B28718360832696FFAD2697C6
:1019B000F111F1C88091D202882309F458C18091B5
:1019C0009103811154C18091E9029091EA0201973B
:1019D00009F04DC18091E402811188C18091E1023A
:1019E000883208F448C162E081ED92E00E94831BD6
:1019F0008091D502882309F48EC068E671E081EDFC
:101A000092E00E94551B40E060E081ED92E00E9470
:101A10002C13F12C80918E03F816C8F58F2D90E0D1
:101A2000FC01EE0FFF1FE258FC4F008111810115F0
:101A3000110559F1FC01EF52FD4F8681882329F1F0
:101A40006F2D17FF05C0606A11950195110901C03E
:101A50006068E02E07FD04C0F02FF068EF2E01C093
:101A6000606181ED92E00E94831B6E2D81ED92E01A
:101A70000E94831B612F606881ED92E00E94831BAE
:101A80006BE381ED92E00E94831BF394C3CF8091BE
:101A9000E10280FF07C064E681ED92E00E94831BB3
:101AA00010E012C064E4F8CF80917803181730F486
:101AB000E12FF0E0EF52FD4F22A12DA76DA581EDA2
:101AC00092E00E94831B1F5F80917203811760F771
:101AD0006CE271E081ED92E00E94551B6091D102B1
:101AE000605D81ED92E00E94831B6BE381ED92E0EB
:101AF0000E94831B84E993E00E94441B81119EC0D5
:101B000062E581ED92E00E94831B8091930390E057
:101B10000E942D1F8EC06CE671E081ED92E00E9464
:101B2000551B40E060E081ED92E00E942C1310E034
:101B300080918E031817C0F5812F90E09C01220F31
:101B4000331FA90142585C4F7A01DA012D913C9173
:101B5000232B41F1FC01EF52FD4F8681882311F1C7
:101B600060E581ED92E00E94831B60E3610F81EDEF
:101B700092E00E94831B6DE381ED92E00E94831B43
:101B8000BE016F5F7F4FF701808191810E94111B21
:101B9000BC0181ED92E00E94551B6BE381ED92E068
:101BA0000E94831B1F5FC4CF6DE571E081ED92E061
:101BB0000E94551B10E08091E102181778F4612F04
:101BC00070E083EF92E00E94A81260917903605D5B
:101BD00081ED92E00E94831B1F5FEDCF66E371E011
:101BE00081ED92E00E94551B6091D102605D81ED14
:101BF00092E00E94831B6BE381ED92E00E94831BC5
:101C000084E993E00E94441B811118C060E471E0F4
:101C100081ED92E00E94551B80919303BE016F5F9E
:101C20007F4F90E00E94111BBC0181ED92E00E9469
:101C3000551B6BE381ED92E00E94831B8091E602CD
:101C4000882331F063E471E081ED92E00E94551B3E
:101C500063E081ED92E00E94831B6AE081ED92E0F7
:101C60000E94831B1092E50281E08093E402809140
:101C7000E40281113BC08091E5028823D9F14091B3
:101C80008E03EEE7F3E080E090E020EDE22E27E027
:101C9000F22E841710F010E00CC021913191121631
:101CA000130624F42E153F050CF47C010196F1CFA8
:101CB0001F5F8091E1021817C8F4F0EDEF16F7E00E
:101CC000FF06A1F0612F70E083EF92E00E94A8125E
:101CD00080917903082E000C990BE816F90641F75C
:101CE0006FEF610F81ED92E00E94EC198091E502A7
:101CF0008111E7C11091E40281ED92E00E94A713E7
:101D00001093E402DEC175010C944203109390031A
:101D100082E090E09093EA028093E902E092E2028E
:101D20000C946903101611060CF089C1F101D5AEAF
:101D3000E4C8D101DA96ED91FC91DB97808990E0BF
:101D40000197A816B90609F048C030CDC301B20109
:101D50000E949B28B5CD9F3F39F08F3F09F0D9CD28
:101D600003C0882309F416CE2C962EAD3FAD2C97D8
:101D70002A193B096296EEADFFAD62978081082E6D
:101D8000000C990B821793070CF0C7C81BA31F8F79
:101D90001CA318A31DA319A31EA31AA35FEFA51AC2
:101DA000B50A23966EAD7FAD23976F5F7F4F239665
:101DB0007FAF6EAF2397BCCCABADBCAD1C92699628
:101DC000EEADFFAD699710821F8F1BA318A31CA354
:101DD00019A31DA31AA31EA3E1CFABADBCAD8C917B
:101DE000811103C0A18AE1E0EC93D101DA96ED9074
:101DF000FC90DB9723966EAD7FAD2397C70182964B
:101E00000E94A812F701E855FF4F8081BAE00B9FAE
:101E1000800D11248A3008F48C59A0FC03C02BA536
:101E20009CA502C029A59AA5E22FF92F90E0482F82
:101E300050E06081262F062E000C330B2417350747
:101E400019F06F3F19F48083292F01C02FEF9F5F96
:101E5000943009F4A3CF31962F3F59F39FCFE090F0
:101E60000802D801DA968D909C90DB97B1E0EB12D6
:101E70003AC0E2E0CE1AD108B601C40182960E94AF
:101E8000A812F401E855FF4F9081D801DF968C919C
:101E9000DF97981709F464C0DA968D909C90DB97D1
:101EA000B601C40182960E94A812F401E855FF4FC2
:101EB000A081AA0FBB0B8A0E9B1ED401A355BF4F56
:101EC000F80182AD93AD24ADE22FEE0FFF0BE80FCA
:101ED000F91FE355FF4F2D913C9180819181281787
:101EE0003907F4F13AC0E11038C0F2E0CF1AD10856
:101EF000B601C40182960E94A812F401E855FF4F72
:101F00009081D801DE968C91DE97981749F1DA9688
:101F10008D909C90DB97B601C40182960E94A81216
:101F2000F401E855FF4FA081AA0FBB0B8A0E9B1E40
:101F3000D401A355BF4FF80182AD93AD25ADE22F7B
:101F4000EE0FFF0BE80FF91FE355FF4F2D913C916A
:101F500080819181821793071CF0FA94FA94A8C8A3
:101F60006E2DC8010E94E612F8CFF401808990E03E
:101F70000197E816F9060CF013C980910802842530
:101F800080930802A1CA25AD022E000C330B8217E4
:101F9000930709F4F6C9C2ACD3ACB7016D5F7F4FAC
:101FA000C60182960E94A812F601E855FF4F808173
:101FB00090E0F80127AD022E000C330B8217930737
:101FC00009F4DFC9F80126AD022E000C330B82178D
:101FD000930709F0DCC9D5C9582E5394D801DA9675
:101FE000ED91FC91DB9784E090E0918F808FCFC9D9
:101FF00080919103882309F4DDCC8091E502811161
:102000006BCB1092F3021092720310927403109231
:10201000730387E0809377031092E10281E080935D
:10202000E502C8CCF101D7AE3EAD3F5F3EAF48AD53
:1020300059AD401B510B59AF48AF0C948607D101E5
:10204000DC96DC92F1CF0E94A812909179038091E6
:10205000900398130C9494036091E30270E083EF73
:1020600092E00E94A812909179038091D102981376
:102070000C9494038091E30281508093E30211E079
:102080000C949B03FA018081082E000C990BE81632
:10209000F90651F466CCDC012C91022E000C330BB6
:1020A0006217730719F469CC81E06CCCE815F90567
:1020B000D9F301965ACCC814D90409F46BCC80E04A
:1020C00065CCC85ADF4F0FB6F894DEBF0FBECDBF48
:1020D000DF91CF911F910F91FF90EF90DF90CF9004
:1020E000BF90AF909F908F907F906F905F904F9038
:1020F0003F902F900895FC01CB01642F0994FC01BF
:1021000009948F929F92AF92BF92CF92DF92EF92FB
:10211000FF928FB7F894C0902702D0902802E090E9
:102120002902F0902A028FBF80910B0290910C023D
:10213000A0910D02B0910E02C816D906EA06FB0660
:1021400048F48091090290910A02019690930A0244
:1021500080930902C0920B02D0920C02E0920D0211
:10216000F0920E02A0910902B0910A0227E339E829
:1021700041E450E00E94EA274B015C01C701B6012F
:1021800028EE33E040E050E00E94C827C501B401CA
:10219000620F731F841F951FFF90EF90DF90CF9009
:1021A000BF90AF909F908F900895E8988AEC9BE144
:1021B0009093010180930001E0EAF3E01182138221
:1021C00012820895CF93DF93DC01CD91DC911197BA
:1021D0001296ED91FC91139714962D913C911597C1
:1021E000C9019595879520FF0AC0DE01A80FB91F88
:1021F0002D913C91E20FF31F0190F081E02D8C0FA7
:102200009D1FDF91CF910994CF93C82F803120F487
:1022100080E090E00E94D81D6C2F70E080E090E09C
:1022200040E1CF910C94921D0F931F93CF938C019B
:10223000C62F80E392E00E94F91B892BD1F34C2F2B
:1022400050E0B80180E392E0CF911F910F910C9480
:10225000CB1B0F931F93F8940E94841E0091CD0214
:102260001091CE022091CF023091D002AB01BC017F
:10227000401B510B620B730B22E02093230281E081
:102280009DE7909322028093210290938700809390
:10229000860082E18093810041303DE7530761056C
:1022A000710588F14A9903C02FEF32E802C021E09E
:1022B0003DE78091A1038A35D8F48091A1038F5F17
:1022C0008093A1038091A2036091A0030E943B2808
:1022D0009093A203E091A203F0E0EE0FFF1FEC55F4
:1022E000FC4F318320838091A2038F5F8093A203F0
:1022F0000E94841E6093CD027093CE028093CF0221
:102300009093D00238C0413187E2580761057105CA
:1023100090F181E19DE7A0E0B0E0841B950BA60B56
:10232000B70B33E0880F991FAA1FBB1F3A95D1F74F
:10233000009731E0A307B10520F421E020932302A8
:1023400009C02093230223E0B695A795979587951A
:102350002A95D1F790932202809321028091210245
:1023600090912202909387008093860080912302AF
:1023700080618093810020912402E2ECF0E084915E
:10238000EEEAF0E09491EAE9F0E0E491EE2309F45A
:102390003CC0882339F1833091F038F48130A9F0C2
:1023A000823001F584B58F7D12C0873091F088307E
:1023B000A1F08430B9F4809180008F7D03C08091BA
:1023C00080008F77809380000DC084B58F7784BDA7
:1023D00009C08091B0008F7703C08091B0008F7DDD
:1023E0008093B000F0E0EE0FFF1FED57FF4FA59177
:1023F000B4913FB7F894211104C08C919095982323
:1024000002C0EC919E2B9C933FBF109224027894C3
:1024100080910F0291E0980F90930F02811104C0F8
:102420001F910F910C9481101F910F910895CF92DD
:10243000DF92EF92FF920F931F93F8940E94841EF5
:102440000091CD021091CE022091CF023091D002A6
:102450006B017C01C01AD10AE20AF30A97018601D6
:102460006093CD027093CE028093CF029093D002FE
:102470000A3511052105310578F181E0C8168DE78F
:10248000D806E104F10410F4960102C021E03DE712
:102490004A9B03C03195219531098091A1038A356A
:1024A000D8F48091A1038F5F8093A1038091A20350
:1024B0006091A0030E943B289093A203E091A203A5
:1024C000F0E0EE0FFF1FEC55FC4F3183208380912D
:1024D000A2038F5F8093A20378941F910F91FF90C6
:1024E000EF90DF90CF900895FC01848DDF01A80F5D
:1024F000B11DA35ABF4F2C91848D90E001968F732C
:102500009927848FA689B7892C93A089B1898C914A
:10251000837080648C93938D848D981306C0028899
:10252000F389E02D80818F7D808308950C94AA2704
:102530000C94A22787E192E190930101809300011E
:10254000E9E6F0E080818C7F81608083E89A0895DD
:10255000CF93DF93FC01EE57FF4F4081469FD001A0
:10256000479FB00D1124FD0123E0F695E7952A95CC
:10257000E1F7EC01CB57DF4F288130E0E217F3079A
:102580000CF52297288130E0A770BB2702C0359553
:102590002795AA95E2F7E80FF91F3081232330E051
:1025A00058E0541B469F402D11244770541B02C015
:1025B000359527955A95E2F7FC01EA57FF4F20839E
:1025C000822F01C08FEFDF91CF910895FC0187A981
:1025D0008730A9F423A934A91216130684F492A90A
:1025E000492F50E020AD30E0215031094217530708
:1025F0008CF59F5F92ABDF01A90FB11D1C9295A9CD
:10260000492F50E0282F30E02F5F3F4F241B350B20
:102610001216130624F401C0660F2A95EAF722A9C0
:10262000DF01A20FB11D2C91622B6C9323A934A959
:102630002F5F3F4F34AB23AB282F082E000C330BFA
:10264000241B350B37FD02C0891B01C087E087AB17
:1026500081E0089580E008950F931F93CF93DF9357
:10266000DC0150968C915097882309F46BC0FD01D2
:1026700036969D01225F3F4F11922E173F07E1F7DB
:10268000411101C0482F262F30E035952795E42FC2
:10269000F0E0F595E79560FF17C0ED01C955DF4FF4
:1026A0008881281728F4ED01C20FD31F9AA101C019
:1026B00090E0892F8F70ED01C80FD11D8E818F5F43
:1026C0008E832F5F3F4F01C090E08D0109551F4F52
:1026D000622F70E06E177F07F0F4E80188812817F9
:1026E00020F4ED01C60FD71F9AA1C92FD0E034E026
:1026F000D595C7953A95E1F7CA0FDB1F8E818F5F9D
:102700008E83892F8F70ED01C80FD11D8E818F5F51
:102710008E832F5FDDCF40FF15C0ED01C955DF4F20
:102720008881E81718F4EA0FFB1F92A1E92FF0E067
:1027300084E0F595E7958A95E1F7EA0FFB1F86811E
:102740008F5F8683DF91CF911F910F910895CF9373
:10275000DF93FC01DC01A354BF4F1C9211961C9225
:1027600012A25D971C92119611961C921E921496BD
:1027700087E08C93108A118E108E59968FEF8C9370
:102780008083EF01C355DF4FA95BB109CF010E96DE
:10279000199219921D92A817B907D1F7138A86E9E1
:1027A00090E0978B868BDF01A755BF4F40E050E04C
:1027B00060E87EE34D935D936D937C931397118A4C
:1027C000148A158A57961C92128A11A210A283E0CD
:1027D0008583DF91CF9108952F923F924F925F9220
:1027E0006F927F928F929F92AF92BF92CF92DF9221
:1027F000EF92FF920F931F93CF93DF93CDB7DEB786
:10280000C959D1400FB6F894DEBF0FBECDBF0E94AC
:10281000D510CF5FDE4F19821882C150D14081E0C0
:10282000C85EDE4F8883C851D140C75EDE4F198233
:102830001882C951D140C05DDE4F8883C053D1405A
:10284000CF5CDE4F19821882C153D140C85BDE4F86
:102850008883C854D140C75BDE4F19821882C9549F
:10286000D140C05ADE4F8883C056D140CF59DE4F89
:1028700019821882C156D140C858DE4F8883C85784
:10288000D1409E012F5F3F4F790180E091E0D90157
:10289000FC011D923197E9F7C758DE4F3983288331
:1028A000C957D140CC24CA9400E112E033243A94B1
:1028B000F1E0CA57DE4FF883C658D14068E1D62E02
:1028C0004E0193947CE0772EE3E06E2EF2E05F2ED3
:1028D00044244394D8018C91833509F045C0119666
:1028E0008C91833459F43394E1E0F1E0EC0FFD1F57
:1028F000D39CE00DF11D1124128219C08D3459F4BE
:102900003394E1E0F1E0EC0FFD1FD39CE00DF11DED
:10291000112442821EC0823581F43394E1E0F1E05B
:10292000EC0FFD1FD39CE00DF11D11245282CA57FC
:10293000DE4F1882C658D1400CC08E3451F4339407
:10294000E1E0F1E0EC0FFD1FD39CE00DF11D11243F
:10295000628231109DC043E050E060E172E080E3AC
:1029600092E00E94CB1B2CC0803599F5F801828142
:102970008D3309F08DC0818150EDB52EB80EF7E092
:10298000FB1508F485C04AE050E0BE0167587E4F51
:10299000C80103960E946724739CF0011124EB0D7B
:1029A000F11DEE0FFF1F21E031E02C0F3D1FE20F64
:1029B000F31F7087678331106BC0C8010E94721DBE
:1029C000C758DE4FF982E882C957D14000E010E0D5
:1029D0005FC08235C9F4D80111968C918D3309F00E
:1029E00057C04AE050E0BE0167587E4FC8010296CA
:1029F0000E947D25E1E0F1E0EC0FFD1FD39CE00D8E
:102A0000F11D1124678BD7CF843441F5F801818102
:102A10008D33F1F5AA24A394BA2CAC0EBD1ED39C21
:102A2000A00CB11C1124C8010296D50114969C93E8
:102A30008E931397A401401B510B4D5F5F4F6BE3C7
:102A400070E001960E945429C758DE4F998388830D
:102A5000C957D140F501968385831AC08334C1F4E8
:102A6000D80111968C918D3399F44AE050E0BE0163
:102A700067587E4FC80102960E947D25E1E0F1E093
:102A8000EC0FFD1FD39CE00DF11D112471836083B9
:102A9000C758DE4F88819981C957D1400817190757
:102AA00009F463C0E816F90639F00196C758DE4FFD
:102AB00099838883C957D140C758DE4F088119814F
:102AC000C957D140212CC758DE4FA880B980C957BB
:102AD000D140A20CB11CC758DE4FB982A882C95799
:102AE000D1400E94441E97FD0DC0F5018083C2189D
:102AF000C758DE4FE881F981C957D14080818B33B7
:102B000041F40FC089E790E00E94571D81E790E0F3
:102B10001AC08A3009F452C2CC2029F0222423940E
:102B2000D2CFC1101DC08BEA94E00197F1F78E015E
:102B300013950E94441E97FF09C089E790E00E9408
:102B4000571D88E690E00E94061E3CC28A3091051F
:102B5000A1F3D7018D937D01A017B10751F7EDCFF8
:102B600011820115110509F0B5CECD5FDE4F8881C8
:102B7000C350D140811113C0C85EDE4FB881C85127
:102B8000D140CF57DE4FB883C158D140B1110DC0ED
:102B9000E1E0CF57DE4FE883C158D14006C0F1E0F5
:102BA000CF57DE4FF883C158D140C957DE4F188246
:102BB000C758D140232D30E0CA56DE4F39832883D1
:102BC000C659D14081E091E08C0F9D1F38E1339DC3
:102BD000800D911D1124DC011296C856DE4FB98379
:102BE000A883C859D140212CB8E1B29DC00111245D
:102BF000E1E0F1E0EC0FFD1FE80FF91F2281223028
:102C000009F08AC0C558DE4F1882CB57D1409F01CA
:102C1000295E3F4FC358DE4F39832883CD57D140BB
:102C20000796A1E0B1E0AC0FBD1FA80FB91FC158B6
:102C3000DE4FB983A883CF57D14022513109CE57F7
:102C4000DE4F39832883C258D1408F010D5F1F4F5B
:102C5000C358DE4FA881B981CD57D1408C91C5585A
:102C6000DE4FB881CB57D140B81708F04FC1CE57CF
:102C7000DE4FE881F981C258D140A080B180D801EF
:102C8000CC901196DC900E94841E2B013C017601B1
:102C9000F701EA14FB0468F5BFEFEB1AFB0A808129
:102CA0008053C158DE4FE881F981CF57D140E80FFA
:102CB000F11DE80FF11D80809180640197FE04C032
:102CC000CC24DD24C818D9080E94841E641575051B
:102CD00086059705C8F397FE02C02B9801C02B9A72
:102CE000C601DD0CAA0BBB0B480E591E6A1E7B1ECB
:102CF000CFCF0E94841E6415750586059705C8F31D
:102D0000C558DE4FE881CB57D140EF5FC558DE4F45
:102D1000E883CB57D1409CCF213009F0F7C0C3588E
:102D2000DE4F1882CD57D1406F019F01295E3F4F82
:102D3000CE56DE4F39832883C259D140CF01059644
:102D4000CC56DE4F99838883C459D140DF01139656
:102D5000C857DE4FB983A883C858D140CE56DE4F3E
:102D6000E881F981C259D1408081C358DE4FF88192
:102D7000CD57D140F81708F0C9C0D6010D911C916C
:102D8000CC56DE4FE881F981C459D1400190F081E1
:102D9000E02DC657DE4FF983E883CA58D140C857A3
:102DA000DE4FA881B981C858D140EC901196FC90B3
:102DB0000E94841E4B015C01C558DE4FE882CB5750
:102DC000D140C458DE4FF882CC57D140C801110F12
:102DD000AA0BBB0BCE57DE4F88839983AA83BB8394
:102DE000C258D140880F991FAA1FBB1FC457DE4F7E
:102DF00088839983AA83BB83CC58D140C657DE4FC2
:102E0000A881B981CA58D140C558DE4FE881F981FF
:102E1000CB57D140EA17FB0708F06CC08191C55829
:102E2000DE4FF983E883CB57D1408A3314F097E320
:102E300001C090E3891B24E030E0C158DE4F3983A4
:102E40002883CF57D14008E0A82F880FBB0BC0576D
:102E5000DE4FB983A883C059D1402401350110E069
:102E6000E02EF12CC057DE4FE881F981C059D140E6
:102E7000EE22FF22111104C0E114F10421F405C077
:102E8000E114F10411F42B9801C02B9ACE57DE4FB8
:102E900088819981AA81BB81C258D140480E591EB0
:102EA0006A1E7B1E0E94841E6415750586059705A3
:102EB000C8F31F5F1230F1F6C457DE4F8881998145
:102EC000AA81BB81CC58D140880E991EAA1EBB1E78
:102ED0000695C158DE4FA881B981CF57D1401197CF
:102EE000C158DE4FB983A883CF57D140AB2B09F02F
:102EF000B4CF84CFC358DE4FB881CD57D140BF5F28
:102F0000C358DE4FB883CD57D14028CFC856DE4FC7
:102F1000E881F981C859D1408081833009F02B982C
:102F20002394321408F060CECA57DE4FF881C65899
:102F3000D140FF2331F061E070E080E090E00E943A
:102F4000A91EC957DE4F2881C758D1402F5FC957E6
:102F5000DE4F2883C758D140CF57DE4F3881C15844
:102F6000D140321340CECE0101960E94721D88E1FD
:102F7000CA56DE4FA881B981C659D1408A9FF00157
:102F80008B9FF00D112421E031E02C0F3D1FE20F4B
:102F9000F31F8281833059F081ED92E00E94A713E4
:102FA0001092A1031092A3031092A20304C080E721
:102FB00091E00E94841D0E949A1204C0CC2009F462
:102FC000B2CDD3CDC756DE4F0FB6F894DEBF0FBEDD
:102FD000CDBFDF91CF911F910F91FF90EF90DF90C8
:102FE000CF90BF90AF909F908F907F906F905F90A9
:102FF0004F903F902F9008951F93CF93DF9300D071
:103000001F92CDB7DEB780E392E00E942A1C892B85
:1030100009F4D5C110911E021E3049F489EC90E0EC
:103020000E94571D80E192E00E94841DC1C180E38F
:1030300092E00E94081CE12FF0E0E05FFD4F8083EA
:103040008D3079F034F4882361F08A3009F0B3C10F
:1030500008C0833231F08B3309F0ADC10E94EC130C
:10306000A7C180911002863509F482C00CF05FC0C0
:10307000833409F4A1C00CF055C08F3309F06EC140
:103080008FE30E94D31D84E591E00E94571D86E5E1
:103090000E94D31D82E591E00E94571D82E50E94A7
:1030A000D31D82E591E00E94571D84E70E94D31D45
:1030B00082E591E00E94571D88E50E94D31D82E5BC
:1030C00091E00E94571D83E50E94D31D82E591E0A7
:1030D0000E94571D80E50E94D31D82E591E00E9469
:1030E000571D83E40E94D31D82E591E00E94571D85
:1030F00082E70E94D31D82E591E00E94571D87E57B
:103100000E94D31D82E591E00E94571D83E70E9433
:10311000D31D82E591E00E94571D81E991E00E9454
:10312000841D43C18035D9F0823559F117C18437E8
:103130004CF482370CF039C1873509F4E2C0883588
:1031400071F10CC1843709F009C10E9481104AE075
:103150000E94921D8FE891E00E94721D26C18CE8AA
:1031600091E00E94841D8BEC97E00197F1F71DC15F
:1031700080E391E00E94571D8CE091E00E94061EC2
:1031800014C120915804309159042115310511F4CE
:103190002EE534E0CE010196821B930B5AC080913C
:1031A0001102813519F40E94D510FFC0853409F051
:1031B000FCC00E949A12F9C080911102873459F024
:1031C00034F49CEB980F923008F446C0EEC083357F
:1031D00009F479C0EAC085EE90E00E94571D83EEA5
:1031E00090E00E94571D8091D40290E00E94D81D6B
:1031F00081EE90E00E94571D8EED90E00E94571DD9
:1032000083EE90E00E94571D8091D20290E00E94D0
:10321000D81D81EE90E00E94571D8BED90E00E943A
:10322000571D83EE90E00E94571D8091D30290E0DD
:103230000E94D81D81EE90E00E94571D82E991E026
:103240000E94721D83EE90E00E94571D8091D5026E
:1032500090E00E94141EA9C090911202923579F05C
:1032600034F4933409F0A1C0E3EDF2E00DC09335DE
:1032700049F0953509F099C0E2EDF2E005C0E5EDC1
:10328000F2E002C0E4EDF2E0853419F481E08083DD
:1032900001C010822091D202622F660F9091D3025A
:1032A00084E0989F90011124262B6091D402262B54
:1032B0009091D50238E0939FC0011124622F682BB2
:1032C0008FEF90E070C067E971E082E192E00E94C8
:1032D0007329892B09F469C04AE050E060E070E08E
:1032E00088E192E00E946724609392037727882701
:1032F00099274AE00E94921D88EE90E00E94571D97
:1033000054C080911102833529F4909112029333B5
:1033100009F44BC0082E000C990B0E944829892BF8
:1033200009F443C080911202082E000C990B0E94F0
:103330004829892BD1F180911302082E000C990B9A
:103340000E944829892B89F180911402082E000CD3
:10335000990B0E944829892B31F427C082EF90E015
:103360000E94061E25C01B828091110290911202BC
:103370009A83898340E150E060E070E0CE010196DD
:103380000E946724162F80911302909114029A8351
:10339000898340E150E060E070E0CE0101960E9438
:1033A0006724812F90E00E94961281E0809324028E
:1033B00010921E0204C01F5F10931E0224CE0F90B5
:1033C0000F900F90DF91CF911F9108950E94361CAE
:1033D00081110C94FC1708953F924F925F926F9267
:1033E0007F928F929F92AF92BF92CF92DF92EF9295
:1033F000FF920F931F93CF93DF93DC0154961C929F
:103400005497662309F4FBC050962C9150972223C1
:1034100009F4F5C030E0A62EB12CA216B3069CF03C
:10342000DF91CF911F910F91FF90EF90DF90CF90A0
:10343000BF90AF909F908F907F906F905F904F90D4
:103440003F900C94A7138C010E551F4FF80120815B
:103450003181A216B30608F0D2C0EC017C01F2E281
:10346000EF0EF11CFC01EF55FF4FC9010197A816A3
:10347000B90641F41AA21082D8011D921C9287E06D
:1034800035967CC02D01B4EA4B0E511CD2014C91F3
:10349000649F3001112453E0769467945A95E1F7C4
:1034A000362C842E912C68E0C62ED12CC601B40196
:1034B0000E945B28C5010E944728009709F460C05C
:1034C000489F802D112468E0681B90812701462DBC
:1034D00043196916D8F46E01C60CD11CD601939617
:1034E0004C91939750E0062E02C0559547950A944B
:1034F000E2F79296CC90082E01C0CC0C0A94EAF721
:103500004C29D2014D932D016394E1CF20FD10C0D1
:10351000BE01640F711DAE01460D511DDA01929678
:103520009C9101C0990F8A95EAF7DB0192969C93D2
:103530002A193B09D8012D933C93829E6001839EFA
:10354000D00C929ED00C1124C60168E070E00E945D
:103550005B28DE01AA55BF4F882321F097E0981B16
:10356000892F01C087E08C93C6018819990997FDBE
:10357000079623E0959587952A95E1F7808322C0E9
:10358000408146194083772450E04F5F5F4FB70179
:10359000660D771DC7010E946129F201608170E00C
:1035A000C6010E945B28669D9001679D300D769D47
:1035B000300D1124D8018D919C911197821B930B92
:1035C0008D939C9381E08C8BF80160817181688B75
:1035D000662399F0772761507109C7010E94A812EC
:1035E000FE01E855FF4F8081880F990B83559F4F4F
:1035F0008C0F9D1F99A388A302C019A218A2DF9166
:10360000CF911F910F91FF90EF90DF90CF90BF90DF
:10361000AF909F908F907F906F905F904F903F9072
:103620000895CF93DF9397FF08C02DE2FB0120831D
:1036300091958195910921E001C020E0AEE0B1E0D3
:10364000E0E04D915D9130E38417950728F0841BED
:10365000950B3F5FE1E0F8CFEE2329F0EB01C20FBD
:10366000D11D38832F5F41FFECCFFB01E20FF11D2D
:1036700090E3980F90832F5FFB01E20FF11D108202
:10368000CB01DF91CF910895FC0180819181892B3D
:1036900051F482819381892B31F48481958121E0D9
:1036A00082278170089580E00895EF92FF920F9332
:1036B0001F93CF93DF9361157105E1F08B01FB013F
:1036C00001900020E9F731977F01E61AF70AEC0133
:1036D000C753DF4FCE010E94441B81110BC04E2DFA
:1036E000B801CE01DF91CF911F910F91FF90EF9024
:1036F0000C94E21080E090E0DF91CF911F910F9148
:10370000FF90EF9008950F931F93CF93DF931F9235
:10371000CDB7DEB769838C0107531F4FC8010E94E4
:10372000441B811108C041E0BE016F5F7F4FC8019B
:103730000E94E21002C080E090E00F90DF91CF91F4
:103740001F910F9108951F920F920FB60F9211249F
:103750002F933F934F935F936F937F938F939F9399
:10376000AF93BF93EF93FF93E0911F02F09120027C
:103770000995FF91EF91BF91AF919F918F917F91AB
:103780006F915F914F913F912F910F900FBE0F90CE
:103790001F9018950895CF92DF92EF92FF920F93AA
:1037A0001F93CF93DF936C017A018B01C0E0D0E0CF
:1037B000CE15DF0581F0D8016D918D01D601ED9117
:1037C000FC910190F081E02DC6010995892B11F043
:1037D0002196EECF7E01C701DF91CF911F910F910E
:1037E000FF90EF90DF90CF900895089580E090E0F3
:1037F0000895FC01538D448D252F30E0842F90E0F7
:10380000821B930B541710F0CF96089501970895DB
:10381000FC01918D828D981761F0828DDF01A80FD8
:10382000B11D5D968C91928D9F5F9F73928F90E0FA
:1038300008958FEF9FEF0895FC01918D828D981769
:1038400031F0828DE80FF11D858D90E008958FEFA6
:103850009FEF0895FC01918D228D892F90E0805C6F
:103860009F4F821B91098F739927089580E392E0FF
:103870000E942A1C21E0892B09F420E0822F089560
:103880000E944329EF92FF920F931F93CF93DF93F0
:10389000EC0181E0888F9B8D8C8D981305C0E889A1
:1038A000F989808185FD26C0F62E0B8D10E00F5F13
:1038B0001F4F0F731127E02E8C8DE8120CC00FB62E
:1038C00007FCFACFE889F989808185FFF5CFCE0121
:1038D0000E947412F1CF8B8DFE01E80FF11DE35AA7
:1038E000FF4FF0829FB7F8940B8FEA89FB898081A4
:1038F00080620AC09FB7F894EE89FF896083E889E7
:10390000F98980818370806480839FBF81E090E02B
:10391000DF91CF911F910F91FF90EF900895CF937A
:10392000DF93EC01888D8823C9F0EA89FB898081C7
:1039300085FD05C0A889B9898C9186FD0FC00FB699
:1039400007FCF5CF808185FFF2CFA889B9898C91DA
:1039500085FFEDCFCE010E947412E7CFDF91CF91AA
:1039600008951F920F920FB60F9211242F933F9339
:103970004F935F936F937F938F939F93AF93BF9377
:10398000EF93FF93E0910201F09103010995FF91FC
:10399000EF91BF91AF919F918F917F916F915F91C7
:1039A0004F913F912F910F900FBE0F901F90189540
:1039B0001F920F920FB60F9211242F933F934F93A4
:1039C0005F936F937F938F939F93AF93BF93EF9387
:1039D000FF93E0910001F09101010995FF91EF91B2
:1039E000BF91AF919F918F917F916F915F914F9117
:1039F0003F912F910F900FBE0F901F9018951F921F
:103A00000F920FB60F9211242F933F934F935F9312
:103A10006F937F938F939F93AF93BF93EF93FF9396
:103A200080E392E00E947412FF91EF91BF91AF91F9
:103A30009F918F917F916F915F914F913F912F91C6
:103A40000F900FBE0F901F9018951F920F920FB6F8
:103A50000F9211242F938F939F93EF93FF93E091F5
:103A60004002F09141028081E0914602F0914702CC
:103A700082FD12C09081809149028F5F8F732091E7
:103A80004A02821751F0E0914902F0E0E05DFD4FFB
:103A9000958F8093490201C08081FF91EF919F91A2
:103AA0008F912F910F900FBE0F901F9018950F932D
:103AB0001F93CF93DF938C01C0E0D0E0F801EC0FAF
:103AC000FD1F6491662341F080E392E00E94421C56
:103AD000892B11F02196F2CFCE01DF91CF911F916A
:103AE0000F910895009769F0FC0101900020E9F71B
:103AF0003197AF01481B590BBC0180E392E00C9455
:103B0000CB1B80E090E00895CF93DF930E94721D5D
:103B1000EC018FE891E00E94721D8C0F9D1FDF91D8
:103B2000CF9108958F929F92AF92BF920F931F9360
:103B3000CF93DF93CDB7DEB7A1970FB6F894DEBF72
:103B40000FBECDBF19A2423008F44AE08E010F5DCE
:103B50001F4F842E912CA12CB12CA50194010E9401
:103B6000C827E62FB901CA0101501109EA3014F43F
:103B7000E05D01C0E95CD801EC93232B242B252BBD
:103B800061F7C8010E94721DA1960FB6F894DEBFBE
:103B90000FBECDBFDF91CF911F910F91BF90AF901E
:103BA0009F908F900895682F80E392E00C94421CC0
:103BB000CF92DF92EF92FF92CF93DF936C01990F38
:103BC000EE08FF08F7FE17C08DE20E94D31DEC013E
:103BD00066277727CB016C197D098E099F094AE07A
:103BE0000E94921D8C0F9D1FDF91CF91FF90EF904F
:103BF000DF90CF9008954AE0C701B601DF91CF91E1
:103C0000FF90EF90DF90CF900C94921DCF93DF93B5
:103C10000E94571DEC018FE891E00E94721D8C0FED
:103C20009D1FDF91CF910895CF92DF92EF92FF9287
:103C3000CF93DF936C01990FEE08FF08F7FE11C0D8
:103C40008DE20E94D31DEC0166277727CB016C190A
:103C50007D098E099F094AE00E94921DC80FD91F55
:103C600006C04AE0C701B6010E94921DEC018FE830
:103C700091E00E94721D8C0F9D1FDF91CF91FF90EC
:103C8000EF90DF90CF9008952FB7F894809127029E
:103C900090912802A0912902B0912A022FBF80930F
:103CA000380290933902A0933A02B0933B0280E32A
:103CB00092E00E94081C97FF26C02FB7F8948091CD
:103CC000270290912802A0912902B0912A022FBFC9
:103CD000409138025091390260913A0270913B0252
:103CE000841B950BA60BB70B409134025091350203
:103CF000609136027091370284179507A607B707BF
:103D0000B0F28FEF9FEF08953FB7F89480912C02A7
:103D100090912D02A0912E02B0912F0226B5A89B62
:103D200005C02F3F19F00196A11DB11D3FBFBA2F4D
:103D3000A92F982F8827820F911DA11DB11DBC01AD
:103D4000CD0142E0660F771F881F991F4A95D1F772
:103D500008958F929F92AF92BF92CF92DF92EF928F
:103D6000FF926B017C010E94841E4B015C01C11417
:103D7000D104E104F104F1F00E94841EDC01CB01C6
:103D800088199909AA09BB09883E9340A105B10584
:103D900070F321E0C21AD108E108F10888EE880E1C
:103DA00083E0981EA11CB11CC114D104E104F104EC
:103DB00019F7DDCFFF90EF90DF90CF90BF90AF90DD
:103DC0009F908F9008951F920F920FB60F9211241B
:103DD0002F933F938F939F93AF93BF93809127022D
:103DE00090912802A0912902B0912A0230912B02D1
:103DF00023E0230F2D3720F40196A11DB11D05C02E
:103E000026E8230F0296A11DB11D20932B0280935B
:103E1000270290932802A0932902B0932A0280914E
:103E20002C0290912D02A0912E02B0912F020196AA
:103E3000A11DB11D80932C0290932D02A0932E0200
:103E4000B0932F02BF91AF919F918F913F912F918E
:103E50000F900FBE0F901F901895CF93DF93EC013A
:103E60008031910538F024E0969587952A95E1F701
:103E70000E942D1FCF70DD27CA50DE4F688181ED73
:103E800092E0DF91CF910C94831BCF93DF93CDB75A
:103E9000DEB72A970FB6F894DEBF0FBECDBF789479
:103EA00084B5826084BD84B5816084BD85B582603F
:103EB00085BD85B5816085BD80916E0081608093F0
:103EC0006E00109281008091810082608093810059
:103ED0008091810081608093810080918000816069
:103EE000809380008091B10084608093B1008091C4
:103EF000B00081608093B00080917A0084608093EC
:103F00007A0080917A00826080937A0080917A00B2
:103F1000816080937A0080917A00806880937A0033
:103F20001092C100E0914002F091410282E0808352
:103F3000E0914002F09141021082E0913C02F09148
:103F40003D021082E0913E02F0913F0280E18083C9
:103F500010924802E0914402F091450286E080838D
:103F6000E0914202F0914302808180618083E09180
:103F70004202F0914302808188608083E091420296
:103F8000F0914302808180688083E0914202F09149
:103F9000430280818F7D80835298259A80E090E053
:103FA0000E949812833309F032C281E090E00E94AF
:103FB00098128D3109F02BC28FEF90E00E94981279
:103FC000982F91709093D40281FB992790F9909348
:103FD000D20282FB992790F99093D30283FB882722
:103FE00080F98093D502239A62E370E080E090E04C
:103FF0000E94A91E80E1809381001092800082E0DF
:104000008093230281E09DE7909322028093210216
:10401000909387008093860082E18093810089E2FB
:1040200091E19093200280931F0281E080936F00C2
:104030001E821D828BE790E19C838B838B819C8108
:10404000AD81BE8180939C0390939D03A0939E03BA
:10405000B0939F0384E191E190939B0380939A0333
:104060000E949A1280E991E0A0E0B0E080933402CF
:1040700090933502A0933602B093370272E0472E38
:10408000512C612C712C99249394E7E08E2EF3E04F
:10409000AF2EB12C8091A103882309F4B5C1809182
:1040A000A10381508093A1038091A3036091A00399
:1040B0000E943B289093A303E091A30381E08E0F1D
:1040C0008093A303F0E0EE0FFF1FEC55FC4F8081BF
:1040D000918190932602809325021092E4026091D0
:1040E000E102662391F070E06150710983EF92E084
:1040F0000E94A81280917903880F990B82589C4FD7
:104100009093F2028093F10204C01092F202109296
:10411000F1024091250250912602E091EF02F091C8
:10412000F002518340839091E102992379F0E0916C
:10413000F102F091F202309749F020813181242779
:104140003527232F221F2227221F01C021E031E023
:104150009E3F09F430E081E0411553480CF480E0C3
:10416000832311F0211132C00E94EE008091E402FD
:10417000811104C0809191038823B1F08091E10204
:104180008823D1F0E091F102F091F2023097A1F092
:10419000A091EF02B091F0022D913C91808191812C
:1041A0008227932797FD08C081ED92E00E94A71314
:1041B0001092F2021092F1028091E1028E3F91F58D
:1041C00060E070E0CB010E94A91E2CC0983251F52E
:1041D000B092EA02A092E90284E993E00E94441BB3
:1041E000811120C02091940330919503E0919603B2
:1041F000F09197034091980350919903CA019595C6
:10420000879540FF0AC0D901A80FB91F4D915C9155
:10421000E40FF51F0190F081E02D820F931F0995A7
:1042200080939303C090EF02D090F002D6010D91DD
:104230001C91B80117FF04C066277727601B710B1C
:10424000072E000C880B990B0E9485262DEC3CEC68
:104250004CE45EE30E94E4260E940F299B017093C8
:10426000E8026093E70270918E03EEE7F3E060E00E
:104270007617C1F081919191A8014827592757FDE0
:104280000FC0009769F0A801481B590BCA0157FFDE
:1042900003C0919581959109281739070CF0CBC07F
:1042A0006F5FE6CF7830E1F540E060E081ED92E0CD
:1042B0000E942C13E0918F03F0E0EF52FD4F8681B6
:1042C000833040F00E94EE0040E060E081ED92E03B
:1042D0000E942C131091E1021150E0918F03F0E045
:1042E000EF52FD4F86818823D9F08091E102882327
:1042F000B9F0612F70E083EF92E00E94A812209144
:104300007903022E000C330B80918F0390E0281765
:10431000390711F761E0610F81ED92E00E94EC191D
:1043200010918F03E091EF02F091F0028081918172
:10433000E12FF0E0EE0FFF1FE258FC4F91838083E6
:1043400081E0810F883019F080938F0306C01092AE
:104350008F0380938E031092910380918F0390912D
:104360008E03981710F480938E03312F20917703DA
:1043700080917303909174032730B9F418161906CD
:10438000A4F4E09172036E2F70E04091780350E046
:1043900041505109641775070CF072C0EF5FE0934C
:1043A0007203F0E0EF52FD4F12A2A09175034A2F65
:1043B00050E0622F70E06F5F7F4F641B750B161625
:1043C00017062CF4312F01C0330F6A95EAF7E091FC
:1043D0007203F0E0EF52FD4F62A1362B32A301963B
:1043E0009093740380937303622F022E000C770B5B
:1043F000FB01E41BF50BF7FD04C02A1B2093770398
:10440000BCC080927703B9C00E94E61943CE6FE02A
:104410008FEF90E00E94961281E691E00E94061EC6
:1044200063E380E090E00E9496126DE181E090E00D
:104430000E949612C1CD162F67FD34CF812F880FB1
:10444000990BDC01A258BC4F7D016D917C919B01C1
:10445000770F440B550BD6018D919C91092E000CC2
:10446000AA0BBB0B280F391F4A1F5B1FCA01B901DA
:10447000A30192010E946F28F7013183208375CF39
:1044800060E070E0CB010E94A91E6EE971E081ED51
:1044900092E00E94551B6091E20281ED92E00E9441
:1044A000831B67EB71E081ED92E00E94551B6091E8
:1044B000E30281ED92E00E94831B6EEB71E081EDDF
:1044C00092E00E94551B612F81ED92E00E94831BB8
:1044D00064EC71E081ED92E00E94551B6091E10275
:1044E00081ED92E00E94831B6DEC71E081ED92E022
:1044F0000E94551B6091720381ED92E00E94831B24
:1045000064ED71E081ED92E00E94551B60917303B0
:1045100081ED92E00E94831B6BED71E081ED92E0F2
:104520000E94551B6091E50281ED92E00E94831B81
:1045300064EE71E081ED92E00E94551B6091E9020A
:1045400081ED92E00E94831B6CEE71E081ED92E0C0
:104550000E94551B6091E40281ED92E00E94831B52
:104560006AE081ED92E00E94831B8091E40288233F
:1045700009F490CD909224028DCD8093E1021092A7
:10458000E502F3CFCF93DF93E0E3F2E013821282F0
:1045900088EE93E0A0E0B0E084839583A683B783A0
:1045A0008AE191E09183808385EC90E09587848710
:1045B00084EC90E09787868780EC90E0918B808BED
:1045C00081EC90E0938B828B82EC90E0958B848BD6
:1045D00086EC90E0978B868B118E128E138E148E44
:1045E000E0EAF3E08AE58083118213821282C1ED52
:1045F000D2E08BEE92E09F8F8E8F19A218A28FE7E8
:104600008093780384E0809375031AA2109272035A
:10461000109274031092730387E08093770380EF06
:104620008093760310929303109295031092940353
:104630001092970310929603109299031092980388
:1046400010929B0310929A0310929D0310929C0368
:1046500010929F0310929E031B8E1A8ECE010E9411
:10466000A71381E1809392031D8281E08C831F86D2
:104670001E860E94841E6093CD027093CE028093AA
:10468000CF029093D002DF91CF9108950F931F93A3
:10469000CF93DF938230910510F482E090E0E091B7
:1046A0005A04F0915B0420E030E0A0E0B0E03097E5
:1046B00019F1408151810281138148175907C8F0CF
:1046C0008417950769F4109731F012960C9312979E
:1046D00013961C9327C000935A0410935B0422C0C6
:1046E0002115310519F04217530718F49A01BD013D
:1046F000EF01DF01F801DBCF21153105F9F0281BAF
:10470000390B2430310580F48A819B816115710554
:1047100021F0FB019383828304C090935B04809318
:104720005A04FE01329644C0FE01E20FF31F81934A
:10473000919322503109398328833AC0209158043B
:1047400030915904232B41F4209106013091070147
:1047500030935904209358042091040130910501AD
:104760002115310541F42DB73EB740910801509114
:104770000901241B350BE0915804F0915904E2170C
:10478000F307A0F42E1B3F0B2817390778F0AC0174
:104790004E5F5F4F2417350748F04E0F5F1F509351
:1047A0005904409358048193919302C0E0E0F0E0F3
:1047B000CF01DF91CF911F910F910895CF93DF9398
:1047C000009709F481C0FC01329713821282A091F4
:1047D0005A04B0915B04109781F420813181820FDB
:1047E000931F20915804309159042817390751F527
:1047F000F0935904E093580467C0ED0120E030E0E5
:10480000CE17DF0740F44A815B819E0141155105B7
:10481000F1F0EA01F5CFD383C28340815181840F47
:10482000951FC817D90759F488819981840F951F5E
:104830000296918380838A819B8193838283211551
:10484000310529F4F0935B04E0935A043DC0E9017B
:10485000FB83EA8349915991C40FD51FEC17FD07DB
:1048600061F480819181840F951F0296E9019983FB
:104870008883828193819B838A83E0E0F0E01296B3
:104880008D919C911397009719F0FD01DC01F7CFF2
:104890008D919C9111979D012E5F3F4F820F931F29
:1048A00020915804309159042817390769F430973A
:1048B00029F410925B0410925A0402C013821282EF
:1048C000B0935904A0935804DF91CF910895A0E0CC
:1048D000B0E0EDE6F4E20C94F6275C016B017A019E
:1048E0006115710519F0FB0191838083E114F104D6
:1048F00029F0C7010297839708F0E5C0E5012196EA
:10490000F5011081812F90E00E947226892B11F011
:104910005E01F4CF1D3229F42196F501118101E0E9
:1049200007C01B3221F4E5012296F501118100E058
:10493000E114F10409F1F0E1EF16F10429F43FC0AC
:1049400010E3E114F10421F128E0E216F10401F191
:1049500054F4E2E0EE16F10421F5812C912CA12C07
:10496000B0E4BB2E3EC0FAE0EF16F10439F020E1CE
:10497000E216F104B1F430C0103319F1FAE0EF2E71
:10498000F12CACEC8A2E982CA82CACE0BA2E29C0C5
:1049900078E0E72EF12C812C912CA12CE0E1BE2EA9
:1049A00020C060E070E080E090E897010F2C000CE0
:1049B000440B550B0E94C82749015A0112C01033FD
:1049C00059F488818F7D883509F0BACF19812296F4
:1049D000026080E1E82EF12C812C912CA12C68E062
:1049E000B62E40E060E070E0CB0127010F2C000CF8
:1049F00066087708FE0150ED352E310E29E02315AB
:104A000070F42FEB210F2A3118F439EC332E06C045
:104A10002FE9210F2A3118F529EA322E310E232DE4
:104A200030E02E153F05DCF447FD16C086169706CC
:104A3000A806B90670F0A30192010E94B827630D81
:104A4000711D811D911D61307105810520E892075E
:104A500010F04FEF01C041E021961081CBCF202F05
:104A60002170C114D10471F0442329F02197F6017B
:104A7000D183C08307C001FF19C02297F601D183FB
:104A8000C08314C047FF12C0222329F060E070E009
:104A900080E090E804C06FEF7FEF8FEF9FE722E2A6
:104AA00030E030935D0420935C0409C0222381F040
:104AB00090958095709561957F4F8F4F9F4F462FB2
:104AC000372F282F12C040E030E020E090E00DC0EA
:104AD00097FFF5CF82E290E090935D0480935C04B1
:104AE0006FEF7FEF8FEF9FE7EACF642F732F822F57
:104AF000CDB7DEB7E1E10C941228A0E0B0E0E3E826
:104B0000F5E20C94F6275C016B017A0161157105E1
:104B100019F0FB0191838083E114F10429F0C701AE
:104B20000297839708F0C9C0E5012196F50110812D
:104B3000812F90E00E947226892B11F05E01F4CF44
:104B40001D3229F42196F501118101E007C01B32C5
:104B500021F4E5012296F501118100E0E114F10450
:104B6000B1F0F0E1EF16F10429F4B0C010E3E11464
:104B7000F10401F12AE0E216F104B1F180E1E81656
:104B8000F10471F0E8E0EE16F104F1F413C0103313
:104B900041F588818F7D883549F719812296026019
:104BA000F0E1EF2EF12C88248A94982CA82CAFE009
:104BB000BA2E20C078E0E72EF12C88248A94982C15
:104BC000A82CEFE1BE2E16C06FEF7FEFCB0197014F
:104BD0000F2C000C440B550B0E94C82749015A01A9
:104BE00009C08AE0E82EF12C69E9862E982CA82CC1
:104BF00069E1B62E40E060E070E0CB0127010F2CA8
:104C0000000C66087708FE0150ED352E310E29E0C4
:104C1000231570F42FEB210F2A3118F439EC332EC1
:104C200006C02FE9210F2A3130F529EA322E310E44
:104C3000232D30E02E153F05F4F44F3FC9F08616C2
:104C40009706A806B90688F0A30192010E94B8272A
:104C5000232D30E040E050E0620F731F841F951F4A
:104C6000621773078407950710F44FEF01C041E006
:104C700021961081C8CFC114D10451F0442311F002
:104C8000219703C001FF04C02297F601D183C0839E
:104C900000FF07C090958095709561957F4F8F4F6D
:104CA0009F4F4F3F79F482E290E090935D048093B0
:104CB0005C043FEF2FEF9FEF0DC040E030E020E0BD
:104CC00090E008C0462F372F282F04C0103309F07A
:104CD00067CF5FCF642F732F822FCDB7DEB7E1E1AF
:104CE0000C94122891110C947B26803219F0895073
:104CF0008550C8F708959927882708950E94C026EF
:104D000008F481E00895E89409C097FB3EF490957B
:104D10008095709561957F4F8F4F9F4F9923A9F094
:104D2000F92F96E9BB279395F69587957795679523
:104D3000B795F111F8CFFAF4BB0F11F460FF1BC067
:104D40006F5F7F4F8F4F9F4F16C0882311F096E9FA
:104D500011C0772321F09EE8872F762F05C06623A8
:104D600071F096E8862F70E060E02AF09A95660F61
:104D7000771F881FDAF7880F9695879597F908951A
:104D8000990F0008550FAA0BE0E8FEEF161617065C
:104D9000E807F907C0F012161306E407F50798F0C4
:104DA000621B730B840B950B39F40A2661F0232BDD
:104DB000242B252B21F408950A2609F4A140A69559
:104DC0008FEF811D811D08950E94F7260C9468279E
:104DD0000E945A2738F00E94612720F0952311F095
:104DE0000C9451270C94572711240C949C270E9453
:104DF000792770F3959FC1F3950F50E0551F629F7F
:104E0000F001729FBB27F00DB11D639FAA27F00D23
:104E1000B11DAA1F649F6627B00DA11D661F829F4A
:104E20002227B00DA11D621F739FB00DA11D621F2F
:104E3000839FA00D611D221F749F3327A00D611D4C
:104E4000231F849F600D211D822F762F6A2F11242E
:104E50009F5750409AF0F1F088234AF0EE0FFF1F61
:104E6000BB1F661F771F881F91505040A9F79E3FB8
:104E7000510580F00C9451270C949C275F3FE4F37C
:104E8000983ED4F3869577956795B795F795E7950E
:104E90009F5FC1F7FE2B880F911D9695879597F917
:104EA000089597F99F6780E870E060E008959FEFAC
:104EB00080EC089500240A941616170618060906B1
:104EC000089500240A941216130614060506089580
:104ED000092E0394000C11F4882352F0BB0F40F408
:104EE000BF2B11F460FF04C06F5F7F4F8F4F9F4F48
:104EF000089557FD9058440F551F59F05F3F71F0CA
:104F00004795880F97FB991F61F09F3F79F0879530
:104F10000895121613061406551FF2CF4695F1DFB9
:104F200008C0161617061806991FF1CF8695710549
:104F3000610508940895E894BB2766277727CB017D
:104F400097F90895F999FECF92BD81BDF89A9927F6
:104F500080B50895262FF999FECF1FBA92BD81BD65
:104F600020BD0FB6F894FA9AF99A0FBE01960895EB
:104F7000DB018F939F930E94EA27BF91AF91A29F7D
:104F8000800D911DA39F900DB29F900D1124089547
:104F9000A1E21A2EAA1BBB1BFD010DC0AA1FBB1F3D
:104FA000EE1FFF1FA217B307E407F50720F0A21BAF
:104FB000B30BE40BF50B661F771F881F991F1A941C
:104FC00069F760957095809590959B01AC01BD0146
:104FD000CF0108950E942C28A59F900DB49F900D9D
:104FE000A49F800D911D112408952F923F924F92FE
:104FF0005F926F927F928F929F92AF92BF92CF9269
:10500000DF92EF92FF920F931F93CF93DF93CDB771
:10501000DEB7CA1BDB0B0FB6F894DEBF0FBECDBFE9
:1050200009942A88398848885F846E847D848C84BA
:105030009B84AA84B984C884DF80EE80FD800C81C3
:105040001B81AA81B981CE0FD11D0FB6F894DEBFA6
:105050000FBECDBFED010895A29FB001B39FC00167
:10506000A39F700D811D1124911DB29F700D811D94
:105070001124911D0895991B79E004C0991F96177A
:1050800008F0961B881F7A95C9F780950895AA1B8A
:10509000BB1B51E107C0AA1FBB1FA617B70710F023
:1050A000A61BB70B881F991F5A95A9F78095909555
:1050B000BC01CD01089597FB072E16F4009407D08C
:1050C00077FD09D00E94472807FC05D03EF4909553
:1050D00081959F4F0895709561957F4F0895052E96
:1050E00097FB1EF400940E94862857FD07D00E946B
:1050F000C82707FC03D04EF40C94862850954095A1
:10510000309521953F4F4F4F5F4F08959095809573
:10511000709561957F4F8F4F9F4F08950E942C2867
:10512000B7FF0895821B930B0895EE0FFF1F0590A4
:10513000F491E02D09945058BB27AA270E94B32868
:105140000C9468270E945A2738F00E94612720F0AB
:1051500039F49F3F19F426F40C9457270EF4E09588
:10516000E7FB0C945127E92F0E94792758F3BA17CF
:10517000620773078407950720F079F4A6F50C946D
:105180009B270EF4E0950B2EBA2FA02D0B01B90131
:1051900090010C01CA01A0011124FF27591B99F0AD
:1051A000593F50F4503E68F11A16F040A22F232FB9
:1051B000342F4427585FF3CF469537952795A79509
:1051C000F0405395C9F77EF41F16BA0B620B730BB0
:1051D000840BBAF09150A1F0FF0FBB1F661F771F21
:1051E000881FC2F70EC0BA0F621F731F841F48F4D6
:1051F000879577956795B795F7959E3F08F0B0CF5F
:105200009395880F08F09927EE0F97958795089545
:105210000E940F296894B1110C949C2708950E9454
:10522000812788F09F5798F0B92F9927B751B0F090
:10523000E1F0660F771F881F991F1AF0BA95C9F71A
:1052400014C0B13091F00E949B27B1E008950C94F6
:105250009B27672F782F8827B85F39F0B93FCCF3A9
:10526000869577956795B395D9F73EF49095809597
:10527000709561957F4F8F4F9F4F08950E94C02674
:1052800008F48FEF089581E090E0F8940C9496294B
:1052900091110C947B2680538A5028F0865C8062A2
:1052A00081568650B0F70895FC014150504030F0CF
:1052B00001900616D1F73197CF01089588279927D5
:1052C00008956817790768F4FB01DC01E40FF51F06
:1052D000A40FB51F02C002900E9241505040D8F763
:1052E00008950C948D29FB0151915523A9F0BF011C
:1052F000DC014D9145174111E1F759F4CD010190C1
:10530000002049F04D9140154111C9F3FB014111B5
:10531000EFCF81E090E001970895FB01DC0102C02E
:1053200001900D9241505040D8F70895F894FFCF66
:10533000CA1BCA1B00005E042000FFFFFFFF1027EE
:10534000E80364000A0000000000421CCB1BF91BAC
:105350008F1C2A1C081C1C1C4D733B003B43003B4C
:1053600053004D533B003B43503D003B53503D00E9
:10537000523D004F3B004D433B4C4C3D003B4C48A5
:105380003D003B534C3D003B53483D003B443D00FA
:105390003B433D003B4C3D004D753B004D553B00B4
:1053A0006E6F20737570706F7274656420646576BB
:1053B00069636520746F2073656E64004F4B000D48
:1053C0000A004D726564006D636D626C3D00206182
:1053D000646444617461206F666C6F772D3E206D4C
:1053E00073746172743D00206D656E643D002076BB
:1053F000616C3D00206D73676C656E3D00206279C5
:1054000074633D002076616C633D00206D547275BD
:105410006E633D002073746174653D002073756395
:10542000636573733D003031323334353637383984
:085430004142434445460000DF
:00000001FF
