:100000000C944A010C941C1B0C94F51A0C9472016C
:100010000C9472010C9472010C9472010C94720194
:100020000C9472010C9472010C9472010C94720184
:100030000C9472010C94DB140C9472010C947201F8
:100040000C9411220C9472010C94691B0C94431BA8
:100050000C9472010C9472010C9472010C94720154
:100060000C9472010C9472016363466163746F7245
:1000700079526573657420646F6E65000D2E2D478F
:10008000D3913D04320000060010B07157C43023F4
:10009000B900070018146C070091876BF8B611E9D6
:1000A0002A001F4100746F206C6F6E672000636F21
:1000B00072727570740073656E6420636D642000E5
:1000C000496E697420656570726F6D20746F20646D
:1000D000656661756C747320616674657220666C08
:1000E000617368003B523D004D4E3B443D00436F01
:1000F0006D6D616E6420746F206C6F6E673A2000C6
:100100004D43004D55003B003D004D5300206269BA
:10011000747320736574003A20006363726567200E
:10012000002000433345203D002064656C61793137
:1001300020002063686970537461747573200063D4
:100140006D645374726F62655265672000556E73FB
:100150007570706F727465642073686F7274206359
:100160006F6D6D616E6400636F6D6D616E642065AF
:10017000006973206E6F7420636F72726563746CB4
:10018000792073657420666F722041534B2F4F4F57
:100190004B2E20506C6561736520646F2061206672
:1001A0006163746F7279207265736574207669611A
:1001B0002000203D2000203A00454550524F4D0080
:1001C00020746F2050415441424C4520646F6E654D
:1001D0000077726974652000202D20636F6D70694F
:1001E0006C65642061742053657020313520323095
:1001F00032302030393A30343A31390020756E6B64
:100200006E6F776E00434331313000636869700070
:1002100063633131303120005620332E352E302D9E
:100220006465765F32303230303931345F76362073
:100230005349474E414C6475696E6F200020002081
:10024000557365206F6E65206F662000000000000A
:10025000250028002B000404040404040404020202
:100260000202020203030303030301020408102035
:100270004080010204081020010204081020000040
:100280000008000201000003040700000000000055
:100290000000A42711241FBECFEFD8E0DEBFCDBFE2
:1002A00011E0A0E0B1E0EEE8FEE502C005900D929D
:1002B000A039B107D9F724E0A0E9B1E001C01D924F
:1002C000A732B207E1F711E0CAE4D1E004C02197F8
:1002D000FE010E94772DC934D107C9F70E94CF23B0
:1002E0000C94452F0C9400002F923F924F925F92F6
:1002F0006F927F928F929F92AF92BF92CF92DF9236
:10030000EF92FF920F931F93CF93DF93CDB7DEB79A
:10031000C354D1090FB6F894DEBF0FBECDBF809194
:100320005A032091AA02811104C0283210F40C94BF
:10033000990D1092AD0291E02E3F09F090E090935C
:10034000AF0240E060E081113AC28AE992E00E9487
:10035000BE12F12CAF2CB12C209157032F8B822F82
:1003600090E00197A816B9060CF00EC1F501E6560B
:10037000FD4FCF0106962681F394222359F3EF2CEB
:100380009501220F331FA901495B5C4F5A8F498F9A
:100390009C8F8B8F5E8F4D8F80915703E816D0F620
:1003A0008E2C912CB40166567D4F1B01DB011696F5
:1003B0008C91882309F4E6C0E98DFA8DC080D18044
:1003C0009401220F331F388F2F8BF901E95BFC4F0B
:1003D00000811181C6018027912797FDD3C04090ED
:1003E0004303509044036090450370904603B80166
:1003F00017FF04C066277727601B710B072E000CC0
:10040000880B990B0E94672BA30192010E94C62BB7
:100410006F8F78A389A39AA3B601D7FE04C066277D
:1004200077276C197D09072E000C880B990B0E9409
:10043000672BA30192010E94C62B9B01AC016F8D1B
:1004400078A189A19AA10E947E2D20E030E040E0B1
:100450005FE30E94C62B0E94EA2D0C191D0917FFAD
:1004600003C0119501951109601771070CF48AC03A
:10047000D12CC12C81010A5F1F4F8091AA02D8168E
:1004800008F048C0D8018C91C81608F043C06D2D03
:1004900070E08CEB92E00E943A1280914203082EA9
:1004A000000C990B8816990699F580913E03482F08
:1004B00050E0D89EC0011124FC0123E0F695E79599
:1004C0002A95E1F720914103E21708F587709927F3
:1004D000FF27E656FD4F20913F0330E0082E02C073
:1004E000359527950A94E2F7209532A1232368E0F9
:1004F00070E0641B750BDB01A81BB90BA50102C0E2
:10050000440F551FAA95E2F7CA01822B82A3C39418
:10051000D394B3CFAB8DBC8D0C91F1011681ED8DD1
:10052000FE8DA081B1812F89388D295B3C4F6901F7
:10053000F90180809180E02FF0E09F010E94702DF2
:100540002B013C01412F50E09A01D4010E94702DF3
:10055000640D751D861D971DE40FF51F9F01FF0F8C
:10056000440B550B0E94512DAD8DBE8D2D933C93A8
:10057000100FEB8DFC8D1083D10116961C92F601A5
:1005800011821082E39408CF1092B3021092B2024B
:100590008FEF80939A02F091AA02F98F2F2F30E00B
:1005A0003C8F2B8FBAE9CB2EB2E0DB2E17E4212E45
:1005B00013E0312EE12CF12C0FEF1FEF4901330F27
:1005C000AA08BB084F89E41608F059C00F3F5FEF37
:1005D000150701F5D1018D919C9197FD1BC0F60186
:1005E000668170E080E090E00E94672B2B013C0167
:1005F000C501B4010E94672B2BE734E14EE25EE3B4
:100600000E94C62B9B01AC01C301B2010E94202EA7
:10061000181654F1D1018D919C9197FD26C0F801D7
:10062000EE0FFF1FE95BFC4F20813181821793079A
:10063000E4F4F601668170E080E090E00E94672BB0
:100640002B013C01C501B4010E94672B2BE734E16B
:100650004EE25EE30E94C62B9B01AC01C301B201D6
:100660000E94202E18160CF48701FFEFEF1AFF0AE4
:100670002FEFC21AD20A32E0230E311CA3CF0F3F54
:100680004FEF140741F000939A0281E090E09093BD
:10069000B3028093B2028091B2029091B3020197AB
:1006A00009F091C080919D02882309F48CC06B8D64
:1006B0007C8D663A71051CF4098D085201C00DE766
:1006C0001F89115076E0D72E1F3F09F475C0E12E27
:1006D000012E000CFF08F701EE0FFF1FE95BFC4F36
:1006E0002081318137FF66C0319521953109283647
:1006F00072E437070CF05EC0E0919A02EE0FFF0B38
:10070000E95BFC4F0190F081E02DC901BF010E941F
:10071000292D6D32710508F04DC0DE9EC001DF9EAF
:10072000900D11248217930708F044C0F701E65694
:10073000FD4FF6806F2D70E080E090E00E94672B07
:100740004B015C016091AA0270E080E090E00E94A1
:10075000672B2AE037ED43EA5DE30E94C62B9B013D
:10076000AC01C501B4010E94602B87FF23C081E06A
:100770008F1500F5E12CF12CE016E0F457019FEF06
:10078000A91AB90AB5018CEB92E00E943A12809145
:10079000420318130C94E50DB7018CEB92E00E9414
:1007A0003A129091420380919A0298130C94E50DAD
:1007B0000C94E80D115088CF1093590304C08AE9B6
:1007C00092E00E94BE128091B2029091B302029711
:1007D00009F0D2C18091AA02883208F4CDC180917B
:1007E000AB028E5F8093AC0210E06091AC0270E0CF
:1007F0008091AA0290E0019768177907ACF46F5FC7
:100800007F4F8CEB92E011110C947A0F0E943A12F8
:100810009091420380915903981311E08091AC02AA
:100820008E5F8093AC02E1CF10E08091AA0290919C
:10083000AC02891710F48093AC024091AC02609135
:10084000AB028AE992E00E94BE126091AB021123D2
:1008500071F08091AC0290E0861B9109889794F426
:1008600081E090E09093B3028093B20285C18091C1
:10087000AA028E3F08F06AC190E0861B9109889712
:100880000CF464C182E00E94712380919E0288234F
:1008900009F4A8C089E291E00E94CD238BE30E9475
:1008A0007123F12C80915703F81688F58F2D90E075
:1008B000FC01EE0FFF1FE95BFC4F00811181011568
:1008C000110519F1FC01E656FD4F86818823E9F0F8
:1008D0008F2D17FF05C0806A11950195110901C080
:1008E0008068E02E07FD04C0A02FA068EA2E01C09A
:1008F00080610E9471238E2D0E947123812F806858
:100900000E9471238BE30E947123F394CBCF8091DB
:10091000AC0280FF02C084E401C084E60E9471231F
:10092000E091AB02E0FF19C0E150E093AB02E69525
:1009300080914103E81728F4F0E0E656FD4F82A1CC
:1009400001C080E08F7080688F8B0E94712380913E
:10095000AB028E5F8093AB0201C01F8A1091AB0285
:100960008091AC02811780F0E12FE69580914103E0
:10097000E81728F4F0E0E656FD4FB2A1BF8B8F894F
:100980000E9471231E5FECCF8CE291E00E94CD2388
:1009900080919A0260E170E0082E000C990B0E9491
:1009A00076238FE291E00E94CD238091590360E18C
:1009B00070E0082E000C990B0E9476238BE30E94B6
:1009C00071230E94B72381118AC082E50E9471239E
:1009D00060E170E080915C030E9463238BE30E94DE
:1009E00071237DC082E391E00E94CD2310E08091CD
:1009F0005703181750F5212F30E0C901880F991FB0
:100A0000FC01E95BFC4F7F0180819181892BD9F04A
:100A1000F901E656FD4F86818823A9F080E50E9402
:100A200071236AE070E0812F0E9463238DE30E94AE
:100A300071236AE070E0D7018D919C910E9476232A
:100A40008BE30E9471231F5FD2CF8DE591E00E945E
:100A5000CD231091AB028091AC02811788F0612FF9
:100A600070E08CEB92E00E943A12809142036AE0BF
:100A700070E0082E000C990B0E9476231F5FEBCFCD
:100A800086E391E00E94CD2380919A026AE070E0B3
:100A9000082E000C990B0E9476238BE391E00E94B4
:100AA000CD23809159036AE070E0082E000C990B69
:100AB0000E9476238BE30E9471230E94B723811149
:100AC0000DC080E491E00E94CD236AE070E0809147
:100AD0005C030E9463238BE30E9471231F8A809131
:100AE000AF02882321F083E491E00E94CD2310928D
:100AF000AE026091AC028091AA0290E0861B91093F
:100B00008897D4F080919F028823B1F08150809320
:100B10009F026F5F8AE992E00E947E131092AB02FF
:100B20008DE60E9471236AE070E080919F020E942E
:100B300063238BE30E94712383E00E9471238AE088
:100B40000E94712381E08093AD0217C0662369F093
:100B50008091AC0290E08D3F91053CF08AE992E0F3
:100B60000E947E131092AB0207C08AE992E00E94B5
:100B7000391381E08093AD021F8A8091AD0281110B
:100B8000B8C680919B02B0919C02B8AB811103C0A2
:100B9000BB2309F4CEC7E8A9EE2309F4AAC68091C5
:100BA000A8029091A902892B39F585E490E00E9472
:100BB0002828FC0182E380AF81E085AB108212AA75
:100BC00014AA13AA87E087AB80E886AB8FEF84AFC7
:100BD00085AF86AF87AFDF01AD5BBF4F1C9211962B
:100BE0001C928AE992E093AF82AF14971D921C92F7
:100BF000F093A902E093A80280915A03882311F18F
:100C00000091A8021091A902D801DA96ED91FC9109
:100C1000DB97148A118ADA96ED91FC91DB97E05408
:100C2000FF4F1082512C5801B4E4AB0EB11C442488
:100C300043943801E2E46E0E711C1801F3E42F0EA8
:100C4000311C95C12090A8023090A9028FEFD101EC
:100C5000DC968C93DC97DD968C93DD97DF968C93F6
:100C6000DF97DE968C93DE97F101ED5BFF4F1082EC
:100C700031961082349711821082F101108212AAEB
:100C800014AA13AA87E087ABEE5BFF4F80915B034A
:100C90008083DA960D911C91DB97F801E354FF4FA6
:100CA000F080B3E0BF1508F024C6F801608970E059
:100CB00080E090E00E94672B2AE037ED43E25DE39D
:100CC0000E94C62B4B015C0120E030E0A9010E948C
:100CD000202E20E030E040E05FE387FD05C0C50145
:100CE000B4010E947E2D04C0C501B4010E947D2D77
:100CF0000E94EA2D5801F6E0AF0EB11CF801E35551
:100D0000FF4F1DA270E0D5018D915D01861770F136
:100D1000EDA08E2D90E0EE20F1F09E01280F391FFE
:100D2000D901DC9098012D0D311D2D0D311D23555C
:100D30003F4F40815181D9012D913C91421753077A
:100D400054F421E030E02C0F3D1F820F931FDC0193
:100D5000DC92EA94DECF21E030E02C0F3D1F820FC1
:100D6000931FDC017C93BDA1BF5FBDA37F5F329663
:100D7000F712C9CFFE013196FA8BE98BFFA7EEA7D8
:100D80004091130150911401609115017091160169
:100D90004FAB58AF69AF7AAFB1016E5B7F4F7CAF9D
:100DA0006BAFC1018D5B9F4F9FA38EA3D101AC5B45
:100DB000BF4F2496BFAFAEAF24973C96FE8BED8B12
:100DC000F9892296FFAF22978EA58F1B3DA183172D
:100DD00008F08FC5D101DA964C91DA97DB963C91F9
:100DE000DB97EEA5FFA52191FFA7EEA7842F932FF8
:100DF000820F911D820F911DFC01E355FF4F8081F1
:100E0000918118161906E4F68FEFDC968C93DC9727
:100E1000DD968C93DD97DF968C93DF97DE968C932F
:100E2000208131813A8F298FB901330F880B990BBB
:100E30000E94672B69AB7AAB8BAB9CAB2DEC3CEC87
:100E40004CE45EE30E94C62B0E94EA2D7EAF6DAF9C
:100E5000898D9A8D97FD0196AC0155954795219600
:100E60005FAF4EAF2197BE016F5F7F4F7BA76AA731
:100E700019A68FEF9FEF9CA38BA318A6DE011996EE
:100E8000BC8BAB8B4E01B1E18B0E911CEAA5FBA58F
:100E9000D190FBA7EAA7D101DA963C91DA97DB96CD
:100EA0002C91832F922F8D0D911D8D0D911DFC0185
:100EB000E355FF4F00811181780117FF04C0EE2434
:100EC000FF24E01AF10A21968EAD9FAD21978E196D
:100ED0009F0997FF03C0919581959109EDADFEADF6
:100EE000E817F907D4F42DEC3CEC4CEC5EE369A96F
:100EF0007AA98BA99CA90E94C62B0E94EA2D898DF4
:100F00009A8D8E199F0997FF03C09195819591093C
:100F1000681779070CF068C617C0101611060CF098
:100F2000D9C7D101DE96DC92F8A5FF5FF8A72BA107
:100F30003CA1200F311F3CA32BA3D101DC968C9147
:100F4000DC978F3F09F075C38AA52296EFAD2297F3
:100F50008E1BFDA18F1708F499CF32CFD5018C914C
:100F6000882379F0F501808181110DC15394D80156
:100F7000DA96CD90DC90DB97F6018089581670F3F5
:100F8000A1C2E52CF12CB701C60182960E943A124B
:100F9000F601E855FF4F808190E0F80124AD022E64
:100FA000000C330B8217930739F025AD022E000C8D
:100FB000330B82179307B1F6D801DA96CD90DC9007
:100FC000DB97B701C60182960E943A12F601E855F6
:100FD000FF4F8080F80195AC81E0891001C080E06E
:100FE00080939001D801DA96CD90DC90DB97B70121
:100FF00061507109C60182960E943A12F601E855C5
:10100000FF4F8081F5014082D801DA96ED91FC9185
:10101000DB97518A552009F4B0C090E0891026C0B2
:10102000DF962C91DF97022E000C330B821793076B
:1010300009F43FC0DA962D913C91DB97FC01EE0F4D
:10104000FF1FE20FF31FE355FF4FDC968C91A82F93
:10105000AA0FBB0BA20FB31FA355BF4F2081318135
:101060008D919C912817390724F129C0F80126ADEC
:10107000022E000C330B82179307D9F022AD33AD4B
:10108000FC01EE0FFF1FE20FF31FE355FF4FD801E6
:10109000DD968C91A82FAA0FBB0B2A0F3B1FD901FD
:1010A000A355BF4F208131818D919C918217930769
:1010B00034F481E0891080E08093900108C0D80169
:1010C000DA96ED91FC91DB9781898F5F818B60913E
:1010D0009001C8010E947812FF24FA94F50CB1E047
:1010E000BF1508F043C0F80182AC93ACCF2CD12CD3
:1010F000B601C40182960E943A12F401E855FF4FEE
:10110000808190E0D801DF962C91DF97022E000CB1
:10111000330B8217930741F0DE962C91022E000CC0
:10112000330B8217930711F5F80182AC93ACB6012B
:1011300061507109C40182960E943A12F401E85587
:10114000FF4F808190E0D801DF962C91022E000C99
:10115000330B8217930709F4DAC5F80126AD022E86
:10116000000C330B8217930709F4D1C5D801DA9626
:10117000ED91FC91DB975188F5CE81E0891080E0FC
:1011800080939001EFCED801DA96CD90DC90DB977A
:10119000E52CF12CB701C60182960E943A12F601A5
:1011A000E855FF4FC080D12CF80184AD082E000C0B
:1011B000990B82AC93ACC816D90609F42EC685AD3E
:1011C000082E000C990BC816D90609F426C6B701DB
:1011D0006F5F7F4FC40182960E943A12F401E85576
:1011E000FF4F208180919001811119C0D801DA96BA
:1011F000ED91FC91DB97808990E00297E816F90663
:101200007CF5DF968C91DF97082E000C990B8C15DE
:101210009D0531F5422F50E0DE968C911AC0813049
:10122000F9F4D801DA96ED91FC91DB97808990E092
:101230000297E816F906A4F4DE968C91DE97082E44
:10124000000C990B8C159D0559F4422F50E0DF9648
:101250008C91082E000C990B4817590709F426C1E8
:10126000F3018081082E000C990BD801D3964D9183
:101270005C91D4974817590764F4F1011082D501A5
:101280001C92F801108212AA14AA13AA27E027AB15
:101290000DC1D801DA96ED91FC91DB97528ADA966E
:1012A000AD90BC90DB97BDEF5B1213C0F501808958
:1012B00090E00197E816F90661F4E054FF4F81E0F1
:1012C000808384E090E0D50159969C938E93589743
:1012D00075C0D801DC96EC91DC97EE0FFF0BEA0DA0
:1012E000FB1DE355FF4F40815181F601EE0FFF1FBB
:1012F000EA0DFB1DE355FF4F60817181F501808987
:1013000064177507E4F4682F70E061507109E61600
:10131000F706ACF4E22FF0E0DD966C91DD97062E37
:10132000000C770BE617F70709F4AFC5DE966C9152
:10133000062E000C770BE617F70709F4A6C590E018
:101340000297E816F906D4F5D801DF968C91DF975D
:10135000082E000C990BC816D90641F0DE968C9128
:10136000082E000C990BC816D90641F5C501820F4D
:10137000911D820F911DFC01E355FF4F80819181EA
:1013800084179507DCF4B7016E5F7F4FC501829625
:101390000E943A12F501E855FF4F808190E0F80174
:1013A00024AD022E000C330B8217930709F043C5BE
:1013B00081E0850D511068C555245394652DD801E1
:1013C000DA968D919C91DB970E947E13D801DA9674
:1013D000ED91FC91DB97E054FF4F8081811160C556
:1013E000F3018081082E000C990BD3962D913C912E
:1013F000D497281739070CF453C582E00E94712353
:1014000086E491E00E94CD23E091A802F091A90228
:10141000E4ADEE0FFF0BE95BFC4F6AE070E080810A
:1014200091810E9476238DE491E00E94CD23E0918A
:10143000A802F091A902E5ADEE0FFF0BE95BFC4FAE
:101440006AE070E0808191810E94762382E591E0DC
:101450000E94CD23E091A802F091A902E7ADEE0F22
:10146000FF0BE95BFC4F6AE070E0808191810E9494
:10147000762387E591E00E94CD23E091A802F091C8
:10148000A902E6ADEE0FFF0BE95BFC4F6AE070E0EE
:10149000808191810E9476238CE591E00E94CD238A
:1014A000E090A802F090A902D12C48C05394D50135
:1014B0008C91882309F45ACD60919001C8010E9453
:1014C000781254CDF601528AA8014E5B5F4FD801C5
:1014D000D3962D913C91D497BEEF5B1220C0FA01B8
:1014E000808187FD8F5F8595082E000C990BD801B0
:1014F000DA96ED91FC91DB978217930754F4DF01A4
:10150000A054BF4F81E08C9384E090E0918F808F56
:10151000C7C4CF0180549F4FDC011C92148AFA018A
:101520008081082E000C990B64CFD216A0F4F7012D
:10153000E00FF11F80810E94A314D3940D2D10E0C1
:10154000D701D2968C91D29790E0D8962C9108171B
:1015500019075CF302C080E0EECFD21628F4F70141
:10156000E00FF11F808101C080E082958F7060E103
:1015700070E090E00E947623F70123A934A9C90105
:1015800068E070E00E943D2D059724F42770332712
:10159000232B89F4D701D8968C91D81628F4F7011B
:1015A000E00FF11F808101C080E08F7060E170E08A
:1015B00090E00E94762380E691E00E94CD23E091A6
:1015C000A802F091A902E05CFF4F6AE070E0808120
:1015D00091810E94762384E691E00E94CD23E091E0
:1015E000A802F091A9026AE070E083A994A90E9480
:1015F00076238BE30E9471230E94B72381110DC0D3
:1016000080E491E00E94CD236AE070E080915C0369
:101610000E9463238BE30E94712383E00E94712365
:101620008AE00E94712310925A0381E08093AD02F8
:1016300060C1DF968C91DF978F3F09F485CCDD96F2
:101640008C91DD978F3F09F47FCCDE968C918F3F94
:1016500009F47ACC2FA938AD49AD5AAD2D873E8714
:101660004F87588B29873A874B875C8741E050E04A
:101670005DA74CA7A12CB12C1FEFD101DA96ED90FC
:10168000FC90DB97F701808990E0A816B9060CF072
:101690005BCCB501C70182960E943A12F701E8556A
:1016A000FF4F0081802F90E0D101DC962C91DC97D8
:1016B000022E000C330B8217930709F49CC2DD96AF
:1016C0002C91022E000C330B8217930709F493C25E
:1016D000D101DF962C91022E000C330B8217930759
:1016E00009F489C2F10126AD022E000C330B8217DA
:1016F000930709F480C2D101DA96ED91FC91DB9752
:1017000081899501281B3109ABADBCAD8C91082EA8
:10171000000C990B821793070CF0A8C2A28AF10162
:1017200082AD93ADDC0152964C91529751966C91DB
:101730000E94BE12D101DA96ED91FC91DB97DE9604
:10174000BC91BB8FD101DD96BC91BD8FD101DF96DD
:101750000C91DF97DC96BC91BF8FDF012B8DA20F20
:10176000B11D27FDBA9516968C91DF013D8DA30F13
:10177000B11D37FDBA951696CC90D12CC80ED11C50
:10178000DF01A00FB11D07FDBA9516968C91C81AFE
:10179000D108DF014F8DA40FB11D47FDBA951696F4
:1017A0008C91AEA1BFA11C92C81AD108D7FE03C06C
:1017B000D194C194D1080D2C000CEE08FF0880894B
:1017C000E82FF0E0FEABEDABBF01FF0F880B990BEC
:1017D0000E94672B2AE037ED43E25DE30E94C62BAF
:1017E0002B013C0120E030E0A9010E94202E20E0E6
:1017F00030E040E05FE387FD0BC2C301B2010E940D
:101800007E2D0E94EA2D6C157D058E059F050CF43A
:101810009BCBF8A529A5F21397CB3D8D4F8D34179F
:1018200009F492CB5B8D501709F48ECB041709F4A1
:101830008BCB531709F488CB541709F485CB301799
:1018400009F482CBDE011996FE013D9681919D91AE
:101850008913E3C18E169F06C9F78F8D7B8D6AE0D1
:10186000769F800D1124AD8D9AE0A99F000D112463
:101870008A3008F48C590A3008F40C59AE01475FDD
:101880005F4FFE013D966F01E82EF12C602F70E056
:10189000D6018D916D01082E000C990B8E159F05B8
:1018A00009F047C3CE010996FE013D962191022E13
:1018B000000C330B2617370709F044C3E815F90568
:1018C00009F050C380E0C814D90409F4ACC14F5FDB
:1018D0005F4F8111DDCFF101E05CFF4F8BA19CA137
:1018E00066E070E00E943D2D71836083F8A9F111DC
:1018F00087C980919B02882309F41BC180915A03F8
:10190000811117C18091B2029091B302019709F041
:1019100010C18091AD0281114BC18091AA02883221
:1019200008F40BC182E00E94712380919E028823FB
:1019300009F477C088E691E00E94CD2340E060E0A2
:101940008AE992E00E94BE12F12C80915703F816AA
:1019500088F58F2D90E0FC01EE0FFF1FE95BFC4F37
:10196000008111810115110519F1FC01E656FD4FA9
:1019700086818823E9F08F2D17FF05C0806A1195B5
:101980000195110901C08068E02E07FD04C0B02F49
:10199000B068EB2E01C080610E9471238E2D0E94E1
:1019A0007123812F80680E9471238BE30E94712331
:1019B000F394CBCF8091AA0280FF05C084E60E94F9
:1019C000712310E010C084E4FACF8091410318170E
:1019D00030F4E12FF0E0E656FD4F22A12F8B8F89E6
:1019E0000E9471231F5F80913B03811770F78CE287
:1019F00091E00E94CD2380919A0260E170E0082E70
:101A0000000C990B0E9476238BE30E9471230E94A5
:101A1000B72381117BC082E50E94712360E170E0F1
:101A20006EC08CE691E00E94CD2340E060E08AE940
:101A300092E00E94BE1210E080915703181758F5EB
:101A4000212F30E0C901880F991FAC01495B5C4F21
:101A50007A01DA018D919C91892BD9F0F901E65632
:101A6000FD4F86818823A9F080E50E9471236AE0FA
:101A700070E0812F0E9463238DE30E9471236AE04E
:101A800070E0F701808191810E9476238BE30E94B0
:101A900071231F5FD1CF8DE591E00E94CD2310E02F
:101AA0008091AA02181788F4612F70E08CEB92E005
:101AB0000E943A12809142036AE070E0082E000C06
:101AC000990B0E9476231F5FEBCF86E391E00E9483
:101AD000CD2380919A026AE070E0082E000C990BE9
:101AE0000E9476238BE30E9471230E94B723811109
:101AF0000DC080E491E00E94CD236AE070E0809107
:101B00005C030E9463238BE30E9471238091AF02E8
:101B1000882321F083E491E00E94CD2383E00E949A
:101B200071238AE00E9471231092AE0281E08093BB
:101B3000AD028091AD0281113BC08091AE0288233D
:101B4000D9F140915703E7E4F3E080E090E020ED25
:101B5000E22E27E0F22E841710F010E00CC0219145
:101B600031911216130624F42E153F050CF47C0156
:101B70000196F1CF1F5F8091AA021817C8F4F0ED0B
:101B8000EF16F7E0FF06A1F0612F70E08CEB92E01A
:101B90000E943A1280914203082E000C990BE8161D
:101BA000F90641F76FEF610F8AE992E00E947E1318
:101BB0008091AE028111DCC11091AD028AE992E000
:101BC0000E9439131093AD02D3C175010C94BC036C
:101BD0001093590382E090E09093B3028093B20295
:101BE000E092AB020C94E303101611060CF07EC1D8
:101BF000F101D5AE99C9D101DA96ED91FC91DB974F
:101C0000808990E00197A816B90609F040C073CD0D
:101C1000C301B2010E947D2DF4CD9F3F39F08F3F6B
:101C200009F018CE03C0882309F455CE2DA93EA98A
:101C30002A193B09EBADFCAD8081082E000C990BF5
:101C4000821793070CF080C91D8719871E871A8792
:101C50001F871B87188B1C875FEFA51AB50A6CA519
:101C60007DA56F5F7F4F7DA76CA707CDAEA1BFA1FC
:101C70001C922496EEADFFAD2497108219871D8724
:101C80001A871E871B871F871C87188BE5CFAEA17D
:101C9000BFA18C91811103C0A18AE1E0EC93D10135
:101CA000DA96ED90FC90DB976CA57DA5C701829636
:101CB0000E943A12F701E855FF4F8081BAE00B9F6E
:101CC000800D11248A3008F48C59A0FC03C02D89A2
:101CD0009E8902C02B899C89E22FF92F90E0482F22
:101CE00050E06081262F062E000C330B2417350799
:101CF00019F06F3F19F48083292F01C02FEF9F5FE8
:101D0000943009F4A9CF31962F3F59F3A5CFE09035
:101D10009001D801DA968D909C90DB97B1E0EB12A0
:101D20003AC0E2E0CE1AD108B601C40182960E9400
:101D30003A12F401E855FF4F9081D801DF968C915B
:101D4000DF97981709F464C0DA968D909C90DB9722
:101D5000B601C40182960E943A12F401E855FF4F81
:101D6000A081AA0FBB0B8A0E9B1ED401A355BF4FA7
:101D7000F80182AD93AD24ADE22FEE0FFF0BE80F1B
:101D8000F91FE355FF4F2D913C91808191812817D8
:101D90003907F4F13AC0E11038C0F2E0CF1AD108A7
:101DA000B601C40182960E943A12F401E855FF4F31
:101DB0009081D801DE968C91DE97981749F1DA96DA
:101DC0008D909C90DB97B601C40182960E943A12D6
:101DD000F401E855FF4FA081AA0FBB0B8A0E9B1E92
:101DE000D401A355BF4FF80182AD93AD25ADE22FCD
:101DF000EE0FFF0BE80FF91FE355FF4F2D913C91BC
:101E000080819181821793071CF0FA94FA9467C934
:101E10006E2DC8010E947812F8CFF401808990E0FD
:101E20000197E816F9060CF0D2C98091900184253B
:101E3000809390013CCB25AD022E000C330B821712
:101E4000930709F4B5CAC2ACD3ACB7016D5F7F4F3D
:101E5000C60182960E943A12F601E855FF4F808132
:101E600090E0F80127AD022E000C330B8217930788
:101E700009F49ECAF80126AD022E000C330B82171E
:101E8000930709F09BCA94CA582E5394D801DA9646
:101E9000ED91FC91DB9784E090E0918F808F8ECA6A
:101EA00080915A03882309F424CD8091AE028111D8
:101EB000BCCB1092BC0210923B0310923D031092D7
:101EC0003C0387E0809340031092AA0281E0809354
:101ED000AE020FCDF101D7AE39A53F5F39A74BA1B7
:101EE0005CA1401B510B5CA34BA327C8D101DC961E
:101EF000DC92F2CF0E943A129091420380915903F2
:101F000098130C940E046091AC0270E08CEB92E09C
:101F10000E943A129091420380919A0298130C9475
:101F20000E048091AC0281508093AC0211E00C94BD
:101F30001504FA018081082E000C990BE816F906A9
:101F400051F4B0CCDC012C91022E000C330B621743
:101F5000730719F4B3CC81E0B6CCE815F905D9F3D1
:101F60000196A4CCC814D90409F4B5CC80E0AFCC58
:101F7000CD5BDF4F0FB6F894DEBF0FBECDBFDF9154
:101F8000CF911F910F91FF90EF90DF90CF90BF9076
:101F9000AF909F908F907F906F905F904F903F9009
:101FA0002F90089580E00895CF92DF92EF92FF92F4
:101FB0000F931F93F8940E94B22100919602109102
:101FC000970220919802309199026B017C01C01A0E
:101FD000D10AE20AF30A9701860160939602709390
:101FE000970280939802909399020A351105210572
:101FF000310578F181E0C8168DE7D806E104F104D7
:1020000010F4960102C021E03DE74A9B03C03195E0
:102010002195310980916A038A35D8F480916A0349
:102020008F5F80936A0380916B03609169030E94C4
:102030001D2D90936B03E0916B03F0E0EE0FFF1FFB
:10204000E359FC4F3183208380916B038F5F809332
:102050006B0378941F910F91FF90EF90DF90CF90DA
:1020600008958F929F92AF92BF92CF92DF92EF929C
:10207000FF928FB7F894C090F001D090F101E090FA
:10208000F201F090F3018FBF809193019091940140
:10209000A0919501B0919601C816D906EA06FB06F3
:1020A00048F4809191019091920101969093920150
:1020B00080939101C0929301D0929401E092950196
:1020C000F0929601A0919101B091920127E339E835
:1020D00041E450E00E94CC2C4B015C01C701B601E9
:1020E00028EE33E040E050E00E94AA2CC501B40184
:1020F000620F731F841F951FFF90EF90DF90CF90AA
:10210000BF90AF909F908F900895CF93DF93C2E0E0
:10211000D0E0FE01E658FF4F6491CE010E94801C82
:102120002196CB32D105A9F7C0E3D0E0C13321F429
:1021300064E881E390E002C060E0CE010E94801C70
:102140002196C833D10591F788E690E0DF91CF91D1
:102150000C9464218EBD0DB407FEFDCF8EB508959D
:10216000CF93DF932A981C9B0EC061E070E080E063
:1021700090E00E94D72180910401882399F081503A
:1021800080930401F0CF8EE70E94AA10C0E3D0E054
:10219000CE010E94821C0E94AA102196C833D1054C
:1021A000B9F72A9ADF91CF910895CF93DF93D82F73
:1021B000C62F2A981C9B0EC061E070E080E090E082
:1021C0000E94D72180910301882359F08150809388
:1021D0000301F0CF8D2F0E94AA108C2F0E94AA100D
:1021E0002A9ADF91CF910895CF93DF93D82FC62FEE
:1021F0002A981C9B0EC061E070E080E090E00E9495
:10220000D72180910201882361F0815080930201DF
:10221000F0CF8D2F8C2B0E94AA1080E00E94AA1074
:102220002A9ADF91CF91089560E888E00E94F41027
:10223000823339F460E880E00E94F41091E08D3040
:1022400009F090E0892F089580910501813011F007
:1022500084E301C084EF60EC0C94F410CF93C09140
:102260000501C13011F081E301C081EF60E80E94F7
:10227000F410CC2359F09FEF980F9E3F38F0109246
:10228000050160E881E3CF910C94F410CF9108959B
:102290002A989FEF23E230E01C9B07C0F901319799
:1022A000F1F79150C9F72A9A04C00E94AA102A9AFD
:1022B00091E0892F0895CF93C82F2A981C9B10C0B6
:1022C00061E070E080E090E00E94D7218091010100
:1022D000811102C080E01AC0815080930101EECFCD
:1022E0008C2F0E94AA10C82F1C9B0EC061E070E0CA
:1022F00080E090E00E94D72180910001882351F373
:10230000815080930001F0CF2A9A8C2FCF910895AD
:1023100086E30E945B1161E070E080E090E00C9445
:10232000D721E89880EC99E1909308018093070108
:1023300080919C0181110E94881110926A03109271
:102340006C0310926B030895CF930E948811CFEF16
:1023500084E30E945B11C1508077803141F061E0DD
:1023600070E080E090E00E94D721C111F1CF539836
:10237000CF91089584ED9FE0909308018093070129
:10238000809169008C7F816080936900E89A8091D8
:102390009C0181110C94A4110895CF93DF932A9A84
:1023A00083E790E0FC013197F1F72A980197F1F764
:1023B0002A9A8FEA90E00197F1F780E30E945B117F
:1023C0006AE070E080E090E00E94D7212A981C9B90
:1023D0000EC061E070E080E090E00E94D721809123
:1023E0000601882381F1815080930601F0CF80E4BB
:1023F0000E94AA10C2E0D0E0CE010E94821C0E947E
:10240000AA102196CB32D105B9F72A9A83E290E03F
:102410000197F1F784E190E00E94821C807790E0C0
:1024200024E0959587952A95E1F780930B010E940A
:10243000B01061E070E080E090E00E94D721DF9171
:10244000CF910C94A411DF91CF91089590ED980F46
:102450009A3070F09FE9980F963010F499EA05C011
:102460009FEB980F963018F499EC980F01C0982FB5
:10247000892F0895CF93DF93FC01EE57FF4F4081E2
:10248000469FD001479FB00D1124FD0123E0F69532
:10249000E7952A95E1F7EC01CB57DF4F288130E033
:1024A000E217F3070CF52297288130E0A770BB27CD
:1024B00002C035952795AA95E2F7E80FF91F3081FC
:1024C000232330E058E0541B469F402D11244770D1
:1024D000541B02C0359527955A95E2F7FC01EA573F
:1024E000FF4F2083822F01C08FEFDF91CF9108959E
:1024F000FC0187A98730A9F423A934A91216130671
:1025000084F492A9492F50E020AD30E021503109E8
:10251000421753078CF59F5F92ABDF01A90FB11DE6
:102520001C9295A9492F50E0282F30E02F5F3F4F94
:10253000241B350B1216130624F401C0660F2A95CE
:10254000EAF722A9DF01A20FB11D2C91622B6C9337
:1025500023A934A92F5F3F4F34AB23AB282F082E7C
:10256000000C330B241B350B37FD02C0891B01C047
:1025700087E087AB81E0089580E008950F931F9373
:10258000CF93DF93DC0150968C915097882309F408
:102590006BC0FD0136969D01225F3F4F11922E17B1
:1025A0003F07E1F7411101C0482F262F30E0359554
:1025B0002795E42FF0E0F595E79560FF17C0ED0152
:1025C000C955DF4F8881281728F4ED01C20FD31FAA
:1025D0009AA101C090E0892F8F70ED01C80FD11D25
:1025E0008E818F5F8E832F5F3F4F01C090E08D0102
:1025F00009551F4F622F70E06E177F07F0F4E80156
:102600008881281720F4ED01C60FD71F9AA1C92F82
:10261000D0E034E0D595C7953A95E1F7CA0FDB1FB6
:102620008E818F5F8E83892F8F70ED01C80FD11D32
:102630008E818F5F8E832F5FDDCF40FF15C0ED0150
:10264000C955DF4F8881E81718F4EA0FFB1F92A1E4
:10265000E92FF0E084E0F595E7958A95E1F7EA0F38
:10266000FB1F86818F5F8683DF91CF911F910F9132
:102670000895CF93DF93FC01DC01A354BF4F1C925C
:1026800011961C9212A25D971C92119611961C92A3
:102690001E92149687E08C93108A118E108E599694
:1026A0008FEF8C938083EF01C355DF4FA95BB10996
:1026B000CF010E96199219921D92A817B907D1F75A
:1026C000138A86E990E0978B868BDF01A755BF4F71
:1026D00040E050E060E87EE34D935D936D937C9322
:1026E0001397118A148A158A57961C92128A11A27E
:1026F00010A283E08583DF91CF9108953F924F929E
:102700005F926F927F928F929F92AF92BF92CF9281
:10271000DF92EF92FF920F931F93CF93DF93DC0131
:1027200054961C925497662309F4FBC050962C9142
:102730005097222309F4F5C030E0A62EB12CA21642
:10274000B3069CF0DF91CF911F910F91FF90EF9016
:10275000DF90CF90BF90AF909F908F907F906F90C1
:102760005F904F903F900C9439138C010E551F4F82
:10277000F80120813181A216B30608F0D2C0EC0125
:102780007C01F2E2EF0EF11CFC01EF55FF4FC90195
:102790000197A816B90641F41AA21082D8011D9219
:1027A0001C9287E035967CC02D01B4EA4B0E511C7B
:1027B000D2014C91649F3001112453E076946794C8
:1027C0005A95E1F7362C842E912C68E0C62ED12C38
:1027D000C601B4010E943D2DC5010E94292D00971C
:1027E00009F460C0489F802D112468E0681B908127
:1027F0002701462D43196916D8F46E01C60CD11C69
:10280000D60193964C91939750E0062E02C05595B1
:1028100047950A94E2F79296CC90082E01C0CC0C12
:102820000A94EAF74C29D2014D932D016394E1CF2C
:1028300020FD10C0BE01640F711DAE01460D511D7B
:10284000DA0192969C9101C0990F8A95EAF7DB0113
:1028500092969C932A193B09D8012D933C93829E12
:102860006001839ED00C929ED00C1124C60168E0BA
:1028700070E00E943D2DDE01AA55BF4F882321F054
:1028800097E0981B892F01C087E08C93C6018819B7
:10289000990997FD079623E0959587952A95E1F785
:1028A000808322C0408146194083772450E04F5FE7
:1028B0005F4FB701660D771DC7010E94122FF2010D
:1028C000608170E0C6010E943D2D669D9001679D6C
:1028D000300D769D300D1124D8018D919C9111976A
:1028E000821B930B8D939C9381E08C8BF80160810C
:1028F0007181688B662399F0772761507109C70150
:102900000E943A12FE01E855FF4F8081880F990B13
:1029100083559F4F8C0F9D1F99A388A302C019A2B6
:1029200018A2DF91CF911F910F91FF90EF90DF9050
:10293000CF90BF90AF909F908F907F906F905F905F
:102940004F903F900895CF93C82F803130F46AE0C4
:1029500070E080E090E00E94762360E170E08C2FD0
:10296000CF910C946323CF93DF93D82F8EEF8D0FED
:102970008E33F0F4C62F0E94D510D43151F48C2F31
:10298000807790E024E0959587952A95E1F78093EC
:102990000B0187E50E9471238D2F0E94A3148C2FB9
:1029A0000E94A3148EE791E0DF91CF910C94F22066
:1029B000DF91CF9108951F920F920FB60F921124BD
:1029C0002F933F934F935F936F937F938F939F9337
:1029D000AF93BF93EF93FF93E0919701F09198012C
:1029E0000995FF91EF91BF91AF919F918F917F9149
:1029F0006F915F914F913F912F910F900FBE0F906C
:102A00001F9018952F923F924F925F926F927F92F4
:102A10008F929F92AF92BF92CF92DF92EF92FF92EE
:102A20000F931F93CF93DF93CDB7DEB7C75AD14033
:102A30000FB6F894DEBF0FBECDBF0E949111CF5FDD
:102A4000DE4F19821882C150D14081E0C85EDE4F4E
:102A50008883C851D140C75EDE4F19821882C951A0
:102A6000D140C05DDE4F8883C053D140CF5CDE4F84
:102A700019821882C153D140C85BDE4F8883C85485
:102A8000D140C75BDE4F19821882C954D140C05A69
:102A9000DE4F8883C056D140CF59DE4F198218824D
:102AA000C156D140C858DE4F8883C857D1409E01D7
:102AB0002F5F3F4F790180E091E0D901FC011D9229
:102AC0003197E9F7CB57DE4F39832883C558D1407A
:102AD00066246A9400EE11E022242A94C257DE4F45
:102AE0001882CE58D140F1E0CD56DE4FF883C3595D
:102AF000D14088E1782E4E01939492E0492ED8017E
:102B00008C91833509F047C011968C91833459F428
:102B10002394E1E0F1E0EC0FFD1F729CE00DF11D4C
:102B2000112412821AC08D3461F42394E1E0F1E0A3
:102B3000EC0FFD1F729CE00DF11D1124B1E0B2837A
:102B40001FC0823581F42394E1E0F1E0EC0FFD1F1A
:102B5000729CE00DF11D11244282CD56DE4F188289
:102B6000C359D1400DC08E3459F42394E1E0F1E013
:102B7000EC0FFD1F729CE00DF11D112423E0228358
:102B80002110FDC043E050E060EE71E089EF91E07C
:102B90000E94C11930C08035B9F5D80112968C91C8
:102BA00012978D3309F0EBC011968C91B0EDDB2EAE
:102BB000D80EB7E0BD1508F4E2C04AE050E0BE010F
:102BC0006B577E4FC80103960E9449292CE0229D35
:102BD000F0011124ED0DF11DEE0FFF1FA1E0B1E09A
:102BE000AC0FBD1FEA0FFB1F708767832110C7C0A2
:102BF000C8010E94CD23CB57DE4FF982E882C55829
:102C0000D14000E010E0BBC08235C1F4F801818101
:102C10008D3309F0B4C04AE050E0BE016B577E4FDF
:102C2000C80102960E945F2AE1E0F1E0EC0FFD1F6F
:102C3000729CE00DF11D1124678BD8CF843451F5BF
:102C4000D80111968C918D3309F099C0CC24C3948E
:102C5000DC2CCC0EDD1E729CC00CD11C1124C801D2
:102C60000296F60194838383A401401B510B4D5FB0
:102C70005F4F6BE370E001960E94FC2ECB57DE4F56
:102C800099838883C558D140D60116969C938E931C
:102C9000159775C08334C9F4F80181818D3309F02B
:102CA0006EC04AE050E0BE016B577E4FC8010296ED
:102CB0000E945F2AE1E0F1E0EC0FFD1F729CE00D45
:102CC000F11D1124718360835AC0863409F057C006
:102CD000D80111968C918D3309F051C0CB57DE4F3E
:102CE00028813981C558D140201B310BC90101977A
:102CF00097FDC90195958795C257DE4F8883CE58B9
:102D0000D14081508530D8F580919C018823B9F15C
:102D1000C558DE4F1882CB57D1405E01B1E8AB1ADF
:102D2000BEEFBB0A6801E2E0CE0ED11C312C3DE0C3
:102D3000532E530C60E8852D0E94F410D5018D931D
:102D40005D01F601819191916F01C758DE4F998322
:102D50008883C957D14040E150E060E070E0CE0187
:102D600087589E4F0E944929852D0E94D510339483
:102D7000C257DE4FF881CE58D1403F16C0F2CB5734
:102D8000DE4F88819981C558D1400817190709F489
:102D900063C0E816F90639F00196CB57DE4F9983E8
:102DA0008883C558D140CB57DE4F08811981C5585B
:102DB000D140B12CCB57DE4FC880D980C558D14007
:102DC000CB0CD11CCB57DE4FD982C882C558D1401D
:102DD0000E94722197FD0DC0D6018C936B18CB57C2
:102DE000DE4FE881F981C558D14080818B3341F4B1
:102DF0000FC086EB90E00E9400218EEA90E01AC09E
:102E00008A3009F49FC2662029F0BB24B394D2CF44
:102E100061101DC08BEA94E00197F1F78E011395C4
:102E20000E94722197FF09C086EB90E00E9400216A
:102E300085EA90E00E94642189C28A309105A1F35D
:102E4000F70181937F01E017F10751F7EDCF118270
:102E50000115110509F053CE80919C018823A9F03A
:102E60008BE30E944811882381F00E9488111EEF95
:102E70001F3F51F085E30E945B110FEF010F807738
:102E8000803209F057C21111539ACD5FDE4F88810D
:102E9000C350D140811113C0C85EDE4FF881C851C4
:102EA000D140C357DE4FF883CD58D140F1110DC04A
:102EB00021E0C357DE4F2883CD58D14006C031E012
:102EC000C357DE4F3883CD58D140312C81E091E09B
:102ED0008C0F9D1FA8E1A29D800D911D1124FC0166
:102EE0003296CE55DE4FF983E883C25AD1409C0119
:102EF000295E3F4FCC55DE4F39832883C45AD140D9
:102F0000DC011396CA55DE4FB983A883C65AD14057
:102F1000CE55DE4FE881F981C25AD140808183309D
:102F2000C9F510E0CC55DE4FA881B981C45AD14013
:102F30008C9190E0212F30E0281739077CF0CD5696
:102F4000DE4FB881C359D140BB2309F4B2C161E05F
:102F500070E080E090E00E94D721ABC1CA55DE4FFF
:102F6000E881F981C65AD14060817181CE018758CC
:102F70009E4F0E94A71ACE0187589E4F0E945B2247
:102F8000C758DE4F88819981C957D1400E94C02817
:102F90001F5FC8CFC12CF8E1FC9DC0011124E1E006
:102FA000F1E0EC0FFD1FE80FF91F2281223009F03C
:102FB00080C0D12C9F01295E3F4FC757DE4F398318
:102FC0002883C958D1400796A1E0B1E0AC0FBD1FDE
:102FD000A80FB91FC557DE4FB983A883CB58D1407E
:102FE00022513109C157DE4F39832883CF58D14050
:102FF000CF010396C957DE4F99838883C758D140C4
:10300000C757DE4FA881B981C958D1408C91D816D5
:1030100008F049C1C157DE4FE881F981CF58D1404E
:1030200080809180C957DE4FA881B981C758D140AF
:10303000EC901196FC900E94B2212B013C0187017B
:10304000F8010815190560F50F5F1F4F8081805347
:10305000C557DE4FE881F981CB58D140E80FF11D0B
:10306000E80FF11DA080B1807501B7FE04C0EE2409
:10307000FF24EA18FB080E94B22164157505860535
:103080009705C8F3B7FE02C05B9801C05B9AC70101
:10309000FF0CAA0BBB0B480E591E6A1E7B1ED0CF1D
:1030A0000E94B2216415750586059705C8F3D3946F
:1030B000A7CF213009F0F7C000E0C757DE4FF983F2
:1030C000E883C958D1407796C256DE4FF983E8832A
:1030D000CE59D140C757DE4FE881F981C958D14058
:1030E0003596C056DE4FF983E883C05AD140C757A2
:1030F000DE4F28813981C958D1402D5F3F4FCC56D2
:10310000DE4F39832883C459D140C256DE4FA8818F
:10311000B981CE59D1408C91081708F0C4C0C75767
:10312000DE4FE881F981C958D140E080F180C05676
:10313000DE4FA881B981C05AD1400D90BC91A02D1D
:10314000CA56DE4FB983A883C659D140CC56DE4F4C
:10315000E881F981C459D140D08011810E94B22107
:103160004B015C01C957DE4FD882C758D140C857C0
:10317000DE4F1883C858D140C701FF0CAA0BBB0B08
:10318000C157DE4F88839983AA83BB83CF58D14030
:10319000880F991FAA1FBB1FC856DE4F88839983CB
:1031A000AA83BB83C859D140CA56DE4FA881B981D2
:1031B000C659D140C957DE4FE881F981C758D1407F
:1031C000EA17FB0708F06DC08191C957DE4FF983FC
:1031D000E883C758D1408A3314F097E301C090E3E5
:1031E000891B24E030E0C557DE4F39832883CB5854
:1031F000D14098E0D92EA82F880FBB0BC456DE4FC4
:10320000B983A883CC59D1402401350110E0ED2CBD
:10321000F12CC456DE4FE881F981CC59D140EE2221
:10322000FF22111104C0E114F10421F405C0E114DE
:10323000F10411F45B9801C05B9AC157DE4F88819D
:103240009981AA81BB81CF58D140480E591E6A1E70
:103250007B1E0E94B2216415750586059705C8F38B
:103260001F5F1230F1F6C856DE4F88819981AA811E
:10327000BB81C859D140880E991EAA1EBB1ED69488
:10328000C557DE4FA881B981CB58D1401197C5579A
:10329000DE4FB983A883CB58D140AB2B09F0B4CF14
:1032A00083CF0F5F32CF5B98C3942C1408F073CE9A
:1032B00046CE3394C357DE4FB881CD58D140B311B9
:1032C00027CEC257DE4FE881CE58D140EE23A9F079
:1032D0007E01F1E8EF1AFEEFFF0A10E0D7016D91D1
:1032E0007D018DE0810F0E94D5101F5FC257DE4F18
:1032F000B881CE58D140B113F1CFCE0101960E94D2
:10330000CD23E1E0F1E0EC0FFD1F28E1229EE00D6E
:10331000F11D11248281833051F08AE992E00E94EC
:10332000391310926A0310926C0310926B030E947F
:10333000BA110CC061E070E080E090E00E94D721FB
:10334000102F96CD662009F465CD86CDC955DE4F88
:103350000FB6F894DEBF0FBECDBFDF91CF911F91A6
:103360000F91FF90EF90DF90CF90BF90AF909F9024
:103370008F907F906F905F904F903F902F90089527
:103380000895CF92DF92EF92FF920F931F93CF9306
:10339000DF936C017A018B01C0E0D0E0CE15DF0530
:1033A00081F0D8016D918D01D601ED91FC910190D4
:1033B000F081E02DC6010995892B11F02196EECF01
:1033C0007E01C701DF91CF911F910F91FF90EF9088
:1033D000DF90CF900895089580E090E00895FC017B
:1033E000538D448D252F30E0842F90E0821B930B6A
:1033F000541710F0CF96089501970895FC01918D10
:10340000828D981761F0828DDF01A80FB11D5D9646
:103410008C91928D9F5F9F73928F90E008958FEFB4
:103420009FEF0895FC01918D828D981731F0828D68
:10343000E80FF11D858D90E008958FEF9FEF0895BF
:10344000FC01918D228D892F90E0805C9F4F821B23
:1034500091098F739927089589EF91E00E94201AAE
:1034600021E0892B09F420E0822F08950E94EB2EA1
:10347000EF92FF920F931F93CF93DF93EC0181E0C4
:10348000888F9B8D8C8D981305C0E889F989808180
:1034900085FD26C0F62E0B8D10E00F5F1F4F0F73BA
:1034A0001127E02E8C8DE8120CC00FB607FCFACF66
:1034B000E889F989808185FFF5CFCE010E945E1CE5
:1034C000F1CF8B8DFE01E80FF11DE35AFF4FF08223
:1034D0009FB7F8940B8FEA89FB89808180620AC0CC
:1034E0009FB7F894EE89FF896083E889F989808124
:1034F0008370806480839FBF81E090E0DF91CF91F3
:103500001F910F91FF90EF900895CF93DF93EC01FF
:10351000888D8823C9F0EA89FB89808185FD05C0F3
:10352000A889B9898C9186FD0FC00FB607FCF5CF2D
:10353000808185FFF2CFA889B9898C9185FFEDCF75
:10354000CE010E945E1CE7CFDF91CF910895EF92EC
:10355000FF920F931F93CF93DF93EC011982188290
:103560001B821A821D821C8261157105B9F17B01D3
:10357000FB0101900020E9F731978F01061B170B23
:10358000B8016F5F7F4F80E090E00E94252E00978A
:1035900059F0998388831B830A832C813D81232BD7
:1035A00081F4FC0110820DC088819981009711F08F
:1035B0000E94C028198218821D821C821B821A82D6
:1035C0000DC01D830C83B70188819981DF91CF9154
:1035D0001F910F91FF90EF900C94242FDF91CF91CA
:1035E0001F910F91FF90EF9008951F920F920FB6C9
:1035F0000F9211242F933F934F935F936F937F9379
:103600008F939F93AF93BF93EF93FF93E091090143
:10361000F0910A010995FF91EF91BF91AF919F91B0
:103620008F917F916F915F914F913F912F910F906B
:103630000FBE0F901F9018951F920F920FB60F920A
:1036400011242F933F934F935F936F937F938F93A7
:103650009F93AF93BF93EF93FF93E0910701F09196
:1036600008010995FF91EF91BF91AF919F918F91C3
:103670007F916F915F914F913F912F910F900FBE6E
:103680000F901F9018951F920F920FB60F92112452
:103690002F933F934F935F936F937F938F939F935A
:1036A000AF93BF93EF93FF9389EF91E00E945E1C6D
:1036B000FF91EF91BF91AF919F918F917F916F910A
:1036C0005F914F913F912F910F900FBE0F901F90E0
:1036D00018951F920F920FB60F9211242F938F936C
:1036E0009F93EF93FF93E0910902F0910A0280818A
:1036F000E0910F02F091100282FD12C09081809142
:1037000012028F5F8F7320911302821751F0E091A4
:103710001202F0E0E750FE4F958F8093120201C035
:103720008081FF91EF919F918F912F910F900FBE0C
:103730000F901F901895FC01CB01642F0994FC0198
:1037400009940F931F93CF938C01C62F89EF91E0BB
:103750000E94EF19892BD1F34C2F50E0B80189EF6B
:1037600091E0CF911F910F910C94C1190F931F936A
:10377000F8940E94B2210091960210919702209134
:10378000980230919902AB01BC01401B510B620BB6
:10379000730B22E020939B0181E09DE790939A01B7
:1037A00080939901909387008093860082E18093B3
:1037B000810041303DE753076105710588F14A9961
:1037C00003C02FEF32E802C021E03DE780916A0399
:1037D0008A35D8F480916A038F5F80936A03809161
:1037E0006B03609169030E941D2D90936B03E09120
:1037F0006B03F0E0EE0FFF1FE359FC4F3183208392
:1038000080916B038F5F80936B030E94B221609362
:10381000960270939702809398029093990238C011
:10382000413187E258076105710590F181E19DE71B
:10383000A0E0B0E0841B950BA60BB70B33E0880F1C
:10384000991FAA1FBB1F3A95D1F7009731E0A30734
:10385000B10520F421E020939B0109C020939B0136
:1038600023E0B695A795979587952A95D1F79093DC
:103870009A01809399018091990190919A01909376
:1038800087008093860080919B01806180938100F6
:1038900080919D010E941B2110929D01789480913E
:1038A000EE0191E0980F9093EE01811104C01F91F9
:1038B0000F910C9431101F910F910895FC01848D8C
:1038C000DF01A80FB11DA35ABF4F2C91848D90E04A
:1038D00001968F739927848FA689B7892C93A08925
:1038E000B1898C91837080648C93938D848D9813AF
:1038F00006C00288F389E02D80818F7D8083089542
:103900000C948C2C0C94842CCF92DF92EF92FF922B
:103910000F931F93CF93DF93CDB7DEB728970FB6E2
:10392000F894DEBF0FBECDBF89EF91E00E94201A50
:10393000892B09F442C41091EF011E3049F48EEE38
:1039400090E00E94002180EE91E00E94F22004C3EA
:1039500089EF91E00E94FE19E12FF0E0E052FE4F66
:1039600080838D3079F034F4882361F08A3009F057
:10397000F6C208C0833231F08B3309F0F0C20E94E6
:103980000215EAC28091E001873509F430C28CF457
:10399000803509F483C034F48F33F9F0833409F4AB
:1039A000F1C0A4C2823509F4C6C0863509F47FC0CF
:1039B0009DC2823709F402C23CF4883509F4D5C0AF
:1039C000853609F4D8C192C2843709F4C4C00CF416
:1039D00079C2883709F4D9C189C28FE30E94712363
:1039E0008FE392E00E94002186E50E9471238DE31F
:1039F00092E00E94002182E50E9471238DE392E013
:103A00000E94002184E70E9471238DE392E00E94CE
:103A1000002188E50E9471238DE392E00E9400213D
:103A200083E50E9471238DE392E00E94002180E5EE
:103A30000E9471238DE392E00E94002183E40E94A2
:103A400071238DE392E00E94002182E70E9471239E
:103A50008DE392E00E94002187E50E9471238DE3AF
:103A600092E00E94002183E70E9471238DE392E09F
:103A70000E94002180919C01882309F477C188E786
:103A80000E9471238DE392E00E94002185E60E944E
:103A900071238DE392E00E94002168C180E791E0EC
:103AA0000E94F2208BEC97E00197F1F752C288E177
:103AB00092E00E94002180919C018823C9F180E15D
:103AC00092E00E94002188E20E9471238BE092E044
:103AD0000E9400218DE392E00E94002185E092E0A7
:103AE0000E9400210E942E118530A9F028F4833015
:103AF00051F0843059F015C0843141F0873171F0B4
:103B0000873079F40BC083E791E002C085E791E04C
:103B10000E94CD230AC087E791E0FACF8AE791E0BF
:103B2000F7CF8CEF91E00E94002189E20E9471237F
:103B300088ED91E03CC320912104309122042115AD
:103B4000310511F427E234E06AE070E0CE0101961D
:103B5000821B930B6CC00E9431104AE00E9422230A
:103B60008CE791E00E941023F4C18091E10181353E
:103B700019F40E949111EDC1853409F0EAC10E9447
:103B8000BA11E7C18091E101873459F034F49CEB1C
:103B9000980F923008F44EC0A3C0833509F483C057
:103BA0009FC08AE091E00E94002188E091E00E949D
:103BB000002180919D026AE070E090E00E947623EF
:103BC00086E091E00E94002183E091E00E940021C4
:103BD00088E091E00E94002180919B026AE070E001
:103BE00090E00E94762386E091E00E94002180E030
:103BF00091E00E94002188E091E00E9400218091E4
:103C00009C026AE070E090E00E94762386E091E0FA
:103C10000E9400218FE791E00E94CD2388E091E08F
:103C20000E94002180919E026AE070E090E00E9474
:103C3000762396CF9091E201923579F034F4933463
:103C400009F087C1ECE9F2E00DC0933549F09535F4
:103C500009F07FC1EBE9F2E005C0EEE9F2E002C055
:103C6000EDE9F2E0853419F481E0808301C010822F
:103C700020919B02622F660F90919C0284E0989F96
:103C800090011124262B60919D02262B90919E027B
:103C9000E8E09E9FC0011124622F682B8FEF90E017
:103CA0000E94801C56C164E871E082EE91E00E949F
:103CB0002B2F892B09F44DC14AE050E060E070E001
:103CC00088EE91E00E944929862F60935B036AE0A9
:103CD00070E00E9463238DE091E00E94002139C1D1
:103CE000082E000C990B0E94F02E892B09F431C18B
:103CF0008091E201082E000C990B0E94F02E892B76
:103D000009F427C180919C01882309F422C140E174
:103D100050E060E070E081EE91E00E944929162FAA
:103D20008091E3018E3651F48091E401082E000C5D
:103D3000990B0E94F02E892B09F015C11E3308F053
:103D400041C11F3208F03CC160E8812F0E94F4108D
:103D5000082F83E40E947123812F0E94A3148BE813
:103D600091E00E94CD23802F0E94A3148EE791E062
:103D70000E94F220EEC080919C01882309F4E9C0E2
:103D80000E9485100E94CD11E4C08091E101082EAF
:103D9000000C990B0E94F02E892B09F4DAC0809157
:103DA000E201082E000C990B0E94F02E892B09F4D9
:103DB000D0C080919C01811165C1CBC08091E1018F
:103DC000082E000C990B0E94F02E892B09F4C1C01B
:103DD0008091E201082E000C990B0E94F02E892B95
:103DE00009F4B7C080919C01811172C1B2C0809169
:103DF000E101833509F040C09091E2019333E1F590
:103E00008091E301082E000C990B0E94F02E892B63
:103E100009F49FC040E150E060E070E082EE91E084
:103E20000E944929162F6E3308F093C0862F0E94F6
:103E30005B11F82E61E070E080E090E00E94D721F5
:103E40008DE30E945B11082F8FE391E00E94002117
:103E5000812F0E94A31482E391E00E9400218F2D04
:103E600082958F700E94A31489E291E00E94002144
:103E7000802F82958F7078CF082E000C990B0E94AE
:103E8000F02E892B09F465C08091E201082E000C08
:103E9000990B0E94F02E892B09F45BC08091E301FD
:103EA000082E000C990B0E94F02E892B09F451C0AA
:103EB0008091E401082E000C990B0E94F02E892BB2
:103EC000D1F447C080919C01882309F473C10E94FA
:103ED000141181116FC180E192E00E94002181E7FD
:103EE00091E00E94002187E691E061C18DE491E0BC
:103EF0000E94642131C01B828091E1019091E20116
:103F00009A83898340E150E060E070E0CE01019641
:103F10000E944929162F8091E3019091E4019A8330
:103F2000898340E150E060E070E0CE0101960E949C
:103F30004929062F812F90E00E94801C80919C01CE
:103F4000882321F0602F812F0E94B314123109F4CD
:103F5000F3C081E080939D011092EF012EC11F5F9D
:103F60001093EF01E1CC40E150E060E070E084EEBE
:103F700091E00E9449291F3260F782E0E82EE60EA8
:103F800083E40E947123812F0E94A3148EE60E9475
:103F900071238E2D0E94A3148DE30E947123F12CB6
:103FA000E10EF11C812F90E08E159F050CF0DECE06
:103FB00060E8812F0E94F4100E94A3141F5FF2CFCB
:103FC00060ECC3CE1E33C1F583E291E00E94002174
:103FD0002A981C9B0FC061E070E080E090E00E9496
:103FE000D72180910C01882309F4B3CF81508093AD
:103FF0000C01EFCF8EEF0E94AA108E010F5F1F4FB2
:104000006E01F9E0CF0ED11C780180E00E94AA1069
:10401000F70181937F01CE16DF06B9F72A9A81E274
:1040200091E00E940021F80181918F010E94A31468
:10403000C016D106A1F79ACE193909F08ACF10E03F
:10404000112341F0103111F0103279F481E291E046
:104050000E9400218AE191E00E940021812F0E94AC
:10406000A31487E191E00E94002160E8812F0E9463
:10407000F4100E94A31480E20E9471231F5F1F327C
:10408000F9F674CE40E150E060E070E081EE91E03E
:104090000E944929F62E00E310E0013321F46F2D30
:1040A00081E390E002C060E0C8010E94801C0F5FC5
:1040B0001F4F0833110589F70E94B01081ED91E080
:1040C0000E9400218F2D0E94A31480EC91E06FC00C
:1040D00040E150E060E070E081EE91E00E9449290B
:1040E000E62E89EB91E00E9400218DE392E00E9490
:1040F00000218E2D0E94A3148091E301F12C8E36B5
:1041000099F486EB91E00E94002100E010E0C701E5
:10411000800F911F0E94821C0E94A3140F5F1F4FEB
:1041200000311105A1F722CE82EB91E00E9400211F
:10413000C7010E94821C18CE82E090E00E94821C7F
:104140008D3009F006CF073C10F416EB01C016E5E0
:10415000612F83E290E00E94801C80919C01882363
:1041600021F0612F83E20E94B3148091E3019091CA
:10417000E4019A83898340E150E060E070E0CE0181
:1041800001960E944929673510F417E001C017E431
:10419000612F85E090E00E94801C80919C01882323
:1041A00009F4D7CE612F85E00E94B314D2CE0E94CD
:1041B0006421CFCE80E791E0DBCD28960FB6F8944E
:1041C000DEBF0FBECDBFDF91CF911F910F91FF904A
:1041D000EF90DF90CF9008950E942C1A81110C94DB
:1041E000841C0895CF93DF930E941023EC018CE789
:1041F00091E00E9410238C0F9D1FDF91CF910895B5
:104200000F931F93CF93DF938C01C0E0D0E0F801B0
:10421000EC0FFD1F6491662341F089EF91E00E944D
:10422000381A892B11F02196F2CFCE01DF91CF9170
:104230001F910F910895E7E8F2E09491E3E7F2E02F
:104240002491EFE5F2E0E491EE2309F43CC09923D8
:1042500039F1933091F038F49130A9F0923001F5B2
:1042600094B59F7D12C0973091F09830A1F09430B2
:10427000B9F4909180009F7D03C0909180009F775A
:10428000909380000DC094B59F7794BD09C0909124
:10429000B0009F7703C09091B0009F7D9093B000D5
:1042A000F0E0EE0FFF1FE45BFD4FA591B4919FB7C7
:1042B000F894811104C08C912095282302C0EC91C0
:1042C0002E2B2C939FBF0895CF93DF930E94002144
:1042D000EC018CE791E00E9410238C0F9D1FDF9171
:1042E000CF9108952FB7F8948091F0019091F1014A
:1042F000A091F201B091F3012FBF8093010290933E
:104300000202A0930302B093040289EF91E00E949D
:10431000FE1997FF26C02FB7F8948091F001909175
:10432000F101A091F201B091F3012FBF4091010280
:10433000509102026091030270910402841B950B5C
:10434000A60BB70B4091FD015091FE016091FF015A
:104350007091000284179507A607B707B0F28FEF98
:104360009FEF08953FB7F8948091F5019091F60181
:10437000A091F701B091F80126B5A89B05C02F3F89
:1043800019F00196A11DB11D3FBFBA2FA92F982F7B
:104390008827820F911DA11DB11DBC01CD0142E0F6
:1043A000660F771F881F991F4A95D1F708958F923E
:1043B0009F92AF92BF92CF92DF92EF92FF926B01EA
:1043C0007C010E94B2214B015C01C114D104E104C3
:1043D000F104F1F00E94B221DC01CB0188199909A6
:1043E000AA09BB09883E9340A105B10570F321E0FD
:1043F000C21AD108E108F10888EE880E83E0981E01
:10440000A11CB11CC114D104E104F10419F7DDCFE2
:10441000FF90EF90DF90CF90BF90AF909F908F90E4
:1044200008951F920F920FB60F9211242F933F936E
:104430008F939F93AF93BF938091F0019091F1017F
:10444000A091F201B091F3013091F40123E0230F28
:104450002D3720F40196A11DB11D05C026E8230FBC
:104460000296A11DB11D2093F4018093F001909359
:10447000F101A093F201B093F3018091F5019091C5
:10448000F601A091F701B091F8010196A11DB11DAF
:104490008093F5019093F601A093F701B093F80192
:1044A000BF91AF919F918F913F912F910F900FBE30
:1044B0000F901F9018959F92AF92BF92CF92DF926C
:1044C000EF92FF920F931F93CF93DF9300D000D012
:1044D00000D0CDB7DEB7FC0124813581232B09F450
:1044E0008DC08C0164E471E0CE0101960E94A71A90
:1044F000F80184819581C980DA80892B59F0E080A8
:10450000F180B601C7010E942B2F009719F08E1978
:104510009F0902C08FEF9FEFF82EC6010E94C028AE
:10452000FFEFFF1223C06DE771E0CE0101960E94FC
:10453000A71AF80184819581C980DA80892B59F006
:10454000E080F180B601C7010E942B2F009719F07F
:104550008E199F0902C08FEF9FEFF82EC6010E94AF
:10456000C028FFEFFF1202C0F801F4802A988FE7FD
:104570000E94AA10E12CEF1488F5CE2CD12CF80162
:10458000A480B580CA14DB0448F48081918100972F
:1045900029F0FC01EC0DFD1D808101C080E00E942E
:1045A0002612982E929480EF982296012F5F3F4F0B
:1045B0002A153B0550F4F80180819181009729F07C
:1045C000FC01E20FF31F808101C080E00E942612EF
:1045D000890D0E94AA10E394E394CDCF2A9A18EC97
:1045E00060EC85E30E94F410833141F461E070E0F7
:1045F00080E090E00E94D721115091F726960FB6E7
:10460000F894DEBF0FBECDBFDF91CF911F910F9108
:10461000FF90EF90DF90CF90BF90AF909F90089564
:10462000009769F0FC0101900020E9F73197AF0194
:10463000481B590BBC0189EF91E00C94C11980E033
:1046400090E008958F929F92AF92BF920F931F9325
:10465000CF93DF93CDB7DEB7A1970FB6F894DEBF47
:104660000FBECDBF19A2423008F44AE08E010F5DA3
:104670001F4F842E912CA12CB12CA50194010E94D6
:10468000AA2CE62FB901CA0101501109EA3014F42D
:10469000E05D01C0E95CD801EC93232B242B252B92
:1046A00061F7C8010E941023A1960FB6F894DEBFEF
:1046B0000FBECDBFDF91CF911F910F91BF90AF90F3
:1046C0009F908F900895AB01682F4115510521F4FB
:1046D00089EF91E00C94381A70E080E090E00C943F
:1046E0002223682F89EF91E00C94381ACF92DF9241
:1046F000EF92FF92CF93DF936115710559F4682F04
:1047000089EF91E0DF91CF91FF90EF90DF90CF9014
:104710000C94381A6C01990FEE08FF086A30710585
:10472000D9F4F7FE17C08DE20E947123EC016627D1
:104730007727CB016C197D098E099F094AE00E94F9
:1047400022238C0F9D1FDF91CF91FF90EF90DF9080
:10475000CF9008954AE001C0462FC701B601DF910E
:10476000CF91FF90EF90DF90CF900C942223809117
:104770005D0390915E03892B71F480915F039091AA
:104780006003892B41F4809161039091620321E0E1
:1047900082278170089580E008950C941023CF93B0
:1047A000DF93CDB7DEB72A970FB6F894DEBF0FBE02
:1047B000CDBF789484B5826084BD84B5816084BDAA
:1047C00085B5826085BD85B5816085BD80916E00AF
:1047D000816080936E0010928100809181008260E0
:1047E000809381008091810081608093810080911D
:1047F00080008160809380008091B100846080930C
:10480000B1008091B00081608093B00080917A0007
:10481000846080937A0080917A00826080937A002D
:1048200080917A00816080937A0080917A0080681C
:1048300080937A001092C100E0910902F0910A027F
:1048400082E08083E0910902F0910A021082E091F7
:104850000502F09106021082E0910702F091080231
:1048600080E1808310921102E0910D02F0910E021E
:1048700086E08083E0910B02F0910C0280818061E0
:104880008083E0910B02F0910C028081886080832C
:10489000E0910B02F0910C02808180688083E091AE
:1048A0000B02F0910C0280818F7D80835298219AB7
:1048B000259A239A2498229A80E58CBD2A9A2D9ACB
:1048C0002B98529853982D9A2B9880E090E00E9454
:1048D000821C833309F0EAC281E090E00E94821CCE
:1048E0008D3109F0E3C28FEF90E00E94821C982F77
:1048F000917090939D0281FB992790F990939B0270
:1049000082FB992790F990939C0283FB882780F97A
:1049100080939E020E94CD110E942E11815091E041
:104920008E3F08F090E090939C011E821D828E3F86
:1049300098F48FE99BE19C838B838B819C81AD8173
:10494000BE8180935F0390936003A0936103B09353
:10495000620384E291E112C08FE99BE19C838B8327
:104960008B819C81AD81BE8180935F0390936003B6
:10497000A0936103B093620382ED9FE090935E0386
:1049800080935D03539A62E370E080E090E00E94C0
:10499000D72180E1809381001092800082E0809393
:1049A0009B0181E09DE790939A01809399019093F8
:1049B00087008093860082E18093810086EB9BE1F3
:1049C000909398018093970181E080936F001E82FD
:1049D0001D828BE99BE19C838B838B819C81AD81C4
:1049E000BE818093650390936603A0936703B093A1
:1049F000680381EA9BE19093640380936303809151
:104A00009C01882309F468C20E941411811164C2B8
:104A100080E991E0A0E0B0E08093FD019093FE0179
:104A2000A093FF01B093000272E0872E912CA12C7D
:104A3000B12C66246394E7E07E2EF3E0CF2ED12CD8
:104A400080910B01833009F0B8C180916A038823FB
:104A500009F429C280916A03815080936A0380918E
:104A60006C03609169030E941D2D90936C03E0918B
:104A70006C0381E08E0F80936C03F0E0EE0FFF1F5C
:104A8000E359FC4F8081918190939F0180939E0117
:104A90001092AD026091AA02662391F070E061501D
:104AA00071098CEB92E00E943A1280914203880FC8
:104AB000990B895B9C4F9093BB028093BA0204C010
:104AC0001092BB021092BA0240919E0150919F0138
:104AD000E091B802F091B902518340839091AA020B
:104AE000992379F0E091BA02F091BB02309749F036
:104AF0002081318124273527232F221F2227221F9F
:104B000001C021E031E09E3F09F430E081E0411531
:104B100053480CF480E0832311F0211132C00E942D
:104B200074018091AD02811104C080915A038823E1
:104B3000B1F08091AA028823D1F0E091BA02F091FD
:104B4000BB023097A1F0A091B802B091B9022D91AB
:104B50003C91808191818227932797FD08C08AE943
:104B600092E00E9439131092BB021092BA02809117
:104B7000AA028E3F81F560E070E0CB010E94D72150
:104B80002AC0983241F5D092B302C092B2020E947C
:104B9000B723811120C020915D0330915E03E09125
:104BA0005F03F09160034091610350916203CA0179
:104BB0009595879540FF0AC0D901A80FB91F4D915F
:104BC0005C91E40FF51F0190F081E02D820F931F9F
:104BD000099580935C03E090B802F090B902D70188
:104BE0000D911C91B80117FF04C066277727601B41
:104BF000710B072E000C880B990B0E94672B2DEC74
:104C00003CEC4CE45EE30E94C62B0E94F12D9B011C
:104C10007093B1026093B00260915703E7E4F3E050
:104C2000512C6515C1F081919191A8014827592710
:104C300057FD0FC0009769F0A801481B590BCA0126
:104C400057FF03C0919581959109281739070CF0FA
:104C500046C15394E6CF6830E1F540E060E08AE970
:104C600092E00E94BE12E0915803F0E0E656FD4F3C
:104C70008681833040F00E94740140E060E08AE960
:104C800092E00E94BE121091AA021150E0915803C6
:104C9000F0E0E656FD4F86818823D9F08091AA0284
:104CA0008823B9F0612F70E08CEB92E00E943A12F9
:104CB00020914203022E000C330B8091580390E0A8
:104CC0002817390711F761E0610F8AE992E00E9425
:104CD0007E1350905803E091B802F091B9028081A0
:104CE0009181E52DF0E0EE0FFF1FE95BFC4F918312
:104CF000808381E0850D883019F08093580306C0C9
:104D0000109258038093570310925A0380915803CE
:104D100090915703981710F480935703352D2091E5
:104D2000400380913C0390913D032730B9F418165D
:104D30001906A4F4E0913B036E2F70E0409141030B
:104D400050E041505109641775070CF0F7C0EF5F50
:104D5000E0933B03F0E0E656FD4F12A2A0913E0324
:104D60004A2F50E0622F70E06F5F7F4F641B750B1E
:104D7000161617062CF4352D01C0330F6A95EAF785
:104D8000E0913B03F0E0E656FD4F62A1362B32A3E3
:104D9000019690933D0380933C03622F022E000CFA
:104DA000770BFB01E41BF50BF7FD04C02A1B2093D6
:104DB0004003B8C070924003B5C04A9B74C0809154
:104DC0009D010E941B2160EC8BE30E94F410582E81
:104DD000882309F468C00E942411382E57FC4CC067
:104DE000F0E4F51510F490E4592E2A988FEF0E9404
:104DF000AA1080EAE82E81E0F82E8701222423946D
:104E0000412C80E00E94AA10D8019C91891711F0D2
:104E10008C93212C43940F5F1F4F451490F32A9AD3
:104E200080910B01823019F4211026C002C0893014
:104E300039F082E00E94712388EE90E00E94002108
:104E400010E0F70181917F010E94A3141F5F1515E7
:104E5000C0F384EE90E00E9400216AE070E0832DB0
:104E60000E9463238BE30E94712383E00E947123DD
:104E70008DE791E00E94CD2360EC85E30E94F41061
:104E8000813121F080910B0181110DC086E30E94D8
:104E90004811882341F08DE30E945B118AE30E9450
:104EA0005B110E94A4110E94EC20CACD6FE08FEF2D
:104EB00090E00E94801C80EC90E00E94642163E3FB
:104EC00080E090E00E94801C6DE181E090E00E9413
:104ED000801C0E94851007CD0E94BA1199CD57FC05
:104EE000BACE052D000F110B095B1C4FD8016D9137
:104EF0007C919B01770F440B550BD7018D919C91B1
:104F0000092E000CAA0BBB0B280F391F4A1F5B1F71
:104F1000CA01B901A50194010E94512DF801318304
:104F20002083FCCE8093AA021092AE028091AD0243
:104F3000882309F48ACD60929D0187CD60E070E0FE
:104F4000CB010E94D721F2CFCF93DF93E9EFF1E0BD
:104F50001382128288EE93E0A0E0B0E08483958310
:104F6000A683B7838BE191E09183808385EC90E009
:104F70009587848784EC90E09787868780EC90E023
:104F8000918B808B81EC90E0938B828B82EC90E014
:104F9000958B848B86EC90E0978B868B118E128E8E
:104FA000138E148EE9E6F3E08AE580831182138282
:104FB0001282CAE9D2E084EB92E09F8F8E8F19A211
:104FC00018A28FE78093410384E080933E031AA2E6
:104FD00010923B0310923D0310923C0387E08093B4
:104FE000400380EF80933F0310925C0310925E03B6
:104FF00010925D031092600310925F03109262039F
:10500000109261031092640310926303109266037E
:105010001092650310926803109267031B8E1A8E1C
:10502000CE010E94391381E180935B031D8281E0F0
:105030008C831F861E860E94B22160939602709315
:1050400097028093980290939902DF91CF910895EF
:105050000F931F93CF93DF938230910510F482E07A
:1050600090E0E0912304F091240420E030E0A0E0FF
:10507000B0E0309719F140815181028113814817C6
:105080005907C8F08417950769F4109731F0129604
:105090000C93129713961C9327C00093230410932C
:1050A000240422C02115310519F04217530718F4C2
:1050B0009A01BD01EF01DF01F801DBCF21153105B8
:1050C000F9F0281B390B2430310580F48A819B814B
:1050D0006115710521F0FB019383828304C09093D5
:1050E000240480932304FE01329644C0FE01E20FA3
:1050F000F31F8193919322503109398328833AC059
:105100002091210430912204232B41F420910F019E
:1051100030911001309322042093210420910D013D
:1051200030910E012115310541F42DB73EB7409164
:10513000110150911201241B350BE0912104F091D3
:105140002204E217F307A0F42E1B3F0B28173907A0
:1051500078F0AC014E5F5F4F2417350748F04E0FD3
:105160005F1F50932204409321048193919302C0C6
:10517000E0E0F0E0CF01DF91CF911F910F91089512
:10518000CF93DF93009709F481C0FC01329713821B
:105190001282A0912304B0912404109781F42081FD
:1051A0003181820F931F209121043091220428170E
:1051B000390751F5F0932204E093210467C0ED0113
:1051C00020E030E0CE17DF0740F44A815B819E018A
:1051D00041155105F1F0EA01F5CFD383C283408137
:1051E0005181840F951FC817D90759F48881998177
:1051F000840F951F0296918380838A819B8193837C
:1052000082832115310529F4F0932404E0932304CB
:105210003DC0E901FB83EA8349915991C40FD51F31
:10522000EC17FD0761F480819181840F951F029630
:10523000E90199838883828193819B838A83E0E05B
:10524000F0E012968D919C911397009719F0FD0153
:10525000DC01F7CF8D919C9111979D012E5F3F4FFF
:10526000820F931F209121043091220428173907BF
:1052700069F4309729F4109224041092230402C098
:1052800013821282B0932204A0932104DF91CF9164
:105290000895A0E0B0E0EFE4F9E20C94D82C5C01B2
:1052A0006B017A016115710519F0FB01918380830F
:1052B000E114F10429F0C7010297839708F0E5C0D3
:1052C000E5012196F5011081812F90E00E94542B79
:1052D000892B11F05E01F4CF1D3229F42196F501DE
:1052E000118101E007C01B3221F4E5012296F5018E
:1052F000118100E0E114F10409F1F0E1EF16F1048D
:1053000029F43FC010E3E114F10421F128E0E21692
:10531000F10401F154F4E2E0EE16F10421F5812CE0
:10532000912CA12CB0E4BB2E3EC0FAE0EF16F104A4
:1053300039F020E1E216F104B1F430C0103319F174
:10534000FAE0EF2EF12CACEC8A2E982CA82CACE0D5
:10535000BA2E29C078E0E72EF12C812C912CA12CBB
:10536000E0E1BE2E20C060E070E080E090E89701B0
:105370000F2C000C440B550B0E94AA2C49015A011A
:1053800012C0103359F488818F7D883509F0BACF67
:1053900019812296026080E1E82EF12C812C912C5B
:1053A000A12C68E0B62E40E060E070E0CB01270160
:1053B0000F2C000C66087708FE0150ED352E310EDB
:1053C00029E0231570F42FEB210F2A3118F439EC62
:1053D000332E06C02FE9210F2A3118F529EA322E83
:1053E000310E232D30E02E153F05DCF447FD16C0AD
:1053F00086169706A806B90670F0A30192010E94CE
:105400009A2C630D711D811D911D613071058105FF
:1054100020E8920710F04FEF01C041E02196108183
:10542000CBCF202F2170C114D10471F0442329F077
:105430002197F601D183C08307C001FF19C02297CD
:10544000F601D183C08314C047FF12C0222329F084
:1054500060E070E080E090E804C06FEF7FEF8FEFD6
:105460009FE722E230E0309326042093250409C010
:10547000222381F090958095709561957F4F8F4F95
:105480009F4F462F372F282F12C040E030E020E0FA
:1054900090E00DC097FFF5CF82E290E09093260454
:1054A000809325046FEF7FEF8FEF9FE7EACF642FA4
:1054B000732F822FCDB7DEB7E1E10C94F42CA0E07E
:1054C000B0E0E5E6FAE20C94D82C5C016B017A01BD
:1054D0006115710519F0FB0191838083E114F104DA
:1054E00029F0C7010297839708F0C9C0E50121960A
:1054F000F5011081812F90E00E94542B892B11F02F
:105500005E01F4CF1D3229F42196F501118101E0ED
:1055100007C01B3221F4E5012296F501118100E05C
:10552000E114F104B1F0F0E1EF16F10429F4B0C098
:1055300010E3E114F10401F12AE0E216F104B1F103
:1055400080E1E816F10471F0E8E0EE16F104F1F400
:1055500013C0103341F588818F7D883549F7198153
:1055600022960260F0E1EF2EF12C88248A94982C88
:10557000A82CAFE0BA2E20C078E0E72EF12C8824CA
:105580008A94982CA82CEFE1BE2E16C06FEF7FEF07
:10559000CB0197010F2C000C440B550B0E94AA2C39
:1055A00049015A0109C08AE0E82EF12C69E9862EEA
:1055B000982CA82C69E1B62E40E060E070E0CB01A9
:1055C00027010F2C000C66087708FE0150ED352EE0
:1055D000310E29E0231570F42FEB210F2A3118F436
:1055E00039EC332E06C02FE9210F2A3130F529EA94
:1055F000322E310E232D30E02E153F05F4F44F3FAF
:10560000C9F086169706A806B90688F0A30192018C
:105610000E949A2C232D30E040E050E0620F731F6F
:10562000841F951F621773078407950710F44FEFC7
:1056300001C041E021961081C8CFC114D10451F0BE
:10564000442311F0219703C001FF04C02297F60103
:10565000D183C08300FF07C09095809570956195B8
:105660007F4F8F4F9F4F4F3F79F482E290E09093AE
:105670002604809325043FEF2FEF9FEF0DC040E0FD
:1056800030E020E090E008C0462F372F282F04C0DC
:10569000103309F067CF5FCF642F732F822FCDB700
:1056A000DEB7E1E10C94F42C91110C945D2B803267
:1056B00019F089508550C8F70895992788270895CB
:1056C0000E94A22B08F481E00895E89409C097FB9A
:1056D0003EF490958095709561957F4F8F4F9F4FC9
:1056E0009923A9F0F92F96E9BB279395F69587950D
:1056F00077956795B795F111F8CFFAF4BB0F11F4D0
:1057000060FF1BC06F5F7F4F8F4F9F4F16C0882376
:1057100011F096E911C0772321F09EE8872F762FAC
:1057200005C0662371F096E8862F70E060E02AF0ED
:105730009A95660F771F881FDAF7880F96958795D9
:1057400097F90895990F0008550FAA0BE0E8FEEFAE
:1057500016161706E807F907C0F012161306E40735
:10576000F50798F0621B730B840B950B39F40A262E
:1057700061F0232B242B252B21F408950A2609F40C
:10578000A140A6958FEF811D811D08950E94D92B00
:105790000C944A2C0E943C2C38F00E94432C20F0A0
:1057A000952311F00C94332C0C94392C11240C9467
:1057B0007E2C0E945B2C70F3959FC1F3950F50E0F7
:1057C000551F629FF001729FBB27F00DB11D639FB3
:1057D000AA27F00DB11DAA1F649F6627B00DA11D59
:1057E000661F829F2227B00DA11D621F739FB00DFF
:1057F000A11D621F839FA00D611D221F749F33276F
:10580000A00D611D231F849F600D211D822F762F07
:105810006A2F11249F5750409AF0F1F088234AF0E4
:10582000EE0FFF1FBB1F661F771F881F9150504050
:10583000A9F79E3F510580F00C94332C0C947E2CDC
:105840005F3FE4F3983ED4F3869577956795B795D7
:10585000F795E7959F5FC1F7FE2B880F911D9695F1
:10586000879597F9089597F99F6780E870E060E061
:1058700008959FEF80EC089500240A9416161706E9
:1058800018060906089500240A9412161306140631
:1058900005060895092E0394000C11F4882352F094
:1058A000BB0F40F4BF2B11F460FF04C06F5F7F4F4C
:1058B0008F4F9F4F089557FD9058440F551F59F033
:1058C0005F3F71F04795880F97FB991F61F09F3FED
:1058D00079F087950895121613061406551FF2CF16
:1058E0004695F1DF08C0161617061806991FF1CF66
:1058F00086957105610508940895E894BB2766278D
:105900007727CB0197F90895F999FECF92BD81BD14
:10591000F89A992780B50895262FF999FECF1FBAD6
:1059200092BD81BD20BD0FB6F894FA9AF99A0FBEC8
:1059300001960895DB018F939F930E94CC2CBF9119
:10594000AF91A29F800D911DA39F900DB29F900DCE
:1059500011240895A1E21A2EAA1BBB1BFD010DC044
:10596000AA1FBB1FEE1FFF1FA217B307E407F5070F
:1059700020F0A21BB30BE40BF50B661F771F881FEB
:10598000991F1A9469F760957095809590959B0181
:10599000AC01BD01CF0108950E940E2DA59F900D71
:1059A000B49F900DA49F800D911D112408952F92F6
:1059B0003F924F925F926F927F928F929F92AF929F
:1059C000BF92CF92DF92EF92FF920F931F93CF93EC
:1059D000DF93CDB7DEB7CA1BDB0B0FB6F894DEBF83
:1059E0000FBECDBF09942A88398848885F846E84A9
:1059F0007D848C849B84AA84B984C884DF80EE80F3
:105A0000FD800C811B81AA81B981CE0FD11D0FB6FB
:105A1000F894DEBF0FBECDBFED010895A29FB00187
:105A2000B39FC001A39F700D811D1124911DB29FD2
:105A3000700D811D1124911D0895991B79E004C0FA
:105A4000991F961708F0961B881F7A95C9F78095BD
:105A50000895AA1BBB1B51E107C0AA1FBB1FA617B5
:105A6000B70710F0A61BB70B881F991F5A95A9F707
:105A700080959095BC01CD01089597FB072E16F4F3
:105A8000009407D077FD09D00E94292D07FC05D08E
:105A90003EF4909581959F4F0895709561957F4F45
:105AA0000895052E97FB1EF400940E94682D57FD63
:105AB00007D00E94AA2C07FC03D04EF40C94682D4A
:105AC00050954095309521953F4F4F4F5F4F08952A
:105AD00090958095709561957F4F8F4F9F4F08955A
