:100000000C94C4000C94641C0C943D1C0C94EC00E7
:100010000C94EC000C94EC000C94EC000C94EC00B0
:100020000C94EC000C94EC000C94EC000C94EC00A0
:100030000C94EC000C942F1B0C94EC000C94EC0032
:100040000C946F1E0C94EC000C94B11C0C948B1C43
:100050000C94EC000C94EC000C94EC000C94EC0070
:100060000C94EC000C94EC00746F206C6F6E6720A5
:1000700000636F72727570740073656E6420636DD7
:1000800064200000000000250028002B0004040468
:100090000404040404020202020202030303030331
:1000A000030102040810204080010204081020010E
:1000B00002040810200000000800020100000304F0
:1000C000070000000000000000436F6D6D616E646A
:1000D00020746F206C6F6E673A20004D43004D55C1
:1000E000003B003D004D530020626974732073652E
:1000F0007400556E737570706F72746564207368E8
:100100006F727420636F6D6D616E6400202D2063CB
:100110006F6D70696C656420617420536570202078
:100120003520323032302031353A30303A343700F1
:100130005620332E352E302D6465765F32303230C6
:1001400030383131205349474E414C6475696E6FE8
:100150002000200020557365206F6E65206F66209B
:1001600000496E697420656570726F6D20746F2030
:1001700064656661756C747320616674657220666F
:100180006C6173680000432211241FBECFEFD8E0DA
:10019000DEBFCDBF12E0A0E0B1E0E8E9F7E502C0C4
:1001A00005900D92A431B107D9F724E0A4E1B2E0A3
:1001B00001C01D92AA36B207E1F710E0C4ECD0E00E
:1001C00004C02197FE010E941628C33CD107C9F73D
:1001D0000E94D41E0C94CA2B0C9400002F923F92C4
:1001E0004F925F926F927F928F929F92AF92BF9247
:1001F000CF92DF92EF92FF920F931F93CF93DF93F3
:10020000CDB7DEB7C955D1090FB6F894DEBF0FBE22
:10021000CDBF9E012F5F3F4F190186E1D9011D928D
:100220008A95E9F780919D032091ED02811104C028
:10023000283210F40C94570E1092F00291E02E3FE9
:1002400009F090E09093F20240E060E081114BC22F
:100250008DED92E00E944C13D12CED2DF0E0FEA725
:10026000EDA7F0919A03FFA78F2F90E001972DA59E
:100270003EA5281739070CF016C1F901E352FD4FCE
:10028000CF0106962681222309F40BC1CC24C39406
:10029000CD0C2DA53EA5220F331FA90146575C4F5B
:1002A0005AAB49AB9CAB8BAB5EAB4DAB80919A0329
:1002B000C81608F0F6C06C2C712CB30163527D4F48
:1002C00078AB6FA7DB0116968C91882309F4E7C001
:1002D000E9A9FAA9E080F180F301EE0FFF1FE657CC
:1002E000FC4F00811181C7018027912797FDD7C05E
:1002F0008090860390908703A0908803B090890334
:10030000B80117FF04C066277727601B710B072E03
:10031000000C880B990B0E940626A50194010E94EF
:1003200065266FAB78AF89AF9AAFB701F7FE04C00F
:10033000662777276E197F09072E000C880B990B0B
:100340000E940626A50194010E9465269B01AC012E
:100350006FA978AD89AD9AAD0E941D2820E030E0EC
:1003600040E05FE30E9465260E9489280E191F095C
:1003700017FF03C0119501951109601771070CF45F
:100380008EC0F12CE12C0FA518A90A5F1F4F809198
:10039000ED02F81608F049C0D8018C91E81608F073
:1003A00044C06F2D70E08FEF92E00E94A612809102
:1003B0008503082E000C990B68167906A1F580912B
:1003C0008103482F50E0F89EC0011124FC0163E036
:1003D000F695E7956A95E1F720918403E21710F509
:1003E00087709927FF27E352FD4F2091820330E069
:1003F000082E02C0359527950A94E2F7209532A180
:10040000232368E070E0641B750BDB01A81BB90BAC
:100410004DA55EA502C0440F551FAA95E2F7CA017B
:10042000822B82A3E394F394B2CFABA9BCA9EC9046
:10043000EFA5F8A9F680EDA9FEA9A081B1818301FD
:10044000000F111F06571C4FF801A080B180EE2D40
:10045000F0E09F010E940F282B013C014F2D50E03E
:100460009A01D5010E940F28640D751D861D971DE8
:10047000E40FF51F9F01FF0F440B550B0E94F0275F
:10048000ADA9BEA92D933C93FE0CEBA9FCA9F0826B
:10049000AFA5B8A916961C92F80111821082C394D8
:1004A00005CFD394DACE1092F6021092F5028FEFB8
:1004B0008093DD02F091ED02F9AB2F2F30E03CABE1
:1004C0002BAB4DEDC42E42E0D42E4AE853E05EA79C
:1004D0004DA7E12CF12C0FEF1FEF4901330FAA08B4
:1004E000BB085FA5E51608F05EC00F3F6FEF16076B
:1004F00009F5ADA5BEA58D919C9197FD1BC0F60198
:10050000668170E080E090E00E9406262B013C01AD
:10051000C501B4010E9406262BE734E14EE25EE3FA
:100520000E9465269B01AC01C301B2010E94BF2855
:1005300018165CF1ADA5BEA58D919C9197FD26C0C6
:10054000F801EE0FFF1FE657FC4F20813181821723
:100550009307E4F4F601668170E080E090E00E9489
:1005600006262B013C01C501B4010E9406262BE79B
:1005700034E14EE25EE30E9465269B01AC01C301BB
:10058000B2010E94BF2818160CF48701FFEFEF1A82
:10059000FF0A2FEFC21AD20A4DA55EA54E5F5F4F2C
:1005A0005EA74DA79ECF0F3F5FEF150741F0009369
:1005B000DD0281E090E09093F6028093F502809155
:1005C000F5029091F602019709F091C08091E00246
:1005D000882309F48CC06BA97CA9663A71051CF4C8
:1005E00009A9085201C00DE71FA5115096E0D92EA8
:1005F0001F3F09F475C0E12E012E000CFF08F70122
:10060000EE0FFF1FE657FC4F2081318137FF66C098
:10061000319521953109283672E437070CF05EC018
:10062000E091DD02EE0FFF0BE657FC4F0190F081E9
:10063000E02DC901BF010E94C8276D32710508F085
:100640004DC0DE9EC001DF9E900D112482179307DE
:1006500008F044C0F701E352FD4FF6806F2D70E0C3
:1006600080E090E00E9406264B015C016091ED0263
:1006700070E080E090E00E9406262AE037ED43EA31
:100680005DE30E9465269B01AC01C501B4010E9497
:10069000FF2587FF23C081E08F1500F5E12CF12CA9
:1006A000E016E0F457019FEFA91AB90AB5018FEFE0
:1006B00092E00E94A6128091850318130C94A30E59
:1006C000B7018FEF92E00E94A6129091850380916E
:1006D000DD0298130C94A30E0C94A60E115088CF33
:1006E00010939C0304C08DED92E00E944C13809106
:1006F000F5029091F602029709F01BC28091ED027B
:10070000883208F416C28091EE028E5F8093EF0269
:1007100010E06091EF0270E08091ED0290E00197AF
:1007200068177907ACF46F5F7F4F8FEF92E011117C
:100730000C9443100E94A6129091850380919C0313
:10074000981311E08091EF028E5F8093EF02E1CF6A
:1007500010E08091ED029091EF02891710F48093E0
:10076000EF024091EF026091EE028DED92E00E9467
:100770004C136091EE02112371F08091EF0290E032
:10078000861B9109889794F481E090E09093F6029B
:100790008093F502CEC18091ED028E3F08F0B3C187
:1007A00090E0861B910988970CF4ADC182E00E940D
:1007B000B91E8091E102882309F4AFC060E271E0C4
:1007C0008DED92E00E94011B8BE30E94B91EF12C7B
:1007D00080919A03F81688F58F2D90E0FC01EE0FBA
:1007E000FF1FE657FC4F008111810115110519F11A
:1007F000FC01E352FD4F86818823E9F08F2D17FF1E
:1008000005C0806A11950195110901C08068E02E2C
:1008100007FD04C0A02FA068EA2E01C080610E94DD
:10082000B91E8E2D0E94B91E812F80680E94B91EAC
:100830008BE30E94B91EF394CBCF8091EF0280FF2F
:1008400003C063E271E002C063E471E08DED92E009
:100850000E94011BE091EE02E0FF19C0E150E0931D
:10086000EE02E69580918403E81728F4F0E0E35265
:10087000FD4F12A101C010E01F701068812F0E946F
:10088000B91E8091EE028E5F8093EE0201C010E0EF
:100890000091EE028091EF02801778F0E02FE6954C
:1008A00080918403E81720F4F0E0E352FD4F12A199
:1008B000812F0E94B91E0E5FEDCF80919C03282FDF
:1008C000082E000C330B3F938F938091DD02282F6D
:1008D000082E000C330B3F938F9385E291E09F939A
:1008E0008F933F922F920E940E29182FB1018DED08
:1008F00092E00E94011B80EA93E00E94F01A0FB67A
:10090000F894DEBF0FBECDBF81119BC080919F03C5
:100910001F928F938FE291E09CC064E371E08DEDB4
:1009200092E00E94011B8BE30E94B91E10E0B7E326
:10093000EB2EB1E0FB2E80919A03181740F5812F22
:1009400090E0FC01EE0FFF1FE657FC4F2081318144
:1009500021153105D1F0FC01E352FD4F46814423BE
:10096000A1F03F932F939F931F93FF92EF923F929B
:100970002F920E940E29B1018DED92E00E94011B81
:100980000FB6F894DEBF0FBECDBF1F5FD4CF6FE3AD
:1009900071E08DED92E00E94011B1091EE0272E475
:1009A000E72E71E0F72E8091EF02811708F1612F99
:1009B00070E08FEF92E00E94A61280918503282FAD
:1009C000082E000C330B3F938F93FF92EF923F92D0
:1009D0002F920E940E29B1018DED92E00E94011B21
:1009E0001F5F0F900F900F900F900F900F90DBCF25
:1009F00080919C03282F082E000C330B3F938F937C
:100A00008091DD02282F082E000C330B3F938F932B
:100A100085E491E09F938F933F922F920E940E293D
:100A2000182FB1018DED92E00E94011B80EA93E046
:100A30000E94F01A0FB6F894DEBF0FBECDBF882318
:100A400011F01DA718C080919F031F928F9383E51B
:100A500091E09F938F933F922F920E940E298DA732
:100A6000B1018DED92E00E94011B0F900F900F904D
:100A70000F900F900F908091F202882349F069E562
:100A800071E08DED92E00E94011B8BE30E94B91E84
:100A90001092F1026091EF028091ED0290E0861BCE
:100AA0009109889734F18091E202882311F18150F5
:100AB0008093E2026F5F8DED92E00E94CB1910925D
:100AC000EE028091E2021F928F938BE591E09F935B
:100AD0008F933F922F920E940E298DA7B1018DED29
:100AE00092E00E94011B0F900F900F900F900F90BB
:100AF0000F9083E00E94B91E8AE00E94B91E81E037
:100B00008093F00217C0662369F08091EF0290E0B5
:100B10008D3F91053CF08DED92E00E94CB19109233
:100B2000EE0207C08DED92E00E94C71381E0809332
:100B3000F0021DA68091F002811140C78091DE0273
:100B40005091DF0227965FAF2797811103C055238D
:100B500009F434C727966FAD2797662309F42EC78B
:100B60008091EB029091EC02892B39F585E490E0BD
:100B70000E94C722FC0182E380AF81E085AB108236
:100B800012AA14AA13AA87E087AB80E886AB8FEF7E
:100B900084AF85AF86AF87AFDF01AD5BBF4F1C92DF
:100BA00011961C928DED92E093AF82AF14971D9237
:100BB0001C92F093EC02E093EB0280919D0388235A
:100BC00011F10091EB021091EC02D801DA96ED914F
:100BD000FC91DB97148A118ADA96ED91FC91DB97F0
:100BE000E054FF4F1082512C5801B4E4AB0EB11CFD
:100BF000442443943801E2E46E0E711C1801F3E4BE
:100C00002F0E311CB5C12090EB023090EC028FEF1B
:100C1000D101DC968C93DC97DD968C93DD97DF9683
:100C20008C93DF97DE968C93DE97F101ED5BFF4F9F
:100C3000108231961082349711821082F101108255
:100C400012AA14AA13AA87E087ABEE5BFF4F80912C
:100C50009E038083DA960D911C91DB97F801E35493
:100C6000FF4FF080B3E0BF1508F0A8C6F801608917
:100C700070E080E090E00E9406262AE037ED43E233
:100C80005DE30E9465264B015C0120E030E0A90194
:100C90000E94BF2820E030E040E05FE387FD05C010
:100CA000C501B4010E941D2804C0C501B4010E9401
:100CB0001C280E9489285801F6E0AF0EB11CF801EB
:100CC000E355FF4F1BAE70E0D5018D915D01861796
:100CD00088F1EBAC8E2D90E0EE2009F126E130E0BA
:100CE0002C0F3D1F280F391FD901DC9098012D0DC5
:100CF000311D2D0D311D23553F4F40815181D901AB
:100D00002D913C914217530754F427E130E02C0F0A
:100D10003D1F820F931FDC01DC92EA94DBCF27E1B9
:100D200030E02C0F3D1F820F931FDC017C93BBAD85
:100D3000BF5FBBAF7F5F3296F712C6CFFE017796DB
:100D4000F8A7EFA32696FFAFEEAF269740910A01D2
:100D500050910B0160910C0170910D0161964CAFA7
:100D60005DAF6EAF7FAF6197B1016E5B7F4F6396F2
:100D70007FAF6EAF6397C1018D5B9F4F9DAF8CAF0F
:100D8000D101AC5BBF4F6A96BFAFAEAF6A973C96DE
:100D9000FCA7EBA7FFA16896FFAF689725968FADDC
:100DA00025978F1B3BAD831708F008C6D101DA9653
:100DB0004C91DA97DB963C91DB972696EEADFFAD32
:100DC000269721912696FFAFEEAF2697842F932F7B
:100DD000820F911D820F911DFC01E355FF4F808111
:100DE000918118161906B4F68FEFDC968C93DC9778
:100DF000DD968C93DD97DF968C93DF97DE968C9350
:100E00002081318138AB2FA7B901330F880B990BA3
:100E10000E9406262B966CAF7DAF8EAF9FAF2B97AF
:100E20002DEC3CEC4CE45EE30E9465260E94892890
:100E300065967FAF6EAF65978FA598A997FD0196D0
:100E4000AC015595479567965FAF4EAF6797BE016A
:100E5000695E7F4F22967FAF6EAF22971FAE8FEFF6
:100E60009FEF98AF8FAB1EAEDE015F96BAA7A9A722
:100E70004E01B7E28B0E911C2296EEADFFAD22978C
:100E8000D1902296FFAFEEAF2297D101DA963C9136
:100E9000DA97DB962C91832F922F8D0D911D8D0D5E
:100EA000911DFC01E355FF4F00811181780117FF6F
:100EB00004C0EE24FF24E01AF10A67968EAD9FADC0
:100EC00067978E199F0997FF03C0919581959109A6
:100ED0006596EEADFFAD6597E817F907E4F42DECE4
:100EE0003CEC4CEC5EE32B966CAD7DAD8EAD9FADD6
:100EF0002B970E9465260E9489288FA598A98E1994
:100F00009F0997FF03C0919581959109681779070B
:100F10000CF028C718C01016110614F00C943210EB
:100F2000D101DE96DC92FEADFF5FFEAF2FA938AD9A
:100F3000200F311F38AF2FABD101DC968C91DC979D
:100F40008F3F09F0D1C321968FAD21976896EFAD01
:100F500068978E1BFBAD8F1708F48ECF1BCFD50182
:100F60008C91882379F0F501808181110DC1539412
:100F7000D801DA96CD90DC90DB97F601808958167F
:100F800070F3BAC2E52CF12CB701C60182960E941B
:100F9000A612F601E855FF4F808190E0F80124ADDC
:100FA000022E000C330B8217930739F025AD022E69
:100FB000000C330B82179307B1F6D801DA96CD9067
:100FC000DC90DB97B701C60182960E94A612F6015B
:100FD000E855FF4F8080F80195AC81E0891001C091
:100FE00080E080931402D801DA96CD90DC90DB97F4
:100FF000B70161507109C60182960E94A612F601DE
:10100000E855FF4F8081F5014082D801DA96ED91D5
:10101000FC91DB97518A552009F4B0C090E089100B
:1010200026C0DF962C91DF97022E000C330B82171F
:10103000930709F43FC0DA962D913C91DB97FC01B0
:10104000EE0FFF1FE20FF31FE355FF4FDC968C916D
:10105000A82FAA0FBB0BA20FB31FA355BF4F208110
:1010600031818D919C912817390724F129C0F8010D
:1010700026AD022E000C330B82179307D9F022AD58
:1010800033ADFC01EE0FFF1FE20FF31FE355FF4FDF
:10109000D801DD968C91A82FAA0FBB0B2A0F3B1FFE
:1010A000D901A355BF4F208131818D919C91821729
:1010B000930734F481E0891080E08093140208C023
:1010C000D801DA96ED91FC91DB9781898F5F818B56
:1010D00060911402C8010E94E412FF24FA94F50CF6
:1010E000B1E0BF1508F043C0F80182AC93ACCF2C3F
:1010F000D12CB601C40182960E94A612F401E855D3
:10110000FF4F808190E0D801DF962C91DF97022E6F
:10111000000C330B8217930741F0DE962C91022EC0
:10112000000C330B8217930711F5F80182AC93ACD6
:10113000B60161507109C40182960E94A612F401A1
:10114000E855FF4F808190E0D801DF962C91022E68
:10115000000C330B8217930709F4A1C6F80126ADE2
:10116000022E000C330B8217930709F498C6D8019E
:10117000DA96ED91FC91DB975188F5CE81E08910EC
:1011800080E080931402EFCED801DA96CD90DC9007
:10119000DB97E52CF12CB701C60182960E94A612BE
:1011A000F601E855FF4FC080D12CF80184AD082E20
:1011B000000C990B82AC93ACC816D90609F4F5C69D
:1011C00085AD082E000C990BC816D90609F4EDC69A
:1011D000B7016F5F7F4FC40182960E94A612F4018F
:1011E000E855FF4F208180911402811119C0D80168
:1011F000DA96ED91FC91DB97808990E00297E816F2
:10120000F9067CF5DF968C91DF97082E000C990B80
:101210008C159D0531F5422F50E0DE968C911AC059
:101220008130F9F4D801DA96ED91FC91DB97808951
:1012300090E00297E816F906A4F4DE968C91DE970A
:10124000082E000C990B8C159D0559F4422F50E087
:10125000DF968C91082E000C990B4817590709F45A
:101260003FC1F3018081082E000C990BD801D39661
:101270004D915C91D4974817590764F4F10110829D
:10128000D5011C92F801108212AA14AA13AA27E011
:1012900027AB26C1D801DA96ED91FC91DB97528AF3
:1012A000DA96AD90BC90DB97BDEF5B1213C0F501F1
:1012B000808990E00197E816F90661F4E054FF4F49
:1012C00081E0808384E090E0D50159969C938E93D1
:1012D000589775C0D801DC96EC91DC97EE0FFF0BA8
:1012E000EA0DFB1DE355FF4F40815181F601EE0FE2
:1012F000FF1FEA0DFB1DE355FF4F60817181F50172
:10130000808964177507E4F4682F70E061507109F3
:10131000E616F706ACF4E22FF0E0DD966C91DD976F
:10132000062E000C770BE617F70709F476C6DE9653
:101330006C91062E000C770BE617F70709F46DC6C3
:1013400090E00297E816F906D4F5D801DF968C9163
:10135000DF97082E000C990BC816D90641F0DE96CF
:101360008C91082E000C990BC816D90641F5C501C1
:10137000820F911D820F911DFC01E355FF4F80816B
:10138000918184179507DCF4B7016E5F7F4FC5012B
:1013900082960E94A612F501E855FF4F808190E0E9
:1013A000F80124AD022E000C330B8217930709F0CD
:1013B0000AC681E0850D51102FC655245394652D22
:1013C000D801DA968D919C91DB970E94CB19D801B8
:1013D000DA96ED91FC91DB97E054FF4F808181110B
:1013E00027C6F3018081082E000C990BD3962D910E
:1013F0003C91D497281739070CF41AC682E00E9452
:10140000B91E60E671E08DED92E00E94011BA09193
:10141000EB02B091EC02DD96EC91DD97EE0FFF0B45
:10142000E657FC4F81818F9380818F93DC96EC91FE
:10143000EE0FFF0BE657FC4F81818F9380818F93D6
:1014400083E691E09F938F939E012F5F3F4F790139
:101450003F932F930E940E29B7018DED92E00E94D9
:10146000011BA091EB02B091EC02DE96EC91DE97AD
:10147000EE0FFF0BE657FC4F81818F9380818F9396
:10148000DF96EC91EE0FFF0BE657FC4F81818F93B7
:1014900080818F9380E791E09F938F93FF92EF92EB
:1014A0000E940E29B7018DED92E00E94011B6FE3AF
:1014B00071E08DED92E00E94011B0091EB02109112
:1014C000EC020FB6F894DEBF0FBECDBF712CBE018B
:1014D000695E7F4F5B017EE7872E71E0972E5AC0D1
:1014E0005394D5018C91882309F441CD6091140265
:1014F000C8010E94E4123BCDF601528AA8014E5B5E
:101500005F4FD801D3962D913C91D497BEEF5B12DB
:1015100020C0FA01808187FD8F5F8595082E000C21
:10152000990BD801DA96ED91FC91DB97821793071E
:1015300054F4DF01A054BF4F81E08C9384E090E02D
:10154000918F808F75C5CF0180549F4FDC011C9215
:10155000148AFA018081082E000C990B4BCF721669
:1015600030F5F801EC0DFD1D80811F928F939F9245
:101570008F92BF92AF920E940E29B501F80182AD01
:1015800093AD0E94011B73940F900F900F900F90DA
:101590000F900F90C72CD12CD801D2968C91D29756
:1015A00090E0D8962C91C816D906CCF202C080E003
:1015B000DCCF721628F4F801EC0DFD1D808101C00E
:1015C00080E082958F701F928F9383E891E09F93C4
:1015D0008F93BF92AF920E940E29D801D3962D917E
:1015E0003C91D497C90168E070E00E94DC270F901D
:1015F0000F900F900F900F900F90059724F4277085
:101600003327232BE1F4F80180AD781620F4EC0D9C
:10161000FD1D808101C080E08F701F928F9383E851
:1016200091E09F938F93CE0148969F938F930E9452
:101630000E290F900F900F900F900F900F90B50103
:10164000D801DA968D919C91DB970E94011BE09165
:10165000EB02F091EC0284A98F9383A98F93E05C55
:10166000FF4F81818F9380818F9388E891E09F93D2
:101670008F93FF92EF920E940E29182FB7018DEDE4
:1016800092E00E94011B80EA93E00E94F01A0FB6DC
:10169000F894DEBF0FBECDBF882311F01DA718C080
:1016A00080919F031F928F9383E591E09F938F9387
:1016B000FF92EF920E940E298DA7B7018DED92E067
:1016C0000E94011B0F900F900F900F900F900F90A2
:1016D00083E00E94B91E8AE00E94B91E10929D0309
:1016E00081E08093F0026AC1DF968C91DF978F3F93
:1016F00009F429CCDD968C91DD978F3F09F423CC3A
:10170000DE968C918F3F09F41ECC61962CAD3DADD9
:101710004EAD5FAD61972BA33CA34DA35EA32F8F6E
:1017200038A349A35AA341E050E024965FAF4EAFDF
:101730002497A12CB12C1FEFD101DA96ED90FC90EB
:10174000DB97F701808990E0A816B9060CF0FBCB77
:10175000B501C70182960E94A612F701E855FF4F16
:101760000081802F90E0D101DC962C91DC97022E35
:10177000000C330B8217930709F4FBC2DD962C9102
:10178000022E000C330B8217930709F4F2C2D10129
:10179000DF962C91022E000C330B8217930709F46D
:1017A000E8C2F10126AD022E000C330B821793071D
:1017B00009F4DFC2D101DA96ED91FC91DB978189C2
:1017C0009501281B31096396AEADBFAD63978C912F
:1017D000082E000C990B821793070CF00DC3A28AF8
:1017E000F10182AD93ADDC0152964C915297519626
:1017F0006C910E944C13D101DA96ED91FC91DB972C
:10180000DE96BC91B9ABD101DD96BC91BBABD101E9
:10181000DF960C91DF97DC96BC91BDABDF0129A967
:10182000A20FB11D27FDBA9516968C91DF013BA939
:10183000A30FB11D37FDBA951696CC90D12CC80ECA
:10184000D11CDF01A00FB11D07FDBA9516968C9132
:10185000C81AD108DF014DA9A40FB11D47FDBA95E3
:1018600016968C91ACADBDAD1C92C81AD108D7FEAE
:1018700003C0D194C194D1080D2C000CEE08FF08D0
:101880008089E82FF0E02D96FFAFEEAF2D97BF01D6
:10189000FF0F880B990B0E9406262AE037ED43E2E2
:1018A0005DE30E9465262B013C0120E030E0A901A8
:1018B0000E94BF2820E030E040E05FE387FD66C281
:1018C000C301B2010E941D280E9489286C157D0564
:1018D0008E059F050CF437CBFEAD2FADF21333CB45
:1018E0003BA94DA9341709F42ECB59A9501709F477
:1018F0002ACB041709F427CB531709F424CB541728
:1019000009F421CB301709F41ECBDE015F96FE01EE
:10191000B39681919D9189133EC28E169F06C9F799
:101920008DA979A96AE0769F800D1124ABA99AE070
:10193000A99F000D11248A3008F48C590A3008F44C
:101940000C59AE01415E5F4FFE01B3966F01E82E68
:10195000F12C602F70E0D6018D916D01082E000CE6
:10196000990B8E159F0509F0ADC3CE014F96FE0170
:10197000B3962191022E000C330B2617370709F07E
:10198000AAC3E815F90509F0B6C380E0C814D90464
:1019900009F407C24F5F5F4F8111DDCFF101E05CB9
:1019A000FF4F8FA998AD66E070E00E94DC2771833D
:1019B00060832796FFAD2797F11103C98091DE025E
:1019C000882309F474C180919D03811170C18091B5
:1019D000F5029091F602019709F069C18091F00239
:1019E0008111A4C18091ED02883208F464C182E0C3
:1019F0000E94B91E8091E102882309F491C064E934
:101A000071E08DED92E00E94011B8BE30E94B91EF4
:101A100040E060E08DED92E00E944C13F12C80914B
:101A20009A03F81688F58F2D90E0FC01EE0FFF1F4A
:101A3000E657FC4F008111810115110519F1FC01D8
:101A4000E352FD4F86818823E9F08F2D17FF05C0F3
:101A5000806A11950195110901C08068E02E07FD8B
:101A600004C0F02FF068EF2E01C080610E94B91E03
:101A70008E2D0E94B91E812F80680E94B91E8BE3B3
:101A80000E94B91EF394CBCF8091ED0280FF08C075
:101A900063E471E08DED92E00E94011B10E011C043
:101AA00063E271E0F7CF80918403181730F4E12FDF
:101AB000F0E0E352FD4F22A12DA78DA50E94B91E93
:101AC0001F5F80917E03811770F78091DD02282FC0
:101AD000082E000C330B3F938F9387E991E09F937F
:101AE0008F938E010F5F1F4F1F930F930E940E293C
:101AF000B8018DED92E00E94011B80EA93E00E9404
:101B0000F01A0F900F900F900F900F900F9081117F
:101B1000B6C080919F031F928F938FE291E09EC089
:101B20006DE971E08DED92E00E94011B8BE30E9454
:101B3000B91E40E060E08DED92E00E944C1310E091
:101B400057E3E52E51E0F52EAE014F5F5F4F6A017E
:101B500080919A03181740F5812F90E0FC01EE0F59
:101B6000FF1FE657FC4F2081318121153105D1F04F
:101B7000FC01E352FD4F46814423A1F03F932F9394
:101B80009F931F93FF92EF92DF92CF920E940E29B4
:101B9000B6018DED92E00E94011B0FB6F894DEBFF6
:101BA0000FBECDBF1F5FD4CF6FE371E08DED92E02C
:101BB0000E94011BF12C8E010F5F1F4F32E4C32ED8
:101BC00031E0D32E8091ED02F81608F56F2D70E00C
:101BD0008FEF92E00E94A61280918503282F082E95
:101BE000000C330B3F938F93DF92CF921F930F9391
:101BF0000E940E29B8018DED92E00E94011BF39422
:101C00000F900F900F900F900F900F90DBCF80915F
:101C1000DD02282F082E000C330B3F938F9380EAB0
:101C200091E09F938F931F930F930E940E29B80109
:101C30008DED92E00E94011B80EA93E00E94F01A71
:101C40000F900F900F900F900F900F90811117C071
:101C500080919F031F928F9383E591E09F938F93D1
:101C60001F930F930E940E29B8018DED92E00E9400
:101C7000011B0F900F900F900F900F900F9080917D
:101C8000F202882349F069E571E08DED92E00E944F
:101C9000011B8BE30E94B91E83E00E94B91E8AE0FB
:101CA0000E94B91E1092F10281E08093F0028091AF
:101CB000F00281113BC08091F1028823D9F140915B
:101CC0009A03EAE8F3E080E090E020EDE22E27E0DE
:101CD000F22E841710F010E00CC0219131911216F1
:101CE000130624F42E153F050CF47C010196F1CF68
:101CF0001F5F8091ED021817C8F470EDE71677E0CA
:101D0000F706A1F0612F70E08FEF92E00E94A6121B
:101D100080918503082E000C990BE816F90641F70F
:101D20006FEF610F8DED92E00E94CB198091F1026F
:101D30008111E7C11091F0028DED92E00E94C7136E
:101D40001093F002DEC175010C94500310939C03B4
:101D500082E090E09093F6028093F502E092EE022A
:101D60000C947703101611060CF089C1F101D5AE61
:101D7000DAC8D101DA96ED91FC91DB97808990E089
:101D80000197A816B90609F048C014CDC301B201E5
:101D90000E941C2899CD9F3F39F08F3F09F0BDCD9F
:101DA00003C0882309F4FACD2D962EAD3FAD2D97B3
:101DB0002A193B096396EEADFFAD63978081082E2B
:101DC000000C990B821793070CF0BDC81BA31F8F43
:101DD0001CA318A31DA319A31EA31AA35FEFA51A82
:101DE000B50A24966EAD7FAD24976F5F7F4F249622
:101DF0007FAF6EAF2497A0CCACADBDAD1C926A9600
:101E0000EEADFFAD6A9710821F8F1BA318A31CA312
:101E100019A31DA31AA31EA3E1CFACADBDAD8C9138
:101E2000811103C0A18AE1E0EC93D101DA96ED9033
:101E3000FC90DB9724966EAD7FAD2497C701829608
:101E40000E94A612F701E855FF4F8081BAE00B9F70
:101E5000800D11248A3008F48C59A0FC03C02BA5F6
:101E60009CA502C029A59AA5E22FF92F90E0482F42
:101E700050E06081262F062E000C330B2417350707
:101E800019F06F3F19F48083292F01C02FEF9F5F56
:101E9000943009F4A3CF31962F3F59F39FCFE090B0
:101EA0001402D801DA968D909C90DB97B1E0EB128A
:101EB0003AC0E2E0CE1AD108B601C40182960E946F
:101EC000A612F401E855FF4F9081D801DF968C915E
:101ED000DF97981709F464C0DA968D909C90DB9791
:101EE000B601C40182960E94A612F401E855FF4F84
:101EF000A081AA0FBB0B8A0E9B1ED401A355BF4F16
:101F0000F80182AD93AD24ADE22FEE0FFF0BE80F89
:101F1000F91FE355FF4F2D913C9180819181281746
:101F20003907F4F13AC0E11038C0F2E0CF1AD10815
:101F3000B601C40182960E94A612F401E855FF4F33
:101F40009081D801DE968C91DE97981749F1DA9648
:101F50008D909C90DB97B601C40182960E94A612D8
:101F6000F401E855FF4FA081AA0FBB0B8A0E9B1E00
:101F7000D401A355BF4FF80182AD93AD25ADE22F3B
:101F8000EE0FFF0BE80FF91FE355FF4F2D913C912A
:101F900080819181821793071CF0FA94FA94A0C86B
:101FA0006E2DC8010E94E412F8CFF401808990E000
:101FB0000197E816F9060CF00BC9809114028425EC
:101FC000809314028ECA25AD022E000C330B8217AB
:101FD000930709F4EEC9C2ACD3ACB7016D5F7F4F74
:101FE000C60182960E94A612F601E855FF4F808135
:101FF00090E0F80127AD022E000C330B82179307F7
:1020000009F4D7C9F80126AD022E000C330B821754
:10201000930709F0D4C9CDC9582E5394D801DA9644
:10202000ED91FC91DB9784E090E0918F808FC7C9A0
:1020300080919D03882309F4C1CC8091F102811124
:102040004FCB1092FF0210927E03109280031092E9
:102050007F0387E0809383031092ED0281E08093F9
:10206000F102ACCCF101D7AE3FAD3F5F3FAF4FA91E
:1020700058AD401B510B58AF4FAB0C949C07D1018E
:10208000DC96DC92F1CF0E94A6129091850380919C
:102090009C0398130C94A2036091EF0270E08FEF01
:1020A00092E00E94A612909185038091DD02981320
:1020B0000C94A2038091EF0281508093EF0211E013
:1020C0000C94A903FA018081082E000C990BE816E4
:1020D000F90651F44ACCDC012C91022E000C330B92
:1020E0006217730719F44DCC81E050CCE815F9055F
:1020F000D9F301963ECCC814D90409F44FCC80E042
:1021000049CCC75ADF4F0FB6F894DEBF0FBECDBF24
:10211000DF91CF911F910F91FF90EF90DF90CF90C3
:10212000BF90AF909F908F907F906F905F904F90F7
:102130003F902F900895FC01CB01642F0994FC017E
:1021400009948F929F92AF92BF92CF92DF92EF92BB
:10215000FF928FB7F894C0903302D0903402E09091
:102160003502F09036028FBF8091170290911802CD
:10217000A0911902B0911A02C816D906EA06FB0608
:1021800048F48091150290911602019690931602E0
:1021900080931502C0921702D0921802E0921902A1
:1021A000F0921A02A0911502B091160227E339E8C5
:1021B00041E450E00E946B274B015C01C701B6016E
:1021C00028EE33E040E050E00E944927C501B40109
:1021D000620F731F841F951FFF90EF90DF90CF90C9
:1021E000BF90AF909F908F900895E89886E59BE10F
:1021F0009093010180930001ECEAF3E011821382D5
:1022000012820895CF93C82F803120F480E090E0AF
:102210000E943B1D6C2F70E080E090E040E1CF9188
:102220000C94F51C0F931F93CF938C01C62F8CE356
:1022300092E00E94851B892BD1F34C2F50E0B8010E
:102240008CE392E0CF911F910F910C94571B0F9349
:102250001F93F8940E94101E0091D9021091DA0287
:102260002091DB023091DC02AB01BC01401B510B21
:10227000620B730B22E020932F0281E09DE7909385
:102280002E0280932D02909387008093860082E136
:102290008093810041303DE753076105710588F166
:1022A0004A9903C02FEF32E802C021E03DE7809158
:1022B000AD038A35D8F48091AD038F5F8093AD0371
:1022C0008091AE036091AC030E94BC279093AE0353
:1022D000E091AE03F0E0EE0FFF1FE055FC4F3183BD
:1022E00020838091AE038F5F8093AE030E94101E07
:1022F0006093D9027093DA028093DB029093DC0240
:1023000038C0413187E258076105710590F181E1DC
:102310009DE7A0E0B0E0841B950BA60BB70B33E064
:10232000880F991FAA1FBB1F3A95D1F7009731E07C
:10233000A307B10520F421E020932F0209C02093C8
:102340002F0223E0B695A795979587952A95D1F703
:1023500090932E0280932D0280912D0290912E0257
:10236000909387008093860080912F0280618093F4
:10237000810020913002E2ECF0E08491EEEAF0E09E
:102380009491EAE9F0E0E491EE2309F43CC088235B
:1023900039F1833091F038F48130A9F0823001F5C1
:1023A00084B58F7D12C0873091F08830A1F08430E1
:1023B000B9F4809180008F7D03C0809180008F7779
:1023C000809380000DC084B58F7784BD09C0809153
:1023D000B0008F7703C08091B0008F7D8093B000F4
:1023E000F0E0EE0FFF1FED57FF4FA591B4913FB7FF
:1023F000F894211104C08C919095982302C0EC911F
:102400009E2B9C933FBF10923002789480911B02C8
:1024100091E0980F90931B02811104C01F910F91BE
:102420000C94A1101F910F910895CF92DF92EF921B
:10243000FF920F931F93F8940E94101E0091D902EF
:102440001091DA022091DB023091DC026B017C01F9
:10245000C01AD10AE20AF30A970186016093D902F1
:102460007093DA028093DB029093DC020A35110547
:102470002105310578F181E0C8168DE7D806E10421
:10248000F10410F4960102C021E03DE74A9B03C02D
:102490003195219531098091AD038A35D8F4809129
:1024A000AD038F5F8093AD038091AE036091AC0369
:1024B0000E94BC279093AE03E091AE03F0E0EE0FD4
:1024C000FF1FE055FC4F318320838091AE038F5F67
:1024D0008093AE0378941F910F91FF90EF90DF905F
:1024E000CF900895FC01848DDF01A80FB11DA35A80
:1024F000BF4F2C91848D90E001968F739927848F24
:10250000A689B7892C93A089B1898C918370806446
:102510008C93938D848D981306C00288F389E02DE7
:1025200080818F7D808308950C942B270C94232722
:1025300085E192E19093010180930001E9E6F0E0EA
:1025400080818C7F81608083E89A0895CF93DF93A8
:10255000FC01EE57FF4F4081469FD001479FB00DD1
:102560001124FD0123E0F695E7952A95E1F7EC01AA
:10257000CB57DF4F288130E0E217F3070CF52297A5
:10258000288130E0A770BB2702C035952795AA9512
:10259000E2F7E80FF91F3081232330E058E0541BA5
:1025A000469F402D11244770541B02C03595279536
:1025B0005A95E2F7FC01EA57FF4F2083822F01C0B2
:1025C0008FEFDF91CF910895FC0187A98730A9F49F
:1025D00023A934A91216130684F492A9492F50E0B6
:1025E00020AD30E021503109421753078CF59F5F31
:1025F00092ABDF01A90FB11D1C9295A9492F50E0A4
:10260000282F30E02F5F3F4F241B350B1216130687
:1026100024F401C0660F2A95EAF722A9DF01A20F70
:10262000B11D2C91622B6C9323A934A92F5F3F4FCE
:1026300034AB23AB282F082E000C330B241B350B97
:1026400037FD02C0891B01C087E087AB81E0089598
:1026500080E00895CF93DF93DC01CD91DC91119759
:102660001296ED91FC91139714962D913C9115972C
:10267000C9019595879520FF0AC0DE01A80FB91FF3
:102680002D913C91E20FF31F0190F081E02D8C0F12
:102690009D1FDF91CF9109940F931F93CF93DF93E9
:1026A000DC0150968C915097882309F46BC0FD0192
:1026B00036969D01225F3F4F11922E173F07E1F79B
:1026C000411101C0482F262F30E035952795E42F82
:1026D000F0E0F595E79560FF17C0ED01C955DF4FB4
:1026E0008881281728F4ED01C20FD31F9AA101C0D9
:1026F00090E0892F8F70ED01C80FD11D8E818F5F03
:102700008E832F5F3F4F01C090E08D0109551F4F11
:10271000622F70E06E177F07F0F4E80188812817B8
:1027200020F4ED01C60FD71F9AA1C92FD0E034E0E5
:10273000D595C7953A95E1F7CA0FDB1F8E818F5F5C
:102740008E83892F8F70ED01C80FD11D8E818F5F11
:102750008E832F5FDDCF40FF15C0ED01C955DF4FE0
:102760008881E81718F4EA0FFB1F92A1E92FF0E027
:1027700084E0F595E7958A95E1F7EA0FFB1F8681DE
:102780008F5F8683DF91CF911F910F910895CF9333
:10279000DF93FC01DC01A354BF4F1C9211961C92E5
:1027A00012A25D971C92119611961C921E9214967D
:1027B00087E08C93108A118E108E59968FEF8C9330
:1027C0008083EF01C355DF4FA95BB109CF010E969E
:1027D000199219921D92A817B907D1F7138A86E9A1
:1027E00090E0978B868BDF01A755BF4F40E050E00C
:1027F00060E87EE34D935D936D937C931397118A0C
:10280000148A158A57961C92128A11A210A283E08C
:102810008583DF91CF9108952F923F924F925F92DF
:102820006F927F928F929F92AF92BF92CF92DF92E0
:10283000EF92FF920F931F93CF93DF93CDB7DEB745
:10284000C559D1400FB6F894DEBF0FBECDBF0E9470
:10285000F510CF5FDE4F19821882C150D14081E060
:10286000C85EDE4F8883C851D140C75EDE4F1982F3
:102870001882C951D140C05DDE4F8883C053D1401A
:10288000CF5CDE4F19821882C153D140C85BDE4F46
:102890008883C854D140C75BDE4F19821882C9545F
:1028A000D140C05ADE4F8883C056D140CF59DE4F49
:1028B00019821882C156D140C858DE4F8883C85744
:1028C000D1409E012F5F3F4F790180E091E0D90117
:1028D000FC011D923197E9F7C758DE4F39832883F1
:1028E000C957D140CC24CA940CE112E022242A9486
:1028F000F1E0CA57DE4FF883C658D14068E1D62EC2
:102900004E0193947CE0772EE2E06E2E5524539492
:10291000D8018C918335C1F511968C91833459F48B
:102920002394E1E0F1E0EC0FFD1FD29CE00DF11DDE
:102930001124128219C08D3459F42394E1E0F1E09E
:10294000EC0FFD1FD29CE00DF11D1124528211C02D
:10295000823579F42394E1E0F1E0EC0FFD1FD29C85
:10296000E00DF11D11246282CA57DE4F1882C6584D
:10297000D14021109DC043E050E06CE172E08CE357
:1029800092E00E94571B2CC0803599F5F801828196
:102990008D3309F08DC0818150EDB52EB80EF7E072
:1029A000FB1508F485C04AE050E0BE0167587E4F31
:1029B000C80103960E94E823729CF0011124EB0DDC
:1029C000F11DEE0FFF1F21E031E02C0F3D1FE20F44
:1029D000F31F7087678321106BC0C8010E94E31C3E
:1029E000C758DE4FF982E882C957D14000E010E0B5
:1029F0005FC08235C9F4D80111968C918D3309F0EE
:102A000057C04AE050E0BE0167587E4FC8010296A9
:102A10000E94FE24E1E0F1E0EC0FFD1FD29CE00DEE
:102A2000F11D1124678BD7CF843441F5F8018181E2
:102A30008D33F1F5AA24A394BA2CAC0EBD1ED29C02
:102A4000A00CB11C1124C8010296D50114969C93C8
:102A50008E931397A401401B510B4D5F5F4F6BE3A7
:102A600070E001960E94D528C758DE4F998388836D
:102A7000C957D140F501968385831AC08334C1F4C8
:102A8000D80111968C918D3399F44AE050E0BE0143
:102A900067587E4FC80102960E94FE24E1E0F1E0F3
:102AA000EC0FFD1FD29CE00DF11D1124718360839A
:102AB000C758DE4F88819981C957D1400817190737
:102AC00009F463C0E816F90639F00196C758DE4FDD
:102AD00099838883C957D140C758DE4F088119812F
:102AE000C957D140412CC758DE4FA880B980C9577B
:102AF000D140A40CB11CC758DE4FB982A882C95777
:102B0000D1400E94D01D97FD0DC0F5018083C418EF
:102B1000C758DE4FE881F981C957D14080818B3396
:102B200041F40FC089E790E00E94691D81E790E0C1
:102B30001AC08A3009F421C2CC2029F044244394DD
:102B4000D2CFC1101DC08BEA94E00197F1F78E013E
:102B500013950E94D01D97FF09C089E790E00E945D
:102B6000691D88E690E00E94921D0BC28A30910593
:102B7000A1F3D7018D937D01A017B10751F7EDCFD8
:102B800011820115110509F0C3CECD5FDE4F88819A
:102B9000C350D140811113C0C85EDE4FB881C85107
:102BA000D140CF57DE4FB883C158D140B1110DC0CD
:102BB000E1E0CF57DE4FE883C158D14006C0F1E0D5
:102BC000CF57DE4FF883C158D140C957DE4F188226
:102BD000C758D140312C28E1239DC0011124E1E0E8
:102BE000F1E0EC0FFD1FE80FF91F2281223009F000
:102BF00089C0C558DE4F1882CB57D140DF015796A8
:102C0000C358DE4FB983A883CD57D140079621E042
:102C100031E02C0F3D1F280F391FC158DE4F39837B
:102C20002883CF57D140CF010596CE57DE4F9983E9
:102C30008883C258D1408F010D5F1F4FC358DE4FAC
:102C4000A881B981CD57D1408C91C558DE4FB8814C
:102C5000CB57D140B81708F04FC1CE57DE4FE881AF
:102C6000F981C258D14080809180D801CC901196D2
:102C7000DC900E94101E2B013C017601F701E81444
:102C8000F90468F5BFEFEB1AFB0A80818053C15845
:102C9000DE4FE881F981CF57D140E80FF11DE80FF1
:102CA000F11DA080B1806501B7FE04C0CC24DD24F5
:102CB000CA18DB080E94101E641575058605970565
:102CC000C8F3B7FE02C02B9801C02B9AC601DD0CD9
:102CD000AA0BBB0B480E591E6A1E7B1ECFCF0E944B
:102CE000101E6415750586059705C8F3C558DE4F97
:102CF000E881CB57D140EF5FC558DE4FE883CB5713
:102D0000D1409CCF213009F0F7C0C358DE4F188264
:102D1000CD57D1406F019F01295E3F4FCE56DE4F08
:102D200039832883C259D140CF010596CC56DE4F56
:102D300099838883C459D140DF011396C857DE4F69
:102D4000B983A883C858D140CE56DE4FE881F981B7
:102D5000C259D1408081C358DE4FF881CD57D14050
:102D6000F81708F0C9C0D6010D911C91CC56DE4F62
:102D7000E881F981C459D1400190F081E02DC65716
:102D8000DE4FF983E883CA58D140C857DE4FA88187
:102D9000B981C858D140EC901196FC900E94101E49
:102DA0004B015C01C558DE4FE882CB57D140C45877
:102DB000DE4FF882CC57D140C801110FAA0BBB0BD4
:102DC000CE57DE4F88839983AA83BB83C258D140F4
:102DD000880F991FAA1FBB1FC457DE4F8883998392
:102DE000AA83BB83CC58D140C657DE4FA881B98196
:102DF000CA58D140C558DE4FE881F981CB57D14040
:102E0000EA17FB0708F06CC08191C558DE4FF983C3
:102E1000E883CB57D1408A3314F097E301C090E3A5
:102E2000891B24E030E0C158DE4F39832883CF5717
:102E3000D14008E0A82F880FBB0BC057DE4FB983E5
:102E4000A883C059D1402401350110E0E02EF12CB7
:102E5000C057DE4FE881F981C059D140EE22FF22F0
:102E6000111104C0E114F10421F405C0E114F104CE
:102E700011F42B9801C02B9ACE57DE4F888199818F
:102E8000AA81BB81C258D140480E591E6A1E7B1EC2
:102E90000E94101E6415750586059705C8F31F5F0F
:102EA0001230F1F6C457DE4F88819981AA81BB8127
:102EB000CC58D140880E991EAA1EBB1E0695C1583B
:102EC000DE4FA881B981CF57D1401197C158DE4F4D
:102ED000B983A883CF57D140AB2B09F0B4CF84CFAF
:102EE000C358DE4FB881CD57D140BF5FC358DE4FC6
:102EF000B883CD57D14028CF2B983394231408F0B2
:102F00006ACECA57DE4FE881C658D140EE2331F071
:102F100061E070E080E090E00E94351EC957DE4F0E
:102F2000F881C758D140FF5FC957DE4FF883C758B3
:102F3000D140CF57DE4F2881C158D1402F134ACE00
:102F4000CE0101960E94E31CE1E0F1E0EC0FFD1FD1
:102F500038E1239EE00DF11D11248281833051F070
:102F60008DED92E00E94C7131092AD031092AF0353
:102F70001092AE030E94981204C0CC2009F4E3CD55
:102F800004CECB56DE4F0FB6F894DEBF0FBECDBFDA
:102F9000DF91CF911F910F91FF90EF90DF90CF9035
:102FA000BF90AF909F908F907F906F905F904F9069
:102FB0003F902F9008951F93CF93DF9300D01F92DF
:102FC000CDB7DEB78CE392E00E94B61B892B09F4E3
:102FD000D5C110912A021E3049F489EC90E00E947C
:102FE000691D8CE192E00E94841DC1C18CE392E0D6
:102FF0000E94941BE12FF0E0E45EFD4F80838D3052
:1030000079F034F4882361F08A3009F0B3C108C044
:10301000833231F08B3309F0ADC10E940C14A7C18B
:1030200080911C02863509F482C00CF05FC08334A5
:1030300009F4A1C00CF055C08F3309F06EC18FE3C5
:103040000E94361D84E591E00E94691D86E50E947C
:10305000361D82E591E00E94691D82E50E94361DC1
:1030600082E591E00E94691D84E70E94361D82E599
:1030700091E00E94691D88E50E94361D82E591E07D
:103080000E94691D83E50E94361D82E591E00E9441
:10309000691D80E50E94361D82E591E00E94691D50
:1030A00083E40E94361D82E591E00E94691D82E75B
:1030B0000E94361D82E591E00E94691D87E50E940D
:1030C000361D82E591E00E94691D83E70E94361D4E
:1030D00082E591E00E94691D8DEA91E00E94841DC5
:1030E00043C18035D9F0823559F117C184374CF48A
:1030F00082370CF039C1873509F4E2C0883571F1A7
:103100000CC1843709F009C10E94A1104AE00E9455
:10311000F51C8BEA91E00E94E31C26C188EA91E04D
:103120000E94841D8BEC97E00197F1F71DC180E3AD
:1031300091E00E94691D8CE091E00E94921D14C1F3
:1031400020916404309165042115310511F42AE6BB
:1031500034E0CE010196821B930B5AC080911D0270
:10316000813519F40E94F510FFC0853409F0FCC0C8
:103170000E949812F9C080911D02873459F034F4EE
:103180009CEB980F923008F446C0EEC0833509F4EA
:1031900079C0EAC085EE90E00E94691D83EE90E060
:1031A0000E94691D8091E00290E00E943B1D81EE2B
:1031B00090E00E94691D8EED90E00E94691D83EEF3
:1031C00090E00E94691D8091DE0290E00E943B1D0C
:1031D00081EE90E00E94691D8BED90E00E94691DD8
:1031E00083EE90E00E94691D8091DF0290E00E94D2
:1031F0003B1D81EE90E00E94691D8EEA91E00E94E5
:10320000E31C83EE90E00E94691D8091E10290E052
:103210000E94A01DA9C090911E02923579F034F44D
:10322000933409F0A1C0EFEDF2E00DC0933549F001
:10323000953509F099C0EEEDF2E005C0E1EEF2E05F
:1032400002C0E0EEF2E0853419F481E0808301C031
:1032500010822091DE02622F660F9091DF0284E0DF
:10326000989F90011124262B6091E002262B9091CB
:10327000E10238E0939FC0011124622F682B8FEF89
:1032800090E070C063EB71E08EE192E00E94F42860
:10329000892B09F469C04AE050E060E070E084E204
:1032A00092E00E94E82360939E037727882799275E
:1032B0004AE00E94F51C88EE90E00E94691D54C00F
:1032C00080911D02833529F490911E02933309F4F5
:1032D0004BC0082E000C990B0E94C928892B09F4B9
:1032E00043C080911E02082E000C990B0E94C92831
:1032F000892BD1F180911F02082E000C990B0E949E
:10330000C928892B89F180912002082E000C990B85
:103310000E94C928892B31F427C082EF90E00E94D7
:10332000921D25C01B8280911D0290911E029A83DE
:10333000898340E150E060E070E0CE0101960E9498
:10334000E823162F80911F02909120029A8389838F
:1033500040E150E060E070E0CE0101960E94E82379
:10336000812F90E00E94941281E0809330021092AD
:103370002A0204C01F5F10932A0224CE0F900F90E0
:103380000F90DF91CF911F9108950E94C21B811170
:103390000C94DB1708953F924F925F926F927F9249
:1033A0008F929F92AF92BF92CF92DF92EF92FF9255
:1033B0000F931F93CF93DF93DC0154961C92549785
:1033C000662309F4FBC050962C915097222309F4F0
:1033D000F5C030E0A62EB12CA216B3069CF0DF910A
:1033E000CF911F910F91FF90EF90DF90CF90BF9002
:1033F000AF909F908F907F906F905F904F903F9095
:103400000C94C7138C010E551F4FF8012081318198
:10341000A216B30608F0D2C0EC017C01F2E2EF0E76
:10342000F11CFC01EF55FF4FC9010197A816B90621
:1034300041F41AA21082D8011D921C9287E03596A1
:103440007CC02D01B4EA4B0E511CD2014C91649FFB
:103450003001112453E0769467945A95E1F7362CA5
:10346000842E912C68E0C62ED12CC601B4010E9496
:10347000DC27C5010E94C827009709F460C0489F57
:10348000802D112468E0681B90812701462D431987
:103490006916D8F46E01C60CD11CD60193964C91D6
:1034A000939750E0062E02C0559547950A94E2F78F
:1034B0009296CC90082E01C0CC0C0A94EAF74C29C5
:1034C000D2014D932D016394E1CF20FD10C0BE01C8
:1034D000640F711DAE01460D511DDA0192969C914B
:1034E00001C0990F8A95EAF7DB0192969C932A19FD
:1034F0003B09D8012D933C93829E6001839ED00CA2
:10350000929ED00C1124C60168E070E00E94DC2776
:10351000DE01AA55BF4F882321F097E0981B892F21
:1035200001C087E08C93C6018819990997FD079619
:1035300023E0959587952A95E1F7808322C0408105
:1035400046194083772450E04F5F5F4FB701660D07
:10355000771DC7010E94E228F201608170E0C60178
:103560000E94DC27669D9001679D300D769D300D91
:103570001124D8018D919C911197821B930B8D93EF
:103580009C9381E08C8BF80160817181688B66234C
:1035900099F0772761507109C7010E94A612FE01B8
:1035A000E855FF4F8081880F990B83559F4F8C0FF3
:1035B0009D1F99A388A302C019A218A2DF91CF91E1
:1035C0001F910F91FF90EF90DF90CF90BF90AF9041
:1035D0009F908F907F906F905F904F903F90089555
:1035E000FC0180819181892B51F482819381892B07
:1035F00031F48481958121E082278170089580E0F3
:103600000895EF92FF920F931F93CF93DF9361156D
:103610007105E1F08B01FB0101900020E9F7319782
:103620007F01E61AF70AEC01C753DF4FCE010E9473
:10363000F01A81110BC04E2DB801CE01DF91CF9150
:103640001F910F91FF90EF900C942A1380E090E06F
:10365000DF91CF911F910F91FF90EF9008951F92EE
:103660000F920FB60F9211242F933F934F935F93B6
:103670006F937F938F939F93AF93BF93EF93FF933A
:10368000E0912B02F0912C020995FF91EF91BF91EF
:10369000AF919F918F917F916F915F914F913F91EA
:1036A0002F910F900FBE0F901F9018950895CF92F5
:1036B000DF92EF92FF920F931F93CF93DF936C01F2
:1036C0007A018B01C0E0D0E0CE15DF0581F0D80192
:1036D0006D918D01D601ED91FC910190F081E02D6D
:1036E000C6010995892B11F02196EECF7E01C70105
:1036F000DF91CF911F910F91FF90EF90DF90CF90CE
:103700000895089580E090E00895FC01538D448D64
:10371000252F30E0842F90E0821B930B541710F07C
:10372000CF96089501970895FC01918D828D981789
:1037300061F0828DDF01A80FB11D5D968C91928D95
:103740009F5F9F73928F90E008958FEF9FEF089592
:10375000FC01918D828D981731F0828DE80FF11D5B
:10376000858D90E008958FEF9FEF0895FC01918D76
:10377000228D892F90E0805C9F4F821B91098F736F
:10378000992708958CE392E00E94B61B21E0892BD3
:1037900009F420E0822F08950E94C428EF92FF923E
:1037A0000F931F93CF93DF93EC0181E0888F9B8D64
:1037B0008C8D981305C0E889F989808185FD26C024
:1037C000F62E0B8D10E00F5F1F4F0F731127E02EA9
:1037D0008C8DE8120CC00FB607FCFACFE889F98986
:1037E000808185FFF5CFCE010E947212F1CF8B8DC3
:1037F000FE01E80FF11DE35AFF4FF0829FB7F894E6
:103800000B8FEA89FB89808180620AC09FB7F89498
:10381000EE89FF896083E889F989808183708064FB
:1038200080839FBF81E090E0DF91CF911F910F9146
:10383000FF90EF900895CF93DF93EC01888D88235C
:10384000C9F0EA89FB89808185FD05C0A889B9890D
:103850008C9186FD0FC00FB607FCF5CF808185FFE8
:10386000F2CFA889B9898C9185FFEDCFCE010E9456
:103870007212E7CFDF91CF9108951F920F920FB68A
:103880000F9211242F933F934F935F936F937F93E6
:103890008F939F93AF93BF93EF93FF93E0910201B8
:1038A000F09103010995FF91EF91BF91AF919F9125
:1038B0008F917F916F915F914F913F912F910F90D9
:1038C0000FBE0F901F9018951F920F920FB60F9278
:1038D00011242F933F934F935F936F937F938F9315
:1038E0009F93AF93BF93EF93FF93E0910001F0910B
:1038F00001010995FF91EF91BF91AF919F918F9138
:103900007F916F915F914F913F912F910F900FBEDB
:103910000F901F9018951F920F920FB60F921124BF
:103920002F933F934F935F936F937F938F939F93C7
:10393000AF93BF93EF93FF938CE392E00E947212D8
:10394000FF91EF91BF91AF919F918F917F916F9177
:103950005F914F913F912F910F900FBE0F901F904D
:1039600018951F920F920FB60F9211242F938F93D9
:103970009F93EF93FF93E0914C02F0914D02808171
:10398000E0915202F091530282FD12C09081809129
:1039900055028F5F8F7320915602821751F0E0918C
:1039A0005502F0E0E45CFD4F958F8093550201C015
:1039B0008081FF91EF919F918F912F910F900FBE7A
:1039C0000F901F901895009769F0FC01019000205E
:1039D000E9F73197AF01481B590BBC018CE392E02A
:1039E0000C94571B80E090E008958F929F92AF92C5
:1039F000BF920F931F93CF93DF93CDB7DEB7A197FD
:103A00000FB6F894DEBF0FBECDBF19A2423008F446
:103A10004AE08E010F5D1F4F842E912CA12CB12CFA
:103A2000A50194010E944927E62FB901CA0101505E
:103A30001109EA3014F4E05D01C0E95CD801EC93AF
:103A4000232B242B252B61F7C8010E94E31CA19690
:103A50000FB6F894DEBF0FBECDBFDF91CF911F919F
:103A60000F91BF90AF909F908F900895682F8CE337
:103A700092E00C94CE1BCF92DF92EF92FF92CF9305
:103A8000DF936C01990FEE08FF08F7FE17C08DE277
:103A90000E94361DEC0166277727CB016C197D0942
:103AA0008E099F094AE00E94F51C8C0F9D1FDF9133
:103AB000CF91FF90EF90DF90CF9008954AE0C7013B
:103AC000B601DF91CF91FF90EF90DF90CF900C94F3
:103AD000F51C0F931F93CF93DF938C01C0E0D0E0D0
:103AE000F801EC0FFD1F6491662341F08CE392E036
:103AF0000E94CE1B892B11F02196F2CFCE01DF91CF
:103B0000CF911F910F910895CF93DF930E94E31CF3
:103B1000EC018BEA91E00E94E31C8C0F9D1FDF916A
:103B2000CF910895CF93DF930E94691DEC018BEA3A
:103B300091E00E94E31C8C0F9D1FDF91CF910895AF
:103B4000CF92DF92EF92FF92CF93DF936C01990FA8
:103B5000EE08FF08F7FE11C08DE20E94361DEC0151
:103B600066277727CB016C197D098E099F094AE0EA
:103B70000E94F51CC80FD91F06C04AE0C701B60154
:103B80000E94F51CEC018BEA91E00E94E31C8C0F73
:103B90009D1FDF91CF91FF90EF90DF90CF90089520
:103BA0002FB7F8948091330290913402A09135029E
:103BB000B09136022FBF8093440290934502A093A8
:103BC0004602B09347028CE392E00E94941B97FF59
:103BD00026C02FB7F8948091330290913402A091BF
:103BE0003502B09136022FBF4091440250914502F8
:103BF0006091460270914702841B950BA60BB70B90
:103C00004091400250914102609142027091430202
:103C100084179507A607B707B0F28FEF9FEF0895B7
:103C20003FB7F8948091380290913902A0913A02FE
:103C3000B0913B0226B5A89B05C02F3F19F0019615
:103C4000A11DB11D3FBFBA2FA92F982F8827820F22
:103C5000911DA11DB11DBC01CD0142E0660F771F72
:103C6000881F991F4A95D1F708958F929F92AF921E
:103C7000BF92CF92DF92EF92FF926B017C010E9484
:103C8000101E4B015C01C114D104E104F104F1F0F8
:103C90000E94101EDC01CB0188199909AA09BB09F1
:103CA000883E9340A105B10570F321E0C21AD10806
:103CB000E108F10888EE880E83E0981EA11CB11C73
:103CC000C114D104E104F10419F7DDCFFF90EF90A6
:103CD000DF90CF90BF90AF909F908F9008951F92EC
:103CE0000F920FB60F9211242F933F938F939F93B0
:103CF000AF93BF938091330290913402A09135022B
:103D0000B09136023091370223E0230F2D3720F493
:103D10000196A11DB11D05C026E8230F0296A11D25
:103D2000B11D209337028093330290933402A09305
:103D30003502B09336028091380290913902A091F9
:103D40003A02B0913B020196A11DB11D8093380249
:103D500090933902A0933A02B0933B02BF91AF9186
:103D60009F918F913F912F910F900FBE0F901F90B9
:103D70001895CF93DF931F92CDB7DEB7898386EA7C
:103D800093E00E94F01A811109C041E0BE016F5F0B
:103D90007F4F86EA93E00E942A1302C080E090E001
:103DA0000F90DF91CF910895CF93DF93CDB7DEB71A
:103DB0002A970FB6F894DEBF0FBECDBF789484B5B6
:103DC000826084BD84B5816084BD85B5826085BD17
:103DD00085B5816085BD80916E00816080936E00A5
:103DE0001092810080918100826080938100809197
:103DF0008100816080938100809180008160809348
:103E000080008091B10084608093B1008091B00007
:103E100081608093B00080917A00846080937A0002
:103E200080917A00826080937A0080917A0081602C
:103E300080937A0080917A00806880937A00109253
:103E4000C100E0914C02F0914D0282E08083E0914C
:103E50004C02F0914D021082E0914802F09149022B
:103E60001082E0914A02F0914B0280E1808310922F
:103E70005402E0915002F091510286E08083E0917B
:103E80004E02F0914F02808180618083E0914E026A
:103E9000F0914F02808188608083E0914E02F09122
:103EA0004F02808180688083E0914E02F0914F0242
:103EB00080818F7D80835298259A80E090E00E94D7
:103EC0009612833309F032C281E090E00E9496128C
:103ED0008D3109F02BC28FEF90E00E949612982F3F
:103EE00091709093E00281FB992790F99093DE0204
:103EF00082FB992790F99093DF0283FB882780F952
:103F00008093E102239A62E370E080E090E00E94F7
:103F1000351E80E1809381001092800082E08093C2
:103F20002F0281E09DE790932E0280932D029093C3
:103F300087008093860082E18093810087E291E18F
:103F400090932C0280932B0281E080936F001E825D
:103F50001D828BE990E19C838B838B819C81AD8159
:103F6000BE818093A8039093A903A093AA03B09362
:103F7000AB0382E191E19093A7038093A6030E9493
:103F8000981280E991E0A0E0B0E080934002909325
:103F90004102A0934202B093430272E0472E512C9B
:103FA000612C712C99249394E7E08E2EF3E0AF2ED0
:103FB000B12C8091AD03882309F4B5C18091AD0384
:103FC00081508093AD038091AF036091AC030E9458
:103FD000BC279093AF03E091AF0381E08E0F8093F5
:103FE000AF03F0E0EE0FFF1FE055FC4F80819181A1
:103FF00090933202809331021092F0026091ED02B0
:10400000662391F070E0615071098FEF92E00E9499
:10401000A61280918503880F990B86579C4F909329
:10402000FE028093FD0204C01092FE021092FD0277
:104030004091310250913202E091FB02F091FC027A
:10404000518340839091ED02992379F0E091FD0234
:10405000F091FE02309749F02081318124273527E5
:10406000232F221F2227221F01C021E031E09E3F83
:1040700009F430E081E0411553480CF480E08323DB
:1040800011F0211132C00E94EE008091F0028111E6
:1040900004C080919D038823B1F08091ED028823B4
:1040A000D1F0E091FD02F091FE023097A1F0A091D5
:1040B000FB02B091FC022D913C918081918182277D
:1040C000932797FD08C08DED92E00E94C7131092D0
:1040D000FE021092FD028091ED028E3F91F560E0AC
:1040E00070E0CB010E94351E2CC0983251F5B09281
:1040F000F602A092F50280EA93E00E94F01A811184
:1041000020C02091A0033091A103E091A203F0917F
:10411000A3034091A4035091A503CA0195958795E7
:1041200040FF0AC0D901A80FB91F4D915C91E40F5F
:10413000F51F0190F081E02D820F931F0995809368
:104140009F03C090FB02D090FC02D6010D911C9100
:10415000B80117FF04C066277727601B710B072E75
:10416000000C880B990B0E9406262DEC3CEC4CE4CD
:104170005EE30E9465260E9490289B017093F402E2
:104180006093F30270919A03EAE8F3E060E0761737
:10419000C1F081919191A8014827592757FD0FC07F
:1041A000009769F0A801481B590BCA0157FF03C0CB
:1041B000919581959109281739070CF0CBC06F5F55
:1041C000E6CF7830E1F540E060E08DED92E00E94CE
:1041D0004C13E0919B03F0E0E352FD4F8681833066
:1041E00040F00E94EE0040E060E08DED92E00E9421
:1041F0004C131091ED021150E0919B03F0E0E3525B
:10420000FD4F86818823D9F08091ED028823B9F093
:10421000612F70E08FEF92E00E94A612209185033B
:10422000022E000C330B80919B0390E02817390776
:1042300011F761E0610F8DED92E00E94CB191091B2
:104240009B03E091FB02F091FC0280819181E12FC0
:10425000F0E0EE0FFF1FE657FC4F9183808381E073
:10426000810F883019F080939B0306C010929B0346
:1042700080939A0310929D0380919B0390919A03DF
:10428000981710F480939A03312F20918303809123
:104290007F03909180032730B9F418161906A4F40F
:1042A000E0917E036E2F70E04091840350E0415016
:1042B0005109641775070CF072C0EF5FE0937E033D
:1042C000F0E0E352FD4F12A2A09181034A2F50E08B
:1042D000622F70E06F5F7F4F641B750B1616170619
:1042E0002CF4312F01C0330F6A95EAF7E0917E0379
:1042F000F0E0E352FD4F62A1362B32A3019690937A
:10430000800380937F03622F022E000C770BFB014A
:10431000E41BF50BF7FD04C02A1B20938303AEC0FA
:1043200080928303ABC00E94C51943CE6FE08FEF2C
:1043300090E00E94941281E691E00E94921D63E356
:1043400080E090E00E9494126DE181E090E00E9494
:104350009412C1CD162F67FD34CF812F880F990B92
:10436000DC01A657BC4F7D016D917C919B01770FBD
:10437000440B550BD6018D919C91092E000CAA0B74
:10438000BB0B280F391F4A1F5B1FCA01B901A301CC
:1043900092010E94F027F7013183208375CF60E0FE
:1043A00070E0CB010E94351E6AEB71E08DED92E06A
:1043B0000E94011B6BEC71E08DED92E00E94011BED
:1043C0008091EE020E94B91E64ED71E08DED92E0E5
:1043D0000E94011B8091EF020E94B91E6BED71E0FB
:1043E0008DED92E00E94011B812F0E94B91E61EEAB
:1043F00071E08DED92E00E94011B8091ED020E9420
:10440000B91E6AEE71E08DED92E00E94011B809171
:104410007E030E94B91E61EF71E08DED92E00E9473
:10442000011B80917F030E94B91E68EF71E08DED42
:1044300092E00E94011B8091F1020E94B91E61E08E
:1044400072E08DED92E00E94011B8091F5020E94C6
:10445000B91E69E072E08DED92E00E94011B80912F
:10446000F0020E94B91E8AE00E94B91E8091F002FB
:10447000882309F49ECD909230029BCD8093ED026B
:104480001092F102F3CFCF93DF93ECE3F2E01382CB
:10449000128288EE93E0A0E0B0E084839583A68347
:1044A000B78382E191E09183808385EC90E09587EA
:1044B000848784EC90E09787868780EC90E0918BEE
:1044C000808B81EC90E0938B828B82EC90E0958BDB
:1044D000848B86EC90E0978B868B118E128E138ED8
:1044E000148EECEAF3E08AE5808311821382128253
:1044F000CDEDD2E087EF92E09F8F8E8F19A218A2A8
:104500008FE78093840384E0809381031AA2109242
:104510007E031092800310927F0387E080938303D1
:1045200080EF8093820310929F031092A103109258
:10453000A0031092A3031092A2031092A50310925D
:10454000A4031092A7031092A6031092A90310923D
:10455000A8031092AB031092AA031B8E1A8ECE01F1
:104560000E94C71381E180939E031D8281E08C83AA
:104570001F861E860E94101E6093D9027093DA0275
:104580008093DB029093DC02DF91CF9108950F932B
:104590001F93CF93DF938230910510F482E090E077
:1045A000E0916604F091670420E030E0A0E0B0E024
:1045B000309719F1408151810281138148175907C1
:1045C000C8F08417950769F4109731F012960C9390
:1045D000129713961C9327C00093660410936704E8
:1045E00022C02115310519F04217530718F49A011A
:1045F000BD01EF01DF01F801DBCF21153105F9F035
:10460000281B390B2430310580F48A819B81611588
:10461000710521F0FB019383828304C090936704AA
:1046200080936604FE01329644C0FE01E20FF31F40
:104630008193919322503109398328833AC0209184
:10464000640430916504232B41F4209106013091DC
:104650000701309365042093640420910401309194
:1046600005012115310541F42DB73EB740910801F0
:1046700050910901241B350BE0916404F09165040D
:10468000E217F307A0F42E1B3F0B2817390778F029
:10469000AC014E5F5F4F2417350748F04E0F5F1F88
:1046A00050936504409364048193919302C0E0E0C9
:1046B000F0E0CF01DF91CF911F910F910895CF933B
:1046C000DF93009709F481C0FC01329713821282B4
:1046D000A0916604B0916704109781F42081318124
:1046E000820F931F209164043091650428173907C5
:1046F00051F5F0936504E093640467C0ED0120E098
:1047000030E0CE17DF0740F44A815B819E014115FE
:104710005105F1F0EA01F5CFD383C2834081518185
:10472000840F951FC817D90759F488819981840F80
:10473000951F0296918380838A819B8193838283D4
:104740002115310529F4F0936704E09366043DC018
:10475000E901FB83EA8349915991C40FD51FEC17F6
:10476000FD0761F480819181840F951F0296E90114
:1047700099838883828193819B838A83E0E0F0E040
:1047800012968D919C911397009719F0FD01DC0111
:10479000F7CF8D919C9111979D012E5F3F4F820F16
:1047A000931F20916404309165042817390769F438
:1047B000309729F4109267041092660402C01382A5
:1047C0001282B0936504A0936404DF91CF910895A1
:1047D000A0E0B0E0EEEEF3E20C9477275C016B0111
:1047E0007A016115710519F0FB0191838083E11451
:1047F000F10429F0C7010297839708F0E5C0E501AD
:104800002196F5011081812F90E00E94F325892BDC
:1048100011F05E01F4CF1D3229F42196F5011181CA
:1048200001E007C01B3221F4E5012296F501118158
:1048300000E0E114F10409F1F0E1EF16F10429F4CC
:104840003FC010E3E114F10421F128E0E216F10485
:1048500001F154F4E2E0EE16F10421F5812C912CE3
:10486000A12CB0E4BB2E3EC0FAE0EF16F10439F003
:1048700020E1E216F104B1F430C0103319F1FAE08E
:10488000EF2EF12CACEC8A2E982CA82CACE0BA2E92
:1048900029C078E0E72EF12C812C912CA12CE0E1AD
:1048A000BE2E20C060E070E080E090E897010F2C01
:1048B000000C440B550B0E94492749015A0112C0B4
:1048C000103359F488818F7D883509F0BACF19816A
:1048D0002296026080E1E82EF12C812C912CA12CF3
:1048E00068E0B62E40E060E070E0CB0127010F2CBD
:1048F000000C66087708FE0150ED352E310E29E0D8
:10490000231570F42FEB210F2A3118F439EC332ED4
:1049100006C02FE9210F2A3118F529EA322E310E6F
:10492000232D30E02E153F05DCF447FD16C086161A
:104930009706A806B90670F0A30192010E943927D4
:10494000630D711D811D911D61307105810520E888
:10495000920710F04FEF01C041E021961081CBCFBC
:10496000202F2170C114D10471F0442329F0219724
:10497000F601D183C08307C001FF19C02297F60159
:10498000D183C08314C047FF12C0222329F060E006
:1049900070E080E090E804C06FEF7FEF8FEF9FE75B
:1049A00022E230E0309369042093680409C0222396
:1049B00081F090958095709561957F4F8F4F9F4FB7
:1049C000462F372F282F12C040E030E020E090E043
:1049D0000DC097FFF5CF82E290E090936904809339
:1049E00068046FEF7FEF8FEF9FE7EACF642F732F9D
:1049F000822FCDB7DEB7E1E10C949327A0E0B0E0C1
:104A0000E4E0F5E20C9477275C016B017A01611513
:104A1000710519F0FB0191838083E114F10429F001
:104A2000C7010297839708F0C9C0E5012196F501F7
:104A30001081812F90E00E94F325892B11F05E01F7
:104A4000F4CF1D3229F42196F501118101E007C050
:104A50001B3221F4E5012296F501118100E0E114F9
:104A6000F104B1F0F0E1EF16F10429F4B0C010E365
:104A7000E114F10401F12AE0E216F104B1F180E160
:104A8000E816F10471F0E8E0EE16F104F1F413C059
:104A9000103341F588818F7D883549F71981229639
:104AA0000260F0E1EF2EF12C88248A94982CA82C37
:104AB000AFE0BA2E20C078E0E72EF12C88248A944B
:104AC000982CA82CEFE1BE2E16C06FEF7FEFCB0124
:104AD00097010F2C000C440B550B0E9449274901EC
:104AE0005A0109C08AE0E82EF12C69E9862E982C3B
:104AF000A82C69E1B62E40E060E070E0CB01270110
:104B00000F2C000C66087708FE0150ED352E310E93
:104B100029E0231570F42FEB210F2A3118F439EC1A
:104B2000332E06C02FE9210F2A3130F529EA322E23
:104B3000310E232D30E02E153F05F4F44F3FC9F020
:104B400086169706A806B90688F0A30192010E946E
:104B50003927232D30E040E050E0620F731F841F9F
:104B6000951F621773078407950710F44FEF01C074
:104B700041E021961081C8CFC114D10451F04423E3
:104B800011F0219703C001FF04C02297F601D183E1
:104B9000C08300FF07C090958095709561957F4F09
:104BA0008F4F9F4F4F3F79F482E290E090936904DA
:104BB000809368043FEF2FEF9FEF0DC040E030E09F
:104BC00020E090E008C0462F372F282F04C0103374
:104BD00009F067CF5FCF642F732F822FCDB7DEB779
:104BE000E1E10C94932791110C94FC25803219F08B
:104BF00089508550C8F708959927882708950E94FD
:104C0000412608F481E00895E89409C097FB3EF43A
:104C100090958095709561957F4F8F4F9F4F992309
:104C2000A9F0F92F96E9BB279395F6958795779587
:104C30006795B795F111F8CFFAF4BB0F11F460FF47
:104C40001BC06F5F7F4F8F4F9F4F16C0882311F09F
:104C500096E911C0772321F09EE8872F762F05C0B3
:104C6000662371F096E8862F70E060E02AF09A954E
:104C7000660F771F881FDAF7880F9695879597F943
:104C80000895990F0008550FAA0BE0E8FEEF1616DD
:104C90001706E807F907C0F012161306E407F50730
:104CA00098F0621B730B840B950B39F40A2661F0A4
:104CB000232B242B252B21F408950A2609F4A14047
:104CC000A6958FEF811D811D08950E9478260C9472
:104CD000E9260E94DB2638F00E94E22620F0952388
:104CE00011F00C94D2260C94D82611240C941D2774
:104CF0000E94FA2670F3959FC1F3950F50E0551F5F
:104D0000629FF001729FBB27F00DB11D639FAA2720
:104D1000F00DB11DAA1F649F6627B00DA11D661F6F
:104D2000829F2227B00DA11D621F739FB00DA11D90
:104D3000621F839FA00D611D221F749F3327A00D4A
:104D4000611D231F849F600D211D822F762F6A2FE6
:104D500011249F5750409AF0F1F088234AF0EE0F4B
:104D6000FF1FBB1F661F771F881F91505040A9F778
:104D70009E3F510580F00C94D2260C941D275F3F76
:104D8000E4F3983ED4F3869577956795B795F795B4
:104D9000E7959F5FC1F7FE2B880F911D969587952C
:104DA00097F9089597F99F6780E870E060E00895AB
:104DB0009FEF80EC089500240A9416161706180633
:104DC0000906089500240A9412161306140605060F
:104DD0000895092E0394000C11F4882352F0BB0FA0
:104DE00040F4BF2B11F460FF04C06F5F7F4F8F4F03
:104DF0009F4F089557FD9058440F551F59F05F3F3E
:104E000071F04795880F97FB991F61F09F3F79F0EC
:104E100087950895121613061406551FF2CF46956E
:104E2000F1DF08C0161617061806991FF1CF8695F0
:104E30007105610508940895E894BB2766277727D4
:104E4000CB0197F90895F999FECF92BD81BDF89AEB
:104E5000992780B50895262FF999FECF1FBA92BDE4
:104E600081BD20BD0FB6F894FA9AF99A0FBE01964B
:104E70000895DB018F939F930E946B27BF91AF91A1
:104E8000A29F800D911DA39F900DB29F900D1124A4
:104E90000895A1E21A2EAA1BBB1BFD010DC0AA1F7B
:104EA000BB1FEE1FFF1FA217B307E407F50720F093
:104EB000A21BB30BE40BF50B661F771F881F991F0E
:104EC0001A9469F760957095809590959B01AC0157
:104ED000BD01CF0108950E94AD27A59F900DB49FFD
:104EE000900DA49F800D911D112408952F923F9243
:104EF0004F925F926F927F928F929F92AF92BF92EA
:104F0000CF92DF92EF92FF920F931F93CF93DF9395
:104F1000CDB7DEB7CA1BDB0B0FB6F894DEBF0FBEF2
:104F2000CDBF09942A88398848885F846E847D843F
:104F30008C849B84AA84B984C884DF80EE80FD8041
:104F40000C811B81AA81B981CE0FD11D0FB6F894B7
:104F5000DEBF0FBECDBFED010895A29FB001B39F8C
:104F6000C001A39F700D811D1124911DB29F700D72
:104F7000811D1124911D0895991B79E004C0991F8A
:104F8000961708F0961B881F7A95C9F780950895A3
:104F9000AA1BBB1B51E107C0AA1FBB1FA617B7075F
:104FA00010F0A61BB70B881F991F5A95A9F780957B
:104FB0009095BC01CD01089597FB072E16F400943F
:104FC00007D077FD09D00E94C82707FC05D03EF422
:104FD000909581959F4F0895709561957F4F0895A5
:104FE000052E97FB1EF400940E94072857FD07D05A
:104FF0000E94492707FC03D04EF40C9407285095D3
:105000004095309521953F4F4F4F5F4F08959095B4
:105010008095709561957F4F8F4F9F4F08950E94A7
:10502000AD27B7FF0895821B930B0895EE0FFF1F66
:105030000590F491E02D09945058BB27AA270E94AF
:1050400034280C94E9260E94DB2638F00E94E226E0
:1050500020F039F49F3F19F426F40C94D8260EF46E
:10506000E095E7FB0C94D226E92F0E94FA2658F32C
:10507000BA17620773078407950720F079F4A6F53D
:105080000C941C270EF4E0950B2EBA2FA02D0B01CB
:10509000B90190010C01CA01A0011124FF27591B7D
:1050A00099F0593F50F4503E68F11A16F040A22F83
:1050B000232F342F4427585FF3CF469537952795F4
:1050C000A795F0405395C9F77EF41F16BA0B620BF3
:1050D000730B840BBAF09150A1F0FF0FBB1F661F3A
:1050E000771F881FC2F70EC0BA0F621F731F841F7D
:1050F00048F4879577956795B795F7959E3F08F0A3
:10510000B0CF9395880F08F09927EE0F9795879564
:1051100008950E9490286894B1110C941D27089559
:105120000E94022788F09F5798F0B92F9927B7510E
:10513000B0F0E1F0660F771F881F991F1AF0BA953B
:10514000C9F714C0B13091F00E941C27B1E0089556
:105150000C941C27672F782F8827B85F39F0B93F48
:10516000CCF3869577956795B395D9F73EF49095EE
:105170008095709561957F4F8F4F9F4F08950E9446
:10518000412608F48FEF089581E090E0F8940C94A4
:10519000CA2B91110C94FC2580538A5028F0865C10
:1051A000806281568650B0F70895FC01415050400E
:1051B00030F001900616D1F73197CF010895882776
:1051C000992708956817790768F4FB01DC01E40F5B
:1051D000F51FA40FB51F02C002900E92415050401F
:1051E000D8F708950C941C2BFB0151915523A9F07D
:1051F000BF01DC014D9145174111E1F759F4CD0193
:105200000190002049F04D9140154111C9F3FB0177
:105210004111EFCF81E090E001970895AEE0B0E05A
:10522000E4E1F9E20C9484270D891E8986E08C83E1
:105230001A8309838FEF9FE79E838D83AE01475EBC
:105240005F4F6F89788DCE0101960E943029EF81E2
:10525000F885E00FF11F10822E96E4E00C94A02751
:10526000ABE0B0E0E6E3F9E20C9476276C017B0159
:105270008A01FC0117821682838181FFCCC1CE0195
:1052800001963C01F6019381F70193FD859193FF0F
:1052900081917F01882309F4BAC1853239F493FDE5
:1052A000859193FF81917F01853229F4B60190E0C9
:1052B0000E94302BE7CF912C212C312CFFE1F315EC
:1052C000D8F08B3279F038F4803279F08332A1F45F
:1052D000232D20611DC08D3261F0803369F4232DB0
:1052E000216016C0832D8260382EE32DE4603E2EAF
:1052F0002AC0F32DF8601DC037FC2DC020ED280F0B
:105300002A3040F08E32B9F436FC81C1232D20645E
:10531000322E19C036FE06C08AE0989E200D112458
:10532000922E11C0EAE02E9E200D1124222EF32D84
:10533000F0623F2E08C08C3621F4832D8068382E11
:1053400002C0883641F4F70193FD859193FF819166
:105350007F018111B3CF982F9F7D9554933028F40E
:105360000C5F1F4F9FE399830DC0833631F0833765
:1053700071F0833509F059C021C0F801808189831B
:105380000E5F1F4F88248394912C530113C0280172
:10539000F2E04F0E511CF801A080B18036FE03C030
:1053A000692D70E002C06FEF7FEFC5010E94252BD1
:1053B0004C018201F32DFF773F2E16C0280122E019
:1053C000420E511CF801A080B18036FE03C0692D49
:1053D00070E002C06FEF7FEFC5010E94112B4C01FE
:1053E000F32DF0683F2E820133FC1BC0822D90E02C
:1053F00088169906B0F4B60180E290E00E94302B46
:105400002A94F4CFF50137FC859137FE81915F0135
:10541000B60190E00E94302B21102A9421E0821ADC
:1054200091088114910471F7E8C0843611F089362F
:1054300041F5F80137FE07C0608171818281938157
:105440000C5F1F4F08C060817181072E000C880B14
:10545000990B0E5F1F4FF32DFF763F2E97FF09C06C
:1054600090958095709561957F4F8F4F9F4FF06815
:105470003F2E2AE030E0A3010E946C2B882E861874
:1054800045C0853731F4232D2F7EB22E2AE030E03F
:1054900025C0932D997FB92E8F36C1F018F4883529
:1054A00079F0B5C0803719F0883721F0B0C0E92F06
:1054B000E061BE2EB4FE0DC0FB2DF460BF2E09C00E
:1054C00034FE0AC0292F2660B22E06C028E030E044
:1054D00005C020E130E002C020E132E0F801B7FE73
:1054E00007C060817181828193810C5F1F4F06C06C
:1054F0006081718180E090E00E5F1F4FA3010E94E8
:105500006C2B882E8618FB2DFF773F2E36FE0DC0A4
:10551000232D2E7FA22E891458F434FE0BC032FCAA
:1055200009C0832D8E7EA82E05C0B82CA32C03C0E5
:10553000B82C01C0B92CA4FE0FC0FE01E80DF11D6E
:105540008081803321F49A2D997EA92E09C0A2FE74
:1055500006C0B394B39404C08A2D867809F0B3943E
:10556000A3FC11C0A0FE06C0B21488F4280C922C33
:105570009B180EC0B21460F4B60180E290E00E9465
:10558000302BB394F7CFB21418F42B1802C0982C18
:10559000212CA4FE10C0B60180E390E00E94302BC5
:1055A000A2FE17C0A1FC03C088E790E002C088E516
:1055B00090E0B6010CC08A2D867859F0A1FE02C099
:1055C0008BE201C080E2A7FC8DE2B60190E00E9470
:1055D000302B891438F4B60180E390E00E94302B20
:1055E0009A94F7CF8A94F301E80DF11D8081B601FA
:1055F00090E00E94302B8110F5CF222009F442CE9A
:10560000B60180E290E00E94302B2A94F6CFF6019A
:105610008681978102C08FEF9FEF2B96E2E10C9479
:105620009227FC010590615070400110D8F78095D9
:1056300090958E0F9F1F0895FB01DC0102C0019021
:105640000D9241505040D8F70895FC0161507040D0
:1056500001900110D8F7809590958E0F9F1F0895A7
:105660000F931F93CF93DF93FB01238121FD03C091
:105670008FEF9FEF2CC022FF16C0468157812481F7
:1056800035814217530744F4A081B1819D012F5FFA
:105690003F4F318320838C93268137812F5F3F4F8B
:1056A0003783268314C08B01EC01FB010084F18554
:1056B000E02D0995892BE1F6D80116968D919C91E4
:1056C0001797019617969C938E931697CE01DF91AC
:1056D000CF911F910F910895FA01AA27283051F117
:1056E000203181F1E8946F936E7F6E5F7F4F8F4F13
:1056F0009F4FAF4FB1E03ED0B4E03CD0670F781F72
:10570000891F9A1FA11D680F791F8A1F911DA11D56
:105710006A0F711D811D911DA11D20D009F468948F
:105720003F912AE0269F11243019305D3193DEF637
:10573000CF010895462F4770405D4193B3E00FD0ED
:10574000C9F7F6CF462F4F70405D4A3318F0495DD8
:1057500031FD4052419302D0A9F7EACFB4E0A695BB
:105760009795879577956795BA95C9F700976105DD
:10577000710508959B01AC010A2E06945795479533
:1057800037952795BA95C9F7620F731F841F951F28
:08579000A01D0895F894FFCF5D
:10579800561B561B00006A042000FFFFFFFF000095
:1057A8000000CE1B571B851B1B1CB61B941BA81B7C
:1057B8004D730044003B4325583B5325583B00524A
:1057C80025583B004D53005025693D25693B004451
:1057D8003D002564003B43503D25693B53503D2522
:1057E800693B00523D25693B004F006D25693B0030
:1057F8004D43003B4C4C3D25693B4C483D256900D9
:105808003B534C3D25693B53483D25693B002530BA
:1058180032580025303158003B433D25693B4C3D0B
:1058280025693B004D75003B4325583B004D55000D
:105838003B43503D25693B004F4B000D0A004D721C
:105848006564006D636D626C3D0020616464446151
:105858007461206F666C6F772D3E00206D737461E4
:1058680072743D00206D656E643D002076616C3D6C
:1058780000206D73676C656E3D0020627974633D2E
:10588800002076616C633D00206D5472756E633D37
:10589800002073746174653D0020737563636573DC
:0458A800733D00004C
:00000001FF
