:100000000C947C020C94BF1E0C94981E0C94A402B9
:100010000C94A4020C94A4020C94A4020C94A402C8
:100020000C94A4020C94A4020C94A4020C94A402B8
:100030000C94A4020C94B7170C94A4020C94A40280
:100040000C9464280C94A4020C940C1F0C94E61ECF
:100050000C94A4020C94A4020C94A4020C94A40288
:100060000C94A4020C94A4023A2053657474696E33
:1000700067205258206661696C65640020767320A1
:10008000696E697476616C20494F434647323D0082
:10009000494F434647323D0020767320696E6974AC
:1000A00076616C20504B544354524C303D00504BC1
:1000B000544354524C303D006363466163746F7225
:1000C00079526573657420646F6E65000D2E2D473F
:1000D000D3913D04320000060010B07157C43023A4
:1000E000B900070018146C070091876BF8B611E986
:1000F0002A001F4100646F6E650072656164200014
:10010000454550524F4D00504F5220646F6E652C44
:10011000005352455320737461727465642C00431C
:1001200043496E697420003A0064756D702C20009C
:100130003A2053657474696E67205458206661696B
:100140006C6564003A2053657474696E6720545876
:10015000206661696C65640063637265672077720D
:10016000697465206261636B20002072657065614F
:1001700074732000207061727420006D736720001A
:10018000746F206C6F6E672000636F72727570748D
:100190000073656E6420636D642000544F555400F5
:1001A000627265616B206C6F6F7000777269746545
:1001B000206E657720636372656773202300616436
:1001C00064696E672073656E64636C6F636B002097
:1001D000656E643A006C6F636174696E6720646178
:1001E00074612073746172743A00416464696E676B
:1001F00020726570656174733A2000416464696EB1
:1002000067206275636B6574007265617272616EFE
:10021000676520626567696E707472004164646925
:100220006E67207846534B206D6573736167650078
:10023000416464696E672072617700416464696E2D
:1002400067206D616E6368657374657200646F6EBC
:100250006500496E697420656570726F6D20746FFA
:100260002064656661756C747320616674657220C4
:10027000666C617368002E00454550524F4D005228
:10028000656164696E672076616C7565732066725E
:100290006F6D2000666F756E6420006363313130CE
:1002A0003120006E6F20004343506172746E756D93
:1002B000203D00434356657273696F6E203D2000F8
:1002C000636F6D6D616E642065006973206E6F747D
:1002D00020636F72726563746C7920736574206635
:1002E0006F722041534B2F4F4F4B2E20506C656146
:1002F000736520646F206120666163746F7279207A
:100300007265736574207669612000726563656942
:1003100076657220656E61626C656400537461720B
:1003200074696E672074696D65726A6F6200666FCA
:10033000756E6420006363313130312000206D62BE
:100340002066206120742070726F6320003B003BA8
:10035000523D004D4E3B443D004D43004D55003B4A
:10036000003D004D53002062697473207365740072
:100370003A20006363726567200020004333452004
:100380003D004325303258203D202530325800634F
:100390006D645374726F6265526567202530325800
:1003A0002063686970537461747573202530325806
:1003B0002064656C617931202530325800556E73A8
:1003C0007570706F727465642073686F72742063E7
:1003D0006F6D6D616E64006F7074696D756D207204
:1003E000656769737465722073657474696E677389
:1003F00020666F72204F4F4B2F41534B206F70651B
:10040000726174696F6E00203D2000203A002074F4
:100410006F2050415441424C4520646F6E65007717
:10042000726974652000202D20636F6D70696C65A2
:1004300064206174204175672032312032303230BF
:100440002031383A34353A323000204442470020D7
:10045000756E6B6E6F776E004C003045003100306A
:100460000043433131300063686970005620332EF9
:10047000352E302D6465765F323032303038313190
:10048000205349474E414C6475696E6F200020002F
:1004900020557365206F6E65206F662000436F6D79
:1004A0006D616E6420746F206C6F6E673A2000007F
:1004B000000000250028002B0004040404040404A8
:1004C0000402020202020203030303030301020403
:1004D00008102040800102040810200102040810C6
:1004E00020000000080002010000030407000000D3
:1004F000000000000000F72E11241FBECFEFD8E04F
:10050000DEBFCDBF12E0A0E0B1E0ECECF3E702C04B
:1005100005900D92A63FB107D9F725E0A6EFB2E00E
:1005200001C01D92AD38B207E1F712E0CCE7D2E08E
:1005300004C02197FE010E947D37CB37D107C9F750
:100540000E94412A0C94E4390C9400002F923F92AF
:100550004F925F926F927F928F929F92AF92BF92D3
:10056000CF92DF92EF92FF920F931F93CF93DF937F
:10057000CDB7DEB7C955D1090FB6F894DEBF0FBEAF
:10058000CDBF9E012F5F3F4F190186E1D9011D921A
:100590008A95E9F78091B70420910704811104C07E
:1005A000283210F40C940F1010920A0491E02E3FA0
:1005B00009F090E090930C0440E060E081114BC2A0
:1005C00087EF93E00E947415D12CED2DF0E0FEA78B
:1005D000EDA7F091B404FFA78F2F90E001972DA510
:1005E0003EA5281739070CF016C1F901E950FC4F58
:1005F000CF0106962681222309F40BC1CC24C39493
:10060000CD0C2DA53EA5220F331FA9014C555B4FE4
:100610005AAB49AB9CAB8BAB5EAB4DAB8091B4049A
:10062000C81608F0F6C06C2C712CB30169507C4FD1
:1006300078AB6FA7DB0116968C91882309F4E7C08D
:10064000E9A9FAA9E080F180F301EE0FFF1FEC5554
:10065000FB4F00811181C7018027912797FDD7C0EB
:100660008090A0049090A104A090A204B090A30454
:10067000B80117FF04C066277727601B710B072E90
:10068000000C880B990B0E946D35A50194010E9406
:10069000CC356FAB78AF89AF9AAFB701F7FE04C026
:1006A000662777276E197F09072E000C880B990B98
:1006B0000E946D35A50194010E94CC359B01AC01CF
:1006C0006FA978AD89AD9AAD0E94843720E030E003
:1006D00040E05FE30E94CC350E9462380E191F098A
:1006E00017FF03C0119501951109601771070CF4EC
:1006F0008EC0F12CE12C0FA518A90A5F1F4F809125
:100700000704F81608F049C0D8018C91E81608F0E3
:1007100044C06F2D70E089E194E00E94361580910D
:100720009F04082E000C990B68167906A1F580919C
:100730009B04482F50E0F89EC0011124FC0163E0A7
:10074000F695E7956A95E1F720919E04E21710F57A
:1007500087709927FF27E950FC4F20919C0430E0D7
:10076000082E02C0359527950A94E2F7209532A10C
:10077000232368E070E0641B750BDB01A81BB90B39
:100780004DA55EA502C0440F551FAA95E2F7CA0108
:10079000822B82A3E394F394B2CFABA9BCA9EC90D3
:1007A000EFA5F8A9F680EDA9FEA9A081B18183018A
:1007B000000F111F0C551B4FF801A080B180EE2DCA
:1007C000F0E09F010E9476372B013C014F2D50E055
:1007D0009A01D5010E947637640D751D861D971DFF
:1007E000E40FF51F9F01FF0F440B550B0E94573775
:1007F000ADA9BEA92D933C93FE0CEBA9FCA9F082F8
:10080000AFA5B8A916961C92F80111821082C39464
:1008100005CFD394DACE1092100410920F048FEF0C
:100820008093F703F0910704F9AB2F2F30E03CAB36
:100830002BAB47EFC42E43E0D42E44EA54E05EA72E
:100840004DA7E12CF12C0FEF1FEF4901330FAA0840
:10085000BB085FA5E51608F05EC00F3F6FEF1607F7
:1008600009F5ADA5BEA58D919C9197FD1BC0F60124
:10087000668170E080E090E00E946D352B013C01C4
:10088000C501B4010E946D352BE734E14EE25EE311
:100890000E94CC359B01AC01C301B2010E94983883
:1008A00018165CF1ADA5BEA58D919C9197FD26C053
:1008B000F801EE0FFF1FEC55FB4F208131818217AD
:1008C0009307E4F4F601668170E080E090E00E9416
:1008D0006D352B013C01C501B4010E946D352BE73C
:1008E00034E14EE25EE30E94CC359B01AC01C301D2
:1008F000B2010E94983818160CF48701FFEFEF1A26
:10090000FF0A2FEFC21AD20A4DA55EA54E5F5F4FB8
:100910005EA74DA79ECF0F3F5FEF150741F00093F5
:10092000F70381E090E09093100480930F0480918E
:100930000F0490911004019709F091C08091FA037F
:10094000882309F48CC06BA97CA9663A71051CF454
:1009500009A9085201C00DE71FA5115096E0D92E34
:100960001F3F09F475C0E12E012E000CFF08F701AE
:10097000EE0FFF1FEC55FB4F2081318137FF66C022
:10098000319521953109283672E437070CF05EC0A5
:10099000E091F703EE0FFF0BEC55FB4F0190F08158
:1009A000E02DC901BF010E942F376D32710508F09B
:1009B0004DC0DE9EC001DF9E900D1124821793076B
:1009C00008F044C0F701E950FC4FF6806F2D70E04D
:1009D00080E090E00E946D354B015C01609107045E
:1009E00070E080E090E00E946D352AE037ED43EA48
:1009F0005DE30E94CC359B01AC01C501B4010E94AE
:100A0000663587FF23C081E08F1500F5E12CF12CBE
:100A1000E016E0F457019FEFA91AB90AB50189E180
:100A200094E00E94361580919F0418130C945B107B
:100A3000B70189E194E00E94361590919F0480915E
:100A4000F70398130C945B100C945E10115088CF30
:100A50001093B60404C087EF93E00E947415809150
:100A60000F0490911004029709F01BC280910704B3
:100A7000883208F416C2809108048E5F80930904BE
:100A800010E06091090470E08091070490E0019704
:100A900068177907ACF46F5F7F4F89E194E011111B
:100AA0000C94FB110E94361590919F048091B6041E
:100AB000981311E0809109048E5F80930904E1CFBF
:100AC00010E08091070490910904891710F4809335
:100AD0000904409109046091080487EF93E00E94A3
:100AE000741560910804112371F08091090490E05D
:100AF000861B9109889794F481E090E0909310040C
:100B000080930F04CEC1809107048E3F08F0B3C1DB
:100B100090E0861B910988970CF4ADC182E00E9499
:100B20002E278091FB03882309F4AFC064E371E0B2
:100B300087EF93E00E9489178BE30E942E27F12C08
:100B40008091B404F81688F58F2D90E0FC01EE0F2B
:100B5000FF1FEC55FB4F008111810115110519F1A3
:100B6000FC01E950FC4F86818823E9F08F2D17FFA7
:100B700005C0806A11950195110901C08068E02EB9
:100B800007FD04C0A02FA068EA2E01C080610E946A
:100B90002E278E2D0E942E27812F80680E942E27BF
:100BA0008BE30E942E27F394CBCF8091090480FF22
:100BB00003C067E371E002C067E571E087EF93E08F
:100BC0000E948917E0910804E0FF19C0E150E0930A
:100BD0000804E69580919E04E81728F4F0E0E950B7
:100BE000FC4F12A101C010E01F701068812F0E94FD
:100BF0002E27809108048E5F8093080401C010E0C6
:100C00000091080480910904801778F0E02FE695A0
:100C100080919E04E81720F4F0E0E950FC4F12A107
:100C2000812F0E942E270E5FEDCF8091B604282FD2
:100C3000082E000C330B3F938F938091F703282FDE
:100C4000082E000C330B3F938F9389E391E09F9321
:100C50008F933F922F920E94C239182FB10187EFD4
:100C600093E00E9489178AEB94E00E9478170FB6F0
:100C7000F894DEBF0FBECDBF81119BC08091B90437
:100C80001F928F9383E491E09CC068E471E087EF4A
:100C900093E00E9489178BE30E942E2710E0BBE4AB
:100CA000EB2EB1E0FB2E8091B404181740F5812F94
:100CB00090E0FC01EE0FFF1FEC55FB4F20813181CE
:100CC00021153105D1F0FC01E950FC4F4681442348
:100CD000A1F03F932F939F931F93FF92EF923F9228
:100CE0002F920E94C239B10187EF93E00E948917C9
:100CF0000FB6F894DEBF0FBECDBF1F5FD4CF63E544
:100D000071E087EF93E00E9489171091080476E55F
:100D1000E72E71E0F72E80910904811708F1612F09
:100D200070E089E194E00E94361580919F04282F9D
:100D3000082E000C330B3F938F93FF92EF923F925C
:100D40002F920E94C239B10187EF93E00E94891768
:100D50001F5F0F900F900F900F900F900F90DBCFB1
:100D60008091B604282F082E000C330B3F938F93ED
:100D70008091F703282F082E000C330B3F938F939D
:100D800089E591E09F938F933F922F920E94C23901
:100D9000182FB10187EF93E00E9489178AEB94E046
:100DA0000E9478170FB6F894DEBF0FBECDBF882320
:100DB00011F01DA718C08091B9041F928F9387E688
:100DC00091E09F938F933F922F920E94C2398DA7FB
:100DD000B10187EF93E00E9489170F900F900F9059
:100DE0000F900F900F9080910C04882349F06DE6CE
:100DF00071E087EF93E00E9489178BE30E942E2712
:100E000010920B04609109048091070490E0861B06
:100E10009109889734F18091FC03882311F1815066
:100E20008093FC036F5F87EF93E00E94341610926B
:100E300008048091FC031F928F938FE691E09F93AB
:100E40008F933F922F920E94C2398DA7B10187EFF5
:100E500093E00E9489170F900F900F900F900F90C2
:100E60000F9083E00E942E278AE00E942E2781E0C7
:100E700080930A0417C0662369F08091090490E00A
:100E80008D3F91053CF087EF93E00E94341610925D
:100E9000080407C087EF93E00E94EF1581E080937C
:100EA0000A041DA680910A04811140C78091F803AD
:100EB0005091F90327965FAF2797811103C05523FF
:100EC00009F434C727966FAD2797662309F42EC718
:100ED0008091050490910604892B39F585E490E012
:100EE0000E947B2FFC0182E380AF81E085AB108202
:100EF00012AA14AA13AA87E087AB80E886AB8FEF0B
:100F000084AF85AF86AF87AFDF01AD5BBF4F1C926B
:100F100011961C9287EF93E093AF82AF14971D92C6
:100F20001C92F0930604E09305048091B704882393
:100F300011F10091050410910604D801DA96ED91A3
:100F4000FC91DB97148A118ADA96ED91FC91DB977C
:100F5000E054FF4F1082512C5801B4E4AB0EB11C89
:100F6000442443943801E2E46E0E711C1801F3E44A
:100F70002F0E311CB5C120900504309006048FEF70
:100F8000D101DC968C93DC97DD968C93DD97DF9610
:100F90008C93DF97DE968C93DE97F101ED5BFF4F2C
:100FA000108231961082349711821082F1011082E2
:100FB00012AA14AA13AA87E087ABEE5BFF4F8091B9
:100FC000B8048083DA960D911C91DB97F801E35405
:100FD000FF4FF080B3E0BF1508F0A8C6F8016089A4
:100FE00070E080E090E00E946D352AE037ED43E24A
:100FF0005DE30E94CC354B015C0120E030E0A901AB
:101000000E94983820E030E040E05FE387FD05C0B3
:10101000C501B4010E94843704C0C501B4010E9417
:1010200083370E9462385801F6E0AF0EB11CF80118
:10103000E355FF4F1BAE70E0D5018D915D01861722
:1010400088F1EBAC8E2D90E0EE2009F126E130E046
:101050002C0F3D1F280F391FD901DC9098012D0D51
:10106000311D2D0D311D23553F4F40815181D90137
:101070002D913C914217530754F427E130E02C0F97
:101080003D1F820F931FDC01DC92EA94DBCF27E146
:1010900030E02C0F3D1F820F931FDC017C93BBAD12
:1010A000BF5FBBAF7F5F3296F712C6CFFE01779668
:1010B000F8A7EFA32696FFAFEEAF26974091130156
:1010C00050911401609115017091160161964CAF19
:1010D0005DAF6EAF7FAF6197B1016E5B7F4F63967F
:1010E0007FAF6EAF6397C1018D5B9F4F9DAF8CAF9C
:1010F000D101AC5BBF4F6A96BFAFAEAF6A973C966B
:10110000FCA7EBA7FFA16896FFAF689725968FAD68
:1011100025978F1B3BAD831708F008C6D101DA96DF
:101120004C91DA97DB963C91DB972696EEADFFADBE
:10113000269721912696FFAFEEAF2697842F932F07
:10114000820F911D820F911DFC01E355FF4F80819D
:10115000918118161906B4F68FEFDC968C93DC9704
:10116000DD968C93DD97DF968C93DF97DE968C93DC
:101170002081318138AB2FA7B901330F880B990B30
:101180000E946D352B966CAF7DAF8EAF9FAF2B97C6
:101190002DEC3CEC4CE45EE30E94CC350E946238BE
:1011A00065967FAF6EAF65978FA598A997FD01965D
:1011B000AC015595479567965FAF4EAF6797BE01F7
:1011C000695E7F4F22967FAF6EAF22971FAE8FEF83
:1011D0009FEF98AF8FAB1EAEDE015F96BAA7A9A7AF
:1011E0004E01B7E28B0E911C2296EEADFFAD229719
:1011F000D1902296FFAFEEAF2297D101DA963C91C3
:10120000DA97DB962C91832F922F8D0D911D8D0DEA
:10121000911DFC01E355FF4F00811181780117FFFB
:1012200004C0EE24FF24E01AF10A67968EAD9FAD4C
:1012300067978E199F0997FF03C091958195910932
:101240006596EEADFFAD6597E817F907E4F42DEC70
:101250003CEC4CEC5EE32B966CAD7DAD8EAD9FAD62
:101260002B970E94CC350E9462388FA598A98E19C1
:101270009F0997FF03C09195819591096817790798
:101280000CF028C718C01016110614F00C94EA11BF
:10129000D101DE96DC92FEADFF5FFEAF2FA938AD27
:1012A000200F311F38AF2FABD101DC968C91DC972A
:1012B0008F3F09F0D1C321968FAD21976896EFAD8E
:1012C00068978E1BFBAD8F1708F48ECF1BCFD5010F
:1012D0008C91882379F0F501808181110DC153949F
:1012E000D801DA96CD90DC90DB97F601808958160C
:1012F00070F3BAC2E52CF12CB701C60182960E94A8
:101300003615F601E855FF4F808190E0F80124ADD5
:10131000022E000C330B8217930739F025AD022EF5
:10132000000C330B82179307B1F6D801DA96CD90F3
:10133000DC90DB97B701C60182960E943615F60154
:10134000E855FF4F8080F80195AC81E0891001C01D
:1013500080E08093F602D801DA96CD90DC90DB979E
:10136000B70161507109C60182960E943615F601D7
:10137000E855FF4F8081F5014082D801DA96ED9162
:10138000FC91DB97518A552009F4B0C090E0891098
:1013900026C0DF962C91DF97022E000C330B8217AC
:1013A000930709F43FC0DA962D913C91DB97FC013D
:1013B000EE0FFF1FE20FF31FE355FF4FDC968C91FA
:1013C000A82FAA0FBB0BA20FB31FA355BF4F20819D
:1013D00031818D919C912817390724F129C0F8019A
:1013E00026AD022E000C330B82179307D9F022ADE5
:1013F00033ADFC01EE0FFF1FE20FF31FE355FF4F6C
:10140000D801DD968C91A82FAA0FBB0B2A0F3B1F8A
:10141000D901A355BF4F208131818D919C918217B5
:10142000930734F481E0891080E08093F60208C0CD
:10143000D801DA96ED91FC91DB9781898F5F818BE2
:101440006091F602C8010E94CE14FF24FA94F50CB4
:10145000B1E0BF1508F043C0F80182AC93ACCF2CCB
:10146000D12CB601C40182960E943615F401E855CC
:10147000FF4F808190E0D801DF962C91DF97022EFC
:10148000000C330B8217930741F0DE962C91022E4D
:10149000000C330B8217930711F5F80182AC93AC63
:1014A000B60161507109C40182960E943615F4019B
:1014B000E855FF4F808190E0D801DF962C91022EF5
:1014C000000C330B8217930709F4A1C6F80126AD6F
:1014D000022E000C330B8217930709F498C6D8012B
:1014E000DA96ED91FC91DB975188F5CE81E0891079
:1014F00080E08093F602EFCED801DA96CD90DC90B2
:10150000DB97E52CF12CB701C60182960E943615B7
:10151000F601E855FF4FC080D12CF80184AD082EAC
:10152000000C990B82AC93ACC816D90609F4F5C629
:1015300085AD082E000C990BC816D90609F4EDC626
:10154000B7016F5F7F4FC40182960E943615F40188
:10155000E855FF4F20818091F602811119C0D80112
:10156000DA96ED91FC91DB97808990E00297E8167E
:10157000F9067CF5DF968C91DF97082E000C990B0D
:101580008C159D0531F5422F50E0DE968C911AC0E6
:101590008130F9F4D801DA96ED91FC91DB978089DE
:1015A00090E00297E816F906A4F4DE968C91DE9797
:1015B000082E000C990B8C159D0559F4422F50E014
:1015C000DF968C91082E000C990B4817590709F4E7
:1015D0003FC1F3018081082E000C990BD801D396EE
:1015E0004D915C91D4974817590764F4F10110822A
:1015F000D5011C92F801108212AA14AA13AA27E09E
:1016000027AB26C1D801DA96ED91FC91DB97528A7F
:10161000DA96AD90BC90DB97BDEF5B1213C0F5017D
:10162000808990E00197E816F90661F4E054FF4FD5
:1016300081E0808384E090E0D50159969C938E935D
:10164000589775C0D801DC96EC91DC97EE0FFF0B34
:10165000EA0DFB1DE355FF4F40815181F601EE0F6E
:10166000FF1FEA0DFB1DE355FF4F60817181F501FE
:10167000808964177507E4F4682F70E06150710980
:10168000E616F706ACF4E22FF0E0DD966C91DD97FC
:10169000062E000C770BE617F70709F476C6DE96E0
:1016A0006C91062E000C770BE617F70709F46DC650
:1016B00090E00297E816F906D4F5D801DF968C91F0
:1016C000DF97082E000C990BC816D90641F0DE965C
:1016D0008C91082E000C990BC816D90641F5C5014E
:1016E000820F911D820F911DFC01E355FF4F8081F8
:1016F000918184179507DCF4B7016E5F7F4FC501B8
:1017000082960E943615F501E855FF4F808190E0E2
:10171000F80124AD022E000C330B8217930709F059
:101720000AC681E0850D51102FC655245394652DAE
:10173000D801DA968D919C91DB970E943416D801DE
:10174000DA96ED91FC91DB97E054FF4F8081811197
:1017500027C6F3018081082E000C990BD3962D919A
:101760003C91D497281739070CF41AC682E00E94DE
:101770002E2764E771E087EF93E00E948917A0911C
:101780000504B0910604DD96EC91DD97EE0FFF0B9A
:10179000EC55FB4F81818F9380818F93DC96EC9188
:1017A000EE0FFF0BEC55FB4F81818F9380818F9360
:1017B00087E791E09F938F939E012F5F3F4F7901C1
:1017C0003F932F930E94C239B70187EF93E00E94A5
:1017D0008917A0910504B0910604DE96EC91DE977E
:1017E000EE0FFF0BEC55FB4F81818F9380818F9320
:1017F000DF96EC91EE0FFF0BEC55FB4F81818F9341
:1018000080818F9384E891E09F938F93FF92EF9272
:101810000E94C239B70187EF93E00E94891763E500
:1018200071E087EF93E00E94891700910504109101
:1018300006040FB6F894DEBF0FBECDBF712CBE01FB
:10184000695E7F4F5B017EEB872E71E0972E5AC059
:101850005394D5018C91882309F441CD6091F6020F
:10186000C8010E94CE143BCDF601528AA8014E5BFE
:101870005F4FD801D3962D913C91D497BEEF5B1268
:1018800020C0FA01808187FD8F5F8595082E000CAE
:10189000990BD801DA96ED91FC91DB9782179307AB
:1018A00054F4DF01A054BF4F81E08C9384E090E0BA
:1018B000918F808F75C5CF0180549F4FDC011C92A2
:1018C000148AFA018081082E000C990B4BCF7216F6
:1018D00030F5F801EC0DFD1D80811F928F939F92D2
:1018E0008F92BF92AF920E94C239B501F80182ADCA
:1018F00093AD0E94891773940F900F900F900F90E3
:101900000F900F90C72CD12CD801D2968C91D297E2
:1019100090E0D8962C91C816D906CCF202C080E08F
:10192000DCCF721628F4F801EC0DFD1D808101C09A
:1019300080E082958F701F928F9382E991E09F9350
:101940008F93BF92AF920E94C239D801D3962D9146
:101950003C91D497C90168E070E00E9443370F9032
:101960000F900F900F900F900F90059724F4277011
:101970003327232BE1F4F80180AD781620F4EC0D29
:10198000FD1D808101C080E08F701F928F9382E9DE
:1019900091E09F938F93CE0148969F938F930E94DF
:1019A000C2390F900F900F900F900F900F90B501CC
:1019B000D801DA968D919C91DB970E948917E0916E
:1019C0000504F091060484A98F9383A98F93E05CAA
:1019D000FF4F81818F9380818F9387E991E09F935F
:1019E0008F93FF92EF920E94C239182FB70187EFB1
:1019F00093E00E9489178AEB94E00E9478170FB653
:101A0000F894DEBF0FBECDBF882311F01DA718C00C
:101A10008091B9041F928F9387E691E09F938F93F3
:101A2000FF92EF920E94C2398DA7B70187EF93E032
:101A30000E9489170F900F900F900F900F900F90AA
:101A400083E00E942E278AE00E942E271092B7047E
:101A500081E080930A046AC1DF968C91DF978F3F03
:101A600009F429CCDD968C91DD978F3F09F423CCC6
:101A7000DE968C918F3F09F41ECC61962CAD3DAD66
:101A80004EAD5FAD61972BA33CA34DA35EA32F8FFB
:101A900038A349A35AA341E050E024965FAF4EAF6C
:101AA0002497A12CB12C1FEFD101DA96ED90FC9078
:101AB000DB97F701808990E0A816B9060CF0FBCB04
:101AC000B501C70182960E943615F701E855FF4F10
:101AD0000081802F90E0D101DC962C91DC97022EC2
:101AE000000C330B8217930709F4FBC2DD962C918F
:101AF000022E000C330B8217930709F4F2C2D101B6
:101B0000DF962C91022E000C330B8217930709F4F9
:101B1000E8C2F10126AD022E000C330B82179307A9
:101B200009F4DFC2D101DA96ED91FC91DB9781894E
:101B30009501281B31096396AEADBFAD63978C91BB
:101B4000082E000C990B821793070CF00DC3A28A84
:101B5000F10182AD93ADDC0152964C9152975196B2
:101B60006C910E947415D101DA96ED91FC91DB978E
:101B7000DE96BC91B9ABD101DD96BC91BBABD10176
:101B8000DF960C91DF97DC96BC91BDABDF0129A9F4
:101B9000A20FB11D27FDBA9516968C91DF013BA9C6
:101BA000A30FB11D37FDBA951696CC90D12CC80E57
:101BB000D11CDF01A00FB11D07FDBA9516968C91BF
:101BC000C81AD108DF014DA9A40FB11D47FDBA9570
:101BD00016968C91ACADBDAD1C92C81AD108D7FE3B
:101BE00003C0D194C194D1080D2C000CEE08FF085D
:101BF0008089E82FF0E02D96FFAFEEAF2D97BF0163
:101C0000FF0F880B990B0E946D352AE037ED43E2F8
:101C10005DE30E94CC352B013C0120E030E0A901BE
:101C20000E94983820E030E040E05FE387FD66C224
:101C3000C301B2010E9484370E9462386C157D0591
:101C40008E059F050CF437CBFEAD2FADF21333CBD1
:101C50003BA94DA9341709F42ECB59A9501709F403
:101C60002ACB041709F427CB531709F424CB5417B4
:101C700009F421CB301709F41ECBDE015F96FE017B
:101C8000B39681919D9189133EC28E169F06C9F726
:101C90008DA979A96AE0769F800D1124ABA99AE0FD
:101CA000A99F000D11248A3008F48C590A3008F4D9
:101CB0000C59AE01415E5F4FFE01B3966F01E82EF5
:101CC000F12C602F70E0D6018D916D01082E000C73
:101CD000990B8E159F0509F0ADC3CE014F96FE01FD
:101CE000B3962191022E000C330B2617370709F00B
:101CF000AAC3E815F90509F0B6C380E0C814D904F1
:101D000009F407C24F5F5F4F8111DDCFF101E05C45
:101D1000FF4F8FA998AD66E070E00E944337718352
:101D200060832796FFAD2797F11103C98091F803CF
:101D3000882309F474C18091B704811170C1809126
:101D40000F0490911004019709F069C180910A0471
:101D50008111A4C180910704883208F464C182E033
:101D60000E942E278091FB03882309F491C063EA27
:101D700071E087EF93E00E9489178BE30E942E2782
:101D800040E060E087EF93E00E947415F12C8091B1
:101D9000B404F81688F58F2D90E0FC01EE0FFF1FBC
:101DA000EC55FB4F008111810115110519F1FC0162
:101DB000E950FC4F86818823E9F08F2D17FF05C07D
:101DC000806A11950195110901C08068E02E07FD18
:101DD00004C0F02FF068EF2E01C080610E942E2712
:101DE0008E2D0E942E27812F80680E942E278BE344
:101DF0000E942E27F394CBCF8091070480FF08C068
:101E000067E571E087EF93E00E94891710E011C049
:101E100067E371E0F7CF80919E04181730F4E12F4B
:101E2000F0E0E950FC4F22A12DA78DA50E942E279E
:101E30001F5F80919804811770F78091F703282F16
:101E4000082E000C330B3F938F9386EA91E09F930B
:101E50008F938E010F5F1F4F1F930F930E94C23904
:101E6000B80187EF93E00E9489178AEB94E00E9403
:101E700078170F900F900F900F900F900F90811187
:101E8000B6C08091B9041F928F9383E491E09EC005
:101E90006CEA71E087EF93E00E9489178BE30E9460
:101EA0002E2740E060E087EF93E00E94741510E079
:101EB0005BE4E52E51E0F52EAE014F5F5F4F6A0106
:101EC0008091B404181740F5812F90E0FC01EE0FCB
:101ED000FF1FEC55FB4F2081318121153105D1F0D9
:101EE000FC01E950FC4F46814423A1F03F932F931E
:101EF0009F931F93FF92EF92DF92CF920E94C2397D
:101F0000B60187EF93E00E9489170FB6F894DEBF01
:101F10000FBECDBF1F5FD4CF63E571E087EF93E0C5
:101F20000E948917F12C8E010F5F1F4F36E5C32EDB
:101F300031E0D32E80910704F81608F56F2D70E07C
:101F400089E194E00E94361580919F04282F082E85
:101F5000000C330B3F938F93DF92CF921F930F931D
:101F60000E94C239B80187EF93E00E948917F39469
:101F70000F900F900F900F900F900F90DBCF8091EC
:101F8000F703282F082E000C330B3F938F938FEA13
:101F900091E09F938F931F930F930E94C239B801D2
:101FA00087EF93E00E9489178AEB94E00E947817EC
:101FB0000F900F900F900F900F900F90811117C0FE
:101FC0008091B9041F928F9387E691E09F938F933E
:101FD0001F930F930E94C239B80187EF93E00E94CC
:101FE00089170F900F900F900F900F900F90809186
:101FF0000C04882349F06DE671E087EF93E00E94BE
:1020000089178BE30E942E2783E00E942E278AE007
:102010000E942E2710920B0481E080930A04809185
:102020000A0481113BC080910B048823D9F14091AF
:10203000B404E4EAF4E080E090E020EDE22E27E052
:10204000F22E841710F010E00CC02191319112167D
:10205000130624F42E153F050CF47C010196F1CFF4
:102060001F5F809107041817C8F470EDE71677E03A
:10207000F706A1F0612F70E089E194E00E94361527
:1020800080919F04082E000C990BE816F90641F781
:102090006FEF610F87EF93E00E94341680910B047D
:1020A0008111E7C110910A0487EF93E00E94EF15B8
:1020B00010930A04DEC175010C9408051093B60450
:1020C00082E090E09093100480930F04E092080463
:1020D0000C942F05101611060CF089C1F101D5AE34
:1020E000DAC8D101DA96ED91FC91DB97808990E016
:1020F0000197A816B90609F048C014CDC301B20172
:102100000E94833799CD9F3F39F08F3F09F0BDCDB5
:1021100003C0882309F4FACD2D962EAD3FAD2D973F
:102120002A193B096396EEADFFAD63978081082EB7
:10213000000C990B821793070CF0BDC81BA31F8FCF
:102140001CA318A31DA319A31EA31AA35FEFA51A0E
:10215000B50A24966EAD7FAD24976F5F7F4F2496AE
:102160007FAF6EAF2497A0CCACADBDAD1C926A968C
:10217000EEADFFAD6A9710821F8F1BA318A31CA39F
:1021800019A31DA31AA31EA3E1CFACADBDAD8C91C5
:10219000811103C0A18AE1E0EC93D101DA96ED90C0
:1021A000FC90DB9724966EAD7FAD2497C701829695
:1021B0000E943615F701E855FF4F8081BAE00B9F6A
:1021C000800D11248A3008F48C59A0FC03C02BA583
:1021D0009CA502C029A59AA5E22FF92F90E0482FCF
:1021E00050E06081262F062E000C330B2417350794
:1021F00019F06F3F19F48083292F01C02FEF9F5FE3
:10220000943009F4A3CF31962F3F59F39FCFE0903C
:10221000F602D801DA968D909C90DB97B1E0EB1234
:102220003AC0E2E0CE1AD108B601C40182960E94FB
:102230003615F401E855FF4F9081D801DF968C9157
:10224000DF97981709F464C0DA968D909C90DB971D
:10225000B601C40182960E943615F401E855FF4F7D
:10226000A081AA0FBB0B8A0E9B1ED401A355BF4FA2
:10227000F80182AD93AD24ADE22FEE0FFF0BE80F16
:10228000F91FE355FF4F2D913C91808191812817D3
:102290003907F4F13AC0E11038C0F2E0CF1AD108A2
:1022A000B601C40182960E943615F401E855FF4F2D
:1022B0009081D801DE968C91DE97981749F1DA96D5
:1022C0008D909C90DB97B601C40182960E943615D2
:1022D000F401E855FF4FA081AA0FBB0B8A0E9B1E8D
:1022E000D401A355BF4FF80182AD93AD25ADE22FC8
:1022F000EE0FFF0BE80FF91FE355FF4F2D913C91B7
:1023000080819181821793071CF0FA94FA94A0C8F7
:102310006E2DC8010E94CE14F8CFF401808990E0A0
:102320000197E816F9060CF00BC98091F602842596
:102330008093F6028ECA25AD022E000C330B821755
:10234000930709F4EEC9C2ACD3ACB7016D5F7F4F00
:10235000C60182960E943615F601E855FF4F80812E
:1023600090E0F80127AD022E000C330B8217930783
:1023700009F4D7C9F80126AD022E000C330B8217E1
:10238000930709F0D4C9CDC9582E5394D801DA96D1
:10239000ED91FC91DB9784E090E0918F808FC7C92D
:1023A0008091B704882309F4C1CC80910B0481117A
:1023B0004FCB109219041092980410929A04109224
:1023C000990487E080939D041092070481E0809334
:1023D0000B04ACCCF101D7AE3FAD3F5F3FAF4FA98F
:1023E00058AD401B510B58AF4FAB0C945409D10161
:1023F000DC96DC92F1CF0E94361590919F0480917B
:10240000B60498130C945A056091090470E089E1B0
:1024100094E00E94361590919F048091F7039813E1
:102420000C945A058091090481508093090411E0AD
:102430000C946105FA018081082E000C990BE816B6
:10244000F90651F44ACCDC012C91022E000C330B1E
:102450006217730719F44DCC81E050CCE815F905EB
:10246000D9F301963ECCC814D90409F44FCC80E0CE
:1024700049CCC75ADF4F0FB6F894DEBF0FBECDBFB1
:10248000DF91CF911F910F91FF90EF90DF90CF9050
:10249000BF90AF909F908F907F906F905F904F9084
:1024A0003F902F90089580E00895CF92DF92EF92B1
:1024B000FF920F931F93F8940E9405280091F30355
:1024C0001091F4032091F5033091F6036B017C0128
:1024D000C01AD10AE20AF30A970186016093F30356
:1024E0007093F4038093F5039093F6030A35110576
:1024F0002105310578F181E0C8168DE7D806E104A1
:10250000F10410F4960102C021E03DE74A9B03C0AC
:102510003195219531098091C7048A35D8F480918D
:10252000C7048F5F8093C7048091C8046091C6047C
:102530000E9423379093C804E091C804F0E0EE0FA6
:10254000FF1FE653FB4F318320838091C8048F5FC8
:102550008093C80478941F910F91FF90EF90DF90C3
:10256000CF9008958F929F92AF92BF92CF92DF92B9
:10257000EF92FF928FB7F894C0907E05D0907F05C0
:10258000E0908005F09081058FBF8091F9029091D5
:10259000FA02A091FB02B091FC02C816D906EA0625
:1025A000FB0648F48091F7029091F802019690930F
:1025B000F8028093F702C092F902D092FA02E092F8
:1025C000FB02F092FC02A091F702B091F80227E31F
:1025D00039E841E450E00E94D2364B015C01C7016A
:1025E000B60128EE33E040E050E00E94B036C5016D
:1025F000B401620F731F841F951FFF90EF90DF904F
:10260000CF90BF90AF909F908F900895CF93C82F99
:10261000803120F480E090E00E942E2560E170E09F
:102620008C2FCF910C941725CF93DF93C2E0D0E08D
:10263000FE01E653FF4F6491CE010E943D2A87EBD5
:1026400091E00E94D4242196CB32D10589F7C0E3D2
:10265000D0E0C13321F464E881E390E002C060E09F
:10266000CE010E943D2A2196C833D10591F788EB0F
:1026700090E0DF91CF910C9464278EBD0DB407FEDE
:10268000FDCF8EB50895CF93DF93D82FC62F2A980C
:102690001C9B0EC061E070E080E090E00E942A2860
:1026A00080910301882359F0815080930301F0CF7A
:1026B0008D2F0E943D138C2F0E943D132A9ADF918B
:1026C000CF9108950F931F93CF93DF9300D000D045
:1026D00000D0CDB7DEB7182F8EEF810F8E3330F5D7
:1026E000062F0E944313143151F4802F807790E01D
:1026F00024E0959587952A95E1F780930B011F9229
:102700000F931F921F9389EB91E09F938F938E01FC
:102710000F5F1F4F1F930F930E94C239C8010E9481
:102720005C250FB6F894DEBF0FBECDBF26960FB660
:10273000F894DEBF0FBECDBFDF91CF911F910F91F7
:102740000895CF93DF93D82FC62F2A981C9B0EC0D5
:1027500061E070E080E090E00E942A288091020110
:10276000882361F0815080930201F0CF8D2F8C2B54
:102770000E943D1380E00E943D132A9ADF91CF9181
:1027800008958BE992E00E9449278EEA90E00E942A
:10279000492760E888E00E94A1136AE070E00E9487
:1027A000172588E990E00E9449276AE070E082E3FB
:1027B0000E9470278BE992E00E94492780E990E00F
:1027C0000E94492760E880E00E94A1136AE070E05F
:1027D0000E9417258CE790E00E9449276AE070E08C
:1027E0008DE00E94702760E888E00E94A113823388
:1027F00039F460E880E00E94A11391E08D3009F087
:1028000090E0892F089580910A01813011F084E3CE
:1028100001C084EF60EC0C94A11380910A01813017
:1028200011F081E301C081EF60E80E94A113909153
:102830000A01992351F09FEF980F9E3F30F01092BC
:102840000A0160E881E30C94A11308952A989FEF90
:1028500023E230E01C9B07C0F9013197F1F791505A
:10286000C9F72A9A04C00E943D132A9A91E0892F41
:102870000895CF93C82F2A981C9B10C061E070E088
:1028800080E090E00E942A2880910101811102C01D
:1028900080E01AC0815080930101EECF8C2F0E94FE
:1028A0003D13C82F1C9B0EC061E070E080E090E0FB
:1028B0000E942A2880910001882351F3815080933F
:1028C0000001F0CF2A9A8C2FCF91089586E30E94C1
:1028D000391461E070E080E090E00C942A28E898D8
:1028E0008FE09EE19093070180930601809102039F
:1028F00081110E9466141092C7041092C9041092AC
:10290000C8040895CF93DF930E946614CEEFCF3FA3
:1029100091F084E30E943914DFEFDC0F807780317F
:1029200071F4C11108C08BE992E00E94492788E642
:1029300090E00E9464275398DF91CF91089561E061
:1029400070E080E090E00E942A28CD2FE0CF85E55E
:1029500092E19093070180930601809169008C7F3A
:10296000816080936900E89A8091020381110C9440
:102970008214089590ED980F9A3070F09FE9980FA7
:10298000963010F499EA05C09FEB980F963018F432
:1029900099EC980F01C0982F892F0895FC0187A901
:1029A0008730A9F423A934A91216130684F492A936
:1029B000492F50E020AD30E0215031094217530734
:1029C0008CF59F5F92ABDF01A90FB11D1C9295A9F9
:1029D000492F50E0282F30E02F5F3F4F241B350B4D
:1029E0001216130624F401C0660F2A95EAF722A9ED
:1029F000DF01A20FB11D2C91622B6C9323A934A986
:102A00002F5F3F4F34AB23AB282F082E000C330B26
:102A1000241B350B37FD02C0891B01C087E087AB43
:102A200081E0089580E00895CF93DF93DC01CD919C
:102A3000DC9111971296ED91FC91139714962D91BC
:102A40003C911597C9019595879520FF0AC0DE0135
:102A5000A80FB91F2D913C91E20FF31F0190F08157
:102A6000E02D8C0F9D1FDF91CF910994CF93DF93C1
:102A7000FC01EE57FF4F4081469FD001479FB00DAC
:102A80001124FD0123E0F695E7952A95E1F7EC0185
:102A9000CB57DF4F288130E0E217F3070CF5229780
:102AA000288130E0A770BB2702C035952795AA95ED
:102AB000E2F7E80FF91F3081232330E058E0541B80
:102AC000469F402D11244770541B02C03595279511
:102AD0005A95E2F7FC01EA57FF4F2083822F01C08D
:102AE0008FEFDF91CF9108950F931F93CF93DF93D3
:102AF000DC0150968C915097882309F46BC0FD013E
:102B000036969D01225F3F4F11922E173F07E1F746
:102B1000411101C0482F262F30E035952795E42F2D
:102B2000F0E0F595E79560FF17C0ED01C955DF4F5F
:102B30008881281728F4ED01C20FD31F9AA101C084
:102B400090E0892F8F70ED01C80FD11D8E818F5FAE
:102B50008E832F5F3F4F01C090E08D0109551F4FBD
:102B6000622F70E06E177F07F0F4E8018881281764
:102B700020F4ED01C60FD71F9AA1C92FD0E034E091
:102B8000D595C7953A95E1F7CA0FDB1F8E818F5F08
:102B90008E83892F8F70ED01C80FD11D8E818F5FBD
:102BA0008E832F5FDDCF40FF15C0ED01C955DF4F8C
:102BB0008881E81718F4EA0FFB1F92A1E92FF0E0D3
:102BC00084E0F595E7958A95E1F7EA0FFB1F86818A
:102BD0008F5F8683DF91CF911F910F910895CF93DF
:102BE000DF93FC01DC01A354BF4F1C9211961C9291
:102BF00012A25D971C92119611961C921E92149629
:102C000087E08C93108A118E108E59968FEF8C93DB
:102C10008083EF01C355DF4FA95BB109CF010E9649
:102C2000199219921D92A817B907D1F7138A86E94C
:102C300090E0978B868BDF01A755BF4F40E050E0B7
:102C400060E87EE34D935D936D937C931397118AB7
:102C5000148A158A57961C92128A11A210A283E038
:102C60008583DF91CF9108953F924F925F926F924B
:102C70007F928F929F92AF92BF92CF92DF92EF920C
:102C8000FF920F931F93CF93DF93DC0154961C9216
:102C90005497662309F41AC150962C915097222319
:102CA00009F414C130E0A62EB12CA216B3069CF094
:102CB000DF91CF911F910F91FF90EF90DF90CF9018
:102CC000BF90AF909F908F907F906F905F904F904C
:102CD0003F900C94EF15EC018C010E551F4FF8013D
:102CE00020813181A216B30608F0D2C07C01F2E245
:102CF000EF0EF11CFC01EF55FF4FC9010197A8161B
:102D0000B90641F41AA21082D8011D921C9287E0E4
:102D100035967CC02D01B4EA4B0E511CD2014C916A
:102D2000649F3001112453E0769467945A95E1F73B
:102D3000362C842E912C68E0C62ED12CC601B4010D
:102D40000E944337C5010E942F37009709F460C0E5
:102D5000489F802D112468E0681B90812701462D33
:102D600043196916D8F46E01C60CD11CD60193968E
:102D70004C91939750E0062E02C0559547950A94C2
:102D8000E2F79296CC90082E01C0CC0C0A94EAF798
:102D90004C29D2014D932D016394E1CF20FD10C049
:102DA000BE01640F711DAE01460D511DDA019296F0
:102DB0009C9101C0990F8A95EAF7DB0192969C934A
:102DC0002A193B09D8012D933C93829E6001839E72
:102DD000D00C929ED00C1124C60168E070E00E94D5
:102DE0004337DE01AA55BF4F882321F097E0981B97
:102DF000892F01C087E08C93C6018819990997FD36
:102E0000079623E0959587952A95E1F7808322C060
:102E1000408146194083772450E04F5F5F4FB701F0
:102E2000660D771DC7010E948F39F201608170E045
:102E3000C6010E944337669D9001679D300D769DC7
:102E4000300D1124D8018D919C911197821B930B09
:102E50008D939C9381E08C8BF80160817181688BEC
:102E6000662399F0772761507109C7010E943615D2
:102E7000FE01E855FF4F8081880F990B83559F4FC6
:102E80008C0F9D1F99A388A321C019A218A21EC050
:102E900087E191E00E94D42483EC91E00E94D42445
:102EA0006AE070E08A2DDF91CF911F910F91FF9022
:102EB000EF90DF90CF90BF90AF909F908F907F90DA
:102EC0006F905F904F903F900C941725DF91CF91BA
:102ED0001F910F91FF90EF90DF90CF90BF90AF9038
:102EE0009F908F907F906F905F904F903F9008954C
:102EF000FC0180819181892B51F482819381892BFE
:102F000031F48481958121E082278170089580E0E9
:102F10000895EF92FF920F931F93CF93DF93611564
:102F20007105E1F08B01FB0101900020E9F7319779
:102F30007F01E61AF70AEC01C753DF4FCE010E946A
:102F4000781781110BC04E2DB801CE01DF91CF91C2
:102F50001F910F91FF90EF900C94141580E090E07A
:102F6000DF91CF911F910F91FF90EF9008951F92E5
:102F70000F920FB60F9211242F933F934F935F93AD
:102F80006F937F938F939F93AF93BF93EF93FF9331
:102F9000E091FD02F091FE020995FF91EF91BF9142
:102FA000AF919F918F917F916F915F914F913F91E1
:102FB0002F910F900FBE0F901F901895CF93DF9316
:102FC00089E291E00E94492788E792E00E94492720
:102FD00087E291E00E946427C0E0D0E0CE010E9429
:102FE0003F2A0E9406138EE894E00E9449278C2F06
:102FF0008F708F3021F480E692E00E945C2521964C
:10300000C833D10559F780E692E0DF91CF910C9457
:103010005C25CF93DF932A981C9B0EC061E070E083
:1030200080E090E00E942A2880910401882399F092
:10303000815080930401F0CF8EE70E943D13C0E3DE
:10304000D0E0CE010E943F2A0E943D132196C83352
:10305000D105B9F72A9ADF91CF910895CF93DF93E5
:103060008FE191E00E9449272A9A83E790E0FC01D2
:103070003197F1F72A980197F1F72A9A8FEA90E0B1
:103080000197F1F781E191E00E94492780E30E94D6
:10309000391487E091E00E9449276AE070E080E0FF
:1030A00090E00E942A282A9880E091E00E94492717
:1030B0008AE793E00E9449278AEF90E00E9449271F
:1030C0001C9B0EC061E070E080E090E00E942A2826
:1030D000809105018823C1F1815080930501F0CFD3
:1030E00080E40E943D13C2E0D0E0CE010E943F2A5E
:1030F0000E943D1387EB91E00E94D4242196CB32AD
:10310000D10599F72A9A83E290E00197F1F784E1DB
:1031100090E00E943F2A807790E024E09595879583
:103120002A95E1F780930B010E94091885EF90E042
:103130000E94642761E070E080E090E00E942A280D
:10314000DF91CF910C948214DF91CF9108952F924B
:103150003F924F925F926F927F928F929F92AF9227
:10316000BF92CF92DF92EF92FF920F931F93CF9374
:10317000DF93CDB7DEB7C95AD1400FB6F894DEBFA2
:103180000FBECDBF0E946F14CF5FDE4F1982188231
:10319000C150D14081E0C85EDE4F8883C851D14024
:1031A000C75EDE4F19821882C951D140C05DDE4F23
:1031B0008883C053D140CF5CDE4F19821882C1533F
:1031C000D140C85BDE4F8883C854D140C75BDE4F17
:1031D00019821882C954D140C05ADE4F8883C05624
:1031E000D140CF59DE4F19821882C156D140C858FC
:1031F000DE4F8883C857D1409E012F5F3F4F790132
:1032000080E091E0D901FC011D923197E9F7CB579D
:10321000DE4F39832883C558D140CC24CA9406E4B4
:1032200013E033243A94212CF1E0CB56DE4FF8839F
:10323000C559D14088E1D82E2E015394D8018C91E4
:10324000833509F056C011968C91833459F4339428
:10325000E1E0F1E0EC0FFD1FD39CE00DF11D112426
:10326000128221C08D3471F43394E1E0F1E0EC0F6F
:10327000FD1FD39CE00DF11D1124B1E0B2838BE35F
:1032800092E026C08235A9F43394E1E0F1E0EC0F3E
:10329000FD1FD39CE00DF11D112422E0228380E369
:1032A00092E00E946427CB56DE4F1882C559D14068
:1032B00011C08E3479F43394E1E0F1E0EC0FFD1F9E
:1032C000D39CE00DF11D112433E032838CE192E0B8
:1032D0000E946427311031C189E092E00E94642786
:1032E00043E050E066E473E086E593E00E94101E40
:1032F00034C08035D9F5D80112968C9112978D3350
:1033000009F01BC111968C91B0EDBB2EB80EB7E041
:10331000BB1508F412C14AE050E0BE016B577E4F66
:10332000C80103960E949C302CE0239DF0011124DB
:10333000EB0DF11DEE0FFF1FA1E0B1E0AC0FBD1FC3
:10334000EA0FFB1F708767838BEF91E00E94642771
:103350003110F3C0C8010E94D424CB57DE4FF9824C
:10336000E882C558D14000E010E0E7C0823511F591
:10337000F80181818D3309F0E0C04AE050E0BE01E0
:103380006B577E4FC80102960E94B231B62EE1E023
:10339000F1E0EC0FFD1FD39CE00DF11D1124678BB4
:1033A0008AEE91E00E9449276AE070E08B2D0E942E
:1033B0007027CECF8434D1F5D80111968C918D33FE
:1033C00009F0BBC088248394982C8C0E9D1ED39C3E
:1033D000800C911C11245801B2E0AB0EB11CF40119
:1033E000B482A382A201401B510B4D5F5F4F6BE380
:1033F00070E0C80103960E9479393C01CB57DE4F3B
:1034000099838883C558D140D40116969C938E9396
:10341000159785ED91E00E944927C5010E94D424AB
:103420008FEC91E00E944927C30185C08334E9F401
:10343000F80181818D3309F080C04AE050E0BE017F
:103440006B577E4FC80102960E94B231E1E0F1E075
:10345000EC0FFD1FD39CE00DF11D112471836083DF
:103460008EEB91E00E94642768C0863409F065C045
:10347000D80111968C918D3309F05FC0CB57DE4F88
:1034800088819981C558D140801B910B5C01B1E0C6
:10349000AB1AB108B7FC5C01B594A7942A2C8FEF46
:1034A0008A0D853008F049C080910203882309F411
:1034B00044C08BEA91E00E9449276AE070E08A2DBF
:1034C0000E947027C558DE4F1882CB57D1404E015D
:1034D000E1E88E1AEEEF9E0A5801F2E0AF0EB11C41
:1034E000712C4DE0642E670C60E8862D0E94A113BC
:1034F000D4018D934D01F501819191915F01C758E0
:10350000DE4F99838883C957D14040E150E060E0A5
:1035100070E0CE0187589E4F0E949C30862D0E94FD
:103520004313CE0187589E4F0E94D4247394721483
:10353000C0F280E692E00E945C25CB57DE4F888186
:103540009981C558D1400817190729F480EA91E0FC
:103550000E94642767C0E816F90639F00196CB5738
:10356000DE4F99838883C558D140CB57DE4F088101
:103570001981C558D140912CCB57DE4FA880B98016
:10358000C558D140A90CB11CCB57DE4FB982A882D7
:10359000C558D1400E94C52797FD0DC0D5018C9319
:1035A000C918CB57DE4FE881F981C558D1408081D9
:1035B0008B3361F413C08BE991E00E94642781E9A9
:1035C00091E00E94492789E891E01AC08A3009F405
:1035D00008C3CC2029F099249394CECFC1101DC0EC
:1035E0008BEA94E00197F1F78E0113950E94C527AD
:1035F00097FF09C081E991E00E94492780E891E0A6
:103600000E946427F2C28A309105A1F3F7018193E9
:103610007F01E017F10751F7EDCF11820115110578
:1036200009F00CCE80910203882331F18BE30E94D4
:103630002614811107C08BE992E00E94492784E497
:1036400091E016C00E9466141EEF1F3FA1F085E3B3
:103650000E9439140FEF010F8077803209F0B9C250
:10366000111109C08BE992E00E94492780E391E0A3
:103670000E94642701C0539ACD5FDE4F8881C350FA
:10368000D140811107C0C85EDE4F1881C851D140BA
:10369000111101C011E021E030E0C157DE4F398344
:1036A0002883CF58D14081E091E08C0F9D1F38E1F5
:1036B000339D800D911D1124DC011296CC55DE4FF7
:1036C000B983A883C45AD140FC017796CA55DE4F0E
:1036D000F983E883C65AD1409C012D5F3F4FC855FE
:1036E000DE4F39832883C85AD140C157DE4F8881C5
:1036F000CF58D1408150811708F030C28BE791E05C
:103700000E944927C157DE4F88819981CF58D14007
:103710000E942E2580ED91E00E94D4246AE070E0A2
:10372000812F0E941725CC55DE4FA881B981C45A3C
:10373000D1408C918330E9F585EB92E00E945C25C5
:1037400000E0CA55DE4FE881F981C65AD140808138
:1037500090E0202F30E0281739077CF0CB56DE4F61
:10376000F881C559D140FF2309F4EAC161E070E056
:1037700080E090E00E942A28E3C1C855DE4FA8816E
:10378000B981C85AD1406D917C91CE0187589E4F26
:103790000E944A1ECE0187589E4F0E94AE28C758ED
:1037A000DE4F88819981C957D1400E9413300F5F45
:1037B000C8CF00E084E791E00E9449276AE070E00A
:1037C000802F0E94172580ED91E00E94D4246AE0AA
:1037D00070E0832D0E9417258AE691E00E94492718
:1037E000B8E1B09F70011124CC24C394DC2CCC0E22
:1037F000DD1ECE0CDF1C5601E7E1AE0EB11C6AE007
:1038000070E0D60157968C910E947027F601828154
:10381000823009F08CC0912CC557DE4FB982A88246
:10382000CB58D140F7E0EF0EF11C21E031E02C0F36
:103830003D1F2E0D3F1DC357DE4F39832883CD58C2
:10384000D140C6010596CF56DE4F99838883C15972
:10385000D140D6011396C957DE4FB983A883C75804
:10386000D140C557DE4FE881F981CB58D1408081E6
:10387000981608F05FC1CF56DE4FA881B981C159B3
:10388000D1400D90BC91A02DC757DE4FB983A883BE
:10389000C958D140C957DE4FE881F981C758D14096
:1038A000C080D1800E9405282B013C017601F701E0
:1038B000C757DE4F28813981C958D140E216F30637
:1038C00068F53FEFE31AF30A80818053C357DE4F58
:1038D000E881F981CD58D140E80FF11DE80FF11DC5
:1038E000A080B1806501B7FE04C0CC24DD24CA18D5
:1038F000DB080E9405286415750586059705C8F341
:10390000B7FE02C05B9801C05B9AC601DD0CAA0B32
:10391000BB0B480E591E6A1E7B1EC9CF0E9405288C
:103920006415750586059705C8F393949ACF813081
:1039300009F000C1E12CC357DE4FD982C882CD58AF
:10394000D140C056DE4FB982A882C05AD140C601CC
:103950000596CE55DE4F99838883C25AD140D60151
:103960001396CA56DE4FB983A883C659D140C056B4
:10397000DE4FE881F981C05AD1408081E81608F015
:10398000D9C0C357DE4FA881B981CD58D140CD9061
:10399000DC90CE55DE4FE881F981C25AD1400190CA
:1039A000F081E02DC856DE4FF983E883C859D14035
:1039B000CA56DE4FA881B981C659D1407C90119674
:1039C000FC900E9405284B015C01C957DE4F7882AC
:1039D000C758D140C857DE4FF882C858D140C601F9
:1039E000DD0CAA0BBB0BCF56DE4F88839983AA83CD
:1039F000BB83C159D140880F991FAA1FBB1FC65650
:103A0000DE4F88839983AA83BB83CA59D140C856A5
:103A1000DE4FA881B981C859D140C957DE4FE8812E
:103A2000F981C758D140EA17FB0708F081C081919E
:103A3000C957DE4FF983E883C758D1408A3314F061
:103A400097E301C090E3891B24E030E0C557DE4FC7
:103A500039832883CB58D14038E0C757DE4F3883AD
:103A6000C958D140A82F880FBB0BC256DE4FB9836F
:103A7000A883CE59D14024013501F12CC757DE4F20
:103A8000B881C958D140CB2ED12CC256DE4FE88127
:103A9000F981CE59D140CE22DF22F11004C0C114E9
:103AA000D10421F405C0C114D10411F45B9801C004
:103AB0005B9ACF56DE4F88819981AA81BB81C1591B
:103AC000D140480E591E6A1E7B1E0E9405286415AF
:103AD000750586059705C8F3F39492E0F912DDCFDA
:103AE000C656DE4F88819981AA81BB81CA59D140CF
:103AF000880E991EAA1EBB1EC757DE4F9881C95853
:103B0000D1409695C757DE4F9883C958D140C557C5
:103B1000DE4FA881B981CB58D1401197C557DE4FF0
:103B2000B983A883CB58D140AB2B09F0A4CF6FCF7A
:103B3000E3941DCF5B980F5F301608F03BCE0ECE9E
:103B4000C157DE4FE881F981CF58D1403196C15736
:103B5000DE4FF983E883CF58D140C7CD2220C1F092
:103B600088E591E00E9449277E01F1E8EF1AFEEF17
:103B7000FF0A10E0D7016D917D018DE0810F0E9459
:103B800043131F5F2112F6CF80E692E00E945C256E
:103B900086E493E00E94D424CE0101960E94D424AE
:103BA000E1E0F1E0EC0FFD1FB8E13B9EE00DF11DFF
:103BB00011248281833051F087EF93E00E94EF154A
:103BC0001092C7041092C9041092C8040E94A7144E
:103BD0000CC061E070E080E090E00E942A28102F85
:103BE00034CDCC2009F4FCCC1DCDC755DE4F0FB62B
:103BF000F894DEBF0FBECDBFDF91CF911F910F9123
:103C0000FF90EF90DF90CF90BF90AF909F908F90FC
:103C10007F906F905F904F903F902F900895089500
:103C2000CF92DF92EF92FF920F931F93CF93DF9388
:103C30006C017A018B01C0E0D0E0CE15DF0581F088
:103C4000D8016D918D01D601ED91FC910190F0812B
:103C5000E02DC6010995892B11F02196EECF7E014A
:103C6000C701DF91CF911F910F91FF90EF90DF90EF
:103C7000CF900895089580E090E008950E946839FB
:103C800086E593E00E94942921E0892B09F420E045
:103C9000822F0895EF92FF920F931F93CF93DF939C
:103CA000EC01198218821B821A821D821C82611506
:103CB0007105B9F17B01FB0101900020E9F7319713
:103CC0008F01061B170BB8016F5F7F4F80E090E0FC
:103CD0000E94A238009759F0998388831B830A8336
:103CE0002C813D81232B81F4FC0110820DC0888141
:103CF0009981009711F00E941330198218821D8259
:103D00001C821B821A820DC01D830C83B70188811F
:103D10009981DF91CF911F910F91FF90EF900C94BB
:103D2000A139DF91CF911F910F91FF90EF900895EE
:103D30001F920F920FB60F9211242F933F934F9320
:103D40005F936F937F938F939F93AF93BF93EF9303
:103D5000FF93E0910801F09109010995FF91EF911E
:103D6000BF91AF919F918F917F916F915F914F9193
:103D70003F912F910F900FBE0F901F9018951F929B
:103D80000F920FB60F9211242F933F934F935F938F
:103D90006F937F938F939F93AF93BF93EF93FF9313
:103DA000E0910601F09107010995FF91EF91BF9114
:103DB000AF919F918F917F916F915F914F913F91C3
:103DC0002F910F900FBE0F901F9018951F920F927A
:103DD0000FB60F9211242F933F934F935F936F93DE
:103DE0007F938F939F93AF93BF93EF93FF9386E55A
:103DF00093E00E94AC29FF91EF91BF91AF919F9109
:103E00008F917F916F915F914F913F912F910F9083
:103E10000FBE0F901F9018951F920F920FB60F9222
:103E200011242F938F939F93EF93FF93E091660359
:103E3000F09167038081E0916C03F0916D0382FD46
:103E400012C0908180916F038F5F8F7320917003F8
:103E5000821751F0E0916F03F0E0EA5AFC4F958F22
:103E600080936F0301C08081FF91EF919F918F91AB
:103E70002F910F900FBE0F901F9018950F931F93C7
:103E8000CF938C01C62F86E593E00E946329892B8E
:103E9000D1F34C2F50E0B80186E593E0CF911F910C
:103EA0000F910C94101E0F931F93F8940E940528F5
:103EB0000091F3031091F4032091F5033091F60380
:103EC000AB01BC01401B510B620B730B22E0209332
:103ED000010381E09DE7909300038093FF0290939C
:103EE00087008093860082E18093810041303DE726
:103EF00053076105710588F14A9903C02FEF32E835
:103F000002C021E03DE78091C7048A35D8F4809152
:103F1000C7048F5F8093C7048091C8046091C60472
:103F20000E9423379093C804E091C804F0E0EE0F9C
:103F3000FF1FE653FB4F318320838091C8048F5FBE
:103F40008093C8040E9405286093F3037093F403E0
:103F50008093F5039093F60338C0413187E2580708
:103F60006105710590F181E19DE7A0E0B0E0841B5F
:103F7000950BA60BB70B33E0880F991FAA1FBB1F29
:103F80003A95D1F7009731E0A307B10520F421E07D
:103F90002093010309C02093010323E0B695A79560
:103FA000979587952A95D1F7909300038093FF0208
:103FB0008091FF0290910003909387008093860088
:103FC00080910103806180938100809103030E94AE
:103FD0007C271092030378948091540391E0980F0A
:103FE00090935403811104C01F910F910C94B2124D
:103FF0001F910F910895AF92BF92CF92DF92EF92EF
:10400000FF920F931F93CF93DF93CDB7DEB7A9979E
:104010000FB6F894DEBF0FBECDBF86E593E00E94D9
:104020009429892B09F49DC4109155031E3049F43D
:104030008DE994E00E94492786E493E00E945C2584
:104040003BC386E593E00E947229E12FF0E0EA5B32
:10405000FC4F80838D30C9F034F48823B1F08A306E
:1040600009F02DC312C0833281F08B3309F027C3CE
:104070008BE492E00E94D4246AE070E080915503C2
:104080000E9470270E94A71817C3809146038735A6
:1040900009F440C28CF4803509F483C034F48F33C2
:1040A000F9F0833409F4F1C0C3C2823509F4CAC0FF
:1040B000863509F47FC0BCC2823709F412C23CF4D1
:1040C000883509F4D5C0853609F4E6C1B1C2843714
:1040D00009F4C6C00CF498C2883709F4E9C1A8C233
:1040E0008FE30E94292580E994E00E94492786E514
:1040F0000E9429258EE894E00E94492782E50E94CB
:1041000029258EE894E00E94492784E70E9429250A
:104110008EE894E00E94492788E50E9429258EE8D0
:1041200094E00E94492783E50E9429258EE894E0C7
:104130000E94492780E50E9429258EE894E00E948C
:10414000492783E40E9429258EE894E00E944927AC
:1041500082E70E9429258EE894E00E94492787E59E
:104160000E9429258EE894E00E94492783E70E9457
:1041700029258EE894E00E94492780910203882334
:1041800009F487C188E70E9429258EE894E00E94FF
:10419000492785E60E9429258EE894E00E94492758
:1041A00078C18EE292E00E945C258BEC97E001974B
:1041B000F1F77FC28CE694E00E94492780910203C8
:1041C0008823C9F185E393E00E94492788EA92E0B9
:1041D0000E94D42487E694E00E9449278EE894E068
:1041E0000E94492781E694E00E9449270E940D140D
:1041F000853099F028F4833051F0843059F013C0A1
:10420000843141F0873161F0873069F409C08FE56E
:1042100094E00BC08DE594E008C08AE594E005C009
:1042200088E594E002C08FE494E00E94492781E38E
:1042300092E00E94D4248AE494E00E94492786E216
:1042400094E087C3209187053091880521153105B9
:1042500011F42DE835E0CE010196821B930B62C06C
:104260000E94B2124AE00E94D6240E94252521C253
:1042700080914703813519F40E946F141AC2853466
:1042800009F017C20E94A71414C280914703873413
:1042900059F034F49CEB980F923008F446C09BC060
:1042A000833509F47BC097C083E693E00E944927D9
:1042B00081E693E00E9449278091FA0390E00E94F2
:1042C0002E258FE593E00E9449278CE593E00E941C
:1042D000492781E693E00E9449278091F80390E006
:1042E0000E942E258FE593E00E94492789E593E0FF
:1042F0000E94492781E693E00E9449278091F903B3
:1043000090E00E942E258FE593E00E94492783E3E9
:1043100092E00E94D42481E693E00E944927809194
:10432000FB0390E00E942E25A0CF90914803923588
:1043300079F034F4933409F0BCC1E9EFF3E00DC037
:10434000933549F0953509F0B4C1E8EFF3E005C0C5
:10435000EBEFF3E002C0EAEFF3E0853419F481E01B
:10436000808301C010822091F803622F660F909124
:10437000F90384E0989F90011124262B6091FA03A1
:10438000262B9091FB03E8E09E9FC0011124622F31
:10439000682B8FEF90E00E943D2A8BC168E372E0AA
:1043A00088E493E00E94A839892B09F482C14AE08D
:1043B00050E060E070E08EE493E00E949C30862F35
:1043C0006093B8046AE070E00E94172586E693E0E7
:1043D0000E9449276EC1082E000C990B0E946D396E
:1043E000892B09F466C180914803082E000C990BB3
:1043F0000E946D39892B09F45CC1809102038823E6
:1044000009F457C140E150E060E070E087E493E0D8
:104410000E949C30162F809149038E3609F053C1BB
:1044200080914A03082E000C990B0E946D39892B4C
:1044300009F449C140E150E060E070E08AE493E0B3
:104440000E949C301F3208F034C16E5FE62EF12CC2
:10445000C12ED12C1F926F931F921F938FE392E076
:104460009F938F93CE0101965C019F938F930E943F
:10447000C239C5010E94D4240FB6F894DEBF0FBE26
:10448000CDBFEC0CFD1C812F90E08E159F050CF428
:10449000B1C180E692E062C280910203882309F4F0
:1044A00008C10E9414130E942E180E94DE1701C139
:1044B00080914703082E000C990B0E946D39892BBF
:1044C00009F4F7C080914803082E000C990B0E9454
:1044D0006D39892B09F4EDC08091020381119CC1D3
:1044E000E8C080914703082E000C990B0E946D399B
:1044F000892B09F4DEC080914803082E000C990B2B
:104500000E946D39892B09F4D4C080910203811176
:10451000A9C1CFC080914703833509F04FC0909166
:104520004803933309F04AC080914903082E000CD8
:10453000990B0E946D39892B09F4BBC040E150E012
:1045400060E070E088E493E00E949C30062F6E33B8
:1045500008F0AFC0862F0E943914182F61E070E078
:1045600080E090E00E942A288DE30E94391490E0B8
:1045700024E0959587952A95E1F79F938F93812F56
:1045800090E034E0959587953A95E1F79F938F9366
:104590001F920F938FE893E09F938F938E010F5F8D
:1045A0001F4F1F930F930E94B032C8010E945C25D9
:1045B0000FB6F894DEBF0FBECDBF7BC0082E000C37
:1045C000990B0E946D39892B09F473C080914803BF
:1045D000082E000C990B0E946D39892B09F469C0D3
:1045E00080914903082E000C990B0E946D39892B8C
:1045F00009F45FC080914A03082E000C990B0E94B9
:104600006D39892BD1F455C080910203882309F4B8
:10461000A3C10E94C11381119FC185E393E00E9451
:1046200049278AEC92E00E94492780EC92E091C1F0
:104630008DEB93E00E9464273FC01B82809147036B
:10464000909148039A83898340E150E060E070E0F4
:10465000CE0101960E949C30162F809149039091C3
:104660004A039A83898340E150E060E070E0CE0124
:1046700001960E949C30062F812F90E00E943D2AD7
:104680006AE070E0812F0E94172584E591E00E9486
:10469000D4246AE070E0802F0E947027809102038A
:1046A000882321F0602F812F0E946213123109F4B8
:1046B00011C181E0809303031092550352C11F5F23
:1046C00010935503AACC1E33C0F41F3210F460E8D7
:1046D00001C060EC812F0E94A1131F928F931F9243
:1046E0001F9382E893E09F938F938E010F5F1F4F7C
:1046F0001F930F930E94B03258CF1E3309F041C070
:104700008CE793E00E9449272A981C9B0EC061E029
:1047100070E080E090E00E942A2880910C018823BC
:1047200041F2815080930C01F0CF8EEF0E943D1337
:104730008E010F5F1F4F6E0199E0C90ED11C7801E9
:1047400080E00E943D13F70181937F01CE16DF06C2
:10475000B9F72A9A8AE793E00E944927F801F19075
:104760008F01FFE0FF1520F080E090E00E942E25F1
:1047700060E170E08F2D0E941725C016D10651F719
:1047800088CE193909F095CF10E0112341F010318E
:1047900011F01032B9F48AE793E00E94492783E7C9
:1047A00093E00E944927103120F480E090E00E94BD
:1047B0002E2560E170E0812F0E94172580E793E0AD
:1047C0000E94492760E8812F0E94A113082F8031A1
:1047D00020F480E090E00E942E2560E170E0802FC0
:1047E0000E94172585EB92E00E94D4241F5F1F32A0
:1047F00061F64FCE60E8812F0E94A113082F80310F
:1048000020F480E090E00E942E2560E170E0802F8F
:104810000E9417251F5F37CE40E150E060E070E056
:1048200087E493E00E949C30F62E00E310E0013311
:1048300021F46F2D81E390E002C060E0C8010E9486
:104840003D2A0F5F1F4F0833110589F70E94091891
:104850008FE194E00E9449278F2D0E9406138EE07D
:1048600094E077C040E150E060E070E087E493E0DE
:104870000E949C30062F88E792E00E9449278EE82C
:1048800094E00E944927802F0E94061380914903DB
:1048900010E08E36A9F48BE094E00E944927E12CC9
:1048A000F12CC8018E0D9F1D0E943F2A0E94061305
:1048B0003FEFE31AF30A80E1E816F10491F7E9CD3E
:1048C00087E094E00E944927C8010E943F2A0E9485
:1048D0000613DFCD82E090E00E943F2A8D3009F080
:1048E000E8CE87ED93E00E946427073C10F416EBB6
:1048F00001C016E5612F83E290E00E943D2A80917D
:104900000203882321F0612F83E20E9462138091C9
:10491000490390914A039A83898340E150E060E023
:1049200070E0CE0101960E949C30673510F417E0CC
:1049300001C017E4612F85E090E00E943D2A80913C
:104940000203882309F4B5CE612F85E00E9462132B
:10495000B0CE0E946427ADCE8EE292E00E945C252C
:10496000A8CEA9960FB6F894DEBF0FBECDBFDF91DB
:10497000CF911F910F91FF90EF90DF90CF90BF905C
:10498000AF900895009769F0FC0101900020E9F7CD
:104990003197AF01481B590BBC0186E593E00C949D
:1049A000101E80E090E008950C94C2248F929F9294
:1049B000AF92BF920F931F93CF93DF93CDB7DEB724
:1049C000A1970FB6F894DEBF0FBECDBF19A242303B
:1049D00008F44AE08E010F5D1F4F842E912CA12C0C
:1049E000B12CA50194010E94B036E62FB901CA018D
:1049F00001501109EA3014F4E05D01C0E95CD8010E
:104A0000EC93232B242B252B61F7C8010E94C22491
:104A1000A1960FB6F894DEBF0FBECDBFDF91CF9148
:104A20001F910F91BF90AF909F908F900895AB0111
:104A3000682F4115510521F486E593E00C94CE29A9
:104A400070E080E090E00C94D6248EE592E00C9427
:104A5000C224682F86E593E00C94CE29CF92DF9292
:104A6000EF92FF92CF93DF936C01990FEE08FF084E
:104A7000F7FE17C08DE20E942925EC0166277727F3
:104A8000CB016C197D098E099F094AE00E94D6244A
:104A90008C0F9D1FDF91CF91FF90EF90DF90CF9013
:104AA00008954AE0C701B601DF91CF91FF90EF90E2
:104AB000DF90CF900C94D624CF93DF930E94C22432
:104AC000EC010E9425258C0F9D1FDF91CF91089549
:104AD0004F925F926F927F928F929F92AF92BF920E
:104AE000CF92DF92EF92FF92CF93DF9380E692E036
:104AF0000E945C2581E692E00E94D424E091B604F5
:104B0000E7FDD2C0EE0FFF0BEC55FB4F808191818A
:104B10000E942E2588E692E00E94D424E091B604FB
:104B2000EE0FFF0BEC55FB4F60817181072E000CDF
:104B3000880B990B0E946D356B017C01E091F703A6
:104B4000EE0FFF0BEC55FB4F60817181072E000CBF
:104B5000880B990B0E946D359B01AC01C701B60112
:104B60000E94F0376B017C014B015C019B01AC01A1
:104B70000E949D38882319F087E792E01AC0260129
:104B80003701E89477F82FEF3FEF4FE75FE7C30176
:104B9000B2010E949D3881110FC02FEF3FEF4FE708
:104BA0005FE7C301B2010E94663518162CF48BE74B
:104BB00092E00E94C22474C02FEF3FEF4FE75FE402
:104BC000C701B6010E94983818161CF48FE792E0CE
:104BD000F0CF2FEF3FEF4FE75FECC701B6010E9428
:104BE000663587FDF3CF20E030E0A901C701B601AB
:104BF0000E94663587FF09C08DE20E942925460183
:104C00005701B7FAB094B7F8B0942AE037ED43EA09
:104C10005BE3C501B4010E9484374B015C010E9433
:104C200069386B017C010E946B359B01AC01C501A9
:104C3000B4010E9483374B015C014AE0C701B60111
:104C40000E94D6248EE20E94292520E030E040E236
:104C500051E4C501B4010E94CC354B015C010E94B6
:104C600069386B01E12CF12C4AE0C701B6010E94C2
:104C7000D624C701B6010E946B359B01AC01C5016A
:104C8000B4010E94833720E030E040E251E40E940A
:104C9000CC350E94693880E090E04AE00E94D6243A
:104CA00083E892E00E94D42485E892E00E94D42414
:104CB000E091F703E7FD09C0EE0FFF0BEC55FB4F4A
:104CC000808191810E942E2504C08EE892E00E948E
:104CD000D42483E992E00E94D42460910D04709161
:104CE0000E0480E090E04AE00E94D6248BE992E036
:104CF0000E94D4246AE070E08091B4040E941725D9
:104D000087EA92E00E94D4246AE070E08091B504C2
:104D10000E94172581E392E00E94D4248AEA92E05F
:104D20000E94D424E0911504F091160480819181B1
:104D30000E942E2584EB92E00E94D424E091170477
:104D4000F0911804808191810E942E2587EB92E0DA
:104D50000E94D4246AE070E0809108040E94172524
:104D600082EC92E00E94D4248091B70490E00E94EB
:104D70002E258AEC92E00E94D42480910B0490E0CE
:104D80000E942E250E94252585ED92E00E94D424C4
:104D9000C0E080910704C81758F46C2F70E089E1D7
:104DA00094E00E943615805D0E942925CF5FF1CFE7
:104DB0008EED92E00E94D42481EE92E00E94D424F1
:104DC0006AE070E0809107040E94172584EE92E06B
:104DD0000E945C2586EE92E00E94D424F12C809102
:104DE000B404F81658F580EF92E00E94D4246AE0EB
:104DF00070E08F2D0E94172587EC92E00E94D4244A
:104E0000CF2DD0E0FE01E950FC4F6AE070E08681D2
:104E10000E94172583EF92E00E94D424CC0FDD1F5F
:104E2000CC55DB4F88819981009711F00E942E2587
:104E300084EE92E00E94D424F394D1CFDF91CF91FD
:104E4000FF90EF90DF90CF90BF90AF909F908F90AA
:104E50007F906F905F904F900C942525CF93DF93B8
:104E60001F92CDB7DEB7898380EC94E00E9478175B
:104E7000811109C041E0BE016F5F7F4F80EC94E07B
:104E80000E94141502C080E090E00F90DF91CF9156
:104E900008950F931F93CF93DF938C01C0E0D0E070
:104EA000F801EC0FFD1F6491662341F086E593E065
:104EB0000E94CE29892B11F02196F2CFCE01DF91ED
:104EC000CF911F910F910895CF93DF930E944927AF
:104ED000EC010E9425258C0F9D1FDF91CF91089535
:104EE000CF93DF930E941725EC010E9425258C0F9C
:104EF0009D1FDF91CF910895EAEEF4E09491E6EDE5
:104F0000F4E02491E2ECF4E0E491EE2309F43CC0F7
:104F1000992339F1933091F038F49130A9F092301F
:104F200001F594B59F7D12C0973091F09830A1F0B3
:104F30009430B9F4909180009F7D03C090918000DF
:104F40009F77909380000DC094B59F7794BD09C062
:104F50009091B0009F7703C09091B0009F7D909397
:104F6000B000F0E0EE0FFF1FE155FB4FA591B491AB
:104F70009FB7F894811104C08C912095282302C01A
:104F8000EC912E2B2C939FBF08952FB7F89480910E
:104F90007E0590917F05A0918005B09181052FBF7E
:104FA00080935E0390935F03A0936003B0936103CB
:104FB00086E593E00E94722997FF26C02FB7F894E8
:104FC00080917E0590917F05A0918005B09181052B
:104FD0002FBF40915E0350915F0360916003709119
:104FE0006103841B950BA60BB70B40915A0350919C
:104FF0005B0360915C0370915D0384179507A607BE
:10500000B707B0F28FEF9FEF08953FB7F894809104
:10501000830590918405A0918505B091860526B5FC
:10502000A89B05C02F3F19F00196A11DB11D3FBFE0
:10503000BA2FA92F982F8827820F911DA11DB11D6E
:10504000BC01CD0142E0660F771F881F991F4A956A
:10505000D1F708958F929F92AF92BF92CF92DF9235
:10506000EF92FF926B017C010E9405284B015C01CD
:10507000C114D104E104F104F1F00E940528DC011F
:10508000CB0188199909AA09BB09883E9340A1055B
:10509000B10570F321E0C21AD108E108F10888EEE9
:1050A000880E83E0981EA11CB11CC114D104E10438
:1050B000F10419F7DDCFFF90EF90DF90CF90BF9014
:1050C000AF909F908F9008951F920F920FB60F92FE
:1050D00011242F933F938F939F93AF93BF9380910E
:1050E0007E0590917F05A0918005B091810530915A
:1050F000820523E0230F2D3720F40196A11DB11D59
:1051000005C026E8230F0296A11DB11D209382053C
:1051100080937E0590937F05A0938005B0938105D1
:105120008091830590918405A0918505B0918605B5
:105130000196A11DB11D8093830590938405A093D2
:105140008505B0938605BF91AF919F918F913F9157
:105150002F910F900FBE0F901F9018959F92AF92B6
:10516000BF92CF92DF92EF92FF920F931F93CF9354
:10517000DF9300D000D000D0CDB7DEB7FC01248192
:105180003581232B09F48DC08C016AEA71E0CE01D0
:1051900001960E944A1EF80184819581C980DA80B7
:1051A000892B59F0E080F180B601C7010E94A8392F
:1051B000009719F08E199F0902C08FEF9FEFF82E0C
:1051C000C6010E941330FFEFFF1223C06FE572E0AB
:1051D000CE0101960E944A1EF80184819581C98002
:1051E000DA80892B59F0E080F180B601C7010E9476
:1051F000A839009719F08E199F0902C08FEF9FEF11
:10520000F82EC6010E941330FFEFFF1202C0F80112
:10521000F4802A988FE70E943D13E12CEF1488F563
:10522000CE2CD12CF801A480B580CA14DB0448F43C
:1052300080819181009729F0FC01EC0DFD1D80819A
:1052400001C080E00E94BA14982E929480EF9822B8
:1052500096012F5F3F4F2A153B0550F4F8018081DE
:105260009181009729F0FC01E20FF31F808101C0BA
:1052700080E00E94BA14890D0E943D13E394E394E8
:10528000CDCF2A9A18EC60EC85E30E94A1138331FC
:1052900041F461E070E080E090E00E942A28115023
:1052A00091F726960FB6F894DEBF0FBECDBFDF9103
:1052B000CF911F910F91FF90EF90DF90CF90BF9013
:1052C000AF909F900895FC01538D448D252F30E0C1
:1052D000842F90E0821B930B541710F0CF96089503
:1052E00001970895FC01918D828D981761F0828D50
:1052F000DF01A80FB11D5D968C91928D9F5F9F730A
:10530000928F90E008958FEF9FEF0895FC01918DAB
:10531000828D981731F0828DE80FF11D858D90E018
:1053200008958FEF9FEF0895FC01918D228D892FB5
:1053300090E0805C9F4F821B91098F73992708959D
:105340000E94401E81110C94FB1F0895FC01CB01AB
:10535000642F0994FC010994FC01848DDF01A80FDE
:10536000B11DA35ABF4F2C91848D90E001968F738D
:105370009927848FA689B7892C93A089B1898C91AC
:10538000837080648C93938D848D981306C00288FB
:10539000F389E02D80818F7D80830895EF92FF92C5
:1053A0000F931F93CF93DF93EC0181E0888F9B8D48
:1053B0008C8D981305C0E889F989808185FD26C008
:1053C000F62E0B8D10E00F5F1F4F0F731127E02E8D
:1053D0008C8DE8120CC00FB607FCFACFE889F9896A
:1053E000808185FFF5CFCE010E94AC29F1CF8B8D56
:1053F000FE01E80FF11DE35AFF4FF0829FB7F894CA
:105400000B8FEA89FB89808180620AC09FB7F8947C
:10541000EE89FF896083E889F989808183708064DF
:1054200080839FBF81E090E0DF91CF911F910F912A
:10543000FF90EF900895CF93DF93EC01888D882340
:10544000C9F0EA89FB89808185FD05C0A889B989F1
:105450008C9186FD0FC00FB607FCF5CF808185FFCC
:10546000F2CFA889B9898C9185FFEDCFCE010E943A
:10547000AC29E7CFDF91CF9108950C9492360C942C
:105480008A36CF93DF93CDB7DEB72A970FB6F8945D
:10549000DEBF0FBECDBF789484B5826084BD84B575
:1054A000816084BD85B5826085BD85B5816085BD1F
:1054B00080916E00816080936E00109281008091D7
:1054C000810082608093810080918100816080935F
:1054D0008100809180008160809380008091B10084
:1054E00084608093B1008091B00081608093B000AF
:1054F00080917A00846080937A0080917A00826043
:1055000080937A0080917A00816080937A00809104
:105510007A00806880937A001092C100E09166035F
:10552000F091670382E08083E0916603F091670366
:105530001082E0916203F09163031082E0916403B2
:10554000F091650380E1808310926E03E0916A031D
:10555000F0916B0386E08083E0916803F09169032A
:10556000808180618083E0916803F091690380818C
:1055700088608083E0916803F0916903808180688E
:105580008083E0916803F091690380818F7D80833F
:105590005298219A259A239A2498229A80E58CBDC4
:1055A0002A9A2D9A2B98529853982D9A2B9880E0EE
:1055B00090E00E943F2A833339F481E090E00E941A
:1055C0003F2A8D3109F4F1C06FE08FEF90E00E9427
:1055D0003D2A82E592E00E94642763E380E090E048
:1055E0000E943D2A6DE181E090E00E943D2A0E94E8
:1055F00014138FEF90E00E943F2A982F91709093A0
:10560000FA0381FB992790F99093F80382FB99277D
:1056100090F99093F90383FB882780F98093FB032B
:105620008DE492E00E9464270E94DE170E942E18EB
:105630000E940D14182F80910A01813011F480EF1F
:1056400001C080E360E80E94A113082F83EB92E081
:105650000E94492782ED91E00E94D42460E170E02D
:10566000812F0E94702787EA92E00E94492782EDED
:1056700091E00E94D42460E170E0802F0E947027A6
:1056800011501E3F70F083EA92E00E9449278BE997
:1056900092E00E94492784E992E00E94642780E01A
:1056A00001C081E0809302038823E9F085E393E061
:1056B0000E9449278EE293E00E9464271E821D8289
:1056C0008AEA99E29C838B838B819C81AD81BE8128
:1056D0008093BC049093BD04A093BE04B093BF0418
:1056E00083E094E114C01E821D828AEA99E29C83C1
:1056F0008B838B819C81AD81BE818093BC04909310
:10570000BD04A093BE04B093BF0483E592E19093DF
:10571000BB048093BA04539A8CE193E00E946427FF
:1057200062E370E080E090E00E942A2880E18093AC
:1057300081001092800082E08093010381E09DE768
:10574000909300038093FF029093870080938600DC
:1057500082E18093810083E59FE19093FE02809334
:10576000FD0281E080936F001E821D8286EA99E22D
:105770009C838B838B819C81AD81BE818093C2048D
:105780009093C304A093C404B093C5048EE39FE137
:105790009093C1048093C004809102038823B1F0E8
:1057A0000E94C113811112C016C08FE792E00E94BF
:1057B000492788E792E00E94492786E792E00E9405
:1057C000492786E792E00E94492713CF0E94A71439
:1057D0008BE093E00AC085E393E00E9449278AECBE
:1057E00092E00E94492780EC92E00E94642780E9C1
:1057F00091E0A0E0B0E080935A0390935B03A09304
:105800005C03B0935D0372E0872E912CA12CB12C28
:1058100066246394E7E07E2EF3E0CF2ED12C8091B6
:105820000B01833009F0CAC18091C704882309F4B1
:1058300047C28091C70481508093C7048091C904F6
:105840006091C6040E9423379093C904E091C90473
:1058500081E08E0F8093C904F0E0EE0FFF1FE65346
:10586000FB4F8081918190930503809304031092F4
:105870000A0460910704662391F070E06150710999
:1058800089E194E00E94361580919F04880F990B5E
:105890008C559B4F909318048093170404C010926A
:1058A0001804109217044091040350910503E091ED
:1058B0001504F091160451834083909107049923B5
:1058C00079F0E0911704F0911804309749F02081A5
:1058D000318124273527232F221F2227221F01C091
:1058E00021E031E09E3F09F430E081E0411553486A
:1058F0000CF480E0832311F0211142C00E94A60223
:1059000080910A04811104C08091B7048823B1F00A
:10591000809107048823D1F0E0911704F0911804D6
:105920003097A1F0A0911504B09116042D913C91EF
:10593000808191818227932797FD08C087EF93E0AC
:105940000E94EF151092180410921704809107041A
:105950008E3F09F041C02FB7F89460917E05709199
:105960007F0580918005909181052FBF4AE00E94BC
:10597000D6248DE393E00E9464270E9468252CC002
:10598000983251F5D0921004C0920F048AEB94E043
:105990000E947817811120C02091BA043091BB0475
:1059A000E091BC04F091BD044091BE045091BF044D
:1059B000CA019595879540FF0AC0D901A80FB91F64
:1059C0004D915C91E40FF51F0190F081E02D820F65
:1059D000931F09958093B904E0901504F090160484
:1059E000D7010D911C91B80117FF04C066277727D6
:1059F000601B710B072E000C880B990B0E946D35F4
:105A00002DEC3CEC4CE45EE30E94CC350E946938FE
:105A10009B0170930E0460930D046091B404E4EA5A
:105A2000F4E0512C6515C1F081919191A8014827AE
:105A3000592757FD0FC0009769F0A801481B590B63
:105A4000CA0157FF03C0919581959109281739071D
:105A50000CF039C15394E6CF6830E1F540E060E0E6
:105A600087EF93E00E947415E091B504F0E0E950EF
:105A7000FC4F8681833040F00E94A60240E060E047
:105A800087EF93E00E947415109107041150E09184
:105A9000B504F0E0E950FC4F86818823D9F080916D
:105AA00007048823B9F0612F70E089E194E00E9437
:105AB000361520919F04022E000C330B8091B50403
:105AC00090E02817390711F761E0610F87EF93E045
:105AD0000E9434165090B504E0911504F09116041C
