:100000000C944F010C94261B0C94FF1A0C9477014E
:100010000C9477010C9477010C9477010C94770180
:100020000C9477010C9477010C9477010C94770170
:100030000C9477010C94FF140C9477010C947701C5
:100040000C9476220C9477010C94731B0C944D1B2A
:100050000C9477010C9477010C9477010C94770140
:100060000C9477010C9477016363466163746F723B
:1000700079526573657420646F6E65000D2E2D478F
:10008000D3913D04320000060010B07157C43023F4
:10009000B900070018146C070091876BF8B611E9D6
:1000A0002A001F4100746F206C6F6E672000636F21
:1000B00072727570740073656E6420636D642000E5
:1000C000496E697420656570726F6D20746F20646D
:1000D000656661756C747320616674657220666C08
:1000E000617368003B523D004D4E3B443D00436F01
:1000F0006D6D616E6420746F206C6F6E673A2000C6
:100100004D43004D55003B003D004D5300206269BA
:10011000747320736574003A20006363726567200E
:10012000002000433345203D002064656C61793137
:1001300020002063686970537461747573200063D4
:100140006D645374726F62655265672000556E73FB
:100150007570706F727465642073686F7274206359
:100160006F6D6D616E6400636F6D6D616E642065AF
:10017000006973206E6F7420636F72726563746CB4
:10018000792073657420666F722041534B2F4F4F57
:100190004B2E20506C6561736520646F2061206672
:1001A0006163746F7279207265736574207669611A
:1001B0002000203D2000203A00454550524F4D0080
:1001C00020746F2050415441424C4520646F6E654D
:1001D0000077726974652000202D20636F6D70694F
:1001E0006C6564206174205365702031302032309A
:1001F00032302032323A34393A35300020756E6B65
:100200006E6F776E004C0030450031003000434384
:1002100031313000636869700063633131303120FF
:10022000005620332E352E302D6465765F32303205
:1002300030303931305F7634205349474E414C6479
:1002400075696E6F2000200020557365206F6E6504
:10025000206F66200000000000250028002B00040D
:10026000040404040404040202020202020303035D
:100270000303030102040810204080010204081057
:100280002001020408102000000008000201000004
:100290000304070000000000000000006E28112485
:1002A0001FBECFEFD8E0DEBFCDBF11E0A0E0B1E0D0
:1002B000E2E2F0E602C005900D92A43EB107D9F744
:1002C00024E0A4EEB1E001C01D92AB37B207E1F724
:1002D00011E0CFE4D1E004C02197FE010E94412E3D
:1002E000CE34D107C9F70E9448240C940F300C94E7
:1002F00000002F923F924F925F926F927F928F9267
:100300009F92AF92BF92CF92DF92EF92FF920F93A4
:100310001F93CF93DF93CDB7DEB7C354D1090FB688
:10032000F894DEBF0FBECDBF8091AE032091FE02D8
:10033000811104C0283210F40C94BE0D10920103F8
:1003400091E02E3F09F090E09093030340E060E0DD
:1003500081113AC28EEE92E00E94E412F12CAF2C91
:10036000B12C2091AB032F8B822F90E00197A81620
:10037000B9060CF00EC1F501E251FD4FCF01069612
:100380002681F394222359F3EF2C9501220F331F7A
:10039000A90145565C4F5A8F498F9C8F8B8F5E8F7A
:1003A0004D8F8091AB03E816D0F68E2C912CB401C2
:1003B00062517D4F1B01DB0116968C91882309F455
:1003C000E6C0E98DFA8DC080D1809401220F331FE1
:1003D000388F2F8BF901E556FC4F00811181C60142
:1003E0008027912797FDD3C04090970350909803A2
:1003F0006090990370909A03B80117FF04C06627B4
:100400007727601B710B072E000C880B990B0E943D
:10041000312CA30192010E94902C6F8F78A389A3A5
:100420009AA3B601D7FE04C0662777276C197D0909
:10043000072E000C880B990B0E94312CA30192010E
:100440000E94902C9B01AC016F8D78A189A19AA18B
:100450000E94482E20E030E040E05FE30E94902CB4
:100460000E94B42E0C191D0917FF03C011950195A8
:100470001109601771070CF48AC0D12CC12C8101BD
:100480000A5F1F4F8091FE02D81608F048C0D801BD
:100490008C91C81608F043C06D2D70E080E193E0A8
:1004A0000E94601280919603082E000C990B88160A
:1004B000990699F580919203482F50E0D89EC0018B
:1004C0001124FC0123E0F695E7952A95E1F72091A8
:1004D0009503E21708F587709927FF27E251FD4F32
:1004E0002091930330E0082E02C0359527950A9499
:1004F000E2F7209532A1232368E070E0641B750BBE
:10050000DB01A81BB90BA50102C0440F551FAA951A
:10051000E2F7CA01822B82A3C394D394B3CFAB8DED
:10052000BC8D0C91F1011681ED8DFE8DA081B18104
:100530002F89388D25563C4F6901F90180809180C3
:10054000E02FF0E09F010E943A2E2B013C01412F49
:1005500050E09A01D4010E943A2E640D751D861D4B
:10056000971DE40FF51F9F01FF0F440B550B0E94D1
:100570001B2EAD8DBE8D2D933C93100FEB8DFC8DFE
:100580001083D10116961C92F60111821082E39419
:1005900008CF10920703109206038FEF8093EE02AC
:1005A000F091FE02F98F2F2F30E03C8F2B8FBEEEA3
:1005B000CB2EB2E0DB2E1BE9212E13E0312EE12CF5
:1005C000F12C0FEF1FEF4901330FAA08BB084F8929
:1005D000E41608F059C00F3F5FEF150701F5D10190
:1005E0008D919C9197FD1BC0F601668170E080E0C3
:1005F00090E00E94312C2B013C01C501B4010E9406
:10060000312C2BE734E14EE25EE30E94902C9B01FB
:10061000AC01C301B2010E94EA2E181654F1D101B7
:100620008D919C9197FD26C0F801EE0FFF1FE556B6
:10063000FC4F2081318182179307E4F4F601668133
:1006400070E080E090E00E94312C2B013C01C5015C
:10065000B4010E94312C2BE734E14EE25EE30E94AC
:10066000902C9B01AC01C301B2010E94EA2E181626
:100670000CF48701FFEFEF1AFF0A2FEFC21AD20A1C
:1006800032E0230E311CA3CF0F3F4FEF140741F090
:100690000093EE0281E090E09093070380930603BD
:1006A0008091060390910703019709F091C0809112
:1006B000F102882309F48CC06B8D7C8D663A71053C
:1006C0001CF4098D085201C00DE71F89115076E016
:1006D000D72E1F3F09F475C0E12E012E000CFF0834
:1006E000F701EE0FFF1FE556FC4F2081318137FFE8
:1006F00066C0319521953109283672E437070CF030
:100700005EC0E091EE02EE0FFF0BE556FC4F01904C
:10071000F081E02DC901BF010E94F32D6D327105FA
:1007200008F04DC0DE9EC001DF9E900D112482179F
:10073000930708F044C0F701E251FD4FF6806F2D9A
:1007400070E080E090E00E94312C4B015C016091F0
:10075000FE0270E080E090E00E94312C2AE037ED4C
:1007600043EA5DE30E94902C9B01AC01C501B401FA
:100770000E942A2C87FF23C081E08F1500F5E12C11
:10078000F12CE016E0F457019FEFA91AB90AB50160
:1007900080E193E00E9460128091960318130C94FC
:1007A0000A0EB70180E193E00E94601290919603D7
:1007B0008091EE0298130C940A0E0C940D0E1150B9
:1007C00088CF1093AD0304C08EEE92E00E94E41235
:1007D0008091060390910703029709F0DBC1809195
:1007E000FE02883208F4D6C18091FF028E5F8093AA
:1007F000000310E06091000370E08091FE0290E041
:10080000019768177907ACF46F5F7F4F80E193E041
:1008100011110C94A00F0E94601290919603809188
:10082000AD03981311E0809100038E5F8093000365
:10083000E1CF10E08091FE0290910003891710F43F
:1008400080930003409100036091FF028EEE92E0DE
:100850000E94E4126091FF02112371F08091000365
:1008600090E0861B9109889794F481E090E0909342
:100870000703809306038EC18091FE028E3F08F02D
:1008800073C190E0861B910988970CF46DC182E0DA
:100890000E94D6238091F202882309F4AAC089E23B
:1008A00091E00E9446248BE30E94D623F12C809194
:1008B000AB03F81688F58F2D90E0FC01EE0FFF1FBB
:1008C000E556FC4F008111810115110519F1FC015C
:1008D000E251FD4F86818823E9F08F2D17FF05C077
:1008E000806A11950195110901C08068E02E07FD0D
:1008F00004C0A02FA068EA2E01C080610E94D62308
:100900008E2D0E94D623812F80680E94D6238BE3F0
:100910000E94D623F394CBCF8091000380FF02C0C6
:1009200084E401C084E60E94D623E091FF02E0FF48
:1009300019C0E150E093FF02E69580919503E81716
:1009400028F4F0E0E251FD4F82A101C080E08F70F9
:1009500080688F8B0E94D6238091FF028E5F8093E8
:10096000FF0201C01F8A1091FF02809100038117CE
:1009700080F0E12FE69580919503E81728F4F0E0E8
:10098000E251FD4FB2A1BF8B8F890E94D6231E5F1B
:10099000ECCF8CE291E00E9446248091EE0260E16F
:1009A00070E0082E000C990B0E94DB238FE291E08F
:1009B0000E9446248091AD0360E170E0082E000C97
:1009C000990B0E94DB238BE30E94D62381EB93E0FB
:1009D0000E94B51481118FC082E50E94D62360E188
:1009E00070E08091B0030E94C8238BE30E94D6235D
:1009F00082C082E391E00E9446248BE30E94D623CA
:100A000010E08091AB03181750F5212F30E0C90199
:100A1000880F991FFC01E556FC4F7F018081918171
:100A2000892BD9F0F901E251FD4F86818823A9F085
:100A300080E50E94D6236AE070E0812F0E94C823DF
:100A40008DE30E94D6236AE070E0D7018D919C91DE
:100A50000E94DB238BE30E94D6231F5FD2CF85E366
:100A600091E00E9446241091FF02809100038117BB
:100A700088F0612F70E080E193E00E946012809125
:100A800096036AE070E0082E000C990B0E94DB23AD
:100A90001F5FEBCF88E391E00E9446248091EE0235
:100AA0006AE070E0082E000C990B0E94DB238DE3B6
:100AB00091E00E9446248091AD036AE070E0082E28
:100AC000000C990B0E94DB238BE30E94D62381EB61
:100AD00093E00E94B51481110DC082E491E00E9460
:100AE00046246AE070E08091B0030E94C8238BE343
:100AF0000E94D6231F8A80910303882331F08FE45C
:100B00000E94D6238BE30E94D623109202036091A9
:100B100000038091FE0290E0861B91098897D4F033
:100B20008091F3028823B1F081508093F3026F5FCC
:100B30008EEE92E00E94A4131092FF028DE60E94B6
:100B4000D6236AE070E08091F3020E94C8238BE311
:100B50000E94D62383E00E94D6238AE00E94D623F7
:100B600081E08093010317C0662369F08091000340
:100B700090E08D3F91053CF08EEE92E00E94A41330
:100B80001092FF0207C08EEE92E00E945F1381E098
:100B9000809301031F8A809101038111C2C6809155
:100BA000EF02B091F002B8AB811103C0BB2309F48E
:100BB000E5C7E8A9EE2309F4B4C68091FC02909140
:100BC000FD02892B39F585E490E00E94F228FC01B2
:100BD00082E380AF81E085AB108212AA14AA13AA27
:100BE00087E087AB80E886AB8FEF84AF85AF86AFB9
:100BF00087AFDF01AD5BBF4F1C9211961C928EEE4A
:100C000092E093AF82AF14971D921C92F093FD0275
:100C1000E093FC028091AE03882311F10091FC0265
:100C20001091FD02D801DA96ED91FC91DB97148AC0
:100C3000118ADA96ED91FC91DB97E054FF4F108218
:100C4000512C5801B4E4AB0EB11C44244394380138
:100C5000E2E46E0E711C1801F3E42F0E311C96C1F4
:100C60002090FC023090FD028FEFD101DC968C9336
:100C7000DC97DD968C93DD97DF968C93DF97DE967D
:100C80008C93DE97F101ED5BFF4F1082319610825D
:100C9000349711821082F101108212AA14AA13AAA9
:100CA00087E087ABEE5BFF4F8091AF038083DA96DE
:100CB0000D911C91DB97F801E354FF4FF080B3E0F6
:100CC000BF1508F02EC6F801608970E080E090E062
:100CD0000E94312C2AE037ED43E25DE30E94902C24
:100CE0004B015C0120E030E0A9010E94EA2E20E0E7
:100CF00030E040E05FE387FD05C0C501B4010E941C
:100D0000482E04C0C501B4010E94472E0E94B42E93
:100D10005801F6E0AF0EB11CF801E355FF4F1DA2DC
:100D200070E0D5018D915D01861770F1EDA08E2DDB
:100D300090E0EE20F1F09E01280F391FD901DC90E0
:100D400098012D0D311D2D0D311D23553F4F408133
:100D50005181D9012D913C914217530754F421E060
:100D600030E02C0F3D1F820F931FDC01DC92EA94D0
:100D7000DECF21E030E02C0F3D1F820F931FDC01FE
:100D80007C93BDA1BF5FBDA37F5F3296F712C9CF31
:100D9000FE013196FA8BE98BFFA7EEA74091130174
:100DA0005091140160911501709116014FAB58AF2D
:100DB00069AF7AAFB1016E5B7F4F7CAF6BAFC101A2
:100DC0008D5B9F4F9FA38EA3D101AC5BBF4F249639
:100DD000BFAFAEAF24973C96FE8BED8BF989229680
:100DE000FFAF22978EA58F1B3DA1831708F099C5F1
:100DF000D101DA964C91DA97DB963C91DB97EEA520
:100E0000FFA52191FFA7EEA7842F932F820F911D9D
:100E1000820F911DFC01E355FF4F808191811816CF
:100E20001906E4F68FEFDC968C93DC97DD968C93B5
:100E3000DD97DF968C93DF97DE968C93208131814E
:100E40003A8F298FB901330F880B990B0E94312CEF
:100E500069AB7AAB8BAB9CAB2DEC3CEC4CE45EE32A
:100E60000E94902C0E94B42E7EAF6DAF898D9A8D1A
:100E700097FD0196AC015595479521965FAF4EAF12
:100E80002197BE016F5F7F4F7DA76CA71BA68FEFD9
:100E90009FEF9CA38BA31AA6DE011996BC8BAB8B8C
:100EA0004E01B1E18B0E911CECA5FDA5D190FDA7E3
:100EB000ECA7D101DA963C91DA97DB962C91832F3F
:100EC000922F8D0D911D8D0D911DFC01E355FF4F4E
:100ED00000811181780117FF04C0EE24FF24E01A7D
:100EE000F10A21968EAD9FAD21978E199F0997FF2C
:100EF00003C0919581959109EDADFEADE817F90715
:100F0000D4F42DEC3CEC4CEC5EE369A97AA98BA9F6
:100F10009CA90E94902C0E94B42E898D9A8D8E19C6
:100F20009F0997FF03C091958195910968177907EB
:100F30000CF07FC618C01016110614F00C948F0F19
:100F4000D101DE96DC92FAA5FF5FFAA72BA13CA1A6
:100F5000200F311F3CA32BA3D101DC968C91DC9791
:100F60008F3F09F07EC38CA52296EFAD22978E1B92
:100F7000FDA18F1708F498CF31CFD5018C9188232C
:100F800079F0F501808181110DC15394D801DA9671
:100F9000CD90DC90DB97F6018089581670F3A8C2DB
:100FA000E52CF12CB701C60182960E946012F60171
:100FB000E855FF4F808190E0F80124AD022E000C2F
:100FC000330B8217930739F025AD022E000C330B3B
:100FD00082179307B1F6D801DA96CD90DC90DB97B3
:100FE000B701C60182960E946012F601E855FF4FD4
:100FF0008080F80195AC81E0891001C080E0809389
:10100000E401D801DA96CD90DC90DB97B70161500E
:101010007109C60182960E946012F601E855FF4FE1
:101020008081F5014082D801DA96ED91FC91DB9741
:10103000518A552009F4B0C090E0891026C0DF968F
:101040002C91DF97022E000C330B8217930709F4C3
:101050003FC0DA962D913C91DB97FC01EE0FFF1F0C
:10106000E20FF31FE355FF4FDC968C91A82FAA0FD8
:10107000BB0BA20FB31FA355BF4F208131818D91B0
:101080009C912817390724F129C0F80126AD022EBA
:10109000000C330B82179307D9F022AD33ADFC015E
:1010A000EE0FFF1FE20FF31FE355FF4FD801DD9650
:1010B0008C91A82FAA0FBB0B2A0F3B1FD901A35558
:1010C000BF4F208131818D919C918217930734F419
:1010D00081E0891080E08093E40108C0D801DA96AD
:1010E000ED91FC91DB9781898F5F818B6091E401A9
:1010F000C8010E949E12FF24FA94F50CB1E0BF15BE
:1011000008F043C0F80182AC93ACCF2CD12CB601CF
:10111000C40182960E946012F401E855FF4F80815D
:1011200090E0D801DF962C91DF97022E000C330B54
:101130008217930741F0DE962C91022E000C330BA0
:101140008217930711F5F80182AC93ACB601615098
:101150007109C40182960E946012F401E855FF4FA4
:10116000808190E0D801DF962C91022E000C330B89
:101170008217930709F4F0C5F80126AD022E000C82
:10118000330B8217930709F4E7C5D801DA96ED917E
:10119000FC91DB975188F5CE81E0891080E0809347
:1011A000E401EFCED801DA96CD90DC90DB97E52C08
:1011B000F12CB701C60182960E946012F601E85533
:1011C000FF4FC080D12CF80184AD082E000C990B84
:1011D00082AC93ACC816D90609F444C685AD082E76
:1011E000000C990BC816D90609F43CC6B7016F5F0D
:1011F0007F4FC40182960E946012F401E855FF4FB0
:1012000020818091E401811119C0D801DA96ED9115
:10121000FC91DB97808990E00297E816F9067CF54F
:10122000DF968C91DF97082E000C990B8C159D058D
:1012300031F5422F50E0DE968C911AC08130F9F4DE
:10124000D801DA96ED91FC91DB97808990E00297C6
:10125000E816F906A4F4DE968C91DE97082E000CB1
:10126000990B8C159D0559F4422F50E0DF968C9117
:10127000082E000C990B4817590709F42DC1F301EA
:101280008081082E000C990BD801D3964D915C916A
:10129000D4974817590764F4F1011082D5011C92C4
:1012A000F801108212AA14AA13AA27E027AB14C1CE
:1012B000D801DA96ED91FC91DB97528ADA96AD90DF
:1012C000BC90DB97BDEF5B1213C0F501808990E005
:1012D0000197E816F90661F4E054FF4F81E080833E
:1012E00084E090E0D50159969C938E93589775C0F1
:1012F000D801DC96EC91DC97EE0FFF0BEA0DFB1D9D
:10130000E355FF4F40815181F601EE0FFF1FEA0DBB
:10131000FB1DE355FF4F60817181F50180896417E2
:101320007507E4F4682F70E061507109E616F7065E
:10133000ACF4E22FF0E0DD966C91DD97062E000C08
:10134000770BE617F70709F4C5C5DE966C91062EF4
:10135000000C770BE617F70709F4BCC590E002977D
:10136000E816F906D4F5D801DF968C91DF97082EA0
:10137000000C990BC816D90641F0DE968C91082E08
:10138000000C990BC816D90641F5C501820F911DB5
:10139000820F911DFC01E355FF4F808191818417DD
:1013A0009507DCF4B7016E5F7F4FC50182960E94FE
:1013B0006012F501E855FF4F808190E0F80124ADFF
:1013C000022E000C330B8217930709F059C581E0F8
:1013D000850D51107EC555245394652DD801DA969C
:1013E0008D919C91DB970E94A413D801DA96ED9120
:1013F000FC91DB97E054FF4F8081811176C5F301AA
:101400008081082E000C990BD3962D913C91D49796
:10141000281739070CF469C582E00E94D62385E4B9
:1014200091E00E94462488E491E00E944624E091E5
:10143000FC02F091FD02E4ADEE0FFF0BE556FC4F10
:101440006AE070E0808191810E94DB238DE491E06D
:101450000E944624E091FC02F091FD02E5ADEE0F02
:10146000FF0BE556FC4F6AE070E0808191810E949D
:10147000DB2382E591E00E944624E091FC02F0919A
:10148000FD02E7ADEE0FFF0BE556FC4F6AE070E0A2
:10149000808191810E94DB2387E591E00E944624B0
:1014A000E091FC02F091FD02E6ADEE0FFF0BE55678
:1014B000FC4F6AE070E0808191810E94DB238BE326
:1014C0000E94D62385E391E00E944624E090FC022E
:1014D000F090FD02D12C48C05394D5018C91882303
:1014E00009F453CD6091E401C8010E949E124DCDD4
:1014F000F601528AA8014E5B5F4FD801D3962D9119
:101500003C91D497BEEF5B1220C0FA01808187FD29
:101510008F5F8595082E000C990BD801DA96ED9116
:10152000FC91DB978217930754F4DF01A054BF4F5F
:1015300081E08C9384E090E0918F808FD6C4CF01BE
:1015400080549F4FDC011C92148AFA018081082E7E
:10155000000C990B5DCFD216A0F4F701E00FF11F3C
:1015600080810E94C614D3940D2D10E0D701D2962D
:101570008C91D29790E0D8962C91081719075CF3BC
:1015800002C080E0EECFD21628F4F701E00FF11F81
:10159000808101C080E082958F7060E170E090E012
:1015A0000E94DB23F70123A934A9C90168E070E098
:1015B0000E94072E059724F427703327232B89F4E4
:1015C000D701D8968C91D81628F4F701E00FF11FB7
:1015D000808101C080E08F7060E170E090E00E9447
:1015E000DB238CE591E00E944624E091FC02F0911F
:1015F000FD02E05CFF4F6AE070E0808191810E9413
:10160000DB2380E691E00E944624E091FC02F09109
:10161000FD026AE070E083A994A90E94DB238BE3BA
:101620000E94D62381EB93E00E94B51481110DC076
:1016300082E491E00E9446246AE070E08091B00369
:101640000E94C8238BE30E94D62383E00E94D62306
:101650008AE00E94D6231092AE0381E080930103BA
:1016600060C1DF968C91DF978F3F09F47CCCDD96CB
:101670008C91DD978F3F09F476CCDE968C918F3F6D
:1016800009F471CC2FA938AD49AD5AAD2D873E87ED
:101690004F87588B29873A874B875C8741E050E01A
:1016A00059A748A7A12CB12C1FEFD101DA96ED90D4
:1016B000FC90DB97F701808990E0A816B9060CF042
:1016C00052CCB501C70182960E946012F701E8551D
:1016D000FF4F0081802F90E0D101DC962C91DC97A8
:1016E000022E000C330B8217930709F4A9C2DD9672
:1016F0002C91022E000C330B8217930709F4A0C221
:10170000D101DF962C91022E000C330B8217930728
:1017100009F496C2F10126AD022E000C330B82179C
:10172000930709F48DC2D101DA96ED91FC91DB9714
:1017300081899501281B3109ABADBCAD8C91082E78
:10174000000C990B821793070CF0B5C2A28AF10125
:1017500082AD93ADDC0152964C91529751966C91AB
:101760000E94E412D101DA96ED91FC91DB97DE96AE
:10177000BC91BB8FD101DD96BC91BD8FD101DF96AD
:101780000C91DF97DC96BC91BF8FDF012B8DA20FF0
:10179000B11D27FDBA9516968C91DF013D8DA30FE3
:1017A000B11D37FDBA951696CC90D12CC80ED11C20
:1017B000DF01A00FB11D07FDBA9516968C91C81ACE
:1017C000D108DF014F8DA40FB11D47FDBA951696C4
:1017D0008C91AEA1BFA11C92C81AD108D7FE03C03C
:1017E000D194C194D1080D2C000CEE08FF0880891B
:1017F000E82FF0E0FEABEDABBF01FF0F880B990BBC
:101800000E94312C2AE037ED43E25DE30E94902CE8
:101810002B013C0120E030E0A9010E94EA2E20E0EB
:1018200030E040E05FE387FD18C2C301B2010E94CF
:10183000482E0E94B42E6C157D058E059F050CF474
:1018400092CBFAA52BA5F2138ECB3D8D4F8D34177D
:1018500009F489CB5B8D501709F485CB041709F483
:1018600082CB531709F47FCB541709F47CCB301784
:1018700009F479CBDE011996FE013D9681919D9187
:101880008913F0C18E169F06C9F78F8D7B8D6AE094
:10189000769F800D1124AD8D9AE0A99F000D112433
:1018A0008A3008F48C590A3008F40C59AE01475FAD
:1018B0005F4FFE013D966F01E82EF12C602F70E026
:1018C000D6018D916D01082E000C990B8E159F0588
:1018D00009F055C3CE010996FE013D962191022ED5
:1018E000000C330B2617370709F052C3E815F9052A
:1018F00009F05EC380E0C814D90409F4B9C14F5F90
:101900005F4F8111DDCFF101E05CFF4F8BA19CA106
:1019100066E070E00E94072E71836083F8A9F111E0
:101920007DC98091EF02882309F428C18091AE031C
:10193000811124C18091060390910703019709F05A
:101940001DC180910103811158C18091FE0288322E
:1019500008F418C182E00E94D6238091F202882305
:1019600009F47DC084E691E00E9446248BE30E9446
:10197000D62340E060E08EEE92E00E94E412F12C6B
:101980008091AB03F81688F58F2D90E0FC01EE0FE7
:10199000FF1FE556FC4F008111810115110519F15A
:1019A000FC01E251FD4F86818823E9F08F2D17FF5E
:1019B00005C0806A11950195110901C08068E02E6B
:1019C00007FD04C0B02FB068EB2E01C080610E94FB
:1019D000D6238E2D0E94D623812F80680E94D62385
:1019E0008BE30E94D623F394CBCF8091FE0280FF3D
:1019F00005C084E60E94D62310E010C084E4FACF2C
:101A000080919503181730F4E12FF0E0E251FD4F7B
:101A100022A12F8B8F890E94D6231F5F80918F0375
:101A2000811770F78CE291E00E9446248091EE02CB
:101A300060E170E0082E000C990B0E94DB2387E622
:101A400091E00E94462481EB93E00E94B51481113D
:101A500080C082E50E94D62360E170E073C089E611
:101A600091E00E9446248BE30E94D62340E060E090
:101A70008EEE92E00E94E41210E08091AB03181702
:101A800058F5212F30E0C901880F991FAC01455648
:101A90005C4F7A01DA018D919C91892BD9F0F90183
:101AA000E251FD4F86818823A9F080E50E94D6236C
:101AB0006AE070E0812F0E94C8238DE30E94D62344
:101AC0006AE070E0F701808191810E94DB238BE363
:101AD0000E94D6231F5FD1CF85E391E00E94462468
:101AE00010E08091FE02181788F4612F70E080E109
:101AF00093E00E946012809196036AE070E0082EE5
:101B0000000C990B0E94DB231F5FEBCF88E391E071
:101B10000E9446248091EE026AE070E0082E000CDC
:101B2000990B0E94DB238BE30E94D62381EB93E089
:101B30000E94B51481110DC082E491E00E944624F8
:101B40006AE070E08091B0030E94C8238BE30E949A
:101B5000D62380910303882331F08FE40E94D6239B
:101B60008BE30E94D62383E00E94D6238AE00E9462
:101B7000D6231092020381E0809301038091010338
:101B800081113BC0809102038823D9F14091AB03BE
:101B9000EBE9F3E080E090E020EDE22E27E0F22E8A
:101BA000841710F010E00CC0219131911216130629
:101BB00024F42E153F050CF47C010196F1CF1F5F34
:101BC0008091FE021817C8F4F0EDEF16F7E0FF065B
:101BD000A1F0612F70E080E193E00E94601280919B
:101BE0009603082E000C990BE816F90641F76FEFE3
:101BF000610F8EEE92E00E94A41380910203811186
:101C0000DDC1109101038EEE92E00E945F131093EC
:101C10000103D4C175010C94C1031093AD0382E09C
:101C200090E09093070380930603E092FF020C94E8
:101C3000E803101611060CF07FC1F101D5AE83C97F
:101C4000D101DA96ED91FC91DB97808990E00197C4
:101C5000A816B90609F040C066CDC301B2010E94C2
:101C6000472EE7CD9F3F39F08F3F09F00BCE03C0E1
:101C7000882309F448CE2DA93EA92A193B09EBADCA
:101C8000FCAD8081082E000C990B821793070CF095
:101C90006AC91D8719871E871A871F871B87188B9C
:101CA0001C875FEFA51AB50A68A579A56F5F7F4FFE
:101CB00079A768A7FACCAEA1BFA11C922496EEAD7D
:101CC000FFAD2497108219871D871A871E871B87EF
:101CD0001F871C87188BE5CFAEA1BFA18C91811106
:101CE00003C0A18AE1E0EC93D101DA96ED90FC907B
:101CF000DB9768A579A5C70182960E946012F7015B
:101D0000E855FF4F8081BAE00B9F800D11248A3087
:101D100008F48C59A0FC03C02D899E8902C02B8930
:101D20009C89E22FF92F90E0482F50E06081262F08
:101D3000062E000C330B2417350719F06F3F19F4EA
:101D40008083292F01C02FEF9F5F943009F4A9CF22
:101D500031962F3F59F3A5CFE090E401D801DA96F0
:101D60008D909C90DB97B1E0EB123AC0E2E0CE1A86
:101D7000D108B601C40182960E946012F401E855B0
:101D8000FF4F9081D801DF968C91DF97981709F467
:101D900064C0DA968D909C90DB97B601C401829660
:101DA0000E946012F401E855FF4FA081AA0FBB0BFF
:101DB0008A0E9B1ED401A355BF4FF80182AD93AD8F
:101DC00024ADE22FEE0FFF0BE80FF91FE355FF4F95
:101DD0002D913C918081918128173907F4F13AC007
:101DE000E11038C0F2E0CF1AD108B601C4018296E2
:101DF0000E946012F401E855FF4F9081D801DE96F1
:101E00008C91DE97981749F1DA968D909C90DB972C
:101E1000B601C40182960E946012F401E855FF4F9A
:101E2000A081AA0FBB0B8A0E9B1ED401A355BF4FE6
:101E3000F80182AD93AD25ADE22FEE0FFF0BE80F59
:101E4000F91FE355FF4F2D913C91808191818217BD
:101E500093071CF0FA94FA9451C96E2DC8010E94A0
:101E60009E12F8CFF401808990E00197E816F906F8
:101E70000CF0BCC98091E40184258093E4012DCB52
:101E800025AD022E000C330B8217930709F49FCA6D
:101E9000C2ACD3ACB7016D5F7F4FC60182960E9482
:101EA0006012F601E855FF4F808190E0F80127AD00
:101EB000022E000C330B8217930709F488CAF8012D
:101EC00026AD022E000C330B8217930709F085CA4A
:101ED0007ECA582E5394D801DA96ED91FC91DB9787
:101EE00084E090E0918F808F78CA8091AE03882340
:101EF00009F417CD809102038111AFCB109210032A
:101F000010928F03109291031092900387E08093B8
:101F100094031092FE0281E08093020302CDF1014E
:101F2000D7AE3BA53F5F3BA74BA15CA1401B510B2C
:101F30005CA34BA30C94AC07D101DC96DC92F1CFEF
:101F40000E946012909196038091AD0398130C94B7
:101F500013046091000370E080E193E00E9460123E
:101F6000909196038091EE0298130C941304809143
:101F7000000381508093000311E00C941A04FA01CD
:101F80008081082E000C990BE816F90651F4A2CCBA
:101F9000DC012C91022E000C330B6217730719F42D
:101FA000A5CC81E0A8CCE815F905D9F3019696CC2B
:101FB000C814D90409F4A7CC80E0A1CCCD5BDF4FD5
:101FC0000FB6F894DEBF0FBECDBFDF91CF911F914A
:101FD0000F91FF90EF90DF90CF90BF90AF909F90C8
:101FE0008F907F906F905F904F903F902F900895CB
:101FF00080E00895CF92DF92EF92FF920F931F93AC
:10200000F8940E9417220091EA021091EB022091AD
:10201000EC023091ED026B017C01C01AD10AE20A98
:10202000F30A970186016093EA027093EB028093B2
:10203000EC029093ED020A3511052105310578F186
:1020400081E0C8168DE7D806E104F10410F496018A
:1020500002C021E03DE74A9B03C03195219531093B
:102060008091BE038A35D8F48091BE038F5F809340
:10207000BE038091BF036091BD030E94E72D909342
:10208000BF03E091BF03F0E0EE0FFF1FEF53FC4FE3
:10209000318320838091BF038F5F8093BF03789447
:1020A0001F910F91FF90EF90DF90CF9008958F9246
:1020B0009F92AF92BF92CF92DF92EF92FF928FB733
:1020C000F894C0904402D0904502E0904602F0900F
:1020D00047028FBF8091E7019091E801A091E9014B
:1020E000B091EA01C816D906EA06FB0648F48091C9
:1020F000E5019091E60101969093E6018093E50158
:10210000C092E701D092E801E092E901F092EA0181
:10211000A091E501B091E60127E339E841E450E000
:102120000E94962D4B015C01C701B60128EE33E0F9
:1021300040E050E00E94742DC501B401620F731F8E
:10214000841F951FFF90EF90DF90CF90BF90AF90CE
:102150009F908F900895CF93DF93C2E0D0E0FE016F
:10216000E658FF4F6491CE010E94A41C2196CB3209
:10217000D105A9F7C0E3D0E0C13321F464E881E3DD
:1021800090E002C060E0CE010E94A41C2196C833FA
:10219000D10591F788E690E0DF91CF910C94C921A9
:1021A0008EBD0DB407FEFDCF8EB50895CF93DF939E
:1021B0002A981C9B0EC061E070E080E090E00E94D5
:1021C0003C2280910401882399F08150809304017E
:1021D000F0CF8EE70E94D010C0E3D0E0CE010E9485
:1021E000A61C0E94D0102196C833D105B9F72A9AAF
:1021F000DF91CF910895CF93DF93D82FC62F2A98E0
:102200001C9B0EC061E070E080E090E00E943C22E8
:1022100080910301882359F0815080930301F0CF0E
:102220008D2F0E94D0108C2F0E94D0102A9ADF91FF
:10223000CF910895CF93DF93D82FC62F2A981C9B58
:102240000EC061E070E080E090E00E943C2280914E
:102250000201882361F0815080930201F0CF8D2F1D
:102260008C2B0E94D01080E00E94D0102A9ADF911F
:10227000CF91089560E888E00E941A11823339F402
:1022800060E880E00E941A1191E08D3009F090E042
:10229000892F089580910501813011F084E301C0F8
:1022A00084EF60EC0C941A11CF93C0910501C130FA
:1022B00011F081E301C081EF60E80E941A11CC2384
:1022C00059F09FEF980F9E3F38F01092050160E89B
:1022D00081E3CF910C941A11CF9108952A989FEF22
:1022E00023E230E01C9B07C0F9013197F1F79150D0
:1022F000C9F72A9A04C00E94D0102A9A91E0892F27
:102300000895CF93C82F2A981C9B10C061E070E0FD
:1023100080E090E00E943C2280910101811102C086
:1023200080E01AC0815080930101EECF8C2F0E9473
:10233000D010C82F1C9B0EC061E070E080E090E0E0
:102340000E943C2280910001882351F381508093A8
:102350000001F0CF2A9A8C2FCF91089586E30E9436
:10236000811161E070E080E090E00C943C22E898FC
:1023700084EE99E190930801809307018091F00128
:1023800081110E94AE111092BE031092C0031092F0
:10239000BF030895CF930E94AE11CFEF84E30E9454
:1023A0008111C1508077803141F061E070E080E0C0
:1023B00090E00E943C22C111F1CF5398CF91089533
:1023C0008AEF9FE090930801809307018091690054
:1023D0008C7F816080936900E89A8091F00181117F
:1023E0000C94CA110895CF93DF932A9A83E790E063
:1023F000FC013197F1F72A980197F1F72A9A8FEAB1
:1024000090E00197F1F780E30E9481116AE070E0AB
:1024100080E090E00E943C222A981C9B0EC061E064
:1024200070E080E090E00E943C22809106018823C9
:1024300081F1815080930601F0CF80E40E94D0109A
:10244000C2E0D0E0CE010E94A61C0E94D0102196CE
:10245000CB32D105B9F72A9A83E290E00197F1F7E0
:1024600084E190E00E94A61C807790E024E095959E
:1024700087952A95E1F780930B010E94D61061E0C1
:1024800070E080E090E00E943C22DF91CF910C94BC
:10249000CA11DF91CF91089590ED980F9A3070F0A6
:1024A0009FE9980F963010F499EA05C09FEB980FBA
:1024B000963018F499EC980F01C0982F892F089541
:1024C000CF93DF93FC01EE57FF4F4081469FD00131
:1024D000479FB00D1124FD0123E0F695E7952A955D
:1024E000E1F7EC01CB57DF4F288130E0E217F3072B
:1024F0000CF52297288130E0A770BB2702C03595E4
:102500002795AA95E2F7E80FF91F3081232330E0E1
:1025100058E0541B469F402D11244770541B02C0A5
:10252000359527955A95E2F7FC01EA57FF4F20832E
:10253000822F01C08FEFDF91CF910895FC0187A911
:102540008730A9F423A934A91216130684F492A99A
:10255000492F50E020AD30E0215031094217530798
:102560008CF59F5F92ABDF01A90FB11D1C9295A95D
:10257000492F50E0282F30E02F5F3F4F241B350BB1
:102580001216130624F401C0660F2A95EAF722A951
:10259000DF01A20FB11D2C91622B6C9323A934A9EA
:1025A0002F5F3F4F34AB23AB282F082E000C330B8B
:1025B000241B350B37FD02C0891B01C087E087ABA8
:1025C00081E0089580E008950F931F93CF93DF93E8
:1025D000DC0150968C915097882309F46BC0FD0163
:1025E00036969D01225F3F4F11922E173F07E1F76C
:1025F000411101C0482F262F30E035952795E42F53
:10260000F0E0F595E79560FF17C0ED01C955DF4F84
:102610008881281728F4ED01C20FD31F9AA101C0A9
:1026200090E0892F8F70ED01C80FD11D8E818F5FD3
:102630008E832F5F3F4F01C090E08D0109551F4FE2
:10264000622F70E06E177F07F0F4E8018881281789
:1026500020F4ED01C60FD71F9AA1C92FD0E034E0B6
:10266000D595C7953A95E1F7CA0FDB1F8E818F5F2D
:102670008E83892F8F70ED01C80FD11D8E818F5FE2
:102680008E832F5FDDCF40FF15C0ED01C955DF4FB1
:102690008881E81718F4EA0FFB1F92A1E92FF0E0F8
:1026A00084E0F595E7958A95E1F7EA0FFB1F8681AF
:1026B0008F5F8683DF91CF911F910F910895CF9304
:1026C000DF93FC01DC01A354BF4F1C9211961C92B6
:1026D00012A25D971C92119611961C921E9214964E
:1026E00087E08C93108A118E108E59968FEF8C9301
:1026F0008083EF01C355DF4FA95BB109CF010E966F
:10270000199219921D92A817B907D1F7138A86E971
:1027100090E0978B868BDF01A755BF4F40E050E0DC
:1027200060E87EE34D935D936D937C931397118ADC
:10273000148A158A57961C92128A11A210A283E05D
:102740008583DF91CF9108953F924F925F926F9270
:102750007F928F929F92AF92BF92CF92DF92EF9231
:10276000FF920F931F93CF93DF93DC0154961C923B
:102770005497662309F4E7C050962C915097222372
:1027800009F4E1C030E0A62EB12CA216B3069CF0ED
:10279000DF91CF911F910F91FF90EF90DF90CF903D
:1027A000BF90AF909F908F907F906F905F904F9071
:1027B0003F900C945F138C010E551F4FF801208140
:1027C0003181A216B30608F0BEC0EC017C01F2E232
:1027D000EF0EF11CFC01EF55FF4FC9010197A81640
:1027E000B90641F41AA21082D8011D921C9287E00A
:1027F000359668C02D01B4EA4B0E511CD2014C91A4
:10280000649F3001112453E0769467945A95E1F760
:10281000362C842E912C68E0C62ED12CC601B40132
:102820000E94072EC5010E94F32D009709F44CC0A9
:10283000489F802D112498E0981BD08037013D14CB
:10284000D8F4BE01630D711DDB0193964C919397F3
:1028500050E0092E02C0559547950A94E2F79296EA
:102860006C91082E01C0660F0A94EAF7462BD3013B
:102870004D933D013394E3CF2A193B09D8012D93A1
:102880003C93829E6001839ED00C929ED00C1124BA
:10289000C60168E070E00E94072EDE01AA55BF4F16
:1028A000882321F097E0981B892F01C087E08C9343
:1028B000C6018819990997FD079623E09595879594
:1028C0002A95E1F7808322C040814619408377240E
:1028D00050E04F5F5F4FB701660D771DC7010E9443
:1028E000DC2FF201608170E0C6010E94072E669D18
:1028F0009001679D300D769D300D1124D8018D918A
:102900009C911197821B930B8D939C9381E08C8BF0
:10291000F80160817181688B662399F07727615097
:102920007109C7010E946012FE01E855FF4F8081C6
:10293000880F990B83559F4F8C0F9D1F99A388A3D8
:1029400002C019A218A2DF91CF911F910F91FF90A1
:10295000EF90DF90CF90BF90AF909F908F907F903F
:102960006F905F904F903F900895FC01808191811E
:10297000892B51F482819381892B31F48481958153
:1029800021E082278170089580E00895CF93C82FB9
:10299000803130F46AE070E080E090E00E94DB2358
:1029A00060E170E08C2FCF910C94C823CF93DF931C
:1029B000D82F8EEF8D0F8E33F8F4C62F0E94FB10A8
:1029C000D43151F48C2F807790E024E09595879551
:1029D0002A95E1F780930B018CE691E00E94462452
:1029E0008D2F0E94C6148C2F0E94C61480ED91E09A
:1029F000DF91CF910C945721DF91CF9108951F92D1
:102A00000F920FB60F9211242F933F934F935F9322
:102A10006F937F938F939F93AF93BF93EF93FF93A6
:102A2000E091EB01F091EC010995FF91EF91BF91DD
:102A3000AF919F918F917F916F915F914F913F9156
:102A40002F910F900FBE0F901F9018952F923F92CD
:102A50004F925F926F927F928F929F92AF92BF92AE
:102A6000CF92DF92EF92FF920F931F93CF93DF935A
:102A7000CDB7DEB7C75AD1400FB6F894DEBF0FBE50
:102A8000CDBF0E94B711CF5FDE4F19821882C150AF
:102A9000D14081E0C85EDE4F8883C851D140C75E17
:102AA000DE4F19821882C951D140C05DDE4F888344
:102AB000C053D140CF5CDE4F19821882C153D14040
:102AC000C85BDE4F8883C854D140C75BDE4F198294
:102AD0001882C954D140C05ADE4F8883C056D140B5
:102AE000CF59DE4F19821882C156D140C858DE4FE7
:102AF0008883C857D1409E012F5F3F4F790180E006
:102B000091E0D901FC011D923197E9F7CB57DE4FD7
:102B100039832883C558D14066246A9404E312E0BF
:102B200022242A94C257DE4F1882CE58D140F1E0B9
:102B3000CD56DE4FF883C359D14088E1782E4E013F
:102B4000939492E0492ED8018C91833509F047C0C7
:102B500011968C91833459F42394E1E0F1E0EC0F69
:102B6000FD1F729CE00DF11D112412821AC08D34DC
:102B700061F42394E1E0F1E0EC0FFD1F729CE00DA5
:102B8000F11D1124B1E0B2831FC0823581F423947A
:102B9000E1E0F1E0EC0FFD1F729CE00DF11D11244E
:102BA0004282CD56DE4F1882C359D1400DC08E34BB
:102BB00059F42394E1E0F1E0EC0FFD1F729CE00D6D
:102BC000F11D112423E022832110FDC043E050E0D9
:102BD00064E372E08DE492E00E94E51930C0803534
:102BE000B9F5D80112968C9112978D3309F0EBC08C
:102BF00011968C91B0EDDB2ED80EB7E0BD1508F420
:102C0000E2C04AE050E0BE016B577E4FC801039618
:102C10000E94132A2CE0229DF0011124ED0DF11DDC
:102C2000EE0FFF1FA1E0B1E0AC0FBD1FEA0FFB1FCD
:102C3000708767832110C7C0C8010E944624CB5704
:102C4000DE4FF982E882C558D14000E010E0BBC0F9
:102C50008235C1F4F80181818D3309F0B4C04AE0B6
:102C600050E0BE016B577E4FC80102960E94292B8F
:102C7000E1E0F1E0EC0FFD1F729CE00DF11D11246D
:102C8000678BD8CF843451F5D80111968C918D3350
:102C900009F099C0CC24C394DC2CCC0EDD1E729CB0
:102CA000C00CD11C1124C8010296F60194838383C1
:102CB000A401401B510B4D5F5F4F6BE370E0019629
:102CC0000E94C62FCB57DE4F99838883C558D140C9
:102CD000D60116969C938E93159775C08334C9F4CC
:102CE000F80181818D3309F06EC04AE050E0BE01E9
:102CF0006B577E4FC80102960E94292BE1E0F1E05C
:102D0000EC0FFD1F729CE00DF11D11247183608397
:102D10005AC0863409F057C0D80111968C918D3372
:102D200009F051C0CB57DE4F28813981C558D140B9
:102D3000201B310BC901019797FDC9019595879516
:102D4000C257DE4F8883CE58D14081508530D8F5A8
:102D50008091F0018823B9F1C558DE4F1882CB5716
:102D6000D1405E01B1E8AB1ABEEFBB0A6801E2E0F8
:102D7000CE0ED11C312C3DE0532E530C60E8852D36
:102D80000E941A11D5018D935D01F60181919191F7
:102D90006F01C758DE4F99838883C957D14040E1FE
:102DA00050E060E070E0CE0187589E4F0E94132AE9
:102DB000852D0E94FB103394C257DE4FF881CE5808
:102DC000D1403F16C0F2CB57DE4F88819981C5585C
:102DD000D1400817190709F463C0E816F90639F05D
:102DE0000196CB57DE4F99838883C558D140CB5786
:102DF000DE4F08811981C558D140B12CCB57DE4F29
:102E0000C880D980C558D140CB0CD11CCB57DE4FE0
:102E1000D982C882C558D1400E94D72197FD0DC0E4
:102E2000D6018C936B18CB57DE4FE881F981C558DA
:102E3000D14080818B3341F40FC086EB90E00E943B
:102E400065218EEA90E01AC08A3009F49FC266209C
:102E500029F0BB24B394D2CF61101DC08BEA94E05B
:102E60000197F1F78E0113950E94D72197FF09C0B2
:102E700086EB90E00E94652185EA90E00E94C921DE
:102E800089C28A309105A1F3F70181937F01E01790
:102E9000F10751F7EDCF11820115110509F053CE5D
:102EA0008091F0018823A9F08BE30E946E118823A2
:102EB00081F00E94AE111EEF1F3F51F085E30E948A
:102EC00081110FEF010F8077803209F057C2111185
:102ED000539ACD5FDE4F8881C350D140811113C01A
:102EE000C85EDE4FF881C851D140C357DE4FF8832A
:102EF000CD58D140F1110DC021E0C357DE4F2883DA
:102F0000CD58D14006C031E0C357DE4F3883CD588D
:102F1000D140312C81E091E08C0F9D1FA8E1A29D52
:102F2000800D911D1124FC013296CE55DE4FF983A0
:102F3000E883C25AD1409C01295E3F4FCC55DE4FF9
:102F400039832883C45AD140DC011396CA55DE4F19
:102F5000B983A883C65AD140CE55DE4FE881F981A6
:102F6000C25AD14080818330C9F510E0CC55DE4F84
:102F7000A881B981C45AD1408C9190E0212F30E0D2
:102F8000281739077CF0CD56DE4FB881C359D140A0
:102F9000BB2309F4B2C161E070E080E090E00E94E0
:102FA0003C22ABC1CA55DE4FE881F981C65AD140F7
:102FB00060817181CE0187589E4F0E94B11ACE0167
:102FC00087589E4F0E94C022C758DE4F8881998142
:102FD000C957D1400E948A291F5FC8CFC12CF8E190
:102FE000FC9DC0011124E1E0F1E0EC0FFD1FE80FB2
:102FF000F91F2281223009F080C0D12C9F01295E67
:103000003F4FC757DE4F39832883C958D1400796B1
:10301000A1E0B1E0AC0FBD1FA80FB91FC557DE4F2F
:10302000B983A883CB58D14022513109C157DE4F13
:1030300039832883CF58D140CF010396C957DE4F3B
:1030400099838883C758D140C757DE4FA881B9817B
:10305000C958D1408C91D81608F049C1C157DE4FEC
:10306000E881F981CF58D14080809180C957DE4FE7
:10307000A881B981C758D140EC901196FC900E946C
:1030800017222B013C018701F8010815190560F58D
:103090000F5F1F4F80818053C557DE4FE881F98154
:1030A000CB58D140E80FF11DE80FF11DA080B18091
:1030B0007501B7FE04C0EE24FF24EA18FB080E9445
:1030C00017226415750586059705C8F3B7FE02C07B
:1030D0005B9801C05B9AC701FF0CAA0BBB0B480EA3
:1030E000591E6A1E7B1ED0CF0E94172264157505DB
:1030F00086059705C8F3D394A7CF213009F0F7C010
:1031000000E0C757DE4FF983E883C958D14077966E
:10311000C256DE4FF983E883CE59D140C757DE4F00
:10312000E881F981C958D1403596C056DE4FF98300
:10313000E883C05AD140C757DE4F28813981C9582A
:10314000D1402D5F3F4FCC56DE4F39832883C45981
:10315000D140C256DE4FA881B981CE59D1408C9161
:10316000081708F0C4C0C757DE4FE881F981C95875
:10317000D140E080F180C056DE4FA881B981C05AAD
:10318000D1400D90BC91A02DCA56DE4FB983A883C3
:10319000C659D140CC56DE4FE881F981C459D1409F
:1031A000D08011810E9417224B015C01C957DE4F6C
:1031B000D882C758D140C857DE4F1883C858D1406D
:1031C000C701FF0CAA0BBB0BC157DE4F8883998345
:1031D000AA83BB83CF58D140880F991FAA1FBB1F5A
:1031E000C856DE4F88839983AA83BB83C859D140D0
:1031F000CA56DE4FA881B981C659D140C957DE4FA2
:10320000E881F981C758D140EA17FB0708F06DC083
:103210008191C957DE4FF983E883C758D1408A337B
:1032200014F097E301C090E3891B24E030E0C55718
:10323000DE4F39832883CB58D14098E0D92EA82F70
:10324000880FBB0BC456DE4FB983A883CC59D1403D
:103250002401350110E0ED2CF12CC456DE4FE8813D
:10326000F981CC59D140EE22FF22111104C0E114A2
:10327000F10421F405C0E114F10411F45B9801C0DC
:103280005B9AC157DE4F88819981AA81BB81CF5853
:10329000D140480E591E6A1E7B1E0E9417226415DB
:1032A000750586059705C8F31F5F1230F1F6C856FD
:1032B000DE4F88819981AA81BB81C859D140880E8F
:1032C000991EAA1EBB1ED694C557DE4FA881B98190
:1032D000CB58D1401197C557DE4FB983A883CB583F
:1032E000D140AB2B09F0B4CF83CF0F5F32CF5B98C7
:1032F000C3942C1408F073CE46CE3394C357DE4FDC
:10330000B881CD58D140B31127CEC257DE4FE881E6
:10331000CE58D140EE23A9F07E01F1E8EF1AFEEF7E
:10332000FF0A10E0D7016D917D018DE0810F0E94B1
:10333000FB101F5FC257DE4FB881CE58D140B1138A
:10334000F1CFCE0101960E944624E1E0F1E0EC0FBE
:10335000FD1F28E1229EE00DF11D112482818330A2
:1033600051F08EEE92E00E945F131092BE03109215
:10337000C0031092BF030E94E0110CC061E070E036
:1033800080E090E00E943C22102F96CD662009F448
:1033900065CD86CDC955DE4F0FB6F894DEBF0FBEA2
:1033A000CDBFDF91CF911F910F91FF90EF90DF90F4
:1033B000CF90BF90AF909F908F907F906F905F90D5
:1033C0004F903F902F9008950895CF92DF92EF9203
:1033D000FF920F931F93CF93DF936C017A018B01C0
:1033E000C0E0D0E0CE15DF0581F0D8016D918D01F0
:1033F000D601ED91FC910190F081E02DC601099577
:10340000892B11F02196EECF7E01C701DF91CF917C
:103410001F910F91FF90EF90DF90CF900895089546
:1034200080E090E00895FC01538D448D252F30E01D
:10343000842F90E0821B930B541710F0CF960895C1
:1034400001970895FC01918D828D981761F0828D0E
:10345000DF01A80FB11D5D968C91928D9F5F9F73C8
:10346000928F90E008958FEF9FEF08950E94B52FFF
:103470008DE492E00E94B31B21E0892B09F420E047
:10348000822F0895EF92FF920F931F93CF93DF93B4
:10349000EC0181E0888F9B8D8C8D981305C0E889A5
:1034A000F989808185FD26C0F62E0B8D10E00F5F17
:1034B0001F4F0F731127E02E8C8DE8120CC00FB632
:1034C00007FCFACFE889F989808185FFF5CFCE0125
:1034D0000E94821CF1CF8B8DFE01E80FF11DE35A93
:1034E000FF4FF0829FB7F8940B8FEA89FB898081A8
:1034F00080620AC09FB7F894EE89FF896083E889EB
:10350000F98980818370806480839FBF81E090E02F
:10351000DF91CF911F910F91FF90EF900895CF937E
:10352000DF93EC01888D8823C9F0EA89FB898081CB
:1035300085FD05C0A889B9898C9186FD0FC00FB69D
:1035400007FCF5CF808185FFF2CFA889B9898C91DE
:1035500085FFEDCFCE010E94821CE7CFDF91CF9196
:103560000895EF92FF920F931F93CF93DF93EC0197
:10357000198218821B821A821D821C8261157105B4
:10358000B9F17B01FB0101900020E9F731978F0130
:10359000061B170BB8016F5F7F4F80E090E00E9421
:1035A000EF2E009759F0998388831B830A832C811F
:1035B0003D81232B81F4FC0110820DC0888199810B
:1035C000009711F00E948A29198218821D821C829C
:1035D0001B821A820DC01D830C83B70188819981DB
:1035E000DF91CF911F910F91FF90EF900C94EE2FF0
:1035F000DF91CF911F910F91FF90EF9008951F924F
:103600000F920FB60F9211242F933F934F935F9316
:103610006F937F938F939F93AF93BF93EF93FF939A
:10362000E0910901F0910A010995FF91EF91BF9195
:10363000AF919F918F917F916F915F914F913F914A
:103640002F910F900FBE0F901F9018951F920F9201
:103650000FB60F9211242F933F934F935F936F9365
:103660007F938F939F93AF93BF93EF93FF93E091DB
:103670000701F09108010995FF91EF91BF91AF917A
:103680009F918F917F916F915F914F913F912F917A
:103690000F900FBE0F901F9018951F920F920FB6AC
:1036A0000F9211242F933F934F935F936F937F93C8
:1036B0008F939F93AF93BF93EF93FF938DE492E02B
:1036C0000E94821CFF91EF91BF91AF919F918F91CA
:1036D0007F916F915F914F913F912F910F900FBE0E
:1036E0000F901F9018951F920F920FB60F921124F2
:1036F0002F938F939F93EF93FF93E0915D02F0914F
:103700005E028081E0916302F091640282FD12C04A
:103710009081809166028F5F8F732091670282177C
:1037200051F0E0916602F0E0E35BFD4F958F8093EE
:10373000660201C08081FF91EF919F918F912F913F
:103740000F900FBE0F901F901895FC01918D828DE8
:10375000981731F0828DE80FF11D858D90E0089566
:103760008FEF9FEF0895FC01918D228D892F90E0BE
:10377000805C9F4F821B91098F7399270895FC01EC
:10378000CB01642F0994FC0109940F931F93CF93ED
:103790008C01C62F8DE492E00E94131A892BD1F37D
:1037A0004C2F50E0B8018DE492E0CF911F910F9122
:1037B0000C94E5190F931F93F8940E94172200911F
:1037C000EA021091EB022091EC023091ED02AB0184
:1037D000BC01401B510B620B730B22E02093EF01E5
:1037E00081E09DE79093EE018093ED019093870037
:1037F0008093860082E18093810041303DE753074A
:103800006105710588F14A9903C02FEF32E802C0C3
:1038100021E03DE78091BE038A35D8F48091BE0354
:103820008F5F8093BE038091BF036091BD030E94B0
:10383000E72D9093BF03E091BF03F0E0EE0FFF1F71
:10384000EF53FC4F318320838091BF038F5F8093C0
:10385000BF030E9417226093EA027093EB028093E9
:10386000EC029093ED0238C0413187E258076105C0
:10387000710590F181E19DE7A0E0B0E0841B950B1C
:10388000A60BB70B33E0880F991FAA1FBB1F3A95F1
:10389000D1F7009731E0A307B10520F421E0209390
:1038A000EF0109C02093EF0123E0B695A795979506
:1038B00087952A95D1F79093EE018093ED01809141
:1038C000ED019091EE0190938700809386008091A6
:1038D000EF018061809381008091F1010E9480213D
:1038E0001092F10178948091420291E0980F9093A8
:1038F0004202811104C01F910F910C9457101F9127
:103900000F910895FC01848DDF01A80FB11DA35A0A
:10391000BF4F2C91848D90E001968F739927848FEF
:10392000A689B7892C93A089B1898C918370806412
:103930008C93938D848D981306C00288F389E02DB3
:1039400080818F7D808308950C94562D0C944E2D8C
:10395000CF92DF92EF92FF920F931F93CF93DF935B
:10396000CDB7DEB728970FB6F894DEBF0FBECDBF38
:103970008DE492E00E94B31B892B09F447C4109197
:1039800043021E3049F48EEE90E00E94652184E3EC
:1039900092E00E94572105C38DE492E00E94221A12
:1039A000E12FF0E0EC5CFD4F80838D3079F034F452
:1039B000882361F08A3009F0F7C208C0833231F001
:1039C0008B3309F0F1C20E942615EBC280913402BC
:1039D000873509F431C28CF4803509F483C034F49E
:1039E0008F33F9F0833409F4F1C0A5C2823509F4AC
:1039F000C6C0863509F47FC09EC2823709F403C26F
:103A00003CF4883509F4D5C0853609F4D9C193C290
:103A1000843709F4C4C00CF47AC2883709F4DAC1D7
:103A20008AC28FE30E94D62388E492E00E94652137
:103A300086E50E94D62386E492E00E94652182E515
:103A40000E94D62386E492E00E94652184E70E94CA
:103A5000D62386E492E00E94652188E50E94D62361
:103A600086E492E00E94652183E50E94D62386E4E5
:103A700092E00E94652180E50E94D62386E492E0D0
:103A80000E94652183E40E94D62386E492E00E948E
:103A9000652182E70E94D62386E492E00E94652198
:103AA00087E50E94D62386E492E00E94652183E7A1
:103AB0000E94D62386E492E00E9465218091F00165
:103AC000882309F478C188E70E94D62386E492E02F
:103AD0000E94652185E60E94D62386E492E00E943A
:103AE000652169C187EC91E00E9457218BEC97E03A
:103AF0000197F1F753C281E292E00E946521809123
:103B0000F0018823C9F189E192E00E9465218AECE5
:103B100091E00E94462484E192E00E94652186E4BF
:103B200092E00E9465218EE092E00E9465210E9451
:103B30005411853099F028F4833051F0843059F0D5
:103B400013C0843141F0873161F0873069F409C0D6
:103B50008CE092E00BC08AE092E008C087E092E03F
:103B600005C085E092E002C08CEF91E00E946521E3
:103B70008CEC91E00E94462488ED91E041C32091B5
:103B80007504309176042115310511F42BE734E0EA
:103B90006AE070E0CE010196821B930B6CC00E941C
:103BA00057104AE00E9487238EEC91E00E94752313
:103BB000F5C180913502813519F40E94B711EEC12B
:103BC000853409F0EBC10E94E011E8C18091350213
:103BD000873459F034F49CEB980F923008F44EC0BF
:103BE000A3C0833509F483C09FC08AE091E00E949E
:103BF000652188E091E00E9465218091F1026AE0F0
:103C000070E090E00E94DB2386E091E00E94652155
:103C100083E091E00E94652188E091E00E946521A7
:103C20008091EF026AE070E090E00E94DB2386E082
:103C300091E00E94652180E091E00E94652188E08A
:103C400091E00E9465218091F0026AE070E090E0CE
:103C50000E94DB2386E091E00E94652181ED91E0E6
:103C60000E94462488E091E00E9465218091F20242
:103C70006AE070E090E00E94DB2396CF90913602DC
:103C8000923579F034F4933409F088C1E0EFF2E032
:103C90000DC0933549F0953509F080C1EFEEF2E0A3
:103CA00005C0E2EFF2E002C0E1EFF2E0853419F482
:103CB00081E0808301C010822091EF02622F660FA5
:103CC0009091F00284E0989F90011124262B60913E
:103CD000F102262B9091F202E8E09E9FC001112490
:103CE000622F682B8FEF90E00E94A41C57C166EDF5
:103CF00071E086E392E00E94F52F892B09F44EC112
:103D00004AE050E060E070E08CE392E00E94132A09
:103D1000862F6093AF036AE070E00E94C8238DE0B5
:103D200091E00E9465213AC1082E000C990B0E9477
:103D3000BA2F892B09F432C180913602082E000C6B
:103D4000990B0E94BA2F892B09F428C18091F001A8
:103D5000882309F423C140E150E060E070E085E38E
:103D600092E00E94132A162F809137028E3651F46A
:103D700080913802082E000C990B0E94BA2F892BD3
:103D800009F016C11E3308F045C11F3208F040C1CA
:103D900060E8812F0E941A11082F8DE291E00E94A5
:103DA0004624812F0E94C6148FED91E00E94462484
:103DB000802F0E94C61480ED91E00E945721EEC032
:103DC0008091F001882309F4E9C00E94AB100E94A1
:103DD000F311E4C080913502082E000C990B0E946B
:103DE000BA2F892B09F4DAC080913602082E000C14
:103DF000990B0E94BA2F892B09F4D0C08091F00151
:103E0000811169C1CBC080913502082E000C990B3D
:103E10000E94BA2F892B09F4C1C080913602082E66
:103E2000000C990B0E94BA2F892B09F4B7C080911E
:103E3000F001811176C1B2C080913502833509F05D
:103E400040C0909136029333E1F580913702082EFD
:103E5000000C990B0E94BA2F892B09F49FC040E1F6
:103E600050E060E070E086E392E00E94132A162F93
:103E70006E3308F093C0862F0E948111F82E61E006
:103E800070E080E090E00E943C228DE30E9481116E
:103E9000082F8FE391E00E946521812F0E94C614B4
:103EA00082E391E00E9465218F2D82958F700E94A0
:103EB000C61489E291E00E946521802F82958F705F
:103EC00078CF082E000C990B0E94BA2F892B09F489
:103ED00065C080913602082E000C990B0E94BA2F03
:103EE000892B09F45BC080913702082E000C990BD6
:103EF0000E94BA2F892B09F451C080913802082EF4
:103F0000000C990B0E94BA2F892BD1F447C08091E5
:103F1000F001882309F477C10E943A11811173C11D
:103F200089E192E00E94652181E791E00E9465218C
:103F300087E691E065C18DE491E00E94C92131C01E
:103F40001B8280913502909136029A83898340E1E9
:103F500050E060E070E0CE0101960E94132A162F17
:103F600080913702909138029A83898340E150E032
:103F700060E070E0CE0101960E94132A062F812F87
:103F800090E00E94A41C8091F001882321F0602F12
:103F9000812F0E94D614123109F4F7C081E080937A
:103FA000F1011092430232C11F5F10934302E0CC33
:103FB00040E150E060E070E088E392E00E94132A64
:103FC0001F3260F782E0E82EE60E8DE291E00E945B
:103FD0004624812F0E94C6148DED91E00E94462454
:103FE0008E2D0E94C6148EE591E00E944624F12C8D
:103FF000E10EF11C812F90E08E159F050CF0DBCEB9
:1040000060E8812F0E941A110E94C6141F5FF2CF30
:1040100060ECBFCE1E33C1F583E291E00E946521C2
:104020002A981C9B0FC061E070E080E090E00E9445
:104030003C2280910C01882309F4B0CF81508093F9
:104040000C01EFCF8EEF0E94D0108E010F5F1F4F3B
:104050006E01F9E0CF0ED11C780180E00E94D010F3
:10406000F70181937F01CE16DF06B9F72A9A81E224
:1040700091E00E946521F80181918F010E94C61490
:10408000C016D106A1F797CE193909F087CF10E0F5
:10409000112341F0103111F0103279F481E291E0F6
:1040A0000E9465218AE191E00E946521812F0E9492
:1040B000C61487E191E00E94652160E8812F0E948B
:1040C0001A110E94C61481EE91E00E9446241F5FDF
:1040D0001F32F1F670CE40E150E060E070E085E321
:1040E00092E00E94132AF62E00E310E0013321F43F
:1040F0006F2D81E390E002C060E0C8010E94A41C23
:104100000F5F1F4F0833110589F70E94D61081ED0C
:1041100091E00E9465218F2D0E94C61480EC91E0F1
:104120006FC040E150E060E070E085E392E00E9403
:10413000132AE62E89EB91E00E94652186E492E045
:104140000E9465218E2D0E94C61480913702F12CA9
:104150008E3699F486EB91E00E94652100E010E034
:10416000C701800F911F0E94A61C0E94C6140F5FFA
:104170001F4F00311105A1F71ECE82EB91E00E9486
:104180006521C7010E94A61C14CE82E090E00E9427
:10419000A61C8D3009F002CF073C10F416EB01C0CD
:1041A00016E5612F83E290E00E94A41C8091F0014B
:1041B000882321F0612F83E20E94D6148091370278
:1041C000909138029A83898340E150E060E070E08A
:1041D000CE0101960E94132A673510F417E001C042
:1041E00017E4612F85E090E00E94A41C8091F0010B
:1041F000882309F4D3CE612F85E00E94D614CECE59
:104200000E94C921CBCE87EC91E0D7CD28960FB67E
:10421000F894DEBF0FBECDBFDF91CF911F910F91FC
:10422000FF90EF90DF90CF9008950E94381A81118F
:104230000C94A81C08950F931F93CF93DF930097BE
:10424000B9F0EC01FC0101900020E9F731978F01F2
:10425000081B190B87EB93E00E94B514811108C06D
:10426000602FCE01DF91CF911F910F910C941C24F0
:1042700080E090E0DF91CF911F910F910895CF934F
:10428000DF931F92CDB7DEB7898387EB93E00E945F
:10429000B514811106C061E0CE0101960E941C2474
:1042A00002C080E090E00F90DF91CF910895CF930E
:1042B000DF930E947523EC018EEC91E00E94752340
:1042C0008C0F9D1FDF91CF9108950F931F93CF9374
:1042D000DF938C01C0E0D0E0F801EC0FFD1F64918A
:1042E000662341F08DE492E00E94421A892B11F07E
:1042F0002196F2CFCE01DF91CF911F910F910895BA
:10430000E0E9F2E09491ECE7F2E02491E8E6F2E0F3
:10431000E491EE2309F43CC0992339F1933091F0F4
:1043200038F49130A9F0923001F594B59F7D12C018
:10433000973091F09830A1F09430B9F490918000CA
:104340009F7D03C0909180009F77909380000DC067
:1043500094B59F7794BD09C09091B0009F7703C03A
:104360009091B0009F7D9093B000F0E0EE0FFF1FA2
:10437000EB5AFD4FA591B4919FB7F894811104C0F9
:104380008C912095282302C0EC912E2B2C939FBF5B
:104390000895CF93DF930E946521EC018EEC91E0AC
:1043A0000E9475238C0F9D1FDF91CF9108952FB729
:1043B000F8948091440290914502A0914602B091F8
:1043C00047022FBF8093550290935602A093570245
:1043D000B09358028DE492E00E94221A97FF26C003
:1043E0002FB7F8948091440290914502A091460223
:1043F000B09147022FBF40915502509156026091F3
:10440000570270915802841B950BA60BB70B409175
:1044100051025091520260915302709154028417DC
:104420009507A607B707B0F28FEF9FEF08953FB744
:10443000F8948091490290914A02A0914B02B09168
:104440004C0226B5A89B05C02F3F19F00196A11D6F
:10445000B11D3FBFBA2FA92F982F8827820F911D1A
:10446000A11DB11DBC01CD0142E0660F771F881F61
:10447000991F4A95D1F708958F929F92AF92BF925C
:10448000CF92DF92EF92FF926B017C010E94172284
:104490004B015C01C114D104E104F104F1F00E946C
:1044A0001722DC01CB0188199909AA09BB09883EAA
:1044B0009340A105B10570F321E0C21AD108E108CB
:1044C000F10888EE880E83E0981EA11CB11CC1146F
:1044D000D104E104F10419F7DDCFFF90EF90DF90F4
:1044E000CF90BF90AF909F908F9008951F920F92A2
:1044F0000FB60F9211242F933F938F939F93AF93F7
:10450000BF938091440290914502A0914602B091E0
:1045100047023091480223E0230F2D3720F4019603
:10452000A11DB11D05C026E8230F0296A11DB11DD6
:10453000209348028093440290934502A093460240
:10454000B09347028091490290914A02A0914B0298
:10455000B0914C020196A11DB11D80934902909328
:104560004A02A0934B02B0934C02BF91AF919F912E
:104570008F913F912F910F900FBE0F901F90189524
:104580009F92AF92BF92CF92DF92EF92FF920F93E2
:104590001F93CF93DF9300D000D000D0CDB7DEB70C
:1045A000FC0124813581232B09F48DC08C0167E641
:1045B00071E0CE0101960E94B11AF80184819581C3
:1045C000C980DA80892B59F0E080F180B601C701FB
:1045D0000E94F52F009719F08E199F0902C08FEFE6
:1045E0009FEFF82EC6010E948A29FFEFFF1223C019
:1045F0006FEC71E0CE0101960E94B11AF80184813E
:104600009581C980DA80892B59F0E080F180B6016C
:10461000C7010E94F52F009719F08E199F0902C05B
:104620008FEF9FEFF82EC6010E948A29FFEFFF123D
:1046300002C0F801F4802A988FE70E94D010E12C84
:10464000EF1488F5CE2CD12CF801A480B580CA14C3
:10465000DB0448F480819181009729F0FC01EC0D86
:10466000FD1D808101C080E00E944C12982E929422
:1046700080EF982296012F5F3F4F2A153B0550F49B
:10468000F80180819181009729F0FC01E20FF31F6E
:10469000808101C080E00E944C12890D0E94D010E0
:1046A000E394E394CDCF2A9A18EC60EC85E30E9462
:1046B0001A11833141F461E070E080E090E00E94E3
:1046C0003C22115091F726960FB6F894DEBF0FBE2C
:1046D000CDBFDF91CF911F910F91FF90EF90DF90B1
:1046E000CF90BF90AF909F900895009769F0FC0124
:1046F00001900020E9F73197AF01481B590BBC012D
:104700008DE492E00C94E51980E090E008958F929A
:104710009F92AF92BF920F931F93CF93DF93CDB72A
:10472000DEB7A1970FB6F894DEBF0FBECDBF19A2BA
:10473000423008F44AE08E010F5D1F4F842E912C09
:10474000A12CB12CA50194010E94742DE62FB90172
:10475000CA0101501109EA3014F4E05D01C0E95CBE
:10476000D801EC93232B242B252B61F7C8010E9441
:104770007523A1960FB6F894DEBF0FBECDBFDF91B3
:10478000CF911F910F91BF90AF909F908F90089500
:10479000AB01682F4115510521F48DE492E00C9492
:1047A000421A70E080E090E00C948723682F8DE43B
:1047B00092E00C94421ACF92DF92EF92FF92CF9345
:1047C000DF936115710559F4682F8DE492E0DF9154
:1047D000CF91FF90EF90DF90CF900C94421A6C0134
:1047E000990FEE08FF086A307105D9F4F7FE17C07B
:1047F0008DE20E94D623EC0166277727CB016C1946
:104800007D098E099F094AE00E9487238C0F9D1F16
:10481000DF91CF91FF90EF90DF90CF9008954AE025
:1048200001C0462FC701B601DF91CF91FF90EF90F5
:10483000DF90CF900C9487230F931F93CF93DF9338
:10484000462FC091B703D091B803E091B903F0911E
:10485000BA032091BB033091BC03890115950795DC
:1048600020FF0BC09E01200F311FD9012D913C91DB
:10487000E20FF31F0190F081E02DBC01CE01800F0B
:10488000911FDF91CF911F910F9109940C94752383
:10489000CF93DF93CDB7DEB72A970FB6F894DEBF7C
:1048A0000FBECDBF789484B5826084BD84B581602D
:1048B00084BD85B5826085BD85B5816085BD8091EB
:1048C0006E00816080936E00109281008091810063
:1048D000826080938100809181008160809381005B
:1048E000809180008160809380008091B10084601D
:1048F0008093B1008091B00081608093B00080917E
:104900007A00846080937A0080917A00826080933C
:104910007A0080917A00816080937A0080917A0099
:10492000806880937A001092C100E0915D02F0915E
:104930005E0282E08083E0915D02F0915E0210826F
:10494000E0915902F0915A021082E0915B02F091DD
:104950005C0280E1808310926502E0916102F09137
:10496000620286E08083E0915F02F09160028081C4
:1049700080618083E0915F02F091600280818860B5
:104980008083E0915F02F091600280818068808383
:10499000E0915F02F091600280818F7D8083529868
:1049A000219A259A239A2498229A80E58CBD2A9AE6
:1049B0002D9A2B98529853982D9A2B9880E090E03E
:1049C0000E94A61C833309F0EDC281E090E00E94B2
:1049D000A61C8D3109F0E6C28FEF90E00E94A61C64
:1049E000982F91709093F10281FB992790F9909301
:1049F000EF0282FB992790F99093F00283FB8827BE
:104A000080F98093F2020E94F3110E9454118150A8
:104A100091E08E3F08F090E09093F0011E821D829D
:104A20008E3F98F483EC9BE19C838B838B819C81EC
:104A3000AD81BE818093B3039093B403A093B5037B
:104A4000B093B6038AE491E112C083EC9BE19C83AE
:104A50008B838B819C81AD81BE818093B3039093C6
:104A6000B403A093B503B093B60388EF9FE090938F
:104A7000B2038093B103539A62E370E080E090E068
:104A80000E943C2280E1809381001092800082E0AD
:104A90008093EF0181E09DE79093EE018093ED011B
:104AA000909387008093860082E1809381008AED55
:104AB0009BE19093EC018093EB0181E080936F0088
:104AC0001E821D828FEB9BE19C838B838B819C815B
:104AD000AD81BE818093B9039093BA03A093BB03C9
:104AE000B093BC0385EC9BE19093B8038093B7032C
:104AF0008091F001882309F46BC20E943A11811160
:104B000067C280E991E0A0E0B0E080935102909309
:104B10005202A0935302B093540272E0872E912C5C
:104B2000A12CB12C66246394E7E07E2EF3E0CF2E17
:104B3000D12C80910B01833009F0BAC18091BE0362
:104B4000882309F42CC28091BE0381508093BE0358
:104B50008091C0036091BD030E94E72D9093C00334
:104B6000E091C00381E08E0F8093C003F0E0EE0F70
:104B7000FF1FEF53FC4F808191819093F30180934D
:104B8000F201109201036091FE02662391F070E041
:104B90006150710980E193E00E9460128091960358
:104BA000880F990B85569C4F90930F0380930E03AB
:104BB00004C010920F0310920E034091F201509125
:104BC000F301E0910C03F0910D0351834083909128
:104BD000FE02992379F0E0910E03F0910F033097D4
:104BE00049F02081318124273527232F221F2227B6
:104BF000221F01C021E031E09E3F09F430E081E056
:104C0000411553480CF480E0832311F0211132C088
:104C10000E94790180910103811104C08091AE034B
:104C20008823B1F08091FE028823D1F0E0910E0339
:104C3000F0910F033097A1F0A0910C03B0910D03F8
:104C40002D913C91808191818227932797FD08C007
:104C50008EEE92E00E945F1310920F0310920E03EB
:104C60008091FE028E3F91F560E070E0CB010E94E2
:104C70003C222CC0983251F5D0920703C092060313
:104C800081EB93E00E94B514811120C02091B10303
:104C90003091B203E091B303F091B4034091B503B6
:104CA0005091B603CA019595879540FF0AC0D90176
:104CB000A80FB91F4D915C91E40FF51F0190F08191
:104CC000E02D820F931F09958093B003E0900C03B1
:104CD000F0900D03D7010D911C91B80117FF04C08E
:104CE00066277727601B710B072E000C880B990B2A
:104CF0000E94312C2DEC3CEC4CE45EE30E94902CA5
:104D00000E94BB2E9B017093050360930403609186
:104D1000AB03EBE9F3E0512C6515C1F08191919162
:104D2000A8014827592757FD0FC0009769F0A8012F
:104D3000481B590BCA0157FF03C0919581959109F2
:104D4000281739070CF047C15394E6CF6830E1F5D6
:104D500040E060E08EEE92E00E94E412E091AC034D
:104D6000F0E0E251FD4F8681833040F00E947901EE
:104D700040E060E08EEE92E00E94E4121091FE02AC
:104D80001150E091AC03F0E0E251FD4F86818823A1
:104D9000D9F08091FE028823B9F0612F70E080E1A4
:104DA00093E00E94601220919603022E000C330BB8
:104DB0008091AC0390E02817390711F761E0610F8B
:104DC0008EEE92E00E94A4135090AC03E0910C038D
:104DD000F0910D0380819181E52DF0E0EE0FFF1F32
:104DE000E556FC4F9183808381E0850D883019F072
:104DF0008093AC0306C01092AC038093AB03109277
:104E0000AE038091AC039091AB03981710F480939C
:104E1000AB03352D209194038091900390919103E1
:104E20002730B9F418161906A4F4E0918F036E2FF9
:104E300070E04091950350E04150510964177507A7
:104E40000CF0F8C0EF5FE0938F03F0E0E251FD4F0C
:104E500012A2A09192034A2F50E0622F70E06F5F80
:104E60007F4F641B750B161617062CF4352D01C0E9
:104E7000330F6A95EAF7E0918F03F0E0E251FD4FBE
:104E800062A1362B32A301969093910380939003F5
:104E9000622F022E000C770BFB01E41BF50BF7FDD4
:104EA00004C02A1B20939403B9C070929403B6C027
:104EB0004A9B75C08091F1010E94802160EC8BE3D8
:104EC0000E941A11582E882309F469C00E944A11C1
:104ED000382E57FC4DC0F0E4F51510F490E4592E2F
:104EE0002A988FEF0E94D01084EFE82E81E0F82EF0
:104EF000870122242394412C80E00E94D010D80105
:104F00009C91891711F08C93212C43940F5F1F4FB4
:104F1000451490F32A9A80910B01823019F42110E4
:104F200027C002C0893039F082E00E94D62388EE83
:104F300090E00E94652110E0F70181917F010E94BD
:104F4000C6141F5F1515C0F384EE90E00E94652122
:104F50006AE070E0832D0E94C82387E691E00E94FA
:104F6000462483E00E94D6238FEC91E00E944624E1
:104F700060EC85E30E941A11813121F080910B01D0
:104F800081110DC086E30E946E11882341F08DE3EC
:104F90000E9481118AE30E9481110E94CA110E941D
:104FA0001521C7CD6FE08FEF90E00E94A41C80EC2C
:104FB00090E00E94C92163E380E090E00E94A41C7D
:104FC0006DE181E090E00E94A41C0E94AB1004CD32
:104FD0000E94E01196CD57FCB9CE052D000F110BA4
:104FE00005561C4FD8016D917C919B01770F440BA6
:104FF000550BD7018D919C91092E000CAA0BBB0B70
:10500000280F391F4A1F5B1FCA01B901A50194016E
:105010000E941B2EF80131832083FBCE8093FE0279
:105020001092020380910103882309F487CD6092D6
:10503000F10184CD60E070E0CB010E943C228EE65D
:1050400091E00E941B218FE791E00E941B2180913B
:10505000FF020E943F2188E891E00E941B2180917D
:1050600000030E943F218FE891E00E941B21852DC3
:105070000E943F2185E991E00E941B218091FE0260
:105080000E943F218EE991E00E941B2180918F03B5
:105090000E943F2185EA91E00E941B2180919003AC
:1050A0000E943F218CEA91E00E941B218091020323
:1050B0000E943F2185EB91E00E941B218091060315
:1050C0000E943F218DEB91E00E941B218091010302
:1050D0000E943F218AE00E943F21A4CFCF93DF931B
:1050E000EDE4F2E01382128288EE93E0A0E0B0E0FB
:1050F00084839583A683B7838BE191E0918380833A
:1051000085EC90E09587848784EC90E0978786878C
:1051100080EC90E0918B808B81EC90E0938B828B84
:1051200082EC90E0958B848B86EC90E0978B868B5D
:10513000118E128E138E148EEDEBF3E08AE58083D0
:10514000118213821282CEEED2E088E093E09F8F2C
:105150008E8F19A218A28FE78093950384E0809325
:1051600092031AA210928F0310929103109290034F
:1051700087E08093940380EF809393031092B003B1
:105180001092B2031092B1031092B4031092B303C1
:105190001092B6031092B5031092B8031092B703A1
:1051A0001092BA031092B9031092BC031092BB0381
:1051B0001B8E1A8ECE010E945F1381E18093AF0394
:1051C0001D8281E08C831F861E860E9417226093B9
:1051D000EA027093EB028093EC029093ED02DF9170
:1051E000CF9108950F931F93CF93DF938230910552
:1051F00010F482E090E0E0917704F091780420E0F0
:1052000030E0A0E0B0E0309719F140815181028197
:10521000138148175907C8F08417950769F4109748
:1052200031F012960C93129713961C9327C000939B
:1052300077041093780422C02115310519F0421724
:10524000530718F49A01BD01EF01DF01F801DBCF2C
:1052500021153105F9F0281B390B2430310580F474
:105260008A819B816115710521F0FB019383828303
:1052700004C09093780480937704FE01329644C072
:10528000FE01E20FF31F819391932250310939837C
:1052900028833AC02091750430917604232B41F481
:1052A00020910F0130911001309376042093750402
:1052B00020910D0130910E012115310541F42DB7DA
:1052C0003EB74091110150911201241B350BE09122
:1052D0007504F0917604E217F307A0F42E1B3F0B40
:1052E0002817390778F0AC014E5F5F4F2417350758
:1052F00048F04E0F5F1F50937604409375048193DE
:10530000919302C0E0E0F0E0CF01DF91CF911F91D7
:105310000F910895CF93DF93009709F481C0FC01AA
:10532000329713821282A0917704B091780410977B
:1053300081F420813181820F931F20917504309177
:1053400076042817390751F5F0937604E093750435
:1053500067C0ED0120E030E0CE17DF0740F44A815E
:105360005B819E0141155105F1F0EA01F5CFD38330
:10537000C28340815181840F951FC817D90759F402
:1053800088819981840F951F0296918380838A81F9
:105390009B81938382832115310529F4F09378044E
:1053A000E09377043DC0E901FB83EA834991599179
:1053B000C40FD51FEC17FD0761F480819181840F24
:1053C000951F0296E90199838883828193819B834B
:1053D0008A83E0E0F0E012968D919C9113970097FC
:1053E00019F0FD01DC01F7CF8D919C9111979D0182
:1053F0002E5F3F4F820F931F2091750430917604EA
:105400002817390769F4309729F41092780410921C
:10541000770402C013821282B0937604A0937504BD
:10542000DF91CF910895A0E0B0E0E9E1FAE20C94B9
:10543000A22D5C016B017A016115710519F0FB0168
:1054400091838083E114F10429F0C70102978397C7
:1054500008F0E5C0E5012196F5011081812F90E06B
:105460000E941E2C892B11F05E01F4CF1D3229F40D
:105470002196F501118101E007C01B3221F4E501FD
:105480002296F501118100E0E114F10409F1F0E147
:10549000EF16F10429F43FC010E3E114F10421F107
:1054A00028E0E216F10401F154F4E2E0EE16F10412
:1054B00021F5812C912CA12CB0E4BB2E3EC0FAE04A
:1054C000EF16F10439F020E1E216F104B1F430C036
:1054D000103319F1FAE0EF2EF12CACEC8A2E982C57
:1054E000A82CACE0BA2E29C078E0E72EF12C812C54
:1054F000912CA12CE0E1BE2E20C060E070E080E0A5
:1055000090E897010F2C000C440B550B0E94742D52
:1055100049015A0112C0103359F488818F7D8835B2
:1055200009F0BACF19812296026080E1E82EF12CB1
:10553000812C912CA12C68E0B62E40E060E070E058
:10554000CB0127010F2C000C66087708FE0150EDF7
:10555000352E310E29E0231570F42FEB210F2A315F
:1055600018F439EC332E06C02FE9210F2A3118F533
:1055700029EA322E310E232D30E02E153F05DCF4C2
:1055800047FD16C086169706A806B90670F0A30157
:1055900092010E94642D630D711D811D911D61306A
:1055A0007105810520E8920710F04FEF01C041E03E
:1055B00021961081CBCF202F2170C114D10471F01E
:1055C000442329F02197F601D183C08307C001FF4E
:1055D00019C02297F601D183C08314C047FF12C0BF
:1055E000222329F060E070E080E090E804C06FEFD3
:1055F0007FEF8FEF9FE722E230E030937A04209331
:10560000790409C0222381F0909580957095619569
:105610007F4F8F4F9F4F462F372F282F12C040E0CC
:1056200030E020E090E00DC097FFF5CF82E290E0FF
:1056300090937A04809379046FEF7FEF8FEF9FE769
:10564000EACF642F732F822FCDB7DEB7E1E10C9440
:10565000BE2DA0E0B0E0EFE2FBE20C94A22D5C01D5
:105660006B017A016115710519F0FB01918380834B
:10567000E114F10429F0C7010297839708F0C9C02B
:10568000E5012196F5011081812F90E00E941E2CEA
:10569000892B11F05E01F4CF1D3229F42196F5011A
:1056A000118101E007C01B3221F4E5012296F501CA
:1056B000118100E0E114F104B1F0F0E1EF16F10422
:1056C00029F4B0C010E3E114F10401F12AE0E2167C
:1056D000F104B1F180E1E816F10471F0E8E0EE16B2
:1056E000F104F1F413C0103341F588818F7D8835C2
:1056F00049F7198122960260F0E1EF2EF12C8824FF
:105700008A94982CA82CAFE0BA2E20C078E0E72E1F
:10571000F12C88248A94982CA82CEFE1BE2E16C078
:105720006FEF7FEFCB0197010F2C000C440B550B53
:105730000E94742D49015A0109C08AE0E82EF12C1B
:1057400069E9862E982CA82C69E1B62E40E060E02D
:1057500070E0CB0127010F2C000C66087708FE01D2
:1057600050ED352E310E29E0231570F42FEB210F6B
:105770002A3118F439EC332E06C02FE9210F2A31D3
:1057800030F529EA322E310E232D30E02E153F055B
:10579000F4F44F3FC9F086169706A806B90688F0BC
:1057A000A30192010E94642D232D30E040E050E0DF
:1057B000620F731F841F951F621773078407950775
:1057C00010F44FEF01C041E021961081C8CFC11401
:1057D000D10451F0442311F0219703C001FF04C00C
:1057E0002297F601D183C08300FF07C09095809572
:1057F000709561957F4F8F4F9F4F4F3F79F482E2B5
:1058000090E090937A04809379043FEF2FEF9FEF1D
:105810000DC040E030E020E090E008C0462F372F78
:10582000282F04C0103309F067CF5FCF642F732F88
:10583000822FCDB7DEB7E1E10C94BE2D91110C940F
:10584000272C803219F089508550C8F70895992780
:10585000882708950E946C2C08F481E00895E8944C
:1058600009C097FB3EF490958095709561957F4FA8
:105870008F4F9F4F9923A9F0F92F96E9BB27939556
:10588000F695879577956795B795F111F8CFFAF466
:10589000BB0F11F460FF1BC06F5F7F4F8F4F9F4F97
:1058A00016C0882311F096E911C0772321F09EE8F5
:1058B000872F762F05C0662371F096E8862F70E05B
:1058C00060E02AF09A95660F771F881FDAF7880F35
:1058D0009695879597F90895990F0008550FAA0B8B
:1058E000E0E8FEEF16161706E807F907C0F01216F3
:1058F0001306E407F50798F0621B730B840B950BF6
:1059000039F40A2661F0232B242B252B21F408954A
:105910000A2609F4A140A6958FEF811D811D0895E7
:105920000E94A32C0C94142D0E94062D38F00E9486
:105930000D2D20F0952311F00C94FD2C0C94032DCB
:1059400011240C94482D0E94252D70F3959FC1F3CE
:10595000950F50E0551F629FF001729FBB27F00D1D
:10596000B11D639FAA27F00DB11DAA1F649F662772
:10597000B00DA11D661F829F2227B00DA11D621FC1
:10598000739FB00DA11D621F839FA00D611D221F7B
:10599000749F3327A00D611D231F849F600D211D5F
:1059A000822F762F6A2F11249F5750409AF0F1F0E2
:1059B00088234AF0EE0FFF1FBB1F661F771F881F4B
:1059C00091505040A9F79E3F510580F00C94FD2C5A
:1059D0000C94482D5F3FE4F3983ED4F38695779579
:1059E0006795B795F795E7959F5FC1F7FE2B880FF1
:1059F000911D9695879597F9089597F99F6780E887
:105A000070E060E008959FEF80EC089500240A9410
:105A10001616170618060906089500240A94121689
:105A20001306140605060895092E0394000C11F4BC
:105A3000882352F0BB0F40F4BF2B11F460FF04C069
:105A40006F5F7F4F8F4F9F4F089557FD9058440FC2
:105A5000551F59F05F3F71F04795880F97FB991FCD
:105A600061F09F3F79F0879508951216130614068A
:105A7000551FF2CF4695F1DF08C016161706180617
:105A8000991FF1CF86957105610508940895E894F2
:105A9000BB2766277727CB0197F90895F999FECFA1
:105AA00092BD81BDF89A992780B50895262FF9995E
:105AB000FECF1FBA92BD81BD20BD0FB6F894FA9AF1
:105AC000F99A0FBE01960895DB018F939F930E9470
:105AD000962DBF91AF91A29F800D911DA39F900D18
