:100000000C94C5000C94DE1B0C94B71B0C94ED00F3
:100010000C94ED000C94ED000C94ED000C94ED00AC
:100020000C94ED000C94ED000C94ED000C94ED009C
:100030000C94ED000C94B7190C94ED000C94ED00A9
:100040000C946D1B0C94ED000C942B1C0C94051C53
:100050000C94ED000C94ED000C94ED000C94ED006C
:100060000C94ED000C94ED00746F206C6F6E6720A3
:1000700000636F72727570740073656E6420636DD7
:1000800064200000000000250028002B0004040468
:100090000404040404020202020202030303030331
:1000A000030102040810204080010204081020010E
:1000B00002040810200000000800020100000304F0
:1000C000070000000000000000436F6D6D616E646A
:1000D00020746F206C6F6E673A20004D43004D55C1
:1000E000003B003D004D530020626974732073652E
:1000F0007400556E737570706F72746564207368E8
:100100006F727420636F6D6D616E6400202D2063CB
:100110006F6D70696C656420617420536570203167
:100120003520323032302030393A30343A333300EF
:100130005620332E352E302D6465765F32303230C6
:10014000303931345F7636205349474E414C64751F
:10015000696E6F2000200020557365206F6E65204A
:100160006F662000496E697420656570726F6D203E
:10017000746F2064656661756C7473206166746564
:100180007220666C61736800272011241FBECFEFB8
:10019000D8E0DEBFCDBF11E0A0E0B1E0EAEFFDE4C2
:1001A00002C005900D92AA37B107D9F723E0AAE75C
:1001B000B1E001C01D92A03DB207E1F710E0C5EC2F
:1001C000D0E004C02197FE010E94FA25C43CD1076B
:1001D000C9F70E941C1D0C94FB260C9400002F9262
:1001E0003F924F925F926F927F928F929F92AF92C7
:1001F000BF92CF92DF92EF92FF920F931F93CF9314
:10020000DF93CDB7DEB7C354D1090FB6F894DEBF84
:100210000FBECDBF8091030320915302811104C012
:10022000283210F40C94140D1092560291E02E3FD7
:1002300009F090E09093580240E060E081113AC2EA
:1002400083E492E00E94FA11F12CAF2CB12C2091A2
:1002500000032F8B822F90E00197A816B9060CF0AF
:100260000EC1F501ED5BFD4FCF0106962681F3949B
:10027000222359F3EF2C9501220F331FA90140517E
:100280005D4F5A8F498F9C8F8B8F5E8F4D8F8091E2
:100290000003E816D0F68E2C912CB4016D5B7D4FD7
:1002A0001B01DB0116968C91882309F4E6C0E98DC9
:1002B000FA8DC080D1809401220F331F388F2F8B8D
:1002C000F901E051FD4F00811181C601802791277E
:1002D00097FDD3C04090EC025090ED026090EE028A
:1002E0007090EF02B80117FF04C066277727601BE4
:1002F000710B072E000C880B990B0E94EA23A301B7
:1003000092010E9449246F8F78A389A39AA3B60112
:10031000D7FE04C0662777276C197D09072E000CCD
:10032000880B990B0E94EA23A30192010E944924A1
:100330009B01AC016F8D78A189A19AA10E94012631
:1003400020E030E040E05FE30E9449240E946D26F7
:100350000C191D0917FF03C01195019511096017AC
:1003600071070CF48AC0D12CC12C81010A5F1F4F88
:1003700080915302D81608F048C0D8018C91C81655
:1003800008F043C06D2D70E085E692E00E94761182
:100390008091EB02082E000C990B8816990699F5AE
:1003A0008091E702482F50E0D89EC0011124FC0143
:1003B00023E0F695E7952A95E1F72091EA02E21706
:1003C00008F587709927FF27ED5BFD4F2091E80224
:1003D00030E0082E02C0359527950A94E2F7209563
:1003E00032A1232368E070E0641B750BDB01A81BBE
:1003F000B90BA50102C0440F551FAA95E2F7CA0127
:10040000822B82A3C394D394B3CFAB8DBC8D0C91BC
:10041000F1011681ED8DFE8DA081B1812F89388D7E
:1004200020513D4F6901F90180809180E02FF0E07B
:100430009F010E94F3252B013C01412F50E09A01BE
:10044000D4010E94F325640D751D861D971DE40FD0
:10045000F51F9F01FF0F440B550B0E94D425AD8D56
:10046000BE8D2D933C93100FEB8DFC8D1083D1012D
:1004700016961C92F60111821082E39408CF109216
:100480005C0210925B028FEF80934302F091530263
:10049000F98F2F2F30E03C8F2B8FB3E4CB2EB2E0BF
:1004A000DB2E10EF212E12E0312EE12CF12C0FEF7C
:1004B0001FEF4901330FAA08BB084F89E41608F063
:1004C00059C00F3F5FEF150701F5D1018D919C9148
:1004D00097FD1BC0F601668170E080E090E00E940D
:1004E000EA232B013C01C501B4010E94EA232BE75A
:1004F00034E14EE25EE30E9449249B01AC01C3015A
:10050000B2010E94A326181654F1D1018D919C913D
:1005100097FD26C0F801EE0FFF1FE051FD4F20812F
:10052000318182179307E4F4F601668170E080E080
:1005300090E00E94EA232B013C01C501B4010E9416
:10054000EA232BE734E14EE25EE30E9449249B015B
:10055000AC01C301B2010E94A32618160CF4870156
:10056000FFEFEF1AFF0A2FEFC21AD20A32E0230E72
:10057000311CA3CF0F3F4FEF140741F0009343020C
:1005800081E090E090935C0280935B0280915B023B
:1005900090915C02019709F091C0809146028823F6
:1005A00009F48CC06B8D7C8D663A71051CF4098D45
:1005B000085201C00DE71F89115076E0D72E1F3F6A
:1005C00009F475C0E12E012E000CFF08F701EE0FB3
:1005D000FF1FE051FD4F2081318137FF66C031950B
:1005E00021953109283672E437070CF05EC0E0919E
:1005F0004302EE0FFF0BE051FD4F0190F081E02D23
:10060000C901BF010E94AC256D32710508F04DC0D3
:10061000DE9EC001DF9E900D11248217930708F023
:1006200044C0F701ED5BFD4FF6806F2D70E080E078
:1006300090E00E94EA234B015C016091530270E05C
:1006400080E090E00E94EA232AE037ED43EA5DE390
:100650000E9449249B01AC01C501B4010E94E3231F
:1006600087FF23C081E08F1500F5E12CF12CE01607
:10067000E0F457019FEFA91AB90AB50185E692E0A7
:100680000E9476118091EB0218130C94600DB70153
:1006900085E692E00E9476119091EB0280914302F0
:1006A00098130C94600D0C94630D115088CF109327
:1006B000020304C083E492E00E94FA1180915B027D
:1006C00090915C02029709F0D2C180915302883266
:1006D00008F4CDC1809154028E5F8093550210E0E2
:1006E0006091550270E08091530290E00197681785
:1006F0007907ACF46F5F7F4F85E692E011110C949F
:10070000F50E0E9476119091EB02809102039813EE
:1007100011E0809155028E5F80935502E1CF10E089
:100720008091530290915502891710F480935502DD
:10073000409155026091540283E492E00E94FA11C4
:1007400060915402112371F08091550290E0861B54
:100750009109889794F481E090E090935C028093F3
:100760005B0285C1809153028E3F08F06AC190E020
:10077000861B910988970CF464C182E00E94BE1C1C
:1007800080914702882309F4A8C080E291E00E948A
:100790001A1D8BE30E94BE1CF12C80910003F816F9
:1007A00088F58F2D90E0FC01EE0FFF1FE051FD4F0B
:1007B000008111810115110519F1FC01ED5BFD4F5F
:1007C00086818823E9F08F2D17FF05C0806A119577
:1007D0000195110901C08068E02E07FD04C0A02F1B
:1007E000A068EA2E01C080610E94BE1C8E2D0E946E
:1007F000BE1C812F80680E94BE1C8BE30E94BE1C21
:10080000F394CBCF8091550280FF02C084E401C0F5
:1008100084E60E94BE1CE0915402E0FF19C0E15042
:10082000E0935402E6958091EA02E81728F4F0E09C
:10083000ED5BFD4F82A101C080E08F7080688F8BDF
:100840000E94BE1C809154028E5F8093540201C0AE
:100850001F8A1091540280915502811780F0E12F78
:10086000E6958091EA02E81728F4F0E0ED5BFD4F91
:10087000B2A1BF8B8F890E94BE1C1E5FECCF83E2AA
:1008800091E00E941A1D8091430260E170E0082E01
:10089000000C990B0E94C31C86E291E00E941A1D75
:1008A0008091020360E170E0082E000C990B0E9419
:1008B000C31C8BE30E94BE1C0E94041D81118AC0D0
:1008C00082E50E94BE1C60E170E0809105030E94F9
:1008D000B01C8BE30E94BE1C7DC089E291E00E94A7
:1008E0001A1D10E080910003181750F5212F30E0F9
:1008F000C901880F991FFC01E051FD4F7F018081E4
:100900009181892BD9F0F901ED5BFD4F8681882318
:10091000A9F080E50E94BE1C6AE070E0812F0E9471
:10092000B01C8DE30E94BE1C6AE070E0D7018D917F
:100930009C910E94C31C8BE30E94BE1C1F5FD2CF00
:1009400084E591E00E941A1D109154028091550295
:10095000811788F0612F70E085E692E00E947611A1
:100960008091EB026AE070E0082E000C990B0E9467
:10097000C31C1F5FEBCF8DE291E00E941A1D809196
:1009800043026AE070E0082E000C990B0E94C31C21
:1009900082E391E00E941A1D809102036AE070E0F8
:1009A000082E000C990B0E94C31C8BE30E94BE1CF6
:1009B0000E94041D81110DC087E391E00E941A1D61
:1009C0006AE070E0809105030E94B01C8BE30E94F6
:1009D000BE1C1F8A80915802882321F08AE391E08F
:1009E0000E941A1D10925702609155028091530285
:1009F00090E0861B91098897D4F080914802882363
:100A0000B1F08150809348026F5F83E492E00E94CE
:100A10008916109254028DE60E94BE1C6AE070E0B6
:100A2000809148020E94B01C8BE30E94BE1C83E0B0
:100A30000E94BE1C8AE00E94BE1C81E08093560288
:100A400017C0662369F08091550290E08D3F9105B3
:100A50003CF083E492E00E9489161092540207C091
:100A600083E492E00E94751281E0809356021F8A0F
:100A7000809156028111B8C680914402B09145021E
:100A8000B8AB811103C0BB2309F4CEC7E8A9EE239C
:100A900009F4AAC68091510290915202892B39F52E
:100AA00085E490E00E94AB20FC0182E380AF81E00E
:100AB00085AB108212AA14AA13AA87E087AB80E83C
:100AC00086AB8FEF84AF85AF86AF87AFDF01AD5BBD
:100AD000BF4F1C9211961C9283E492E093AF82AFB9
:100AE00014971D921C92F0935202E0935102809150
:100AF0000303882311F10091510210915202D80191
:100B0000DA96ED91FC91DB97148A118ADA96ED91D1
:100B1000FC91DB97E054FF4F1082512C5801B4E454
:100B2000AB0EB11C442443943801E2E46E0E711CF8
:100B30001801F3E42F0E311C95C120905102309022
:100B400052028FEFD101DC968C93DC97DD968C936B
:100B5000DD97DF968C93DF97DE968C93DE97F1011D
:100B6000ED5BFF4F10823196108234971182108214
:100B7000F101108212AA14AA13AA87E087ABEE5BD8
:100B8000FF4F809104038083DA960D911C91DB97CF
:100B9000F801E354FF4FF080B3E0BF1508F024C61E
:100BA000F801608970E080E090E00E94EA232AE08A
:100BB00037ED43E25DE30E9449244B015C0120E0F4
:100BC00030E0A9010E94A32620E030E040E05FE38E
:100BD00087FD05C0C501B4010E94012604C0C501FE
:100BE000B4010E9400260E946D265801F6E0AF0E67
:100BF000B11CF801E355FF4F1DA270E0D5018D91A6
:100C00005D01861770F1EDA08E2D90E0EE20F1F0E1
:100C10009E01280F391FD901DC9098012D0D311D3F
:100C20002D0D311D23553F4F40815181D9012D910B
:100C30003C914217530754F421E030E02C0F3D1F44
:100C4000820F931FDC01DC92EA94DECF21E030E0DA
:100C50002C0F3D1F820F931FDC017C93BDA1BF5F52
:100C6000BDA37F5F3296F712C9CFFE013196FA8B92
:100C7000E98BFFA7EEA740910A0150910B0160910B
:100C80000C0170910D014FAB58AF69AF7AAFB10154
:100C90006E5B7F4F7CAF6BAFC1018D5B9F4F9FA39E
:100CA0008EA3D101AC5BBF4F2496BFAFAEAF2497EC
:100CB0003C96FE8BED8BF9892296FFAF22978EA58D
:100CC0008F1B3DA1831708F08FC5D101DA964C9197
:100CD000DA97DB963C91DB97EEA5FFA52191FFA764
:100CE000EEA7842F932F820F911D820F911DFC017F
:100CF000E355FF4F8081918118161906E4F68FEFB6
:100D0000DC968C93DC97DD968C93DD97DF968C9345
:100D1000DF97DE968C93208131813A8F298FB9013C
:100D2000330F880B990B0E94EA2369AB7AAB8BAB2C
:100D30009CAB2DEC3CEC4CE45EE30E9449240E9409
:100D40006D267EAF6DAF898D9A8D97FD0196AC01B2
:100D50005595479521965FAF4EAF2197BE016F5FC6
:100D60007F4F7BA76AA719A68FEF9FEF9CA38BA34A
:100D700018A6DE011996BC8BAB8B4E01B1E18B0E30
:100D8000911CEAA5FBA5D190FBA7EAA7D101DA96B1
:100D90003C91DA97DB962C91832F922F8D0D911D2C
:100DA0008D0D911DFC01E355FF4F008111817801EC
:100DB00017FF04C0EE24FF24E01AF10A21968EAD3D
:100DC0009FAD21978E199F0997FF03C0919581953B
:100DD0009109EDADFEADE817F907D4F42DEC3CEC2C
:100DE0004CEC5EE369A97AA98BA99CA90E944924CD
:100DF0000E946D26898D9A8D8E199F0997FF03C0D9
:100E0000919581959109681779070CF068C617C00C
:100E1000101611060CF0D9C7D101DE96DC92F8A5A8
:100E2000FF5FF8A72BA13CA1200F311F3CA32BA3F0
:100E3000D101DC968C91DC978F3F09F075C38AA5B0
:100E40002296EFAD22978E1BFDA18F1708F499CF44
:100E500032CFD5018C91882379F0F5018081811101
:100E60000DC15394D801DA96CD90DC90DB97F60152
:100E70008089581670F3A1C2E52CF12CB701C60188
:100E800082960E947611F601E855FF4F808190E02E
:100E9000F80124AD022E000C330B8217930739F0B2
:100EA00025AD022E000C330B82179307B1F6D80143
:100EB000DA96CD90DC90DB97B701C60182960E944E
:100EC0007611F601E855FF4F8080F80195AC81E07E
:100ED000891001C080E080937A01D801DA96CD9024
:100EE000DC90DB97B70161507109C60182960E94C0
:100EF0007611F601E855FF4F8081F5014082D80157
:100F0000DA96ED91FC91DB97518A552009F4B0C037
:100F100090E0891026C0DF962C91DF97022E000CFE
:100F2000330B8217930709F43FC0DA962D913C9159
:100F3000DB97FC01EE0FFF1FE20FF31FE355FF4F9E
:100F4000DC968C91A82FAA0FBB0BA20FB31FA35541
:100F5000BF4F208131818D919C912817390724F151
:100F600029C0F80126AD022E000C330B821793071F
:100F7000D9F022AD33ADFC01EE0FFF1FE20FF31FDE
:100F8000E355FF4FD801DD968C91A82FAA0FBB0B1C
:100F90002A0F3B1FD901A355BF4F208131818D916D
:100FA0009C918217930734F481E0891080E080934C
:100FB0007A0108C0D801DA96ED91FC91DB9781891E
:100FC0008F5F818B60917A01C8010E94B411FF2468
:100FD000FA94F50CB1E0BF1508F043C0F80182ACFB
:100FE00093ACCF2CD12CB601C40182960E9476110D
:100FF000F401E855FF4F808190E0D801DF962C91F5
:10100000DF97022E000C330B8217930741F0DE9618
:101010002C91022E000C330B8217930711F5F80167
:1010200082AC93ACB60161507109C40182960E94F2
:101030007611F401E855FF4F808190E0D801DF96EA
:101040002C91022E000C330B8217930709F4DAC59A
:10105000F80126AD022E000C330B8217930709F41A
:10106000D1C5D801DA96ED91FC91DB975188F5CE88
:1010700081E0891080E080937A01EFCED801DA9682
:10108000CD90DC90DB97E52CF12CB701C601829660
:101090000E947611F601E855FF4FC080D12CF8016F
:1010A00084AD082E000C990B82AC93ACC816D906FF
:1010B00009F42EC685AD082E000C990BC816D9066A
:1010C00009F426C6B7016F5F7F4FC40182960E9464
:1010D0007611F401E855FF4F208180917A0181114A
:1010E00019C0D801DA96ED91FC91DB97808990E0E8
:1010F0000297E816F9067CF5DF968C91DF97082EAB
:10110000000C990B8C159D0531F5422F50E0DE96B1
:101110008C911AC08130F9F4D801DA96ED91FC91E6
:10112000DB97808990E00297E816F906A4F4DE9632
:101130008C91DE97082E000C990B8C159D0559F4A7
:10114000422F50E0DF968C91082E000C990B481727
:10115000590709F426C1F3018081082E000C990B70
:10116000D801D3964D915C91D4974817590764F4F0
:10117000F1011082D5011C92F801108212AA14AA62
:1011800013AA27E027AB0DC1D801DA96ED91FC91A7
:10119000DB97528ADA96AD90BC90DB97BDEF5B127D
:1011A00013C0F501808990E00197E816F90661F413
:1011B000E054FF4F81E0808384E090E0D5015996B0
:1011C0009C938E93589775C0D801DC96EC91DC9770
:1011D000EE0FFF0BEA0DFB1DE355FF4F40815181E0
:1011E000F601EE0FFF1FEA0DFB1DE355FF4F608177
:1011F0007181F501808964177507E4F4682F70E048
:1012000061507109E616F706ACF4E22FF0E0DD96C6
:101210006C91DD97062E000C770BE617F70709F4A3
:10122000AFC5DE966C91062E000C770BE617F7071C
:1012300009F4A6C590E00297E816F906D4F5D8019E
:10124000DF968C91DF97082E000C990BC816D906F3
:1012500041F0DE968C91082E000C990BC816D90629
:1012600041F5C501820F911D820F911DFC01E355CF
:10127000FF4F8081918184179507DCF4B7016E5F81
:101280007F4FC50182960E947611F501E855FF4F08
:10129000808190E0F80124AD022E000C330B821700
:1012A000930709F043C581E0850D511068C55524A9
:1012B0005394652DD801DA968D919C91DB970E940D
:1012C0008916D801DA96ED91FC91DB97E054FF4F37
:1012D0008081811160C5F3018081082E000C990B7B
:1012E000D3962D913C91D497281739070CF453C508
:1012F00082E00E94BE1C8DE391E00E941A1DE091E5
:101300005102F0915202E4ADEE0FFF0BE051FD4FA0
:101310006AE070E0808191810E94C31C84E491E0C6
:101320000E941A1DE0915102F0915202E5ADEE0FBC
:10133000FF0BE051FD4F6AE070E0808191810E94D7
:10134000C31C89E491E00E941A1DE0915102F091C2
:101350005202E7ADEE0FFF0BE051FD4F6AE070E087
:10136000808191810E94C31C8EE491E00E941A1D2D
:10137000E0915102F0915202E6ADEE0FFF0BE05109
:10138000FD4F6AE070E0808191810E94C31C83E57B
:1013900091E00E941A1DE0905102F0905202D12C6F
:1013A00048C05394D5018C91882309F45ACD60919B
:1013B0007A01C8010E94B41154CDF601528AA801E5
:1013C0004E5B5F4FD801D3962D913C91D497BEEFE1
:1013D0005B1220C0FA01808187FD8F5F8595082E02
:1013E000000C990BD801DA96ED91FC91DB978217EE
:1013F000930754F4DF01A054BF4F81E08C9384E045
:1014000090E0918F808FC7C4CF0180549F4FDC0143
:101410001C92148AFA018081082E000C990B64CF6B
:10142000D216A0F4F701E00FF11F80810E94AE17E1
:10143000D3940D2D10E0D701D2968C91D29790E0E5
:10144000D8962C91081719075CF302C080E0EECF04
:10145000D21628F4F701E00FF11F808101C080E06F
:1014600082958F7060E170E090E00E94C31CF701EC
:1014700023A934A9C90168E070E00E94C02505973E
:1014800024F427703327232B89F4D701D8968C9125
:10149000D81628F4F701E00FF11F808101C080E029
:1014A0008F7060E170E090E00E94C31C87E591E0DE
:1014B0000E941A1DE0915102F0915202E05CFF4F30
:1014C0006AE070E0808191810E94C31C8BE591E00D
:1014D0000E941A1DE0915102F09152026AE070E000
:1014E00083A994A90E94C31C8BE30E94BE1C0E9486
:1014F000041D81110DC087E391E00E941A1D6AE06E
:1015000070E0809105030E94B01C8BE30E94BE1C1A
:1015100083E00E94BE1C8AE00E94BE1C109203035E
:1015200081E08093560260C1DF968C91DF978F3FF8
:1015300009F485CCDD968C91DD978F3F09F47FCC43
:10154000DE968C918F3F09F47ACC2FA938AD49AD46
:101550005AAD2D873E874F87588B29873A874B870F
:101560005C8741E050E05DA74CA7A12CB12C1FEF98
:10157000D101DA96ED90FC90DB97F701808990E03D
:10158000A816B9060CF05BCCB501C70182960E9483
:101590007611F701E855FF4F0081802F90E0D101CF
:1015A000DC962C91DC97022E000C330B82179307EC
:1015B00009F49CC2DD962C91022E000C330B82178D
:1015C000930709F493C2D101DF962C91022E000CEF
:1015D000330B8217930709F489C2F10126AD022E5D
:1015E000000C330B8217930709F480C2D101DA96FD
:1015F000ED91FC91DB9781899501281B3109ABADF9
:10160000BCAD8C91082E000C990B821793070CF03F
:10161000A8C2A28AF10182AD93ADDC0152964C9131
:10162000529751966C910E94FA11D101DA96ED9180
:10163000FC91DB97DE96BC91BB8FD101DD96BC910E
:10164000BD8FD101DF960C91DF97DC96BC91BF8FE7
:10165000DF012B8DA20FB11D27FDBA9516968C9137
:10166000DF013D8DA30FB11D37FDBA951696CC90C5
:10167000D12CC80ED11CDF01A00FB11D07FDBA95FA
:1016800016968C91C81AD108DF014F8DA40FB11D99
:1016900047FDBA9516968C91AEA1BFA11C92C81AAF
:1016A000D108D7FE03C0D194C194D1080D2C000CF1
:1016B000EE08FF088089E82FF0E0FEABEDABBF013C
:1016C000FF0F880B990B0E94EA232AE037ED43E2D3
:1016D0005DE30E9449242B013C0120E030E0A90198
:1016E0000E94A32620E030E040E05FE387FD0BC2CC
:1016F000C301B2010E9401260E946D266C157D0572
:101700008E059F050CF49BCBF8A529A5F21397CB6A
:101710003D8D4F8D341709F492CB5B8D501709F432
:101720008ECB041709F48BCB531709F488CB5417CD
:1017300009F485CB301709F482CBDE011996FE013E
:101740003D9681919D918913E3C18E169F06C9F73D
:101750008F8D7B8D6AE0769F800D1124AD8D9AE090
:10176000A99F000D11248A3008F48C590A3008F41E
:101770000C59AE01475F5F4FFE013D966F01E82EA9
:10178000F12C602F70E0D6018D916D01082E000CB8
:10179000990B8E159F0509F047C3CE010996FE01EE
:1017A0003D962191022E000C330B2617370709F0C6
:1017B00044C3E815F90509F050C380E0C814D90402
:1017C00009F4ACC14F5F5F4F8111DDCFF101E05CE7
:1017D000FF4F8BA19CA166E070E00E94C025718341
:1017E0006083F8A9F11187C980914402882309F424
:1017F0001BC180910303811117C180915B029091FD
:101800005C02019709F010C18091560281114BC111
:1018100080915302883208F40BC182E00E94BE1C02
:1018200080914702882309F477C08FE591E00E94F8
:101830001A1D40E060E083E492E00E94FA11F12C6E
:1018400080910003F81688F58F2D90E0FC01EE0FD3
:10185000FF1FE051FD4F008111810115110519F1A4
:10186000FC01ED5BFD4F86818823E9F08F2D17FF8A
:1018700005C0806A11950195110901C08068E02EAC
:1018800007FD04C0B02FB068EB2E01C080610E943C
:10189000BE1C8E2D0E94BE1C812F80680E94BE1C23
:1018A0008BE30E94BE1CF394CBCF8091530280FF48
:1018B00005C084E60E94BE1C10E010C084E4FACF8C
:1018C0008091EA02181730F4E12FF0E0ED5BFD4F54
:1018D00022A12F8B8F890E94BE1C1F5F8091E40282
:1018E000811770F783E291E00E941A1D80914302F4
:1018F00060E170E0082E000C990B0E94C31C8BE382
:101900000E94BE1C0E94041D81117BC082E50E94C2
:10191000BE1C60E170E06EC083E691E00E941A1D7B
:1019200040E060E083E492E00E94FA1110E08091D0
:101930000003181758F5212F30E0C901880F991FAF
:10194000AC0140515D4F7A01DA018D919C91892B58
:10195000D9F0F901ED5BFD4F86818823A9F080E580
:101960000E94BE1C6AE070E0812F0E94B01C8DE3D3
:101970000E94BE1C6AE070E0F701808191810E94A4
:10198000C31C8BE30E94BE1C1F5FD1CF84E591E096
:101990000E941A1D10E080915302181788F4612FDD
:1019A00070E085E692E00E9476118091EB026AE099
:1019B00070E0082E000C990B0E94C31C1F5FEBCF38
:1019C0008DE291E00E941A1D809143026AE070E06E
:1019D000082E000C990B0E94C31C8BE30E94BE1CB6
:1019E0000E94041D81110DC087E391E00E941A1D21
:1019F0006AE070E0809105030E94B01C8BE30E94B6
:101A0000BE1C80915802882321F08AE391E00E9455
:101A10001A1D83E00E94BE1C8AE00E94BE1C109228
:101A2000570281E0809356028091560281113BC09B
:101A3000809157028823D9F140910003E0EFF2E052
:101A400080E090E020EDE22E27E0F22E841710F0E7
:101A500010E00CC0219131911216130624F42E15BA
:101A60003F050CF47C010196F1CF1F5F809153027A
:101A70001817C8F4F0EDEF16F7E0FF06A1F0612F9C
:101A800070E085E692E00E9476118091EB02082ECC
:101A9000000C990BE816F90641F76FEF610F83E42C
:101AA00092E00E948916809157028111DCC1109149
:101AB000560283E492E00E94751210935602D3C13D
:101AC00075010C9437031093020382E090E0909329
:101AD0005C0280935B02E09254020C945E03101649
:101AE00011060CF07EC1F101D5AE99C9D101DA968B
:101AF000ED91FC91DB97808990E00197A816B906DB
:101B000009F040C073CDC301B2010E940026F4CD9C
:101B10009F3F39F08F3F09F018CE03C0882309F4A6
:101B200055CE2DA93EA92A193B09EBADFCAD80810C
:101B3000082E000C990B821793070CF080C91D87A3
:101B400019871E871A871F871B87188B1C875FEFD3
:101B5000A51AB50A6CA57DA56F5F7F4F7DA76CA701
:101B600007CDAEA1BFA11C922496EEADFFAD249788
:101B7000108219871D871A871E871B871F871C875E
:101B8000188BE5CFAEA1BFA18C91811103C0A18AB2
:101B9000E1E0EC93D101DA96ED90FC90DB976CA537
:101BA0007DA5C70182960E947611F701E855FF4F87
:101BB0008081BAE00B9F800D11248A3008F48C5983
:101BC000A0FC03C02D899E8902C02B899C89E22F2D
:101BD000F92F90E0482F50E06081262F062E000C50
:101BE000330B2417350719F06F3F19F48083292F21
:101BF00001C02FEF9F5F943009F4A9CF31962F3F9A
:101C000059F3A5CFE0907A01D801DA968D909C9097
:101C1000DB97B1E0EB123AC0E2E0CE1AD108B60190
:101C2000C40182960E947611F401E855FF4F90811D
:101C3000D801DF968C91DF97981709F464C0DA9683
:101C40008D909C90DB97B601C40182960E9476111C
:101C5000F401E855FF4FA081AA0FBB0B8A0E9B1E13
:101C6000D401A355BF4FF80182AD93AD24ADE22F4F
:101C7000EE0FFF0BE80FF91FE355FF4F2D913C913D
:101C80008081918128173907F4F13AC0E11038C0FA
:101C9000F2E0CF1AD108B601C40182960E947611F3
:101CA000F401E855FF4F9081D801DE968C91DE97C4
:101CB000981749F1DA968D909C90DB97B601C40194
:101CC00082960E947611F401E855FF4FA081AA0F79
:101CD000BB0B8A0E9B1ED401A355BF4FF80182ADEA
:101CE00093AD25ADE22FEE0FFF0BE80FF91FE35583
:101CF000FF4F2D913C9180819181821793071CF0B9
:101D0000FA94FA9467C96E2DC8010E94B411F8CFF5
:101D1000F401808990E00197E816F9060CF0D2C929
:101D200080917A01842580937A013CCB25AD022EE7
:101D3000000C330B8217930709F4B5CAC2ACD3ACBD
:101D4000B7016D5F7F4FC60182960E947611F60142
:101D5000E855FF4F808190E0F80127AD022E000C7E
:101D6000330B8217930709F49ECAF80126AD022EA1
:101D7000000C330B8217930709F09BCA94CA582EA4
:101D80005394D801DA96ED91FC91DB9784E090E0D2
:101D9000918F808F8ECA80910303882309F424CD0C
:101DA000809157028111BCCB109265021092E4021F
:101DB0001092E6021092E50287E08093E902109209
:101DC000530281E0809357020FCDF101D7AE39A5C0
:101DD0003F5F39A74BA15CA1401B510B5CA34BA3F8
:101DE00027C8D101DC96DC92F2CF0E947611909147
:101DF000EB028091020398130C94890360915502C1
:101E000070E085E692E00E9476119091EB0280915D
:101E1000430298130C94890380915502815080935A
:101E2000550211E00C949003FA018081082E000CF9
:101E3000990BE816F90651F4B0CCDC012C91022E76
:101E4000000C330B6217730719F4B3CC81E0B6CCE6
:101E5000E815F905D9F30196A4CCC814D90409F4FE
:101E6000B5CC80E0AFCCCD5BDF4F0FB6F894DEBFD2
:101E70000FBECDBFDF91CF911F910F91FF90EF90DB
:101E8000DF90CF90BF90AF909F908F907F906F909A
:101E90005F904F903F902F900895FC01918D828D1F
:101EA000981761F0828DDF01A80FB11D5D968C91AE
:101EB000928D9F5F9F73928F90E008958FEF9FEFB9
:101EC0000895FC01918D828D981731F0828DE80F75
:101ED000F11D858D90E008958FEF9FEF0895FC012F
:101EE000918D228D892F90E0805C9F4F821B9109FC
:101EF0008F7399270895FC01CB01642F0994FC018D
:101F000009948F929F92AF92BF92CF92DF92EF92FD
:101F1000FF928FB7F894C0909701D0909801E0900D
:101F20009901F0909A018FBF80917D0190917E017F
:101F3000A0917F01B0918001C816D906EA06FB0680
:101F400048F480917B0190917C01019690937C01F3
:101F500080937B01C0927D01D0927E01E0927F014F
:101F6000F0928001A0917B01B0917C0127E339E8D8
:101F700041E450E00E944F254B015C01C701B601CE
:101F800028EE33E040E050E00E942D25C501B40169
:101F9000620F731F841F951FFF90EF90DF90CF900B
:101FA000BF90AF909F908F900895E8988EED99E143
:101FB0009093010180930001E2E1F3E0118213822A
:101FC000128208950F931F93CF938C01C62F82EA3C
:101FD00091E00E940D1A892BD1F34C2F50E0B801EB
:101FE00082EA91E0CF911F910F910C94DF190F932A
:101FF0001F93F8940E940E1B00913F021091400223
:102000002091410230914202AB01BC01401B510BB7
:10201000620B730B22E02093950181E09DE7909382
:10202000940180939301909387008093860082E1CE
:102030008093810041303DE753076105710588F1C8
:102040004A9903C02FEF32E802C021E03DE78091BA
:1020500013038A35D8F4809113038F5F80931303A1
:1020600080911403609112030E94A02590931403A1
:10207000E0911403F0E0EE0FFF1FEA5EFC4F3183A6
:102080002083809114038F5F809314030E940E1BA2
:1020900060933F027093400280934102909342020A
:1020A00038C0413187E258076105710590F181E13F
:1020B0009DE7A0E0B0E0841B950BA60BB70B33E0C7
:1020C000880F991FAA1FBB1F3A95D1F7009731E0DF
:1020D000A307B10520F421E02093950109C02093C6
:1020E000950123E0B695A795979587952A95D1F701
:1020F0009093940180939301809193019091940126
:1021000090938700809386008091950180618093F1
:10211000810020919601E2ECF0E08491EEEAF0E09B
:102120009491EAE9F0E0E491EE2309F43CC08823BD
:1021300039F1833091F038F48130A9F0823001F523
:1021400084B58F7D12C0873091F08830A1F0843043
:10215000B9F4809180008F7D03C0809180008F77DB
:10216000809380000DC084B58F7784BD09C08091B5
:10217000B0008F7703C08091B0008F7D8093B00056
:10218000F0E0EE0FFF1FED57FF4FA591B4913FB761
:10219000F894211104C08C919095982302C0EC9181
:1021A0009E2B9C933FBF1092960178948091810161
:1021B00091E0980F90938101811104C01F910F91BC
:1021C0000C94810F1F910F910895CF92DF92EF929F
:1021D000FF920F931F93F8940E940E1B00913F02F1
:1021E0001091400220914102309142026B017C012A
:1021F000C01AD10AE20AF30A9701860160933F02EE
:102200007093400280934102909342020A35110577
:102210002105310578F181E0C8168DE7D806E10483
:10222000F10410F4960102C021E03DE74A9B03C08F
:10223000319521953109809113038A35D8F4809125
:1022400013038F5F80931303809114036091120333
:102250000E94A02590931403E0911403F0E0EE0F88
:10226000FF1FEA5EFC4F31832083809114038F5F50
:102270008093140378941F910F91FF90EF90DF905B
:10228000CF900895FC01848DDF01A80FB11DA35AE2
:10229000BF4F2C91848D90E001968F739927848F86
:1022A000A689B7892C93A089B1898C9183708064A9
:1022B0008C93938D848D981306C00288F389E02D4A
:1022C00080818F7D808308950C940F250C940725C1
:1022D00085EE90E19093010180930001E9E6F0E042
:1022E00080818C7F81608083E89A0895CF93DF930B
:1022F000FC01EE57FF4F4081469FD001479FB00D34
:102300001124FD0123E0F695E7952A95E1F7EC010C
:10231000CB57DF4F288130E0E217F3070CF5229707
:10232000288130E0A770BB2702C035952795AA9574
:10233000E2F7E80FF91F3081232330E058E0541B07
:10234000469F402D11244770541B02C03595279598
:102350005A95E2F7FC01EA57FF4F2083822F01C014
:102360008FEFDF91CF910895FC0187A98730A9F401
:1023700023A934A91216130684F492A9492F50E018
:1023800020AD30E021503109421753078CF59F5F93
:1023900092ABDF01A90FB11D1C9295A9492F50E006
:1023A000282F30E02F5F3F4F241B350B12161306EA
:1023B00024F401C0660F2A95EAF722A9DF01A20FD3
:1023C000B11D2C91622B6C9323A934A92F5F3F4F31
:1023D00034AB23AB282F082E000C330B241B350BFA
:1023E00037FD02C0891B01C087E087AB81E00895FB
:1023F00080E008950F931F93CF93DF93DC015096F5
:102400008C915097882309F46BC0FD0136969D018D
:10241000225F3F4F11922E173F07E1F7411101C094
:10242000482F262F30E035952795E42FF0E0F595DD
:10243000E79560FF17C0ED01C955DF4F8881281768
:1024400028F4ED01C20FD31F9AA101C090E0892F9B
:102450008F70ED01C80FD11D8E818F5F8E832F5F2E
:102460003F4F01C090E08D0109551F4F622F70E072
:102470006E177F07F0F4E8018881281720F4ED013A
:10248000C60FD71F9AA1C92FD0E034E0D595C795C4
:102490003A95E1F7CA0FDB1F8E818F5F8E83892FFC
:1024A0008F70ED01C80FD11D8E818F5F8E832F5FDE
:1024B000DDCF40FF15C0ED01C955DF4F8881E8171A
:1024C00018F4EA0FFB1F92A1E92FF0E084E0F595E4
:1024D000E7958A95E1F7EA0FFB1F86818F5F868378
:1024E000DF91CF911F910F910895CF93DF93FC015E
:1024F000DC01A354BF4F1C9211961C9212A25D974F
:102500001C92119611961C921E92149687E08C9341
:10251000108A118E108E59968FEF8C938083EF0165
:10252000C355DF4FA95BB109CF010E9619921992DD
:102530001D92A817B907D1F7138A86E990E0978B07
:10254000868BDF01A755BF4F40E050E060E87EE397
:102550004D935D936D937C931397118A148A158A1A
:1025600057961C92128A11A210A283E08583DF91F4
:10257000CF9108952F923F924F925F926F927F92E8
:102580008F929F92AF92BF92CF92DF92EF92FF9283
:102590000F931F93CF93DF93CDB7DEB7C559D140CB
:1025A0000FB6F894DEBF0FBECDBF0E94D50FCF5F30
:1025B000DE4F19821882C150D14081E0C85EDE4FE3
:1025C0008883C851D140C75EDE4F19821882C95135
:1025D000D140C05DDE4F8883C053D140CF5CDE4F19
:1025E00019821882C153D140C85BDE4F8883C8541A
:1025F000D140C75BDE4F19821882C954D140C05AFE
:10260000DE4F8883C056D140CF59DE4F19821882E1
:10261000C156D140C858DE4F8883C857D1409E016B
:102620002F5F3F4F790180E091E0D901FC011D92BD
:102630003197E9F7C758DE4F39832883C957D1400E
:10264000CC24CA9402E811E022242A94F1E0CA576B
:10265000DE4FF883C658D14068E1D62E4E019394E0
:102660007CE0772EE2E06E2E55245394D8018C91B5
:102670008335C1F511968C91833459F42394E1E0AC
:10268000F1E0EC0FFD1FD29CE00DF11D1124128230
:1026900019C08D3459F42394E1E0F1E0EC0FFD1FF3
:1026A000D29CE00DF11D1124528211C0823579F4C3
:1026B0002394E1E0F1E0EC0FFD1FD29CE00DF11D51
:1026C00011246282CA57DE4F1882C658D1402110A9
:1026D0009DC043E050E062E871E082EA91E00E9430
:1026E000DF192CC0803599F5F80182818D3309F00E
:1026F0008DC0818150EDB52EB80EF7E0FB1508F4C2
:1027000085C04AE050E0BE0167587E4FC80103967D
:102710000E94CC21729CF0011124EB0DF11DEE0FF3
:10272000FF1F21E031E02C0F3D1FE20FF31F7087E8
:10273000678321106BC0C8010E941A1DC758DE4F65
:10274000F982E882C957D14000E010E05FC08235CD
:10275000C9F4D80111968C918D3309F057C04AE025
:1027600050E0BE0167587E4FC80102960E94E222E7
:10277000E1E0F1E0EC0FFD1FD29CE00DF11D112412
:10278000678BD7CF843441F5F80181818D33F1F522
:10279000AA24A394BA2CAC0EBD1ED29CA00CB11CD2
:1027A0001124C8010296D50114969C938E93139719
:1027B000A401401B510B4D5F5F4F6BE370E001962E
:1027C0000E94B926C758DE4F99838883C957D140E4
:1027D000F501968385831AC08334C1F4D80111961C
:1027E0008C918D3399F44AE050E0BE0167587E4FDA
:1027F000C80102960E94E222E1E0F1E0EC0FFD1F29
:10280000D29CE00DF11D112471836083C758DE4F07
:1028100088819981C957D1400817190709F463C005
:10282000E816F90639F00196C758DE4F9983888378
:10283000C957D140C758DE4F08811981C957D140C7
:10284000412CC758DE4FA880B980C957D140A40C8D
:10285000B11CC758DE4FB982A882C957D1400E9427
:10286000CE1A97FD0DC0F5018083C418C758DE4FFE
:10287000E881F981C957D14080818B3341F40FC081
:1028800089E790E00E94971A81E790E01AC08A30A9
:1028900009F421C2CC2029F044244394D2CFC110A2
:1028A0001DC08BEA94E00197F1F78E0113950E9409
:1028B000CE1A97FF09C089E790E00E94971A88E630
:1028C00090E00E94C01A0BC28A309105A1F3D70193
:1028D0008D937D01A017B10751F7EDCF118201153E
:1028E000110509F0C3CECD5FDE4F8881C350D140C2
:1028F000811113C0C85EDE4FB881C851D140CF5797
:10290000DE4FB883C158D140B1110DC0E1E0CF57BF
:10291000DE4FE883C158D14006C0F1E0CF57DE4F0B
:10292000F883C158D140C957DE4F1882C758D140EB
:10293000312C28E1239DC0011124E1E0F1E0EC0FEE
:10294000FD1FE80FF91F2281223009F089C0C55808
:10295000DE4F1882CB57D140DF015796C358DE4F68
:10296000B983A883CD57D140079621E031E02C0FE1
:102970003D1F280F391FC158DE4F39832883CF5799
:10298000D140CF010596CE57DE4F99838883C25838
:10299000D1408F010D5F1F4FC358DE4FA881B98111
:1029A000CD57D1408C91C558DE4FB881CB57D1401F
:1029B000B81708F04FC1CE57DE4FE881F981C258F1
:1029C000D14080809180D801CC901196DC900E94FB
:1029D0000E1B2B013C017601F701E814F90468F5A0
:1029E000BFEFEB1AFB0A80818053C158DE4FE881AC
:1029F000F981CF57D140E80FF11DE80FF11DA080FC
:102A0000B1806501B7FE04C0CC24DD24CA18DB0800
:102A10000E940E1B6415750586059705C8F3B7FE61
:102A200002C02B9801C02B9AC601DD0CAA0BBB0B70
:102A3000480E591E6A1E7B1ECFCF0E940E1B6415C6
:102A4000750586059705C8F3C558DE4FE881CB5755
:102A5000D140EF5FC558DE4FE883CB57D1409CCFC4
:102A6000213009F0F7C0C358DE4F1882CD57D1404E
:102A70006F019F01295E3F4FCE56DE4F3983288379
:102A8000C259D140CF010596CC56DE4F9983888339
:102A9000C459D140DF011396C857DE4FB983A883CC
:102AA000C858D140CE56DE4FE881F981C259D14095
:102AB0008081C358DE4FF881CD57D140F81708F018
:102AC000C9C0D6010D911C91CC56DE4FE881F98129
:102AD000C459D1400190F081E02DC657DE4FF983F3
:102AE000E883CA58D140C857DE4FA881B981C85879
:102AF000D140EC901196FC900E940E1B4B015C01A2
:102B0000C558DE4FE882CB57D140C458DE4FF8821B
:102B1000CC57D140C801110FAA0BBB0BCE57DE4FCB
:102B200088839983AA83BB83C258D140880F991F99
:102B3000AA1FBB1FC457DE4F88839983AA83BB8318
:102B4000CC58D140C558DE4FA881B981CB57D14070
:102B5000C657DE4FE881F981CA58D140AE17BF078A
:102B600008F06CC08D91C558DE4FB983A883CB5750
:102B7000D1408A3314F097E301C090E3891B24E02D
:102B800030E0C158DE4F39832883CF57D14008E069
:102B9000A82F880FBB0BC057DE4FB983A883C0593D
:102BA000D1402401350110E0E02EF12CC057DE4F5A
:102BB000E881F981C059D140EE22FF22111104C0F1
:102BC000E114F10421F405C0E114F10411F42B988F
:102BD00001C02B9ACE57DE4F88819981AA81BB8193
:102BE000C258D140480E591E6A1E7B1E0E940E1B01
:102BF0006415750586059705C8F31F5F1230F1F659
:102C0000C457DE4F88819981AA81BB81CC58D140BD
:102C1000880E991EAA1EBB1E0695C158DE4FA881BC
:102C2000B981CF57D1401197C158DE4FB983A883DE
:102C3000CF57D140AB2B09F0B4CF84CFC358DE4F70
:102C4000B881CD57D140BF5FC358DE4FB883CD5751
:102C5000D14028CF2B983394231408F06ACECA575A
:102C6000DE4FE881C658D140EE2331F061E070E0DC
:102C700080E090E00E94331BC957DE4FF881C758AF
:102C8000D140FF5FC957DE4FF883C758D140CF57B7
:102C9000DE4F2881C158D1402F134ACECE01019674
:102CA0000E941A1DE1E0F1E0EC0FFD1F38E1239EC8
:102CB000E00DF11D11248281833051F083E492E014
:102CC0000E947512109213031092150310921403B0
:102CD0000E94681104C0CC2009F4E3CD04CECB5689
:102CE000DE4F0FB6F894DEBF0FBECDBFDF91CF91A0
:102CF0001F910F91FF90EF90DF90CF90BF90AF901A
:102D00009F908F907F906F905F904F903F902F900B
:102D100008953F924F925F926F927F928F929F920F
:102D2000AF92BF92CF92DF92EF92FF920F931F93D9
:102D3000CF93DF93DC0154961C925497662309F4D9
:102D4000FBC050962C915097222309F4F5C030E037
:102D5000A62EB12CA216B3069CF0DF91CF911F9145
:102D60000F91FF90EF90DF90CF90BF90AF909F902A
:102D70008F907F906F905F904F903F900C94751262
:102D80008C010E551F4FF80120813181A216B30628
:102D900008F0D2C0EC017C01F2E2EF0EF11CFC0164
:102DA000EF55FF4FC9010197A816B90641F41AA2C1
:102DB0001082D8011D921C9287E035967CC02D01AF
:102DC000B4EA4B0E511CD2014C91649F3001112486
:102DD00053E0769467945A95E1F7362C842E912C23
:102DE00068E0C62ED12CC601B4010E94C025C501E1
:102DF0000E94AC25009709F460C0489F802D1124E3
:102E000068E0681B90812701462D43196916D8F4A4
:102E10006E01C60CD11CD60193964C91939750E04D
:102E2000062E02C0559547950A94E2F79296CC90EB
:102E3000082E01C0CC0C0A94EAF74C29D2014D931C
:102E40002D016394E1CF20FD10C0BE01640F711D00
:102E5000AE01460D511DDA0192969C9101C0990F69
:102E60008A95EAF7DB0192969C932A193B09D801CF
:102E70002D933C93829E6001839ED00C929ED00C39
:102E80001124C60168E070E00E94C025DE01AA5549
:102E9000BF4F882321F097E0981B892F01C087E05E
:102EA0008C93C6018819990997FD079623E095959B
:102EB00087952A95E1F7808322C040814619408397
:102EC000772450E04F5F5F4FB701660D771DC70154
:102ED0000E94C626F201608170E0C6010E94C025F2
:102EE000669D9001679D300D769D300D1124D801AF
:102EF0008D919C911197821B930B8D939C9381E0F4
:102F00008C8BF80160817181688B662399F077273B
:102F100061507109C7010E947611FE01E855FF4F0B
:102F20008081880F990B83559F4F8C0F9D1F99A30C
:102F300088A302C019A218A2DF91CF911F910F910F
:102F4000FF90EF90DF90CF90BF90AF909F908F90C9
:102F50007F906F905F904F903F900895CF93C82FD0
:102F6000803130F46AE070E080E090E00E94C31CA1
:102F700060E170E08C2FCF910C94B01C1F93CF9325
:102F8000DF9300D01F92CDB7DEB782EA91E00E94B6
:102F90006F0F892B09F4DEC1109190011E3049F4A6
:102FA00089EC90E00E94971A82E891E00E94B21AA0
:102FB000CAC182EA91E00E944D0FE12FF0E0EE5786
:102FC000FE4F80838D3079F034F4882361F08A30AD
:102FD00009F0BCC108C0833231F08B3309F0B6C1AF
:102FE0000E94BA12B0C180918201863509F47EC078
:102FF0000CF05FC0833409F49FC00CF055C08F33D0
:1030000009F077C18FE30E94BE1C87E591E00E9422
:10301000971A86E50E94BE1C85E591E00E94971AEA
:1030200082E50E94BE1C85E591E00E94971A84E724
:103030000E94BE1C85E591E00E94971A88E50E94D7
:10304000BE1C85E591E00E94971A83E50E94BE1C94
:1030500085E591E00E94971A80E50E94BE1C85E5F7
:1030600091E00E94971A83E40E94BE1C85E591E0DE
:103070000E94971A82E70E94BE1C85E591E00E949B
:10308000971A87E50E94BE1C85E591E00E94971A79
:1030900083E70E94BE1C85E591E00E94971A8CE6AA
:1030A00091E00E94B21A4CC18035B9F0823539F1F5
:1030B00020C184374CF482370CF042C1873509F4C3
:1030C000EBC0883561F115C1843709F012C10E9447
:1030D000810F4AE00E946F1C86C087E691E00E9443
:1030E000B21A8BEC97E00197F1F72AC180E391E0E7
:1030F0000E94971A8CE091E00E94C01A21C1209191
:10310000CA033091CB032115310511F420ED33E0D2
:103110006AE070E0CE010196821B930B62C0809141
:103120008301813519F40E94D50F0AC1853409F055
:1031300007C10E94681104C180918301873459F04E
:1031400034F49CEB980F923008F452C0F9C08335E8
:1031500009F485C0F5C085EE90E00E94971A83EED1
:1031600090E00E94971A809146026AE070E090E039
:103170000E94C31C81EE90E00E94971A8EED90E0B1
:103180000E94971A83EE90E00E94971A8091440261
:103190006AE070E090E00E94C31C81EE90E00E9423
:1031A000971A8BED90E00E94971A83EE90E00E94B0
:1031B000971A809145026AE070E090E00E94C31C7B
:1031C00081EE90E00E94971A8DE691E00E941A1D10
:1031D00083EE90E00E94971A809147026AE070E0C7
:1031E00090E00E94C31C8AE691E00E945D1CA8C08A
:1031F00090918401923579F034F4933409F0A0C0B1
:10320000E5E4F2E00DC0933549F0953509F098C03A
:10321000E4E4F2E005C0E7E4F2E002C0E6E4F2E054
:10322000853419F481E0808301C01082209144022A
:10323000622F660F9091450284E0989F90011124BF
:10324000262B60914602262B9091470238E0939FEF
:10325000C0011124622F682B8FEF90E06FC062E7EE
:1032600071E084E891E00E94D826892B09F468C0B7
:103270004AE050E060E070E08AE891E00E94CC21F2
:10328000862F609304036AE070E00E94B01C88EE11
:1032900090E00E94971A54C080918301833529F4ED
:1032A00090918401933309F44BC0082E000C990BC4
:1032B0000E94AD26892B09F443C080918401082E19
:1032C000000C990B0E94AD26892BD1F180918501CC
:1032D000082E000C990B0E94AD26892B89F1809154
:1032E0008601082E000C990B0E94AD26892B31F423
:1032F00027C082EF90E00E94C01A25C01B828091F7
:103300008301909184019A83898340E150E060E0D9
:1033100070E0CE0101960E94CC21162F809185018C
:10332000909186019A83898340E150E060E070E0EB
:10333000CE0101960E94CC21812F90E00E94641161
:1033400081E0809396011092900104C01F5F10935A
:1033500090011BCE0F900F900F90DF91CF911F9196
:1033600008950E941E1A81110C94BE1708951F9291
:103370000F920FB60F9211242F933F934F935F93A9
:103380006F937F938F939F93AF93BF93EF93FF932D
:10339000E0919101F09192010995FF91EF91BF9118
:1033A000AF919F918F917F916F915F914F913F91DD
:1033B0002F910F900FBE0F901F9018950895CF92E8
:1033C000DF92EF92FF920F931F93CF93DF936C01E5
:1033D0007A018B01C0E0D0E0CE15DF0581F0D80185
:1033E0006D918D01D601ED91FC910190F081E02D60
:1033F000C6010995892B11F02196EECF7E01C701F8
:10340000DF91CF911F910F91FF90EF90DF90CF90C0
:103410000895089580E090E00895FC01538D448D57
:10342000252F30E0842F90E0821B930B541710F06F
:10343000CF960895019708950E94A82682EA91E008
:103440000E946F0F21E0892B09F420E0822F08955C
:10345000EF92FF920F931F93CF93DF93EC0181E0E4
:10346000888F9B8D8C8D981305C0E889F9898081A0
:1034700085FD26C0F62E0B8D10E00F5F1F4F0F73DA
:103480001127E02E8C8DE8120CC00FB607FCFACF86
:10349000E889F989808185FFF5CFCE010E9442112C
:1034A000F1CF8B8DFE01E80FF11DE35AFF4FF08243
:1034B0009FB7F8940B8FEA89FB89808180620AC0EC
:1034C0009FB7F894EE89FF896083E889F989808144
:1034D0008370806480839FBF81E090E0DF91CF9113
:1034E0001F910F91FF90EF900895CF93DF93EC0120
:1034F000888D8823C9F0EA89FB89808185FD05C014
:10350000A889B9898C9186FD0FC00FB607FCF5CF4D
:10351000808185FFF2CFA889B9898C9185FFEDCF95
:10352000CE010E944211E7CFDF91CF9108950F9312
:103530001F93CF93DF938C01C0E0D0E0F801EC0F34
:10354000FD1F6491662341F082EA91E00E94281AEF
:10355000892B11F02196F2CFCE01DF91CF911F91EF
:103560000F910895CF93DF930E945D1CEC018AE6D2
:1035700091E00E945D1C8C0F9D1FDF91CF910895FB
:10358000CF93DF930E94971AEC018AE691E00E94A4
:103590005D1C8C0F9D1FDF91CF9108952FB7F8947C
:1035A0008091970190919801A0919901B0919A0111
:1035B0002FBF8093AA019093AB01A093AC01B0936D
:1035C000AD0182EA91E00E944D0F97FF26C02FB710
:1035D000F8948091970190919801A0919901B091F0
:1035E0009A012FBF4091AA015091AB016091AC01AB
:1035F0007091AD01841B950BA60BB70B4091A601F2
:103600005091A7016091A8017091A90184179507B5
:10361000A607B707B0F28FEF9FEF08953FB7F89472
:1036200080919E0190919F01A091A001B091A10174
:1036300026B5A89B05C02F3F19F00196A11DB11D0D
:103640003FBFBA2FA92F982F8827820F911DA11D48
:10365000B11DBC01CD0142E0660F771F881F991F85
:103660004A95D1F708958F929F92AF92BF92CF92D1
:10367000DF92EF92FF926B017C010E940E1B4B01C7
:103680005C01C114D104E104F104F1F00E940E1BAD
:10369000DC01CB0188199909AA09BB09883E93402E
:1036A000A105B10570F321E0C21AD108E108F108C3
:1036B00088EE880E83E0981EA11CB11CC114D104B1
:1036C000E104F10419F7DDCFFF90EF90DF90CF9088
:1036D000BF90AF909F908F9008951F920F920FB65A
:1036E0000F9211242F933F938F939F93AF93BF9388
:1036F0008091970190919801A0919901B0919A01C0
:1037000030919D0123E0230F2D3720F40196A11D58
:10371000B11D05C026E8230F0296A11DB11D2093FF
:103720009D018093970190939801A0939901B09384
:103730009A0180919E0190919F01A091A001B0916A
:10374000A1010196A11DB11D80939E0190939F013F
:10375000A093A001B093A101BF91AF919F918F91D0
:103760003F912F910F900FBE0F901F9018951F92B1
:103770000F920FB60F9211242F933F934F935F93A5
:103780006F937F938F939F93AF93BF93EF93FF9329
:10379000E0910201F09103010995FF91EF91BF9132
:1037A000AF919F918F917F916F915F914F913F91D9
:1037B0002F910F900FBE0F901F9018951F920F9290
:1037C0000FB60F9211242F933F934F935F936F93F4
:1037D0007F938F939F93AF93BF93EF93FF93E0916A
:1037E0000001F09101010995FF91EF91BF91AF9117
:1037F0009F918F917F916F915F914F913F912F9109
:103800000F900FBE0F901F9018951F920F920FB63A
:103810000F9211242F933F934F935F936F937F9356
:103820008F939F93AF93BF93EF93FF9382EA91E0BF
:103830000E944211FF91EF91BF91AF919F918F91A3
:103840007F916F915F914F913F912F910F900FBE9C
:103850000F901F9018951F920F920FB60F92112480
:103860002F938F939F93EF93FF93E091B201F09189
:10387000B3018081E091B801F091B90182FD12C0DD
:1038800090818091BB018F5F8F732091BC01821763
:1038900051F0E091BB01F0E0EE55FE4F958F809323
:1038A000BB0101C08081FF91EF919F918F912F917A
:1038B0000F900FBE0F901F901895009769F0FC01B4
:1038C00001900020E9F73197AF01481B590BBC016B
:1038D00082EA91E00C94DF1980E090E008958F92E5
:1038E0009F92AF92BF920F931F93CF93DF93CDB769
:1038F000DEB7A1970FB6F894DEBF0FBECDBF19A2F9
:10390000423008F44AE08E010F5D1F4F842E912C47
:10391000A12CB12CA50194010E942D25E62FB901FF
:10392000CA0101501109EA3014F4E05D01C0E95CFC
:10393000D801EC93232B242B252B61F7C8010E947F
:103940005D1CA1960FB6F894DEBF0FBECDBFDF9110
:10395000CF911F910F91BF90AF909F908F9008953E
:10396000AB01682F4115510521F482EA91E00C94D6
:10397000281A70E080E090E00C946F1C682F82EAB7
:1039800091E00C94281ACF92DF92EF92FF92CF939E
:10399000DF936115710559F4682F82EA91E0DF9198
:1039A000CF91FF90EF90DF90CF900C94281A6C018C
:1039B000990FEE08FF086A307105D9F4F7FE17C0B9
:1039C0008DE20E94BE1CEC0166277727CB016C19A3
:1039D0007D098E099F094AE00E946F1C8C0F9D1F74
:1039E000DF91CF91FF90EF90DF90CF9008954AE064
:1039F00001C0462FC701B601DF91CF91FF90EF9034
:103A0000DF90CF900C946F1C809106039091070378
:103A1000892B71F48091080390910903892B41F45B
:103A200080910A0390910B0321E082278170089511
:103A300080E008950C945D1CCF93DF93CDB7DEB783
:103A40002A970FB6F894DEBF0FBECDBF789484B529
:103A5000826084BD84B5816084BD85B5826085BD8A
:103A600085B5816085BD80916E00816080936E0018
:103A7000109281008091810082608093810080910A
:103A800081008160809381008091800081608093BB
:103A900080008091B10084608093B1008091B0007B
:103AA00081608093B00080917A00846080937A0076
:103AB00080917A00826080937A0080917A008160A0
:103AC00080937A0080917A00806880937A001092C7
:103AD000C100E091B201F091B30182E08083E091F6
:103AE000B201F091B3011082E091AE01F091AF010B
:103AF0001082E091B001F091B10180E180831092D9
:103B0000BA01E091B601F091B70186E08083E091BF
:103B1000B401F091B501808180618083E091B401AE
:103B2000F091B501808188608083E091B401F091CB
:103B3000B501808180688083E091B401F091B50186
:103B400080818F7D80835298259A80E090E00E944A
:103B50006611833309F030C281E090E00E94661163
:103B60008D3109F029C28FEF90E00E946611982FE5
:103B700091709093460281FB992790F990934402AB
:103B800082FB992790F99093450283FB882780F95F
:103B900080934702239A62E370E080E090E00E9405
:103BA000331B80E1809381001092800082E080933B
:103BB000950181E09DE79093940180939301909308
:103BC00087008093860082E18093810087EF9FE0E9
:103BD000909392018093910181E080936F001E8207
:103BE0001D828BE79FE09C838B838B819C81AD81C1
:103BF000BE8180930E0390930F03A0931003B093A4
:103C0000110382EE9FE090930D0380930C030E94BA
:103C1000681180E991E0A0E0B0E08093A601909364
:103C2000A701A093A801B093A90172E0472E512CDF
:103C3000612C712C99249394E7E08E2EF3E0AF2E43
:103C4000B12C80911303882309F4B3C1809113032D
:103C500081508093130380911503609112030E9499
:103C6000A02590931503E091150381E08E0F8093BA
:103C70001503F0E0EE0FFF1FEA5EFC4F808191819B
:103C800090939C0180939B01109256026091530285
:103C9000662391F070E06150710985E692E00E9420
:103CA00076118091EB02880F990B80519D4F909374
:103CB00064028093630204C0109264021092630253
:103CC00040919B0150919C01E0916102F091620250
:103CD0005183408390915302992379F0E0916302DC
:103CE000F0916402309749F02081318124273527F3
:103CF000232F221F2227221F01C021E031E09E3FF7
:103D000009F430E081E0411553480CF480E083234E
:103D100011F0211132C00E94EF00809156028111F2
:103D200004C0809103038823B1F08091530288235B
:103D3000D1F0E0916302F09164023097A1F0A0917C
:103D40006102B09162022D913C9180819181822724
:103D5000932797FD08C083E492E00E9475121092A9
:103D6000640210926302809153028E3F81F560E0FD
:103D700070E0CB010E94331B2AC0983241F5B0920B
:103D80005C02A0925B020E94041D811120C0209160
:103D9000060330910703E0910803F0910903409175
:103DA0000A0350910B03CA019595879540FF0AC0FD
:103DB000D901A80FB91F4D915C91E40FF51F019037
:103DC000F081E02D820F931F099580930503C09029
:103DD0006102D0906202D6010D911C91B80117FFCB
:103DE00004C066277727601B710B072E000C880B19
:103DF000990B0E94EA232DEC3CEC4CE45EE30E941C
:103E000049240E9474269B0170935A0260935902C0
:103E100070910003E0EFF2E060E07617C1F081916D
:103E20009191A8014827592757FD0FC0009769F0C5
:103E3000A801481B590BCA0157FF03C091958195F2
:103E40009109281739070CF0CBC06F5FE6CF7830A7
:103E5000E1F540E060E083E492E00E94FA11E09135
:103E60000103F0E0ED5BFD4F8681833040F00E945E
:103E7000EF0040E060E083E492E00E94FA111091CC
:103E800053021150E0910103F0E0ED5BFD4F86819C
:103E90008823D9F0809153028823B9F0612F70E014
:103EA00085E692E00E9476112091EB02022E000C32
:103EB000330B8091010390E02817390711F761E077
:103EC000610F83E492E00E94891610910103E09152
:103ED0006102F091620280819181E12FF0E0EE0FAA
:103EE000FF1FE051FD4F9183808381E0810F883077
:103EF00019F08093010306C0109201038093000320
:103F0000109203038091010390910003981710F41D
:103F100080930003312F2091E9028091E502909176
:103F2000E6022730B9F418161906A4F4E091E40269
:103F30006E2F70E04091EA0250E041505109641741
:103F400075070CF072C0EF5FE093E402F0E0ED5B08
:103F5000FD4F12A2A091E7024A2F50E0622F70E0BD
:103F60006F5F7F4F641B750B161617062CF4312FED
:103F700001C0330F6A95EAF7E091E402F0E0ED5BEF
:103F8000FD4F62A1362B32A301969093E6028093F7
:103F9000E502622F022E000C770BFB01E41BF50BF0
:103FA000F7FD04C02A1B2093E9024CC08092E9026D
:103FB00049C00E94B11945CE6FE08FEF90E00E949A
:103FC000641184E691E00E94C01A63E380E090E00F
:103FD0000E9464116DE181E090E00E946411C3CD04
:103FE000162F67FD34CF812F880F990BDC01A0516C
:103FF000BD4F7D016D917C919B01770F440B550B5B
:10400000D6018D919C91092E000CAA0BBB0B280F99
:10401000391F4A1F5B1FCA01B901A30192010E9407
:10402000D425F7013183208375CF60E070E0CB01A8
:104030000E94331B80915602882309F402CE90928D
:104040009601FFCD8093530210925702F3CFCF9386
:10405000DF93E2EAF1E01382128288EE93E0A0E0BF
:10406000B0E084839583A683B78382E191E0918356
:10407000808385EC90E09587848784EC90E0978737
:10408000868780EC90E0918B808B81EC90E0938B25
:10409000828B82EC90E0958B848B86EC90E0978B02
:1040A000868B118E128E138E148EE2E1F3E08AE578
:1040B0008083118213821282C3E4D2E08DE592E004
:1040C0009F8F8E8F19A218A28FE78093EA0284E057
:1040D0008093E7021AA21092E4021092E602109274
:1040E000E50287E08093E90280EF8093E802109276
:1040F0000503109207031092060310920903109211
:10410000080310920B0310920A0310920D031092F1
:104110000C0310920F0310920E03109211031092D1
:1041200010031B8E1A8ECE010E94751281E18093BE
:1041300004031D8281E08C831F861E860E940E1B55
:1041400060933F0270934002809341029093420239
:10415000DF91CF9108950F931F93CF93DF93823018
:10416000910510F482E090E0E091CC03F091CD0352
:1041700020E030E0A0E0B0E0309719F140815181BB
:104180000281138148175907C8F08417950769F40D
:10419000109731F012960C93129713961C9327C028
:1041A0000093CC031093CD0322C02115310519F0E3
:1041B0004217530718F49A01BD01EF01DF01F8011E
:1041C000DBCF21153105F9F0281B390B24303105DF
:1041D00080F48A819B816115710521F0FB01938335
:1041E000828304C09093CD038093CC03FE0132966A
:1041F00044C0FE01E20FF31F8193919322503109D5
:10420000398328833AC02091CA033091CB03232BF2
:1042100041F420910601309107013093CB032093A4
:10422000CA0320910401309105012115310541F4A3
:104230002DB73EB74091080150910901241B350B61
:10424000E091CA03F091CB03E217F307A0F42E1B11
:104250003F0B2817390778F0AC014E5F5F4F2417EA
:10426000350748F04E0F5F1F5093CB034093CA03AE
:104270008193919302C0E0E0F0E0CF01DF91CF9114
:104280001F910F910895CF93DF93009709F481C098
:10429000FC01329713821282A091CC03B091CD031E
:1042A000109781F420813181820F931F2091CA03DE
:1042B0003091CB032817390751F5F093CB03E093E6
:1042C000CA0367C0ED0120E030E0CE17DF0740F4FD
:1042D0004A815B819E0141155105F1F0EA01F5CF5C
:1042E000D383C28340815181840F951FC817D9079A
:1042F00059F488819981840F951F02969183808358
:104300008A819B81938382832115310529F4F0935F
:10431000CD03E093CC033DC0E901FB83EA834991DF
:104320005991C40FD51FEC17FD0761F4808191816D
:10433000840F951F0296E901998388838281938176
:104340009B838A83E0E0F0E012968D919C91139715
:10435000009719F0FD01DC01F7CF8D919C91119729
:104360009D012E5F3F4F820F931F2091CA03309112
:10437000CB032817390769F4309729F41092CD033D
:104380001092CC0302C013821282B093CB03A0938D
:10439000CA03DF91CF910895A0E0B0E0E2EDF1E231
:1043A0000C945B255C016B017A016115710519F0B4
:1043B000FB0191838083E114F10429F0C701029786
:1043C000839708F0E5C0E5012196F5011081812F62
:1043D00090E00E94D723892B11F05E01F4CF1D32AB
:1043E00029F42196F501118101E007C01B3221F467
:1043F000E5012296F501118100E0E114F10409F1D3
:10440000F0E1EF16F10429F43FC010E3E114F104E8
:1044100021F128E0E216F10401F154F4E2E0EE1695
:10442000F10421F5812C912CA12CB0E4BB2E3EC0CF
:10443000FAE0EF16F10439F020E1E216F104B1F4EC
:1044400030C0103319F1FAE0EF2EF12CACEC8A2ECB
:10445000982CA82CACE0BA2E29C078E0E72EF12CDD
:10446000812C912CA12CE0E1BE2E20C060E070E0F8
:1044700080E090E897010F2C000C440B550B0E9434
:104480002D2549015A0112C0103359F488818F7DBE
:10449000883509F0BACF19812296026080E1E82EB2
:1044A000F12C812C912CA12C68E0B62E40E060E02C
:1044B00070E0CB0127010F2C000C66087708FE0185
:1044C00050ED352E310E29E0231570F42FEB210F1E
:1044D0002A3118F439EC332E06C02FE9210F2A3186
:1044E00018F529EA322E310E232D30E02E153F0526
:1044F000DCF447FD16C086169706A806B90670F0CC
:10450000A30192010E941D25630D711D811D911D46
:1045100061307105810520E8920710F04FEF01C06E
:1045200041E021961081CBCF202F2170C114D104FE
:1045300071F0442329F02197F601D183C08307C08D
:1045400001FF19C02297F601D183C08314C047FF31
:1045500012C0222329F060E070E080E090E804C0FF
:104560006FEF7FEF8FEF9FE722E230E03093CF03D2
:104570002093CE0309C0222381F0909580957095F9
:1045800061957F4F8F4F9F4F462F372F282F12C097
:1045900040E030E020E090E00DC097FFF5CF82E2F0
:1045A00090E09093CF038093CE036FEF7FEF8FEF78
:1045B0009FE7EACF642F732F822FCDB7DEB7E1E1FB
:1045C0000C947725A0E0B0E0E8EEF2E20C945B25D5
:1045D0005C016B017A016115710519F0FB01918392
:1045E0008083E114F10429F0C7010297839708F052
:1045F000C9C0E5012196F5011081812F90E00E944C
:10460000D723892B11F05E01F4CF1D3229F42196B6
:10461000F501118101E007C01B3221F4E50122966A
:10462000F501118100E0E114F104B1F0F0E1EF16C1
:10463000F10429F4B0C010E3E114F10401F12AE01F
:10464000E216F104B1F180E1E816F10471F0E8E05E
:10465000EE16F104F1F413C0103341F588818F7D1B
:10466000883549F7198122960260F0E1EF2EF12C8E
:1046700088248A94982CA82CAFE0BA2E20C078E029
:10468000E72EF12C88248A94982CA82CEFE1BE2EDA
:1046900016C06FEF7FEFCB0197010F2C000C440B7E
:1046A000550B0E942D2549015A0109C08AE0E82EC8
:1046B000F12C69E9862E982CA82C69E1B62E40E0F1
:1046C00060E070E0CB0127010F2C000C6608770832
:1046D000FE0150ED352E310E29E0231570F42FEB3D
:1046E000210F2A3118F439EC332E06C02FE9210F9F
:1046F0002A3130F529EA322E310E232D30E02E15E5
:104700003F05F4F44F3FC9F086169706A806B90690
:1047100088F0A30192010E941D25232D30E040E086
:1047200050E0620F731F841F951F62177307840781
:10473000950710F44FEF01C041E021961081C8CFDA
:10474000C114D10451F0442311F0219703C001FF9B
:1047500004C02297F601D183C08300FF07C0909563
:104760008095709561957F4F8F4F9F4F4F3F79F4A4
:1047700082E290E09093CF038093CE033FEF2FEF40
:104780009FEF0DC040E030E020E090E008C0462FF1
:10479000372F282F04C0103309F067CF5FCF642F65
:1047A000732F822FCDB7DEB7E1E10C9477259111FD
:1047B0000C94E023803219F089508550C8F7089591
:1047C0009927882708950E94252408F481E00895F8
:1047D000E89409C097FB3EF490958095709561959B
:1047E0007F4F8F4F9F4F9923A9F0F92F96E9BB2751
:1047F0009395F695879577956795B795F111F8CFCD
:10480000FAF4BB0F11F460FF1BC06F5F7F4F8F4F37
:104810009F4F16C0882311F096E911C0772321F02D
:104820009EE8872F762F05C0662371F096E8862FC5
:1048300070E060E02AF09A95660F771F881FDAF71C
:10484000880F9695879597F90895990F0008550F49
:10485000AA0BE0E8FEEF16161706E807F907C0F006
:1048600012161306E407F50798F0621B730B840B0E
:10487000950B39F40A2661F0232B242B252B21F4E8
:1048800008950A2609F4A140A6958FEF811D811D88
:1048900008950E945C240C94CD240E94BF2438F01B
:1048A0000E94C62420F0952311F00C94B6240C9499
:1048B000BC2411240C9401250E94DE2470F3959FE2
:1048C000C1F3950F50E0551F629FF001729FBB2707
:1048D000F00DB11D639FAA27F00DB11DAA1F649FA3
:1048E0006627B00DA11D661F829F2227B00DA11D56
:1048F000621F739FB00DA11D621F839FA00D611DDC
:10490000221F749F3327A00D611D231F849F600DFC
:10491000211D822F762F6A2F11249F5750409AF025
:10492000F1F088234AF0EE0FFF1FBB1F661F771FB1
:10493000881F91505040A9F79E3F510580F00C947C
:10494000B6240C9401255F3FE4F3983ED4F386959A
:1049500077956795B795F795E7959F5FC1F7FE2B1C
:10496000880F911D9695879597F9089597F99F67F8
:1049700080E870E060E008959FEF80EC08950024E7
:104980000A941616170618060906089500240A94B4
:1049900012161306140605060895092E0394000C3A
:1049A00011F4882352F0BB0F40F4BF2B11F460FFC9
:1049B00004C06F5F7F4F8F4F9F4F089557FD9058F2
:1049C000440F551F59F05F3F71F04795880F97FBD3
:1049D000991F61F09F3F79F087950895121613068D
:1049E0001406551FF2CF4695F1DF08C016161706BC
:1049F0001806991FF1CF86957105610508940895F1
:104A0000E894BB2766277727CB0197F90895F99992
:104A1000FECF92BD81BDF89A992780B50895262FC3
:104A2000F999FECF1FBA92BD81BD20BD0FB6F89493
:104A3000FA9AF99A0FBE01960895DB018F939F931E
:104A40000E944F25BF91AF91A29F800D911DA39F02
:104A5000900DB29F900D11240895A1E21A2EAA1B69
:104A6000BB1BFD010DC0AA1FBB1FEE1FFF1FA2171E
:104A7000B307E407F50720F0A21BB30BE40BF50B1B
:104A8000661F771F881F991F1A9469F760957095A4
:104A9000809590959B01AC01BD01CF0108950E94C6
:104AA0009125A59F900DB49F900DA49F800D911D01
:104AB000112408952F923F924F925F926F927F92AE
:104AC0008F929F92AF92BF92CF92DF92EF92FF921E
:104AD0000F931F93CF93DF93CDB7DEB7CA1BDB0BCA
:104AE0000FB6F894DEBF0FBECDBF09942A8839886F
:104AF00048885F846E847D848C849B84AA84B98476
:104B0000C884DF80EE80FD800C811B81AA81B98181
:104B1000CE0FD11D0FB6F894DEBF0FBECDBFED0195
:104B20000895A29FB001B39FC001A39F700D811D86
:104B30001124911DB29F700D811D1124911D0895A6
:104B4000991B79E004C0991F961708F0961B881FDF
:104B50007A95C9F780950895AA1BBB1B51E107C040
:104B6000AA1FBB1FA617B70710F0A61BB70B881FFD
:104B7000991F5A95A9F780959095BC01CD0108958C
:104B800097FB072E16F4009407D077FD09D00E94FA
:104B9000AC2507FC05D03EF4909581959F4F089574
:104BA000709561957F4F0895052E97FB1EF4009434
:104BB0000E94EB2557FD07D00E942D2507FC03D04E
:104BC0004EF40C94EB2550954095309521953F4F30
:104BD0004F4F5F4F089590958095709561957F4FE9
:104BE0008F4F9F4F08950E949125B7FF0895821B14
:104BF000930B0895EE0FFF1F0590F491E02D09949B
:104C00005058BB27AA270E9418260C94CD240E9436
:104C1000BF2438F00E94C62420F039F49F3F19F4D5
:104C200026F40C94BC240EF4E095E7FB0C94B62417
:104C3000E92F0E94DE2458F3BA176207730784072E
:104C4000950720F079F4A6F50C9400250EF4E09574
:104C50000B2EBA2FA02D0B01B90190010C01CA0136
:104C6000A0011124FF27591B99F0593F50F4503EE1
:104C700068F11A16F040A22F232F342F4427585FD3
:104C8000F3CF469537952795A795F0405395C9F7EB
:104C90007EF41F16BA0B620B730B840BBAF09150A3
:104CA000A1F0FF0FBB1F661F771F881FC2F70EC042
:104CB000BA0F621F731F841F48F487957795679515
:104CC000B795F7959E3F08F0B0CF9395880F08F001
:104CD0009927EE0F9795879508950E9474266894FA
:104CE000B1110C94012508950E94E62488F09F5785
:104CF00098F0B92F9927B751B0F0E1F0660F771F00
:104D0000881F991F1AF0BA95C9F714C0B13091F0F5
:104D10000E940025B1E008950C940025672F782F9C
:104D20008827B85F39F0B93FCCF3869577956795BA
:104D3000B395D9F73EF490958095709561957F4F26
:104D40008F4F9F4F08950E94252408F48FEF0895F8
:104D500081E090E0F8940C94FB2691110C94E023F0
:104D600080538A5028F0865C806281568650B0F766
:104D70000895FC014150504030F001900616D1F7E3
:104D80003197CF01089588279927089568177907E3
:104D900068F4FB01DC01E40FF51FA40FB51F02C08E
:104DA00002900E9241505040D8F708950C94F2268C
:104DB000FB0151915523A9F0BF01DC014D9145172D
:104DC0004111E1F759F4CD010190002049F04D91D6
:104DD00040154111C9F3FB014111EFCF81E090E093
:104DE00001970895FB01DC0102C001900D92415032
:0A4DF0005040D8F70895F894FFCF63
:104DFA00DE19DE190000D0032000FFFFFFFF0000CC
:104E0A000000281ADF190D1A751A6F0F4D0F610F5E
:104E1A004D73003B43003B53004D533B003B435013
:104E2A003D003B53503D00523D004F3B004D433B3C
:104E3A004C4C3D003B4C483D003B534C3D003B53E2
:104E4A00483D003B443D003B433D003B4C3D004D4B
:104E5A00753B004D553B004F4B000D0A004D7265E6
:0A4E6A0064006D636D626C3D000092
:00000001FF
