:100000000C9459010C94281F0C94011F0C9481012D
:100010000C9481010C9481010C9481010C94810158
:100020000C9481010C9481010C9481010C94810148
:100030000C9481010C94031D0C9481010C9481019A
:100040000C94B71E0C9481010C94751F0C944F1FD7
:100050000C9481010C9481010C9481010C94810118
:100060000C9481010C94810163637265672077723F
:10007000697465206261636B200020726570656140
:1000800074732000207061727420006D736720000B
:10009000746F206C6F6E672000636F72727570747E
:1000A0000073656E6420636D642000544F555400E6
:1000B000627265616B206C6F6F7000616464696E61
:1000C000672073656E64636C6F636B0020656E649C
:1000D0003A006C6F636174696E67206461746120BB
:1000E00073746172743A00416464696E672072656A
:1000F00070656174733A2000416464696E672062C0
:1001000075636B6574007265617272616E676520FC
:10011000626567696E70747200416464696E67201D
:100120007846534B206D6573736167650041646465
:10013000696E672072617700416464696E67206D43
:10014000616E6368657374657200000000002500CD
:1001500028002B0004040404040404040202020224
:10016000020203030303030301020408102040807A
:1001700001020408102001020408102000000008F9
:10018000000201000003040700000000000000005E
:100190004D43004D55003B003D004D53002062692A
:1001A00074732073657400556E737570706F72741C
:1001B00065642073686F727420636F6D6D616E6427
:1001C00000202D20636F6D70696C65642061742060
:1001D0004E6F7620323420323032302032323A3193
:1001E000313A33300020444247005620332E352E1A
:1001F000302D6465762B3230323031313234205339
:1002000049474E414C6475696E6F200020557365F7
:10021000206F6E65206F662000436F6D6D616E64A8
:1002200020746F206C6F6E673A200020003A0064E3
:10023000756D702C2000646F6E6500496E697420C6
:10024000656570726F6D20746F2064656661756C92
:10025000747320616674657220666C617368002E29
:1002600000454550524F4D0052656164696E6720EC
:1002700076616C7565732066726F6D2000726563C0
:10028000656976657220656E61626C6564005374A1
:10029000617274696E672074696D65726A6F62005D
:1002A000206D622066206120742070726F632000D0
:1002B000462611241FBECFEFD8E0DEBFCDBF12E02F
:1002C000A0E0B1E0E6E2FBE502C005900D92AC3B98
:1002D000B107D9F725E0ACEBB2E001C01D92A23125
:1002E000B207E1F711E0C9E5D1E004C02197FE01B2
:1002F0000E94192CC835D107C9F70E9479220C94A5
:10030000912D0C9400002F923F924F925F926F922A
:100310007F928F929F92AF92BF92CF92DF92EF9295
:10032000FF920F931F93CF93DF93CDB7DEB7C855DE
:10033000D1090FB6F894DEBF0FBECDBF9E012F5F6F
:100340003F4F38A72FA386E1D9011D928A95E9F77F
:100350008091450420919503811104C0283210F446
:100360000C94D10E1092980391E02E3F09F090E08A
:1003700090939A0340E060E081113CC285E893E0ED
:100380000E94F213B12C8B2C912CB0914204BDA78A
:100390008B2F90E00197881699060CF010C1F4019C
:1003A000EB57FC4FCF0106962681222309F405C1A5
:1003B000AA24A394AB0C9401220F331FF901EE5C25
:1003C000FB4FFEA7EDA798AB8FA7FAABE9AB8091E7
:1003D0004204A81608F0F1C0EA2CF12C97012B5723
:1003E0003C4F1901D90116968C91882309F4E3C07A
:1003F000EDA5FEA5C080D180F701EE0FFF1FEE5CDA
:10040000FB4F00811181C6018027912797FDD3C042
:1004100040902E0450902F0460903004709031046E
:10042000B80117FF04C066277727601B710B072EE2
:10043000000C880B990B0E94092AA30192010E94CB
:10044000682A6BAB7CAB8DAB9EABB601D7FE04C00C
:10045000662777276C197D09072E000C880B990BEE
:100460000E94092AA30192010E94682A9B01AC0103
:100470006BA97CA98DA99EA90E94202C20E030E0C8
:1004800040E05FE30E94682A0E94FE2C0C191D09BF
:1004900017FF03C0119501951109601771070CF43E
:1004A0008AC0D12CC12C81010A5F1F4F8091950316
:1004B000D81608F048C0D8018C91C81608F043C07F
:1004C0006D2D70E087EA93E00E94B41380912D04B3
:1004D000082E000C990BE816F90699F5809129046D
:1004E000482F50E0D89EC0011124FC0123E0F6956E
:1004F000E7952A95E1F720912C04E21708F587701B
:100500009927FF27EB57FC4F20912A0430E0082E53
:1005100002C0359527950A94E2F7209532A123234E
:1005200068E070E0641B750BDB01A81BB90BA4012C
:1005300002C0440F551FAA95E2F7CA01822B82A37D
:10054000C394D394B3CFAFA5B8A9CC90F101D68012
:10055000E9A9FAA9A081B1818701000F111F0E5CE2
:100560001B4FF801E080F180EC2DF0E09F010E942C
:10057000122C2B013C014D2D50E09A01D7010E9415
:10058000122C640D751D861D971DE40FF51F9F012C
:10059000FF0F440B550B0E94F32BA9A9BAA92D9369
:1005A0003C93DC0CEFA5F8A9D082D10116961C92E1
:1005B000F80111821082A3940ACFB394E4CE109272
:1005C0009E0310929D038FEF80938503F091950316
:1005D000FFA72F2F30E03AAB29ABB5E8CB2EB3E025
:1005E000DB2E12E3212E14E0312EE12CF12C0FEF43
:1005F0001FEF4901330FAA08BB084DA5E41608F008
:1006000059C00F3F5FEF150701F5D1018D919C9106
:1006100097FD1BC0F601668170E080E090E00E94CB
:10062000092A2B013C01C501B4010E94092A2BE7CC
:1006300034E14EE25EE30E94682A9B01AC01C301F3
:10064000B2010E94342D181654F1D1018D919C9164
:1006500097FD26C0F801EE0FFF1FEE5CFB4F2081D7
:10066000318182179307E4F4F601668170E080E03F
:1006700090E00E94092A2B013C01C501B4010E94AF
:10068000092A2BE734E14EE25EE30E94682A9B01CF
:10069000AC01C301B2010E94342D18160CF487017D
:1006A000FFEFEF1AFF0A2FEFC21AD20A32E0230E31
:1006B000311CA3CF0F3F4FEF140741F00093850388
:1006C00081E090E090939E0380939D0380919D0331
:1006D00090919E03019709F091C08091880388232F
:1006E00009F48CC069A97AA9663A71051CF40FA5B2
:1006F000085201C00DE71DA5115076E0D72E1F3F0F
:1007000009F475C0E12E012E000CFF08F701EE0F71
:10071000FF1FEE5CFB4F2081318137FF66C03195B2
:1007200021953109283672E437070CF05EC0E0915C
:100730008503EE0FFF0BEE5CFB4F0190F081E02D87
:10074000C901BF010E94CB2B6D32710508F04DC06D
:10075000DE9EC001DF9E900D11248217930708F0E2
:1007600044C0F701EB57FC4FF6806F2D70E080E03E
:1007700090E00E94092A4B015C016091950370E0B2
:1007800080E090E00E94092A2AE037ED43EA5DE329
:100790000E94682A9B01AC01C501B4010E94022A93
:1007A00087FF23C081E08F1500F5E12CF12CE016C6
:1007B000E0F457019FEFA91AB90AB50187EA93E05F
:1007C0000E94B41380912D0418130C941D0FB701CF
:1007D00087EA93E00E94B41390912D0480918503E1
:1007E00098130C941D0F0C94200F115088CF109368
:1007F000440404C085E893E00E94F21380919D03B5
:1008000090919E03029709F017C280919503883258
:1008100008F412C2809196038E5F8093970310E0D4
:100820006091970370E08091950390E001976817BD
:100830007907ACF46F5F7F4F87EA93E011110C9456
:10084000BD100E94B41390912D048091440498131C
:1008500011E0809197038E5F80939703E1CF10E0C2
:100860008091950390919703891710F480939703D3
:10087000409197036091960385E893E00E94F213FC
:1008800060919603112371F08091970390E0861B8D
:100890009109889794F481E090E090939E0380936F
:1008A0009D03CAC1809195038E3F08F0AFC190E0CF
:1008B000861B910988970CF4A9C162E085E893E052
:1008C0000E94E31C80918903882309F4BDC06BE278
:1008D00071E085E893E00E94B51CF12C8091420400
:1008E000F816C8F58F2D90E0FC01EE0FFF1FEE5CAF
:1008F000FB4F008111810115110559F1FC01EB57E6
:10090000FC4F8681882329F16F2D17FF05C0606A8F
:1009100011950195110901C06068E02E07FD04C022
:10092000A02FA068EA2E01C0606185E893E00E94D4
:10093000E31C6E2D85E893E00E94E31C612F606844
:1009400085E893E00E94E31C6BE385E893E00E9456
:10095000E31CF394C3CF8091970380FF02C064E44B
:1009600001C064E685E893E00E94E31CE0919603F1
:10097000E0FF1CC0E150E0939603E69580912C04C3
:10098000E81728F4F0E0EB57FC4F82A101C080E0AB
:100990008F7080688DA7682F85E893E00E94E31C24
:1009A000809196038E5F8093960301C01DA61091DF
:1009B000960380919703811790F0E12FE69580913F
:1009C0002C04E81728F4F0E0EB57FC4FB2A1BDA7C8
:1009D0006DA585E893E00E94E31C1E5FEACF6FE2FD
:1009E00071E085E893E00E94B51C60918503605D2D
:1009F00085E893E00E94E31C62E371E085E893E000
:100A00000E94B51C60914404605D85E893E00E94FB
:100A1000E31C6BE385E893E00E94E31C88E494E028
:100A20000E94A41C8111B0C062E585E893E00E9499
:100A3000E31C8091470490E00E9461226BE385E80B
:100A400093E00E94E31CA0C065E371E085E893E0B9
:100A50000E94B51C10E0809142041817B8F5812F50
:100A600090E09C01220F331FF901EE5CFB4F7F01E8
:100A700020813181232B41F1FC01EB57FC4F868112
:100A8000882311F160E585E893E00E94E31C60E3B0
:100A9000610F85E893E00E94E31C6DE385E893E035
:100AA0000E94E31CBE016F5F7F4FD7018D919C9127
:100AB0000E940A20BC0185E893E00E94B51C6BE30C
:100AC00085E893E00E94E31C1F5FC5CF6BE571E0F2
:100AD00085E893E00E94B51C1091960380919703DE
:100AE000811778F0612F70E087EA93E00E94B413D9
:100AF00060912D04605D85E893E00E94E31C1F5F18
:100B0000EDCF6BE385E893E00E94E31C6FE671E0B4
:100B100085E893E00E94B51C60918503605D85E8DF
:100B200093E00E94E31C69E371E085E893E00E9492
:100B3000B51C60914404605D85E893E00E94E31C6D
:100B40006BE385E893E00E94E31C88E494E00E9454
:100B5000A41C811118C06EE371E085E893E00E9447
:100B6000B51C80914704BE016F5F7F4F90E00E94EB
:100B70000A20BC0185E893E00E94B51C6BE385E880
:100B800093E00E94E31C1DA680919A03882331F014
:100B900061E471E085E893E00E94B51C109299032E
:100BA000609197038091950390E0861B9109889747
:100BB000FCF080918A038823D9F0815080938A03C6
:100BC0006F5F85E893E00E94601B109296036DE6CC
:100BD00085E893E00E94E31C60918A03605D85E8EC
:100BE00093E00E94E31C6BE385E893E00E94E31C22
:100BF00063E085E893E00E94E31C6AE085E893E007
:100C00000E94E31C81E08093980317C0662369F07B
:100C10008091970390E08D3F91053CF085E893E04B
:100C20000E94601B1092960307C085E893E00E9423
:100C30006D1481E0809398031DA680919803811123
:100C400053C780918603B09187032696BFAF26973E
:100C5000811104C0BB2311F40C94D10E2696EFAD84
:100C60002697EE2309F440C7809193039091940353
:100C7000892B39F585E490E00E94CA26FC0182E3C5
:100C800080AF81E085AB108212AA14AA13AA87E074
:100C900087AB80E886AB8FEF84AF85AF86AF87AF39
:100CA000DF01AD5BBF4F1C9211961C9285E893E06B
:100CB00093AF82AF14971D921C92F0939403E0932C
:100CC000930380914504882311F1009193031091BF
:100CD0009403D801DA96ED91FC91DB97148A118A7E
:100CE000DA96ED91FC91DB97E054FF4F1082512C86
:100CF0005801B4E4AB0EB11C442443943801E2E43F
:100D00006E0E711C1801F3E42F0E311CB3C120903C
:100D10009303309094038FEFD101DC968C93DC9792
:100D2000DD968C93DD97DF968C93DF97DE968C9320
:100D3000DE97F101ED5BFF4F108231961082349700
:100D400011821082F101108212AA14AA13AA87E05C
:100D500087ABEE5BFF4F809146048083DA960D915E
:100D60001C91DB97F801E354FF4FF080B3E0BF150F
:100D700008F0BAC6F801608970E080E090E00E9457
:100D8000092A2AE037ED43E25DE30E94682A4B011D
:100D90005C0120E030E0A9010E94342D20E030E029
:100DA00040E05FE387FD05C0C501B4010E94202C2F
:100DB00004C0C501B4010E941F2C0E94FE2C5801E2
:100DC000F6E0AF0EB11CF801E355FF4F1AAE70E02C
:100DD000D5018D915D01861788F1EAAC8E2D90E0EA
:100DE000EE2009F126E130E02C0F3D1F280F391FBE
:100DF000D901DC9098012D0D311D2D0D311D23558C
:100E00003F4F40815181D9012D913C9142175307A9
:100E100054F427E130E02C0F3D1F820F931FDC01BB
:100E2000DC92EA94DBCF27E130E02C0F3D1F820FEC
:100E3000931FDC017C93BAADBF5FBAAF7F5F329680
:100E4000F712C6CFFE017796F8A7EFA32596FFAF5E
:100E5000EEAF259740910A0150910B0160910C0172
:100E600070910D0160964CAF5DAF6EAF7FAF609734
:100E7000B1016E5B7F4F62967FAF6EAF6297C1012B
:100E80008D5B9F4F9CAF8BAFD101AC5BBF4F699621
:100E9000BFAFAEAF69973C96FCA7EBA7FFA16796E3
:100EA000FFAF679724968FAD24978F1B3AAD8317BA
:100EB00008F01AC6D101DA964C91DA97DB963C918C
:100EC000DB972596EEADFFAD259721912596FFAFD7
:100ED000EEAF2597842F932F820F911D820F911DC6
:100EE000FC01E355FF4F8081918118161906B4F675
:100EF0008FEFDC968C93DC97DD968C93DD97DF96F5
:100F00008C93DF97DE968C932081318138AB2FA7AD
:100F1000B901330F880B990B0E94092A2A966CAFEE
:100F20007DAF8EAF9FAF2A972DEC3CEC4CE45EE397
:100F30000E94682A0E94FE2C64967FAF6EAF649771
:100F40008FA598A997FD0196AC0155954795669692
:100F50005FAF4EAF6697BE01695E7F4F21967FAF50
:100F60006EAF21971EAE8FEF9FEF99AF88AF1DAE8A
:100F7000DE015F96BAA7A9A74E01B7E28B0E911CBE
:100F80002196EEADFFAD2197D1902196FFAFEEAF48
:100F90002197D101DA963C91DA97DB962C91832F39
:100FA000922F8D0D911D8D0D911DFC01E355FF4F6D
:100FB00000811181780117FF04C0EE24FF24E01A9C
:100FC000F10A66968EAD9FAD66978E199F0997FFC1
:100FD00003C09195819591096496EEADFFAD64973C
:100FE000E817F907E4F42DEC3CEC4CEC5EE32A96B0
:100FF0006CAD7DAD8EAD9FAD2A970E94682A0E9490
:10100000FE2C8FA598A98E199F0997FF03C0919573
:1010100081959109681779070CF01EC718C0101642
:10102000110614F00C94AC10D101DE96DC92FDADEB
:10103000FF5FFDAF28AD39AD200F311F39AF28AFAD
:10104000D101DC968C91DC978F3F09F0E3C38FAD23
:101050006796EFAD67978E1BFAAD8F1708F490CFA8
:101060001DCFD5018C91882379F0F5018081811104
:101070000DC15394D801DA96CD90DC90DB97F60140
:101080008089581670F3C5C2E52CF12CB701C60152
:1010900082960E94B413F601E855FF4F808190E0DC
:1010A000F80124AD022E000C330B8217930739F0A0
:1010B00025AD022E000C330B82179307B1F6D80131
:1010C000DA96CD90DC90DB97B701C60182960E943C
:1010D000B413F601E855FF4F8080F80195AC81E02C
:1010E000891001C080E08093BC02D801DA96CD90CF
:1010F000DC90DB97B70161507109C60182960E94AE
:10110000B413F601E855FF4F8081F5014082D80104
:10111000DA96ED91FC91DB97518A552009F4B0C025
:1011200090E0891026C0DF962C91DF97022E000CEC
:10113000330B8217930709F43FC0DA962D913C9147
:10114000DB97FC01EE0FFF1FE20FF31FE355FF4F8C
:10115000DC968C91A82FAA0FBB0BA20FB31FA3552F
:10116000BF4F208131818D919C912817390724F13F
:1011700029C0F80126AD022E000C330B821793070D
:10118000D9F022AD33ADFC01EE0FFF1FE20FF31FCC
:10119000E355FF4FD801DD968C91A82FAA0FBB0B0A
:1011A0002A0F3B1FD901A355BF4F208131818D915B
:1011B0009C918217930734F481E0891080E080933A
:1011C000BC0208C0D801DA96ED91FC91DB978189C9
:1011D0008F5F818B6091BC02C8010E946E13FF2457
:1011E000FA94F50CB1E0BF1508F043C0F80182ACE9
:1011F00093ACCF2CD12CB601C40182960E94B413BB
:10120000F401E855FF4F808190E0D801DF962C91E2
:10121000DF97022E000C330B8217930741F0DE9606
:101220002C91022E000C330B8217930711F5F80155
:1012300082AC93ACB60161507109C40182960E94E0
:10124000B413F401E855FF4F808190E0D801DF9698
:101250002C91022E000C330B8217930709F499C6C8
:10126000F80126AD022E000C330B8217930709F408
:1012700090C6D801DA96ED91FC91DB975188F5CEB6
:1012800081E0891080E08093BC02EFCED801DA962D
:10129000CD90DC90DB97E52CF12CB701C60182964E
:1012A0000E94B413F601E855FF4FC080D12CF8011D
:1012B00084AD082E000C990B82AC93ACC816D906ED
:1012C00009F4EDC685AD082E000C990BC816D90699
:1012D00009F4E5C6B7016F5F7F4FC40182960E9493
:1012E000B413F401E855FF4F20818091BC028111B5
:1012F00019C0D801DA96ED91FC91DB97808990E0D6
:101300000297E816F9067CF5DF968C91DF97082E98
:10131000000C990B8C159D0531F5422F50E0DE969F
:101320008C911AC08130F9F4D801DA96ED91FC91D4
:10133000DB97808990E00297E816F906A4F4DE9620
:101340008C91DE97082E000C990B8C159D0559F495
:10135000422F50E0DF968C91082E000C990B481715
:10136000590709F44AC1F3018081082E000C990B3A
:10137000D801D3964D915C91D4974817590764F4DE
:10138000F1011082D5011C92F801108212AA14AA50
:1013900013AA27E027AB31C1D801DA96ED91FC9171
:1013A000DB97528ADA96AD90BC90DB97BDEF5B126B
:1013B00013C0F501808990E00197E816F90661F401
:1013C000E054FF4F81E0808384E090E0D50159969E
:1013D0009C938E93589775C0D801DC96EC91DC975E
:1013E000EE0FFF0BEA0DFB1DE355FF4F40815181CE
:1013F000F601EE0FFF1FEA0DFB1DE355FF4F608165
:101400007181F501808964177507E4F4682F70E035
:1014100061507109E616F706ACF4E22FF0E0DD96B4
:101420006C91DD97062E000C770BE617F70709F491
:101430006EC6DE966C91062E000C770BE617F7074A
:1014400009F465C690E00297E816F906D4F5D801CC
:10145000DF968C91DF97082E000C990BC816D906E1
:1014600041F0DE968C91082E000C990BC816D90617
:1014700041F5C501820F911D820F911DFC01E355BD
:10148000FF4F8081918184179507DCF4B7016E5F6F
:101490007F4FC50182960E94B413F501E855FF4FB6
:1014A000808190E0F80124AD022E000C330B8217EE
:1014B000930709F002C681E0850D511027C6552417
:1014C0005394652DD801DA968D919C91DB970E94FB
:1014D000601BD801DA96ED91FC91DB97E054FF4F49
:1014E000808181111FC6F3018081082E000C990BA9
:1014F000D3962D913C91D497281739070CF412C636
:1015000062E085E893E00E94E31C64E471E085E812
:1015100093E00E94B51CE0919303F0919403E4AD35
:10152000EE0FFF0BEE5CFB4FBE016F5F7F4F8081C4
:1015300091810E940A20BC0185E893E00E94B51CBD
:101540006BE471E085E893E00E94B51CE0919303A1
:10155000F0919403E5ADEE0FFF0BEE5CFB4FBE0187
:101560006F5F7F4F808191810E940A20BC0185E8D6
:1015700093E00E94B51C60E571E085E893E00E946D
:10158000B51CE0919303F0919403E7ADEE0FFF0BD0
:10159000EE5CFB4FBE016F5F7F4F808191810E94A7
:1015A0000A20BC0185E893E00E94B51C65E571E066
:1015B00085E893E00E94B51CE0919303F0919403B9
:1015C000E6ADEE0FFF0BEE5CFB4FBE016F5F7F4F92
:1015D000808191810E940A20BC0185E893E00E94ED
:1015E000B51C6AE571E085E893E00E94B51C0091A6
:1015F000930310919403F12C5FC05394D5018C9107
:10160000882309F436CD6091BC02C8010E946E1394
:1016100030CDF601528AA8014E5B5F4FD801D396B8
:101620002D913C91D497BEEF5B1220C0FA018081CE
:1016300087FD8F5F8595082E000C990BD801DA96EF
:10164000ED91FC91DB978217930754F4DF01A054CE
:10165000BF4F81E08C9384E090E0918F808F62C5D2
:10166000CF0180549F4FDC011C92148AFA018081C3
:10167000082E000C990B40CFF21658F5F801EC0D2E
:10168000FD1D8081282F30E064E0359527956A950F
:10169000E1F72A3000F1295C2F8B8F708A30E8F057
:1016A000895C888F198EBE01695E7F4FF80182AD1B
:1016B00093AD0E94B51CF394CF2CD12CD801D296B7
:1016C0008C91D29790E0D8962C91C816D906A4F2A6
:1016D00006C080E0D7CF205DDFCF805DE2CFF2167D
:1016E00028F4F801EC0DFD1D608101C060E06295F9
:1016F0006F706A3010F0695C01C0605DD801DA96E5
:101700008D919C91DB970E94E31CF80123A934A9D9
:10171000C90168E070E00E94DF2B059724F4277070
:101720003327232BB1F4D801D8968C91F81628F4DE
:10173000F801EC0DFD1D608101C060E06F706A3042
:1017400010F0695C01C0605DF80182AD93AD0E944C
:10175000E31C6EE571E085E893E00E94B51CE09122
:101760009303F0919403E05CFF4FBE016F5F7F4FE6
:10177000808191810E940A20BC0185E893E00E944B
:10178000B51C62E671E085E893E00E94B51CE0912B
:101790009303F0919403BE016F5F7F4F83A994A9D7
:1017A0000E940A20BC0185E893E00E94B51C6BE30F
:1017B00085E893E00E94E31C88E494E00E94A41C66
:1017C000811118C06EE371E085E893E00E94B51CBA
:1017D00080914704BE016F5F7F4F90E00E940A2016
:1017E000BC0185E893E00E94B51C6BE385E893E0BB
:1017F0000E94E31C63E085E893E00E94E31C6AE03A
:1018000085E893E00E94E31C1092450481E08093F8
:1018100098036AC1DF968C91DF978F3F09F417CC4C
:10182000DD968C91DD978F3F09F411CCDE968C917B
:101830008F3F09F40CCC60962CAD3DAD4EAD5FAD45
:1018400060972BA33CA34DA35EA32F8F38A349A37E
:101850005AA341E050E023965FAF4EAF2397A12CEF
:10186000B12C1FEFD101DA96ED90FC90DB97F701D8
:10187000808990E0A816B9060CF0E9CBB501C70144
:1018800082960E94B413F701E855FF4F0081802F24
:1018900090E0D101DC962C91DC97022E000C330BEA
:1018A0008217930709F4DFC2DD962C91022E000CFB
:1018B000330B8217930709F4D6C2D101DF962C911E
:1018C000022E000C330B8217930709F4CCC2F101EE
:1018D00026AD022E000C330B8217930709F4C3C206
:1018E000D101DA96ED91FC91DB9781899501281B56
:1018F00031096296AEADBFAD62978C91082E000C97
:10190000990B821793070CF0F1C2A28AF10182AD04
:1019100093ADDC0152964C91529751966C910E9476
:10192000F213D101DA96ED91FC91DB97DE96BC9132
:10193000B9ABD101DD96BC91BBABD101DF960C9167
:10194000DF97DC96BC91BFABDF0129A9A20FB11DC7
:1019500027FDBA9516968C91DF013BA9A30FB11D07
:1019600037FDBA951696CC90D12CC80ED11CDF014C
:10197000A00FB11D07FDBA9516968C91C81AD10813
:10198000DF014FA9A40FB11D47FDBA9516968C91A2
:10199000ABADBCAD1C92C81AD108D7FE03C0D19420
:1019A000C194D1080D2C000CEE08FF088089E82FA7
:1019B000F0E02C96FFAFEEAF2C97BF01FF0F880B26
:1019C000990B0E94092A2AE037ED43E25DE30E9469
:1019D000682A2B013C0120E030E0A9010E94342D4F
:1019E00020E030E040E05FE387FD4AC2C301B2017E
:1019F0000E94202C0E94FE2C6C157D058E059F05F3
:101A00000CF425CBFDAD2EADF21321CB3BA94FA994
:101A1000341709F41CCB59A9501709F418CB041733
:101A200009F415CB531709F412CB541709F40FCB53
:101A3000301709F40CCBDE015F96FE01B39681915D
:101A40009D91891322C28E169F06C9F78FA979A985
:101A50006AE0769F800D1124ABA99AE0A99F000D42
:101A600011248A3008F48C590A3008F40C59AE015C
:101A7000415E5F4FFE01B3966F01E82EF12C602F9F
:101A800070E0D6018D916D01082E000C990B8E151A
:101A90009F0509F091C3CE014F96FE01B3962191A7
:101AA000022E000C330B2617370709F08EC3E815FA
:101AB000F90509F09AC380E0C814D90409F4EBC110
:101AC0004F5F5F4F8111DDCFF101E05CFF4F88ADCB
:101AD00099AD66E070E00E94DF2B718360832696EB
:101AE000FFAD2697F111F1C880918603882309F490
:101AF00058C180914504811154C180919D039091FA
:101B00009E03019709F04DC180919803811188C10E
:101B100080919503883208F448C162E085E893E03B
:101B20000E94E31C80918903882309F48EC066E635
:101B300071E085E893E00E94B51C40E060E085E834
:101B400093E00E94F213F12C80914204F816C8F53C
:101B50008F2D90E0FC01EE0FFF1FEE5CFB4F00812C
:101B600011810115110559F1FC01EB57FC4F8681DC
:101B7000882329F16F2D17FF05C0606A1195019523
:101B8000110901C06068E02E07FD04C0F02FF06865
:101B9000EF2E01C0606185E893E00E94E31C6E2D8A
:101BA00085E893E00E94E31C612F606885E893E07C
:101BB0000E94E31C6BE385E893E00E94E31CF3942E
:101BC000C3CF8091950380FF07C064E685E893E06A
:101BD0000E94E31C10E012C064E4F8CF80912C0452
:101BE000181730F4E12FF0E0EB57FC4F22A12DA79E
:101BF0006DA585E893E00E94E31C1F5F8091260499
:101C0000811760F76FE271E085E893E00E94B51CF0
:101C100060918503605D85E893E00E94E31C6BE3BF
:101C200085E893E00E94E31C88E494E00E94A41CF1
:101C300081119EC062E585E893E00E94E31C8091DB
:101C4000470490E00E9461228EC06AE671E085E858
:101C500093E00E94B51C40E060E085E893E00E94BC
:101C6000F21310E0809142041817C0F5812F90E024
:101C70009C01220F331FA9014E5C5B4F7A01DA01F0
:101C80002D913C91232B41F1FC01EB57FC4F8681B8
:101C9000882311F160E585E893E00E94E31C60E38E
:101CA000610F85E893E00E94E31C6DE385E893E013
:101CB0000E94E31CBE016F5F7F4FF701808191811D
:101CC0000E940A20BC0185E893E00E94B51C6BE3EA
:101CD00085E893E00E94E31C1F5FC4CF6BE571E0D1
:101CE00085E893E00E94B51C10E0809195031817D9
:101CF00078F4612F70E087EA93E00E94B41360915A
:101D00002D04605D85E893E00E94E31C1F5FEDCF2A
:101D10006EE671E085E893E00E94B51C6091850352
:101D2000605D85E893E00E94E31C6BE385E893E047
:101D30000E94E31C88E494E00E94A41C811118C056
:101D40006EE371E085E893E00E94B51C8091470442
:101D5000BE016F5F7F4F90E00E940A20BC0185E8C2
:101D600093E00E94B51C6BE385E893E00E94E31CBE
:101D700080919A03882331F061E471E085E893E073
:101D80000E94B51C63E085E893E00E94E31C6AE0D2
:101D900085E893E00E94E31C1092990381E0809310
:101DA00098038091980381113BC080919903882307
:101DB000D9F140914204E2E3F4E080E090E020EDCC
:101DC000E22E27E0F22E841710F010E00CC02191D3
:101DD00031911216130624F42E153F050CF47C01E4
:101DE0000196F1CF1F5F809195031817C8F4F0EDAD
:101DF000EF16F7E0FF06A1F0612F70E087EA93E0AD
:101E00000E94B41380912D04082E000C990BE81643
:101E1000F90641F76FEF610F85E893E00E94601BC0
:101E2000809199038111E7C11091980385E893E0AF
:101E30000E946D1410939803DEC175010C94D703B2
:101E40001093440482E090E090939E0380939D035E
:101E5000E09296030C94FE03101611060CF089C153
:101E6000F101D5AEE4C8D101DA96ED91FC91DB9792
:101E7000808990E00197A816B90609F048C030CDD6
:101E8000C301B2010E941F2CB5CD9F3F39F08F3F97
:101E900009F0D9CD03C0882309F416CE2C962EADB7
:101EA0003FAD2C972A193B096296EEADFFAD6297C4
:101EB0008081082E000C990B821793070CF0C7C87D
:101EC0001BA31F8F1CA318A31DA319A31EA31AA332
:101ED0005FEFA51AB50A23966EAD7FAD23976F5FAE
:101EE0007F4F23967FAF6EAF2397BCCCABADBCAD1D
:101EF0001C926996EEADFFAD699710821F8F1BA3F0
:101F000018A31CA319A31DA31AA31EA3E1CFABAD55
:101F1000BCAD8C91811103C0A18AE1E0EC93D101A9
:101F2000DA96ED90FC90DB9723966EAD7FAD23970C
:101F3000C70182960E94B413F701E855FF4F8081D4
:101F4000BAE00B9F800D11248A3008F48C59A0FC54
:101F500003C02BA59CA502C029A59AA5E22FF92FA5
:101F600090E0482F50E06081262F062E000C330BA6
:101F70002417350719F06F3F19F48083292F01C00A
:101F80002FEF9F5F943009F4A3CF31962F3F59F381
:101F90009FCFE090BC02D801DA968D909C90DB97A1
:101FA000B1E0EB123AC0E2E0CE1AD108B601C401AA
:101FB00082960E94B413F401E855FF4F9081D80136
:101FC000DF968C91DF97981709F464C0DA968D90AC
:101FD0009C90DB97B601C40182960E94B413F40171
:101FE000E855FF4FA081AA0FBB0B8A0E9B1ED401A0
:101FF000A355BF4FF80182AD93AD24ADE22FEE0F94
:10200000FF0BE80FF91FE355FF4F2D913C918081A5
:10201000918128173907F4F13AC0E11038C0F2E095
:10202000CF1AD108B601C40182960E94B413F401FC
:10203000E855FF4F9081D801DE968C91DE97981776
:1020400049F1DA968D909C90DB97B601C401829697
:102050000E94B413F401E855FF4FA081AA0FBB0BF7
:102060008A0E9B1ED401A355BF4FF80182AD93ADDC
:1020700025ADE22FEE0FFF0BE80FF91FE355FF4FE1
:102080002D913C9180819181821793071CF0FA94E5
:10209000FA94A8C86E2DC8010E946E13F8CFF401FF
:1020A000808990E00197E816F9060CF013C9809139
:1020B000BC0284258093BC02A1CA25AD022E000C6F
:1020C000330B8217930709F4F6C9C2ACD3ACB7013E
:1020D0006D5F7F4FC60182960E94B413F601E855EA
:1020E000FF4F808190E0F80127AD022E000C330BEA
:1020F0008217930709F4DFC9F80126AD022E000C00
:10210000330B8217930709F0DCC9D5C9582E5394B5
:10211000D801DA96ED91FC91DB9784E090E0918F05
:10212000808FCFC980914504882309F4DDCC80914C
:10213000990381116BCB1092A70310922604109281
:1021400028041092270487E080932B0410929503B3
:1021500081E080939903C8CCF101D7AE3EAD3F5FDB
:102160003EAF48AD59AD401B510B59AF48AF0C9431
:102170002008D101DC96DC92F1CF0E94B41390913B
:102180002D048091440498130C94290460919703C2
:1021900070E087EA93E00E94B41390912D0480913F
:1021A000850398130C9429048091970381508093A0
:1021B000970311E00C943004FA018081082E000C82
:1021C000990BE816F90651F466CCDC012C91022E2D
:1021D000000C330B6217730719F469CC81E06CCCE7
:1021E000E815F905D9F301965ACCC814D90409F4B5
:1021F0006BCC80E065CCC85ADF4F0FB6F894DEBFD9
:102200000FBECDBFDF91CF911F910F91FF90EF9047
:10221000DF90CF90BF90AF909F908F907F906F9006
:102220005F904F903F902F900895FC01918D828D8B
:10223000981761F0828DDF01A80FB11D5D968C911A
:10224000928D9F5F9F73928F90E008958FEF9FEF25
:102250000895FC01918D828D981731F0828DE80FE1
:10226000F11D858D90E008958FEF9FEF0895FC019B
:10227000918D228D892F90E0805C9F4F821B910968
:102280008F7399270895FC01CB01642F0994FC01F9
:1022900009948F929F92AF92BF92CF92DF92EF926A
:1022A000FF928FB7F894C090D902D090DA02E090F4
:1022B000DB02F090DC028FBF8091BF029091C002E0
:1022C000A091C102B091C202C816D906EA06FB0667
:1022D00048F48091BD029091BE0201969093BE0297
:1022E0008093BD02C092BF02D092C002E092C102B0
:1022F000F092C202A091BD02B091BE0227E339E87C
:1023000041E450E00E946E2B4B015C01C701B60115
:1023100028EE33E040E050E00E944C2BC501B401B0
:10232000620F731F841F951FFF90EF90DF90CF9077
:10233000BF90AF909F908F900895E8988AE29DE1BA
:102340009093010180930001E4E5F4E0118213828F
:1023500012820895CF93DF93DC01CD91DC91119728
:102360001296ED91FC91139714962D913C9115972F
:10237000C9019595879520FF0AC0DE01A80FB91FF6
:102380002D913C91E20FF31F0190F081E02D8C0F15
:102390009D1FDF91CF9109940F931F93CF938C01D1
:1023A000C62F84EE92E00E94591D892BD1F34C2F49
:1023B00050E0B80184EE92E0CF911F910F910C9400
:1023C0002B1D0F931F93F8940E94581E00918103B8
:1023D000109182032091830330918403AB01BC01EF
:1023E000401B510B620B730B22E02093D70281E05C
:1023F0009DE79093D6028093D502909387008093B7
:10240000860082E18093810041303DE753076105FA
:10241000710588F14A9903C02FEF32E802C021E02C
:102420003DE7809155048A35D8F4809155048F5F3B
:102430008093550480915604609154040E94BF2BF0
:1024400090935604E0915604F0E0EE0FFF1FE85A17
:10245000FB4F31832083809156048F5F8093560415
:102460000E94581E609381037093820380938303BC
:102470009093840338C0413187E2580761057105A4
:1024800090F181E19DE7A0E0B0E0841B950BA60BE5
:10249000B70B33E0880F991FAA1FBB1F3A95D1F7DE
:1024A000009731E0A307B10520F421E02093D70283
:1024B00009C02093D70223E0B695A79597958795F5
:1024C0002A95D1F79093D6028093D5028091D502B8
:1024D0009091D60290938700809386008091D702D6
:1024E0008061809381002091D802E9E8F1E0849135
:1024F000E5E7F1E09491E1E6F1E0E491EE2309F4FF
:102500003CC0882339F1833091F038F48130A9F050
:10251000823001F584B58F7D12C0873091F088300C
:10252000A1F08430B9F4809180008F7D03C0809148
:1025300080008F77809380000DC084B58F7784BD35
:1025400009C08091B0008F7703C08091B0008F7D6B
:102550008093B000F0E0EE0FFF1FE65BFE4FA59109
:10256000B4913FB7F894211104C08C9190959823B1
:1025700002C0EC919E2B9C933FBF1092D80278949E
:102580008091C30291E0980F9093C302811104C01F
:102590001F910F910C9449111F910F910895CF92A3
:1025A000DF92EF92FF920F931F93F8940E94581EB0
:1025B0000091810310918203209183033091840361
:1025C0006B017C01C01AD10AE20AF30A9701860165
:1025D00060938103709382038093830390938403B9
:1025E0000A3511052105310578F181E0C8168DE71E
:1025F000D806E104F10410F4960102C021E03DE7A1
:102600004A9B03C0319521953109809155048A3543
:10261000D8F4809155048F5F8093550480915604BF
:10262000609154040E94BF2B90935604E09156048D
:10263000F0E0EE0FFF1FE85AFB4F318320838091BB
:1026400056048F5F8093560478941F910F91FF90EA
:10265000EF90DF90CF900895FC01848DDF01A80FEB
:10266000B11DA35ABF4F2C91848D90E001968F73BA
:102670009927848FA689B7892C93A089B1898C91D9
:10268000837080648C93938D848D981306C0028828
:10269000F389E02D80818F7D808308950C942E2B0B
:1026A0000C94262B8FEC92E1909301018093000112
:1026B000E9E6F0E080818C7F81608083E89A08956C
:1026C000CF93C82F803120F480E090E00E946320F7
:1026D00060E170E08C2FCF910C94FC1FFC0187A966
:1026E0008730A9F423A934A91216130684F492A9F9
:1026F000492F50E020AD30E02150310942175307F7
:102700008CF59F5F92ABDF01A90FB11D1C9295A9BB
:10271000492F50E0282F30E02F5F3F4F241B350B0F
:102720001216130624F401C0660F2A95EAF722A9AF
:10273000DF01A20FB11D2C91622B6C9323A934A948
:102740002F5F3F4F34AB23AB282F082E000C330BE9
:10275000241B350B37FD02C0891B01C087E087AB06
:1027600081E0089580E00895CF93DF93FC01EE5758
:10277000FF4F4081469FD001479FB00D1124FD01BE
:1027800023E0F695E7952A95E1F7EC01CB57DF4F6B
:10279000288130E0E217F3070CF52297288130E01A
:1027A000A770BB2702C035952795AA95E2F7E80FD9
:1027B000F91F3081232330E058E0541B469F402D01
:1027C00011244770541B02C0359527955A95E2F79E
:1027D000FC01EA57FF4F2083822F01C08FEFDF916A
:1027E000CF9108950F931F93CF93DF93DC01509601
:1027F0008C915097882309F46BC0FD0136969D019A
:10280000225F3F4F11922E173F07E1F7411101C0A0
:10281000482F262F30E035952795E42FF0E0F595E9
:10282000E79560FF17C0ED01C955DF4F8881281774
:1028300028F4ED01C20FD31F9AA101C090E0892FA7
:102840008F70ED01C80FD11D8E818F5F8E832F5F3A
:102850003F4F01C090E08D0109551F4F622F70E07E
:102860006E177F07F0F4E8018881281720F4ED0146
:10287000C60FD71F9AA1C92FD0E034E0D595C795D0
:102880003A95E1F7CA0FDB1F8E818F5F8E83892F08
:102890008F70ED01C80FD11D8E818F5F8E832F5FEA
:1028A000DDCF40FF15C0ED01C955DF4F8881E81726
:1028B00018F4EA0FFB1F92A1E92FF0E084E0F595F0
:1028C000E7958A95E1F7EA0FFB1F86818F5F868384
:1028D000DF91CF911F910F910895CF93DF93FC016A
:1028E000DC01A354BF4F1C9211961C9212A25D975B
:1028F0001C92119611961C921E92149687E08C934E
:10290000108A118E108E59968FEF8C938083EF0171
:10291000C355DF4FA95BB109CF010E9619921992E9
:102920001D92A817B907D1F7138A86E990E0978B13
:10293000868BDF01A755BF4F40E050E060E87EE3A3
:102940004D935D936D937C931397118A148A158A26
:1029500057961C92128A11A210A283E08583DF9100
:10296000CF9108952F923F924F925F926F927F92F4
:102970008F929F92AF92BF92CF92DF92EF92FF928F
:102980000F931F93CF93DF93CDB7DEB7C959D140D3
:102990000FB6F894DEBF0FBECDBF0E949D11CF5F72
:1029A000DE4F19821882C150D14081E0C85EDE4FEF
:1029B0008883C851D140C75EDE4F19821882C95141
:1029C000D140C05DDE4F8883C053D140CF5CDE4F25
:1029D00019821882C153D140C85BDE4F8883C85426
:1029E000D140C75BDE4F19821882C954D140C05A0A
:1029F000DE4F8883C056D140CF59DE4F19821882EE
:102A0000C156D140C858DE4F8883C857D1409E0177
:102A10002F5F3F4F790180E091E0D901FC011D92C9
:102A20003197E9F7C758DE4F39832883C957D1401A
:102A300044244A9404EC12E033243A94C757DE4FFE
:102A40001882C958D140F1E0C857DE4FF883C85802
:102A5000D14078E1572E3E017394E2E02E2ED8014A
:102A60008C91833509F055C011968C91833459F4BB
:102A70003394E1E0F1E0EC0FFD1F539CE00DF11DFC
:102A80001124128220C08D3471F43394E1E0F1E01E
:102A9000EC0FFD1F539CE00DF11D1124B1E0B2833A
:102AA00088E391E025C08235A1F43394E1E0F1E0C0
:102AB000EC0FFD1F539CE00DF11D112422828DE2CD
:102AC00091E00E94FE1DC857DE4F1882C858D140C1
:102AD00011C08E3479F43394E1E0F1E0EC0FFD1F86
:102AE000539CE00DF11D112423E0228389E191E044
:102AF0000E94FE1D3110E2C086E091E00E94FE1DA2
:102B000043E050E064EC72E084EE92E00E942B1D02
:102B100034C08035D9F5D80112968C9112978D3337
:102B200009F0CCC011968C9160EDD62ED80EB7E08E
:102B3000BD1508F4C3C04AE050E0BE0167587E4F9F
:102B4000C80103960E94EB272CE0239DF00111247D
:102B5000ED0DF11DEE0FFF1FA1E0B1E0AC0FBD1FA9
:102B6000EA0FFB1F7087678388EF90E00E94FE1DCD
:102B70003110A4C0C8010E94B91FC758DE4FF982A6
:102B8000E882C957D14000E010E098C0823501F5D5
:102B9000F80181818D3309F091C04AE050E0BE0117
:102BA00067587E4FC80102960E940129D62EE1E0A7
:102BB000F1E0EC0FFD1F539CE00DF11D1124678B1C
:102BC00087EE90E00E94E31D8D2D0E940A1ED0CF5B
:102BD0008434E1F5D80111968C918D3309F06EC0E3
:102BE00088248394982C8C0E9D1E539C800C911CE1
:102BF00011246801B2E0CB0ED11CF401D482C3824F
:102C0000A301401B510B4D5F5F4F6BE370E0C801A8
:102C100003960E944F2D5C01C758DE4F998388832D
:102C2000C957D140D40116969C938E93159782ED87
:102C300090E00E94E31DC6010E94B91F8CEC90E059
:102C40000E94E31DC5010E94912038C08334E1F445
:102C5000F80181818D3391F54AE050E0BE0167585B
:102C60007E4FC80102960E940129E1E0F1E0EC0FDD
:102C7000FD1F539CE00DF11D1124718360838BEBCC
:102C800090E00E94FE1D1AC08634C1F4D80111964E
:102C90008C918D3399F4C758DE4F28813981C957FB
:102CA000D140201B310BC901019797FDC9019595B2
:102CB0008795C757DE4F8883C958D140C758DE4F24
:102CC00088819981C957D1400817190729F480EBE9
:102CD00090E00E94FE1D67C0E816F90639F00196E3
:102CE000C758DE4F99838883C957D140C758DE4FF4
:102CF00008811981C957D140B12CC758DE4FC8800F
:102D0000D980C957D140CB0CD11CC758DE4FD982CE
:102D1000C882C957D1400E94181E97FD0DC0F60108
:102D200080834B18C758DE4FE881F981C957D140DD
:102D300080818B3361F413C08BEA90E00E94FE1D0A
:102D400081EA90E00E94E31D89E990E01AC08A3090
:102D500009F48EC2442029F0BB24B394CECF411095
:102D60001DC08BEA94E00197F1F78E0113950E9444
:102D7000181E97FF09C081EA90E00E94E31D80E9D8
:102D800090E00E94FE1D78C28A309105A1F3D70120
:102D90008D937D01A017B10751F7EDCF1182011579
:102DA000110509F05CCECD5FDE4F8881C350D14064
:102DB000811113C0C85EDE4FB881C851D140C358DD
:102DC000DE4FB883CD57D140B1110DC0E1E0C358FB
:102DD000DE4FE883CD57D14006C0F1E0C358DE4F47
:102DE000F883CD57D14021E030E0CE57DE4F398314
:102DF0002883C258D14081E091E08C0F9D1F38E1BB
:102E0000339D800D911D1124DC011296C856DE4FB2
:102E1000B983A883C859D140CE57DE4F8881C258A4
:102E2000D1408150C358DE4FB881CD57D1408B1768
:102E300008F0E9C18BE890E00E94E31DCE57DE4F19
:102E400088819981C258D1400E9463208FE20E94FC
:102E50005E206AE070E0C358DE4F8881CD57D140D4
:102E60000E94FC1F212C84E890E00E94E31D6AE090
:102E700070E0822D0E94FC1F8FE20E945E206AE0BB
:102E800070E0832D0E94FC1F8AE790E00E94E31D02
:102E9000E8E1E29D7001112401E011E00C0F1D1F1B
:102EA0000E0D1F1D6801F7E1CF0ED11CD8015796FA
:102EB0008C910E940A1EF8018281823009F088C03C
:102EC000C558DE4F1882CB57D140C258DE4FD98249
:102ED000C882CE57D140F7E0EF0EF11C21E031E07F
:102EE0002C0F3D1F2E0D3F1DC058DE4F3983288308
:102EF000C058D140C8010596CC57DE4F99838883CE
:102F0000C458D1400D5F1F4FC258DE4FA881B98110
:102F1000CE57D1408C91C558DE4FB881CB57D140A8
:102F2000B81708F046C1CC57DE4FE881F981C45884
:102F3000D140A080B180D801CC901196DC900E9445
:102F4000581E2B013C017601F701EA14FB0468F5D9
:102F5000BFEFEB1AFB0A80818053C058DE4FE88137
:102F6000F981C058D140E80FF11DE80FF11D8080B4
:102F70009180640197FE04C0CC24DD24C818D908D0
:102F80000E94581E6415750586059705C8F397FEBF
:102F900002C02B9801C02B9AC601DD0CAA0BBB0BFB
:102FA000480E591E6A1E7B1ECFCF0E94581E641504
:102FB000750586059705C8F3C558DE4FE881CB57E0
:102FC000D140EF5FC558DE4FE883CB57D1409CCF4F
:102FD000813009F0EEC0C258DE4F1882CE57D14082
:102FE000C058DE4F19830883C058D140CC56DE4FFD
:102FF000D982C882C459D14098012B5F3F4FCA562D
:10300000DE4F39832883C659D140C8010396C6577D
:10301000DE4F99838883CA58D140CC56DE4FA881B1
:10302000B981C459D1408C91C258DE4FB881CE5776
:10303000D140B81708F0BDC0C058DE4FE881F98113
:10304000C058D14000811181CA56DE4FA881B98194
:10305000C659D1400D90BC91A02DC457DE4FB98305
:10306000A883CC58D140C657DE4FE881F981CA58B1
:10307000D140E080F1800E94581E2B013C01C558D0
:10308000DE4FE882CB57D140C458DE4FF882CC5790
:10309000D140C801110FAA0BBB0BCC57DE4F888360
:1030A0009983AA83BB83C458D140880F991FAA1F54
:1030B000BB1FC257DE4F88839983AA83BB83CE5838
:1030C000D140C457DE4FA881B981CC58D140C558F2
:1030D000DE4FE881F981CB57D140EA17FB0708F0B2
:1030E0005CC08191C558DE4FF983E883CB57D1404E
:1030F0008A3314F097E301C090E3891B94E0C92E52
:10310000D12C08E0282F880F330BCE56DE4F3983A1
:103110002883C259D1405301420110E0E02EF12C26
:10312000CE56DE4F88819981C259D140E822F922DA
:10313000111104C0E114F10421F405C0E114F104FB
:1031400011F42B9801C02B9ACC57DE4F88819981BE
:10315000AA81BB81C458D140880E991EAA1EBB1EED
:103160000E94581E681579058A059B05C8F31F5FE4
:103170001230F1F6C257DE4F88819981AA81BB8156
:10318000CE58D140480E591E6A1E7B1E069591E00E
:10319000C91AD10809F0BFCF94CFC258DE4FA88119
:1031A000CE57D140AF5FC258DE4FA883CE57D14033
:1031B00034CFC856DE4FE881F981C859D1408081AB
:1031C000833009F02B982394321408F04CCEC85762
:1031D000DE4FF881C858D140FF2331F061E070E044
:1031E00080E090E00E947D1ECE57DE4F288139811D
:1031F000C258D1402F5F3F4FCE57DE4F39832883CF
:10320000C258D14009CEC757DE4F3881C958D14086
:10321000332341F088E690E00E94E31D88E192E0CC
:103220000E94912084EC92E00E94B91FCE01019689
:103230000E94B91FE1E0F1E0EC0FFD1F88E1389E2C
:10324000E00DF11D11248281833059F085E893E06F
:103250000E946D1410925504109257041092560457
:1032600004C083E791E00E9491200E94521304C0A1
:10327000442009F476CD97CDC756DE4F0FB6F894AB
:10328000DEBF0FBECDBFDF91CF911F910F91FF9099
:10329000EF90DF90CF90BF90AF909F908F907F90F6
:1032A0006F905F904F903F902F9008950F931F93D2
:1032B000CF93DF9300D01F92CDB7DEB784EE92E0BC
:1032C0000E943711892B09F4EDC11091D2021E30F2
:1032D00049F489E192E00E94E31D84EC92E00E94AF
:1032E0009120D9C184EE92E00E941511E12FF0E007
:1032F000EC53FD4F80838D30B9F034F48823A1F076
:103300008A3009F0CBC110C0833271F08B3309F0E1
:10331000C5C18EE991E00E94B91F8091D2020E943E
:103320000A1E0E94B214B7C18091C402863509F406
:103330007EC00CF05FC0833409F4A1C00CF055C00E
:103340008F3309F072C18FE30E945E208CE092E01F
:103350000E94E31D86E50E945E208BE292E00E94BF
:10336000E31D82E50E945E208BE292E00E94E31D55
:1033700084E70E945E208BE292E00E94E31D88E5D4
:103380000E945E208BE292E00E94E31D83E50E9492
:103390005E208BE292E00E94E31D80E50E945E20A9
:1033A0008BE292E00E94E31D83E40E945E208BE2A8
:1033B00092E00E94E31D82E70E945E208BE292E091
:1033C0000E94E31D87E50E945E208BE292E00E944E
:1033D000E31D83E70E945E208BE292E00E94E31DE2
:1033E00088E192E00E94912053C18035B9F0823586
:1033F00059F11BC184374CF482370CF049C1873531
:1034000009F4E5C0883571F110C1843709F00DC1A8
:103410000E9449114AE00E94BB1F80C08FE891E0E2
:103420000E9491208BEC97E00197F1F731C18AEE71
:1034300091E00E94E31D85EE91E00E94E31D81EC86
:1034400091E00E94FE1D24C120910C0530910D05D4
:103450002115310511F422E135E0CE010196821BE0
:10346000930B5AC08091C502813519F40E949D11B9
:103470000FC1853409F00CC10E94521309C180911B
:10348000C502873459F034F49CEB980F923008F45D
:1034900048C0FEC0833509F47DC0FAC08AE991E0D6
:1034A0000E94E31D88E991E00E94E31D809188035A
:1034B00090E00E94632086E991E00E94E31D83E989
:1034C00091E00E94E31D88E991E00E94E31D809154
:1034D000860390E00E94632086E991E00E94E31D4C
:1034E00080E991E00E94E31D88E991E00E94E31DDC
:1034F0008091870390E00E94632086E991E00E941A
:10350000E31D82E991E00E94B91F88E991E00E94E1
:10351000E31D8091890390E00E9463200E945A205D
:10352000B7C09091C602923579F034F4933409F023
:10353000AFC0E7E8F3E00DC0933549F0953509F0E9
:10354000A7C0E6E8F3E005C0E9E8F3E002C0E8E878
:10355000F3E0853419F481E0808301C0108220916A
:103560008603622F660F9091870384E0989F9001F5
:103570001124262B60918803262B9091890338E033
:10358000939FC0011124622F682B8FEF90E00E945F
:103590004E137EC067E971E086EC92E00E946E2DCA
:1035A000892B09F475C04AE050E060E070E08CECD3
:1035B00092E00E94EB27862F609346046AE070E059
:1035C0000E94FC1F8DE991E00E94E31D61C0809183
:1035D000C502833529F49091C602933309F458C08B
:1035E000082E000C990B0E94432D892B09F450C022
:1035F0008091C602082E000C990B0E94432D892B46
:1036000009F446C08091C702082E000C990B0E9455
:10361000432D892BE9F18091C802082E000C990BEB
:103620000E94432D892B31F433C087EA91E00E9438
:10363000FE1D31C01B828091C5029091C6029A8303
:10364000898340E150E060E070E0CE0101960E9485
:10365000EB27062F8091C7029091C8029A83898335
:1036600040E150E060E070E0CE0101960E94EB275F
:10367000162F802F90E00E944E136AE070E0802F9A
:103680000E94FC1F8DE30E945E20812F0E940A1E73
:1036900081E08093D8021092D20204C01F5F109381
:1036A000D2020CCE0F900F900F90DF91CF911F910F
:1036B0000F9108950E946A1D81110C945619089566
:1036C0003F924F925F926F927F928F929F92AF92B2
:1036D000BF92CF92DF92EF92FF920F931F93CF93FF
:1036E000DF93DC0154961C925497662309F41AC1A7
:1036F00050962C915097222309F414C130E0A62E45
:10370000B12CA216B3069CF0DF91CF911F910F91BF
:10371000FF90EF90DF90CF90BF90AF909F908F90F1
:103720007F906F905F904F903F900C946D14EC01E0
:103730008C010E551F4FF80120813181A216B3066E
:1037400008F0D2C07C01F2E2EF0EF11CFC01EF5553
:10375000FF4FC9010197A816B90641F41AA21082B9
:10376000D8011D921C9287E035967CC02D01B4EAE9
:103770004B0E511CD2014C91649F3001112453E037
:10378000769467945A95E1F7362C842E912C68E054
:10379000C62ED12CC601B4010E94DF2BC5010E94A8
:1037A000CB2B009709F460C0489F802D112468E05E
:1037B000681B90812701462D43196916D8F46E01C4
:1037C000C60CD11CD60193964C91939750E0062ECF
:1037D00002C0559547950A94E2F79296CC90082E30
:1037E00001C0CC0C0A94EAF74C29D2014D932D016B
:1037F0006394E1CF20FD10C0BE01640F711DAE01C6
:10380000460D511DDA0192969C9101C0990F8A953F
:10381000EAF7DB0192969C932A193B09D8012D9374
:103820003C93829E6001839ED00C929ED00C11240A
:10383000C60168E070E00E94DF2BDE01AA55BF4F91
:10384000882321F097E0981B892F01C087E08C9393
:10385000C6018819990997FD079623E095958795E4
:103860002A95E1F7808322C040814619408377245E
:1038700050E04F5F5F4FB701660D771DC7010E9493
:103880005C2DF201608170E0C6010E94DF2B669D15
:103890009001679D300D769D300D1124D8018D91DA
:1038A0009C911197821B930B8D939C9381E08C8B41
:1038B000F80160817181688B662399F077276150E8
:1038C0007109C7010E94B413FE01E855FF4F8081C2
:1038D000880F990B83559F4F8C0F9D1F99A388A329
:1038E00021C019A218A21EC08EE091E00E94B91F4B
:1038F00081EB91E00E94B91F6AE070E08A2DDF91B0
:10390000CF911F910F91FF90EF90DF90CF90BF90DC
:10391000AF909F908F907F906F905F904F903F906F
:103920000C94FC1FDF91CF911F910F91FF90EF90AE
:10393000DF90CF90BF90AF909F908F907F906F90CF
:103940005F904F903F900895FC0180819181892B79
:1039500051F482819381892B31F48481958121E016
:1039600082278170089580E00895EF92FF920F936F
:103970001F93CF93DF9361157105E1F08B01FB017C
:1039800001900020E9F731977F01E61AF70AEC0170
:10399000C753DF4FCE010E94A41C81110BC04E2DD6
:1039A000B801CE01DF91CF911F910F91FF90EF9061
:1039B0000C94AA1180E090E0DF91CF911F910F91BC
:1039C000FF90EF9008950F931F93CF93DF931F9273
:1039D000CDB7DEB769838C0107531F4FC8010E9422
:1039E000A41C811108C041E0BE016F5F7F4FC80178
:1039F0000E94AA1102C080E090E00F90DF91CF9169
:103A00001F910F9108951F920F920FB60F921124DC
:103A10002F933F934F935F936F937F938F939F93D6
:103A2000AF93BF93EF93FF93E091D302F091D40251
:103A30000995FF91EF91BF91AF919F918F917F91E8
:103A40006F915F914F913F912F910F900FBE0F900B
:103A50001F9018950895CF92DF92EF92FF920F93E7
:103A60001F93CF93DF936C017A018B01C0E0D0E00C
:103A7000CE15DF0581F0D8016D918D01D601ED9154
:103A8000FC910190F081E02DC6010995892B11F080
:103A90002196EECF7E01C701DF91CF911F910F914B
:103AA000FF90EF90DF90CF900895089580E090E030
:103AB0000895FC01538D448D252F30E0842F90E034
:103AC000821B930B541710F0CF9608950197089519
:103AD0000E943E2D84EE92E00E94371121E0892B56
:103AE00009F420E0822F0895EF92FF920F931F9325
:103AF000CF93DF93EC0181E0888F9B8D8C8D9813A1
:103B000005C0E889F989808185FD26C0F62E0B8DD8
:103B100010E00F5F1F4F0F731127E02E8C8DE812FE
:103B20000CC00FB607FCFACFE889F989808185FFC0
:103B3000F5CFCE010E942C13F1CF8B8DFE01E80F43
:103B4000F11DE35AFF4FF0829FB7F8940B8FEA897B
:103B5000FB89808180620AC09FB7F894EE89FF8953
:103B60006083E889F98980818370806480839FBF46
:103B700081E090E0DF91CF911F910F91FF90EF9046
:103B80000895CF93DF93EC01888D8823C9F0EA89EB
:103B9000FB89808185FD05C0A889B9898C9186FD46
:103BA0000FC00FB607FCF5CF808185FFF2CFA88943
:103BB000B9898C9185FFEDCFCE010E942C13E7CF00
:103BC000DF91CF9108950F931F93CF93DF938C01D3
:103BD000C0E0D0E0F801EC0FFD1F6491662341F0D6
:103BE00084EE92E00E94741D892B11F02196F2CF91
:103BF000CE01DF91CF911F910F910895CF93DF9365
:103C00000E94E31DEC010E945A208C0F9D1FDF9142
:103C1000CF910895CF93DF936AE070E00E94FC1F7C
:103C2000EC010E945A208C0F9D1FDF91CF910895C7
:103C30002FB7F8948091D9029091DA02A091DB021B
:103C4000B091DC022FBF8093EC029093ED02A09321
:103C5000EE02B093EF0284EE92E00E94151197FFFE
:103C600026C02FB7F8948091D9029091DA02A091E2
:103C7000DB02B091DC022FBF4091EC025091ED02CB
:103C80006091EE027091EF02841B950BA60BB70BAF
:103C90004091E8025091E9026091EA027091EB02D2
:103CA00084179507A607B707B0F28FEF9FEF089527
:103CB0003FB7F8948091E0029091E102A091E20276
:103CC000B091E30226B5A89B05C02F3F19F00196DD
:103CD000A11DB11D3FBFBA2FA92F982F8827820F92
:103CE000911DA11DB11DBC01CD0142E0660F771FE2
:103CF000881F991F4A95D1F708958F929F92AF928E
:103D0000BF92CF92DF92EF92FF926B017C010E94F3
:103D1000581E4B015C01C114D104E104F104F1F01F
:103D20000E94581EDC01CB0188199909AA09BB0918
:103D3000883E9340A105B10570F321E0C21AD10875
:103D4000E108F10888EE880E83E0981EA11CB11CE2
:103D5000C114D104E104F10419F7DDCFFF90EF9015
:103D6000DF90CF90BF90AF909F908F9008951F925B
:103D70000F920FB60F9211242F933F938F939F931F
:103D8000AF93BF938091D9029091DA02A091DB02A8
:103D9000B091DC023091DF0223E0230F2D3720F4B5
:103DA0000196A11DB11D05C026E8230F0296A11D95
:103DB000B11D2093DF028093D9029093DA02A09381
:103DC000DB02B093DC028091E0029091E102A091CD
:103DD000E202B091E3020196A11DB11D8093E002C1
:103DE0009093E102A093E202B093E302BF91AF91FE
:103DF0009F918F913F912F910F900FBE0F901F9029
:103E000018951F920F920FB60F9211242F933F9384
:103E10004F935F936F937F938F939F93AF93BF93D2
:103E2000EF93FF93E0910201F09103010995FF9157
:103E3000EF91BF91AF919F918F917F916F915F9122
:103E40004F913F912F910F900FBE0F901F9018959B
:103E50001F920F920FB60F9211242F933F934F93FF
:103E60005F936F937F938F939F93AF93BF93EF93E2
:103E7000FF93E0910001F09101010995FF91EF910D
:103E8000BF91AF919F918F917F916F915F914F9172
:103E90003F912F910F900FBE0F901F9018951F927A
:103EA0000F920FB60F9211242F933F934F935F936E
:103EB0006F937F938F939F93AF93BF93EF93FF93F2
:103EC00084EE92E00E942C13FF91EF91BF91AF918D
:103ED0009F918F917F916F915F914F913F912F9122
:103EE0000F900FBE0F901F9018951F920F920FB654
:103EF0000F9211242F938F939F93EF93FF93E09151
:103F0000F402F091F5028081E091FA02F091FB0257
:103F100082FD12C090818091FD028F5F8F7320918E
:103F2000FE02821751F0E091FD02F0E0EC51FD4FEE
:103F3000958F8093FD0201C08081FF91EF919F9149
:103F40008F912F910F900FBE0F901F901895009793
:103F500069F0FC0101900020E9F73197AF01481B9F
:103F6000590BBC0184EE92E00C942B1D80E090E094
:103F700008950C94A71F8F929F92AF92BF920F93B8
:103F80001F93CF93DF93CDB7DEB7A1970FB6F89409
:103F9000DEBF0FBECDBF19A2423008F44AE08E0149
:103FA0000F5D1F4F842E912CA12CB12CA5019401E3
:103FB0000E944C2BE62FB901CA0101501109EA30C9
:103FC00014F4E05D01C0E95CD801EC93232B242BB1
:103FD000252B61F7C8010E94A71FA1960FB6F89480
:103FE000DEBF0FBECDBFDF91CF911F910F91BF906C
:103FF000AF909F908F900895AB01682F41155105A8
:1040000021F484EE92E00C94741D70E080E090E066
:104010000C94BB1FCF92DF92EF92FF920F931F93EE
:10402000CF93DF93FB01009721F480E3808311821B
:1040300037C097FF05C091958195910941E001C076
:1040400040E0EF017F0100E010E02AE0C22ED12C19
:1040500098012F5F3F4FB6010E94DF2B805DD70193
:104060008D937D01CB01009711F08901F1CF44239D
:1040700039F0DF01A20FB31F8DE28C932F5F3F4F0A
:10408000DF01A20FB31F1C92359527952E0F3F1FFE
:104090002C173D0729F088819E9199938C93F8CF36
:1040A000CF01DF91CF911F910F91FF90EF90DF90A3
:1040B000CF90089586E192E00C94A71F682F84EEBC
:1040C00092E00C94741DCF92DF92EF92FF92CF9307
:1040D000DF936C01990FEE08FF08F7FE17C08DE221
:1040E0000E945E20EC0166277727CB016C197D09C1
:1040F0008E099F094AE00E94BB1F8C0F9D1FDF9114
:10410000CF91FF90EF90DF90CF9008954AE0C701E4
:10411000B601DF91CF91FF90EF90DF90CF900C949C
:10412000BB1FCF93DF930E94A71FEC010E945A2070
:104130008C0F9D1FDF91CF9108954F925F926F92E8
:104140007F928F929F92AF92BF92CF92DF92EF9227
:10415000FF92CF93DF9388E192E00E94912089E162
:1041600092E00E94B91FE0914404E7FDD1C0EE0F38
:10417000FF0BEE5CFB4F808191810E94632080E207
:1041800092E00E94B91FE0914404EE0FFF0BEE5C39
:10419000FB4F60817181072E000C880B990B0E94E8
:1041A000092A6B017C01E0918503EE0FFF0BEE5CA9
:1041B000FB4F60817181072E000C880B990B0E94C8
:1041C000092A9B01AC01C701B6010E948C2C6B012E
:1041D0007C014B015C019B01AC010E94392D8823BD
:1041E00019F08FE292E01AC026013701E89477F8BF
:1041F0002FEF3FEF4FE75FE7C301B2010E94392D78
:1042000081110FC02FEF3FEF4FE75FE7C301B2010E
:104210000E94022A18162CF483E392E00E94A71F42
:1042200074C02FEF3FEF4FE75FE4C701B6010E9474
:10423000342D18161CF487E392E0F0CF2FEF3FEFF8
:104240004FE75FECC701B6010E94022A87FDF3CF5A
:1042500020E030E0A901C701B6010E94022A87FFD1
:1042600009C08DE20E945E2046015701B7FAB09462
:10427000B7F8B0942AE037ED43EA5BE3C501B40137
:104280000E94202C4B015C010E94052D6B017C01DA
:104290000E94072A9B01AC01C501B4010E941F2C9A
:1042A0004B015C014AE0C701B6010E94BB1F8EE2D0
:1042B0000E945E2020E030E040E251E4C501B401FC
:1042C0000E94682A4B015C010E94052D6B01E12CC4
:1042D000F12C4AE0C701B6010E94BB1FC701B6011D
:1042E0000E94072A9B01AC01C501B4010E941F2C4A
:1042F00020E030E040E251E40E94682A0E94052D4F
:1043000080E090E04AE00E94BB1F8CE20E945E20A9
:104310008BE392E00E94B91FE0918503E7FD09C09D
:10432000EE0FFF0BEE5CFB4F808191810E946320BA
:1043300004C084E492E00E94B91F89E492E00E94E4
:10434000B91F60919B0370919C0380E090E04AE06C
:104350000E94BB1F81E592E00E94B91F6AE070E0F5
:10436000809142040E94FC1F8DE592E00E94B91FDB
:104370006AE070E0809143040E94FC1F89E20E9481
:104380005E2080E692E00E94B91FE091A303F091C5
:10439000A403808191810E9463208AE692E00E94BA
:1043A000B91FE091A503F091A603808191810E943D
:1043B00063208DE692E00E94B91F6AE070E0809170
:1043C00096030E94FC1F88E792E00E94B91F80912B
:1043D000450490E00E94632080E892E00E94B91FAB
:1043E0008091990390E00E9463200E945A208BE8FC
:1043F00092E00E94B91FC0E080919503C81758F45D
:104400006C2F70E087EA93E00E94B413805D0E94F5
:104410005E20CF5FF1CF84E992E00E94B91F87E967
:1044200092E00E94B91F6AE070E0809195030E94BB
:10443000FC1F8DE50E945E200E945A208AE992E0CE
:104440000E94B91FF12C80914204F81650F584EABD
:1044500092E00E94B91F6AE070E08F2D0E94FC1F5D
:104460008DE792E00E94B91FCF2DD0E0FE01EB57FF
:10447000FC4F6AE070E086810E94FC1F87EA92E0B0
:104480000E94B91FCC0FDD1FCE5CDB4F8881998164
:10449000009711F00E9463208DE50E945E20F39446
:1044A000D2CFDF91CF91FF90EF90DF90CF90BF9070
:1044B000AF909F908F907F906F905F904F900C94F3
:1044C0005A20CF93DF93EC018031910538F024E03E
:1044D000969587952A95E1F70E946122CF70DD2796
:1044E000C655DD4F688185E893E0DF91CF910C944C
:1044F000E31CCF93DF93CDB7DEB72A970FB6F894BE
:10450000DEBF0FBECDBF789484B5826084BD84B514
:10451000816084BD85B5826085BD85B5816085BDBE
:1045200080916E00816080936E0010928100809176
:1045300081008260809381008091810081608093FE
:104540008100809180008160809380008091B10023
:1045500084608093B1008091B00081608093B0004E
:1045600080917A00846080937A0080917A008260E2
:1045700080937A0080917A00816080937A008091A4
:104580007A00806880937A001092C100E091F40272
:10459000F091F50282E08083E091F402F091F5025F
:1045A0001082E091F002F091F1021082E091F202AB
:1045B000F091F30280E180831092FC02E091F80216
:1045C000F091F90286E08083E091F602F091F70223
:1045D000808180618083E091F602F091F702808112
:1045E00088608083E091F602F091F7028081806814
:1045F0008083E091F602F091F70280818F7D8083C5
:104600005298259A80E090E00E945013833339F449
:1046100081E090E00E9450138D3109F482C26FE076
:104620008FEF90E00E944E138BE392E00E94FE1DFC
:1046300063E380E090E00E944E136DE181E090E042
:104640000E944E138FEF90E00E945013982F9170AC
:104650009093880381FB992790F99093860382FBBE
:10466000992790F99093870383FB882780F980939B
:10467000890386E392E00E94FE1D8FE292E00E9491
:10468000E31D81E692E00E94E31D8DE292E00E942C
:10469000FE1D00E010E0C8010E94262B0E9460135E
:1046A0008BE292E00E94E31D802F8F708F3021F407
:1046B00088E192E00E9491200F5F1F4F083311059F
:1046C00051F788E192E00E949120239A8EE892E0CF
:1046D0000E94FE1D62E370E080E090E00E947D1E7B
:1046E00080E1809381001092800082E08093D70265
:1046F00081E09DE79093D6028093D5029093870046
:104700008093860082E18093810081EE91E1909315
:10471000D4028093D30281E080936F001E821D82B9
:1047200083E491E19C838B838B819C81AD81BE81ED
:104730008093500490935104A0935204B093530477
:104740008CEC91E190934F0480934E040E9452139D
:104750008DE792E00E94FE1D80E991E0A0E0B0E0CC
:104760008093E8029093E902A093EA02B093EB02EF
:1047700072E0472E512C612C712C99249394E7E020
:104780008E2EF3E0AF2EB12C80915504882309F4CE
:10479000C5C1809155048150809355048091570480
:1047A000609154040E94BF2B90935704E0915704EA
:1047B00081E08E0F80935704F0E0EE0FFF1FE85A60
:1047C000FB4F808191819093DE028093DD021092F5
:1047D000980360919503662391F070E06150710930
:1047E00087EA93E00E94B41380912D04880F990BFF
:1047F0008E5C9B4F9093A6038093A50304C01092F8
:10480000A6031092A5034091DD025091DE02E091D3
:10481000A303F091A40351834083909195039923BE
:1048200079F0E091A503F091A603309749F020813B
:10483000318124273527232F221F2227221F01C041
:1048400021E031E09E3F09F430E081E0411553481A
:104850000CF480E0832311F0211142C00E948301F7
:1048600080919803811104C0809145048823B1F0A0
:10487000809195038823D1F0E091A503F091A603E0
:104880003097A1F0A091A303B091A4032D913C9186
:10489000808191818227932797FD08C085E893E066
:1048A0000E946D141092A6031092A50380919503A7
:1048B0008E3F09F041C02FB7F8946091D9027091F2
:1048C000DA028091DB029091DC022FBF4AE00E9465
:1048D000BB1F80EA92E00E94FE1D0E949D202CC01A
:1048E000983251F5B0929E03A0929D0388E494E023
:1048F0000E94A41C811120C02091480430914904D9
:10490000E0914A04F0914B0440914C0450914D04C5
:10491000CA019595879540FF0AC0D901A80FB91F14
:104920004D915C91E40FF51F0190F081E02D820F15
:10493000931F099580934704C090A303D090A403CC
:10494000D6010D911C91B80117FF04C06627772787
:10495000601B710B072E000C880B990B0E94092A13
:104960002DEC3CEC4CE45EE30E94682A0E94052D8D
:104970009B0170939C0360939B0370914204E2E35C
:10498000F4E060E07617C1F081919191A801482789
:10499000592757FD0FC0009769F0A801481B590B14
:1049A000CA0157FF03C091958195910928173907CE
:1049B0000CF0C8C06F5FE6CF7830E1F540E060E012
:1049C00085E893E00E94F213E0914304F0E0EB5796
:1049D000FC4F8681833040F00E94830140E060E01C
:1049E00085E893E00E94F213109195031150E09135
:1049F0004304F0E0EB57FC4F86818823D9F0809187
:104A000095038823B9F0612F70E087EA93E00E9454
:104A1000B41320912D04022E000C330B809143041B
:104A200090E02817390711F761E0610F85E893E0FE
:104A30000E94601B10914304E091A303F091A40332
:104A400080819181E12FF0E0EE0FFF1FEE5CFB4FC4
:104A50009183808381E0810F883019F08093430433
:104A600006C0109243048093420410924504809142
:104A7000430490914204981710F480934204312F1C
:104A800020912B0480912704909128042730B9F4B9
:104A900018161906A4F4E09126046E2F70E04091D8
:104AA0002C0450E041505109641775070CF07BC08D
:104AB000EF5FE0932604F0E0EB57FC4F12A2A091C9
:104AC00029044A2F50E0622F70E06F5F7F4F641B14
:104AD000750B161617062CF4312F01C0330F6A958B
:104AE000EAF7E0912604F0E0EB57FC4F62A1362B89
:104AF00032A301969093280480932704622F022EFC
:104B0000000C770BFB01E41BF50BF7FD04C02A1B1F
:104B100020932B043CC080922B0439C00E945A1B66
:104B200033CE88E692E00E94E31D81E692E00E9487
:104B3000E31D8FE592E00E94E31D8FE592E00E9465
:104B4000E31D80CD162F67FD37CF812F880F990B7E
:104B5000DC01AE5CBB4F7D016D917C919B01770FB9
:104B6000440B550BD6018D919C91092E000CAA0B7C
:104B7000BB0B280F391F4A1F5B1FCA01B901A301D4
:104B800092010E94F32BF7013183208378CF809329
:104B900095031092990380919803882309F4F4CD2A
:104BA0009092D802F1CD0E949D206EEB71E085E8D5
:104BB00093E00E94B51C6091960385E893E00E9403
:104BC000E31C67ED71E085E893E00E94B51C6091FD
:104BD000970385E893E00E94E31C6EED71E085E8A1
:104BE00093E00E94B51C612F85E893E00E94E31CCE
:104BF00064EE71E085E893E00E94B51C6091950336
:104C000085E893E00E94E31C6DEE71E085E893E097
:104C10000E94B51C6091260485E893E00E94E31C85
:104C200064EF71E085E893E00E94B51C6091270471
:104C300085E893E00E94E31C6BEF71E085E893E068
:104C40000E94B51C6091990385E893E00E94E31CE3
:104C500064E072E085E893E00E94B51C60919D03DA
:104C600085E893E00E94E31C6CE072E085E893E045
:104C70000E94B51C6091980385E893E00E94E31CB4
:104C80006AE085E893E00E94E31C85CFCF93DF9331
:104C9000E4EEF2E01382128288EE93E0A0E0B0E04E
:104CA00084839583A683B7838DE191E0918380838C
:104CB00085EC90E09587848784EC90E097878687E1
:104CC00080EC90E0918B808B81EC90E0938B828BD9
:104CD00082EC90E0958B848B86EC90E0978B868BB2
:104CE000118E128E138E148EE4E5F4E08AE5808333
:104CF000118213821282C5E8D3E08FE993E09F8F7F
:104D00008E8F19A218A28FE780932C0484E08093E1
:104D100029041AA210922604109228041092270443
:104D200087E080932B0480EF80932A04109247043D
:104D3000109249041092480410924B0410924A04B5
:104D400010924D0410924C0410924F0410924E0495
:104D50001092510410925004109253041092520475
:104D60001B8E1A8ECE010E946D1481E18093460441
:104D70001D8281E08C831F861E860E94581E6093D0
:104D80008103709382038093830390938403DF9164
:104D9000CF9108950F931F93CF93DF9382309105A6
:104DA00010F482E090E0E0910E05F0910F0520E014
:104DB00030E0A0E0B0E0309719F1408151810281EC
:104DC000138148175907C8F08417950769F410979D
:104DD00031F012960C93129713961C9327C00093F0
:104DE0000E0510930F0522C02115310519F0421749
:104DF000530718F49A01BD01EF01DF01F801DBCF81
:104E000021153105F9F0281B390B2430310580F4C8
:104E10008A819B816115710521F0FB019383828357
:104E200004C090930F0580930E05FE01329644C096
:104E3000FE01E20FF31F81939193225031093983D0
:104E400028833AC020910C0530910D05232B41F4A5
:104E5000209106013091070130930D0520930C0538
:104E600020910401309105012115310541F42DB740
:104E70003EB74091080150910901241B350BE09188
:104E80000C05F0910D05E217F307A0F42E1B3F0B64
:104E90002817390778F0AC014E5F5F4F24173507AC
:104EA00048F04E0F5F1F50930D0540930C05819302
:104EB000919302C0E0E0F0E0CF01DF91CF911F912C
:104EC0000F910895CF93DF93009709F481C0FC01FF
:104ED000329713821282A0910E05B0910F051097A0
:104EE00081F420813181820F931F20910C05309134
:104EF0000D052817390751F5F0930D05E0930C05C2
:104F000067C0ED0120E030E0CE17DF0740F44A81B2
:104F10005B819E0141155105F1F0EA01F5CFD38384
:104F2000C28340815181840F951FC817D90759F456
:104F300088819981840F951F0296918380838A814D
:104F40009B81938382832115310529F4F0930F050A
:104F5000E0930E053DC0E901FB83EA834991599135
:104F6000C40FD51FEC17FD0761F480819181840F78
:104F7000951F0296E90199838883828193819B839F
:104F80008A83E0E0F0E012968D919C911397009750
:104F900019F0FD01DC01F7CF8D919C9111979D01D6
:104FA0002E5F3F4F820F931F20910C0530910D050E
:104FB0002817390769F4309729F410920F051092D9
:104FC0000E0502C013821282B0930D05A0930C054A
:104FD000DF91CF910895A0E0B0E0E1EFF7E20C940B
:104FE0007A2B5C016B017A016115710519F0FB01E7
:104FF00091838083E114F10429F0C701029783971C
:1050000008F0E5C0E5012196F5011081812F90E0BF
:105010000E94F629892B11F05E01F4CF1D3229F48C
:105020002196F501118101E007C01B3221F4E50151
:105030002296F501118100E0E114F10409F1F0E19B
:10504000EF16F10429F43FC010E3E114F10421F15B
:1050500028E0E216F10401F154F4E2E0EE16F10466
:1050600021F5812C912CA12CB0E4BB2E3EC0FAE09E
:10507000EF16F10439F020E1E216F104B1F430C08A
:10508000103319F1FAE0EF2EF12CACEC8A2E982CAB
:10509000A82CACE0BA2E29C078E0E72EF12C812CA8
:1050A000912CA12CE0E1BE2E20C060E070E080E0F9
:1050B00090E897010F2C000C440B550B0E944C2BD1
:1050C00049015A0112C0103359F488818F7D883507
:1050D00009F0BACF19812296026080E1E82EF12C06
:1050E000812C912CA12C68E0B62E40E060E070E0AD
:1050F000CB0127010F2C000C66087708FE0150ED4C
:10510000352E310E29E0231570F42FEB210F2A31B3
:1051100018F439EC332E06C02FE9210F2A3118F587
:1051200029EA322E310E232D30E02E153F05DCF416
:1051300047FD16C086169706A806B90670F0A301AB
:1051400092010E943C2B630D711D811D911D6130E8
:105150007105810520E8920710F04FEF01C041E092
:1051600021961081CBCF202F2170C114D10471F072
:10517000442329F02197F601D183C08307C001FFA2
:1051800019C02297F601D183C08314C047FF12C013
:10519000222329F060E070E080E090E804C06FEF27
:1051A0007FEF8FEF9FE722E230E0309311052093ED
:1051B000100509C0222381F0909580957095619526
:1051C0007F4F8F4F9F4F462F372F282F12C040E021
:1051D00030E020E090E00DC097FFF5CF82E290E054
:1051E00090931105809310056FEF7FEF8FEF9FE78E
:1051F000EACF642F732F822FCDB7DEB7E1E10C9495
:10520000962BA0E0B0E0E7E0F9E20C947A2B5C0189
:105210006B017A016115710519F0FB01918380839F
:10522000E114F10429F0C7010297839708F0C9C07F
:10523000E5012196F5011081812F90E00E94F62969
:10524000892B11F05E01F4CF1D3229F42196F5016E
:10525000118101E007C01B3221F4E5012296F5011E
:10526000118100E0E114F104B1F0F0E1EF16F10476
:1052700029F4B0C010E3E114F10401F12AE0E216D0
:10528000F104B1F180E1E816F10471F0E8E0EE1606
:10529000F104F1F413C0103341F588818F7D883516
:1052A00049F7198122960260F0E1EF2EF12C882453
:1052B0008A94982CA82CAFE0BA2E20C078E0E72E74
:1052C000F12C88248A94982CA82CEFE1BE2E16C0CD
:1052D0006FEF7FEFCB0197010F2C000C440B550BA8
:1052E0000E944C2B49015A0109C08AE0E82EF12C9A
:1052F00069E9862E982CA82C69E1B62E40E060E082
:1053000070E0CB0127010F2C000C66087708FE0126
:1053100050ED352E310E29E0231570F42FEB210FBF
:105320002A3118F439EC332E06C02FE9210F2A3127
:1053300030F529EA322E310E232D30E02E153F05AF
:10534000F4F44F3FC9F086169706A806B90688F010
:10535000A30192010E943C2B232D30E040E050E05D
:10536000620F731F841F951F6217730784079507C9
:1053700010F44FEF01C041E021961081C8CFC11455
:10538000D10451F0442311F0219703C001FF04C060
:105390002297F601D183C08300FF07C090958095C6
:1053A000709561957F4F8F4F9F4F4F3F79F482E209
:1053B00090E090931105809310053FEF2FEF9FEF42
:1053C0000DC040E030E020E090E008C0462F372FCD
:1053D000282F04C0103309F067CF5FCF642F732FDD
:1053E000822FCDB7DEB7E1E10C94962B91110C948E
:1053F000FF29803219F089508550C8F70895992700
:10540000882708950E94442A08F481E00895E894CA
:1054100009C097FB3EF490958095709561957F4FFC
:105420008F4F9F4F9923A9F0F92F96E9BB279395AA
:10543000F695879577956795B795F111F8CFFAF4BA
:10544000BB0F11F460FF1BC06F5F7F4F8F4F9F4FEB
:1054500016C0882311F096E911C0772321F09EE849
:10546000872F762F05C0662371F096E8862F70E0AF
:1054700060E02AF09A95660F771F881FDAF7880F89
:105480009695879597F90895990F0008550FAA0BDF
:10549000E0E8FEEF16161706E807F907C0F0121647
:1054A0001306E407F50798F0621B730B840B950B4A
:1054B00039F40A2661F0232B242B252B21F408959F
:1054C0000A2609F4A140A6958FEF811D811D08953C
:1054D0000E947B2A0C94EC2A0E94DE2A38F00E945B
:1054E000E52A20F0952311F00C94D52A0C94DB2AA0
:1054F00011240C94202B0E94FD2A70F3959FC1F378
:10550000950F50E0551F629FF001729FBB27F00D71
:10551000B11D639FAA27F00DB11DAA1F649F6627C6
:10552000B00DA11D661F829F2227B00DA11D621F15
:10553000739FB00DA11D621F839FA00D611D221FCF
:10554000749F3327A00D611D231F849F600D211DB3
:10555000822F762F6A2F11249F5750409AF0F1F036
:1055600088234AF0EE0FFF1FBB1F661F771F881F9F
:1055700091505040A9F79E3F510580F00C94D52AD8
:105580000C94202B5F3FE4F3983ED4F386957795F7
:105590006795B795F795E7959F5FC1F7FE2B880F45
:1055A000911D9695879597F9089597F99F6780E8DB
:1055B00070E060E008959FEF80EC089500240A9465
:1055C0001616170618060906089500240A941216DE
:1055D0001306140605060895092E0394000C11F411
:1055E000882352F0BB0F40F4BF2B11F460FF04C0BE
:1055F0006F5F7F4F8F4F9F4F089557FD9058440F17
:10560000551F59F05F3F71F04795880F97FB991F21
:1056100061F09F3F79F087950895121613061406DE
:10562000551FF2CF4695F1DF08C01616170618066B
:10563000991FF1CF86957105610508940895E89446
:10564000BB2766277727CB0197F90895F999FECFF5
:1056500092BD81BDF89A992780B50895262FF999B2
:10566000FECF1FBA92BD81BD20BD0FB6F894FA9A45
:10567000F99A0FBE01960895DB018F939F930E94C4
:105680006E2BBF91AF91A29F800D911DA39F900D96
:10569000B29F900D11240895A1E21A2EAA1BBB1BE4
:1056A000FD010DC0AA1FBB1FEE1FFF1FA217B307EE
:1056B000E407F50720F0A21BB30BE40BF50B661F04
:1056C000771F881F991F1A9469F7609570958095C8
:1056D00090959B01AC01BD01CF0108950E94B02BB4
:1056E000A59F900DB49F900DA49F800D911D112436
:1056F00008952F923F924F925F926F927F928F9276
:105700009F92AF92BF92CF92DF92EF92FF920F9350
:105710001F93CF93DF93CDB7DEB7CA1BDB0B0FB65A
:10572000F894DEBF0FBECDBF09942A883988488817
:105730005F846E847D848C849B84AA84B984C884AD
:10574000DF80EE80FD800C811B81AA81B981CE0FA4
:10575000D11D0FB6F894DEBF0FBECDBFED01089589
:10576000A29FB001B39FC001A39F700D811D1124A2
:10577000911DB29F700D811D1124911D0895991BDB
:1057800079E004C0991F961708F0961B881F7A9538
:10579000C9F780950895AA1BBB1B51E107C0AA1F3A
:1057A000BB1FA617B70710F0A61BB70B881F991FC2
:1057B0005A95A9F780959095BC01CD01089597FB66
:1057C000072E16F4009407D077FD09D00E94CB2B4A
:1057D00007FC05D03EF4909581959F4F08957095F4
:1057E00061957F4F0895052E97FB1EF400940E944B
:1057F0000A2C57FD07D00E944C2B07FC03D04EF417
:105800000C940A2C50954095309521953F4F4F4F61
:105810005F4F089590958095709561957F4F8F4F5C
:105820009F4F08950E94B02BB7FF0895821B930BE2
:105830000895EE0FFF1F0590F491E02D0994505844
:10584000BB27AA270E94372C0C94EC2A0E94DE2A40
:1058500038F00E94E52A20F039F49F3F19F426F42D
:105860000C94DB2A0EF4E095E7FB0C94D52AE92F83
:105870000E94FD2A58F3BA17620773078407950739
:1058800020F079F4A6F50C941F2B0EF4E0950B2E66
:10589000BA2FA02D0B01B90190010C01CA01A00182
:1058A0001124FF27591B99F0593F50F4503E68F1DD
:1058B0001A16F040A22F232F342F4427585FF3CF1E
:1058C000469537952795A795F0405395C9F77EF4EF
:1058D0001F16BA0B620B730B840BBAF09150A1F038
:1058E000FF0FBB1F661F771F881FC2F70EC0BA0FBE
:1058F000621F731F841F48F4879577956795B79546
:10590000F7959E3F08F0B0CF9395880F08F0992740
:10591000EE0F9795879508950E94A02C0C94EC2A81
:105920000E94E52A58F00E94DE2A40F029F45F3FE9
:1059300029F00C94D52A51110C94202B0C94DB2ABD
:105940000E94FD2A68F39923B1F3552391F3951B27
:10595000550BBB27AA2762177307840738F09F5F90
:105960005F4F220F331F441FAA1FA9F335D00E2EFD
:105970003AF0E0E832D091505040E695001CCAF76A
:105980002BD0FE2F29D0660F771F881FBB1F26172D
:1059900037074807AB07B0E809F0BB0B802DBF0104
:1059A000FF2793585F4F3AF09E3F510578F00C94D3
:1059B000D52A0C94202B5F3FE4F3983ED4F38695D0
:1059C00077956795B795F7959F5FC9F7880F911DF4
:1059D0009695879597F90895E1E0660F771F881FE0
:1059E000BB1F621773078407BA0720F0621B730B93
:1059F000840BBA0BEE1F88F7E09508950E94052DE1
:105A00006894B1110C94202B08950E94052B88F006
:105A10009F5798F0B92F9927B751B0F0E1F0660F72
:105A2000771F881F991F1AF0BA95C9F714C0B130B3
:105A300091F00E941F2BB1E008950C941F2B672F4B
:105A4000782F8827B85F39F0B93FCCF386957795E2
:105A50006795B395D9F73EF49095809570956195CB
:105A60007F4F8F4F9F4F08950E94442A08F48FEF75
:105A700008950E94442A880B990B089581E090E0D4
:105A8000F8940C94912D91110C94FF2980538A5015
:105A900028F0865C806281568650B0F70895FC013C
:105AA0004150504030F001900616D1F73197CF01A8
:105AB00008958827992708956817790768F4FB01E6
:105AC000DC01E40FF51FA40FB51F02C002900E9277
:105AD00041505040D8F708950C94882DFB01519106
