:100000000C944D010C94711C0C944A1C0C947501B9
:100010000C9475010C9475010C9475010C94750188
:100020000C9475010C9475010C9475010C94750178
:100030000C9475010C948F160C9475010C94750139
:100040000C94E8230C9475010C94BE1C0C94981C21
:100050000C9475010C9475010C9475010C94750148
:100060000C9475010C9475016363466163746F723F
:1000700079526573657420646F6E65000D2E2D478F
:10008000D3913D04320000060010B07157C43023F4
:10009000B900070018146C070091876BF8B611E9D6
:1000A0002A001F4100746F206C6F6E672000636F21
:1000B00072727570740073656E6420636D642000E5
:1000C000496E697420656570726F6D20746F20646D
:1000D000656661756C747320616674657220666C08
:1000E000617368003B523D004D4E3B443D00436F01
:1000F0006D6D616E6420746F206C6F6E673A2000C6
:100100004D43004D55003B003D004D5300206269BA
:10011000747320736574003A20006363726567200E
:10012000002000433345203D002064656C61793137
:1001300020002063686970537461747573200063D4
:100140006D645374726F62655265672000556E73FB
:100150007570706F727465642073686F7274206359
:100160006F6D6D616E6400636F6D6D616E642065AF
:10017000006973206E6F7420636F72726563746CB4
:10018000792073657420666F722041534B2F4F4F57
:100190004B2E20506C6561736520646F2061206672
:1001A0006163746F7279207265736574207669611A
:1001B0002000203D2000203A00454550524F4D0080
:1001C00020746F2050415441424C4520646F6E654D
:1001D0000077726974652000202D20636F6D70694F
:1001E0006C656420617420536570202035203230A6
:1001F00032302031353A30313A35370020756E6B68
:100200006E6F776E004C0030450031003000434384
:1002100031313000636869700063633131303120FF
:10022000005620332E352E302D6465765F32303205
:100230003030383131205349474E414C6475696E36
:100240006F2000200020557365206F6E65206F665B
:10025000200000000000250028002B0004040404F6
:100260000404040402020202020203030303030360
:10027000010204081020408001020408102001023D
:100280000408102000000008000201000003040719
:100290000000000000000000CA2911241FBECFEF9B
:1002A000D8E0DEBFCDBF12E0A0E0B1E0E0E4F8E6C8
:1002B00002C005900D92A832B107D9F724E0A8E258
:1002C000B2E001C01D92AF3BB207E1F711E0CDE40F
:1002D000D1E004C02197FE010E949D2FCC34D107AC
:1002E000C9F70E9493250C941E340C9400002F92A1
:1002F0003F924F925F926F927F928F929F92AF92B6
:10030000BF92CF92DF92EF92FF920F931F93CF9302
:10031000DF93CDB7DEB7C955D1090FB6F894DEBF6C
:100320000FBECDBF9E012F5F3F4F190186E1D9015E
:100330001D928A95E9F78091F20320914203811181
:1003400004C0283210F40C94E00E1092450391E0A2
:100350002E3F09F090E09093470340E060E0811168
:100360004BC282E393E00E946B14D12CED2DF0E0A0
:10037000FEA7EDA7F091EF03FFA78F2F90E0019765
:100380002DA53EA5281739070CF016C1F901EE5C22
:10039000FC4FCF0106962681222309F40BC1CC2401
:1003A000C394CD0C2DA53EA5220F331FA9014152A8
:1003B0005C4F5AAB49AB9CAB8BAB5EAB4DAB80910A
:1003C000EF03C81608F0F6C06C2C712CB3016E5CFC
:1003D0007C4F78AB6FA7DB0116968C91882309F4CC
:1003E000E7C0E9A9FAA9E080F180F301EE0FFF1F51
:1003F000E152FC4F00811181C7018027912797FDB1
:10040000D7C08090DB039090DC03A090DD03B09018
:10041000DE03B80117FF04C066277727601B710B46
:10042000072E000C880B990B0E948D2DA5019401BD
:100430000E94EC2D6FAB78AF89AF9AAFB701F7FE92
:1004400004C0662777276E197F09072E000C880BDA
:10045000990B0E948D2DA50194010E94EC2D9B010A
:10046000AC016FA978AD89AD9AAD0E94A42F20E0B0
:1004700030E040E05FE30E94EC2D0E9410300E1946
:100480001F0917FF03C01195019511096017710726
:100490000CF48EC0F12CE12C0FA518A90A5F1F4F98
:1004A00080914203F81608F049C0D8018C91E816F3
:1004B00008F044C06F2D70E084E593E00E94C513FE
:1004C0008091DA03082E000C990B68167906A1F5C5
:1004D0008091D603482F50E0F89EC0011124FC0102
:1004E00063E0F695E7956A95E1F72091D903E21765
:1004F00010F587709927FF27EE5CFC4F2091D703FA
:1005000030E0082E02C0359527950A94E2F7209531
:1005100032A1232368E070E0641B750BDB01A81B8C
:10052000B90B4DA55EA502C0440F551FAA95E2F771
:10053000CA01822B82A3E394F394B2CFABA9BCA9E6
:10054000EC90EFA5F8A9F680EDA9FEA9A081B181F4
:100550008301000F111F01521C4FF801A080B180D0
:10056000EE2DF0E09F010E94962F2B013C014F2DB4
:1005700050E09A01D5010E94962F640D751D861DCD
:10058000971DE40FF51F9F01FF0F440B550B0E94B1
:10059000772FADA9BEA92D933C93FE0CEBA9FCA926
:1005A000F082AFA5B8A916961C92F80111821082AC
:1005B000C39405CFD394DACE10924B0310924A0322
:1005C0008FEF80933203F0914203F9AB2F2F30E08D
:1005D0003CAB2BAB42E3C42E43E0D42E4FED53E0B3
:1005E0005EA74DA7E12CF12C0FEF1FEF4901330F50
:1005F000AA08BB085FA5E51608F05EC00F3F6FEFC5
:10060000160709F5ADA5BEA58D919C9197FD1BC060
:10061000F601668170E080E090E00E948D2D2B0154
:100620003C01C501B4010E948D2D2BE734E14EE25F
:100630005EE30E94EC2D9B01AC01C301B2010E945C
:10064000463018165CF1ADA5BEA58D919C9197FD25
:1006500026C0F801EE0FFF1FE152FC4F20813181CF
:1006600082179307E4F4F601668170E080E090E081
:100670000E948D2D2B013C01C501B4010E948D2DDE
:100680002BE734E14EE25EE30E94EC2D9B01AC01CE
:10069000C301B2010E94463018160CF48701FFEF27
:1006A000EF1AFF0A2FEFC21AD20A4DA55EA54E5FC0
:1006B0005F4F5EA74DA79ECF0F3F5FEF150741F03D
:1006C0000093320381E090E090934B0380934A03C0
:1006D00080914A0390914B03019709F091C080915A
:1006E0003503882309F48CC06BA97CA9663A71058F
:1006F0001CF409A9085201C00DE71FA5115096E08E
:10070000D92E1F3F09F475C0E12E012E000CFF0801
:10071000F701EE0FFF1FE152FC4F2081318137FFBF
:1007200066C0319521953109283672E437070CF0FF
:100730005EC0E0913203EE0FFF0BE152FC4F0190DF
:10074000F081E02DC901BF010E944F2F6D3271056C
:1007500008F04DC0DE9EC001DF9E900D112482176F
:10076000930708F044C0F701EE5CFC4FF6806F2D54
:1007700070E080E090E00E948D2D4B015C01609163
:10078000420370E080E090E00E948D2D2AE037ED7A
:1007900043EA5DE30E94EC2D9B01AC01C501B4016D
:1007A0000E94862D87FF23C081E08F1500F5E12C84
:1007B000F12CE016E0F457019FEFA91AB90AB50130
:1007C00084E593E00E94C5138091DA0318130C941A
:1007D0002C0FB70184E593E00E94C5139091DA03D2
:1007E0008091320398130C942C0F0C942F0F1150FE
:1007F00088CF1093F10304C082E393E00E946B144E
:1008000080914A0390914B03029709F01BC280919B
:100810004203883208F416C2809143038E5F8093AE
:10082000440310E06091440370E08091420390E043
:10083000019768177907ACF46F5F7F4F84E593E009
:1008400011110C94CC100E94C5139091DA03809181
:10085000F103981311E0809144038E5F8093440369
:10086000E1CF10E08091420390914403891710F486
:1008700080934403409144036091430382E393E0F7
:100880000E946B1460914303112371F08091440323
:1008900090E0861B9109889794F481E090E0909312
:1008A0004B0380934A03CEC1809142038E3F08F0F0
:1008B000B3C190E0861B910988970CF4ADC182E02A
:1008C0000E94E72480913603882309F4AFC069E2CF
:1008D00071E082E393E00E9461168BE30E94E724BB
:1008E000F12C8091EF03F81688F58F2D90E0FC0134
:1008F000EE0FFF1FE152FC4F008111810115110520
:1009000019F1FC01EE5CFC4F86818823E9F08F2D04
:1009100017FF05C0806A11950195110901C0806813
:10092000E02E07FD04C0A02FA068EA2E01C0806160
:100930000E94E7248E2D0E94E724812F80680E9468
:10094000E7248BE30E94E724F394CBCF8091440308
:1009500080FF03C06CE271E002C06CE471E082E3EE
:1009600093E00E946116E0914303E0FF19C0E1505B
:10097000E0934303E6958091D903E81728F4F0E06B
:10098000EE5CFC4F12A101C010E01F701068812FB7
:100990000E94E724809143038E5F8093430301C04C
:1009A00010E00091430380914403801778F0E02F1A
:1009B000E6958091D903E81720F4F0E0EE5CFC4F57
:1009C00012A1812F0E94E7240E5FEDCF8091F103E9
:1009D000282F082E000C330B3F938F938091320306
:1009E000282F082E000C330B3F938F938EE291E05B
:1009F0009F938F933F922F920E946B31182FB101DA
:100A000082E393E00E94611685EF93E00E94501606
:100A10000FB6F894DEBF0FBECDBF81119BC0809191
:100A2000F4031F928F9388E391E09CC06DE371E023
:100A300082E393E00E9461168BE30E94E72410E0BA
:100A4000B0E4EB2EB1E0FB2E8091EF03181740F5D8
:100A5000812F90E0FC01EE0FFF1FE152FC4F20813F
:100A6000318121153105D1F0FC01EE5CFC4F46814E
:100A70004423A1F03F932F939F931F93FF92EF92F4
:100A80003F922F920E946B31B10182E393E00E946A
:100A900061160FB6F894DEBF0FBECDBF1F5FD4CF77
:100AA00068E471E082E393E00E94611610914303D1
:100AB0007BE4E72E71E0F72E80914403811708F163
:100AC000612F70E084E593E00E94C5138091DA0302
:100AD000282F082E000C330B3F938F93FF92EF9239
:100AE0003F922F920E946B31B10182E393E00E940A
:100AF00061161F5F0F900F900F900F900F900F9047
:100B0000DBCF8091F103282F082E000C330B3F938D
:100B10008F9380913203282F082E000C330B3F93C4
:100B20008F938EE491E09F938F933F922F920E9438
:100B30006B31182FB10182E393E00E94611685EFBB
:100B400093E00E9450160FB6F894DEBF0FBECDBFE3
:100B5000882311F01DA718C08091F4031F928F9372
:100B60008CE591E09F938F933F922F920E946B317F
:100B70008DA7B10182E393E00E9461160F900F9060
:100B80000F900F900F900F9080914703882349F0AA
:100B900062E671E082E393E00E9461168BE30E94BB
:100BA000E72410924603609144038091420390E051
:100BB000861B9109889734F180913703882311F1BE
:100BC0008150809337036F5F82E393E00E942B157F
:100BD00010924303809137031F928F9384E691E034
:100BE0009F938F933F922F920E946B318DA7B101FB
:100BF00082E393E00E9461160F900F900F900F9088
:100C00000F900F9083E00E94E7248AE00E94E7247F
:100C100081E08093450317C0662369F08091440307
:100C200090E08D3F91053CF082E393E00E942B150C
:100C30001092430307C082E393E00E94E61481E030
:100C4000809345031DA680914503811140C7809183
:100C500033035091340327965FAF2797811103C068
:100C6000552309F434C727966FAD2797662309F4F7
:100C70002EC78091400390914103892B39F585E47B
:100C800090E00E944E2AFC0182E380AF81E085ABB8
:100C9000108212AA14AA13AA87E087AB80E886AB59
:100CA0008FEF84AF85AF86AF87AFDF01AD5BBF4FFE
:100CB0001C9211961C9282E393E093AF82AF14973B
:100CC0001D921C92F0934103E09340038091F20344
:100CD000882311F10091400310914103D801DA9665
:100CE000ED91FC91DB97148A118ADA96ED91FC91D3
:100CF000DB97E054FF4F1082512C5801B4E4AB0E47
:100D0000B11C442443943801E2E46E0E711C1801B6
:100D1000F3E42F0E311CB5C1209040033090410305
:100D20008FEFD101DC968C93DC97DD968C93DD9769
:100D3000DF968C93DF97DE968C93DE97F101ED5B67
:100D4000FF4F108231961082349711821082F10188
:100D5000108212AA14AA13AA87E087ABEE5BFF4F9A
:100D60008091F3038083DA960D911C91DB97F80153
:100D7000E354FF4FF080B3E0BF1508F0A8C6F801B8
:100D8000608970E080E090E00E948D2D2AE037EDD0
:100D900043E25DE30E94EC2D4B015C0120E030E07A
:100DA000A9010E94463020E030E040E05FE387FD8B
:100DB00005C0C501B4010E94A42F04C0C501B4013F
:100DC0000E94A32F0E9410305801F6E0AF0EB11C14
:100DD000F801E355FF4F1BAE70E0D5018D915D0129
:100DE000861788F1EBAC8E2D90E0EE2009F126E11C
:100DF00030E02C0F3D1F280F391FD901DC909801DE
:100E00002D0D311D2D0D311D23553F4F4081518139
:100E1000D9012D913C914217530754F427E130E05A
:100E20002C0F3D1F820F931FDC01DC92EA94DBCF75
:100E300027E130E02C0F3D1F820F931FDC017C93D4
:100E4000BBADBF5FBBAF7F5F3296F712C6CFFE016F
:100E50007796F8A7EFA32696FFAFEEAF26974091BF
:100E60001301509114016091150170911601619662
:100E70004CAF5DAF6EAF7FAF6197B1016E5B7F4FDF
:100E800063967FAF6EAF6397C1018D5B9F4F9DAF40
:100E90008CAFD101AC5BBF4F6A96BFAFAEAF6A9764
:100EA0003C96FCA7EBA7FFA16896FFAF6897259635
:100EB0008FAD25978F1B3BAD831708F008C6D10176
:100EC000DA964C91DA97DB963C91DB972696EEAD5D
:100ED000FFAD269721912696FFAFEEAF2697842F80
:100EE000932F820F911D820F911DFC01E355FF4F3F
:100EF0008081918118161906B4F68FEFDC968C93D9
:100F0000DC97DD968C93DD97DF968C93DF97DE96EA
:100F10008C932081318138AB2FA7B901330F880B17
:100F2000990B0E948D2D2B966CAF7DAF8EAF9FAF2E
:100F30002B972DEC3CEC4CE45EE30E94EC2D0E94E0
:100F4000103065967FAF6EAF65978FA598A997FD16
:100F50000196AC015595479567965FAF4EAF679781
:100F6000BE01695E7F4F22967FAF6EAF22971FAEA4
:100F70008FEF9FEF98AF8FAB1EAEDE015F96BAA7E3
:100F8000A9A74E01B7E28B0E911C2296EEADFFADE4
:100F90002297D1902296FFAFEEAF2297D101DA9639
:100FA0003C91DA97DB962C91832F922F8D0D911D1A
:100FB0008D0D911DFC01E355FF4F008111817801DA
:100FC00017FF04C0EE24FF24E01AF10A67968EADE5
:100FD0009FAD67978E199F0997FF03C091958195E3
:100FE00091096596EEADFFAD6597E817F907E4F452
:100FF0002DEC3CEC4CEC5EE32B966CAD7DAD8EADF8
:101000009FAD2B970E94EC2D0E9410308FA598A9C0
:101010008E199F0997FF03C09195819591096817D3
:1010200079070CF028C718C01016110614F00C949C
:10103000BB10D101DE96DC92FEADFF5FFEAF2FA9A3
:1010400038AD200F311F38AF2FABD101DC968C911A
:10105000DC978F3F09F0D1C321968FAD2197689619
:10106000EFAD68978E1BFBAD8F1708F48ECF1BCFAB
:10107000D5018C91882379F0F501808181110DC112
:101080005394D801DA96CD90DC90DB97F6018089F5
:10109000581670F3BAC2E52CF12CB701C60182963E
:1010A0000E94C513F601E855FF4F808190E0F801DA
:1010B00024AD022E000C330B8217930739F025ADB7
:1010C000022E000C330B82179307B1F6D801DA9683
:1010D000CD90DC90DB97B701C60182960E94C513C4
:1010E000F601E855FF4F8080F80195AC81E089104A
:1010F00001C080E080932802D801DA96CD90DC9080
:10110000DB97B70161507109C60182960E94C51331
:10111000F601E855FF4F8081F5014082D801DA964B
:10112000ED91FC91DB97518A552009F4B0C090E015
:10113000891026C0DF962C91DF97022E000C330B0E
:101140008217930709F43FC0DA962D913C91DB9703
:10115000FC01EE0FFF1FE20FF31FE355FF4FDC967C
:101160008C91A82FAA0FBB0BA20FB31FA355BF4F83
:10117000208131818D919C912817390724F129C054
:10118000F80126AD022E000C330B82179307D9F01D
:1011900022AD33ADFC01EE0FFF1FE20FF31FE3554D
:1011A000FF4FD801DD968C91A82FAA0FBB0B2A0FF9
:1011B0003B1FD901A355BF4F208131818D919C9157
:1011C0008217930734F481E0891080E0809328022D
:1011D00008C0D801DA96ED91FC91DB9781898F5F89
:1011E000818B60912802C8010E940314FF24FA94A5
:1011F000F50CB1E0BF1508F043C0F80182AC93AC28
:10120000CF2CD12CB601C40182960E94C513F401E3
:10121000E855FF4F808190E0D801DF962C91DF9751
:10122000022E000C330B8217930741F0DE962C91AF
:10123000022E000C330B8217930711F5F80182ACD4
:1012400093ACB60161507109C40182960E94C51326
:10125000F401E855FF4F808190E0D801DF962C9192
:10126000022E000C330B8217930709F4A1C6F80174
:1012700026AD022E000C330B8217930709F498C693
:10128000D801DA96ED91FC91DB975188F5CE81E09B
:10129000891080E080932802EFCED801DA96CD90B5
:1012A000DC90DB97E52CF12CB701C60182960E94F9
:1012B000C513F601E855FF4FC080D12CF80184AD6D
:1012C000082E000C990B82AC93ACC816D90609F411
:1012D000F5C685AD082E000C990BC816D90609F481
:1012E000EDC6B7016F5F7F4FC40182960E94C513A0
:1012F000F401E855FF4F208180912802811119C027
:10130000D801DA96ED91FC91DB97808990E0029705
:10131000E816F9067CF5DF968C91DF97082E000C15
:10132000990B8C159D0531F5422F50E0DE968C917E
:101330001AC08130F9F4D801DA96ED91FC91DB976F
:10134000808990E00297E816F906A4F4DE968C9165
:10135000DE97082E000C990B8C159D0559F4422F31
:1013600050E0DF968C91082E000C990B4817590716
:1013700009F43FC1F3018081082E000C990BD801BC
:10138000D3964D915C91D4974817590764F4F101B5
:101390001082D5011C92F801108212AA14AA13AA75
:1013A00027E027AB26C1D801DA96ED91FC91DB97B7
:1013B000528ADA96AD90BC90DB97BDEF5B1213C0FA
:1013C000F501808990E00197E816F90661F4E05490
:1013D000FF4F81E0808384E090E0D50159969C9393
:1013E0008E93589775C0D801DC96EC91DC97EE0F80
:1013F000FF0BEA0DFB1DE355FF4F40815181F601C4
:10140000EE0FFF1FEA0DFB1DE355FF4F6081718159
:10141000F501808964177507E4F4682F70E0615066
:101420007109E616F706ACF4E22FF0E0DD966C9158
:10143000DD97062E000C770BE617F70709F476C642
:10144000DE966C91062E000C770BE617F70709F471
:101450006DC690E00297E816F906D4F5D801DF963C
:101460008C91DF97082E000C990BC816D90641F015
:10147000DE968C91082E000C990BC816D90641F502
:10148000C501820F911D820F911DFC01E355FF4F95
:101490008081918184179507DCF4B7016E5F7F4FDF
:1014A000C50182960E94C513F501E855FF4F808162
:1014B00090E0F80124AD022E000C330B8217930745
:1014C00009F00AC681E0850D51102FC655245394AA
:1014D000652DD801DA968D919C91DB970E942B1592
:1014E000D801DA96ED91FC91DB97E054FF4F8081B3
:1014F000811127C6F3018081082E000C990BD39629
:101500002D913C91D497281739070CF41AC682E024
:101510000E94E72469E671E082E393E00E9461168D
:10152000A0914003B0914103DD96EC91DD97EE0F61
:10153000FF0BE152FC4F81818F9380818F93DC966A
:10154000EC91EE0FFF0BE152FC4F81818F93808174
:101550008F938CE691E09F938F939E012F5F3F4F77
:1015600079013F932F930E946B31B70182E393E09F
:101570000E946116A0914003B0914103DE96EC9168
:10158000DE97EE0FFF0BE152FC4F81818F9380813C
:101590008F93DF96EC91EE0FFF0BE152FC4F8181B0
:1015A0008F9380818F9389E791E09F938F93FF9230
:1015B000EF920E946B31B70182E393E00E946116C3
:1015C00068E471E082E393E00E94611600914003B9
:1015D000109141030FB6F894DEBF0FBECDBF712C42
:1015E000BE01695E7F4F5B0177E8872E71E0972E21
:1015F0005AC05394D5018C91882309F441CD609150
:101600002802C8010E9403143BCDF601528AA801AA
:101610004E5B5F4FD801D3962D913C91D497BEEF8E
:101620005B1220C0FA01808187FD8F5F8595082EAF
:10163000000C990BD801DA96ED91FC91DB9782179B
:10164000930754F4DF01A054BF4F81E08C9384E0F2
:1016500090E0918F808F75C5CF0180549F4FDC0142
:101660001C92148AFA018081082E000C990B4BCF32
:10167000721630F5F801EC0DFD1D80811F928F93DD
:101680009F928F92BF92AF920E946B31B501F80189
:1016900082AD93AD0E94611673940F900F900F90DE
:1016A0000F900F900F90C72CD12CD801D2968C910F
:1016B000D29790E0D8962C91C816D906CCF202C0E9
:1016C00080E0DCCF721628F4F801EC0DFD1D80815E
:1016D00001C080E082958F701F928F938CE891E01B
:1016E0009F938F93BF92AF920E946B31D801D39694
:1016F0002D913C91D497C90168E070E00E94632F5E
:101700000F900F900F900F900F900F90059724F46B
:1017100027703327232BE1F4F80180AD781620F4ED
:10172000EC0DFD1D808101C080E08F701F928F93B2
:101730008CE891E09F938F93CE0148969F938F936F
:101740000E946B310F900F900F900F900F900F90A1
:10175000B501D801DA968D919C91DB970E946116B4
:10176000E0914003F091410384A98F9383A98F9363
:10177000E05CFF4F81818F9380818F9381E991E0BD
:101780009F938F93FF92EF920E946B31182FB701B6
:1017900082E393E00E94611685EF93E00E94501669
:1017A0000FB6F894DEBF0FBECDBF882311F01DA782
:1017B00018C08091F4031F928F938CE591E09F9362
:1017C0008F93FF92EF920E946B318DA7B70182E356
:1017D00093E00E9461160F900F900F900F900F9062
:1017E0000F9083E00E94E7248AE00E94E724109291
:1017F000F20381E0809345036AC1DF968C91DF9705
:101800008F3F09F429CCDD968C91DD978F3F09F449
:1018100023CCDE968C918F3F09F41ECC61962CADC3
:101820003DAD4EAD5FAD61972BA33CA34DA35EA331
:101830002F8F38A349A35AA341E050E024965FAF0D
:101840004EAF2497A12CB12C1FEFD101DA96ED9069
:10185000FC90DB97F701808990E0A816B9060CF0A0
:10186000FBCBB501C70182960E94C513F701E8556D
:10187000FF4F0081802F90E0D101DC962C91DC9706
:10188000022E000C330B8217930709F4FBC2DD967E
:101890002C91022E000C330B8217930709F4F2C22D
:1018A000D101DF962C91022E000C330B8217930787
:1018B00009F4E8C2F10126AD022E000C330B8217A9
:1018C000930709F4DFC2D101DA96ED91FC91DB9721
:1018D00081899501281B31096396AEADBFAD639731
:1018E0008C91082E000C990B821793070CF00DC3F6
:1018F000A28AF10182AD93ADDC0152964C915297D0
:1019000051966C910E946B14D101DA96ED91FC9185
:10191000DB97DE96BC91B9ABD101DD96BC91BBAB38
:10192000D101DF960C91DF97DC96BC91BDABDF0156
:1019300029A9A20FB11D27FDBA9516968C91DF013A
:101940003BA9A30FB11D37FDBA951696CC90D12CAB
:10195000C80ED11CDF01A00FB11D07FDBA95169668
:101960008C91C81AD108DF014DA9A40FB11D47FD04
:10197000BA9516968C91ACADBDAD1C92C81AD10823
:10198000D7FE03C0D194C194D1080D2C000CEE08F1
:10199000FF088089E82FF0E02D96FFAFEEAF2D977E
:1019A000BF01FF0F880B990B0E948D2D2AE037EDA8
:1019B00043E25DE30E94EC2D2B013C0120E030E08E
:1019C000A9010E94463020E030E040E05FE387FD5F
:1019D00066C2C301B2010E94A42F0E9410306C1590
:1019E0007D058E059F050CF437CBFEAD2FADF213B0
:1019F00033CB3BA94DA9341709F42ECB59A9501765
:101A000009F42ACB041709F427CB531709F424CB84
:101A1000541709F421CB301709F41ECBDE015F9671
:101A2000FE01B39681919D9189133EC28E169F0649
:101A3000C9F78DA979A96AE0769F800D1124ABA919
:101A40009AE0A99F000D11248A3008F48C590A30BD
:101A500008F40C59AE01415E5F4FFE01B3966F0171
:101A6000E82EF12C602F70E0D6018D916D01082ECB
:101A7000000C990B8E159F0509F0ADC3CE014F9652
:101A8000FE01B3962191022E000C330B2617370767
:101A900009F0AAC3E815F90509F0B6C380E0C81437
:101AA000D90409F407C24F5F5F4F8111DDCFF10107
:101AB000E05CFF4F8FA998AD66E070E00E94632F55
:101AC000718360832796FFAD2797F11103C9809139
:101AD0003303882309F474C18091F203811170C12A
:101AE00080914A0390914B03019709F069C180915D
:101AF00045038111A4C180914203883208F464C176
:101B000082E00E94E72480913603882309F491C083
:101B10006DE971E082E393E00E9461168BE30E941D
:101B2000E72440E060E082E393E00E946B14F12C34
:101B30008091EF03F81688F58F2D90E0FC01EE0FF1
:101B4000FF1FE152FC4F008111810115110519F1B0
:101B5000FC01EE5CFC4F86818823E9F08F2D17FF96
:101B600005C0806A11950195110901C08068E02EB9
:101B700007FD04C0F02FF068EF2E01C080610E94C5
:101B8000E7248E2D0E94E724812F80680E94E7249D
:101B90008BE30E94E724F394CBCF8091420380FF34
:101BA00008C06CE471E082E393E00E94611610E0EB
:101BB00011C06CE271E0F7CF8091D903181730F4AF
:101BC000E12FF0E0EE5CFC4F22A12DA78DA50E9435
:101BD000E7241F5F8091D303811770F78091320350
:101BE000282F082E000C330B3F938F9380EA91E04F
:101BF0009F938F938E010F5F1F4F1F930F930E9430
:101C00006B31B80182E393E00E94611685EF93E0A7
:101C10000E9450160F900F900F900F900F900F9002
:101C20008111B6C08091F4031F928F9388E391E0F5
:101C30009EC066EA71E082E393E00E9461168BE346
:101C40000E94E72440E060E082E393E00E946B148E
:101C500010E050E4E52E51E0F52EAE014F5F5F4FEE
:101C60006A018091EF03181740F5812F90E0FC0185
:101C7000EE0FFF1FE152FC4F20813181211531050C
:101C8000D1F0FC01EE5CFC4F46814423A1F03F9370
:101C90002F939F931F93FF92EF92DF92CF920E9418
:101CA0006B31B60182E393E00E9461160FB6F8949F
:101CB000DEBF0FBECDBF1F5FD4CF68E471E082E30B
:101CC00093E00E946116F12C8E010F5F1F4F3BE4E1
:101CD000C32E31E0D32E80914203F81608F56F2D04
:101CE00070E084E593E00E94C5138091DA03282F09
:101CF000082E000C330B3F938F93DF92CF921F93EC
:101D00000F930E946B31B80182E393E00E94611649
:101D1000F3940F900F900F900F900F900F90DBCFD8
:101D200080913203282F082E000C330B3F938F93A2
:101D300089EA91E09F938F931F930F930E946B31D9
:101D4000B80182E393E00E94611685EF93E00E9460
:101D500050160F900F900F900F900F900F908111D1
:101D600017C08091F4031F928F938CE591E09F93AD
:101D70008F931F930F930E946B31B80182E393E01E
:101D80000E9461160F900F900F900F900F900F9080
:101D900080914703882349F062E671E082E393E093
:101DA0000E9461168BE30E94E72483E00E94E724EF
:101DB0008AE00E94E7241092460381E08093450365
:101DC0008091450381113BC0809146038823D9F15E
:101DD0004091EF03EFEDF3E080E090E020EDE22EA4
:101DE00027E0F22E841710F010E00CC02191319101
:101DF0001216130624F42E153F050CF47C010196EF
:101E0000F1CF1F5F809142031817C8F470EDE716F9
:101E100077E0F706A1F0612F70E084E593E00E947F
:101E2000C5138091DA03082E000C990BE816F90609
:101E300041F76FEF610F82E393E00E942B158091D1
:101E400046038111E7C11091450382E393E00E94AC
:101E5000E61410934503DEC175010C94D903109369
:101E6000F10382E090E090934B0380934A03E09269
:101E700043030C940004101611060CF089C1F10103
:101E8000D5AEDAC8D101DA96ED91FC91DB97808965
:101E900090E00197A816B90609F048C014CDC30117
:101EA000B2010E94A32F99CD9F3F39F08F3F09F0D7
:101EB000BDCD03C0882309F4FACD2D962EAD3FADDC
:101EC0002D972A193B096396EEADFFAD639780818C
:101ED000082E000C990B821793070CF0BDC81BA3AA
:101EE0001F8F1CA318A31DA319A31EA31AA35FEF82
:101EF000A51AB50A24966EAD7FAD24976F5F7F4F0C
:101F000024967FAF6EAF2497A0CCACADBDAD1C9234
:101F10006A96EEADFFAD6A9710821F8F1BA318A3C0
:101F20001CA319A31DA31AA31EA3E1CFACADBDAD85
:101F30008C91811103C0A18AE1E0EC93D101DA9682
:101F4000ED90FC90DB9724966EAD7FAD2497C70192
:101F500082960E94C513F701E855FF4F8081BAE0D1
:101F60000B9F800D11248A3008F48C59A0FC03C00B
:101F70002BA59CA502C029A59AA5E22FF92F90E0D8
:101F8000482F50E06081262F062E000C330B2417BB
:101F9000350719F06F3F19F48083292F01C02FEF07
:101FA0009F5F943009F4A3CF31962F3F59F39FCF11
:101FB000E0902802D801DA968D909C90DB97B1E0F2
:101FC000EB123AC0E2E0CE1AD108B601C401829603
:101FD0000E94C513F401E855FF4F9081D801DF96A8
:101FE0008C91DF97981709F464C0DA968D909C90D5
:101FF000DB97B601C40182960E94C513F401E8552F
:10200000FF4FA081AA0FBB0B8A0E9B1ED401A355C4
:10201000BF4FF80182AD93AD24ADE22FEE0FFF0B61
:10202000E80FF91FE355FF4F2D913C91808191817D
:1020300028173907F4F13AC0E11038C0F2E0CF1A9E
:10204000D108B601C40182960E94C513F401E85577
:10205000FF4F9081D801DE968C91DE97981749F159
:10206000DA968D909C90DB97B601C40182960E940F
:10207000C513F401E855FF4FA081AA0FBB0B8A0ED0
:102080009B1ED401A355BF4FF80182AD93AD25AD82
:10209000E22FEE0FFF0BE80FF91FE355FF4F2D91D5
:1020A0003C9180819181821793071CF0FA94FA94F5
:1020B000A0C86E2DC8010E940314F8CFF4018089D6
:1020C00090E00197E816F9060CF00BC98091280200
:1020D0008425809328028ECA25AD022E000C330B76
:1020E0008217930709F4EEC9C2ACD3ACB7016D5F98
:1020F0007F4FC60182960E94C513F601E855FF4F37
:10210000808190E0F80127AD022E000C330B82177E
:10211000930709F4D7C9F80126AD022E000C330B42
:102120008217930709F0D4C9CDC9582E5394D8010A
:10213000DA96ED91FC91DB9784E090E0918F808FAF
:10214000C7C98091F203882309F4C1CC809146036A
:1021500081114FCB109254031092D3031092D503E8
:102160001092D40387E08093D8031092420381E059
:1021700080934603ACCCF101D7AE3FAD3F5F3FAF9C
:102180004FA958AD401B510B58AF4FAB0C942508CD
:10219000D101DC96DC92F1CF0E94C5139091DA0355
:1021A0008091F10398130C942B046091440370E028
:1021B00084E593E00E94C5139091DA038091320385
:1021C00098130C942B048091440381508093440312
:1021D00011E00C943204FA018081082E000C990B56
:1021E000E816F90651F44ACCDC012C91022E000CC1
:1021F000330B6217730719F44DCC81E050CCE8150E
:10220000F905D9F301963ECCC814D90409F44FCC92
:1022100080E049CCC75ADF4F0FB6F894DEBF0FBE3F
:10222000CDBFDF91CF911F910F91FF90EF90DF9085
:10223000CF90BF90AF909F908F907F906F905F9066
:102240004F903F902F90089580E00895CF92DF92B5
:10225000EF92FF920F931F93F8940E9489230091AD
:102260002E0310912F0320913003309131036B0125
:102270007C01C01AD10AE20AF30A97018601609331
:102280002E0370932F0380933003909331030A350C
:1022900011052105310578F181E0C8168DE7D806D2
:1022A000E104F10410F4960102C021E03DE74A9BED
:1022B00003C0319521953109809102048A35D8F403
:1022C000809102048F5F80930204809103046091E7
:1022D00001040E94432F90930304E0910304F0E073
:1022E000EE0FFF1FEB5FFB4F3183208380910304D0
:1022F0008F5F8093030478941F910F91FF90EF906C
:10230000DF90CF9008958F929F92AF92BF92CF921D
:10231000DF92EF92FF928FB7F894C0908802D0902E
:102320008902E0908A02F0908B028FBF80912B028D
:1023300090912C02A0912D02B0912E02C816D906C0
:10234000EA06FB0648F48091290290912A02019640
:1023500090932A0280932902C0922B02D0922C02E1
:10236000E0922D02F0922E02A0912902B0912A0251
:1023700027E339E841E450E00E94F22E4B015C0172
:10238000C701B60128EE33E040E050E00E94D02EB5
:10239000C501B401620F731F841F951FFF90EF905A
:1023A000DF90CF90BF90AF909F908F900895CF9384
:1023B000C82F803120F480E090E00E946B226C2FC7
:1023C00070E080E090E040E1CF910C942522CF9323
:1023D000DF93C2E0D0E0FE01E658FF4F6491CE01EA
:1023E0000E948F252196CB32D105A9F7C0E3D0E01A
:1023F000C13321F464E881E390E002C060E0CE01E3
:102400000E948F252196C833D10591F788E690E088
:10241000DF91CF910C940B238EBD0DB407FEFDCF41
:102420008EB50895CF93DF932A981C9B0EC061E070
:1024300070E080E090E00E94AE2380910401882348
:1024400099F0815080930401F0CF8EE70E940C1226
:10245000C0E3D0E0CE010E9491250E940C1221968B
:10246000C833D105B9F72A9ADF91CF910895CF9358
:10247000DF93D82FC62F2A981C9B0EC061E070E016
:1024800080E090E00E94AE2380910301882359F000
:10249000815080930301F0CF8D2F0E940C128C2F5E
:1024A0000E940C122A9ADF91CF910895CF93DF9367
:1024B000D82F8EEF8D0F8E33F8F4C62F0E9437126F
:1024C000D43151F48C2F807790E024E09595879556
:1024D0002A95E1F780930B0181EB91E00E94232282
:1024E0008D2F0E94D7118C2F0E94D71185E192E089
:1024F000DF91CF910C949922DF91CF910895CF93E2
:10250000DF93D82FC62F2A981C9B0EC061E070E085
:1025100080E090E00E94AE2380910201882361F068
:10252000815080930201F0CF8D2F8C2B0E940C12D2
:1025300080E00E940C122A9ADF91CF91089560E802
:1025400088E00E947F12823339F460E880E00E94C4
:102550007F1291E08D3009F090E0892F08958091ED
:102560000501813011F084E301C084EF60EC0C942C
:102570007F12CF93C0910501C13011F081E301C0FA
:1025800081EF60E80E947F12CC2359F09FEF980FF3
:102590009E3F38F01092050160E881E3CF910C94E2
:1025A0007F12CF9108952A989FEF20E130E01C9B85
:1025B00007C0F9013197F1F79150C9F72A9A04C081
:1025C0000E940C122A9A91E0892F0895CF93C82F68
:1025D0002A981C9B10C061E070E080E090E00E94AF
:1025E000AE2380910101811102C080E01AC08150A8
:1025F00080930101EECF8C2F0E940C12C82F1C9BE0
:102600000EC061E070E080E090E00E94AE23809117
:102610000001882351F3815080930001F0CF2A9A62
:102620008C2FCF91089586E30E94E61261E070E05E
:1026300080E090E00C94AE23E89884E79BE19093CF
:102640000801809307018091340281110E941313C5
:102650001092020410920404109203040895CF9380
:102660000E941313CFEF84E30E94E612C1508077DB
:10267000803141F061E070E080E090E00E94AE23A4
:10268000C111F1CF5398CF91089586E291E19093D3
:10269000080180930701809169008C7F816080939D
:1026A0006900E89A8091340281110C942F130895E7
:1026B000CF93DF932A9A88E390E0FC013197F1F7FA
:1026C0002A980197F1F72A9A86E590E00197F1F7A9
:1026D00080E30E94E6126AE070E080E090E00E94F1
:1026E000AE232A981C9B0EC061E070E080E090E071
:1026F0000E94AE2380910601882381F1815080934E
:102700000601F0CF80E40E940C12C2E0D0E0CE01BE
:102710000E9491250E940C122196CB32D105B9F767
:102720002A9A80E190E00197F1F784E190E00E941D
:102730009125807790E024E0959587952A95E1F79B
:1027400080930B010E94121261E070E080E090E043
:102750000E94AE23DF91CF910C942F13DF91CF9184
:10276000089590ED980F9A3070F09FE9980F963089
:1027700010F499EA05C09FEB980F963018F499EC85
:10278000980F01C0982F892F0895CF93DF93FC01F4
:10279000EE57FF4F4081469FD001479FB00D112457
:1027A000FD0123E0F695E7952A95E1F7EC01CB577B
:1027B000DF4F288130E0E217F3070CF522972881DC
:1027C00030E0A770BB2702C035952795AA95E2F7A0
:1027D000E80FF91F3081232330E058E0541B469F57
:1027E000402D11244770541B02C0359527955A95EA
:1027F000E2F7FC01EA57FF4F2083822F01C08FEFE1
:10280000DF91CF910895FC0187A98730A9F423A90E
:1028100034A91216130684F492A9492F50E020AD72
:1028200030E021503109421753078CF59F5F92AB7E
:10283000DF01A90FB11D1C9295A9492F50E0282F47
:1028400030E02F5F3F4F241B350B1216130624F484
:1028500001C0660F2A95EAF722A9DF01A20FB11D78
:102860002C91622B6C9323A934A92F5F3F4F34AB7B
:1028700023AB282F082E000C330B241B350B37FD00
:1028800002C0891B01C087E087AB81E0089580E02A
:102890000895CF93DF93DC01CD91DC9111971296CF
:1028A000ED91FC91139714962D913C911597C901C8
:1028B0009595879520FF0AC0DE01A80FB91F2D91BD
:1028C0003C91E20FF31F0190F081E02D8C0F9D1FD2
:1028D000DF91CF9109940F931F93CF93DF93DC0186
:1028E00050968C915097882309F46BC0FD01369661
:1028F0009D01225F3F4F11922E173F07E1F74111D3
:1029000001C0482F262F30E035952795E42FF0E0C1
:10291000F595E79560FF17C0ED01C955DF4F888138
:10292000281728F4ED01C20FD31F9AA101C090E02F
:10293000892F8F70ED01C80FD11D8E818F5F8E831F
:102940002F5F3F4F01C090E08D0109551F4F622F4F
:1029500070E06E177F07F0F4E8018881281720F4F3
:10296000ED01C60FD71F9AA1C92FD0E034E0D5954D
:10297000C7953A95E1F7CA0FDB1F8E818F5F8E8373
:10298000892F8F70ED01C80FD11D8E818F5F8E83CF
:102990002F5FDDCF40FF15C0ED01C955DF4F8881A6
:1029A000E81718F4EA0FFB1F92A1E92FF0E084E08A
:1029B000F595E7958A95E1F7EA0FFB1F86818F5F12
:1029C0008683DF91CF911F910F910895CF93DF936D
:1029D000FC01DC01A354BF4F1C9211961C9212A261
:1029E0005D971C92119611961C921E92149687E088
:1029F0008C93108A118E108E59968FEF8C93808352
:102A0000EF01C355DF4FA95BB109CF010E961992B3
:102A100019921D92A817B907D1F7138A86E990E099
:102A2000978B868BDF01A755BF4F40E050E060E8F1
:102A30007EE34D935D936D937C931397118A148A73
:102A4000158A57961C92128A11A210A283E08583E0
:102A5000DF91CF9108953F924F925F926F927F9254
:102A60008F929F92AF92BF92CF92DF92EF92FF929E
:102A70000F931F93CF93DF93DC0154961C925497CE
:102A8000662309F4FBC050962C915097222309F439
:102A9000F5C030E0A62EB12CA216B3069CF0DF9153
:102AA000CF911F910F91FF90EF90DF90CF90BF904B
:102AB000AF909F908F907F906F905F904F903F90DE
:102AC0000C94E6148C010E551F4FF80120813181C2
:102AD000A216B30608F0D2C0EC017C01F2E2EF0EC0
:102AE000F11CFC01EF55FF4FC9010197A816B9066B
:102AF00041F41AA21082D8011D921C9287E03596EB
:102B00007CC02D01B4EA4B0E511CD2014C91649F44
:102B10003001112453E0769467945A95E1F7362CEE
:102B2000842E912C68E0C62ED12CC601B4010E94DF
:102B3000632FC5010E944F2F009709F460C0489F82
:102B4000802D112468E0681B90812701462D4319D0
:102B50006916D8F46E01C60CD11CD60193964C911F
:102B6000939750E0062E02C0559547950A94E2F7D8
:102B70009296CC90082E01C0CC0C0A94EAF74C290E
:102B8000D2014D932D016394E1CF20FD10C0BE0111
:102B9000640F711DAE01460D511DDA0192969C9194
:102BA00001C0990F8A95EAF7DB0192969C932A1946
:102BB0003B09D8012D933C93829E6001839ED00CEB
:102BC000929ED00C1124C60168E070E00E94632F31
:102BD000DE01AA55BF4F882321F097E0981B892F6B
:102BE00001C087E08C93C6018819990997FD079663
:102BF00023E0959587952A95E1F7808322C040814F
:102C000046194083772450E04F5F5F4FB701660D50
:102C1000771DC7010E943831F201608170E0C60162
:102C20000E94632F669D9001679D300D769D300D4B
:102C30001124D8018D919C911197821B930B8D9338
:102C40009C9381E08C8BF80160817181688B662395
:102C500099F0772761507109C7010E94C513FE01E1
:102C6000E855FF4F8081880F990B83559F4F8C0F3C
:102C70009D1F99A388A302C019A218A2DF91CF912A
:102C80001F910F91FF90EF90DF90CF90BF90AF908A
:102C90009F908F907F906F905F904F903F9008959E
:102CA000FC0180819181892B51F482819381892B50
:102CB00031F48481958121E082278170089580E03C
:102CC0000895EF92FF920F931F93CF93DF936115B7
:102CD0007105E1F08B01FB0101900020E9F73197CC
:102CE0007F01E61AF70AEC01C753DF4FCE010E94BD
:102CF000501681110BC04E2DB801CE01DF91CF913E
:102D00001F910F91FF90EF900C94491480E090E098
:102D1000DF91CF911F910F91FF90EF9008951F9237
:102D20000F920FB60F9211242F933F934F935F93FF
:102D30006F937F938F939F93AF93BF93EF93FF9383
:102D4000E0912F02F09130020995FF91EF91BF9130
:102D5000AF919F918F917F916F915F914F913F9133
:102D60002F910F900FBE0F901F9018952F923F92AA
:102D70004F925F926F927F928F929F92AF92BF928B
:102D8000CF92DF92EF92FF920F931F93CF93DF9337
:102D9000CDB7DEB7C75AD1400FB6F894DEBF0FBE2D
:102DA000CDBF0E941C13CF5FDE4F19821882C15025
:102DB000D14081E0C85EDE4F8883C851D140C75EF4
:102DC000DE4F19821882C951D140C05DDE4F888321
:102DD000C053D140CF5CDE4F19821882C153D1401D
:102DE000C85BDE4F8883C854D140C75BDE4F198271
:102DF0001882C954D140C05ADE4F8883C056D14092
:102E0000CF59DE4F19821882C156D140C858DE4FC3
:102E10008883C857D1409E012F5F3F4F790180E0E2
:102E200091E0D901FC011D923197E9F7CB57DE4FB4
:102E300039832883C558D14066246A9408E712E094
:102E400022242A94C257DE4F1882CE58D140F1E096
:102E5000CD56DE4FF883C359D14088E1782E4E011C
:102E6000939492E0492ED8018C91833509F047C0A4
:102E700011968C91833459F42394E1E0F1E0EC0F46
:102E8000FD1F729CE00DF11D112412821AC08D34B9
:102E900061F42394E1E0F1E0EC0FFD1F729CE00D82
:102EA000F11D1124B1E0B2831FC0823581F4239457
:102EB000E1E0F1E0EC0FFD1F729CE00DF11D11242B
:102EC0004282CD56DE4F1882C359D1400DC08E3498
:102ED00059F42394E1E0F1E0EC0FFD1F729CE00D4A
:102EE000F11D112423E022832110FDC043E050E0B6
:102EF00068E772E081E992E00E94751B30C080357E
:102F0000B9F5D80112968C9112978D3309F0EBC068
:102F100011968C91B0EDDB2ED80EB7E0BD1508F4FC
:102F2000E2C04AE050E0BE016B577E4FC8010396F5
:102F30000E946F2B2CE0229DF0011124ED0DF11D5C
:102F4000EE0FFF1FA1E0B1E0AC0FBD1FEA0FFB1FAA
:102F5000708767832110C7C0C8010E942322CB5706
:102F6000DE4FF982E882C558D14000E010E0BBC0D6
:102F70008235C1F4F80181818D3309F0B4C04AE093
:102F800050E0BE016B577E4FC80102960E94852C0F
:102F9000E1E0F1E0EC0FFD1F729CE00DF11D11244A
:102FA000678BD8CF843451F5D80111968C918D332D
:102FB00009F099C0CC24C394DC2CCC0EDD1E729C8D
:102FC000C00CD11C1124C8010296F601948383839E
:102FD000A401401B510B4D5F5F4F6BE370E0019606
:102FE0000E942231CB57DE4F99838883C558D14048
:102FF000D60116969C938E93159775C08334C9F4A9
:10300000F80181818D3309F06EC04AE050E0BE01C5
:103010006B577E4FC80102960E94852CE1E0F1E0DB
:10302000EC0FFD1F729CE00DF11D11247183608374
:103030005AC0863409F057C0D80111968C918D334F
:1030400009F051C0CB57DE4F28813981C558D14096
:10305000201B310BC901019797FDC90195958795F3
:10306000C257DE4F8883CE58D14081508530D8F585
:10307000809134028823B9F1C558DE4F1882CB57AE
:10308000D1405E01B1E8AB1ABEEFBB0A6801E2E0D5
:10309000CE0ED11C312C3DE0532E530C60E8852D13
:1030A0000E947F12D5018D935D01F601819191916E
:1030B0006F01C758DE4F99838883C957D14040E1DB
:1030C00050E060E070E0CE0187589E4F0E946F2B69
:1030D000852D0E9437123394C257DE4FF881CE58A7
:1030E000D1403F16C0F2CB57DE4F88819981C55839
:1030F000D1400817190709F463C0E816F90639F03A
:103100000196CB57DE4F99838883C558D140CB5762
:10311000DE4F08811981C558D140B12CCB57DE4F05
:10312000C880D980C558D140CB0CD11CCB57DE4FBD
:10313000D982C882C558D1400E94492397FD0DC04D
:10314000D6018C936B18CB57DE4FE881F981C558B7
:10315000D14080818B3341F40FC086EB90E00E9418
:10316000A7228EEA90E01AC08A3009F49FC2662036
:1031700029F0BB24B394D2CF61101DC084E592E046
:103180000197F1F78E0113950E94492397FF09C01B
:1031900086EB90E00E94A72285EA90E00E940B2334
:1031A00089C28A309105A1F3F70181937F01E0176D
:1031B000F10751F7EDCF11820115110509F053CE3A
:1031C000809134028823A9F08BE30E94D3128823D4
:1031D00081F00E9413131EEF1F3F51F085E30E9400
:1031E000E6120FEF010F8077803209F057C21111FC
:1031F000539ACD5FDE4F8881C350D140811113C0F7
:10320000C85EDE4FF881C851D140C357DE4FF88306
:10321000CD58D140F1110DC021E0C357DE4F2883B6
:10322000CD58D14006C031E0C357DE4F3883CD586A
:10323000D140312C81E091E08C0F9D1FA8E1A29D2F
:10324000800D911D1124FC013296CE55DE4FF9837D
:10325000E883C25AD1409C01295E3F4FCC55DE4FD6
:1032600039832883C45AD140DC011396CA55DE4FF6
:10327000B983A883C65AD140CE55DE4FE881F98183
:10328000C25AD14080818330C9F510E0CC55DE4F61
:10329000A881B981C45AD1408C9190E0212F30E0AF
:1032A000281739077CF0CD56DE4FB881C359D1407D
:1032B000BB2309F4B2C161E070E080E090E00E94BD
:1032C000AE23ABC1CA55DE4FE881F981C65AD14061
:1032D00060817181CE0187589E4F0E94FC1BCE01F8
:1032E00087589E4F0E943224C758DE4F88819981AB
:1032F000C957D1400E94E62A1F5FC8CFC12CF8E110
:10330000FC9DC0011124E1E0F1E0EC0FFD1FE80F8E
:10331000F91F2281223009F080C0D12C9F01295E43
:103320003F4FC757DE4F39832883C958D14007968E
:10333000A1E0B1E0AC0FBD1FA80FB91FC557DE4F0C
:10334000B983A883CB58D14022513109C157DE4FF0
:1033500039832883CF58D140CF010396C957DE4F18
:1033600099838883C758D140C757DE4FA881B98158
:10337000C958D1408C91D81608F049C1C157DE4FC9
:10338000E881F981CF58D14080809180C957DE4FC4
:10339000A881B981C758D140EC901196FC900E9449
:1033A00089232B013C018701F8010815190560F5F7
:1033B0000F5F1F4F80818053C557DE4FE881F98131
:1033C000CB58D140E80FF11DE80FF11DA080B1806E
:1033D0007501B7FE04C0EE24FF24EA18FB080E9422
:1033E00089236415750586059705C8F3B7FE02C0E5
:1033F0005B9801C05B9AC701FF0CAA0BBB0B480E80
:10340000591E6A1E7B1ED0CF0E9489236415750544
:1034100086059705C8F3D394A7CF213009F0F7C0EC
:1034200000E0C757DE4FF983E883C958D14077964B
:10343000C256DE4FF983E883CE59D140C757DE4FDD
:10344000E881F981C958D1403596C056DE4FF983DD
:10345000E883C05AD140C757DE4F28813981C95807
:10346000D1402D5F3F4FCC56DE4F39832883C4595E
:10347000D140C256DE4FA881B981CE59D1408C913E
:10348000081708F0C4C0C757DE4FE881F981C95852
:10349000D140E080F180C056DE4FA881B981C05A8A
:1034A000D1400D90BC91A02DCA56DE4FB983A883A0
:1034B000C659D140CC56DE4FE881F981C459D1407C
:1034C000D08011810E9489234B015C01C957DE4FD6
:1034D000D882C758D140C857DE4F1883C858D1404A
:1034E000C701FF0CAA0BBB0BC157DE4F8883998322
:1034F000AA83BB83CF58D140880F991FAA1FBB1F37
:10350000C856DE4F88839983AA83BB83C859D140AC
:10351000CA56DE4FA881B981C659D140C957DE4F7E
:10352000E881F981C758D140EA17FB0708F06DC060
:103530008191C957DE4FF983E883C758D1408A3358
:1035400014F097E301C090E3891B24E030E0C557F5
:10355000DE4F39832883CB58D14098E0D92EA82F4D
:10356000880FBB0BC456DE4FB983A883CC59D1401A
:103570002401350110E0ED2CF12CC456DE4FE8811A
:10358000F981CC59D140EE22FF22111104C0E1147F
:10359000F10421F405C0E114F10411F45B9801C0B9
:1035A0005B9AC157DE4F88819981AA81BB81CF5830
:1035B000D140480E591E6A1E7B1E0E948923641545
:1035C000750586059705C8F31F5F1230F1F6C856DA
:1035D000DE4F88819981AA81BB81C859D140880E6C
:1035E000991EAA1EBB1ED694C557DE4FA881B9816D
:1035F000CB58D1401197C557DE4FB983A883CB581C
:10360000D140AB2B09F0B4CF83CF0F5F32CF5B98A3
:10361000C3942C1408F073CE46CE3394C357DE4FB8
:10362000B881CD58D140B31127CEC257DE4FE881C3
:10363000CE58D140EE23A9F07E01F1E8EF1AFEEF5B
:10364000FF0A10E0D7016D917D018DE0810F0E948E
:1036500037121F5FC257DE4FB881CE58D140B11329
:10366000F1CFCE0101960E942322E1E0F1E0EC0FC0
:10367000FD1F28E1229EE00DF11D1124828183307F
:1036800051F082E393E00E94E6141092020410923B
:103690000404109203040E9445130CC061E070E022
:1036A00080E090E00E94AE23102F96CD662009F4B2
:1036B00065CD86CDC955DE4F0FB6F894DEBF0FBE7F
:1036C000CDBFDF91CF911F910F91FF90EF90DF90D1
:1036D000CF90BF90AF909F908F907F906F905F90B2
:1036E0004F903F902F9008950895CF92DF92EF92E0
:1036F000FF920F931F93CF93DF936C017A018B019D
:10370000C0E0D0E0CE15DF0581F0D8016D918D01CC
:10371000D601ED91FC910190F081E02DC601099553
:10372000892B11F02196EECF7E01C701DF91CF9159
:103730001F910F91FF90EF90DF90CF900895089523
:1037400080E090E008950E94113181E992E00E94AA
:10375000332521E0892B09F420E0822F0895EF9290
:10376000FF920F931F93CF93DF93EC0181E0888F3B
:103770009B8D8C8D981305C0E889F989808185FD22
:1037800026C0F62E0B8D10E00F5F1F4F0F73112711
:10379000E02E8C8DE8120CC00FB607FCFACFE8893A
:1037A000F989808185FFF5CFCE010E944B25F1CFAD
:1037B0008B8DFE01E80FF11DE35AFF4FF0829FB79A
:1037C000F8940B8FEA89FB89808180620AC09FB7D9
:1037D000F894EE89FF896083E889F9898081837094
:1037E000806480839FBF81E090E0DF91CF911F9143
:1037F0000F91FF90EF900895EF92FF920F931F9318
:10380000CF93DF93EC01198218821B821A821D82EA
:103810001C8261157105B9F17B01FB01019000204B
:10382000E9F731978F01061B170BB8016F5F7F4FC8
:1038300080E090E00E944B30009759F09983888394
:103840001B830A832C813D81232B81F4FC01108290
:103850000DC088819981009711F00E94E62A198293
:1038600018821D821C821B821A820DC01D830C834C
:10387000B70188819981DF91CF911F910F91FF90BE
:10388000EF900C944A31DF91CF911F910F91FF90EF
:10389000EF9008951F920F920FB60F9211242F935D
:1038A0003F934F935F936F937F938F939F93AF93C8
:1038B000BF93EF93FF93E0910901F0910A010995FD
:1038C000FF91EF91BF91AF919F918F917F916F91F8
:1038D0005F914F913F912F910F900FBE0F901F90CE
:1038E00018951F920F920FB60F9211242F933F93AA
:1038F0004F935F936F937F938F939F93AF93BF93F8
:10390000EF93FF93E0910701F09108010995FF9172
:10391000EF91BF91AF919F918F917F916F915F9147
:103920004F913F912F910F900FBE0F901F901895C0
:103930001F920F920FB60F9211242F933F934F9324
:103940005F936F937F938F939F93AF93BF93EF9307
:10395000FF9381E992E00E944B25FF91EF91BF9187
:10396000AF919F918F917F916F915F914F913F9117
:103970002F910F900FBE0F901F9018951F920F92CE
:103980000FB60F9211242F938F939F93EF93FF9372
:10399000E091A102F091A2028081E091A702F09152
:1039A000A80282FD12C090818091AA028F5F8F735E
:1039B0002091AB02821751F0E091AA02F0E0EF569D
:1039C000FD4F958F8093AA0201C08081FF91EF91F6
:1039D0009F918F912F910F900FBE0F901F90189570
:1039E0000F931F93CF938C01C62F81E992E00E9421
:1039F0000225892BD1F34C2F50E0B80181E992E0E8
:103A0000CF911F910F910C94751B0F931F93F894F6
:103A10000E94892300912E0310912F0320913003DF
:103A200030913103AB01BC01401B510B620B730B96
:103A300022E02093330280E89EE390933202809349
:103A40003102909387008093860082E18093810009
:103A500041303DE753076105710588F14A9903C07C
:103A60002FEF32E802C021E03DE7809102048A3561
:103A7000D8F4809102048F5F809302048091030444
:103A8000609101040E94432F90930304E09103048A
:103A9000F0E0EE0FFF1FEB5FFB4F3183208380913F
:103AA00003048F5F809303040E94892360932E0395
:103AB00070932F03809330039093310338C04131CA
:103AC00087E258076105710590F181E19DE7A0E06B
:103AD000B0E0841B950BA60BB70B32E0880F991F43
:103AE000AA1FBB1F3A95D1F7009731E0A307B10594
:103AF00020F421E02093330209C02093330223E015
:103B0000B695A795979587952A95D1F79093320208
:103B1000809331028091310290913202909387001C
:103B20008093860080913302806180938100809130
:103B300035020E94C222109235027894809186024A
:103B400091E0980F90938602811104C01F910F910C
:103B50000C9483111F910F910895CF92DF92EF92F1
:103B6000FF920F931F93CF93DF93CDB7DEB72897C4
:103B70000FB6F894DEBF0FBECDBF81E992E00E9480
:103B80003325892B09F43EC4109187021E3049F475
:103B90008EEE90E00E94A72288E792E00E94992290
:103BA000FCC281E992E00E941125E12FF0E0E85883
:103BB000FD4F80838D3079F034F4882361F08A30B2
:103BC00009F0EEC208C0833231F08B3309F0E8C24D
:103BD0000E94B616E2C280917802873509F428C2A5
:103BE0008CF4803509F483C034F48F33F9F08334D6
:103BF00009F4EFC09CC2823509F4C6C0863509F4C9
:103C00007FC095C2823709F4FAC13CF4883509F4C3
:103C1000D3C0853609F4D0C18AC2843709F4C2C042
:103C20000CF471C2883709F4D1C181C28FE30E94BC
:103C3000662285E492E00E94A72286E50E94662221
:103C400083E492E00E94A72282E50E94662283E438
:103C500092E00E94A72284E70E94662283E492E019
:103C60000E94A72288E50E94662283E492E00E94D7
:103C7000A72283E50E94662283E492E00E94A722A5
:103C800080E50E94662283E492E00E94A72283E4FA
:103C90000E94662283E492E00E94A72282E70E94AB
:103CA000662283E492E00E94A72287E50E946622B2
:103CB00083E492E00E94A72283E70E94662283E4C5
:103CC00092E00E94A72280913402882309F46FC1F8
:103CD00088E70E94662283E492E00E94A72285E69C
:103CE0000E94662283E492E00E94A72260C18CE0D9
:103CF00092E00E94992284EE93E00197F1F74AC284
:103D000081E292E00E94A722809134028823C9F1C7
:103D100089E192E00E94A7228FE092E00E94232294
:103D200084E192E00E94A72283E492E00E94A7220D
:103D30008EE092E00E94A7220E94B912853099F08D
:103D400028F4833051F0843059F013C0843141F0AD
:103D5000873161F0873069F409C08CE092E00BC0D4
:103D60008AE092E008C087E092E005C085E092E03A
:103D700002C08CEF91E00E94A72281E192E00E94B4
:103D8000232288ED91E038C32091B9043091BA0420
:103D90002115310511F42FEB34E0CE010196821B81
:103DA000930B64C00E9483114AE00E94252283E1A4
:103DB00092E00E941122EEC180917902813519F4BE
:103DC0000E941C13E7C1853409F0E4C10E94451329
:103DD000E1C180917902873459F034F49CEB980F5B
:103DE000923008F446C09CC0833509F47BC098C06B
:103DF0008AE091E00E94A72288E091E00E94A72239
:103E00008091350390E00E946B2286E091E00E9451
:103E1000A72283E091E00E94A72288E091E00E941F
:103E2000A7228091330390E00E946B2286E091E00C
:103E30000E94A72280E091E00E94A72288E091E002
:103E40000E94A7228091340390E00E946B2286E0BA
:103E500091E00E94A72286E192E00E94232288E05E
:103E600091E00E94A7228091360390E00E941923DE
:103E700091C190917A02923579F034F4933409F03B
:103E800089C1E4E3F3E00DC0933549F0953509F0BD
:103E900081C1E3E3F3E005C0E6E3F3E002C0E5E35C
:103EA000F3E0853419F481E0808301C01082209111
:103EB0003303622F660F9091340384E0989F900142
:103EC0001124262B60913503262B90913603E8E0D0
:103ED0009E9FC0011124622F682B8FEF90E00E94FB
:103EE0008F2558C16BE172E08AE792E00E94513160
:103EF000892B09F44FC14AE050E060E070E080E8AF
:103F000092E00E946F2B6093F3037727882799270D
:103F10004AE00E9425228DE091E00E94A7223AC14A
:103F2000082E000C990B0E941631892B09F432C11E
:103F300080917A02082E000C990B0E941631892B71
:103F400009F428C180913402882309F423C140E197
:103F500050E060E070E089E792E00E946F2B162F3E
:103F600080917B028E3651F480917C02082E000CE9
:103F7000990B0E941631892B09F016C11E3308F0E7
:103F800045C11F3208F040C160E8812F0E947F12B6
:103F9000082F8AE691E00E942322812F0E94D711E8
:103FA00084E292E00E942322802F0E94D71185E1B3
:103FB00092E00E949922EEC080913402882309F495
:103FC000E9C00E94E7110E945813E4C08091790271
:103FD000082E000C990B0E941631892B09F4DAC0C7
:103FE00080917A02082E000C990B0E941631892BC1
:103FF00009F4D0C080913402811169C1CBC0809195
:104000007902082E000C990B0E941631892B09F4B5
:10401000C1C080917A02082E000C990B0E941631C3
:10402000892B09F4B7C080913402811176C1B2C0E6
:1040300080917902833509F040C090917A029333E0
:10404000E1F580917B02082E000C990B0E9416313D
:10405000892B09F49FC040E150E060E070E08AE7FE
:1040600092E00E946F2B162F6E3308F093C0862FBC
:104070000E94E612F82E61E070E080E090E00E947D
:10408000AE238DE30E94E612082F8FE391E00E9499
:10409000A722812F0E94D71182E391E00E94A722DC
:1040A0008F2D82958F700E94D71189E291E00E9436
:1040B000A722802F82958F7078CF082E000C990B45
:1040C0000E941631892B09F465C080917A02082E6E
:1040D000000C990B0E941631892B09F45BC080916A
:1040E0007B02082E000C990B0E941631892B09F4D3
:1040F00051C080917C02082E000C990B0E94163151
:10410000892BD1F447C080913402882309F477C108
:104110000E949F12811173C189E192E00E94A7223F
:1041200081E791E00E94A72287E691E065C18DE4D6
:1041300091E00E940B2331C01B8280917902909103
:104140007A029A83898340E150E060E070E0CE011A
:1041500001960E946F2B162F80917B0290917C021A
:104160009A83898340E150E060E070E0CE010196DF
:104170000E946F2B062F812F90E00E948F25809147
:104180003402882321F0602F812F0E9456121231B1
:1041900009F4F7C081E0809335021092870232C1A2
:1041A0001F5F10938702E9CC40E150E060E070E0CF
:1041B0008CE792E00E946F2B1F3260F782E0E82EBE
:1041C000E60E8AE691E00E942322812F0E94D711F9
:1041D00082E292E00E9423228E2D0E94D71189E470
:1041E00091E00E942322F12CE10EF11C812F90E03E
:1041F0008E159F050CF0DBCE60E8812F0E947F12A8
:104200000E94D7111F5FF2CF60ECBFCE1E33C1F505
:1042100083E291E00E94A7222A981C9B0FC061E0D4
:1042200070E080E090E00E94AE2380910C01882332
:1042300009F4B0CF815080930C01EFCF8EEF0E9434
:104240000C128E010F5F1F4F6E01F9E0CF0ED11CD3
:10425000780180E00E940C12F70181937F01CE1655
:10426000DF06B9F72A9A81E291E00E94A722F801BD
:1042700081918F010E94D711C016D106A1F797CE68
:10428000193909F087CF10E0112341F0103111F0F6
:10429000103279F481E291E00E94A7228AE191E054
:1042A0000E94A722812F0E94D71187E191E00E94EE
:1042B000A72260E8812F0E947F120E94D71186E218
:1042C00092E00E9423221F5F1F32F1F670CE40E180
:1042D00050E060E070E089E792E00E946F2BF62EDC
:1042E00000E310E0013321F46F2D81E390E002C080
:1042F00060E0C8010E948F250F5F1F4F0833110532
:1043000089F70E94121281ED91E00E94A7228F2D61
:104310000E94D71180EC91E06FC040E150E060E076
:1043200070E089E792E00E946F2BE62E89EB91E026
:104330000E94A72283E492E00E94A7228E2D0E9471
:10434000D71180917B02F12C8E3699F486EB91E0A7
:104350000E94A72200E010E0C701800F911F0E9479
:1043600091250E94D7110F5F1F4F00311105A1F752
:104370001ECE82EB91E00E94A722C7010E949125E8
:1043800014CE82E090E00E9491258D3009F002CF9A
:10439000073C10F416EB01C016E5612F83E290E0B4
:1043A0000E948F2580913402882321F0612F83E2BF
:1043B0000E94561280917B0290917C029A8389839D
:1043C00040E150E060E070E0CE0101960E946F2B6A
:1043D000673510F417E001C017E4612F85E090E025
:1043E0000E948F2580913402882309F4D3CE612F57
:1043F00085E00E945612CECE0E940B23CBCE8CE0DD
:1044000092E0D7CD28960FB6F894DEBF0FBECDBF91
:10441000DF91CF911F910F91FF90EF90DF90CF90A0
:104420000895009769F0FC0101900020E9F73197A9
:10443000AF01481B590BBC0181E992E00C94751B3C
:1044400080E090E008950C9411228F929F92AF9299
:10445000BF920F931F93CF93DF93CDB7DEB7A19792
:104460000FB6F894DEBF0FBECDBF19A2423008F4DC
:104470004AE08E010F5D1F4F842E912CA12CB12C90
:10448000A50194010E94D02EE62FB901CA01015066
:104490001109EA3014F4E05D01C0E95CD801EC9345
:1044A000232B242B252B61F7C8010E941122A196F2
:1044B0000FB6F894DEBF0FBECDBFDF91CF911F9135
:1044C0000F91BF90AF909F908F900895682F81E9D2
:1044D00092E00C94AF1BCF92DF92EF92FF92CF93BA
:1044E000DF936C01990FEE08FF08F7FE17C08DE20D
:1044F0000E946622EC0166277727CB016C197D09A3
:104500008E099F094AE00E9425228C0F9D1FDF9192
:10451000CF91FF90EF90DF90CF9008954AE0C701D0
:10452000B601DF91CF91FF90EF90DF90CF900C9488
:104530002522CF93DF930E941122EC0183E192E0C8
:104540000E9411228C0F9D1FDF91CF9108950F9330
:104550001F93CF93DF938C01C0E0D0E0F801EC0F04
:10456000FD1F6491662341F081E992E00E94AF1B38
:10457000892B11F02196F2CFCE01DF91CF911F91BF
:104580000F910895EDE8F2E09491E9E7F2E02491CB
:10459000E5E6F2E0E491EE2309F43CC0992339F119
:1045A000933091F038F49130A9F0923001F594B540
:1045B0009F7D12C0973091F09830A1F09430B9F4FB
:1045C000909180009F7D03C0909180009F77909391
:1045D00080000DC094B59F7794BD09C09091B00044
:1045E0009F7703C09091B0009F7D9093B000F0E062
:1045F000EE0FFF1FEE5AFD4FA591B4919FB7F894AF
:10460000811104C08C912095282302C0EC912E2B9F
:104610002C939FBF0895CF93DF930E94A722EC01B4
:1046200083E192E00E9411228C0F9D1FDF91CF91B8
:104630000895CF92DF92EF92FF92CF93DF936C01B8
:10464000990FEE08FF08F7FE11C08DE20E94662266
:10465000EC0166277727CB016C197D098E099F092C
:104660004AE00E942522C80FD91F06C04AE0C701B0
:10467000B6010E942522EC0183E192E00E94112202
:104680008C0F9D1FDF91CF91FF90EF90DF90CF9027
:1046900008952FB7F8948091880290918902A09193
:1046A0008A02B0918B022FBF8093990290939A0255
:1046B000A0939B02B0939C0281E992E00E94112595
:1046C00097FF26C02FB7F8948091880290918902B5
:1046D000A0918A02B0918B022FBF40919902509114
:1046E0009A0260919B0270919C02841B950BA60B11
:1046F000B70B40919502509196026091970270918C
:10470000980284179507A607B707B0F28FEF9FEFBF
:1047100008953FB7F89480918D0290918E02A091F8
:104720008F02B091900226B5A89B05C02F3F19F0CB
:104730000196A11DB11D3FBFBA2FA92F982F882721
:10474000820F911DA11DB11DBC01CD0143E0660F7B
:10475000771F881F991F4A95D1F708958F929F92CE
:10476000AF92BF92CF92DF92EF92FF926B017C01EA
:104770000E9489234B015C01C114D104E104F104BE
:10478000F1F00E948923DC01CB0188199909AA095B
:10479000BB09883E9340A105B10570F321E0C21A20
:1047A000D108E108F10888EE880E83E0981EA11C6C
:1047B000B11CC114D104E104F10419F7DDCFFF905D
:1047C000EF90DF90CF90BF90AF909F908F90089523
:1047D0001F920F920FB60F9211242F933F938F9336
:1047E0009F93AF93BF938091880290918902A0918B
:1047F0008A02B0918B0230918C0226E0230F2D3774
:1048000020F40296A11DB11D05C029E8230F0396CF
:10481000A11DB11D20938C02809388029093890280
:10482000A0938A02B0938B0280918D0290918E02A8
:10483000A0918F02B09190020196A11DB11D8093AD
:104840008D0290938E02A0938F02B0939002BF913D
:10485000AF919F918F913F912F910F900FBE0F902D
:104860001F9018959F92AF92BF92CF92DF92EF92D6
:10487000FF920F931F93CF93DF9300D000D000D00F
:10488000CDB7DEB7FC0124813581232B09F48DC01F
:104890008C0164EA71E0CE0101960E94FC1BF801D4
:1048A00084819581C980DA80892B59F0E080F1807C
:1048B000B601C7010E945131009719F08E199F0966
:1048C00002C08FEF9FEFF82EC6010E94E62AFFEF8D
:1048D000FF1223C064E172E0CE0101960E94FC1B2E
:1048E000F80184819581C980DA80892B59F0E080B4
:1048F000F180B601C7010E945131009719F08E195D
:104900009F0902C08FEF9FEFF82EC6010E94E62A92
:10491000FFEFFF1202C0F801F4802A988FE70E948F
:104920000C12E12CEF1488F5CE2CD12CF801A480C8
:10493000B580CA14DB0448F480819181009729F086
:10494000FC01EC0DFD1D808101C080E00E94B113CF
:10495000982E929480EF982296012F5F3F4F2A1550
:104960003B0550F4F80180819181009729F0FC010A
:10497000E20FF31F808101C080E00E94B113890D16
:104980000E940C12E394E394CDCF2A9A18EC60ECC9
:1049900085E30E947F12833141F461E070E080E0A2
:1049A00090E00E94AE23115091F726960FB6F8942E
:1049B000DEBF0FBECDBFDF91CF911F910F91FF9052
:1049C000EF90DF90CF90BF90AF909F900895CF93DE
:1049D000DF931F92CDB7DEB789838BEF93E00E9400
:1049E0005016811109C041E0BE016F5F7F4F8BEF10
:1049F00093E00E94491402C080E090E00F90DF91A4
:104A0000CF910895FC01538D448D252F30E0842FE4
:104A100090E0821B930B541710F0CF9608950197E6
:104A20000895FC01918D828D981761F0828DDF01D0
:104A3000A80FB11D5D968C91928D9F5F9F73928F91
:104A400090E008958FEF9FEF0895FC01918D828D86
:104A5000981731F0828DE80FF11D858D90E0089553
:104A60008FEF9FEF0895FC01918D228D892F90E0AB
:104A7000805C9F4F821B91098F73992708950E9434
:104A8000A51B81110C94AD1D0895FC01CB01642F71
:104A90000994FC010994FC01848DDF01A80FB11D6C
:104AA000A35ABF4F2C91848D90E001968F73992764
:104AB000848FA689B7892C93A089B1898C91837042
:104AC00080648C93938D848D981306C00288F3893B
:104AD000E02D80818F7D80830895CF93DF93EC015B
:104AE000888D8823C9F0EA89FB89808185FD05C00E
:104AF000A889B9898C9186FD0FC00FB607FCF5CF48
:104B0000808185FFF2CFA889B9898C9185FFEDCF8F
:104B1000CE010E944B25E7CFDF91CF9108950C94F1
:104B2000B22E0C94AA2ECF93DF93CDB7DEB72A977F
:104B30000FB6F894DEBF0FBECDBF789484B5826007
:104B400084BD84B5816084BD85B5826085BD85B531
:104B5000816085BD80916E00816080936E001092AF
:104B6000810080918100826080938100809181002A
:104B700081608093810080918000816080938000BB
:104B80008091B10084608093B1008091B000816019
:104B90008093B00080917A00846080937A00809145
:104BA0007A00826080937A0080917A008E7F809371
:104BB0007A0080917A00806880937A001092C10018
:104BC000E091A102F091A20282E08083E0919D0237
:104BD000F0919E021082E0919F02F091A00280E18C
:104BE00080831092A902E091A502F091A60286E0CE
:104BF0008083E091A302F091A40280818061808390
:104C0000E091A302F091A402808188608083E0910A
:104C1000A302F091A402808180688083E091A302C6
:104C2000F091A40280818F7D80835298219A259AE9
:104C3000239A2498229A80E58CBD2A9A2D9A2B9843
:104C4000529853982D9A2B9880E090E00E949125DD
:104C5000833309F0EFC281E090E00E9491258D310D
:104C600009F0E8C28FEF90E00E949125982F917093
:104C70009093350381FB992790F99093330382FB3E
:104C8000992790F99093340383FB882780F98093C8
:104C900036030E9458130E94B912815091E08E3F52
:104CA00008F090E0909334021E821D828E3F98F4AB
:104CB00089E495E29C838B838B819C81AD81BE814D
:104CC0008093F7039093F803A093F903B093FA034A
:104CD0008FEA92E112C089E495E29C838B838B81F9
:104CE0009C81AD81BE818093F7039093F803A093DC
:104CF000F903B093FA0384E291E19093F603809371
:104D0000F503539A62E370E080E090E00E94AE23E6
:104D100080E1809381001092800082E080933302D2
:104D200080E89EE390933202809331029093870053
:104D30008093860082E18093810085E09DE19093DD
:104D4000300280932F0281E080936F001E821D82CB
:104D500085E495E29C838B838B819C81AD81BE81B0
:104D60008093FD039093FE03A093FF03B093000490
:104D700080EF9CE19093FC038093FB0380913402CD
:104D8000882309F46DC20E949F12811169C280E9D3
:104D900091E0A0E0B0E08093950290939602A093FA
:104DA0009702B093980272E0872E912CA12CB12C1F
:104DB00066246394E7E07E2EF3E0CF2ED12C809121
:104DC0000B01833009F0BAC180910204882309F4F1
:104DD0002EC28091020481508093020480910404C9
:104DE000609101040E94432F90930404E091040415
:104DF00081E08E0F80930404F0E0EE0FFF1FEB5F65
:104E0000FB4F8081918190933702809336021092FC
:104E1000450360914203662391F070E0615071098F
:104E200084E593E00E94C5138091DA03880F990B03
:104E300081529C4F909353038093520304C010926D
:104E40005303109252034091360250913702E09181
:104E50005003F09151035183408390914203992371
:104E600079F0E0915203F0915303309749F020819B
:104E7000318124273527232F221F2227221F01C0FB
:104E800021E031E09E3F09F430E081E041155348D4
:104E90000CF480E0832311F0211132C00E947701CD
:104EA00080914503811104C08091F2038823B1F001
:104EB000809142038823D1F0E0915203F091530393
:104EC0003097A1F0A0915003B09151032D913C91E6
:104ED000808191818227932797FD08C082E393E028
:104EE0000E94E614109253031092520380914203E1
:104EF0008E3F91F560E070E0CB010E94AE232CC0A4
:104F0000983251F5D0924B03C0924A0385EF93E05B
:104F10000E945016811120C02091F5033091F603B4
:104F2000E091F703F091F8034091F9035091FA03EF
:104F3000CA019595879540FF0AC0D901A80FB91FEE
:104F40004D915C91E40FF51F0190F081E02D820FEF
:104F5000931F09958093F403E0905003F090510360
:104F6000D7010D911C91B80117FF04C06627772760
:104F7000601B710B072E000C880B990B0E948D2D66
:104F80002DEC3CEC4CE45EE30E94EC2D0E941730CB
:104F90009B0170934903609348036091EF03EFED29
:104FA000F3E0512C6515C1F081919191A80148273A
:104FB000592757FD0FC0009769F0A801481B590BEE
:104FC000CA0157FF03C091958195910928173907A8
:104FD0000CF049C15394E6CF6830E1F540E060E061
:104FE00082E393E00E946B14E091F003F0E0EE5C4A
:104FF000FC4F8681833040F00E94770140E060E002
:1050000082E393E00E946B14109142031150E091EF
:10501000F003F0E0EE5CFC4F86818823D9F08091AC
:1050200042038823B9F0612F70E084E593E00E9489
:10503000C5132091DA03022E000C330B8091F0038C
:1050400090E02817390711F761E0610F82E393E0E0
:105050000E942B155090F003E0915003F091510302
:1050600080819181E52DF0E0EE0FFF1FE152FC4FB2
:105070009183808381E0850D883019F08093F0035F
:1050800006C01092F0038093EF031092F203809118
:10509000F0039091EF03981710F48093EF03352DF0
:1050A0002091D8038091D4039091D5032730B9F48F
:1050B00018161906A4F4E091D3036E2F70E0409106
:1050C000D90350E041505109641775070CF0FAC03C
:1050D000EF5FE093D303F0E0EE5CFC4F12A2A091EF
:1050E000D6034A2F50E0622F70E06F5F7F4F641B42
:1050F000750B161617062CF4352D01C0330F6A9563
:10510000EAF7E091D303F0E0EE5CFC4F62A1362BAE
:1051100032A301969093D5038093D403622F022E7D
:10512000000C770BFB01E41BF50BF7FD04C02A1BF9
:105130002093D803BBC07092D803B8C04A9B77C0F5
:10514000809135020E94C22260EC8BE30E947F12A4
:10515000582E882309F46BC00E94AF12482E57FCCA
:105160004FC0F0E4F51510F490E4592E2A988FEF13
:105170000E940C1288E3E82E82E0F82E8701222498
:105180002394312C80E00E940C12D8019C91891745
:1051900011F08C93212C33940F5F1F4F351490F333
:1051A0002A9A80910B01823019F4211029C002C083
:1051B000893039F082E00E94662288EE90E00E94F9
:1051C000A72210E0F70181917F010E94D7111F5F94
:1051D0001515C0F384EE90E00E94A722642D70E0C4
:1051E00080E090E04AE00E94252284EA91E00E945B
:1051F000232283E00E94662284E192E00E9423221F
:1052000060EC85E30E947F12813121F080910B01D7
:1052100081110DC086E30E94D312882341F08DE3F3
:105220000E94E6128AE30E94E6120E942F130E9457
:105230003F25C5CD6FE08FEF90E00E948F2580EC79
:1052400090E00E940B2363E380E090E00E948F25B2
:105250006DE181E090E00E948F250E94E71102CD70
:105260000E94451394CD57FCB7CE052D000F110BAE
:1052700001521C4FD8016D917C919B01770F440B1B
:10528000550BD7018D919C91092E000CAA0BBB0BDD
:10529000280F391F4A1F5B1FCA01B901A5019401DC
:1052A0000E94772FF80131832083F9CE8093420347
:1052B0001092460380914503882309F485CD6092BE
:1052C000350282CD60E070E0CB010E94AE2363EB3B
:1052D00071E082E393E00E94611664EC71E082E386
:1052E00093E00E946116809143030E94E7246DECD5
:1052F00071E082E393E00E946116809144030E9472
:10530000E72464ED71E082E393E00E946116852D4D
:105310000E94E7246AED71E082E393E00E94611647
:10532000809142030E94E72463EE71E082E393E000
:105330000E9461168091D3030E94E7246AEE71E017
:1053400082E393E00E9461168091D4030E94E724D7
:1053500061EF71E082E393E00E9461168091460361
:105360000E94E7246AEF71E082E393E00E946116F5
:1053700080914A030E94E72462E072E082E393E0B6
:105380000E946116809145030E94E7248AE00E94F2
:10539000E72490CFCF93DF93E1E9F2E0138212820A
:1053A00088EE93E0A0E0B0E084839583A683B78382
:1053B0008BE191E09183808385EC90E095878487F1
:1053C00084EC90E09787868780EC90E0918B808BCF
:1053D00081EC90E0938B828B82EC90E0958B848BB8
:1053E00086EC90E0978B868B118E128E138E148E26
:1053F000E1E0F4E08AE58083118213821282C2E345
:10540000D3E08CE493E09F8F8E8F19A218A28FE7D0
:105410008093D90384E08093D6031AA21092D30319
:105420001092D5031092D40387E08093D80380EFC5
:105430008093D7031092F4031092F6031092F503B1
:105440001092F8031092F7031092FA031092F903E6
:105450001092FC031092FB031092FE031092FD03C6
:10546000109200041092FF031B8E1A8ECE010E9430
:10547000E61481E18093F3031D8281E08C831F8613
:105480001E860E94892360932E0370932F038093BE
:10549000300390933103DF91CF9108950F931F93C1
:1054A000CF93DF938230910510F482E090E0E09199
:1054B000BB04F091BC0420E030E0A0E0B0E0309705
:1054C00019F1408151810281138148175907C8F0B1
:1054D0008417950769F4109731F012960C93129780
:1054E00013961C9327C00093BB041093BC0422C0E6
:1054F0002115310519F04217530718F49A01BD011F
:10550000EF01DF01F801DBCF21153105F9F0281B90
:10551000390B2430310580F48A819B816115710536
:1055200021F0FB019383828304C09093BC04809399
:10553000BB04FE01329644C0FE01E20FF31F8193CB
:10554000919322503109398328833AC02091B904BC
:105550003091BA04232B41F420910F0130911001B6
:105560003093BA042093B90420910D0130910E01BB
:105570002115310541F42DB73EB7409111015091ED
:105580001201241B350BE091B904F091BA04E21723
:10559000F307A0F42E1B3F0B2817390778F0AC0156
:1055A0004E5F5F4F2417350748F04E0F5F1F509333
:1055B000BA044093B9048193919302C0E0E0F0E013
:1055C000CF01DF91CF911F910F910895CF93DF937A
:1055D000009709F481C0FC01329713821282A091D6
:1055E000BB04B091BC04109781F420813181820FFB
:1055F000931F2091B9043091BA042817390751F547
:10560000F093BA04E093B90467C0ED0120E030E004
:10561000CE17DF0740F44A815B819E014115510599
:10562000F1F0EA01F5CFD383C28340815181840F29
:10563000951FC817D90759F488819981840F951F40
:105640000296918380838A819B8193838283211533
:10565000310529F4F093BC04E093BB043DC0E9019B
:10566000FB83EA8349915991C40FD51FEC17FD07BD
:1056700061F480819181840F951F0296E9019983DD
:105680008883828193819B838A83E0E0F0E0129695
:105690008D919C911397009719F0FD01DC01F7CFD4
:1056A0008D919C9111979D012E5F3F4F820F931F0B
:1056B0002091B9043091BA042817390769F430975A
:1056C00029F41092BC041092BB0402C0138212820F
:1056D000B093BA04A093B904DF91CF910895A0E0EC
:1056E000B0E0E5E7FBE20C94FE2E5C016B017A0171
:1056F0006115710519F0FB0191838083E114F104B8
:1057000029F0C7010297839708F0E5C0E5012196CB
:10571000F5011081812F90E00E947A2D892B11F0E4
:105720005E01F4CF1D3229F42196F501118101E0CB
:1057300007C01B3221F4E5012296F501118100E03A
:10574000E114F10409F1F0E1EF16F10429F43FC08E
:1057500010E3E114F10421F128E0E216F10401F173
:1057600054F4E2E0EE16F10421F5812C912CA12CE9
:10577000B0E4BB2E3EC0FAE0EF16F10439F020E1B0
:10578000E216F104B1F430C0103319F1FAE0EF2E53
:10579000F12CACEC8A2E982CA82CACE0BA2E29C0A7
:1057A00078E0E72EF12C812C912CA12CE0E1BE2E8B
:1057B00020C060E070E080E090E897010F2C000CC2
:1057C000440B550B0E94D02E49015A0112C01033D0
:1057D00059F488818F7D883509F0BACF19812296D6
:1057E000026080E1E82EF12C812C912CA12C68E044
:1057F000B62E40E060E070E0CB0127010F2C000CDA
:1058000066087708FE0150ED352E310E29E023158C
:1058100070F42FEB210F2A3118F439EC332E06C027
:105820002FE9210F2A3118F529EA322E310E232DC6
:1058300030E02E153F05DCF447FD16C086169706AE
:10584000A806B90670F0A30192010E94C02E630D54
:10585000711D811D911D61307105810520E8920740
:1058600010F04FEF01C041E021961081CBCF202FE7
:105870002170C114D10471F0442329F02197F6015D
:10588000D183C08307C001FF19C02297F601D183DD
:10589000C08314C047FF12C0222329F060E070E0EB
:1058A00080E090E804C06FEF7FEF8FEF9FE722E288
:1058B00030E03093BE042093BD0409C0222381F060
:1058C00090958095709561957F4F8F4F9F4F462F94
:1058D000372F282F12C040E030E020E090E00DC0CC
:1058E00097FFF5CF82E290E09093BE048093BD04D1
:1058F0006FEF7FEF8FEF9FE7EACF642F732F822F39
:10590000CDB7DEB7E1E10C941A2FA0E0B0E0EBE8F0
:10591000FCE20C94FE2E5C016B017A0161157105AD
:1059200019F0FB0191838083E114F10429F0C70190
:105930000297839708F0C9C0E5012196F50110810F
:10594000812F90E00E947A2D892B11F05E01F4CF17
:105950001D3229F42196F501118101E007C01B32A7
:1059600021F4E5012296F501118100E0E114F10432
:10597000B1F0F0E1EF16F10429F4B0C010E3E11446
:10598000F10401F12AE0E216F104B1F180E1E81638
:10599000F10471F0E8E0EE16F104F1F413C01033F5
:1059A00041F588818F7D883549F7198122960260FB
:1059B000F0E1EF2EF12C88248A94982CA82CAFE0EB
:1059C000BA2E20C078E0E72EF12C88248A94982CF7
:1059D000A82CEFE1BE2E16C06FEF7FEFCB01970131
:1059E0000F2C000C440B550B0E94D02E49015A017C
:1059F00009C08AE0E82EF12C69E9862E982CA82CA3
:105A000069E1B62E40E060E070E0CB0127010F2C89
:105A1000000C66087708FE0150ED352E310E29E0A6
:105A2000231570F42FEB210F2A3118F439EC332EA3
:105A300006C02FE9210F2A3130F529EA322E310E26
:105A4000232D30E02E153F05F4F44F3FC9F08616A4
:105A50009706A806B90688F0A30192010E94C02EFD
:105A6000232D30E040E050E0620F731F841F951F2C
:105A7000621773078407950710F44FEF01C041E0E8
:105A800021961081C8CFC114D10451F0442311F0E4
:105A9000219703C001FF04C02297F601D183C08380
:105AA00000FF07C090958095709561957F4F8F4F4F
:105AB0009F4F4F3F79F482E290E09093BE04809331
:105AC000BD043FEF2FEF9FEF0DC040E030E020E03E
:105AD00090E008C0462F372F282F04C0103309F05C
