:100000000C94C6000C94A71C0C94801C0C94EE005D
:100010000C94EE000C94EE000C94EE000C94EE00A8
:100020000C94EE000C94EE000C94EE000C94EE0098
:100030000C94EE000C94721B0C94EE000C94EE00E9
:100040000C94B21E0C94EE000C94F41C0C94CE1C78
:100050000C94EE000C94EE000C94EE000C94EE0068
:100060000C94EE000C94EE00746F206C6F6E6720A1
:1000700000636F72727570740073656E6420636DD7
:1000800064200000000000250028002B0004040468
:100090000404040404020202020202030303030331
:1000A000030102040810204080010204081020010E
:1000B00002040810200000000800020100000304F0
:1000C000070000000000000000436F6D6D616E646A
:1000D00020746F206C6F6E673A20004D43004D55C1
:1000E000003B003D004D530020626974732073652E
:1000F0007400556E737570706F72746564207368E8
:100100006F727420636F6D6D616E6400202D2063CB
:100110006F6D70696C6564206174204E6F7620325B
:100120003520323032302031383A32323A353400EC
:100130005620332E352E302D6465762B32303230FA
:10014000313132355F69746F61205349474E414CFC
:100150006475696E6F2000200020557365206F6EF6
:1001600065206F662000496E697420656570726F46
:100170006D20746F2064656661756C7473206166B0
:1001800074657220666C61736800DC2211241FBEE6
:10019000CFEFD8E0DEBFCDBF12E0A0E0B1E0E4E6F3
:1001A000F3E502C005900D92A030B107D9F724E025
:1001B000A0E0B2E001C01D92A635B207E1F710E061
:1001C000C6ECD0E004C02197FE010E94AF28C53CD8
:1001D000D107C9F70E94641F0C94B0290C94000049
:1001E0002F923F924F925F926F927F928F929F9247
:1001F000AF92BF92CF92DF92EF92FF920F931F9335
:10020000CF93DF93CDB7DEB7C855D1090FB6F894B9
:10021000DEBF0FBECDBF9E012F5F3F4F38A72FA37C
:1002200086E1D9011D928A95E9F780918903209191
:10023000D902811104C0283210F40C94390E1092A6
:10024000DC0291E02E3F09F090E09093DE0240E066
:1002500060E081113CC289EC92E00E942E13B12C27
:100260008B2C912CB0918603BDA78B2F90E001972A
:10027000881699060CF010C1F401E753FD4FCF0129
:1002800006962681222309F405C1AA24A394AB0C67
:100290009401220F331FF901EA58FC4FFEA7EDA786
:1002A00098AB8FA7FAABE9AB80918603A81608F04C
:1002B000F1C0EA2CF12C970127533D4F1901D901C8
:1002C00016968C91882309F4E3C0EDA5FEA5C080A5
:1002D000D180F701EE0FFF1FEA58FC4F008111811A
:1002E000C6018027912797FDD3C04090720350909C
:1002F00073036090740370907503B80117FF04C016
:1003000066277727601B710B072E000C880B990B53
:100310000E949F26A30192010E94FE266BAB7CAB3C
:100320008DAB9EABB601D7FE04C0662777276C194C
:100330007D09072E000C880B990B0E949F26A301B4
:1003400092010E94FE269B01AC016BA97CA98DA99C
:100350009EA90E94B62820E030E040E05FE30E94C2
:10036000FE260E9422290C191D0917FF03C01195B2
:1003700001951109601771070CF48AC0D12CC12CAA
:1003800081010A5F1F4F8091D902D81608F048C03A
:10039000D8018C91C81608F043C06D2D70E08BEE2B
:1003A00092E00E94AA1280917103082E000C990B12
:1003B000E816F90699F580916D03482F50E0D89E14
:1003C000C0011124FC0123E0F695E7952A95E1F799
:1003D00020917003E21708F587709927FF27E753EC
:1003E000FD4F20916E0330E0082E02C03595279511
:1003F0000A94E2F7209532A1232368E070E0641BA1
:10040000750BDB01A81BB90BA40102C0440F551FDB
:10041000AA95E2F7CA01822B82A3C394D394B3CFE7
:10042000AFA5B8A9CC90F101D680E9A9FAA9A0811D
:10043000B1818701000F111F0A581C4FF801E0809D
:10044000F180EC2DF0E09F010E94A8282B013C01D7
:100450004D2D50E09A01D7010E94A828640D751D0A
:10046000861D971DE40FF51F9F01FF0F440B550BD1
:100470000E948928A9A9BAA92D933C93DC0CEFA569
:10048000F8A9D082D10116961C92F801118210822F
:10049000A3940ACFB394E4CE1092E2021092E10248
:1004A0008FEF8093C902F091D902FFA72F2F30E080
:1004B0003AAB29ABB9ECCB2EB2E0DB2E16E7212EFE
:1004C00013E0312EE12CF12C0FEF1FEF4901330F18
:1004D000AA08BB084DA5E41608F059C00F3F5FEF0E
:1004E000150701F5D1018D919C9197FD1BC0F60177
:1004F000668170E080E090E00E949F262B013C0125
:10050000C501B4010E949F262BE734E14EE25EE371
:100510000E94FE269B01AC01C301B2010E94582932
:10052000181654F1D1018D919C9197FD26C0F801C8
:10053000EE0FFF1FEA58FC4F20813181821793078D
:10054000E4F4F601668170E080E090E00E949F266E
:100550002B013C01C501B4010E949F262BE734E129
:100560004EE25EE30E94FE269B01AC01C301B20194
:100570000E94582918160CF48701FFEFEF1AFF0AA2
:100580002FEFC21AD20A32E0230E311CA3CF0F3F45
:100590004FEF140741F00093C90281E090E090937F
:1005A000E2028093E1028091E1029091E2020197E0
:1005B00009F091C08091CC02882309F48CC069A90C
:1005C0007AA9663A71051CF40FA5085201C00DE71F
:1005D0001DA5115076E0D72E1F3F09F475C0E12EFE
:1005E000012E000CFF08F701EE0FFF1FEA58FC4F29
:1005F0002081318137FF66C0319521953109283638
:1006000072E437070CF05EC0E091C902EE0FFF0BF9
:10061000EA58FC4F0190F081E02DC901BF010E9412
:1006200061286D32710508F04DC0DE9EC001DF9E6D
:10063000900D11248217930708F044C0F701E75387
:10064000FD4FF6806F2D70E080E090E00E949F26C5
:100650004B015C016091D90270E080E090E00E9463
:100660009F262AE037ED43EA5DE30E94FE269B01C8
:10067000AC01C501B4010E94982687FF23C081E028
:100680008F1500F5E12CF12CE016E0F457019FEFF7
:10069000A91AB90AB5018BEE92E00E94AA128091C4
:1006A000710318130C94850EB7018BEE92E00E9433
:1006B000AA12909171038091C90298130C94850E2F
:1006C0000C94880E115088CF1093880304C089ECD5
:1006D00092E00E942E138091E1029091E202029733
:1006E00009F012C28091D902883208F40DC28091BB
:1006F000DA028E5F8093DB0210E06091DB0270E033
:100700008091D90290E0019768177907ACF46F5F88
:100710007F4F8BEE92E011110C9425100E94AA12CB
:100720009091710380918803981311E08091DB020E
:100730008E5F8093DB02E1CF10E08091D90290912F
:10074000DB02891710F48093DB024091DB02609199
:10075000DA0289EC92E00E942E136091DA021123F2
:1007600071F08091DB0290E0861B9109889794F4E8
:1007700081E090E09093E2028093E102C5C1809114
:10078000D9028E3F08F0AAC190E0861B9109889794
:100790000CF4A4C162E089EC92E00E94521B8091AB
:1007A000CD02882309F4BDC060E271E089EC92E0DB
:1007B0000E94241BF12C80918603F816C8F58F2D1A
:1007C00090E0FC01EE0FFF1FEA58FC4F0081118101
:1007D0000115110559F1FC01E753FD4F868188236E
:1007E00029F16F2D17FF05C0606A11950195110958
:1007F00001C06068E02E07FD04C0A02FA068EA2EAB
:1008000001C0606189EC92E00E94521B6E2D89EC60
:1008100092E00E94521B612F606889EC92E00E9476
:10082000521B6BE389EC92E00E94521BF394C3CFFE
:100830008091DB0280FF02C064E401C064E689ECC1
:1008400092E00E94521BE091DA02E0FF1CC0E150EE
:10085000E093DA02E69580917003E81728F4F0E05F
:10086000E753FD4F82A101C080E08F7080688DA7A3
:10087000682F89EC92E00E94521B8091DA028E5F11
:100880008093DA0201C01DA61091DA028091DB028A
:10089000811790F0E12FE69580917003E81728F416
:1008A000F0E0E753FD4FB2A1BDA76DA589EC92E042
:1008B0000E94521B1E5FEACF64E271E089EC92E075
:1008C0000E94241B6091C902605D89EC92E00E9445
:1008D000521B67E271E089EC92E00E94241B609158
:1008E0008803605D89EC92E00E94521B6BE389EC07
:1008F00092E00E94521B8CE893E00E94131B81112E
:10090000ABC062E589EC92E00E94521B80918B03A0
:1009100090E00E944C1F6BE389EC92E00E94521B16
:100920009BC06AE271E089EC92E00E94241B10E017
:10093000809186031817B8F5812F90E09C01220F53
:10094000331FF901EA58FC4F7F0120813181232BAD
:1009500041F1FC01E753FD4F8681882311F160E5E9
:1009600089EC92E00E94521B60E3610F89EC92E0F7
:100970000E94521B6DE389EC92E00E94521BBE0163
:100980006F5F7F4FD7018D919C910E94FC1EBC012F
:1009900089EC92E00E94241B6BE389EC92E00E94B8
:1009A000521B1F5FC5CF65E571E089EC92E00E94A4
:1009B000241B1091DA028091DB02811778F0612FFD
:1009C00070E08BEE92E00E94AA1260917103605D6C
:1009D00089EC92E00E94521B1F5FEDCF6EE271E046
:1009E00089EC92E00E94241B6091C902605D89EC51
:1009F00092E00E94521B63E371E089EC92E00E9456
:100A0000241B60918803605D89EC92E00E94521B78
:100A10006BE389EC92E00E94521B8CE893E00E9409
:100A2000131B811118C068E371E089EC92E00E9409
:100A3000241B80918B03BE016F5F7F4F90E00E946B
:100A4000FC1EBC0189EC92E00E94241B6BE389EC44
:100A500092E00E94521B1DA68091DE02882331F095
:100A60006BE371E089EC92E00E94241B1092DD029E
:100A70006091DB028091D90290E0861B91098897F2
:100A8000FCF08091CE028823D9F081508093CE0271
:100A90006F5F89EC92E00E94EE191092DA026DE627
:100AA00089EC92E00E94521B6091CE02605D89EC5D
:100AB00092E00E94521B6BE389EC92E00E94521B71
:100AC00063E089EC92E00E94521B6AE089EC92E0BC
:100AD0000E94521B81E08093DC0217C0662369F0FC
:100AE0008091DB0290E08D3F91053CF089EC92E033
:100AF0000E94EE191092DA0207C089EC92E00E947F
:100B0000A91381E08093DC021DA68091DC02811193
:100B100053C78091CA02B091CB022696BFAF2697E9
:100B2000811104C0BB2311F40C94390E2696EFAD4D
:100B30002697EE2309F440C78091D7029091D802FE
:100B4000892B39F585E490E00E946023FC0182E363
:100B500080AF81E085AB108212AA14AA13AA87E0A5
:100B600087AB80E886AB8FEF84AF85AF86AF87AF6A
:100B7000DF01AD5BBF4F1C9211961C9289EC92E095
:100B800093AF82AF14971D921C92F093D802E0931A
:100B9000D70280918903882311F10091D702109127
:100BA000D802D801DA96ED91FC91DB97148A118A6C
:100BB000DA96ED91FC91DB97E054FF4F1082512CB7
:100BC0005801B4E4AB0EB11C442443943801E2E470
:100BD0006E0E711C1801F3E42F0E311CB3C120906E
:100BE000D7023090D8028FEFD101DC968C93DC973E
:100BF000DD968C93DD97DF968C93DF97DE968C9352
:100C0000DE97F101ED5BFF4F108231961082349731
:100C100011821082F101108212AA14AA13AA87E08D
:100C200087ABEE5BFF4F80918A038083DA960D914C
:100C30001C91DB97F801E354FF4FF080B3E0BF1540
:100C400008F0BAC6F801608970E080E090E00E9488
:100C50009F262AE037ED43E25DE30E94FE264B012A
:100C60005C0120E030E0A9010E94582920E030E03A
:100C700040E05FE387FD05C0C501B4010E94B628CE
:100C800004C0C501B4010E94B5280E942229580160
:100C9000F6E0AF0EB11CF801E355FF4F1AAE70E05D
:100CA000D5018D915D01861788F1EAAC8E2D90E01B
:100CB000EE2009F126E130E02C0F3D1F280F391FEF
:100CC000D901DC9098012D0D311D2D0D311D2355BD
:100CD0003F4F40815181D9012D913C9142175307DB
:100CE00054F427E130E02C0F3D1F820F931FDC01ED
:100CF000DC92EA94DBCF27E130E02C0F3D1F820F1E
:100D0000931FDC017C93BAADBF5FBAAF7F5F3296B1
:100D1000F712C6CFFE017796F8A7EFA32596FFAF8F
:100D2000EEAF259740910A0150910B0160910C01A3
:100D300070910D0160964CAF5DAF6EAF7FAF609765
:100D4000B1016E5B7F4F62967FAF6EAF6297C1015C
:100D50008D5B9F4F9CAF8BAFD101AC5BBF4F699652
:100D6000BFAFAEAF69973C96FCA7EBA7FFA1679614
:100D7000FFAF679724968FAD24978F1B3AAD8317EB
:100D800008F01AC6D101DA964C91DA97DB963C91BD
:100D9000DB972596EEADFFAD259721912596FFAF08
:100DA000EEAF2597842F932F820F911D820F911DF7
:100DB000FC01E355FF4F8081918118161906B4F6A6
:100DC0008FEFDC968C93DC97DD968C93DD97DF9626
:100DD0008C93DF97DE968C932081318138AB2FA7DF
:100DE000B901330F880B990B0E949F262A966CAF8E
:100DF0007DAF8EAF9FAF2A972DEC3CEC4CE45EE3C9
:100E00000E94FE260E94222964967FAF6EAF6497EF
:100E10008FA598A997FD0196AC01559547956696C3
:100E20005FAF4EAF6697BE01695E7F4F21967FAF81
:100E30006EAF21971EAE8FEF9FEF99AF88AF1DAEBB
:100E4000DE015F96BAA7A9A74E01B7E28B0E911CEF
:100E50002196EEADFFAD2197D1902196FFAFEEAF79
:100E60002197D101DA963C91DA97DB962C91832F6A
:100E7000922F8D0D911D8D0D911DFC01E355FF4F9E
:100E800000811181780117FF04C0EE24FF24E01ACD
:100E9000F10A66968EAD9FAD66978E199F0997FFF2
:100EA00003C09195819591096496EEADFFAD64976D
:100EB000E817F907E4F42DEC3CEC4CEC5EE32A96E1
:100EC0006CAD7DAD8EAD9FAD2A970E94FE260E942F
:100ED00022298FA598A98E199F0997FF03C0919584
:100EE00081959109681779070CF01EC718C0101674
:100EF000110614F00C941410D101DE96DC92FDADB5
:100F0000FF5FFDAF28AD39AD200F311F39AF28AFDE
:100F1000D101DC968C91DC978F3F09F0E3C38FAD54
:100F20006796EFAD67978E1BFAAD8F1708F490CFD9
:100F30001DCFD5018C91882379F0F5018081811135
:100F40000DC15394D801DA96CD90DC90DB97F60171
:100F50008089581670F3C5C2E52CF12CB701C60183
:100F600082960E94AA12F601E855FF4F808190E018
:100F7000F80124AD022E000C330B8217930739F0D1
:100F800025AD022E000C330B82179307B1F6D80162
:100F9000DA96CD90DC90DB97B701C60182960E946D
:100FA000AA12F601E855FF4F8080F80195AC81E068
:100FB000891001C080E080930002D801DA96CD90BC
:100FC000DC90DB97B70161507109C60182960E94DF
:100FD000AA12F601E855FF4F8081F5014082D80141
:100FE000DA96ED91FC91DB97518A552009F4B0C057
:100FF00090E0891026C0DF962C91DF97022E000C1E
:10100000330B8217930709F43FC0DA962D913C9178
:10101000DB97FC01EE0FFF1FE20FF31FE355FF4FBD
:10102000DC968C91A82FAA0FBB0BA20FB31FA35560
:10103000BF4F208131818D919C912817390724F170
:1010400029C0F80126AD022E000C330B821793073E
:10105000D9F022AD33ADFC01EE0FFF1FE20FF31FFD
:10106000E355FF4FD801DD968C91A82FAA0FBB0B3B
:101070002A0F3B1FD901A355BF4F208131818D918C
:101080009C918217930734F481E0891080E080936B
:10109000000208C0D801DA96ED91FC91DB978189B6
:1010A0008F5F818B60910002C8010E94E812FF24CB
:1010B000FA94F50CB1E0BF1508F043C0F80182AC1A
:1010C00093ACCF2CD12CB601C40182960E94AA12F7
:1010D000F401E855FF4F808190E0D801DF962C9114
:1010E000DF97022E000C330B8217930741F0DE9638
:1010F0002C91022E000C330B8217930711F5F80187
:1011000082AC93ACB60161507109C40182960E9411
:10111000AA12F401E855FF4F808190E0D801DF96D4
:101120002C91022E000C330B8217930709F499C6F9
:10113000F80126AD022E000C330B8217930709F439
:1011400090C6D801DA96ED91FC91DB975188F5CEE7
:1011500081E0891080E080930002EFCED801DA961A
:10116000CD90DC90DB97E52CF12CB701C60182967F
:101170000E94AA12F601E855FF4FC080D12CF80159
:1011800084AD082E000C990B82AC93ACC816D9061E
:1011900009F4EDC685AD082E000C990BC816D906CA
:1011A00009F4E5C6B7016F5F7F4FC40182960E94C4
:1011B000AA12F401E855FF4F2081809100028111AD
:1011C00019C0D801DA96ED91FC91DB97808990E007
:1011D0000297E816F9067CF5DF968C91DF97082ECA
:1011E000000C990B8C159D0531F5422F50E0DE96D1
:1011F0008C911AC08130F9F4D801DA96ED91FC9106
:10120000DB97808990E00297E816F906A4F4DE9651
:101210008C91DE97082E000C990B8C159D0559F4C6
:10122000422F50E0DF968C91082E000C990B481746
:10123000590709F44AC1F3018081082E000C990B6B
:10124000D801D3964D915C91D4974817590764F40F
:10125000F1011082D5011C92F801108212AA14AA81
:1012600013AA27E027AB31C1D801DA96ED91FC91A2
:10127000DB97528ADA96AD90BC90DB97BDEF5B129C
:1012800013C0F501808990E00197E816F90661F432
:10129000E054FF4F81E0808384E090E0D5015996CF
:1012A0009C938E93589775C0D801DC96EC91DC978F
:1012B000EE0FFF0BEA0DFB1DE355FF4F40815181FF
:1012C000F601EE0FFF1FEA0DFB1DE355FF4F608196
:1012D0007181F501808964177507E4F4682F70E067
:1012E00061507109E616F706ACF4E22FF0E0DD96E6
:1012F0006C91DD97062E000C770BE617F70709F4C3
:101300006EC6DE966C91062E000C770BE617F7077B
:1013100009F465C690E00297E816F906D4F5D801FD
:10132000DF968C91DF97082E000C990BC816D90612
:1013300041F0DE968C91082E000C990BC816D90648
:1013400041F5C501820F911D820F911DFC01E355EE
:10135000FF4F8081918184179507DCF4B7016E5FA0
:101360007F4FC50182960E94AA12F501E855FF4FF2
:10137000808190E0F80124AD022E000C330B82171F
:10138000930709F002C681E0850D511027C6552448
:101390005394652DD801DA968D919C91DB970E942C
:1013A000EE19D801DA96ED91FC91DB97E054FF4FEE
:1013B000808181111FC6F3018081082E000C990BDA
:1013C000D3962D913C91D497281739070CF412C667
:1013D00062E089EC92E00E94521B6EE371E089ECBE
:1013E00092E00E94241BE091D702F091D802E4AD74
:1013F000EE0FFF0BEA58FC4FBE016F5F7F4F8081FD
:1014000091810E94FC1EBC0189EC92E00E94241B89
:1014100065E471E089EC92E00E94241BE091D70220
:10142000F091D802E5ADEE0FFF0BEA58FC4FBE017C
:101430006F5F7F4F808191810E94FC1EBC0189EC0F
:1014400092E00E94241B6AE471E089EC92E00E9421
:10145000241BE091D702F091D802E7ADEE0FFF0B0D
:10146000EA58FC4FBE016F5F7F4F808191810E94DF
:10147000FC1EBC0189EC92E00E94241B6FE471E029
:1014800089EC92E00E94241BE091D702F091D802EF
:10149000E6ADEE0FFF0BEA58FC4FBE016F5F7F4FCA
:1014A000808191810E94FC1EBC0189EC92E00E9427
:1014B000241B64E571E089EC92E00E94241B0091FA
:1014C000D7021091D802F12C5FC05394D5018C91B2
:1014D000882309F436CD60910002C8010E94E81209
:1014E00030CDF601528AA8014E5B5F4FD801D396EA
:1014F0002D913C91D497BEEF5B1220C0FA01808100
:1015000087FD8F5F8595082E000C990BD801DA9620
:10151000ED91FC91DB978217930754F4DF01A054FF
:10152000BF4F81E08C9384E090E0918F808F62C503
:10153000CF0180549F4FDC011C92148AFA018081F4
:10154000082E000C990B40CFF21658F5F801EC0D5F
:10155000FD1D8081282F30E064E0359527956A9540
:10156000E1F72A3000F1295C2F8B8F708A30E8F088
:10157000895C888F198EBE01695E7F4FF80182AD4C
:1015800093AD0E94241BF394CF2CD12CD801D2967A
:101590008C91D29790E0D8962C91C816D906A4F2D7
:1015A00006C080E0D7CF205DDFCF805DE2CFF216AE
:1015B00028F4F801EC0DFD1D608101C060E062952A
:1015C0006F706A3010F0695C01C0605DD801DA9616
:1015D0008D919C91DB970E94521BF80123A934A99D
:1015E000C90168E070E00E947528059724F427700F
:1015F0003327232BB1F4D801D8968C91F81628F410
:10160000F801EC0DFD1D608101C060E06F706A3073
:1016100010F0695C01C0605DF80182AD93AD0E947D
:10162000521B68E571E089EC92E00E94241BE09176
:10163000D702F091D802E05CFF4FBE016F5F7F4F91
:10164000808191810E94FC1EBC0189EC92E00E9485
:10165000241B6CE571E089EC92E00E94241BE09170
:10166000D702F091D802BE016F5F7F4F83A994A982
:101670000E94FC1EBC0189EC92E00E94241B6BE3DB
:1016800089EC92E00E94521B8CE893E00E94131BAD
:10169000811118C068E371E089EC92E00E94241B7C
:1016A00080918B03BE016F5F7F4F90E00E94FC1E14
:1016B000BC0189EC92E00E94241B6BE389EC92E070
:1016C0000E94521B63E089EC92E00E94521B6AE088
:1016D00089EC92E00E94521B1092890381E0809372
:1016E000DC026AC1DF968C91DF978F3F09F417CC3B
:1016F000DD968C91DD978F3F09F411CCDE968C91AD
:101700008F3F09F40CCC60962CAD3DAD4EAD5FAD76
:1017100060972BA33CA34DA35EA32F8F38A349A3AF
:101720005AA341E050E023965FAF4EAF2397A12C20
:10173000B12C1FEFD101DA96ED90FC90DB97F70109
:10174000808990E0A816B9060CF0E9CBB501C70175
:1017500082960E94AA12F701E855FF4F0081802F60
:1017600090E0D101DC962C91DC97022E000C330B1B
:101770008217930709F4DFC2DD962C91022E000C2C
:10178000330B8217930709F4D6C2D101DF962C914F
:10179000022E000C330B8217930709F4CCC2F1011F
:1017A00026AD022E000C330B8217930709F4C3C237
:1017B000D101DA96ED91FC91DB9781899501281B87
:1017C00031096296AEADBFAD62978C91082E000CC8
:1017D000990B821793070CF0F1C2A28AF10182AD36
:1017E00093ADDC0152964C91529751966C910E94A8
:1017F0002E13D101DA96ED91FC91DB97DE96BC9128
:10180000B9ABD101DD96BC91BBABD101DF960C9198
:10181000DF97DC96BC91BFABDF0129A9A20FB11DF8
:1018200027FDBA9516968C91DF013BA9A30FB11D38
:1018300037FDBA951696CC90D12CC80ED11CDF017D
:10184000A00FB11D07FDBA9516968C91C81AD10844
:10185000DF014FA9A40FB11D47FDBA9516968C91D3
:10186000ABADBCAD1C92C81AD108D7FE03C0D19451
:10187000C194D1080D2C000CEE08FF088089E82FD8
:10188000F0E02C96FFAFEEAF2C97BF01FF0F880B57
:10189000990B0E949F262AE037ED43E25DE30E9408
:1018A000FE262B013C0120E030E0A9010E945829CE
:1018B00020E030E040E05FE387FD4AC2C301B201AF
:1018C0000E94B6280E9422296C157D058E059F0571
:1018D0000CF425CBFDAD2EADF21321CB3BA94FA9C6
:1018E000341709F41CCB59A9501709F418CB041765
:1018F00009F415CB531709F412CB541709F40FCB85
:10190000301709F40CCBDE015F96FE01B39681918E
:101910009D91891322C28E169F06C9F78FA979A9B6
:101920006AE0769F800D1124ABA99AE0A99F000D73
:1019300011248A3008F48C590A3008F40C59AE018D
:10194000415E5F4FFE01B3966F01E82EF12C602FD0
:1019500070E0D6018D916D01082E000C990B8E154B
:101960009F0509F091C3CE014F96FE01B3962191D8
:10197000022E000C330B2617370709F08EC3E8152B
:10198000F90509F09AC380E0C814D90409F4EBC141
:101990004F5F5F4F8111DDCFF101E05CFF4F88ADFC
:1019A00099AD66E070E00E94752871836083269689
:1019B000FFAD2697F111F1C88091CA02882309F47E
:1019C00058C180918903811154C18091E1029091A5
:1019D000E202019709F04DC18091DC02811188C1BA
:1019E0008091D902883208F448C162E089EC92E023
:1019F0000E94521B8091CD02882309F48EC060E6BC
:101A000071E089EC92E00E94241B40E060E089ECE8
:101A100092E00E942E13F12C80918603F816C8F5EF
:101A20008F2D90E0FC01EE0FFF1FEA58FC4F008164
:101A300011810115110559F1FC01E753FD4F868114
:101A4000882329F16F2D17FF05C0606A1195019554
:101A5000110901C06068E02E07FD04C0F02FF06896
:101A6000EF2E01C0606189EC92E00E94521B6E2D46
:101A700089EC92E00E94521B612F606889EC92E031
:101A80000E94521B6BE389EC92E00E94521BF3947C
:101A9000C3CF8091D90280FF07C064E689EC92E051
:101AA0000E94521B10E012C064E4F8CF80917003D2
:101AB000181730F4E12FF0E0E753FD4F22A12DA7D6
:101AC0006DA589EC92E00E94521B1F5F80916A0312
:101AD000811760F764E271E089EC92E00E94241BB8
:101AE0006091C902605D89EC92E00E94521B6BE339
:101AF00089EC92E00E94521B8CE893E00E94131B39
:101B000081119EC062E589EC92E00E94521B809197
:101B10008B0390E00E944C1F8EC064E671E089EC5C
:101B200092E00E94241B40E060E089EC92E00E9479
:101B30002E1310E0809186031817C0F5812F90E0D6
:101B40009C01220F331FA9014A585C4F7A01DA0128
:101B50002D913C91232B41F1FC01E753FD4F8681F0
:101B6000882311F160E589EC92E00E94521B60E34A
:101B7000610F89EC92E00E94521B6DE389EC92E0C8
:101B80000E94521BBE016F5F7F4FF70180819181E0
:101B90000E94FC1EBC0189EC92E00E94241B6BE3B6
:101BA00089EC92E00E94521B1F5FC4CF65E571E093
:101BB00089EC92E00E94241B10E08091D902181752
:101BC00078F4612F70E08BEE92E00E94AA1260918F
:101BD0007103605D89EC92E00E94521B1F5FEDCFA4
:101BE0006EE271E089EC92E00E94241B6091C902D0
:101BF000605D89EC92E00E94521B6BE389EC92E0FD
:101C00000E94521B8CE893E00E94131B811118C0A4
:101C100068E371E089EC92E00E94241B80918B03C1
:101C2000BE016F5F7F4F90E00E94FC1EBC0189ECFB
:101C300092E00E94241B6BE389EC92E00E94521B0D
:101C40008091DE02882331F06BE371E089EC92E051
:101C50000E94241B63E089EC92E00E94521B6AE020
:101C600089EC92E00E94521B1092DD0281E0809389
:101C7000DC028091DC0281113BC08091DD0288236F
:101C8000D9F140918603E6E7F3E080E090E020EDB3
:101C9000E22E27E0F22E841710F010E00CC0219104
:101CA00031911216130624F42E153F050CF47C0115
:101CB0000196F1CF1F5F8091D9021817C8F4F0ED9B
:101CC000EF16F7E0FF06A1F0612F70E08BEE92E0D7
:101CD0000E94AA1280917103082E000C990BE8163D
:101CE000F90641F76FEF610F89EC92E00E94EE195F
:101CF0008091DD028111E7C11091DC0289EC92E054
:101D00000E94A9131093DC02DEC175010C944403F8
:101D10001093880382E090E09093E2028093E102C6
:101D2000E092DA020C946B03101611060CF089C1D4
:101D3000F101D5AEE4C8D101DA96ED91FC91DB97C3
:101D4000808990E00197A816B90609F048C030CD07
:101D5000C301B2010E94B528B5CD9F3F39F08F3F36
:101D600009F0D9CD03C0882309F416CE2C962EADE8
:101D70003FAD2C972A193B096296EEADFFAD6297F5
:101D80008081082E000C990B821793070CF0C7C8AE
:101D90001BA31F8F1CA318A31DA319A31EA31AA363
:101DA0005FEFA51AB50A23966EAD7FAD23976F5FDF
:101DB0007F4F23967FAF6EAF2397BCCCABADBCAD4E
:101DC0001C926996EEADFFAD699710821F8F1BA321
:101DD00018A31CA319A31DA31AA31EA3E1CFABAD87
:101DE000BCAD8C91811103C0A18AE1E0EC93D101DB
:101DF000DA96ED90FC90DB9723966EAD7FAD23973E
:101E0000C70182960E94AA12F701E855FF4F808110
:101E1000BAE00B9F800D11248A3008F48C59A0FC85
:101E200003C02BA59CA502C029A59AA5E22FF92FD6
:101E300090E0482F50E06081262F062E000C330BD7
:101E40002417350719F06F3F19F48083292F01C03B
:101E50002FEF9F5F943009F4A3CF31962F3F59F3B2
:101E60009FCFE0900002D801DA968D909C90DB978E
:101E7000B1E0EB123AC0E2E0CE1AD108B601C401DB
:101E800082960E94AA12F401E855FF4F9081D80172
:101E9000DF968C91DF97981709F464C0DA968D90DD
:101EA0009C90DB97B601C40182960E94AA12F401AD
:101EB000E855FF4FA081AA0FBB0B8A0E9B1ED401D1
:101EC000A355BF4FF80182AD93AD24ADE22FEE0FC5
:101ED000FF0BE80FF91FE355FF4F2D913C918081D7
:101EE000918128173907F4F13AC0E11038C0F2E0C7
:101EF000CF1AD108B601C40182960E94AA12F40139
:101F0000E855FF4F9081D801DE968C91DE979817A7
:101F100049F1DA968D909C90DB97B601C4018296C8
:101F20000E94AA12F401E855FF4FA081AA0FBB0B33
:101F30008A0E9B1ED401A355BF4FF80182AD93AD0D
:101F400025ADE22FEE0FFF0BE80FF91FE355FF4F12
:101F50002D913C9180819181821793071CF0FA9416
:101F6000FA94A8C86E2DC8010E94E812F8CFF401B7
:101F7000808990E00197E816F9060CF013C980916A
:101F80000002842580930002A1CA25AD022E000C18
:101F9000330B8217930709F4F6C9C2ACD3ACB7016F
:101FA0006D5F7F4FC60182960E94AA12F601E85526
:101FB000FF4F808190E0F80127AD022E000C330B1B
:101FC0008217930709F4DFC9F80126AD022E000C31
:101FD000330B8217930709F0DCC9D5C9582E5394E7
:101FE000D801DA96ED91FC91DB9784E090E0918F37
:101FF000808FCFC980918903882309F4DDCC80913B
:10200000DD0281116BCB1092EB0210926A031092E9
:102010006C0310926B0387E080936F031092D902D8
:1020200081E08093DD02C8CCF101D7AE3EAD3F5FC9
:102030003EAF48AD59AD401B510B59AF48AF0C9462
:102040008807D101DC96DC92F1CF0E94AA12909110
:1020500071038091880398130C9496036091DB02BE
:1020600070E08BEE92E00E94AA1290917103809131
:10207000C90298130C9496038091DB0281508093DF
:10208000DB0211E00C949D03FA018081082E000C04
:10209000990BE816F90651F466CCDC012C91022E5E
:1020A000000C330B6217730719F469CC81E06CCC18
:1020B000E815F905D9F301965ACCC814D90409F4E6
:1020C0006BCC80E065CCC85ADF4F0FB6F894DEBF0A
:1020D0000FBECDBFDF91CF911F910F91FF90EF9079
:1020E000DF90CF90BF90AF909F908F907F906F9038
:1020F0005F904F903F902F900895FC01CB01642F8B
:102100000994FC0109948F929F92AF92BF92CF9253
:10211000DF92EF92FF928FB7F894C0901F02D09099
:102120002002E0902102F09022028FBF80910302F2
:1021300090910402A0910502B0910602C816D9063A
:10214000EA06FB0648F48091010290910202019692
:102150009093020280930102C0920302D092040283
:10216000E0920502F0920602A0910102B0910202F3
:1021700027E339E841E450E00E9404284B015C0168
:10218000C701B60128EE33E040E050E00E94E227AC
:10219000C501B401620F731F841F951FFF90EF905C
:1021A000DF90CF90BF90AF909F908F900895E89868
:1021B00089E99BE19093010180930001E8E9F3E054
:1021C0001182138212820895CF93DF93DC01CD91A7
:1021D000DC9111971296ED91FC91139714962D9125
:1021E0003C911597C9019595879520FF0AC0DE019E
:1021F000A80FB91F2D913C91E20FF31F0190F081C0
:10220000E02D8C0F9D1FDF91CF910994CF93C82FA4
:10221000803120F480E090E00E94A71D6C2F70E0D8
:1022200080E090E040E1CF910C94611D0F931F93EB
:10223000CF938C01C62F88E292E00E94C81B892BA5
:10224000D1F34C2F50E0B80188E292E0CF911F917A
:102250000F910C949A1B0F931F93F8940E94531E96
:102260000091C5021091C6022091C7023091C802A8
:10227000AB01BC01401B510B620B730B22E020939E
:102280001B0280E89EE390931A02809319029093B8
:1022900087008093860082E18093810041303DE792
:1022A00053076105710588F14A9903C02FEF32E8A1
:1022B00002C021E03DE7809199038A35D8F48091EE
:1022C00099038F5F8093990380919A03609198039B
:1022D0000E94552890939A03E0919A03F0E0EE0F44
:1022E000FF1FE456FC4F3183208380919A038F5F58
:1022F00080939A030E94531E6093C5027093C60296
:102300008093C7029093C80238C0413187E25807D2
:102310006105710590F181E19DE7A0E0B0E0841BCB
:10232000950BA60BB70B32E0880F991FAA1FBB1F96
:102330003A95D1F7009731E0A307B10520F421E0E9
:1023400020931B0209C020931B0223E0B695A7959A
:10235000979587952A95D1F790931A028093190241
:102360008091190290911A029093870080938600C1
:1023700080911B0280618093810020911C02E2EC1D
:10238000F0E08491EEEAF0E09491EAE9F0E0E49183
:10239000EE2309F43CC0882339F1833091F038F4FE
:1023A0008130A9F0823001F584B58F7D12C087306D
:1023B00091F08830A1F08430B9F4809180008F7D55
:1023C00003C0809180008F77809380000DC084B51A
:1023D0008F7784BD09C08091B0008F7703C0809152
:1023E000B0008F7D8093B000F0E0EE0FFF1FED573F
:1023F000FF4FA591B4913FB7F894211104C08C917F
:102400009095982302C0EC919E2B9C933FBF109215
:102410001C0278948091070291E0980F9093070234
:10242000811104C01F910F910C9483101F910F9183
:102430000895CF92DF92EF92FF920F931F93F8943B
:102440000E94531E0091C5021091C6022091C7023E
:102450003091C8026B017C01C01AD10AE20AF30A6A
:10246000970186016093C5027093C6028093C702EC
:102470009093C8020A3511052105310578F181E0F4
:10248000C8168DE7D806E104F10410F4960102C0E5
:1024900021E03DE74A9B03C03195219531098091A8
:1024A00099038A35D8F4809199038F5F80939903BB
:1024B00080919A03609198030E94552890939A0303
:1024C000E0919A03F0E0EE0FFF1FE456FC4F3183DA
:1024D000208380919A038F5F80939A0378941F9151
:1024E0000F91FF90EF90DF90CF900895FC01848DC5
:1024F000DF01A80FB11DA35ABF4F2C91848D90E02E
:1025000001968F739927848FA689B7892C93A08908
:10251000B1898C91837080648C93938D848D981392
:1025200006C00288F389E02D80818F7D8083089525
:102530000C94C4270C94BC2789E192E1909301018B
:1025400080930001E9E6F0E080818C7F81608083E8
:10255000E89A0895CF93DF93FC01EE57FF4F408137
:10256000469FD001479FB00D1124FD0123E0F69551
:10257000E7952A95E1F7EC01CB57DF4F288130E052
:10258000E217F3070CF52297288130E0A770BB27EC
:1025900002C035952795AA95E2F7E80FF91F30811B
:1025A000232330E058E0541B469F402D11244770F0
:1025B000541B02C0359527955A95E2F7FC01EA575E
:1025C000FF4F2083822F01C08FEFDF91CF910895BD
:1025D000FC0187A98730A9F423A934A91216130690
:1025E00084F492A9492F50E020AD30E02150310908
:1025F000421753078CF59F5F92ABDF01A90FB11D06
:102600001C9295A9492F50E0282F30E02F5F3F4FB3
:10261000241B350B1216130624F401C0660F2A95ED
:10262000EAF722A9DF01A20FB11D2C91622B6C9356
:1026300023A934A92F5F3F4F34AB23AB282F082E9B
:10264000000C330B241B350B37FD02C0891B01C066
:1026500087E087AB81E0089580E008950F931F9392
:10266000CF93DF93DC0150968C915097882309F427
:102670006BC0FD0136969D01225F3F4F11922E17D0
:102680003F07E1F7411101C0482F262F30E0359573
:102690002795E42FF0E0F595E79560FF17C0ED0171
:1026A000C955DF4F8881281728F4ED01C20FD31FC9
:1026B0009AA101C090E0892F8F70ED01C80FD11D44
:1026C0008E818F5F8E832F5F3F4F01C090E08D0121
:1026D00009551F4F622F70E06E177F07F0F4E80175
:1026E0008881281720F4ED01C60FD71F9AA1C92FA2
:1026F000D0E034E0D595C7953A95E1F7CA0FDB1FD6
:102700008E818F5F8E83892F8F70ED01C80FD11D51
:102710008E818F5F8E832F5FDDCF40FF15C0ED016F
:10272000C955DF4F8881E81718F4EA0FFB1F92A103
:10273000E92FF0E084E0F595E7958A95E1F7EA0F57
:10274000FB1F86818F5F8683DF91CF911F910F9151
:102750000895CF93DF93FC01DC01A354BF4F1C927B
:1027600011961C9212A25D971C92119611961C92C2
:102770001E92149687E08C93108A118E108E5996B3
:102780008FEF8C938083EF01C355DF4FA95BB109B5
:10279000CF010E96199219921D92A817B907D1F779
:1027A000138A86E990E0978B868BDF01A755BF4F90
:1027B00040E050E060E87EE34D935D936D937C9341
:1027C0001397118A148A158A57961C92128A11A29D
:1027D00010A283E08583DF91CF9108952F923F92DD
:1027E0004F925F926F927F928F929F92AF92BF9221
:1027F000CF92DF92EF92FF920F931F93CF93DF93CD
:10280000CDB7DEB7C959D1400FB6F894DEBF0FBEC1
:10281000CDBF0E94D710CF5FDE4F19821882C15002
:10282000D14081E0C85EDE4F8883C851D140C75E89
:10283000DE4F19821882C951D140C05DDE4F8883B6
:10284000C053D140CF5CDE4F19821882C153D140B2
:10285000C85BDE4F8883C854D140C75BDE4F198206
:102860001882C954D140C05ADE4F8883C056D14027
:10287000CF59DE4F19821882C156D140C858DE4F59
:102880008883C857D1409E012F5F3F4F790180E078
:1028900091E0D901FC011D923197E9F7C758DE4F4D
:1028A00039832883C957D140CC24CA9408E012E068
:1028B00033243A94F1E0CA57DE4FF883C658D1402A
:1028C00068E1D62E4E0193947CE0772EE3E06E2EE5
:1028D000F2E05F2E44244394D8018C91833509F0B3
:1028E00045C011968C91833459F43394E1E0F1E0C2
:1028F000EC0FFD1FD39CE00DF11D1124128219C0B5
:102900008D3459F43394E1E0F1E0EC0FFD1FD39CDA
:10291000E00DF11D112442821EC0823581F43394F2
:10292000E1E0F1E0EC0FFD1FD39CE00DF11D11245F
:102930005282CA57DE4F1882C658D1400CC08E341E
:1029400051F43394E1E0F1E0EC0FFD1FD39CE00D76
:10295000F11D1124628231109DC043E050E068E017
:1029600072E088E292E00E949A1B2CC0803599F5B3
:10297000F80182818D3309F08DC0818150EDB52E33
:10298000B80EF7E0FB1508F485C04AE050E0BE0140
:1029900067587E4FC80103960E948124739CF00102
:1029A0001124EB0DF11DEE0FFF1F21E031E02C0F84
:1029B0003D1FE20FF31F7087678331106BC0C801A2
:1029C0000E94411DC758DE4FF982E882C957D140A5
:1029D00000E010E05FC08235C9F4D80111968C91F7
:1029E0008D3309F057C04AE050E0BE0167587E4F72
:1029F000C80102960E949725E1E0F1E0EC0FFD1F6F
:102A0000D39CE00DF11D1124678BD7CF843441F5A1
:102A1000F80181818D33F1F5AA24A394BA2CAC0E70
:102A2000BD1ED39CA00CB11C1124C8010296D50177
:102A300014969C938E931397A401401B510B4D5FEA
:102A40005F4F6BE370E001960E946E29C758DE4F1E
:102A500099838883C957D140F501968385831AC02D
:102A60008334C1F4D80111968C918D3399F44AE0E6
:102A700050E0BE0167587E4FC80102960E9497251C
:102A8000E1E0F1E0EC0FFD1FD39CE00DF11D1124FE
:102A900071836083C758DE4F88819981C957D140BF
:102AA0000817190709F463C0E816F90639F001960A
:102AB000C758DE4F99838883C957D140C758DE4F26
:102AC00008811981C957D140212CC758DE4FA880F1
:102AD000B980C957D140A20CB11CC758DE4FB9828A
:102AE000A882C957D1400E94131E97FD0DC0F50161
:102AF0008083C218C758DE4FE881F981C957D14099
:102B000080818B3341F40FC089E790E00E94261D3D
:102B100081E790E01AC08A3009F452C2CC2029F033
:102B200022242394D2CFC1101DC084E592E00197E6
:102B3000F1F78E0113950E94131E97FF09C089E7D4
:102B400090E00E94261D88E690E00E94D51D3CC2C0
:102B50008A309105A1F3D7018D937D01A017B107AC
:102B600051F7EDCF11820115110509F0B5CECD5FFA
:102B7000DE4F8881C350D140811113C0C85EDE4F43
:102B8000B881C851D140CF57DE4FB883C158D1402A
:102B9000B1110DC0E1E0CF57DE4FE883C158D140FD
:102BA00006C0F1E0CF57DE4FF883C158D140C95776
:102BB000DE4F1882C758D140232D30E0CA56DE4F71
:102BC00039832883C659D14081E091E08C0F9D1F45
:102BD00038E1339D800D911D1124DC011296C856F9
:102BE000DE4FB983A883C859D140212CB8E1B29DEA
:102BF000C0011124E1E0F1E0EC0FFD1FE80FF91F27
:102C00002281223009F08AC0C558DE4F1882CB5786
:102C1000D1409F01295E3F4FC358DE4F398328833F
:102C2000CD57D1400796A1E0B1E0AC0FBD1FA80F72
:102C3000B91FC158DE4FB983A883CF57D140225165
:102C40003109CE57DE4F39832883C258D1408F01D6
:102C50000D5F1F4FC358DE4FA881B981CD57D140BA
:102C60008C91C558DE4FB881CB57D140B81708F0CA
:102C70004FC1CE57DE4FE881F981C258D140A080C4
:102C8000B180D801CC901196DC900E94531E2B018C
:102C90003C017601F701EA14FB0468F5BFEFEB1A7B
:102CA000FB0A80818053C158DE4FE881F981CF57FC
:102CB000D140E80FF11DE80FF11D80809180640183
:102CC00097FE04C0CC24DD24C818D9080E94531EE6
:102CD0006415750586059705C8F397FE02C02B9805
:102CE00001C02B9AC601DD0CAA0BBB0B480E591E66
:102CF0006A1E7B1ECFCF0E94531E64157505860584
:102D00009705C8F3C558DE4FE881CB57D140EF5F38
:102D1000C558DE4FE883CB57D1409CCF213009F016
:102D2000F7C0C358DE4F1882CD57D1406F019F01C5
:102D3000295E3F4FCE56DE4F39832883C259D1409A
:102D4000CF010596CC56DE4F99838883C459D14074
:102D5000DF011396C857DE4FB983A883C858D14006
:102D6000CE56DE4FE881F981C259D1408081C358E7
:102D7000DE4FF881CD57D140F81708F0C9C0D60111
:102D80000D911C91CC56DE4FE881F981C459D14098
:102D90000190F081E02DC657DE4FF983E883CA58D1
:102DA000D140C857DE4FA881B981C858D140EC90B6
:102DB0001196FC900E94531E4B015C01C558DE4FDA
:102DC000E882CB57D140C458DE4FF882CC57D1406F
:102DD000C801110FAA0BBB0BCE57DE4F8883998316
:102DE000AA83BB83C258D140880F991FAA1FBB1F5B
:102DF000C457DE4F88839983AA83BB83CC58D140C4
:102E0000C657DE4FA881B981CA58D140C558DE4F98
:102E1000E881F981CB57D140EA17FB0708F06CC075
:102E20008191C558DE4FF983E883CB57D1408A336F
:102E300014F097E301C090E3891B24E030E0C1580F
:102E4000DE4F39832883CF57D14008E0A82F880F61
:102E5000BB0BC057DE4FB983A883C059D1402401B2
:102E6000350110E0E02EF12CC057DE4FE881F981EA
:102E7000C059D140EE22FF22111104C0E114F10427
:102E800021F405C0E114F10411F42B9801C02B9A30
:102E9000CE57DE4F88819981AA81BB81C258D1402B
:102EA000480E591E6A1E7B1E0E94531E641575052E
:102EB00086059705C8F31F5F1230F1F6C457DE4F41
:102EC00088819981AA81BB81CC58D140880E991EF6
:102ED000AA1EBB1E0695C158DE4FA881B981CF57E7
:102EE000D1401197C158DE4FB983A883CF57D14045
:102EF000AB2B09F0B4CF84CFC358DE4FB881CD5788
:102F0000D140BF5FC358DE4FB883CD57D14028CFE3
:102F1000C856DE4FE881F981C859D140808183309D
:102F200009F02B982394321408F060CECA57DE4F74
:102F3000F881C658D140FF2331F061E070E080E0B5
:102F400090E00E94781EC957DE4F2881C758D140B3
:102F50002F5FC957DE4F2883C758D140CF57DE4F68
:102F60003881C158D140321340CECE0101960E9423
:102F7000411D88E1CA56DE4FA881B981C659D140AA
:102F80008A9FF0018B9FF00D112421E031E02C0F7E
:102F90003D1FE20FF31F8281833059F089EC92E0EC
:102FA0000E94A9131092990310929B0310929A0306
:102FB00004C088E691E00E94531D0E949C1204C048
:102FC000CC2009F4B2CDD3CDC756DE4F0FB6F8945E
:102FD000DEBF0FBECDBFDF91CF911F910F91FF904C
:102FE000EF90DF90CF90BF90AF909F908F907F90A9
:102FF0006F905F904F903F902F9008951F93CF93C5
:10300000DF9300D01F92CDB7DEB788E292E00E9436
:10301000F91B892B09F4D5C1109116021E3049F411
:1030200089EC90E00E94261D88E092E00E94531DEA
:10303000C1C188E292E00E94D71BE12FF0E0E85F77
:10304000FD4F80838D3079F034F4882361F08A302D
:1030500009F0B3C108C0833231F08B3309F0ADC140
:103060000E94EE13A7C180910802863509F482C040
:103070000CF05FC0833409F4A1C00CF055C08F334D
:1030800009F06EC18FE30E94A21D89E591E00E94C4
:10309000261D86E50E94A21D87E591E00E94261D5F
:1030A00082E50E94A21D87E591E00E94261D84E72B
:1030B0000E94A21D87E591E00E94261D88E50E94DE
:1030C000A21D87E591E00E94261D83E50E94A21DB6
:1030D00087E591E00E94261D80E50E94A21D87E5FC
:1030E00091E00E94261D83E40E94A21D87E591E0E5
:1030F0000E94261D82E70E94A21D87E591E00E94A2
:10310000261D87E50E94A21D87E591E00E94261DED
:1031100083E70E94A21D87E591E00E94261D89E8B1
:1031200091E00E94531D43C18035D9F0823559F199
:1031300017C184374CF482370CF039C1873509F454
:10314000E2C0883571F10CC1843709F009C10E94D1
:1031500083104AE00E94611D87E891E00E94411DB2
:1031600026C184E891E00E94531D84EE93E001970C
:10317000F1F71DC180E391E00E94261D8CE091E0F3
:103180000E94D51D14C12091500430915104211585
:10319000310511F426E534E0CE010196821B930B34
:1031A0005AC080910902813519F40E94D710FFC0DE
:1031B000853409F0FCC00E949C12F9C0809109027C
:1031C000873459F034F49CEB980F923008F446C0E1
:1031D000EEC0833509F479C0EAC085EE90E00E9424
:1031E000261D83EE90E00E94261D8091CC0290E087
:1031F0000E94A71D81EE90E00E94261D8EED90E0BA
:103200000E94261D83EE90E00E94261D8091CA0236
:1032100090E00E94A71D81EE90E00E94261D8BED9C
:1032200090E00E94261D83EE90E00E94261D809172
:10323000CB0290E00E94A71D81EE90E00E94261D27
:103240008AE891E00E94411D83EE90E00E94261DD5
:103250008091CD0290E00E94E31DA9C090910A02E6
:10326000923579F034F4933409F0A1C0EBECF2E03C
:103270000DC0933549F0953509F099C0EAECF2E0BC
:1032800005C0EDECF2E002C0ECECF2E0853419F49C
:1032900081E0808301C010822091CA02622F660FF4
:1032A0009091CB0284E0989F90011124262B60918D
:1032B000CC02262B9091CD0238E0939FC0011124BF
:1032C000622F682B8FEF90E070C06FE871E08AE0AA
:1032D00092E00E948D29892B09F469C04AE050E0F0
:1032E00060E070E080E192E00E94812460938A03B4
:1032F0007727882799274AE00E94611D88EE90E091
:103300000E94261D54C080910902833529F49091B2
:103310000A02933309F44BC0082E000C990B0E944B
:103320006229892B09F443C080910A02082E000CFF
:10333000990B0E946229892BD1F180910B02082EF2
:10334000000C990B0E946229892B89F180910C0253
:10335000082E000C990B0E946229892B31F427C09A
:1033600082EF90E00E94D51D25C01B82809109024A
:1033700090910A029A83898340E150E060E070E016
:10338000CE0101960E948124162F80910B0290910C
:103390000C029A83898340E150E060E070E0CE0146
:1033A00001960E948124812F90E00E94981281E072
:1033B00080931C021092160204C01F5F1093160225
:1033C00024CE0F900F900F90DF91CF911F91089511
:1033D0000E94051C81110C94FE1708953F924F9294
:1033E0005F926F927F928F929F92AF92BF92CF9295
:1033F000DF92EF92FF920F931F93CF93DF93DC0145
:1034000054961C925497662309F4FBC050962C9155
:103410005097222309F4F5C030E0A62EB12CA21655
:10342000B3069CF0DF91CF911F910F91FF90EF9029
:10343000DF90CF90BF90AF909F908F907F906F90D4
:103440005F904F903F900C94A9138C010E551F4F25
:10345000F80120813181A216B30608F0D2C0EC0138
:103460007C01F2E2EF0EF11CFC01EF55FF4FC901A8
:103470000197A816B90641F41AA21082D8011D922C
:103480001C9287E035967CC02D01B4EA4B0E511C8E
:10349000D2014C91649F3001112453E076946794DB
:1034A0005A95E1F7362C842E912C68E0C62ED12C4B
:1034B000C601B4010E947528C5010E9461280097C9
:1034C00009F460C0489F802D112468E0681B90813A
:1034D0002701462D43196916D8F46E01C60CD11C7C
:1034E000D60193964C91939750E0062E02C05595C5
:1034F00047950A94E2F79296CC90082E01C0CC0C26
:103500000A94EAF74C29D2014D932D016394E1CF3F
:1035100020FD10C0BE01640F711DAE01460D511D8E
:10352000DA0192969C9101C0990F8A95EAF7DB0126
:1035300092969C932A193B09D8012D933C93829E25
:103540006001839ED00C929ED00C1124C60168E0CD
:1035500070E00E947528DE01AA55BF4F882321F034
:1035600097E0981B892F01C087E08C93C6018819CA
:10357000990997FD079623E0959587952A95E1F798
:10358000808322C0408146194083772450E04F5FFA
:103590005F4FB701660D771DC7010E947B29F201BD
:1035A000608170E0C6010E947528669D9001679D4C
:1035B000300D769D300D1124D8018D919C9111977D
:1035C000821B930B8D939C9381E08C8BF80160811F
:1035D0007181688B662399F0772761507109C70163
:1035E0000E94AA12FE01E855FF4F8081880F990BB7
:1035F00083559F4F8C0F9D1F99A388A302C019A2CA
:1036000018A2DF91CF911F910F91FF90EF90DF9063
:10361000CF90BF90AF909F908F907F906F905F9072
:103620004F903F900895FC0180819181892B51F446
:1036300082819381892B31F48481958121E08227D5
:103640008170089580E00895EF92FF920F931F9389
:10365000CF93DF9361157105E1F08B01FB010190C0
:103660000020E9F731977F01E61AF70AEC01C7530A
:10367000DF4FCE010E94131B81110BC04E2DB801EC
:10368000CE01DF91CF911F910F91FF90EF900C949D
:10369000E41080E090E0DF91CF911F910F91FF90B7
:1036A000EF9008950F931F93CF93DF931F92CDB7A1
:1036B000DEB769838C0107531F4FC8010E94131B9B
:1036C000811108C041E0BE016F5F7F4FC8010E94B9
:1036D000E41002C080E090E00F90DF91CF911F9145
:1036E0000F9108951F920F920FB60F9211242F93EE
:1036F0003F934F935F936F937F938F939F93AF937A
:10370000BF93EF93FF93E0911702F0911802099590
:10371000FF91EF91BF91AF919F918F917F916F91A9
:103720005F914F913F912F910F900FBE0F901F907F
:1037300018950895CF92DF92EF92FF920F931F9307
:10374000CF93DF936C017A018B01C0E0D0E0CE15FE
:10375000DF0581F0D8016D918D01D601ED91FC91CD
:103760000190F081E02DC6010995892B11F0219679
:10377000EECF7E01C701DF91CF911F910F91FF9096
:10378000EF90DF90CF900895089580E090E0089545
:10379000FC01538D448D252F30E0842F90E0821B57
:1037A000930B541710F0CF96089501970895FC01DC
:1037B000918D828D981761F0828DDF01A80FB11D68
:1037C0005D968C91928D9F5F9F73928F90E008958C
:1037D0008FEF9FEF0895FC01918D828D981731F046
:1037E000828DE80FF11D858D90E008958FEF9FEF9A
:1037F0000895FC01918D228D892F90E0805C9F4F70
:10380000821B91098F739927089588E292E00E94A4
:10381000F91B21E0892B09F420E0822F08950E94F2
:103820005D29EF92FF920F931F93CF93DF93EC01EB
:1038300081E0888F9B8D8C8D981305C0E889F9896C
:10384000808185FD26C0F62E0B8D10E00F5F1F4F87
:103850000F731127E02E8C8DE8120CC00FB607FCF9
:10386000FACFE889F989808185FFF5CFCE010E94E2
:103870007612F1CF8B8DFE01E80FF11DE35AFF4F59
:10388000F0829FB7F8940B8FEA89FB898081806270
:103890000AC09FB7F894EE89FF896083E889F989A7
:1038A00080818370806480839FBF81E090E0DF919E
:1038B000CF911F910F91FF90EF900895CF93DF93D9
:1038C000EC01888D8823C9F0EA89FB89808185FD18
:1038D00005C0A889B9898C9186FD0FC00FB607FC79
:1038E000F5CF808185FFF2CFA889B9898C9185FFBA
:1038F000EDCFCE010E947612E7CFDF91CF910895F0
:103900001F920F920FB60F9211242F933F934F9354
:103910005F936F937F938F939F93AF93BF93EF9337
:10392000FF93E0910201F09103010995FF91EF915E
:10393000BF91AF919F918F917F916F915F914F91C7
:103940003F912F910F900FBE0F901F9018951F92CF
:103950000F920FB60F9211242F933F934F935F93C3
:103960006F937F938F939F93AF93BF93EF93FF9347
:10397000E0910001F09101010995FF91EF91BF9154
:10398000AF919F918F917F916F915F914F913F91F7
:103990002F910F900FBE0F901F9018951F920F92AE
:1039A0000FB60F9211242F933F934F935F936F9312
:1039B0007F938F939F93AF93BF93EF93FF9388E28F
:1039C00092E00E947612FF91EF91BF91AF919F918B
:1039D0008F917F916F915F914F913F912F910F90B8
:1039E0000FBE0F901F9018951F920F920FB60F9257
:1039F00011242F938F939F93EF93FF93E0913802BD
:103A0000F09139028081E0913E02F0913F0282FD07
:103A100012C09081809141028F5F8F73209142028A
:103A2000821751F0E0914102F0E0E85DFD4F958F83
:103A30008093410201C08081FF91EF919F918F910E
:103A40002F910F900FBE0F901F9018950F931F93FB
:103A5000CF93DF938C01C0E0D0E0F801EC0FFD1FA5
:103A60006491662341F088E292E00E94111C892B48
:103A700011F02196F2CFCE01DF91CF911F910F91DE
:103A80000895009769F0FC0101900020E9F7319753
:103A9000AF01481B590BBC0188E292E00C949A1BC1
:103AA00080E090E00895CF93DF930E94411DEC01E8
:103AB00087E891E00E94411D8C0F9D1FDF91CF91FF
:103AC00008958F929F92AF92BF920F931F93CF93BF
:103AD000DF93CDB7DEB7A1970FB6F894DEBF0FBE68
:103AE000CDBF19A2423008F44AE08E010F5D1F4F8E
:103AF000842E912CA12CB12CA50194010E94E227C7
:103B0000E62FB901CA0101501109EA3014F4E05D51
:103B100001C0E95CD801EC93232B242B252B61F702
:103B2000C8010E94411DA1960FB6F894DEBF0FBEDA
:103B3000CDBFDF91CF911F910F91BF90AF909F901C
:103B40008F900895682F88E292E00C94111CCF9218
:103B5000DF92EF92FF92CF93DF936C01990FEE0803
:103B6000FF08F7FE17C08DE20E94A21DEC01662738
:103B70007727CB016C197D098E099F094AE00E94C5
:103B8000611D8C0F9D1FDF91CF91FF90EF90DF9013
:103B9000CF9008954AE0C701B601DF91CF91FF9021
:103BA000EF90DF90CF900C94611DCF93DF930E9434
:103BB000261DEC0187E891E00E94411D8C0F9D1F9E
:103BC000DF91CF910895CF92DF92EF92FF92CF9342
:103BD000DF936C01990FEE08FF08F7FE11C08DE22C
:103BE0000E94A21DEC0166277727CB016C197D0985
:103BF0008E099F094AE00E94611DC80FD91F06C0A7
:103C00004AE0C701B6010E94611DEC0187E891E01E
:103C10000E94411D8C0F9D1FDF91CF91FF90EF906F
:103C2000DF90CF9008952FB7F89480911F02909164
:103C30002002A0912102B09122022FBF8093300276
:103C400090933102A0933202B093330288E292E063
:103C50000E94D71B97FF26C02FB7F89480911F02B0
:103C600090912002A0912102B09122022FBF409199
:103C70003002509131026091320270913302841B04
:103C8000950BA60BB70B40912C0250912D02609121
:103C90002E0270912F0284179507A607B707B0F27E
:103CA0008FEF9FEF08953FB7F89480912402909191
:103CB0002502A0912602B091270226B5A89B05C037
:103CC0002F3F19F00196A11DB11D3FBFBA2FA92F9B
:103CD000982F8827820F911DA11DB11DBC01CD0118
:103CE00043E0660F771F881F991F4A95D1F7089503
:103CF0008F929F92AF92BF92CF92DF92EF92FF92FC
:103D00006B017C010E94531E4B015C01C114D10464
:103D1000E104F104F1F00E94531EDC01CB0188198B
:103D20009909AA09BB09883E9340A105B10570F322
:103D300021E0C21AD108E108F10888EE880E83E07C
:103D4000981EA11CB11CC114D104E104F10419F79F
:103D5000DDCFFF90EF90DF90CF90BF90AF909F901E
:103D60008F9008951F920F920FB60F9211242F93E8
:103D70003F938F939F93AF93BF9380911F02909136
:103D80002002A0912102B09122023091230226E06C
:103D9000230F2D3720F40296A11DB11D05C029E87F
:103DA000230F0396A11DB11D2093230280931F02B0
:103DB00090932002A0932102B093220280912402CA
:103DC00090912502A0912602B09127020196A11D93
:103DD000B11D8093240290932502A0932602B093F4
:103DE0002702BF91AF919F918F913F912F910F909B
:103DF0000FBE0F901F901895CF92DF92EF92FF9217
:103E00000F931F93CF93DF93FB01009721F480E37F
:103E10008083118237C097FF05C0919581959109E4
:103E200041E001C040E0EF017F0100E010E02AE046
:103E3000C22ED12C98012F5F3F4FB6010E947528EA
:103E4000805DD7018D937D01CB01009711F0890131
:103E5000F1CF442339F0DF01A20FB31F8DE28C9321
:103E60002F5F3F4FDF01A20FB31F1C92359527959F
:103E70002E0F3F1F2C173D0729F088819E919993A3
:103E80008C93F8CFCF01DF91CF911F910F91FF90CD
:103E9000EF90DF90CF900895CF93DF93EC018031C6
:103EA000910538F024E0969587952A95E1F70E94D0
:103EB0004C1FCF70DD27C251DE4F688189EC92E044
:103EC000DF91CF910C94521BCF93DF93CDB7DEB728
:103ED0002A970FB6F894DEBF0FBECDBF789484B595
:103EE000826084BD84B5816084BD85B5826085BDF6
:103EF00085B5816085BD80916E00816080936E0084
:103F00001092810080918100826080938100809175
:103F10008100816080938100809180008160809326
:103F200080008091B10084608093B1008091B000E6
:103F300081608093B00080917A00846080937A00E1
:103F400080917A00826080937A0080917A008E7FDF
:103F500080937A0080917A00806880937A00109232
:103F6000C100E0913802F091390282E08083E09153
:103F70003402F09135021082E0913602F09137025E
:103F800080E1808310924002E0913C02F0913D027A
:103F900086E08083E0913A02F0913B02808180616B
:103FA0008083E0913A02F0913B02808188608083B7
:103FB000E0913A02F0913B02808180688083E09139
:103FC0003A02F0913B0280818F7D80835298259A3E
:103FD00080E090E00E949A12833309F032C281E0BF
:103FE00090E00E949A128D3109F02BC28FEF90E081
:103FF0000E949A12982F91709093CC0281FB99277E
:1040000090F99093CA0282FB992790F99093CB0282
:1040100083FB882780F98093CD02239A62E370E0C6
:1040200080E090E00E94781E80E1809381001092F1
:10403000800082E080931B0280E89EE390931A0246
:1040400080931902909387008093860082E1809389
:1040500081008BE291E1909318028093170281E036
:1040600080936F001E821D828DE790E19C838B837D
:104070008B819C81AD81BE81809394039093950345
:10408000A0939603B093970386E191E190939303F5
:10409000809392030E949C1280E991E0A0E0B0E03E
:1040A00080932C0290932D02A0932E02B0932F02A6
:1040B00072E0472E512C612C712C99249394E7E0E7
:1040C0008E2EF3E0AF2EB12C80919903882309F452
:1040D000B5C18091990381508093990380919B038E
:1040E000609198030E94552890939B03E0919B0355
:1040F00081E08E0F80939B03F0E0EE0FFF1FE456EC
:10410000FC4F8081918190931E0280931D0210923A
:10411000DC026091D902662391F070E06150710970
:104120008BEE92E00E94AA1280917103880F990B86
:104130008A589C4F9093EA028093E90204C010923F
:10414000EA021092E90240911D0250911E02E09194
:10415000E702F091E802518340839091D9029923BC
:1041600079F0E091E902F091EA02309749F020817C
:10417000318124273527232F221F2227221F01C008
:1041800021E031E09E3F09F430E081E041155348E1
:104190000CF480E0832311F0211132C00E94F00062
:1041A0008091DC02811104C0809189038823B1F0E1
:1041B0008091D9028823D1F0E091E902F091EA02DE
:1041C0003097A1F0A091E702B091E8022D913C91C7
:1041D000808191818227932797FD08C089EC92E026
:1041E0000E94A9131092EA021092E9028091D9026A
:1041F0008E3F91F560E070E0CB010E94781E2CC0EC
:10420000983251F5B092E202A092E1028CE893E07C
:104210000E94131B811120C020918C0330918D03CB
:10422000E0918E03F0918F034091900350919103A0
:10423000CA019595879540FF0AC0D901A80FB91FFB
:104240004D915C91E40FF51F0190F081E02D820FFC
:10425000931F099580938B03C090E702D090E802EA
:10426000D6010D911C91B80117FF04C0662777276E
:10427000601B710B072E000C880B990B0E949F2668
:104280002DEC3CEC4CE45EE30E94FE260E942929C2
:104290009B017093E0026093DF0270918603E6E772
:1042A000F3E060E07617C1F081919191A801482771
:1042B000592757FD0FC0009769F0A801481B590BFB
:1042C000CA0157FF03C091958195910928173907B5
:1042D0000CF0CBC06F5FE6CF7830E1F540E060E0F6
:1042E00089EC92E00E942E13E0918703F0E0E753FF
:1042F000FD4F8681833040F00E94F00040E060E096
:1043000089EC92E00E942E131091D9021150E09195
:104310008703F0E0E753FD4F86818823D9F0809131
:10432000D9028823B9F0612F70E08BEE92E00E94F1
:10433000AA1220917103022E000C330B8091870387
:1043400090E02817390711F761E0610F89EC92E0DE
:104350000E94EE1910918703E091E702F091E802C4
:1043600080819181E12FF0E0EE0FFF1FEA58FC4FB2
:104370009183808381E0810F883019F080938703D7
:1043800006C0109287038093860310928903809160
:10439000870390918603981710F480938603312F3A
:1043A00020916F0380916B0390916C032730B9F4D7
:1043B00018161906A4F4E0916A036E2F70E040917C
:1043C000700350E041505109641775070CF072C03A
:1043D000EF5FE0936A03F0E0E753FD4F12A2A09174
:1043E0006D034A2F50E0622F70E06F5F7F4F641BB8
:1043F000750B161617062CF4312F01C0330F6A9572
:10440000EAF7E0916A03F0E0E753FD4F62A1362B33
:1044100032A3019690936C0380936B03622F022E5C
:10442000000C770BFB01E41BF50BF7FD04C02A1B06
:1044300020936F03BCC080926F03B9C00E94E8193B
:1044400043CE6FE08FEF90E00E94981286E691E0F5
:104450000E94D51D63E380E090E00E9498126DE118
:1044600081E090E00E949812C1CD162F67FD34CFF5
:10447000812F880F990BDC01AA58BC4F7D016D91EB
:104480007C919B01770F440B550BD6018D919C912C
:10449000092E000CAA0BBB0B280F391F4A1F5B1FEC
:1044A000CA01B901A30192010E948928F701318351
:1044B000208375CF60E070E0CB010E94781E66E932
:1044C00071E089EC92E00E94241B6091DA0289EC91
:1044D00092E00E94521B6FEA71E089EC92E00E9428
:1044E000241B6091DB0289EC92E00E94521B66EB78
:1044F00071E089EC92E00E94241B612F89EC92E02C
:104500000E94521B6CEB71E089EC92E00E94241B2C
:104510006091D90289EC92E00E94521B65EC71E037
:1045200089EC92E00E94241B60916A0389EC92E07E
:104530000E94521B6CEC71E089EC92E00E94241BFB
:1045400060916B0389EC92E00E94521B63ED71E075
:1045500089EC92E00E94241B6091DD0289EC92E0DC
:104560000E94521B6CED71E089EC92E00E94241BCA
:104570006091E10289EC92E00E94521B64EE71E0CE
:1045800089EC92E00E94241B6091DC0289EC92E0AD
:104590000E94521B6AE089EC92E00E94521B8091BB
:1045A000DC02882309F490CD90921C028DCD80937B
:1045B000D9021092DD02F3CFCF93DF93E8E2F2E06D
:1045C0001382128288EE93E0A0E0B0E084839583AA
:1045D000A683B78382E191E09183808385EC90E0AC
:1045E0009587848784EC90E09787868780EC90E0BD
:1045F000918B808B81EC90E0938B828B82EC90E0AE
:10460000958B848B86EC90E0978B868B118E128E27
:10461000138E148EE8E9F3E08AE580831182138219
:104620001282C9ECD2E083EE92E09F8F8E8F19A2A6
:1046300018A28FE78093700384E080936D031AA221
:1046400010926A0310926C0310926B0387E08093C0
:104650006F0380EF80936E0310928B0310928D0393
:1046600010928C0310928F0310928E03109291037C
:10467000109290031092930310929203109295035C
:104680001092940310929703109296031B8E1A8E29
:10469000CE010E94A91381E180938A031D8281E0EB
:1046A0008C831F861E860E94531E6093C5027093E2
:1046B000C6028093C7029093C802DF91CF910895FC
:1046C0000F931F93CF93DF938230910510F482E014
:1046D00090E0E0915204F091530420E030E0A0E03B
:1046E000B0E0309719F14081518102811381481760
:1046F0005907C8F08417950769F4109731F012969E
:104700000C93129713961C9327C000935204109396
:10471000530422C02115310519F04217530718F42C
:104720009A01BD01EF01DF01F801DBCF2115310551
:10473000F9F0281B390B2430310580F48A819B81E4
:104740006115710521F0FB019383828304C090936E
:10475000530480935204FE01329644C0FE01E20FDE
:10476000F31F8193919322503109398328833AC0F2
:104770002091500430915104232B41F420910601E3
:10478000309107013093510420935004209104018B
:10479000309105012115310541F42DB73EB7409107
:1047A000080150910901241B350BE0915004F09150
:1047B0005104E217F307A0F42E1B3F0B281739070B
:1047C00078F0AC014E5F5F4F2417350748F04E0F6D
:1047D0005F1F50935104409350048193919302C002
:1047E000E0E0F0E0CF01DF91CF911F910F910895AC
:1047F000CF93DF93009709F481C0FC0132971382B5
:104800001282A0915204B0915304109781F4208138
:104810003181820F931F2091500430915104281749
:10482000390751F5F0935104E093500467C0ED014E
:1048300020E030E0CE17DF0740F44A815B819E0123
:1048400041155105F1F0EA01F5CFD383C2834081D0
:104850005181840F951FC817D90759F48881998110
:10486000840F951F0296918380838A819B81938315
:1048700082832115310529F4F0935304E093520407
:104880003DC0E901FB83EA8349915991C40FD51FCB
:10489000EC17FD0761F480819181840F951F0296CA
:1048A000E90199838883828193819B838A83E0E0F5
:1048B000F0E012968D919C911397009719F0FD01ED
:1048C000DC01F7CF8D919C9111979D012E5F3F4F99
:1048D000820F931F209150043091510428173907FB
:1048E00069F4309729F4109253041092520402C0D4
:1048F00013821282B0935104A0935004DF91CF91A0
:104900000895A0E0B0E0E7E8F4E20C9410285C0120
:104910006B017A016115710519F0FB0191838083A8
:10492000E114F10429F0C7010297839708F0E5C06C
:10493000E5012196F5011081812F90E00E948C26DF
:10494000892B11F05E01F4CF1D3229F42196F50177
:10495000118101E007C01B3221F4E5012296F50127
:10496000118100E0E114F10409F1F0E1EF16F10426
:1049700029F43FC010E3E114F10421F128E0E2162C
:10498000F10401F154F4E2E0EE16F10421F5812C7A
:10499000912CA12CB0E4BB2E3EC0FAE0EF16F1043E
:1049A00039F020E1E216F104B1F430C0103319F10E
:1049B000FAE0EF2EF12CACEC8A2E982CA82CACE06F
:1049C000BA2E29C078E0E72EF12C812C912CA12C55
:1049D000E0E1BE2E20C060E070E080E090E897014A
:1049E0000F2C000C440B550B0E94E22749015A0181
:1049F00012C0103359F488818F7D883509F0BACF01
:104A000019812296026080E1E82EF12C812C912CF4
:104A1000A12C68E0B62E40E060E070E0CB012701F9
:104A20000F2C000C66087708FE0150ED352E310E74
:104A300029E0231570F42FEB210F2A3118F439ECFB
:104A4000332E06C02FE9210F2A3118F529EA322E1C
:104A5000310E232D30E02E153F05DCF447FD16C046
:104A600086169706A806B90670F0A30192010E9467
:104A7000D227630D711D811D911D61307105810566
:104A800020E8920710F04FEF01C041E0219610811D
:104A9000CBCF202F2170C114D10471F0442329F011
:104AA0002197F601D183C08307C001FF19C0229767
:104AB000F601D183C08314C047FF12C0222329F01E
:104AC00060E070E080E090E804C06FEF7FEF8FEF70
:104AD0009FE722E230E0309355042093540409C04C
:104AE000222381F090958095709561957F4F8F4F2F
:104AF0009F4F462F372F282F12C040E030E020E094
:104B000090E00DC097FFF5CF82E290E090935504BE
:104B1000809354046FEF7FEF8FEF9FE7EACF642F0E
:104B2000732F822FCDB7DEB7E1E10C942C28A0E0E3
:104B3000B0E0EDE9F5E20C9410285C016B017A011C
:104B40006115710519F0FB0191838083E114F10473
:104B500029F0C7010297839708F0C9C0E5012196A3
:104B6000F5011081812F90E00E948C26892B11F095
:104B70005E01F4CF1D3229F42196F501118101E087
:104B800007C01B3221F4E5012296F501118100E0F6
:104B9000E114F104B1F0F0E1EF16F10429F4B0C032
:104BA00010E3E114F10401F12AE0E216F104B1F19D
:104BB00080E1E816F10471F0E8E0EE16F104F1F49A
:104BC00013C0103341F588818F7D883549F71981ED
:104BD00022960260F0E1EF2EF12C88248A94982C22
:104BE000A82CAFE0BA2E20C078E0E72EF12C882464
:104BF0008A94982CA82CEFE1BE2E16C06FEF7FEFA1
:104C0000CB0197010F2C000C440B550B0E94E2279F
:104C100049015A0109C08AE0E82EF12C69E9862E83
:104C2000982CA82C69E1B62E40E060E070E0CB0142
:104C300027010F2C000C66087708FE0150ED352E79
:104C4000310E29E0231570F42FEB210F2A3118F4CF
:104C500039EC332E06C02FE9210F2A3130F529EA2D
:104C6000322E310E232D30E02E153F05F4F44F3F48
:104C7000C9F086169706A806B90688F0A301920126
:104C80000E94D227232D30E040E050E0620F731FD6
:104C9000841F951F621773078407950710F44FEF61
:104CA00001C041E021961081C8CFC114D10451F058
:104CB000442311F0219703C001FF04C02297F6019D
:104CC000D183C08300FF07C0909580957095619552
:104CD0007F4F8F4F9F4F4F3F79F482E290E0909348
:104CE0005504809354043FEF2FEF9FEF0DC040E039
:104CF00030E020E090E008C0462F372F282F04C076
:104D0000103309F067CF5FCF642F732F822FCDB799
:104D1000DEB7E1E10C942C2891110C949526803299
:104D200019F089508550C8F7089599278827089564
:104D30000E94DA2608F481E00895E89409C097FB00
:104D40003EF490958095709561957F4F8F4F9F4F62
:104D50009923A9F0F92F96E9BB279395F6958795A6
:104D600077956795B795F111F8CFFAF4BB0F11F469
:104D700060FF1BC06F5F7F4F8F4F9F4F16C0882310
:104D800011F096E911C0772321F09EE8872F762F46
:104D900005C0662371F096E8862F70E060E02AF087
:104DA0009A95660F771F881FDAF7880F9695879573
:104DB00097F90895990F0008550FAA0BE0E8FEEF48
:104DC00016161706E807F907C0F012161306E407CF
:104DD000F50798F0621B730B840B950B39F40A26C8
:104DE00061F0232B242B252B21F408950A2609F4A6
:104DF000A140A6958FEF811D811D08950E94112766
:104E00000C9482270E94742738F00E947B2720F0A0
:104E1000952311F00C946B270C94712711240C949A
:104E2000B6270E94932770F3959FC1F3950F50E02A
:104E3000551F629FF001729FBB27F00DB11D639F4C
:104E4000AA27F00DB11DAA1F649F6627B00DA11DF2
:104E5000661F829F2227B00DA11D621F739FB00D98
:104E6000A11D621F839FA00D611D221F749F332708
:104E7000A00D611D231F849F600D211D822F762FA1
:104E80006A2F11249F5750409AF0F1F088234AF07E
:104E9000EE0FFF1FBB1F661F771F881F91505040EA
:104EA000A9F79E3F510580F00C946B270C94B62710
:104EB0005F3FE4F3983ED4F3869577956795B79571
:104EC000F795E7959F5FC1F7FE2B880F911D96958B
:104ED000879597F9089597F99F6780E870E060E0FB
:104EE00008959FEF80EC089500240A941616170683
:104EF00018060906089500240A94121613061406CB
:104F000005060895092E0394000C11F4882352F02D
:104F1000BB0F40F4BF2B11F460FF04C06F5F7F4FE5
:104F20008F4F9F4F089557FD9058440F551F59F0CC
:104F30005F3F71F04795880F97FB991F61F09F3F86
:104F400079F087950895121613061406551FF2CFAF
:104F50004695F1DF08C0161617061806991FF1CFFF
:104F600086957105610508940895E894BB27662726
:104F70007727CB0197F90895F999FECF92BD81BDAE
:104F8000F89A992780B50895262FF999FECF1FBA70
:104F900092BD81BD20BD0FB6F894FA9AF99A0FBE62
:104FA00001960895DB018F939F930E940428BF917F
:104FB000AF91A29F800D911DA39F900DB29F900D68
:104FC00011240895A1E21A2EAA1BBB1BFD010DC0DE
:104FD000AA1FBB1FEE1FFF1FA217B307E407F507A9
:104FE00020F0A21BB30BE40BF50B661F771F881F85
:104FF000991F1A9469F760957095809590959B011B
:10500000AC01BD01CF0108950E944628A59F900DD7
:10501000B49F900DA49F800D911D112408952F928F
:105020003F924F925F926F927F928F929F92AF9238
:10503000BF92CF92DF92EF92FF920F931F93CF9385
:10504000DF93CDB7DEB7CA1BDB0B0FB6F894DEBF1C
:105050000FBECDBF09942A88398848885F846E8442
:105060007D848C849B84AA84B984C884DF80EE808C
:10507000FD800C811B81AA81B981CE0FD11D0FB695
:10508000F894DEBF0FBECDBFED010895A29FB00121
:10509000B39FC001A39F700D811D1124911DB29F6C
:1050A000700D811D1124911D0895991B79E004C094
:1050B000991F961708F0961B881F7A95C9F7809557
:1050C0000895AA1BBB1B51E107C0AA1FBB1FA6174F
:1050D000B70710F0A61BB70B881F991F5A95A9F7A1
:1050E00080959095BC01CD01089597FB072E16F48D
:1050F000009407D077FD09D00E94612807FC05D0F5
:105100003EF4909581959F4F0895709561957F4FDE
:105110000895052E97FB1EF400940E94A02857FDC9
:1051200007D00E94E22707FC03D04EF40C94A0287D
:1051300050954095309521953F4F4F4F5F4F0895C3
:1051400090958095709561957F4F8F4F9F4F0895F3
:105150000E944628B7FF0895821B930B0895EE0F17
:10516000FF1F0590F491E02D09945058BB27AA2702
:105170000E94CD280C9482270E94742738F00E9448
:105180007B2720F039F49F3F19F426F40C94712703
:105190000EF4E095E7FB0C946B27E92F0E94932710
:1051A00058F3BA17620773078407950720F079F45C
:1051B000A6F50C94B5270EF4E0950B2EBA2FA02D72
:1051C0000B01B90190010C01CA01A0011124FF27B4
:1051D000591B99F0593F50F4503E68F11A16F040AF
:1051E000A22F232F342F4427585FF3CF46953795AE
:1051F0002795A795F0405395C9F77EF41F16BA0B73
:10520000620B730B840BBAF09150A1F0FF0FBB1F20
:10521000661F771F881FC2F70EC0BA0F621F731F69
:10522000841F48F4879577956795B795F7959E3FC6
:1052300008F0B0CF9395880F08F09927EE0F979557
:10524000879508950E9429296894B1110C94B62776
:1052500008950E949B2788F09F5798F0B92F9927AF
:10526000B751B0F0E1F0660F771F881F991F1AF051
:10527000BA95C9F714C0B13091F00E94B527B1E0DA
:1052800008950C94B527672F782F8827B85F39F0D9
:10529000B93FCCF3869577956795B395D9F73EF4EA
:1052A00090958095709561957F4F8F4F9F4F089592
:1052B0000E94DA2608F48FEF089581E090E0F894D8
:1052C0000C94B02991110C94952680538A5028F0A3
:1052D000865C806281568650B0F70895FC0141508B
:1052E000504030F001900616D1F73197CF01089564
:1052F0008827992708956817790768F4FB01DC016E
:10530000E40FF51FA40FB51F02C002900E9241508A
:105310005040D8F708950C94A729FB0151915523CB
:10532000A9F0BF01DC014D9145174111E1F759F496
:10533000CD010190002049F04D9140154111C9F374
:10534000FB014111EFCF81E090E001970895FB014F
:10535000DC0102C001900D9241505040D8F70895F1
:04536000F894FFCFEF
:10536400991B991B000056042000FFFFFFFF00005B
:105374000000111C9A1BC81B5E1CF91BD71BEB1BDE
:105384004D733B003B43003B53004D533B003B43B9
:10539400503D003B53503D00523D004F3B004D43B8
:1053A4003B4C4C3D003B4C483D003B534C3D003B8B
:1053B40053483D003B443D003B433D003B4C3D00D6
:1053C4004D753B004D553B006E6F20737570706FCB
:1053D400727465642064657669636520746F2073F4
:1053E400656E64004F4B000D0A004D726564006DDC
:1053F400636D626C3D002061646444617461206F7C
:10540400666C6F772D3E206D73746172743D00205D
:105414006D656E643D002076616C3D00206D7367A0
:105424006C656E3D0020627974633D002076616C8A
:10543400633D00206D5472756E633D00207374618A
:1054440074653D0020737563636573733D0030318B
:105454003233343536373839414243444546000007
:00000001FF
