:100000000C94C5000C94DC1A0C94B51A0C94ED00F9
:100010000C94ED000C94ED000C94ED000C94ED00AC
:100020000C94ED000C94ED000C94ED000C94ED009C
:100030000C94ED000C94A7190C94ED000C94ED00B9
:100040000C94401D0C94ED000C94291B0C94031B84
:100050000C94ED000C94ED000C94ED000C94ED006C
:100060000C94ED000C94ED00746F206C6F6E6720A3
:1000700000636F72727570740073656E6420636DD7
:1000800064200000000000250028002B0004040468
:100090000404040404020202020202030303030331
:1000A000030102040810204080010204081020010E
:1000B00002040810200000000800020100000304F0
:1000C000070000000000000000436F6D6D616E646A
:1000D00020746F206C6F6E673A20004D43004D55C1
:1000E000003B003D004D530020626974732073652E
:1000F0007400556E737570706F72746564207368E8
:100100006F727420636F6D6D616E6400202D2063CB
:100110006F6D70696C656420617420536570203167
:100120003020323032302032323A35313A303300FA
:100130005620332E352E302D6465765F32303230C6
:10014000303931305F7634205349474E414C647525
:10015000696E6F2000200020557365206F6E65204A
:100160006F662000496E697420656570726F6D203E
:10017000746F2064656661756C7473206166746564
:100180007220666C61736800E02011241FBECFEFFF
:10019000D8E0DEBFCDBF11E0A0E0B1E0ECE6FFE4C7
:1001A00002C005900D92AE3CB107D9F724E0AEEC49
:1001B000B1E001C01D92A432B207E1F710E0C5EC36
:1001C000D0E004C02197FE010E94B326C43CD107B1
:1001D000C9F70E948A1D0C94B4270C9400002F923A
:1001E0003F924F925F926F927F928F929F92AF92C7
:1001F000BF92CF92DF92EF92FF920F931F93CF9314
:10020000DF93CDB7DEB7C354D1090FB6F894DEBF84
:100210000FBECDBF80914E0320919E02811104C07C
:10022000283210F40C94340D1092A10291E02E3F6C
:1002300009F090E09093A30240E060E081113AC29F
:100240008EE892E00E94ED11F12CAF2CB12C2091A0
:100250004B032F8B822F90E00197A816B9060CF064
:100260000EC1F501E257FD4FCF0106962681F394AA
:10027000222359F3EF2C9501220F331FA901455C6E
:100280005C4F5A8F498F9C8F8B8F5E8F4D8F8091E3
:100290004B03E816D0F68E2C912CB40162577D4F9B
:1002A0001B01DB0116968C91882309F4E6C0E98DC9
:1002B000FA8DC080D1809401220F331F388F2F8B8D
:1002C000F901E55CFC4F00811181C601802791276F
:1002D00097FDD3C0409037035090380360903903A6
:1002E00070903A03B80117FF04C066277727601B98
:1002F000710B072E000C880B990B0E94A324A301FD
:1003000092010E9402256F8F78A389A39AA3B60158
:10031000D7FE04C0662777276C197D09072E000CCD
:10032000880B990B0E94A324A30192010E9402252D
:100330009B01AC016F8D78A189A19AA10E94BA2678
:1003400020E030E040E05FE30E9402250E94262783
:100350000C191D0917FF03C01195019511096017AC
:1003600071070CF48AC0D12CC12C81010A5F1F4F88
:1003700080919E02D81608F048C0D8018C91C8160A
:1003800008F043C06D2D70E080EB92E00E9469118F
:1003900080913603082E000C990B8816990699F562
:1003A00080913203482F50E0D89EC0011124FC01F7
:1003B00023E0F695E7952A95E1F720913503E217BA
:1003C00008F587709927FF27E257FD4F20913303E7
:1003D00030E0082E02C0359527950A94E2F7209563
:1003E00032A1232368E070E0641B750BDB01A81BBE
:1003F000B90BA50102C0440F551FAA95E2F7CA0127
:10040000822B82A3C394D394B3CFAB8DBC8D0C91BC
:10041000F1011681ED8DFE8DA081B1812F89388D7E
:10042000255C3C4F6901F90180809180E02FF0E06C
:100430009F010E94AC262B013C01412F50E09A0104
:10044000D4010E94AC26640D751D861D971DE40F16
:10045000F51F9F01FF0F440B550B0E948D26AD8D9C
:10046000BE8D2D933C93100FEB8DFC8D1083D1012D
:1004700016961C92F60111821082E39408CF109216
:10048000A7021092A6028FEF80938E02F0919E0237
:10049000F98F2F2F30E03C8F2B8FBEE8CB2EB2E0B0
:1004A000DB2E1BE3212E13E0312EE12CF12C0FEF7C
:1004B0001FEF4901330FAA08BB084F89E41608F063
:1004C00059C00F3F5FEF150701F5D1018D919C9148
:1004D00097FD1BC0F601668170E080E090E00E940D
:1004E000A3242B013C01C501B4010E94A3242BE7E6
:1004F00034E14EE25EE30E9402259B01AC01C301A0
:10050000B2010E945C27181654F1D1018D919C9183
:1005100097FD26C0F801EE0FFF1FE55CFC4F208120
:10052000318182179307E4F4F601668170E080E080
:1005300090E00E94A3242B013C01C501B4010E945C
:10054000A3242BE734E14EE25EE30E9402259B01E7
:10055000AC01C301B2010E945C2718160CF487019C
:10056000FFEFEF1AFF0A2FEFC21AD20A32E0230E72
:10057000311CA3CF0F3F4FEF140741F000938E02C1
:1005800081E090E09093A7028093A6028091A6025A
:100590009091A702019709F091C080919102882360
:1005A00009F48CC06B8D7C8D663A71051CF4098D45
:1005B000085201C00DE71F89115076E0D72E1F3F6A
:1005C00009F475C0E12E012E000CFF08F701EE0FB3
:1005D000FF1FE55CFC4F2081318137FF66C03195FC
:1005E00021953109283672E437070CF05EC0E0919E
:1005F0008E02EE0FFF0BE55CFC4F0190F081E02DC9
:10060000C901BF010E9465266D32710508F04DC019
:10061000DE9EC001DF9E900D11248217930708F023
:1006200044C0F701E257FD4FF6806F2D70E080E087
:1006300090E00E94A3244B015C0160919E0270E057
:1006400080E090E00E94A3242AE037ED43EA5DE3D6
:100650000E9402259B01AC01C501B4010E949C24AB
:1006600087FF23C081E08F1500F5E12CF12CE01607
:10067000E0F457019FEFA91AB90AB50180EB92E0A7
:100680000E9469118091360318130C94800DB701F4
:1006900080EB92E00E9469119091360380918E0266
:1006A00098130C94800D0C94830D115088CF1093E7
:1006B0004D0304C08EE892E00E94ED118091A602E5
:1006C0009091A702029709F0DBC180919E028832C7
:1006D00008F4D6C180919F028E5F8093A00210E043
:1006E0006091A00270E080919E0290E001976817EF
:1006F0007907ACF46F5F7F4F80EB92E011110C949F
:10070000160F0E9469119091360380914D03981342
:1007100011E08091A0028E5F8093A002E1CF10E0F3
:1007200080919E029091A002891710F48093A002FC
:100730004091A00260919F028EE892E00E94ED112C
:1007400060919F02112371F08091A00290E0861BBE
:100750009109889794F481E090E09093A7028093A8
:10076000A6028EC180919E028E3F08F073C190E078
:10077000861B910988970CF46DC182E00E94BC1B16
:1007800080919202882309F4AAC080E291E00E943D
:100790002C1C8BE30E94BC1BF12C80914B03F816A0
:1007A00088F58F2D90E0FC01EE0FFF1FE55CFC4FFC
:1007B000008111810115110519F1FC01E257FD4F6E
:1007C00086818823E9F08F2D17FF05C0806A119577
:1007D0000195110901C08068E02E07FD04C0A02F1B
:1007E000A068EA2E01C080610E94BC1B8E2D0E9471
:1007F000BC1B812F80680E94BC1B8BE30E94BC1B2A
:10080000F394CBCF8091A00280FF02C084E401C0AA
:1008100084E60E94BC1BE0919F02E0FF19C0E150FA
:10082000E0939F02E69580913503E81728F4F0E005
:10083000E257FD4F82A101C080E08F7080688F8BEE
:100840000E94BC1B80919F028E5F80939F0201C01B
:100850001F8A10919F028091A002811780F0E12FE2
:10086000E69580913503E81728F4F0E0E257FD4F54
:10087000B2A1BF8B8F890E94BC1B1E5FECCF83E2AD
:1008800091E00E942C1C80918E0260E170E0082EA5
:10089000000C990B0E94C11B86E291E00E942C1C67
:1008A00080914D0360E170E0082E000C990B0E94CE
:1008B000C11B8BE30E94BC1B81E593E00E948D1756
:1008C00081118FC082E50E94BC1B60E170E08091C5
:1008D00050030E94AE1B8BE30E94BC1B82C089E2C6
:1008E00091E00E942C1C8BE30E94BC1B10E08091C5
:1008F0004B03181750F5212F30E0C901880F991FBD
:10090000FC01E55CFC4F7F0180819181892BD9F04E
:10091000F901E257FD4F86818823A9F080E50E9406
:10092000BC1B6AE070E0812F0E94AE1B8DE30E9429
:10093000BC1B6AE070E0D7018D919C910E94C11BA5
:100940008BE30E94BC1B1F5FD2CF8CE291E00E9420
:100950002C1C10919F028091A002811788F0612FBA
:1009600070E080EB92E00E946911809136036AE0AA
:1009700070E0082E000C990B0E94C11B1F5FEBCF8B
:100980008FE291E00E942C1C80918E026AE070E060
:10099000082E000C990B0E94C11B84E391E00E9479
:1009A0002C1C80914D036AE070E0082E000C990B1E
:1009B0000E94C11B8BE30E94BC1B81E593E00E9457
:1009C0008D1781110DC089E391E00E942C1C6AE013
:1009D00070E0809150030E94AE1B8BE30E94BC1B11
:1009E0001F8A8091A302882331F08FE40E94BC1BF0
:1009F0008BE30E94BC1B1092A2026091A002809126
:100A00009E0290E0861B91098897D4F08091930212
:100A10008823B1F08150809393026F5F8EE892E05B
:100A20000E947C1610929F028DE60E94BC1B6AE019
:100A300070E0809193020E94AE1B8BE30E94BC1B6E
:100A400083E00E94BC1B8AE00E94BC1B81E0809373
:100A5000A10217C0662369F08091A00290E08D3F4B
:100A600091053CF08EE892E00E947C1610929F0265
:100A700007C08EE892E00E94681281E08093A10294
:100A80001F8A8091A1028111C2C680918F02B0910C
:100A90009002B8AB811103C0BB2309F4E5C7E8A9F4
:100AA000EE2309F4B4C680919C0290919D02892B9B
:100AB00039F585E490E00E946421FC0182E380AF77
:100AC00081E085AB108212AA14AA13AA87E087AB33
:100AD00080E886AB8FEF84AF85AF86AF87AFDF014D
:100AE000AD5BBF4F1C9211961C928EE892E093AFC3
:100AF00082AF14971D921C92F0939D02E0939C028A
:100B000080914E03882311F100919C0210919D0267
:100B1000D801DA96ED91FC91DB97148A118ADA9666
:100B2000ED91FC91DB97E054FF4F1082512C58015E
:100B3000B4E4AB0EB11C442443943801E2E46E0EDD
:100B4000711C1801F3E42F0E311C96C120909C02F9
:100B500030909D028FEFD101DC968C93DC97DD966F
:100B60008C93DD97DF968C93DF97DE968C93DE97E0
:100B7000F101ED5BFF4F10823196108234971182A4
:100B80001082F101108212AA14AA13AA87E087AB7F
:100B9000EE5BFF4F80914F038083DA960D911C919D
:100BA000DB97F801E354FF4FF080B3E0BF1508F086
:100BB0002EC6F801608970E080E090E00E94A324D6
:100BC0002AE037ED43E25DE30E9402254B015C0120
:100BD00020E030E0A9010E945C2720E030E040E006
:100BE0005FE387FD05C0C501B4010E94BA2604C0B9
:100BF000C501B4010E94B9260E9426275801F6E0DB
:100C0000AF0EB11CF801E355FF4F1DA270E0D501F6
:100C10008D915D01861770F1EDA08E2D90E0EE2094
:100C2000F1F09E01280F391FD901DC9098012D0D9C
:100C3000311D2D0D311D23553F4F40815181D9016B
:100C40002D913C914217530754F421E030E02C0FD2
:100C50003D1F820F931FDC01DC92EA94DECF21E07E
:100C600030E02C0F3D1F820F931FDC017C93BDA150
:100C7000BF5FBDA37F5F3296F712C9CFFE013196E9
:100C8000FA8BE98BFFA7EEA740910A0150910B0167
:100C900060910C0170910D014FAB58AF69AF7AAF05
:100CA000B1016E5B7F4F7CAF6BAFC1018D5B9F4F1E
:100CB0009FA38EA3D101AC5BBF4F2496BFAFAEAF55
:100CC00024973C96FE8BED8BF9892296FFAF2297F5
:100CD0008EA58F1B3DA1831708F099C5D101DA9627
:100CE0004C91DA97DB963C91DB97EEA5FFA521911D
:100CF000FFA7EEA7842F932F820F911D820F911DC6
:100D0000FC01E355FF4F8081918118161906E4F626
:100D10008FEFDC968C93DC97DD968C93DD97DF96D6
:100D20008C93DF97DE968C93208131813A8F298FC7
:100D3000B901330F880B990B0E94A32469AB7AABDE
:100D40008BAB9CAB2DEC3CEC4CE45EE30E940225AB
:100D50000E9426277EAF6DAF898D9A8D97FD0196F3
:100D6000AC015595479521965FAF4EAF2197BE01D7
:100D70006F5F7F4F7DA76CA71BA68FEF9FEF9CA394
:100D80008BA31AA6DE011996BC8BAB8B4E01B1E189
:100D90008B0E911CECA5FDA5D190FDA7ECA7D10170
:100DA000DA963C91DA97DB962C91832F922F8D0D5A
:100DB000911D8D0D911DFC01E355FF4F00811181A7
:100DC000780117FF04C0EE24FF24E01AF10A2196EF
:100DD0008EAD9FAD21978E199F0997FF03C0919506
:100DE00081959109EDADFEADE817F907D4F42DEC2E
:100DF0003CEC4CEC5EE369A97AA98BA99CA90E9402
:100E000002250E942627898D9A8D8E199F0997FFAA
:100E100003C0919581959109681779070CF07FC6F9
:100E200018C01016110614F00C94050FD101DE96AF
:100E3000DC92FAA5FF5FFAA72BA13CA1200F311F7E
:100E40003CA32BA3D101DC968C91DC978F3F09F05A
:100E50007EC38CA52296EFAD22978E1BFDA18F1726
:100E600008F498CF31CFD5018C91882379F0F50122
:100E7000808181110DC15394D801DA96CD90DC9018
:100E8000DB97F6018089581670F3A8C2E52CF12C87
:100E9000B701C60182960E946911F601E855FF4F1D
:100EA000808190E0F80124AD022E000C330B8217F4
:100EB000930739F025AD022E000C330B82179307F0
:100EC000B1F6D801DA96CD90DC90DB97B701C60178
:100ED00082960E946911F601E855FF4F8080F80163
:100EE00095AC81E0891001C080E08093CE01D801EB
:100EF000DA96CD90DC90DB97B70161507109C6019D
:100F000082960E946911F601E855FF4F8081F50134
:100F10004082D801DA96ED91FC91DB97518A5520F9
:100F200009F4B0C090E0891026C0DF962C91DF97BD
:100F3000022E000C330B8217930709F43FC0DA9698
:100F40002D913C91DB97FC01EE0FFF1FE20FF31F89
:100F5000E355FF4FDC968C91A82FAA0FBB0BA20F75
:100F6000B31FA355BF4F208131818D919C912817CC
:100F7000390724F129C0F80126AD022E000C330BED
:100F800082179307D9F022AD33ADFC01EE0FFF1F9E
:100F9000E20FF31FE355FF4FD801DD968C91A82F88
:100FA000AA0FBB0B2A0F3B1FD901A355BF4F2081AE
:100FB00031818D919C918217930734F481E08910DF
:100FC00080E08093CE0108C0D801DA96ED91FC91C3
:100FD000DB9781898F5F818B6091CE01C8010E9470
:100FE000A711FF24FA94F50CB1E0BF1508F043C037
:100FF000F80182AC93ACCF2CD12CB601C4018296FF
:101000000E946911F401E855FF4F808190E0D801FA
:10101000DF962C91DF97022E000C330B821793077B
:1010200041F0DE962C91022E000C330B82179307B1
:1010300011F5F80182AC93ACB60161507109C4019D
:1010400082960E946911F401E855FF4F808190E07B
:10105000D801DF962C91022E000C330B82179307D8
:1010600009F4F0C5F80126AD022E000C330B8217EF
:10107000930709F4E7C5D801DA96ED91FC91DB9767
:101080005188F5CE81E0891080E08093CE01EFCECB
:10109000D801DA96CD90DC90DB97E52CF12CB701E6
:1010A000C60182960E946911F601E855FF4FC08083
:1010B000D12CF80184AD082E000C990B82AC93ACB6
:1010C000C816D90609F444C685AD082E000C990B44
:1010D000C816D90609F43CC6B7016F5F7F4FC4013B
:1010E00082960E946911F401E855FF4F208180919A
:1010F000CE01811119C0D801DA96ED91FC91DB97F0
:10110000808990E00297E816F9067CF5DF968C91CD
:10111000DF97082E000C990B8C159D0531F5422F99
:1011200050E0DE968C911AC08130F9F4D801DA963D
:10113000ED91FC91DB97808990E00297E816F90623
:10114000A4F4DE968C91DE97082E000C990B8C157A
:101150009D0559F4422F50E0DF968C91082E000C2B
:10116000990B4817590709F42DC1F3018081082E06
:10117000000C990BD801D3964D915C91D4974817E8
:10118000590764F4F1011082D5011C92F801108214
:1011900012AA14AA13AA27E027AB14C1D801DA9621
:1011A000ED91FC91DB97528ADA96AD90BC90DB977B
:1011B000BDEF5B1213C0F501808990E00197E8163E
:1011C000F90661F4E054FF4F81E0808384E090E011
:1011D000D50159969C938E93589775C0D801DC968B
:1011E000EC91DC97EE0FFF0BEA0DFB1DE355FF4F73
:1011F00040815181F601EE0FFF1FEA0DFB1DE35503
:10120000FF4F60817181F501808964177507E4F4EF
:10121000682F70E061507109E616F706ACF4E22F12
:10122000F0E0DD966C91DD97062E000C770BE6174B
:10123000F70709F4C5C5DE966C91062E000C770BF6
:10124000E617F70709F4BCC590E00297E816F9061F
:10125000D4F5D801DF968C91DF97082E000C990BFE
:10126000C816D90641F0DE968C91082E000C990B19
:10127000C816D90641F5C501820F911D820F911D37
:10128000FC01E355FF4F8081918184179507DCF4C1
:10129000B7016E5F7F4FC50182960E946911F5010B
:1012A000E855FF4F808190E0F80124AD022E000C3C
:1012B000330B8217930709F059C581E0850D511052
:1012C0007EC555245394652DD801DA968D919C9155
:1012D000DB970E947C16D801DA96ED91FC91DB97A2
:1012E000E054FF4F8081811176C5F3018081082E83
:1012F000000C990BD3962D913C91D4972817390760
:101300000CF469C582E00E94BC1B8CE391E00E9452
:101310002C1C8FE391E00E942C1CE0919C02F09128
:101320009D02E4ADEE0FFF0BE55CFC4F6AE070E060
:10133000808191810E94C11B84E491E00E942C1C59
:10134000E0919C02F0919D02E5ADEE0FFF0BE55C94
:10135000FC4F6AE070E0808191810E94C11B89E4AA
:1013600091E00E942C1CE0919C02F0919D02E7AD5F
:10137000EE0FFF0BE55CFC4F6AE070E0808191812D
:101380000E94C11B8EE491E00E942C1CE0919C0203
:10139000F0919D02E6ADEE0FFF0BE55CFC4F6AE0BD
:1013A00070E0808191810E94C11B8BE30E94BC1B75
:1013B0008CE291E00E942C1CE0909C02F0909D0237
:1013C000D12C48C05394D5018C91882309F453CD76
:1013D0006091CE01C8010E94A7114DCDF601528A3D
:1013E000A8014E5B5F4FD801D3962D913C91D497C5
:1013F000BEEF5B1220C0FA01808187FD8F5F85956B
:10140000082E000C990BD801DA96ED91FC91DB9730
:101410008217930754F4DF01A054BF4F81E08C93EF
:1014200084E090E0918F808FD6C4CF0180549F4F8D
:10143000DC011C92148AFA018081082E000C990BA1
:101440005DCFD216A0F4F701E00FF11F80810E945A
:101450009E17D3940D2D10E0D701D2968C91D29780
:1014600090E0D8962C91081719075CF302C080E031
:10147000EECFD21628F4F701E00FF11F808101C0F2
:1014800080E082958F7060E170E090E00E94C11B67
:10149000F70123A934A9C90168E070E00E94792608
:1014A000059724F427703327232B89F4D701D89686
:1014B0008C91D81628F4F701E00FF11F808101C04C
:1014C00080E08F7060E170E090E00E94C11B83E5D6
:1014D00091E00E942C1CE0919C02F0919D02E05C46
:1014E000FF4F6AE070E0808191810E94C11B87E517
:1014F00091E00E942C1CE0919C02F0919D026AE018
:1015000070E083A994A90E94C11B8BE30E94BC1BBD
:1015100081E593E00E948D1781110DC089E391E070
:101520000E942C1C6AE070E0809150030E94AE1B68
:101530008BE30E94BC1B83E00E94BC1B8AE00E94DC
:10154000BC1B10924E0381E08093A10260C1DF9624
:101550008C91DF978F3F09F47CCCDD968C91DD97E1
:101560008F3F09F476CCDE968C918F3F09F471CCD5
:101570002FA938AD49AD5AAD2D873E874F87588B7F
:1015800029873A874B875C8741E050E059A748A7F5
:10159000A12CB12C1FEFD101DA96ED90FC90DB97D6
:1015A000F701808990E0A816B9060CF052CCB5017D
:1015B000C70182960E946911F701E855FF4F00812B
:1015C000802F90E0D101DC962C91DC97022E000C4C
:1015D000330B8217930709F4A9C2DD962C91022ED2
:1015E000000C330B8217930709F4A0C2D101DF96D8
:1015F0002C91022E000C330B8217930709F496C22C
:10160000F10126AD022E000C330B8217930709F46B
:101610008DC2D101DA96ED91FC91DB97818995011C
:10162000281B3109ABADBCAD8C91082E000C990B79
:10163000821793070CF0B5C2A28AF10182AD93AD77
:10164000DC0152964C91529751966C910E94ED118B
:10165000D101DA96ED91FC91DB97DE96BC91BB8FC0
:10166000D101DD96BC91BD8FD101DF960C91DF9742
:10167000DC96BC91BF8FDF012B8DA20FB11D27FD22
:10168000BA9516968C91DF013D8DA30FB11D37FDE4
:10169000BA951696CC90D12CC80ED11CDF01A00FA4
:1016A000B11D07FDBA9516968C91C81AD108DF01B5
:1016B0004F8DA40FB11D47FDBA9516968C91AEA122
:1016C000BFA11C92C81AD108D7FE03C0D194C194FF
:1016D000D1080D2C000CEE08FF088089E82FF0E0FF
:1016E000FEABEDABBF01FF0F880B990B0E94A3244B
:1016F0002AE037ED43E25DE30E9402252B013C0125
:1017000020E030E0A9010E945C2720E030E040E0CA
:101710005FE387FD18C2C301B2010E94BA260E948E
:1017200026276C157D058E059F050CF492CBFAA536
:101730002BA5F2138ECB3D8D4F8D341709F489CB39
:101740005B8D501709F485CB041709F482CB53172E
:1017500009F47FCB541709F47CCB301709F479CB0B
:10176000DE011996FE013D9681919D918913F0C18C
:101770008E169F06C9F78F8D7B8D6AE0769F800D50
:101780001124AD8D9AE0A99F000D11248A3008F430
:101790008C590A3008F40C59AE01475F5F4FFE01C7
:1017A0003D966F01E82EF12C602F70E0D6018D91EF
:1017B0006D01082E000C990B8E159F0509F055C37D
:1017C000CE010996FE013D962191022E000C330BAD
:1017D0002617370709F052C3E815F90509F05EC36B
:1017E00080E0C814D90409F4B9C14F5F5F4F81117B
:1017F000DDCFF101E05CFF4F8BA19CA166E070E0C2
:101800000E94792671836083F8A9F1117DC98091C6
:101810008F02882309F428C180914E03811124C1CD
:101820008091A6029091A702019709F01DC18091B5
:10183000A102811158C180919E02883208F418C11A
:1018400082E00E94BC1B80919202882309F47DC033
:101850008BE591E00E942C1C8BE30E94BC1B40E0B6
:1018600060E08EE892E00E94ED11F12C80914B0334
:10187000F81688F58F2D90E0FC01EE0FFF1FE55C58
:10188000FC4F008111810115110519F1FC01E2578E
:10189000FD4F86818823E9F08F2D17FF05C0806AF0
:1018A00011950195110901C08068E02E07FD04C063
:1018B000B02FB068EB2E01C080610E94BC1B8E2D42
:1018C0000E94BC1B812F80680E94BC1B8BE30E947E
:1018D000BC1BF394CBCF80919E0280FF05C084E6B1
:1018E0000E94BC1B10E010C084E4FACF8091350345
:1018F000181730F4E12FF0E0E257FD4F22A12F8BB3
:101900008F890E94BC1B1F5F80912F03811770F786
:1019100083E291E00E942C1C80918E0260E170E0D5
:10192000082E000C990B0E94C11B8EE591E00E94CD
:101930002C1C81E593E00E948D17811180C082E507
:101940000E94BC1B60E170E073C080E691E00E94E1
:101950002C1C8BE30E94BC1B40E060E08EE892E010
:101960000E94ED1110E080914B03181758F5212FBC
:1019700030E0C901880F991FAC01455C5C4F7A01CA
:10198000DA018D919C91892BD9F0F901E257FD4F35
:1019900086818823A9F080E50E94BC1B6AE070E084
:1019A000812F0E94AE1B8DE30E94BC1B6AE070E099
:1019B000F701808191810E94C11B8BE30E94BC1BB7
:1019C0001F5FD1CF8CE291E00E942C1C10E080912F
:1019D0009E02181788F4612F70E080EB92E00E945D
:1019E0006911809136036AE070E0082E000C990BB3
:1019F0000E94C11B1F5FEBCF8FE291E00E942C1C65
:101A000080918E026AE070E0082E000C990B0E9413
:101A1000C11B8BE30E94BC1B81E593E00E948D17E4
:101A200081110DC089E391E00E942C1C6AE070E0F6
:101A3000809150030E94AE1B8BE30E94BC1B8091DF
:101A4000A302882331F08FE40E94BC1B8BE30E9429
:101A5000BC1B83E00E94BC1B8AE00E94BC1B10924E
:101A6000A20281E08093A1028091A10281113BC07A
:101A70008091A2028823D9F140914B03EBE3F3E07C
:101A800080E090E020EDE22E27E0F22E841710F0A7
:101A900010E00CC0219131911216130624F42E157A
:101AA0003F050CF47C010196F1CF1F5F80919E02EF
:101AB0001817C8F4F0EDEF16F7E0FF06A1F0612F5C
:101AC00070E080EB92E00E94691180913603082E4D
:101AD000000C990BE816F90641F76FEF610F8EE8DD
:101AE00092E00E947C168091A2028111DDC11091CA
:101AF000A1028EE892E00E9468121093A102D4C164
:101B000075010C94370310934D0382E090E090939D
:101B1000A7028093A602E0929F020C945E03101627
:101B200011060CF07FC1F101D5AE83C9D101DA965F
:101B3000ED91FC91DB97808990E00197A816B9069A
:101B400009F040C066CDC301B2010E94B926E7CDBD
:101B50009F3F39F08F3F09F00BCE03C0882309F473
:101B600048CE2DA93EA92A193B09EBADFCAD8081D9
:101B7000082E000C990B821793070CF06AC91D8779
:101B800019871E871A871F871B87188B1C875FEF93
:101B9000A51AB50A68A579A56F5F7F4F79A768A7D1
:101BA000FACCAEA1BFA11C922496EEADFFAD249756
:101BB000108219871D871A871E871B871F871C871E
:101BC000188BE5CFAEA1BFA18C91811103C0A18A72
:101BD000E1E0EC93D101DA96ED90FC90DB9768A5FB
:101BE00079A5C70182960E946911F701E855FF4F58
:101BF0008081BAE00B9F800D11248A3008F48C5943
:101C0000A0FC03C02D899E8902C02B899C89E22FEC
:101C1000F92F90E0482F50E06081262F062E000C0F
:101C2000330B2417350719F06F3F19F48083292FE0
:101C300001C02FEF9F5F943009F4A9CF31962F3F59
:101C400059F3A5CFE090CE01D801DA968D909C9003
:101C5000DB97B1E0EB123AC0E2E0CE1AD108B60150
:101C6000C40182960E946911F401E855FF4F9081EA
:101C7000D801DF968C91DF97981709F464C0DA9643
:101C80008D909C90DB97B601C40182960E946911E9
:101C9000F401E855FF4FA081AA0FBB0B8A0E9B1ED3
:101CA000D401A355BF4FF80182AD93AD24ADE22F0F
:101CB000EE0FFF0BE80FF91FE355FF4F2D913C91FD
:101CC0008081918128173907F4F13AC0E11038C0BA
:101CD000F2E0CF1AD108B601C40182960E946911C0
:101CE000F401E855FF4F9081D801DE968C91DE9784
:101CF000981749F1DA968D909C90DB97B601C40154
:101D000082960E946911F401E855FF4FA081AA0F45
:101D1000BB0B8A0E9B1ED401A355BF4FF80182ADA9
:101D200093AD25ADE22FEE0FFF0BE80FF91FE35542
:101D3000FF4F2D913C9180819181821793071CF078
:101D4000FA94FA9451C96E2DC8010E94A711F8CFD8
:101D5000F401808990E00197E816F9060CF0BCC9FF
:101D60008091CE0184258093CE012DCB25AD022E0E
:101D7000000C330B8217930709F49FCAC2ACD3AC93
:101D8000B7016D5F7F4FC60182960E946911F6010F
:101D9000E855FF4F808190E0F80127AD022E000C3E
:101DA000330B8217930709F488CAF80126AD022E77
:101DB000000C330B8217930709F085CA7ECA582E90
:101DC0005394D801DA96ED91FC91DB9784E090E092
:101DD000918F808F78CA80914E03882309F417CDA4
:101DE0008091A2028111AFCB1092B00210922F030A
:101DF000109231031092300387E0809334031092E5
:101E00009E0281E08093A20202CDF101D7AE3BA5F4
:101E10003F5F3BA74BA15CA1401B510B5CA34BA3B5
:101E20000C942207D101DC96DC92F1CF0E9469115B
:101E30009091360380914D0398130C94890360911F
:101E4000A00270E080EB92E00E946911909136034D
:101E500080918E0298130C9489038091A002815086
:101E60008093A00211E00C949003FA018081082E67
:101E7000000C990BE816F90651F4A2CCDC012C9168
:101E8000022E000C330B6217730719F4A5CC81E006
:101E9000A8CCE815F905D9F3019696CCC814D90455
:101EA00009F4A7CC80E0A1CCCD5BDF4F0FB6F8944E
:101EB000DEBF0FBECDBFDF91CF911F910F91FF907D
:101EC000EF90DF90CF90BF90AF909F908F907F90DA
:101ED0006F905F904F903F902F900895FC01CB0141
:101EE000642F0994FC0109948F929F92AF92BF9244
:101EF000CF92DF92EF92FF928FB7F894C0901504C3
:101F0000D0901604E0901704F09018048FBF8091D1
:101F1000D1019091D201A091D301B091D401C81602
:101F2000D906EA06FB0648F48091CF019091D001D2
:101F300001969093D0018093CF01C092D101D092AD
:101F4000D201E092D301F092D401A091CF01B091DF
:101F5000D00127E339E841E450E00E9408264B0114
:101F60005C01C701B60128EE33E040E050E00E947A
:101F7000E625C501B401620F731F841F951FFF90F2
:101F8000EF90DF90CF90BF90AF909F908F9008958B
:101F9000E8988EEC99E19093010180930001EDE5C2
:101FA000F3E011821382128208950F931F93CF934F
:101FB0008C01C62F8DEE91E00E94FD19892BD1F383
:101FC0004C2F50E0B8018DEE91E0CF911F910F9111
:101FD0000C94CF190F931F93F8940E94E11C009169
:101FE0008A0210918B0220918C0230918D02AB01FC
:101FF000BC01401B510B620B730B22E02093E901E3
:1020000080E89EE39093E8018093E7019093870036
:102010008093860082E18093810041303DE7530741
:102020006105710588F14A9903C02FEF32E802C0BB
:1020300021E03DE780915E038A35D8F480915E030C
:102040008F5F80935E0380915F0360915D030E94C8
:10205000592690935F03E0915F03F0E0EE0FFF1FBE
:10206000EF59FC4F3183208380915F038F5F809312
:102070005F030E94E11C60938A0270938B0280933D
:102080008C0290938D0238C0413187E25807610578
:10209000710590F181E19DE7A0E0B0E0841B950B14
:1020A000A60BB70B32E0880F991FAA1FBB1F3A95EA
:1020B000D1F7009731E0A307B10520F421E0209388
:1020C000E90109C02093E90123E0B695A79597950A
:1020D00087952A95D1F79093E8018093E701809145
:1020E000E7019091E80190938700809386008091AA
:1020F000E9018061809381002091EA01E2ECF0E047
:102100008491EEEAF0E09491EAE9F0E0E491EE23C4
:1021100009F43CC0882339F1833091F038F48130E0
:10212000A9F0823001F584B58F7D12C0873091F01F
:102130008830A1F08430B9F4809180008F7D03C095
:10214000809180008F77809380000DC084B58F7759
:1021500084BD09C08091B0008F7703C08091B0002A
:102160008F7D8093B000F0E0EE0FFF1FED57FF4F23
:10217000A591B4913FB7F894211104C08C9190952A
:10218000982302C0EC919E2B9C933FBF1092EA01D2
:1021900078948091D50191E0980F9093D5018111A9
:1021A00004C01F910F910C94740F1F910F9108950B
:1021B000CF92DF92EF92FF920F931F93F8940E94B9
:1021C000E11C00918A0210918B0220918C023091C7
:1021D0008D026B017C01C01AD10AE20AF30A970151
:1021E000860160938A0270938B0280938C02909395
:1021F0008D020A3511052105310578F181E0C816F7
:102200008DE7D806E104F10410F4960102C021E044
:102210003DE74A9B03C031952195310980915E03CA
:102220008A35D8F480915E038F5F80935E0380913E
:102230005F0360915D030E94592690935F03E091D4
:102240005F03F0E0EE0FFF1FEF59FC4F3183208357
:1022500080915F038F5F80935F0378941F910F914C
:10226000FF90EF90DF90CF900895FC01848DDF0107
:10227000A80FB11DA35ABF4F2C91848D90E00196F9
:102280008F739927848FA689B7892C93A089B189E8
:102290008C91837080648C93938D848D981306C089
:1022A0000288F389E02D80818F7D808308950C94CE
:1022B000C8250C94C02588ED90E19093010180938E
:1022C0000001E9E6F0E080818C7F81608083E89AFC
:1022D0000895CF93DF93FC01EE57FF4F4081469F57
:1022E000D001479FB00D1124FD0123E0F695E7953D
:1022F0002A95E1F7EC01CB57DF4F288130E0E21758
:10230000F3070CF52297288130E0A770BB2702C0A5
:1023100035952795AA95E2F7E80FF91F3081232319
:1023200030E058E0541B469F402D11244770541B49
:1023300002C0359527955A95E2F7FC01EA57FF4F01
:102340002083822F01C08FEFDF91CF910895FC0190
:1023500087A98730A9F423A934A91216130684F497
:1023600092A9492F50E020AD30E0215031094217A9
:1023700053078CF59F5F92ABDF01A90FB11D1C9233
:1023800095A9492F50E0282F30E02F5F3F4F241BA5
:10239000350B1216130624F401C0660F2A95EAF7CE
:1023A00022A9DF01A20FB11D2C91622B6C9323A9EE
:1023B00034A92F5F3F4F34AB23AB282F082E000CDE
:1023C000330B241B350B37FD02C0891B01C087E08E
:1023D00087AB81E0089580E008950F931F93CF931A
:1023E000DF93DC0150968C915097882309F46BC0E1
:1023F000FD0136969D01225F3F4F11922E173F0738
:10240000E1F7411101C0482F262F30E0359527957F
:10241000E42FF0E0F595E79560FF17C0ED01C95591
:10242000DF4F8881281728F4ED01C20FD31F9AA12E
:1024300001C090E0892F8F70ED01C80FD11D8E81F2
:102440008F5F8E832F5F3F4F01C090E08D01095554
:102450001F4F622F70E06E177F07F0F4E80188814C
:10246000281720F4ED01C60FD71F9AA1C92FD0E07D
:1024700034E0D595C7953A95E1F7CA0FDB1F8E81F9
:102480008F5F8E83892F8F70ED01C80FD11D8E81D4
:102490008F5F8E832F5FDDCF40FF15C0ED01C955E3
:1024A000DF4F8881E81718F4EA0FFB1F92A1E92F8C
:1024B000F0E084E0F595E7958A95E1F7EA0FFB1FD8
:1024C00086818F5F8683DF91CF911F910F91089551
:1024D000CF93DF93FC01DC01A354BF4F1C921196F4
:1024E0001C9212A25D971C92119611961C921E923C
:1024F000149687E08C93108A118E108E59968FEF68
:102500008C938083EF01C355DF4FA95BB109CF01E5
:102510000E96199219921D92A817B907D1F7138A2E
:1025200086E990E0978B868BDF01A755BF4F40E08F
:1025300050E060E87EE34D935D936D937C93139739
:10254000118A148A158A57961C92128A11A210A217
:1025500083E08583DF91CF9108952F923F924F9230
:102560005F926F927F928F929F92AF92BF92CF9223
:10257000DF92EF92FF920F931F93CF93DF93CDB72C
:10258000DEB7C559D1400FB6F894DEBF0FBECDBF40
:102590000E94C80FCF5FDE4F19821882C150D14010
:1025A00081E0C85EDE4F8883C851D140C75EDE4FF0
:1025B00019821882C951D140C05DDE4F8883C05353
:1025C000D140CF5CDE4F19821882C153D140C85B25
:1025D000DE4F8883C854D140C75BDE4F1982188212
:1025E000C954D140C05ADE4F8883C056D140CF591C
:1025F000DE4F19821882C156D140C858DE4F8883F9
:10260000C857D1409E012F5F3F4F790180E091E094
:10261000D901FC011D923197E9F7C758DE4F398384
:102620002883C957D140CC24CA9406ED11E0222456
:102630002A94F1E0CA57DE4FF883C658D14068E1CA
:10264000D62E4E0193947CE0772EE2E06E2E552438
:102650005394D8018C918335C1F511968C918334B4
:1026600059F42394E1E0F1E0EC0FFD1FD29CE00D62
:10267000F11D1124128219C08D3459F42394E1E024
:10268000F1E0EC0FFD1FD29CE00DF11D11245282F0
:1026900011C0823579F42394E1E0F1E0EC0FFD1FE5
:1026A000D29CE00DF11D11246282CA57DE4F1882C0
:1026B000C658D14021109DC043E050E066ED71E066
:1026C0008DEE91E00E94CF192CC0803599F5F8016C
:1026D00082818D3309F08DC0818150EDB52EB80E09
:1026E000F7E0FB1508F485C04AE050E0BE016758EA
:1026F0007E4FC80103960E948522729CF00111242E
:10270000EB0DF11DEE0FFF1F21E031E02C0F3D1FFF
:10271000E20FF31F7087678321106BC0C8010E940E
:102720002C1CC758DE4FF982E882C957D14000E01F
:1027300010E05FC08235C9F4D80111968C918D33B9
:1027400009F057C04AE050E0BE0167587E4FC8010B
:1027500002960E949B23E1E0F1E0EC0FFD1FD29C6A
:10276000E00DF11D1124678BD7CF843441F5F801BA
:1027700081818D33F1F5AA24A394BA2CAC0EBD1E31
:10278000D29CA00CB11C1124C8010296D50114964C
:102790009C938E931397A401401B510B4D5F5F4F89
:1027A0006BE370E001960E947227C758DE4F998351
:1027B0008883C957D140F501968385831AC0833435
:1027C000C1F4D80111968C918D3399F44AE050E010
:1027D000BE0167587E4FC80102960E949B23E1E02C
:1027E000F1E0EC0FFD1FD29CE00DF11D112471836F
:1027F0006083C758DE4F88819981C957D140081737
:10280000190709F463C0E816F90639F00196C758AC
:10281000DE4F99838883C957D140C758DE4F08815E
:102820001981C957D140412CC758DE4FA880B980C3
:10283000C957D140A40CB11CC758DE4FB982A88239
:10284000C957D1400E94A11C97FD0DC0F50180839E
:10285000C418C758DE4FE881F981C957D14080813B
:102860008B3341F40FC089E790E00E946A1C81E736
:1028700090E01AC08A3009F421C2CC2029F0442407
:102880004394D2CFC1101DC084E592E00197F1F7C7
:102890008E0113950E94A11C97FF09C089E790E063
:1028A0000E946A1C88E690E00E94931C0BC28A304A
:1028B0009105A1F3D7018D937D01A017B10751F7C1
:1028C000EDCF11820115110509F0C3CECD5FDE4FAA
:1028D0008881C350D140811113C0C85EDE4FB881DA
:1028E000C851D140CF57DE4FB883C158D140B11144
:1028F0000DC0E1E0CF57DE4FE883C158D14006C09C
:10290000F1E0CF57DE4FF883C158D140C957DE4FB1
:102910001882C758D140312C28E1239DC0011124D1
:10292000E1E0F1E0EC0FFD1FE80FF91F22812230FA
:1029300009F089C0C558DE4F1882CB57D140DF015E
:102940005796C358DE4FB983A883CD57D140079619
:1029500021E031E02C0F3D1F280F391FC158DE4FF9
:1029600039832883CF57D140CF010596CE57DE4F0C
:1029700099838883C258D1408F010D5F1F4FC35880
:10298000DE4FA881B981CD57D1408C91C558DE4F1B
:10299000B881CB57D140B81708F04FC1CE57DE4FA2
:1029A000E881F981C258D14080809180D801CC90D3
:1029B0001196DC900E94E11C2B013C017601F7018D
:1029C000E814F90468F5BFEFEB1AFB0A8081805325
:1029D000C158DE4FE881F981CF57D140E80FF11D92
:1029E000E80FF11DA080B1806501B7FE04C0CC24C2
:1029F000DD24CA18DB080E94E11C641575058605F4
:102A00009705C8F3B7FE02C02B9801C02B9AC601E8
:102A1000DD0CAA0BBB0B480E591E6A1E7B1ECFCFC6
:102A20000E94E11C6415750586059705C8F3C55815
:102A3000DE4FE881CB57D140EF5FC558DE4FE883CA
:102A4000CB57D1409CCF213009F0F7C0C358DE4F9F
:102A50001882CD57D1406F019F01295E3F4FCE565E
:102A6000DE4F39832883C259D140CF010596CC5619
:102A7000DE4F99838883C459D140DF011396C8572C
:102A8000DE4FB983A883C858D140CE56DE4FE881C7
:102A9000F981C259D1408081C358DE4FF881CD57AA
:102AA000D140F81708F0C9C0D6010D911C91CC5641
:102AB000DE4FE881F981C459D1400190F081E02DC9
:102AC000C657DE4FF983E883CA58D140C857DE4F56
:102AD000A881B981C858D140EC901196FC900E9411
:102AE000E11C4B015C01C558DE4FE882CB57D14059
:102AF000C458DE4FF882CC57D140C801110FAA0B41
:102B0000BB0BCE57DE4F88839983AA83BB83C25801
:102B1000D140880F991FAA1FBB1FC457DE4F88835F
:102B20009983AA83BB83CC58D140C558DE4FA88176
:102B3000B981CB57D140C657DE4FE881F981CA58D9
:102B4000D140AE17BF0708F06CC08D91C558DE4F5D
:102B5000B983A883CB57D1408A3314F097E301C0DF
:102B600090E3891B24E030E0C158DE4F398328838D
:102B7000CF57D14008E0A82F880FBB0BC057DE4FBE
:102B8000B983A883C059D1402401350110E0E02E5B
:102B9000F12CC057DE4FE881F981C059D140EE22B7
:102BA000FF22111104C0E114F10421F405C0E11465
:102BB000F10411F42B9801C02B9ACE57DE4F888177
:102BC0009981AA81BB81C258D140480E591E6A1E04
:102BD0007B1E0E94E11C6415750586059705C8F3E8
:102BE0001F5F1230F1F6C457DE4F88819981AA81A8
:102BF000BB81CC58D140880E991EAA1EBB1E0695DB
:102C0000C158DE4FA881B981CF57D1401197C15823
:102C1000DE4FB983A883CF57D140AB2B09F0B4CF97
:102C200084CFC358DE4FB881CD57D140BF5FC35862
:102C3000DE4FB883CD57D14028CF2B98339423143F
:102C400008F06ACECA57DE4FE881C658D140EE235D
:102C500031F061E070E080E090E00E94061DC9570D
:102C6000DE4FF881C758D140FF5FC957DE4FF88368
:102C7000C758D140CF57DE4F2881C158D1402F13BC
:102C80004ACECE0101960E942C1CE1E0F1E0EC0F4F
:102C9000FD1F38E1239EE00DF11D11248281833058
:102CA00051F08EE892E00E94681210925E0310923A
:102CB000600310925F030E945B1104C0CC2009F4F2
:102CC000E3CD04CECB56DE4F0FB6F894DEBF0FBE79
:102CD000CDBFDF91CF911F910F91FF90EF90DF90CB
:102CE000CF90BF90AF909F908F907F906F905F90AC
:102CF0004F903F902F9008953F924F925F926F9226
:102D00007F928F929F92AF92BF92CF92DF92EF927B
:102D1000FF920F931F93CF93DF93DC0154961C9285
:102D20005497662309F4E7C050962C9150972223BC
:102D300009F4E1C030E0A62EB12CA216B3069CF037
:102D4000DF91CF911F910F91FF90EF90DF90CF9087
:102D5000BF90AF909F908F907F906F905F904F90BB
:102D60003F900C9468128C010E551F4FF801208182
:102D70003181A216B30608F0BEC0EC017C01F2E27C
:102D8000EF0EF11CFC01EF55FF4FC9010197A8168A
:102D9000B90641F41AA21082D8011D921C9287E054
:102DA000359668C02D01B4EA4B0E511CD2014C91EE
:102DB000649F3001112453E0769467945A95E1F7AB
:102DC000362C842E912C68E0C62ED12CC601B4017D
:102DD0000E947926C5010E946526009709F44CC01F
:102DE000489F802D112498E0981BD08037013D1416
:102DF000D8F4BE01630D711DDB0193964C9193973E
:102E000050E0092E02C0559547950A94E2F7929634
:102E10006C91082E01C0660F0A94EAF7462BD30185
:102E20004D933D013394E3CF2A193B09D8012D93EB
:102E30003C93829E6001839ED00C929ED00C112404
:102E4000C60168E070E00E947926DE01AA55BF4FF6
:102E5000882321F097E0981B892F01C087E08C938D
:102E6000C6018819990997FD079623E095958795DE
:102E70002A95E1F7808322C0408146194083772458
:102E800050E04F5F5F4FB701660D771DC7010E948D
:102E90007F27F201608170E0C6010E947926669D5D
:102EA0009001679D300D769D300D1124D8018D91D4
:102EB0009C911197821B930B8D939C9381E08C8B3B
:102EC000F80160817181688B662399F077276150E2
:102ED0007109C7010E946911FE01E855FF4F808109
:102EE000880F990B83559F4F8C0F9D1F99A388A323
:102EF00002C019A218A2DF91CF911F910F91FF90EC
:102F0000EF90DF90CF90BF90AF909F908F907F9089
:102F10006F905F904F903F900895FC018081918168
:102F2000892B51F482819381892B31F4848195819D
:102F300021E082278170089580E00895CF93C82F03
:102F4000803130F46AE070E080E090E00E94C11BC4
:102F500060E170E08C2FCF910C94AE1B1F93CF9348
:102F6000DF9300D01F92CDB7DEB78DEE91E00E94C7
:102F70002E1A892B09F4DEC11091E4011E3049F4A8
:102F800089EC90E00E946A1C86ED91E00E94851C0D
:102F9000CAC18DEE91E00E940C1AE12FF0E0EA52D6
:102FA000FE4F80838D3079F034F4882361F08A30CD
:102FB00009F0BCC108C0833231F08B3309F0B6C1CF
:102FC0000E94AD12B0C18091D601863509F47EC051
:102FD0000CF05FC0833409F49FC00CF055C08F33F0
:102FE00009F077C18FE30E94BC1B87E591E00E9446
:102FF0006A1C86E50E94BC1B85E591E00E946A1C64
:1030000082E50E94BC1B85E591E00E946A1C84E772
:103010000E94BC1B85E591E00E946A1C88E50E9425
:10302000BC1B85E591E00E946A1C83E50E94BC1BE5
:1030300085E591E00E946A1C80E50E94BC1B85E545
:1030400091E00E946A1C83E40E94BC1B85E591E02C
:103050000E946A1C82E70E94BC1B85E591E00E94E9
:103060006A1C87E50E94BC1B85E591E00E946A1CF2
:1030700083E70E94BC1B85E591E00E946A1C88E6FC
:1030800091E00E94851C4CC18035B9F0823539F140
:1030900020C184374CF482370CF042C1873509F4E3
:1030A000EBC0883561F115C1843709F012C10E9467
:1030B000740F4AE00E946D1B86C083E691E00E9477
:1030C000851C84EE93E00197F1F72AC180E391E03B
:1030D0000E946A1C8CE091E00E94931C21C1209107
:1030E0001E0430911F042115310511F424E234E04F
:1030F0006AE070E0CE010196821B930B62C0809162
:10310000D701813519F40E94C80F0AC1853409F02E
:1031100007C10E945B1104C18091D701873459F027
:1031200034F49CEB980F923008F452C0F9C0833508
:1031300009F485C0F5C085EE90E00E946A1C83EE1C
:1031400090E00E946A1C809191026AE070E090E039
:103150000E94C11B81EE90E00E946A1C8EED90E0FF
:103160000E946A1C83EE90E00E946A1C80918F028C
:103170006AE070E090E00E94C11B81EE90E00E9446
:103180006A1C8BED90E00E946A1C83EE90E00E9426
:103190006A1C809190026AE070E090E00E94C11B7E
:1031A00081EE90E00E946A1C89E691E00E942C1C4E
:1031B00083EE90E00E946A1C809192026AE070E0C7
:1031C00090E00E94C11B86E691E00E945B1BA8C0B4
:1031D0009091D801923579F034F4933409F0A0C07D
:1031E000E0E9F2E00DC0933549F0953509F098C05B
:1031F000EFE8F2E005C0E2E9F2E002C0E1E9F2E066
:10320000853419F481E0808301C0108220918F02FF
:10321000622F660F9091900284E0989F9001112494
:10322000262B60919102262B9091920238E0939F79
:10323000C0011124622F682B8FEF90E06FC06EE603
:1032400071E088ED91E00E949127892B09F468C014
:103250004AE050E060E070E08EED91E00E9485224F
:10326000862F60934F036AE070E00E94AE1B88EEE9
:1032700090E00E946A1C54C08091D701833529F4E4
:103280009091D801933309F44BC0082E000C990B90
:103290000E946627892B09F443C08091D801082E2B
:1032A000000C990B0E946627892BD1F18091D901DE
:1032B000082E000C990B0E946627892B89F18091BA
:1032C000DA01082E000C990B0E946627892B31F435
:1032D00027C082EF90E00E94931C25C01B82809142
:1032E000D7019091D8019A83898340E150E060E052
:1032F00070E0CE0101960E948522162F8091D9019F
:103300009091DA019A83898340E150E060E070E0B7
:10331000CE0101960E948522812F90E00E945711D4
:1033200081E08093EA011092E40104C01F5F1093D2
:10333000E4011BCE0F900F900F90DF91CF911F9162
:1033400008950E943A1A81110C94AE1708951F92A5
:103350000F920FB60F9211242F933F934F935F93C9
:103360006F937F938F939F93AF93BF93EF93FF934D
:10337000E091E501F091E6010995FF91EF91BF9190
:10338000AF919F918F917F916F915F914F913F91FD
:103390002F910F900FBE0F901F9018950895CF9208
:1033A000DF92EF92FF920F931F93CF93DF936C0105
:1033B0007A018B01C0E0D0E0CE15DF0581F0D801A5
:1033C0006D918D01D601ED91FC910190F081E02D80
:1033D000C6010995892B11F02196EECF7E01C70118
:1033E000DF91CF911F910F91FF90EF90DF90CF90E1
:1033F0000895089580E090E00895FC01538D448D78
:10340000252F30E0842F90E0821B930B541710F08F
:10341000CF96089501970895FC01918D828D98179C
:1034200061F0828DDF01A80FB11D5D968C91928DA8
:103430009F5F9F73928F90E008958FEF9FEF0895A5
:10344000FC01918D828D981731F0828DE80FF11D6E
:10345000858D90E008958FEF9FEF0895FC01918D89
:10346000228D892F90E0805C9F4F821B91098F7382
:10347000992708958DEE91E00E942E1A21E0892B64
:1034800009F420E0822F08950E946127EF92FF92B5
:103490000F931F93CF93DF93EC0181E0888F9B8D77
:1034A0008C8D981305C0E889F989808185FD26C037
:1034B000F62E0B8D10E00F5F1F4F0F731127E02EBC
:1034C0008C8DE8120CC00FB607FCFACFE889F98999
:1034D000808185FFF5CFCE010E943511F1CF8B8D14
:1034E000FE01E80FF11DE35AFF4FF0829FB7F894F9
:1034F0000B8FEA89FB89808180620AC09FB7F894AC
:10350000EE89FF896083E889F9898081837080640E
:1035100080839FBF81E090E0DF91CF911F910F9159
:10352000FF90EF900895CF93DF93EC01888D88236F
:10353000C9F0EA89FB89808185FD05C0A889B98920
:103540008C9186FD0FC00FB607FCF5CF808185FFFB
:10355000F2CFA889B9898C9185FFEDCFCE010E9469
:103560003511E7CFDF91CF9108951F920F920FB6DB
:103570000F9211242F933F934F935F936F937F93F9
:103580008F939F93AF93BF93EF93FF93E0910201CB
:10359000F09103010995FF91EF91BF91AF919F9138
:1035A0008F917F916F915F914F913F912F910F90EC
:1035B0000FBE0F901F9018951F920F920FB60F928B
:1035C00011242F933F934F935F936F937F938F9328
:1035D0009F93AF93BF93EF93FF93E0910001F0911E
:1035E00001010995FF91EF91BF91AF919F918F914B
:1035F0007F916F915F914F913F912F910F900FBEEF
:103600000F901F9018951F920F920FB60F921124D2
:103610002F933F934F935F936F937F938F939F93DA
:10362000AF93BF93EF93FF938DEE91E00E9435111E
:10363000FF91EF91BF91AF919F918F917F916F918A
:103640005F914F913F912F910F900FBE0F901F9060
:1036500018951F920F920FB60F9211242F938F93EC
:103660009F93EF93FF93E091FD01F091FE01808124
:10367000E0910302F091040282FD12C090818091DA
:1036800006028F5F8F7320910702821751F0E0913D
:103690000602F0E0E351FE4F958F8093060201C0D1
:1036A0008081FF91EF919F918F912F910F900FBE8D
:1036B0000F901F901895009769F0FC010190002071
:1036C000E9F73197AF01481B590BBC018DEE91E032
:1036D0000C94CF1980E090E008958F929F92AF9262
:1036E000BF920F931F93CF93DF93CDB7DEB7A19710
:1036F0000FB6F894DEBF0FBECDBF19A2423008F45A
:103700004AE08E010F5D1F4F842E912CA12CB12C0D
:10371000A50194010E94E625E62FB901CA010150D6
:103720001109EA3014F4E05D01C0E95CD801EC93C2
:10373000232B242B252B61F7C8010E945B1BA1962C
:103740000FB6F894DEBF0FBECDBFDF91CF911F91B2
:103750000F91BF90AF909F908F900895AB01682F0D
:103760004115510521F48DEE91E00C94461A70E05C
:1037700080E090E00C946D1B682F8DEE91E00C942E
:10378000461ACF92DF92EF92FF92CF93DF936115AB
:10379000710559F4682F8DEE91E0DF91CF91FF9084
:1037A000EF90DF90CF900C94461A6C01990FEE08C1
:1037B000FF086A307105D9F4F7FE17C08DE20E9448
:1037C000BC1BEC0166277727CB016C197D098E099C
:1037D0009F094AE00E946D1B8C0F9D1FDF91CF91C6
:1037E000FF90EF90DF90CF9008954AE001C0462F00
:1037F000C701B601DF91CF91FF90EF90DF90CF909E
:103800000C946D1B0F931F93CF93DF93462FC091A2
:103810005703D0915803E0915903F0915A03209136
:103820005B0330915C0389011595079520FF0BC060
:103830009E01200F311FD9012D913C91E20FF31F02
:103840000190F081E02DBC01CE01800F911FDF912E
:10385000CF911F910F9109940C945B1B0F931F93B1
:10386000CF93DF930097B9F0EC01FC0101900020A9
:10387000E9F731978F01081B190B87E593E00E9448
:103880008D17811108C0602FCE01DF91CF911F915C
:103890000F910C94021C80E090E0DF91CF911F917A
:1038A0000F910895CF93DF931F92CDB7DEB7898331
:1038B00087E593E00E948D17811106C061E0CE017B
:1038C00001960E94021C02C080E090E00F90DF9100
:1038D000CF9108950F931F93CF93DF938C01C0E096
:1038E000D0E0F801EC0FFD1F6491662341F08DEEEE
:1038F00091E00E94461A892B11F02196F2CFCE0159
:10390000DF91CF911F910F910895CF93DF930E9484
:103910005B1BEC0186E691E00E945B1B8C0F9D1FF8
:10392000DF91CF910895CF93DF930E946A1CEC0141
:1039300086E691E00E945B1B8C0F9D1FDF91CF916B
:1039400008952FB7F8948091150490911604A091D2
:103950001704B09118042FBF8093F5019093F601DE
:10396000A093F701B093F8018DEE91E00E940C1A3C
:1039700097FF26C02FB7F8948091150490911604F4
:10398000A0911704B09118042FBF4091F5015091F8
:10399000F6016091F7017091F801841B950BA60B5D
:1039A000B70B4091F1015091F2016091F3017091D8
:1039B000F40184179507A607B707B0F28FEF9FEFC2
:1039C00008953FB7F89480911A0490911B04A09138
:1039D0001C04B0911D0426B5A89B05C02F3F19F00B
:1039E0000196A11DB11D3FBFBA2FA92F982F88277F
:1039F000820F911DA11DB11DBC01CD0143E0660FD9
:103A0000771F881F991F4A95D1F708958F929F922B
:103A1000AF92BF92CF92DF92EF92FF926B017C0147
:103A20000E94E11C4B015C01C114D104E104F104CA
:103A3000F1F00E94E11CDC01CB0188199909AA0967
:103A4000BB09883E9340A105B10570F321E0C21A7D
:103A5000D108E108F10888EE880E83E0981EA11CC9
:103A6000B11CC114D104E104F10419F7DDCFFF90BA
:103A7000EF90DF90CF90BF90AF909F908F90089580
:103A80001F920F920FB60F9211242F933F938F9393
:103A90009F93AF93BF938091150490911604A091CA
:103AA0001704B09118043091190426E0230F2D3724
:103AB00020F40296A11DB11D05C029E8230F03962D
:103AC000A11DB11D20931904809315049093160431
:103AD000A0931704B093180480911A0490911B04CA
:103AE000A0911C04B0911D040196A11DB11D8093ED
:103AF0001A0490931B04A0931C04B0931D04BF915F
:103B0000AF919F918F913F912F910F900FBE0F908A
:103B10001F901895CF93DF93CDB7DEB72A970FB6D6
:103B2000F894DEBF0FBECDBF789484B5826084BDAB
:103B300084B5816084BD85B5826085BD85B58160B1
:103B400085BD80916E00816080936E00109281002F
:103B500080918100826080938100809181008160EA
:103B600080938100809180008160809380008091AB
:103B7000B10084608093B1008091B0008160809337
:103B8000B00080917A00846080937A0080917A00FE
:103B9000826080937A0080917A008E7F80937A0091
:103BA00080917A00806880937A001092C100E09141
:103BB000FD01F091FE0182E08083E091F901F09136
:103BC000FA011082E091FB01F091FC0180E1808319
:103BD00010920502E0910102F091020286E08083DA
:103BE000E091FF01F0910002808180618083E0918B
:103BF000FF01F0910002808188608083E091FF01E5
:103C0000F0910002808180688083E091FF01F09153
:103C1000000280818F7D80835298259A80E090E019
:103C20000E945911833309F032C281E090E00E9472
:103C300059118D3109F02BC28FEF90E00E9459117C
:103C4000982F91709093910281FB992790F990930E
:103C50008F0282FB992790F99093900283FB88272B
:103C600080F980939202239A62E370E080E090E012
:103C70000E94061D80E1809381001092800082E006
:103C80008093E90180E89EE39093E8018093E70147
:103C9000909387008093860082E1809381008AEE72
:103CA0009FE09093E6018093E50181E080936F00AF
:103CB0001E821D828EE69FE09C838B838B819C817C
:103CC000AD81BE818093590390935A03A0935B0307
:103CD000B0935C0385ED9FE0909358038093570366
:103CE0000E945B1180E991E0A0E0B0E08093F101D7
:103CF0009093F201A093F301B093F40172E0472E88
:103D0000512C612C712C99249394E7E08E2EF3E0D2
:103D1000AF2EB12C80915E03882309F4B5C1809148
:103D20005E03815080935E038091600360915D0328
:103D30000E94592690936003E091600381E08E0F0A
:103D400080936003F0E0EE0FFF1FEF59FC4F80817E
:103D500091819093EC018093EB011092A10260910C
:103D60009E02662391F070E06150710980EB92E051
:103D70000E94691180913603880F990B855C9C4FD6
:103D80009093AF028093AE0204C01092AF021092E3
:103D9000AE024091EB015091EC01E091AC02F09148
:103DA000AD025183408390919E02992379F0E09176
:103DB000AE02F091AF02309749F020813181242783
:103DC0003527232F221F2227221F01C021E031E0A7
:103DD0009E3F09F430E081E0411553480CF480E047
:103DE000832311F0211132C00E94EF008091A102C3
:103DF000811104C080914E038823B1F080919E020E
:103E00008823D1F0E091AE02F091AF023097A1F09B
:103E1000A091AC02B091AD022D913C918081918135
:103E20008227932797FD08C08EE892E00E946812CF
:103E30001092AF021092AE0280919E028E3F91F5D9
:103E400060E070E0CB010E94061D2CC0983251F555
:103E5000B092A702A092A60281E593E00E948D177E
:103E6000811120C02091510330915203E0915303FE
:103E7000F09154034091550350915603CA01959512
:103E8000879540FF0AC0D901A80FB91F4D915C91D9
:103E9000E40FF51F0190F081E02D820F931F09952B
:103EA00080935003C090AC02D090AD02D6010D912A
:103EB0001C91B80117FF04C066277727601B710BA0
:103EC000072E000C880B990B0E94A3242DEC3CECD0
:103ED0004CE45EE30E9402250E942D279B01709313
:103EE000A5026093A40270914B03EBE3F3E060E062
:103EF0007617C1F081919191A8014827592757FD64
:103F00000FC0009769F0A801481B590BCA0157FF61
:103F100003C0919581959109281739070CF0CBC002
:103F20006F5FE6CF7830E1F540E060E08EE892E048
:103F30000E94ED11E0914C03F0E0E257FD4F8681C5
:103F4000833040F00E94EF0040E060E08EE892E0B5
:103F50000E94ED1110919E021150E0914C03F0E08F
:103F6000E257FD4F86818823D9F080919E028823F5
:103F7000B9F0612F70E080EB92E00E94691120910E
:103F80003603022E000C330B80914C0390E028176F
:103F9000390711F761E0610F8EE892E00E947C160C
:103FA00010914C03E091AC02F091AD0280819181BF
:103FB000E12FF0E0EE0FFF1FE55CFC4F9183808363
:103FC00081E0810F883019F080934C0306C0109275
:103FD0004C0380934B0310924E0380914C039091BD
:103FE0004B03981710F480934B03312F2091340327
:103FF00080913003909131032730B9F418161906D7
:10400000A4F4E0912F036E2F70E04091350350E04F
:1040100041505109641775070CF072C0EF5FE093CF
:104020002F03F0E0E257FD4F12A2A09132034A2F76
:1040300050E0622F70E06F5F7F4F641B750B1616A8
:1040400017062CF4312F01C0330F6A95EAF7E0917F
:104050002F03F0E0E257FD4F62A1362B32A3019609
:104060009093310380933003622F022E000C770B64
:10407000FB01E41BF50BF7FD04C02A1B209334035E
:104080009AC08092340397C00E94A11943CE6FE07A
:104090008FEF90E00E94571184E691E00E94931CFC
:1040A00063E380E090E00E9457116DE181E090E0D1
:1040B0000E945711C1CD162F67FD34CF812F880F75
:1040C000990BDC01A55CBC4F7D016D917C919B013E
:1040D000770F440B550BD6018D919C91092E000C46
:1040E000AA0BBB0B280F391F4A1F5B1FCA01B9015E
:1040F000A30192010E948D26F7013183208375CFA1
:1041000060E070E0CB010E94061D85E791E00E940F
:104110002E1C86E891E00E942E1C80919F020E9436
:10412000521C8FE891E00E942E1C8091A0020E94F8
:10413000521C86E991E00E942E1C812F0E94521C85
:104140008CE991E00E942E1C80919E020E94521CDC
:1041500085EA91E00E942E1C80912F030E94521C40
:104160008CEA91E00E942E1C809130030E94521C28
:1041700083EB91E00E942E1C8091A2020E94521CAF
:104180008CEB91E00E942E1C8091A6020E94521C92
:1041900084EC91E00E942E1C8091A1020E94521C8E
:1041A0008AE00E94521C8091A102882309F4B2CDBA
:1041B0009092EA01AFCD80939E021092A202F3CFBB
:1041C000CF93DF93EDEEF1E01382128288EE93E05D
:1041D000A0E0B0E084839583A683B78382E191E079
:1041E0009183808385EC90E09587848784EC90E0D0
:1041F0009787868780EC90E0918B808B81EC90E0B4
:10420000938B828B82EC90E0958B848B86EC90E094
:10421000978B868B118E128E138E148EEDE5F3E044
:104220008AE58083118213821282CEE8D2E088EA86
:1042300092E09F8F8E8F19A218A28FE7809335038B
:1042400084E0809332031AA210922F03109231035C
:104250001092300387E08093340380EF8093330320
:104260001092500310925203109251031092540373
:104270001092530310925603109255031092580354
:104280001092570310925A031092590310925C0334
:1042900010925B031B8E1A8ECE010E94681281E180
:1042A00080934F031D8281E08C831F861E860E94AF
:1042B000E11C60938A0270938B0280938C0290932E
:1042C0008D02DF91CF9108950F931F93CF93DF93CA
:1042D0008230910510F482E090E0E0912004F091AA
:1042E000210420E030E0A0E0B0E0309719F14081F7
:1042F00051810281138148175907C8F08417950727
:1043000069F4109731F012960C93129713961C9340
:1043100027C0009320041093210422C021153105E9
:1043200019F04217530718F49A01BD01EF01DF019C
:10433000F801DBCF21153105F9F0281B390B2430AA
:10434000310580F48A819B816115710521F0FB01A3
:104350009383828304C09093210480932004FE0100
:10436000329644C0FE01E20FF31F819391932250D5
:104370003109398328833AC020911E0430911F04EB
:10438000232B41F4209106013091070130931F0443
:1043900020931E042091040130910501211531055F
:1043A00041F42DB73EB74091080150910901241BFB
:1043B000350BE0911E04F0911F04E217F307A0F4FF
:1043C0002E1B3F0B2817390778F0AC014E5F5F4F6B
:1043D0002417350748F04E0F5F1F50931F0440937A
:1043E0001E048193919302C0E0E0F0E0CF01DF91E1
:1043F000CF911F910F910895CF93DF93009709F408
:1044000081C0FC01329713821282A0912004B091E6
:104410002104109781F420813181820F931F209114
:104420001E0430911F042817390751F5F0931F041B
:10443000E0931E0467C0ED0120E030E0CE17DF07F7
:1044400040F44A815B819E0141155105F1F0EA017A
:10445000F5CFD383C28340815181840F951FC81744
:10446000D90759F488819981840F951F0296918309
:1044700080838A819B81938382832115310529F46E
:10448000F0932104E09320043DC0E901FB83EA831B
:1044900049915991C40FD51FEC17FD0761F4808134
:1044A0009181840F951F0296E90199838883828107
:1044B00093819B838A83E0E0F0E012968D919C913A
:1044C0001397009719F0FD01DC01F7CF8D919C91B6
:1044D00011979D012E5F3F4F820F931F20911E0465
:1044E00030911F042817390769F4309729F4109286
:1044F00021041092200402C013821282B0931F0480
:10450000A0931E04DF91CF910895A0E0B0E0EBE806
:10451000F2E20C9414265C016B017A0161157105BD
:1045200019F0FB0191838083E114F10429F0C701A4
:104530000297839708F0E5C0E5012196F501108107
:10454000812F90E00E949024892B11F05E01F4CF1E
:104550001D3229F42196F501118101E007C01B32BB
:1045600021F4E5012296F501118100E0E114F10446
:1045700009F1F0E1EF16F10429F43FC010E3E11472
:10458000F10421F128E0E216F10401F154F4E2E033
:10459000EE16F10421F5812C912CA12CB0E4BB2E58
:1045A0003EC0FAE0EF16F10439F020E1E216F10422
:1045B000B1F430C0103319F1FAE0EF2EF12CACEC6D
:1045C0008A2E982CA82CACE0BA2E29C078E0E72ED1
:1045D000F12C812C912CA12CE0E1BE2E20C060E0BA
:1045E00070E080E090E897010F2C000C440B550B15
:1045F0000E94E62549015A0112C0103359F48881FE
:104600008F7D883509F0BACF19812296026080E14A
:10461000E82EF12C812C912CA12C68E0B62E40E0E4
:1046200060E070E0CB0127010F2C000C66087708D2
:10463000FE0150ED352E310E29E0231570F42FEBDD
:10464000210F2A3118F439EC332E06C02FE9210F3F
:104650002A3118F529EA322E310E232D30E02E159D
:104660003F05DCF447FD16C086169706A806B90676
:1046700070F0A30192010E94D625630D711D811D6A
:10468000911D61307105810520E8920710F04FEF10
:1046900001C041E021961081CBCF202F2170C114A1
:1046A000D10471F0442329F02197F601D183C0830E
:1046B00007C001FF19C02297F601D183C08314C03F
:1046C00047FF12C0222329F060E070E080E090E80C
:1046D00004C06FEF7FEF8FEF9FE722E230E030936F
:1046E00023042093220409C0222381F09095809511
:1046F000709561957F4F8F4F9F4F462F372F282FF3
:1047000012C040E030E020E090E00DC097FFF5CF10
:1047100082E290E090932304809322046FEF7FEF76
:104720008FEF9FE7EACF642F732F822FCDB7DEB7CD
:10473000E1E10C943026A0E0B0E0E1EAF3E20C9471
:1047400014265C016B017A016115710519F0FB01FA
:1047500091838083E114F10429F0C70102978397C4
:1047600008F0C9C0E5012196F5011081812F90E084
:104770000E949024892B11F05E01F4CF1D3229F4A0
:104780002196F501118101E007C01B3221F4E501FA
:104790002296F501118100E0E114F104B1F0F0E19D
:1047A000EF16F10429F4B0C010E3E114F10401F1B3
:1047B0002AE0E216F104B1F180E1E816F10471F0AB
:1047C000E8E0EE16F104F1F413C0103341F58881EE
:1047D0008F7D883549F7198122960260F0E1EF2E2E
:1047E000F12C88248A94982CA82CAFE0BA2E20C0F3
:1047F00078E0E72EF12C88248A94982CA82CEFE1FD
:10480000BE2E16C06FEF7FEFCB0197010F2C000C6F
:10481000440B550B0E94E62549015A0109C08AE064
:10482000E82EF12C69E9862E982CA82C69E1B62E89
:1048300040E060E070E0CB0127010F2C000C66081F
:104840007708FE0150ED352E310E29E0231570F466
:104850002FEB210F2A3118F439EC332E06C02FE943
:10486000210F2A3130F529EA322E310E232D30E086
:104870002E153F05F4F44F3FC9F086169706A8069B
:10488000B90688F0A30192010E94D625232D30E0BD
:1048900040E050E0620F731F841F951F621773077B
:1048A0008407950710F44FEF01C041E02196108175
:1048B000C8CFC114D10451F0442311F0219703C093
:1048C00001FF04C02297F601D183C08300FF07C017
:1048D00090958095709561957F4F8F4F9F4F4F3F7B
:1048E00079F482E290E090932304809322043FEFD6
:1048F0002FEF9FEF0DC040E030E020E090E008C0D7
:10490000462F372F282F04C0103309F067CF5FCF11
:10491000642F732F822FCDB7DEB7E1E10C943026E0
:1049200091110C949924803219F089508550C8F760
:1049300008959927882708950E94DE2408F481E0CD
:104940000895E89409C097FB3EF490958095709582
:1049500061957F4F8F4F9F4F9923A9F0F92F96E9CB
:10496000BB279395F695879577956795B795F11140
:10497000F8CFFAF4BB0F11F460FF1BC06F5F7F4FDD
:104980008F4F9F4F16C0882311F096E911C07723EF
:1049900021F09EE8872F762F05C0662371F096E8F8
:1049A000862F70E060E02AF09A95660F771F881FC7
:1049B000DAF7880F9695879597F90895990F00086B
:1049C000550FAA0BE0E8FEEF16161706E807F907E1
:1049D000C0F012161306E407F50798F0621B730B7C
:1049E000840B950B39F40A2661F0232B242B252BFD
:1049F00021F408950A2609F4A140A6958FEF811DA0
:104A0000811D08950E9415250C9486250E94782505
:104A100038F00E947F2520F0952311F00C946F252B
:104A20000C94752511240C94BA250E94972570F3D7
:104A3000959FC1F3950F50E0551F629FF001729F43
:104A4000BB27F00DB11D639FAA27F00DB11DAA1F52
:104A5000649F6627B00DA11D661F829F2227B00D9F
:104A6000A11D621F739FB00DA11D621F839FA00D2A
:104A7000611D221F749F3327A00D611D231F849F7A
:104A8000600D211D822F762F6A2F11249F575040D1
:104A90009AF0F1F088234AF0EE0FFF1FBB1F661F4C
:104AA000771F881F91505040A9F79E3F510580F015
:104AB0000C946F250C94BA255F3FE4F3983ED4F331
:104AC000869577956795B795F795E7959F5FC1F7B9
:104AD000FE2B880F911D9695879597F9089597F964
:104AE0009F6780E870E060E008959FEF80EC089594
:104AF00000240A94161617061806090608950024BD
:104B00000A9412161306140605060895092E039436
:104B1000000C11F4882352F0BB0F40F4BF2B11F4AA
:104B200060FF04C06F5F7F4F8F4F9F4F089557FD09
:104B30009058440F551F59F05F3F71F04795880F0B
:104B400097FB991F61F09F3F79F0879508951216A2
:104B500013061406551FF2CF4695F1DF08C016164E
:104B600017061806991FF1CF8695710561050894FF
:104B70000895E894BB2766277727CB0197F9089516
:104B8000F999FECF92BD81BDF89A992780B5089515
:104B9000262FF999FECF1FBA92BD81BD20BD0FB659
:104BA000F894FA9AF99A0FBE01960895DB018F9353
:104BB0009F930E940826BF91AF91A29F800D911DE7
:104BC000A39F900DB29F900D11240895A1E21A2E7B
:104BD000AA1BBB1BFD010DC0AA1FBB1FEE1FFF1FA1
:104BE000A217B307E407F50720F0A21BB30BE40BF1
:104BF000F50B661F771F881F991F1A9469F7609538
:104C00007095809590959B01AC01BD01CF010895F1
:104C10000E944A26A59F900DB49F900DA49F800DE1
:104C2000911D112408952F923F924F925F926F929F
:104C30007F928F929F92AF92BF92CF92DF92EF922C
:104C4000FF920F931F93CF93DF93CDB7DEB7CA1BAD
:104C5000DB0B0FB6F894DEBF0FBECDBF09942A88D8
:104C6000398848885F846E847D848C849B84AA8480
:104C7000B984C884DF80EE80FD800C811B81AA810D
:104C8000B981CE0FD11D0FB6F894DEBF0FBECDBFD8
:104C9000ED010895A29FB001B39FC001A39F700DC5
:104CA000811D1124911DB29F700D811D1124911D34
:104CB0000895991B79E004C0991F961708F0961B78
:104CC000881F7A95C9F780950895AA1BBB1B51E1EF
:104CD00007C0AA1FBB1FA617B70710F0A61BB70B6C
:104CE000881F991F5A95A9F780959095BC01CD0111
:104CF000089597FB072E16F4009407D077FD09D08E
:104D00000E94652607FC05D03EF4909581959F4F43
:104D10000895709561957F4F0895052E97FB1EF4B9
:104D200000940E94A42657FD07D00E94E62507FCA8
:104D300003D04EF40C94A4265095409530952195BF
:104D40003F4F4F4F5F4F08959095809570956195B7
:104D50007F4F8F4F9F4F08950E944A26B7FF0895B7
:104D6000821B930B0895EE0FFF1F0590F491E02D29
:104D700009945058BB27AA270E94D1260C94862557
:104D80000E94782538F00E947F2520F039F49F3F5B
:104D900019F426F40C9475250EF4E095E7FB0C94B9
:104DA0006F25E92F0E94972558F3BA1762077307FA
:104DB0008407950720F079F4A6F50C94B9250EF434
:104DC000E0950B2EBA2FA02D0B01B90190010C011B
:104DD000CA01A0011124FF27591B99F0593F50F433
:104DE000503E68F11A16F040A22F232F342F44278B
:104DF000585FF3CF469537952795A795F040539583
:104E0000C9F77EF41F16BA0B620B730B840BBAF052
:104E10009150A1F0FF0FBB1F661F771F881FC2F7BD
:104E20000EC0BA0F621F731F841F48F487957795D1
:104E30006795B795F7959E3F08F0B0CF9395880F8B
:104E400008F09927EE0F9795879508950E942D27D2
:104E50006894B1110C94BA2508950E949F2588F09A
:104E60009F5798F0B92F9927B751B0F0E1F0660F2E
:104E7000771F881F991F1AF0BA95C9F714C0B1306F
:104E800091F00E94B925B1E008950C94B925672FDF
:104E9000782F8827B85F39F0B93FCCF3869577959E
:104EA0006795B395D9F73EF4909580957095619587
:104EB0007F4F8F4F9F4F08950E94DE2408F48FEF9D
:104EC000089581E090E0F8940C94B42791110C942B
:104ED000992480538A5028F0865C806281568650DF
:104EE000B0F70895FC014150504030F00190061693
:104EF000D1F73197CF01089588279927089568172A
:104F0000790768F4FB01DC01E40FF51FA40FB51F5E
:104F100002C002900E9241505040D8F708950C9470
:104F2000AB27FB0151915523A9F0BF01DC014D9145
:104F300045174111E1F759F4CD010190002049F0E6
:104F40004D9140154111C9F3FB014111EFCF81E0B3
:104F500090E001970895FB01DC0102C001900D92E1
:0C4F600041505040D8F70895F894FFCF5E
:104F6C00CE19CE19000024042000FFFFFFFF000023
:104F7C000000461ACF19FD19931A2E1A0C1A201A72
:104F8C004D73003B43003B53004D5300443D003BED
:104F9C0043503D003B53503D00523D004D43003BC0
:104FAC004C4C3D003B4C483D003B534C3D003B536F
:104FBC00483D003B433D003B4C3D004D75003B00E4
:104FCC004D55004F4B000D0A004D726564006D632A
:104FDC006D626C3D002061646444617461206F6695
:104FEC006C6F772D3E00206D73746172743D0020E0
:104FFC006D656E643D002076616C3D00206D7367BD
:10500C006C656E3D0020627974633D002076616CA6
:10501C00633D00206D5472756E633D0020737461A6
:0E502C0074653D0020737563636573733D000A
:00000001FF
