:100000000C94CF010C94EA1E0C94C31E0C949C1EFD
:100010000C94751E0C94F7010C94F7010C944E1E71
:100020000C94F7010C94F7010C94111F0C94831F8E
:100030000C94F7010C94F7010C94F7010C94F70160
:100040000C94F7010C94F7010C94F7010C94F70150
:100050000C94651B0C94F7010C94F7010C94D523B8
:100060000C94F7010C94F7010C94F7010C94F70130
:100070000C94F7010C94F7010C94F7010C94F70120
:100080000C94F7010C94F7010C94F7010C94F70110
:100090000C94F7010C94F7010C94F7010C94F70100
:1000A0000C94F7010C94F7010C94F7019C229F2209
:1000B0008E2292229622C022C022C022A322A722F0
:1000C000AB22B122B522C022BB22496E69742065E1
:1000D0006570726F6D20746F2064656661756C74F5
:1000E0007320616674657220666C61736800436F8B
:1000F0006D6D616E6420746F206C6F6E673A2000C6
:100100004D43004D55003B003D004D5300206269BA
:10011000747320736574003A20006363726567200E
:10012000002000433345203D004325303258203D18
:10013000202530325800636D645374726F626552CB
:100140006567202530325820636869705374617484
:10015000757320253032582064656C617931202513
:1001600030325800556E737570706F72746564200C
:1001700073686F727420636F6D6D616E6400636F7E
:100180006D6D616E642065006973206E6F7420630D
:100190006F72726563746C792073657420666F7218
:1001A0002041534B2F4F4F4B2E20506C6561736590
:1001B00020646F206120666163746F7279207265BC
:1001C000736574207669612000203D2000203A008C
:1001D000454550524F4D0020746F205041544142CC
:1001E0004C4520646F6E650077726974652000204D
:1001F0002D20636F6D70696C65642061742041759A
:100200006720323120323032302031383A34373AB8
:10021000333000383638200034333320004D687ACC
:100220000063633131303120005620332E352E30BB
:100230002D6465765F3230323030383131205349A9
:10024000474E414C6475696E6F2000200020557345
:1002500065206F6E65206F6620003B003B523D00BD
:100260004D4E3B443D006363466163746F72795247
:100270006573657420646F6E65000D2E2D47D391F4
:100280003D04320000060010B07157C43023B9009D
:10029000070018146C070091876BF8B611E92A0063
:1002A0001F4100746F206C6F6E672000636F727265
:1002B0007570740073656E6420636D642000080BB4
:1002C0000002020201000904000001020200000510
:1002D000240010010524010101042402060524065E
:1002E00000010705810310004009040100020A0013
:1002F00000000705020240000007058302400000DD
:100300000403090412010002EF0201404123378077
:1003100000010102030141726475696E6F204C4C4B
:10032000430041726475696E6F204D6963726F009E
:1003300000000000250028002B002E0031000404DE
:10034000040404030405020202020403020202027E
:100350000606060606060404020202040404080255
:10036000011040804010204080408008020401803D
:1003700040201002011080102040402000000002A8
:1003800000090F0000030401000C00000000000041
:100390000000000000000000000000004F2D1124AC
:1003A0001FBECFEFDAE0DEBFCDBF12E0A0E0B1E0CC
:1003B000E4ECFDE602C005900D92AC34B107D9F72C
:1003C00024E0ACE4B2E001C01D92AC3AB207E1F720
:1003D00011E0CFECD1E004C02197FE010E94B635B8
:1003E000CE3CD107C9F70E943A240C94E0360C9415
:1003F00000002F923F924F925F926F927F928F9266
:100400009F92AF92BF92CF92DF92EF92FF920F93A3
:100410001F93CF93DF93CDB7DEB7C955D1090FB680
:10042000F894DEBF0FBECDBF9E012F5F3F4F190175
:1004300086E1D9011D928A95E9F78091DF03209129
:100440002F03811104C0283210F40C94620F109213
:10045000320391E02E3F09F090E09093340340E0A6
:1004600060E081114BC28FE193E00E94D514D12C42
:10047000ED2DF0E0FEA7EDA7F091DC03FFA78F2F95
:1004800090E001972DA53EA5281739070CF016C15D
:10049000F901E15EFC4FCF0106962681222309F483
:1004A0000BC1CC24C394CD0C2DA53EA5220F331F28
:1004B000A90144535C4F5AAB49AB9CAB8BAB5EABD1
:1004C0004DAB8091DC03C81608F0F6C06C2C712C83
:1004D000B301615E7C4F78AB6FA7DB0116968C9100
:1004E000882309F4E7C0E9A9FAA9E080F180F301C3
:1004F000EE0FFF1FE453FC4F00811181C7018027DD
:10050000912797FDD7C08090C8039090C903A09011
:10051000CA03B090CB03B80117FF04C06627772742
:10052000601B710B072E000C880B990B0E94AD33DA
:10053000A50194010E940C346FAB78AF89AF9AAFDC
:10054000B701F7FE04C0662777276E197F09072ECB
:10055000000C880B990B0E94AD33A50194010E94F9
:100560000C349B01AC016FA978AD89AD9AAD0E94A6
:10057000C43520E030E040E05FE30E940C340E948C
:1005800030360E191F0917FF03C011950195110987
:10059000601771070CF48EC0F12CE12C0FA518A97F
:1005A0000A5F1F4F80912F03F81608F049C0D80149
:1005B0008C91E81608F044C06F2D70E081E493E060
:1005C0000E942F148091C703082E000C990B681607
:1005D0007906A1F58091C303482F50E0F89EC00131
:1005E0001124FC0163E0F695E7956A95E1F7209107
:1005F000C603E21710F587709927FF27E15EFC4FCD
:100600002091C40330E0082E02C0359527950A9446
:10061000E2F7209532A1232368E070E0641B750B9C
:10062000DB01A81BB90B4DA55EA502C0440F551FE9
:10063000AA95E2F7CA01822B82A3E394F394B2CF86
:10064000ABA9BCA9EC90EFA5F8A9F680EDA9FEA98D
:10065000A081B1818301000F111F04531C4FF801C9
:10066000A080B180EE2DF0E09F010E94BC352B01EF
:100670003C014F2D50E09A01D5010E94BC35640D1C
:10068000751D861D971DE40FF51F9F01FF0F440B7D
:10069000550B0E949735ADA9BEA92D933C93FE0C36
:1006A000EBA9FCA9F082AFA5B8A916961C92F80197
:1006B00011821082C39405CFD394DACE10923803FE
:1006C000109237038FEF80931F03F0912F03F9AB44
:1006D0002F2F30E03CAB2BAB4FE1C42E43E0D42EA8
:1006E0004CEC53E05EA74DA7E12CF12C0FEF1FEF70
:1006F0004901330FAA08BB085FA5E51608F05EC0E4
:100700000F3F6FEF160709F5ADA5BEA58D919C9122
:1007100097FD1BC0F601668170E080E090E00E94CA
:10072000AD332B013C01C501B4010E94AD332BE771
:1007300034E14EE25EE30E940C349B01AC01C30144
:10074000B2010E94663618165CF1ADA5BEA58D916A
:100750009C9197FD26C0F801EE0FFF1FE453FC4F5C
:100760002081318182179307E4F4F601668170E0FD
:1007700080E090E00E94AD332B013C01C501B40143
:100780000E94AD332BE734E14EE25EE30E940C346D
:100790009B01AC01C301B2010E94663618160CF42D
:1007A0008701FFEFEF1AFF0A2FEFC21AD20A4DA5F9
:1007B0005EA54E5F5F4F5EA74DA79ECF0F3F5FEFD9
:1007C000150741F000931F0381E090E090933803F8
:1007D000809337038091370390913803019709F094
:1007E00091C080912203882309F48CC06BA97CA955
:1007F000663A71051CF409A9085201C00DE71FA54E
:10080000115096E0D92E1F3F09F475C0E12E012E3C
:10081000000CFF08F701EE0FFF1FE453FC4F20818F
:10082000318137FF66C0319521953109283672E450
:1008300037070CF05EC0E0911F03EE0FFF0BE4538F
:10084000FC4F0190F081E02DC901BF010E946F357E
:100850006D32710508F04DC0DE9EC001DF9E900D27
:1008600011248217930708F044C0F701E15EFC4FA2
:10087000F6806F2D70E080E090E00E94AD334B0178
:100880005C0160912F0370E080E090E00E94AD3346
:100890002AE037ED43EA5DE30E940C349B01AC0192
:1008A000C501B4010E94A63387FF23C081E08F15E4
:1008B00000F5E12CF12CE016E0F457019FEFA91AA6
:1008C000B90AB50181E493E00E942F148091C70317
:1008D00018130C94AE0FB70181E493E00E942F141B
:1008E0009091C70380911F0398130C94AE0F0C9442
:1008F000B10F115088CF1093DE0304C08FE193E055
:100900000E94D5148091370390913803029709F023
:100910001BC280912F03883208F416C280913003E5
:100920008E5F8093310310E06091310370E080911D
:100930002F0390E0019768177907ACF46F5F7F4F42
:1009400081E493E011110C944E110E942F149091A8
:10095000C7038091DE03981311E0809131038E5F0D
:1009600080933103E1CF10E080912F039091310308
:10097000891710F480933103409131036091300363
:100980008FE193E00E94D51460913003112371F040
:100990008091310390E0861B9109889794F481E05F
:1009A00090E09093380380933703CEC180912F035A
:1009B0008E3F08F0B3C190E0861B910988970CF434
:1009C000ADC182E00E941F2480912303882309F493
:1009D000AFC06FEB71E08FE193E00E94371B8BE3B8
:1009E0000E941F24F12C8091DC03F81688F58F2DCE
:1009F00090E0FC01EE0FFF1FE453FC4F00811181DA
:100A00000115110519F1FC01E15EFC4F8681882377
:100A1000E9F08F2D17FF05C0806A11950195110926
:100A200001C08068E02E07FD04C0A02FA068EA2E58
:100A300001C080610E941F248E2D0E941F24812FDF
:100A400080680E941F248BE30E941F24F394CBCF65
:100A50008091310380FF03C062EC71E002C062EE5E
:100A600071E08FE193E00E94371BE0913003E0FFDB
:100A700019C0E150E0933003E6958091C603E81772
:100A800028F4F0E0E15EFC4F12A101C010E01F70FD
:100A90001068812F0E941F24809130038E5F809305
:100AA000300301C010E000913003809131038017C2
:100AB00078F0E02FE6958091C603E81720F4F0E087
:100AC000E15EFC4F12A1812F0E941F240E5FEDCF2B
:100AD0008091DE03282F082E000C330B3F938F9359
:100AE00080911F03282F082E000C330B3F938F9308
:100AF00084EC91E09F938F933F922F920E94B536A2
:100B0000182FB1018FE193E00E94371B82EE93E032
:100B10000E94261B0FB6F894DEBF0FBECDBF811119
:100B20009BC08091E1031F928F938EEC91E09CC05B
:100B300063ED71E08FE193E00E94371B8BE30E942D
:100B40001F2410E0B6EDEB2EB1E0FB2E8091DC030C
:100B5000181740F5812F90E0FC01EE0FFF1FE453C2
:100B6000FC4F2081318121153105D1F0FC01E15E7E
:100B7000FC4F46814423A1F03F932F939F931F93F3
:100B8000FF92EF923F922F920E94B536B1018FE112
:100B900093E00E94371B0FB6F894DEBF0FBECDBFA7
:100BA0001F5FD4CF6EED71E08FE193E00E94371BA1
:100BB0001091300371EEE72E71E0F72E8091310332
:100BC000811708F1612F70E081E493E00E942F14F7
:100BD0008091C703282F082E000C330B3F938F936F
:100BE000FF92EF923F922F920E94B536B1018FE1B2
:100BF00093E00E94371B1F5F0F900F900F900F9094
:100C00000F900F90DBCF8091DE03282F082E000C71
:100C1000330B3F938F9380911F03282F082E000CD6
:100C2000330B3F938F9384EE91E09F938F933F928A
:100C30002F920E94B536182FB1018FE193E00E94E8
:100C4000371B82EE93E00E94261B0FB6F894DEBF9E
:100C50000FBECDBF882311F01DA718C08091E103FE
:100C60001F928F9382EF91E09F938F933F922F92E9
:100C70000E94B5368DA7B1018FE193E00E94371B2A
:100C80000F900F900F900F900F900F908091340362
:100C9000882349F068EF71E08FE193E00E94371BF1
:100CA0008BE30E941F2410923303609131038091E3
:100CB0002F0390E0861B9109889734F180912403DB
:100CC000882311F18150809324036F5F8FE193E0BB
:100CD0000E94011A10923003809124031F928F9377
:100CE0008AEF91E09F938F933F922F920E94B536A7
:100CF0008DA7B1018FE193E00E94371B0F900F90F9
:100D00000F900F900F900F9083E00E941F248AE0B5
:100D10000E941F2481E08093320317C0662369F08C
:100D20008091310390E08D3F91053CF08FE193E09D
:100D30000E94011A1092300307C08FE193E00E94D5
:100D4000501581E0809332031DA6809132038111FA
:100D500040C7809120035091210327965FAF2797CA
:100D6000811103C0552309F434C727966FAD279727
:100D7000662309F42EC780912D0390912E03892BB1
:100D800039F585E490E00E94BB2DFC0182E380AF41
:100D900081E085AB108212AA14AA13AA87E087AB60
:100DA00080E886AB8FEF84AF85AF86AF87AFDF017A
:100DB000AD5BBF4F1C9211961C928FE193E093AFF5
:100DC00082AF14971D921C92F0932E03E0932D0393
:100DD0008091DF03882311F100912D0310912E03E0
:100DE000D801DA96ED91FC91DB97148A118ADA9694
:100DF000ED91FC91DB97E054FF4F1082512C58018C
:100E0000B4E4AB0EB11C442443943801E2E46E0E0A
:100E1000711C1801F3E42F0E311CB5C120902D0375
:100E200030902E038FEFD101DC968C93DC97DD960A
:100E30008C93DD97DF968C93DF97DE968C93DE970D
:100E4000F101ED5BFF4F10823196108234971182D1
:100E50001082F101108212AA14AA13AA87E087ABAC
:100E6000EE5BFF4F8091E0038083DA960D911C9139
:100E7000DB97F801E354FF4FF080B3E0BF1508F0B3
:100E8000A8C6F801608970E080E090E00E94AD3370
:100E90002AE037ED43E25DE30E940C344B015C0134
:100EA00020E030E0A9010E94663620E030E040E01A
:100EB0005FE387FD05C0C501B4010E94C43504C0CD
:100EC000C501B4010E94C3350E9430365801F6E0D6
:100ED000AF0EB11CF801E355FF4F1BAE70E0D5011A
:100EE0008D915D01861788F1EBAC8E2D90E0EE20A0
:100EF00009F126E130E02C0F3D1F280F391FD901E1
:100F0000DC9098012D0D311D2D0D311D23553F4FC6
:100F100040815181D9012D913C914217530754F4DE
:100F200027E130E02C0F3D1F820F931FDC01DC9284
:100F3000EA94DBCF27E130E02C0F3D1F820F931F97
:100F4000DC017C93BBADBF5FBBAF7F5F3296F71216
:100F5000C6CFFE017796F8A7EFA32696FFAFEEAFB8
:100F600026974091250150912601609127017091AB
:100F7000280161964CAF5DAF6EAF7FAF6197B10155
:100F80006E5B7F4F63967FAF6EAF6397C1018D5BE2
:100F90009F4F9DAF8CAFD101AC5BBF4F6A96BFAF87
:100FA000AEAF6A973C96FCA7EBA7FFA16896FFAF90
:100FB000689725968FAD25978F1B3BAD831708F05B
:100FC00008C6D101DA964C91DA97DB963C91DB9713
:100FD0002696EEADFFAD269721912696FFAFEEAF98
:100FE0002697842F932F820F911D820F911DFC0154
:100FF000E355FF4F8081918118161906B4F68FEFE3
:10100000DC968C93DC97DD968C93DD97DF968C9342
:10101000DF97DE968C932081318138AB2FA7B90101
:10102000330F880B990B0E94AD332B966CAF7DAFBD
:101030008EAF9FAF2B972DEC3CEC4CE45EE30E940F
:101040000C340E94303665967FAF6EAF65978FA5E2
:1010500098A997FD0196AC015595479567965FAFA6
:101060004EAF6797BE01695E7F4F22967FAF6EAF2E
:1010700022971FAE8FEF9FEF98AF8FAB1EAEDE01B2
:101080005F96BAA7A9A74E01B7E28B0E911C2296D4
:10109000EEADFFAD2297D1902296FFAFEEAF229733
:1010A000D101DA963C91DA97DB962C91832F922F1F
:1010B0008D0D911D8D0D911DFC01E355FF4F00819C
:1010C0001181780117FF04C0EE24FF24E01AF10A11
:1010D00067968EAD9FAD67978E199F0997FF03C0E6
:1010E0009195819591096596EEADFFAD6597E817ED
:1010F000F907E4F42DEC3CEC4CEC5EE32B966CAD84
:101100007DAD8EAD9FAD2B970E940C340E94303682
:101110008FA598A98E199F0997FF03C09195819576
:101120009109681779070CF028C718C01016110626
:1011300014F00C943D11D101DE96DC92FEADFF5F00
:10114000FEAF2FA938AD200F311F38AF2FABD10123
:10115000DC968C91DC978F3F09F0D1C321968FAD3F
:1011600021976896EFAD68978E1BFBAD8F1708F43B
:101170008ECF1BCFD5018C91882379F0F50180812A
:1011800081110DC15394D801DA96CD90DC90DB9794
:10119000F6018089581670F3BAC2E52CF12CB7011C
:1011A000C60182960E942F14F601E855FF4F8081F8
:1011B00090E0F80124AD022E000C330B8217930748
:1011C00039F025AD022E000C330B82179307B1F6D0
:1011D000D801DA96CD90DC90DB97B701C6018296F4
:1011E0000E942F14F601E855FF4F8080F80195AC5E
:1011F00081E0891001C080E08093A602D801DA96D0
:10120000CD90DC90DB97B70161507109C6018296E1
:101210000E942F14F601E855FF4F8081F5014082AE
:10122000D801DA96ED91FC91DB97518A552009F4AB
:10123000B0C090E0891026C0DF962C91DF97022E77
:10124000000C330B8217930709F43FC0DA962D91F7
:101250003C91DB97FC01EE0FFF1FE20FF31FE355FC
:10126000FF4FDC968C91A82FAA0FBB0BA20FB31FC8
:10127000A355BF4F208131818D919C91281739074B
:1012800024F129C0F80126AD022E000C330B821781
:101290009307D9F022AD33ADFC01EE0FFF1FE20F33
:1012A000F31FE355FF4FD801DD968C91A82FAA0FAD
:1012B000BB0B2A0F3B1FD901A355BF4F20813181A2
:1012C0008D919C918217930734F481E0891080E01E
:1012D0008093A60208C0D801DA96ED91FC91DB97C5
:1012E00081898F5F818B6091A602C8010E946D1475
:1012F000FF24FA94F50CB1E0BF1508F043C0F801E3
:1013000082AC93ACCF2CD12CB601C40182960E9442
:101310002F14F401E855FF4F808190E0D801DF964B
:101320002C91DF97022E000C330B8217930741F0AC
:10133000DE962C91022E000C330B8217930711F5C9
:10134000F80182AC93ACB60161507109C401829678
:101350000E942F14F401E855FF4F808190E0D801DE
:10136000DF962C91022E000C330B8217930709F4A1
:10137000A1C6F80126AD022E000C330B821793078D
:1013800009F498C6D801DA96ED91FC91DB97518863
:10139000F5CE81E0891080E08093A602EFCED801DF
:1013A000DA96CD90DC90DB97E52CF12CB701C601E5
:1013B00082960E942F14F601E855FF4FC080D12C71
:1013C000F80184AD082E000C990B82AC93ACC816C2
:1013D000D90609F4F5C685AD082E000C990BC81680
:1013E000D90609F4EDC6B7016F5F7F4FC40182963D
:1013F0000E942F14F401E855FF4F20818091A6022E
:10140000811119C0D801DA96ED91FC91DB978089A2
:1014100090E00297E816F9067CF5DF968C91DF974D
:10142000082E000C990B8C159D0531F5422F50E0CC
:10143000DE968C911AC08130F9F4D801DA96ED91DC
:10144000FC91DB97808990E00297E816F906A4F4F6
:10145000DE968C91DE97082E000C990B8C159D055D
:1014600059F4422F50E0DF968C91082E000C990B16
:101470004817590709F43FC1F3018081082E000C79
:10148000990BD801D3964D915C91D4974817590781
:1014900064F4F1011082D5011C92F801108212AAA5
:1014A00014AA13AA27E027AB26C1D801DA96ED913A
:1014B000FC91DB97528ADA96AD90BC90DB97BDEF3A
:1014C0005B1213C0F501808990E00197E816F906D8
:1014D00061F4E054FF4F81E0808384E090E0D50127
:1014E00059969C938E93589775C0D801DC96EC91D1
:1014F000DC97EE0FFF0BEA0DFB1DE355FF4F40811C
:101500005181F601EE0FFF1FEA0DFB1DE355FF4F62
:1015100060817181F501808964177507E4F4682F93
:1015200070E061507109E616F706ACF4E22FF0E0C6
:10153000DD966C91DD97062E000C770BE617F7070A
:1015400009F476C6DE966C91062E000C770BE61732
:10155000F70709F46DC690E00297E816F906D4F58E
:10156000D801DF968C91DF97082E000C990BC816D6
:10157000D90641F0DE968C91082E000C990BC81606
:10158000D90641F5C501820F911D820F911DFC0105
:10159000E355FF4F8081918184179507DCF4B701F3
:1015A0006E5F7F4FC50182960E942F14F501E855AA
:1015B000FF4F808190E0F80124AD022E000C330B28
:1015C0008217930709F00AC681E0850D51102FC6D6
:1015D00055245394652DD801DA968D919C91DB9713
:1015E0000E94011AD801DA96ED91FC91DB97E05444
:1015F000FF4F8081811127C6F3018081082E000CE6
:10160000990BD3962D913C91D497281739070CF458
:101610001AC682E00E941F246FEF71E08FE193E011
:101620000E94371BA0912D03B0912E03DD96EC9103
:10163000DD97EE0FFF0BE453FC4F81818F93808188
:101640008F93DC96EC91EE0FFF0BE453FC4F8181FE
:101650008F9380818F9382E092E09F938F939E017E
:101660002F5F3F4F79013F932F930E94B536B7010B
:101670008FE193E00E94371BA0912D03B0912E03C0
:10168000DE96EC91DE97EE0FFF0BE453FC4F818169
:101690008F9380818F93DF96EC91EE0FFF0BE453D5
:1016A000FC4F81818F9380818F938FE092E09F9395
:1016B0008F93FF92EF920E94B536B7018FE193E0CE
:1016C0000E94371B6EED71E08FE193E00E94371BA3
:1016D00000912D0310912E030FB6F894DEBF0FBEBC
:1016E000CDBF712CBE01695E7F4F5B0177E4872E11
:1016F00072E0972E5AC05394D5018C91882309F437
:1017000041CD6091A602C8010E946D143BCDF60147
:10171000528AA8014E5B5F4FD801D3962D913C9120
:10172000D497BEEF5B1220C0FA01808187FD8F5FE6
:101730008595082E000C990BD801DA96ED91FC9155
:10174000DB978217930754F4DF01A054BF4F81E069
:101750008C9384E090E0918F808F75C5CF01805489
:101760009F4FDC011C92148AFA018081082E000C24
:10177000990B4BCF721630F5F801EC0DFD1D8081F1
:101780001F928F939F928F92BF92AF920E94B53615
:10179000B501F80182AD93AD0E94371B73940F9091
:1017A0000F900F900F900F900F90C72CD12CD80155
:1017B000D2968C91D29790E0D8962C91C816D906E3
:1017C000CCF202C080E0DCCF721628F4F801EC0DF8
:1017D000FD1D808101C080E082958F701F928F93E4
:1017E0008DE192E09F938F93BF92AF920E94B536A6
:1017F000D801D3962D913C91D497C90168E070E04F
:101800000E9483350F900F900F900F900F900F90C4
:10181000059724F427703327232BE1F4F80180ADDA
:10182000781620F4EC0DFD1D808101C080E08F70E2
:101830001F928F938DE192E09F938F93CE014896F4
:101840009F938F930E94B5360F900F900F900F903B
:101850000F900F90B501D801DA968D919C91DB978E
:101860000E94371BE0912D03F0912E0384A98F93E2
:1018700083A98F93E05CFF4F81818F9380818F9349
:1018800082E292E09F938F93FF92EF920E94B5368F
:10189000182FB7018FE193E00E94371B82EE93E08F
:1018A0000E94261B0FB6F894DEBF0FBECDBF882363
:1018B00011F01DA718C08091E1031F928F9382EF52
:1018C00091E09F938F93FF92EF920E94B5368DA780
:1018D000B7018FE193E00E94371B0F900F900F909C
:1018E0000F900F900F9083E00E941F248AE00E94C7
:1018F0001F241092DF0381E0809332036AC1DF96D8
:101900008C91DF978F3F09F429CCDD968C91DD9780
:101910008F3F09F423CCDE968C918F3F09F41ECCC7
:1019200061962CAD3DAD4EAD5FAD61972BA33CA351
:101930004DA35EA32F8F38A349A35AA341E050E0E3
:1019400024965FAF4EAF2497A12CB12C1FEFD1018D
:10195000DA96ED90FC90DB97F701808990E0A8166D
:10196000B9060CF0FBCBB501C70182960E942F147B
:10197000F701E855FF4F0081802F90E0D101DC9600
:101980002C91DC97022E000C330B8217930709F47D
:10199000FBC2DD962C91022E000C330B82179307AD
:1019A00009F4F2C2D101DF962C91022E000C330B08
:1019B0008217930709F4E8C2F10126AD022E000C4C
:1019C000330B8217930709F4DFC2D101DA96ED9148
:1019D000FC91DB9781899501281B31096396AEAD97
:1019E000BFAD63978C91082E000C990B821793075B
:1019F0000CF00DC3A28AF10182AD93ADDC015296C9
:101A00004C91529751966C910E94D514D101DA965F
:101A1000ED91FC91DB97DE96BC91B9ABD101DD96DF
:101A2000BC91BBABD101DF960C91DF97DC96BC91EA
:101A3000BDABDF0129A9A20FB11D27FDBA951696EE
:101A40008C91DF013BA9A30FB11D37FDBA95169606
:101A5000CC90D12CC80ED11CDF01A00FB11D07FD09
:101A6000BA9516968C91C81AD108DF014DA9A40F1A
:101A7000B11D47FDBA9516968C91ACADBDAD1C92CB
:101A8000C81AD108D7FE03C0D194C194D1080D2C37
:101A9000000CEE08FF088089E82FF0E02D96FFAFDC
:101AA000EEAF2D97BF01FF0F880B990B0E94AD334E
:101AB0002AE037ED43E25DE30E940C342B013C0148
:101AC00020E030E0A9010E94663620E030E040E0EE
:101AD0005FE387FD66C2C301B2010E94C4350E9464
:101AE00030366C157D058E059F050CF437CBFEADA9
:101AF0002FADF21333CB3BA94DA9341709F42ECBEC
:101B000059A9501709F42ACB041709F427CB531706
:101B100009F424CB541709F421CB301709F41ECB58
:101B2000DE015F96FE01B39681919D9189133EC2BD
:101B30008E169F06C9F78DA979A96AE0769F800D58
:101B40001124ABA99AE0A99F000D11248A3008F452
:101B50008C590A3008F40C59AE01415E5F4FFE010A
:101B6000B3966F01E82EF12C602F70E0D6018D91B5
:101B70006D01082E000C990B8E159F0509F0ADC361
:101B8000CE014F96FE01B3962191022E000C330B2D
:101B90002617370709F0AAC3E815F90509F0B6C3F7
:101BA00080E0C814D90409F407C24F5F5F4F811168
:101BB000DDCFF101E05CFF4F8FA998AD66E070E0EA
:101BC0000E948335718360832796FFAD2797F111BB
:101BD00003C980912003882309F474C18091DF0335
:101BE000811170C18091370390913803019709F0FA
:101BF00069C1809132038111A4C180912F03883281
:101C000008F464C182E00E941F248091230388238A
:101C100009F491C06EE272E08FE193E00E94371BFD
:101C20008BE30E941F2440E060E08FE193E00E947C
:101C3000D514F12C8091DC03F81688F58F2D90E0F7
:101C4000FC01EE0FFF1FE453FC4F008111810115D1
:101C5000110519F1FC01E15EFC4F86818823E9F052
:101C60008F2D17FF05C0806A11950195110901C0DC
:101C70008068E02E07FD04C0F02FF068EF2E01C051
:101C800080610E941F248E2D0E941F24812F806856
:101C90000E941F248BE30E941F24F394CBCF8091DA
:101CA0002F0380FF08C062EE71E08FE193E00E9495
:101CB000371B10E011C062EC71E0F7CF8091C603D2
:101CC000181730F4E12FF0E0E15EFC4F22A12DA7C0
:101CD0008DA50E941F241F5F8091C003811770F79C
:101CE00080911F03282F082E000C330B3F938F93F6
:101CF00081E392E09F938F938E010F5F1F4F1F939D
:101D00000F930E94B536B8018FE193E00E94371B14
:101D100082EE93E00E94261B0F900F900F900F9081
:101D20000F900F908111B6C08091E1031F928F93A5
:101D30008EEC91E09EC067E372E08FE193E00E9439
:101D4000371B8BE30E941F2440E060E08FE193E0AB
:101D50000E94D51410E056EDE52E51E0F52EAE01AF
:101D60004F5F5F4F6A018091DC03181740F5812FA8
:101D700090E0FC01EE0FFF1FE453FC4F2081318106
:101D800021153105D1F0FC01E15EFC4F4681442371
:101D9000A1F03F932F939F931F93FF92EF92DF92B7
:101DA000CF920E94B536B6018FE193E00E94371BB7
:101DB0000FB6F894DEBF0FBECDBF1F5FD4CF6EED60
:101DC00071E08FE193E00E94371BF12C8E010F5FD1
:101DD0001F4F31EEC32E31E0D32E80912F03F81622
:101DE00008F56F2D70E081E493E00E942F1480913C
:101DF000C703282F082E000C330B3F938F93DF92DD
:101E0000CF921F930F930E94B536B8018FE193E0F4
:101E10000E94371BF3940F900F900F900F900F902C
:101E20000F90DBCF80911F03282F082E000C330B5F
:101E30003F938F938AE392E09F938F931F930F9327
:101E40000E94B536B8018FE193E00E94371B82EE05
:101E500093E00E94261B0F900F900F900F900F9011
:101E60000F90811117C08091E1031F928F9382EF31
:101E700091E09F938F931F930F930E94B536B80103
:101E80008FE193E00E94371B0F900F900F900F90FF
:101E90000F900F9080913403882349F068EF71E030
:101EA0008FE193E00E94371B8BE30E941F2483E0A5
:101EB0000E941F248AE00E941F241092330381E0B5
:101EC000809332038091320381113BC080913303B0
:101ED0008823D9F14091DC03ECECF3E080E090E062
:101EE00020EDE22E27E0F22E841710F010E00CC057
:101EF000219131911216130624F42E153F050CF48E
:101F00007C010196F1CF1F5F80912F031817C8F451
:101F100070EDE71677E0F706A1F0612F70E081E43D
:101F200093E00E942F148091C703082E000C990B98
:101F3000E816F90641F76FEF610F8FE193E00E9419
:101F4000011A809133038111E7C1109132038FE1AF
:101F500093E00E94501510933203DEC175010C947A
:101F60005B041093DE0382E090E09093380380934B
:101F70003703E09230030C948204101611060CF023
:101F800089C1F101D5AEDAC8D101DA96ED91FC91A3
:101F9000DB97808990E00197A816B90609F048C040
:101FA00014CDC301B2010E94C33599CD9F3F39F0D2
:101FB0008F3F09F0BDCD03C0882309F4FACD2D96DB
:101FC0002EAD3FAD2D972A193B096396EEADFFADBF
:101FD00063978081082E000C990B821793070CF0F1
:101FE000BDC81BA31F8F1CA318A31DA319A31EA349
:101FF0001AA35FEFA51AB50A24966EAD7FAD24979C
:102000006F5F7F4F24967FAF6EAF2497A0CCACADAF
:10201000BDAD1C926A96EEADFFAD6A9710821F8F20
:102020001BA318A31CA319A31DA31AA31EA3E1CFCE
:10203000ACADBDAD8C91811103C0A18AE1E0EC9300
:10204000D101DA96ED90FC90DB9724966EAD7FADD2
:102050002497C70182960E942F14F701E855FF4F7D
:102060008081BAE00B9F800D11248A3008F48C59CE
:10207000A0FC03C02BA59CA502C029A59AA5E22F10
:10208000F92F90E0482F50E06081262F062E000C9B
:10209000330B2417350719F06F3F19F48083292F6C
:1020A00001C02FEF9F5F943009F4A3CF31962F3FEB
:1020B00059F39FCFE090A602D801DA968D909C90BC
:1020C000DB97B1E0EB123AC0E2E0CE1AD108B601DC
:1020D000C40182960E942F14F401E855FF4F9081AD
:1020E000D801DF968C91DF97981709F464C0DA96CF
:1020F0008D909C90DB97B601C40182960E942F14AC
:10210000F401E855FF4FA081AA0FBB0B8A0E9B1E5E
:10211000D401A355BF4FF80182AD93AD24ADE22F9A
:10212000EE0FFF0BE80FF91FE355FF4F2D913C9188
:102130008081918128173907F4F13AC0E11038C045
:10214000F2E0CF1AD108B601C40182960E942F1482
:10215000F401E855FF4F9081D801DE968C91DE970F
:10216000981749F1DA968D909C90DB97B601C401DF
:1021700082960E942F14F401E855FF4FA081AA0F08
:10218000BB0B8A0E9B1ED401A355BF4FF80182AD35
:1021900093AD25ADE22FEE0FFF0BE80FF91FE355CE
:1021A000FF4F2D913C9180819181821793071CF004
:1021B000FA94FA94A0C86E2DC8010E946D14F8CF4D
:1021C000F401808990E00197E816F9060CF00BC93C
:1021D0008091A60284258093A6028ECA25AD022E88
:1021E000000C330B8217930709F4EEC9C2ACD3ACD1
:1021F000B7016D5F7F4FC60182960E942F14F601D2
:10220000E855FF4F808190E0F80127AD022E000CC9
:10221000330B8217930709F4D7C9F80126AD022EB4
:10222000000C330B8217930709F0D4C9CDC9582E7F
:102230005394D801DA96ED91FC91DB9784E090E01D
:10224000918F808FC7C98091DF03882309F4C1CCA7
:102250008091330381114FCB109241031092C00340
:102260001092C2031092C10387E08093C5031092BD
:102270002F0381E080933303ACCCF101D7AE3FADA7
:102280003F5F3FAF4FA958AD401B510B58AF4FAB0D
:102290000C94A708D101DC96DC92F1CF0E942F1498
:1022A0009091C7038091DE0398130C94AD04609164
:1022B000310370E081E493E00E942F149091C703F2
:1022C00080911F0398130C94AD04809131038150C9
:1022D0008093310311E00C94B404FA018081082E3C
:1022E000000C990BE816F90651F44ACCDC012C914C
:1022F000022E000C330B6217730719F44DCC81E0EA
:1023000050CCE815F905D9F301963ECCC814D90490
:1023100009F44FCC80E049CCC75ADF4F0FB6F89490
:10232000DEBF0FBECDBFDF91CF911F910F91FF9008
:10233000EF90DF90CF90BF90AF909F908F907F9065
:102340006F905F904F903F902F90089580E0089598
:10235000CF92DF92EF92FF920F931F93F8940E9417
:10236000762300911B0310911C0320911D033091D3
:102370001E036B017C01C01AD10AE20AF30A97011D
:10238000860160931B0370931C0380931D0390933D
:102390001E030A3511052105310578F181E0C816C3
:1023A0008DE7D806E104F10410F4960102C021E0A3
:1023B0003DE7669B03C03195219531098091EF037C
:1023C0008A35D8F48091EF038F5F8093EF0380917B
:1023D000F0036091EE030E9463359093F003E09167
:1023E000F003F0E0EE0FFF1FEE50FC4F318320832F
:1023F0008091F0038F5F8093F00378941F910F9189
:10240000FF90EF90DF90CF9008958F929F92AF92C0
:10241000BF92CF92DF92EF92FF928FB7F894C09065
:10242000B602D090B702E090B802F090B9028FBF28
:102430008091A9029091AA02A091AB02B091AC0246
:10244000C816D906EA06FB0648F48091A7029091C7
:10245000A80201969093A8028093A702C092A902B5
:10246000D092AA02E092AB02F092AC02A091A70235
:10247000B091A80227E339E841E450E00E94123508
:102480004B015C01C701B60128EE33E040E050E0AB
:102490000E94F034C501B401620F731F841F951FA1
:1024A000FF90EF90DF90CF90BF90AF909F908F9074
:1024B0000895CF93C82F803120F480E090E00E94EF
:1024C00046226C2F70E080E090E040E1CF910C94C8
:1024D0000022CF93DF93C2E0D0E0FE01E858FD4F29
:1024E0006491CE010E94C1212196CB32D105A9F77A
:1024F000C0E3D0E0C13321F464E881E390E002C09E
:1025000060E0CE010E94C1212196C833D10591F728
:1025100086E692E0DF91CF910C94D5228EBD0DB46A
:1025200007FEFDCF8EB50895CF93DF932C981B9BAC
:102530000EC061E070E080E090E00E949B238091FB
:102540000F01882399F0815080930F01F0CF8EE71F
:102550000E948E12C0E3D0E0CE010E94C3210E94EF
:102560008E122196C833D105B9F72C9ADF91CF91FD
:102570000895CF93DF93D82FC62F2C981B9B0EC0A6
:1025800061E070E080E090E00E949B2380910E016A
:10259000882359F0815080930E01F0CF8D2F0E9437
:1025A0008E128C2F0E948E122C9ADF91CF9108955B
:1025B0000F931F93CF93DF9300D000D000D0CDB7FF
:1025C000DEB7182F8EEF810F8E3330F5062F0E9465
:1025D000B912143151F4802F807790E024E0959562
:1025E00087952A95E1F780930A011F920F931F9216
:1025F0001F9382E492E09F938F938E010F5F1F4F92
:102600001F930F930E94B536C8010E94D7210FB6C1
:10261000F894DEBF0FBECDBF26960FB6F894DEBF8E
:102620000FBECDBFDF91CF911F910F910895CF9332
:10263000DF93D82FC62F2C981B9B0EC061E070E053
:1026400080E090E00E949B2380910D01882361F03F
:10265000815080930D01F0CF8D2F8C2B0E948E1214
:1026600080E00E948E122C9ADF91CF91089560E84D
:1026700088E00E941713823339F460E880E00E94FA
:10268000171391E08D3009F090E0892F0895809123
:102690000801813011F084E301C084EF60EC0C94F8
:1026A00017132C989FEF20E130E01B9B07C0F90126
:1026B0003197F1F79150C9F72C9A04C00E948E12FD
:1026C0002C9A91E0892F0895CF93C82F2C981B9BAB
:1026D00010C061E070E080E090E00E949B23809158
:1026E0000C01811102C080E01AC0815080930C015E
:1026F000EECF8C2F0E948E12C82F1B9B0EC061E064
:1027000070E080E090E00E949B2380910B01882381
:1027100051F3815080930B01F0CF2C9A8C2FCF91E5
:10272000089586E30E94641361E070E080E090E029
:102730000C949B23EE988CE89BE190931E01809370
:102740001D018091530281110E9491131092EF0399
:102750001092F1031092F0030895CF930E94911309
:10276000CFEF84E30E946413C1508077803141F041
:1027700061E070E080E090E00E949B23C111F1CF06
:102780002598CF91089588EA91E190931E01809356
:102790001D0180916A008F7C806180936A00EE9AAF
:1027A0008091530281110C94AD130895CF93DF9360
:1027B0002C9A88E390E0FC013197F1F72C9801976F
:1027C000F1F72C9A86E590E00197F1F780E30E94FB
:1027D00064136AE070E080E090E00E949B232C98F4
:1027E0001B9B0EC061E070E080E090E00E949B23A4
:1027F00080911001882381F1815080931001F0CFE6
:1028000080E40E948E12C2E0D0E0CE010E94C3217B
:102810000E948E122196CB32D105B9F72C9A80E115
:1028200090E00197F1F784E190E00E94C321807766
:1028300090E024E0959587952A95E1F780930A0129
:102840000E94941261E070E080E090E00E949B237F
:10285000DF91CF910C94AD13DF91CF910895CF9379
:10286000DF93FC01EE57FF4F4081469FD001479F09
:10287000B00D1124FD0123E0F695E7952A95E1F7C7
:10288000EC01CB57DF4F288130E0E217F3070CF55E
:102890002297288130E0A770BB2702C03595279585
:1028A000AA95E2F7E80FF91F3081232330E058E0C2
:1028B000541B469F402D11244770541B02C0359570
:1028C00027955A95E2F7FC01EA57FF4F2083822FA4
:1028D00001C08FEFDF91CF910895FC0187A9873068
:1028E000A9F423A934A91216130684F492A9492F36
:1028F00050E020AD30E021503109421753078CF5EC
:102900009F5F92ABDF01A90FB11D1C9295A9492FC2
:1029100050E0282F30E02F5F3F4F241B350B12165D
:10292000130624F401C0660F2A95EAF722A9DF01F5
:10293000A20FB11D2C91622B6C9323A934A92F5F98
:102940003F4F34AB23AB282F082E000C330B241B36
:10295000350B37FD02C0891B01C087E087AB81E0E2
:10296000089580E00895CF93DF93DC01CD91DC9151
:1029700011971296ED91FC91139714962D913C911D
:102980001597C9019595879520FF0AC0DE01A80F0C
:10299000B91F2D913C91E20FF31F0190F081E02DC2
:1029A0008C0F9D1FDF91CF9109940F931F93CF93AD
:1029B000DF93DC0150968C915097882309F46BC00B
:1029C000FD0136969D01225F3F4F11922E173F0762
:1029D000E1F7411101C0482F262F30E035952795AA
:1029E000E42FF0E0F595E79560FF17C0ED01C955BC
:1029F000DF4F8881281728F4ED01C20FD31F9AA159
:102A000001C090E0892F8F70ED01C80FD11D8E811C
:102A10008F5F8E832F5F3F4F01C090E08D0109557E
:102A20001F4F622F70E06E177F07F0F4E801888176
:102A3000281720F4ED01C60FD71F9AA1C92FD0E0A7
:102A400034E0D595C7953A95E1F7CA0FDB1F8E8123
:102A50008F5F8E83892F8F70ED01C80FD11D8E81FE
:102A60008F5F8E832F5FDDCF40FF15C0ED01C9550D
:102A7000DF4F8881E81718F4EA0FFB1F92A1E92FB6
:102A8000F0E084E0F595E7958A95E1F7EA0FFB1F02
:102A900086818F5F8683DF91CF911F910F9108957B
:102AA000CF93DF93FC01DC01A354BF4F1C9211961E
:102AB0001C9212A25D971C92119611961C921E9266
:102AC000149687E08C93108A118E108E59968FEF92
:102AD0008C938083EF01C355DF4FA95BB109CF0110
:102AE0000E96199219921D92A817B907D1F7138A59
:102AF00086E990E0978B868BDF01A755BF4F40E0BA
:102B000050E060E87EE34D935D936D937C93139763
:102B1000118A148A158A57961C92128A11A210A241
:102B200083E08583DF91CF9108952F923F924F925A
:102B30005F926F927F928F929F92AF92BF92CF924D
:102B4000DF92EF92FF920F931F93CF93DF93CDB756
:102B5000DEB7CF59D1400FB6F894DEBF0FBECDBF60
:102B60000E949A13CF5FDE4F19821882C150D14064
:102B700081E0C85EDE4F8883C851D140C75EDE4F1A
:102B800019821882C951D140C05DDE4F8883C0537D
:102B9000D140CF5CDE4F19821882C153D140C85B4F
:102BA000DE4F8883C854D140C75BDE4F198218823C
:102BB000C954D140C05ADE4F8883C056D140CF5946
:102BC000DE4F19821882C156D140C858DE4F888323
:102BD000C857D1409E012F5F3F4F790180E091E0BF
:102BE000D901FC011D923197E9F7CE57DE4F3983A9
:102BF0002883C258D14066246A9404E512E0222456
:102C00002A94C557DE4F1882CB58D140F1E0C05707
:102C1000DE4FF883C059D14088E1782E4E0193945D
:102C200092E0492ED8018C918335C9F511968C918B
:102C3000833459F42394E1E0F1E0EC0FFD1F729C22
:102C4000E00DF11D112412821AC08D3461F4239419
:102C5000E1E0F1E0EC0FFD1F729CE00DF11D11248D
:102C6000B1E0B28311C0823579F42394E1E0F1E060
:102C7000EC0FFD1F729CE00DF11D11244282C05724
:102C8000DE4F1882C059D1402110FAC043E050E015
:102C900064E572E08BEC92E00E94C71C2DC0803589
:102CA000A1F5F80182818D3309F0EAC08181B0ED90
:102CB000DB2ED80EF7E0FD1508F4E2C04AE050E044
:102CC000BE016E577E4FC80103960E94DC2E2CE099
:102CD000229DF0011124ED0DF11DEE0FFF1FA1E06B
:102CE000B1E0AC0FBD1FEA0FFB1F70876783211097
:102CF000C7C0C8010E947422CE57DE4FF982E88215
:102D0000C258D14000E010E0BBC08235C1F4F801E8
:102D100081818D3309F0B4C04AE050E0BE016E57A6
:102D20007E4FC80102960E94F22FE1E0F1E0EC0F25
:102D3000FD1F729CE00DF11D1124678BD8CF8434E8
:102D400051F5D80111968C918D3309F099C0CC249E
:102D5000C394DC2CCC0EDD1E729CC00CD11C112443
:102D6000C8010296F60194838383A401401B510B92
:102D70004D5F5F4F6BE370E001960E947C36CE574B
:102D8000DE4F99838883C258D140D60116969C9312
:102D90008E93159775C08334C9F4F80181818D3302
:102DA00009F06EC04AE050E0BE016E577E4FC80188
:102DB00002960E94F22FE1E0F1E0EC0FFD1F729C01
:102DC000E00DF11D1124718360835AC0863409F02F
:102DD00057C0D80111968C918D3309F051C0CE5750
:102DE000DE4F28813981C258D140201B310BC901E7
:102DF000019797FDC90195958795C557DE4F888343
:102E0000CB58D14081508530D8F58091530288232A
:102E1000B9F1CF57DE4F1882C158D1405E01B7E8F3
:102E2000AB1ABEEFBB0A6801E2E0CE0ED11C312C1A
:102E30003DE0532E530C60E8852D0E941713D501F9
:102E40008D935D01F601819191916F01C158DE4F23
:102E500099838883CF57D14040E150E060E070E033
:102E6000CE0181589E4F0E94DC2E852D0E94B91202
:102E70003394C557DE4FF881CB58D1403F16C0F28E
:102E8000CE57DE4F88819981C258D1400817190763
:102E900009F463C0E816F90639F00196CE57DE4F03
:102EA00099838883C258D140CE57DE4F088119815B
:102EB000C258D140B12CCE57DE4FC880D980C258FD
:102EC000D140CB0CD11CCE57DE4FD982C882C2581C
:102ED000D1400E94E32297FD0DC0D6018C936B1860
:102EE000CE57DE4FE881F981C258D14080818B33C3
:102EF00041F40FC084EB92E00E94E5218CEA92E05D
:102F00001AC08A3009F45FC2662029F0BB24B3944A
:102F1000D2CF61101DC084E592E00197F1F78E01D8
:102F200013950E94E32297FF09C084EB92E00E9470
:102F3000E52183EA92E00E94D52249C28A309105B8
:102F4000A1F3F70181937F01E017F10751F7EDCF6E
:102F500011820115110509F065CE80915302882375
:102F6000A9F08BE30E945113882381F00E949113F2
:102F70001EEF1F3F51F085E30E9464130FEF010F16
:102F80008077803209F017C21111259ACD5FDE4F8C
:102F90008881C350D140811113C0C85EDE4FF881D3
:102FA000C851D140C657DE4FF883CA58D140F111FD
:102FB0000DC021E0C657DE4F2883CA58D14006C055
:102FC00031E0C657DE4F3883CA58D140CF56DE4F66
:102FD0001882C159D140312CA8E1A39DC001112410
:102FE000E1E0F1E0EC0FFD1FE80FF91F2281223034
:102FF00009F08AC0CC57DE4F1882C458D1409F01D7
:10300000295E3F4FCA57DE4F39832883C658D140C7
:103010000796A1E0B1E0AC0FBD1FA80FB91FC857BC
:10302000DE4FB983A883C858D14022513109C45713
:10303000DE4F39832883CC58D1408F010D5F1F4F5D
:10304000CA57DE4FA881B981C658D1408C91CC5760
:10305000DE4FB881C458D140B81708F04FC1C457EB
:10306000DE4FE881F981CC58D14080809180D80131
:10307000CC901196DC900E9476232B013C017601C6
:10308000F701E814F90468F5BFEFEB1AFB0A808139
:103090008053C857DE4FE881F981C858D140E80F06
:1030A000F11DE80FF11DA080B1806501B7FE04C0DD
:1030B000CC24DD24CA18DB080E947623641575052C
:1030C00086059705C8F3B7FE02C02D9801C02D9A5A
:1030D000C601DD0CAA0BBB0B480E591E6A1E7B1ED7
:1030E000CFCF0E9476236415750586059705C8F332
:1030F000CC57DE4FE881C458D140EF5FCC57DE4F4C
:10310000E883C458D1409CCF213009F0F7C0C8579C
:10311000DE4F1882C858D1406F019F01295E3F4F92
:10312000C456DE4F39832883CC59D140CF01059650
:10313000C256DE4F99838883CE59D140DF01139662
:10314000CE56DE4FB983A883C259D140C456DE4F54
:10315000E881F981CC59D1408081C857DE4FF88190
:10316000C858D140F81708F0C9C0D6010D911C917C
:10317000C256DE4FE881F981CE59D1400190F081ED
:10318000E02DCC56DE4FF983E883C459D140CE56AA
:10319000DE4FA881B981C259D140EC901196FC90C4
:1031A0000E9476234B015C01CC57DE4FE882C45865
:1031B000D140CB57DE4FF882C558D140C801110F1E
:1031C000AA0BBB0BC457DE4F88839983AA83BB83AA
:1031D000CC58D140880F991FAA1FBB1FCA56DE4F7B
:1031E00088839983AA83BB83C659D140CC56DE4FCE
:1031F000A881B981C459D140CC57DE4FE881F9810B
:10320000C458D140EA17FB0708F06CC08191CC5735
:10321000DE4FF983E883C458D1408A3314F097E332
:1032200001C090E3891B24E030E0CA57DE4F3983A8
:103230002883C658D14008E0A82F880FBB0BC6567C
:10324000DE4FB983A883CA59D1402401350110E06B
:10325000E02EF12CC656DE4FE881F981CA59D140E3
:10326000EE22FF22111104C0E114F10421F405C083
:10327000E114F10411F42D9801C02D9AC457DE4FCA
:1032800088819981AA81BB81CC58D140480E591EB2
:103290006A1E7B1E0E9476236415750586059705B8
:1032A000C8F31F5F1230F1F6CA56DE4F888199814C
:1032B000AA81BB81C659D140880E991EAA1EBB1E89
:1032C0000695CA57DE4FA881B981C658D1401197DB
:1032D000CA57DE4FB983A883C658D140AB2B09F03B
:1032E000B4CF84CFC857DE4FB881C858D140BF5F34
:1032F000C857DE4FB883C858D14028CF2D98339493
:10330000231408F069CEC057DE4FE881C059D14080
:10331000EE2331F061E070E080E090E00E949B23BA
:10332000CF56DE4FF881C159D140FF5FCF56DE4FF7
:10333000F883C159D140C657DE4F2881CA58D140C1
:103340002F1349CEC557DE4F3881CB58D140332398
:10335000A9F07E0187E8E81A8EEFF80A10E0D7019D
:103360006D917D018DE0810F0E94B9121F5FC557DD
:10337000DE4FB881CB58D140B113F1CFCE010196C9
:103380000E947422E1E0F1E0EC0FFD1F28E1229E93
:10339000E00DF11D11248281833051F08FE193E023
:1033A0000E9450151092EF031092F1031092F00357
:1033B0000E94C3130CC061E070E080E090E00E94C6
:1033C0009B23102FD6CD662009F4A5CDC6CDC156BE
:1033D000DE4F0FB6F894DEBF0FBECDBFDF91CF91A9
:1033E0001F910F91FF90EF90DF90CF90BF90AF9023
:1033F0009F908F907F906F905F904F903F902F9015
:1034000008953F924F925F926F927F928F929F9218
:10341000AF92BF92CF92DF92EF92FF920F931F93E2
:10342000CF93DF93DC0154961C925497662309F4E2
:10343000FBC050962C915097222309F4F5C030E040
:10344000A62EB12CA216B3069CF0DF91CF911F914E
:103450000F91FF90EF90DF90CF90BF90AF909F9033
:103460008F907F906F905F904F903F900C9450158D
:103470008C010E551F4FF80120813181A216B30631
:1034800008F0D2C0EC017C01F2E2EF0EF11CFC016D
:10349000EF55FF4FC9010197A816B90641F41AA2CA
:1034A0001082D8011D921C9287E035967CC02D01B8
:1034B000B4EA4B0E511CD2014C91649F300111248F
:1034C00053E0769467945A95E1F7362C842E912C2C
:1034D00068E0C62ED12CC601B4010E948335C50117
:1034E0000E946F35009709F460C0489F802D112419
:1034F00068E0681B90812701462D43196916D8F4AE
:103500006E01C60CD11CD60193964C91939750E056
:10351000062E02C0559547950A94E2F79296CC90F4
:10352000082E01C0CC0C0A94EAF74C29D2014D9325
:103530002D016394E1CF20FD10C0BE01640F711D09
:10354000AE01460D511DDA0192969C9101C0990F72
:103550008A95EAF7DB0192969C932A193B09D801D8
:103560002D933C93829E6001839ED00C929ED00C42
:103570001124C60168E070E00E948335DE01AA557F
:10358000BF4F882321F097E0981B892F01C087E067
:103590008C93C6018819990997FD079623E09595A4
:1035A00087952A95E1F7808322C0408146194083A0
:1035B000772450E04F5F5F4FB701660D771DC7015D
:1035C0000E948936F201608170E0C6010E94833555
:1035D000669D9001679D300D769D300D1124D801B8
:1035E0008D919C911197821B930B8D939C9381E0FD
:1035F0008C8BF80160817181688B662399F0772745
:1036000061507109C7010E942F14FE01E855FF4F58
:103610008081880F990B83559F4F8C0F9D1F99A315
:1036200088A302C019A218A2DF91CF911F910F9118
:10363000FF90EF90DF90CF90BF90AF909F908F90D2
:103640007F906F905F904F903F900895FC01808134
:103650009181892B51F482819381892B31F484816A
:10366000958121E082278170089580E00895EF928E
:10367000FF920F931F93CF93DF9361157105E1F0D4
:103680008B01FB0101900020E9F731977F01E61AD9
:10369000F70AEC01C753DF4FCE010E94261B8111B0
:1036A0000BC04E2DB801CE01DF91CF911F910F912C
:1036B000FF90EF900C94B31480E090E0DF91CF91F5
:1036C0001F910F91FF90EF9008951F920F920FB6E8
:1036D0000F9211242F933F934F935F936F937F9398
:1036E0008F939F93AF93BF93EF93FF93E0914E021D
:1036F000F0914F020995FF91EF91BF91AF919F918A
:103700008F917F916F915F914F913F912F910F908A
:103710000FBE0F901F90189508954091B0025091E0
:10372000B1022091AE023091AF0242175307B4F4B8
:103730009091E8009570E1F39091E80092FD19C036
:103740008093F1008091B0029091B10201968F7345
:103750009927892B19F48EEF8093E8008091B002AD
:103760009091B10201969093B1028093B00281E0F2
:10377000089580E00895DF92EF92FF920F931F93D8
:10378000CF93DF93D82EF92EE42E062F10E0C80138
:103790000196880F0E948D1B83E00E948D1BCD2D0A
:1037A000DF2D0C0F1D1FC017D10789F0E7FE03C0E6
:1037B000FE01849101C088810E948D1BF82E80E05B
:1037C0000E948D1B8F2121968111EDCF01C081E0D8
:1037D000DF91CF911F910F91FF90EF90DF900895AF
:1037E000DF92EF92FF920F931F93CF93DF93D82E28
:1037F0008A017B01E40EF51EEB01CE15DF0571F0A9
:10380000D7FE03C0FE01849101C088810E948D1BF8
:1038100021968111F2CF8FEF9FEF01C0C801DF9198
:10382000CF911F910F91FF90EF90DF90089561501D
:1038300030F02091F100FC0120830196F8CF289A06
:1038400084E68093B4020895CF92DF92EF92FF92C4
:103850000F931F93CF93DF936C017A018B01C0E02C
:10386000D0E0CE15DF0581F0D8016D918D01D60134
:10387000ED91FC910190F081E02DC6010995892B15
:1038800011F02196EECF7E01C701DF91CF911F91FC
:103890000F91FF90EF90DF90CF900895CF93DF933B
:1038A0001F92CDB7DEB76983DC01ED91FC910280F8
:1038B000F381E02D41E050E0BE016F5F7F4F09953D
:1038C0000F90DF91CF91089583E08093E90080917C
:1038D000F200882319F08AE38093E8000895FC0140
:1038E0008485958597FD0BC09FB7F89482E08093FF
:1038F000E9008091F2009FBF90E0019608959FB784
:10390000F89482E08093E9008091F2009FBF90E0FC
:103910000895089580E090E00895FC01CB01642FA4
:103920000994FC0109940E946B360F931F93CF9367
:10393000DF931F92CDB7DEB782E0898342E450E087
:103940006EEB72E080E80E94F01B0E946223DC01B3
:1039500012960D911C9113970115110589F0D8014C
:10396000ED91FC910280F381E02DBE016F5F7F4FEE
:10397000C801099597FD04C0F80100851185ECCFB9
:1039800089810F90DF91CF911F910F9108958F92B0
:103990009F92AF92BF92CF92DF92EF92FF920F93DE
:1039A0001F93CF93DF936C017B018A018091070104
:1039B000882309F45CC08091B502882309F457C0BC
:1039C00080914C0280FF05C08091E000826080936E
:1039D000E000E801B12C8AEFA82E93E0892E2AE3BB
:1039E000922E209711F4BB20D9F10E94232381113C
:1039F0000AC0AA94AA20D9F161E070E080E090E0CA
:103A00000E949B23EECF282F30E0C217D3070CF47F
:103A10008C2F9FB7F8948092E9002091E80025FF51
:103A20001DC0282F30E0C21BD30BF701815020F0BE
:103A300041914093F100FACFE20EF31EBB2019F042
:103A40009092E8000AC08091E80085FD07C090923E
:103A5000E800BB24B394209709F0B12C9FBFC1CFDD
:103A60005D9A84E68093B3021016110644F081E05B
:103A700090E0F6019383828380E090E001C0C8016A
:103A8000DF91CF911F910F91FF90EF90DF90CF903A
:103A9000BF90AF909F908F9008950E94232390E055
:103AA00008950F931F93CF938C01C62F0E94232359
:103AB0008823E1F34C2F50E0B8018BEC92E0CF91DA
:103AC0001F910F910C94C71C0F931F93CF93DF93FB
:103AD0001F92CDB7DEB78C01FC018485958597FFD9
:103AE0000EC0CE0101960E943423019719F48981FA
:103AF00090E002C08FEF9FEFF80195878487F8016F
:103B0000848595850F90DF91CF911F910F91089536
:103B1000CF93DF931F92CDB7DEB7FC0184859585E7
:103B200097FD05C02FEF3FEF358724870BC0CE01EF
:103B300001960E943423019719F4898190E002C014
:103B40008FEF9FEF0F90DF91CF9108950F931F9309
:103B5000F8940E94762300911B0310911C0320917E
:103B60001D0330911E03AB01BC01401B510B620BC6
:103B7000730B22E02093520280E89EE3909351025F
:103B800080935002909387008093860082E1809317
:103B9000810041303DE753076105710588F1669961
:103BA00003C02FEF32E802C021E03DE78091EF0330
:103BB0008A35D8F48091EF038F5F8093EF03809173
:103BC000F0036091EE030E9463359093F003E0915F
:103BD000F003F0E0EE0FFF1FEE50FC4F3183208327
:103BE0008091F0038F5F8093F0030E9476236093AF
:103BF0001B0370931C0380931D0390931E0338C016
:103C0000413187E258076105710590F181E19DE737
:103C1000A0E0B0E0841B950BA60BB70B32E0880F39
:103C2000991FAA1FBB1F3A95D1F7009731E0A30750
:103C3000B10520F421E02093520209C020935202E2
:103C400023E0B695A795979587952A95D1F79093F8
:103C500051028093500280915002909151029093B2
:103C6000870080938600809152028061809381005A
:103C7000809162020E947622109262027894809172
:103C8000AD0291E0980F9093AD02811104C01F9195
:103C90000F910C9405121F910F9108951F920F928E
:103CA0000FB60F9211242F933F934F935F936F930F
:103CB0007F938F939F93AF93BF93EF93FF93E09185
:103CC0001D01F0911E010995FF91EF91BF91AF91F8
:103CD0009F918F917F916F915F914F913F912F9124
:103CE0000F900FBE0F901F9018951F920F920FB656
:103CF0000F9211242F933F934F935F936F937F9372
:103D00008F939F93AF93BF93EF93FF93E0911B012A
:103D1000F0911C010995FF91EF91BF91AF919F9197
:103D20008F917F916F915F914F913F912F910F9064
:103D30000FBE0F901F9018951F920F920FB60F9203
:103D400011242F933F934F935F936F937F938F93A0
:103D50009F93AF93BF93EF93FF93E0911901F0917D
:103D60001A010995FF91EF91BF91AF919F918F91AA
:103D70007F916F915F914F913F912F910F900FBE67
:103D80000F901F9018951F920F920FB60F9211244B
:103D90002F933F934F935F936F937F938F939F9353
:103DA000AF93BF93EF93FF93E0911701F091180148
:103DB0000995FF91EF91BF91AF919F918F917F9165
:103DC0006F915F914F913F912F910F900FBE0F9088
:103DD0001F9018951F920F920FB60F9211242F93D8
:103DE0003F934F935F936F937F938F939F93AF9383
:103DF000BF93EF93FF93E0911501F09116010995A0
:103E0000FF91EF91BF91AF919F918F917F916F91B2
:103E10005F914F913F912F910F900FBE0F901F9088
:103E200018951F920F920FB60F9211248F939F93A4
:103E30008091E1009091E100937F9093E10083FFF6
:103E40000FC01092E90091E09093EB001092EC000B
:103E500092E39093ED001092B50298E09093F000F9
:103E600082FF20C093E09093E9009091F2009923A3
:103E700019F09AE39093E8009091B302992339F0F6
:103E80009091B30291509093B302992389F190914C
:103E9000B402992339F09091B40291509093B402F6
:103EA000992341F184FF10C08091E2008E7E8160F1
:103EB0008093E2008091E1008F7E8093E100809109
:103EC0004C028E7E806111C080FF16C08091E2009E
:103ED0008E7E80618093E2008091E1008E7E8093EF
:103EE000E10080914C028E7E816080934C0204C080
:103EF0005D98CDCF2898D6CF9F918F910F900FBE10
:103F00000F901F9018951F920F920FB60F921124C9
:103F1000CF92DF92EF92FF920F931F932F933F93D5
:103F20004F935F936F937F938F939F93AF93BF93C1
:103F3000EF93FF93CF93DF93CDB7DEB76C97DEBFE0
:103F4000CDBF1092E9008091E80083FFFBC168E0DB
:103F5000CE0145960E94171C82EF8093E8008D8960
:103F600087FF05C09091E80090FFFCCF03C09EEF53
:103F70009093E800982F907609F0C6C09E894F89EB
:103F8000588D2F89F88C91110CC0803829F48091BC
:103F90004D028093F10002C01092F1001092F100E6
:103FA00045C1913051F4811141C14130510509F0B1
:103FB0003DC180914D028D7F0BC0933061F4811122
:103FC00035C14130510509F031C180914D02826007
:103FD00080934D022BC1953049F48091E80080FF19
:103FE000FCCF822F80688093E30020C1963009F0D7
:103FF0005EC00B8D1C8D22E01092E9001092B10280
:104000001092B002F21232C01092AF021092AE02C1
:104010000E94951C99E0BE016F5F7F4FDB01E92F85
:104020001D92EA95E9F79983FA8291E09E8390EADE
:1040300098879AEF99872091B0023091B102275F5B
:104040003F4F3C832B838D831092E9001092B10285
:104050001092B0021093AF020093AE0249E050E01C
:1040600080E00E94F01B0E94951CE0C01093AF02FC
:104070000093AE020E946223DC0112960D911C9106
:1040800013970115110509F4BBC0D801ED91FC91FE
:104090000480F581E02DBE016B5E7F4FC80109955C
:1040A000009709F0C7C0F80100851185EACF973065
:1040B00009F445C1983021F481E08093F100B6C045
:1040C000993009F0B3C0837009F039C1EAE2F1E038
:1040D00081E031E096E32081211109C08EE78093D1
:1040E000EA001092EA008F898093B5029FC0809306
:1040F000E9003093EB0021912093EC009093ED00C8
:104100008F5F873041F7EACF8B8D9C8D1092E9004D
:104110001092B1021092B0029093AF028093AE025F
:10412000898D811153C08E899D89913A49F48132DC
:1041300009F005C147E050E060E071E080E0BBC0FD
:10414000913209F0FCC0833269F48F89988DA0E028
:10415000B0E08093110190931201A0931301B093EA
:10416000140164C0803269F48091E80082FFFCCFC2
:1041700067E080E091E00E94171C8BEF8093E800DD
:1041800055C0823209F052C08F8980930701EEEF4B
:10419000FFE7859194918B3F9C4D19F0E0E0F8E0AA
:1041A00002C0EEEFFAE08091000190910101A09130
:1041B0000201B0910301803B9440A105B10509F0D3
:1041C0009EC08091070180FF79C099C00E94622340
:1041D000FC01028113810115110509F4B0C0D80159
:1041E000ED91FC910190F081E02DBE016B5E7F4F5F
:1041F000C801099581111AC0F80100851185EBCF1E
:10420000F1E0FF1609F44EC0F3E0FF1298C08F8969
:10421000882309F44AC0823089F440E86DE082E2E4
:1042200093E00E94BB1B882309F489C08EEF809322
:10423000E80088C018161906CCF381C0813029F433
:1042400040E86BE086E193E0ECCF833009F077C083
:104250000E946223DC011296ED90FC9013978E0170
:104260000F5F1F4F6801E114F10479F0D701ED9160
:10427000FC910680F781E02DB801C7010995080F70
:10428000111DF701E084F184EECFD8011C92F601F4
:1042900001900020E9F73197BF016C197D0940E0DA
:1042A000C601BFCF64E073E002C060E073E0FB01D1
:1042B000449150E080E80E94F01BB8CFEE3F2AE026
:1042C000F20751F0808191818737A7E79A0721F0A3
:1042D0009093FF0A8093FE0A87E797E79183808394
:1042E000809160008093B2029BE088E10FB6F89461
:1042F000A895809360000FBE9093600097CF808157
:1043000091818737974709F091CFA89580916000F8
:104310008861809360008091B20280936000EE3FDC
:10432000BAE0FB0739F08091FE0A9091FF0A918371
:1043300080837CCF1092FF0A1092FE0A77CF81E231
:104340008093EB006C960FB6F894DEBF0FBECDBF26
:10435000DF91CF91FF91EF91BF91AF919F918F919D
:104360007F916F915F914F913F912F911F910F918D
:10437000FF90EF90DF90CF900F900FBE0F901F90A7
:1043800018950C94D2340C94CA34009769F0FC014F
:1043900001900020E9F73197AF01481B590BBC0190
:1043A0008BEC92E00C94C71C80E090E00895CF93D2
:1043B000DF930E94C521EC0189E491E00E94C521B0
:1043C0008C0F9D1FDF91CF9108950F931F93CF9373
:1043D000DF938C01C0E0D0E0F801EC0FFD1F649189
:1043E000662341F08BEC92E00E944E1C892B11F069
:1043F0002196F2CFCE01DF91CF911F910F910895B9
:104400008F929F92AF92BF920F931F93CF93DF93A0
:10441000CDB7DEB7A1970FB6F894DEBF0FBECDBF04
:1044200019A2423008F44AE08E010F5D1F4F842E1E
:10443000912CA12CB12CA50194010E94F034E62FFF
:10444000B901CA0101501109EA3014F4E05D01C05C
:10445000E95CD801EC93232B242B252B61F7C801B1
:104460000E94C521A1960FB6F894DEBF0FBECDBF46
:10447000DF91CF911F910F91BF90AF909F908F9040
:104480000895682F8BEC92E00C944E1CCF92DF9233
:10449000EF92FF92CF93DF936C01990FEE08FF0824
:1044A000F7FE17C08DE20E944122EC0166277727B4
:1044B000CB016C197D098E099F094AE00E940022F8
:1044C0008C0F9D1FDF91CF91FF90EF90DF90CF90E9
:1044D00008954AE0C701B601DF91CF91FF90EF90B8
:1044E000DF90CF900C9400220C94C521E9E8F3E012
:1044F0004491EAE6F3E02491EBE4F3E0949199230C
:1045000009F452C04423E1F150E0FA013197EF3051
:10451000F105B0F5EA5AFF4F0C94B63530918000A2
:104520003F7707C0309180003F7D03C0309180000D
:10453000377F3093800024C034B53F7702C034B554
:104540003F7D34BD1DC0309190003F7707C0309152
:1045500090003F7D03C030919000377F30939000F2
:104560000FC03091C0003F7703C03091C0003F7D45
:104570003093C00005C03091C200377F3093C20035
:10458000E92FF0E0EE0FFF1FE05DFC4FA591B49125
:104590009FB7F894811104C08C912095282302C004
:1045A000EC912E2B2C939FBF0895CF93DF930E9405
:1045B000E521EC0189E491E00E94C5218C0F9D1F4B
:1045C000DF91CF9108952FB7F8948091B602909122
:1045D000B702A091B802B091B9022FBF8093D30265
:1045E0009093D402A093D502B093D6028BEC92E0C4
:1045F0000E94881D97FF26C02FB7F8948091B602BD
:104600009091B702A091B802B091B9022FBF40912A
:10461000D3025091D4026091D5027091D602841BCE
:10462000950BA60BB70B4091CF025091D002609131
:10463000D1027091D20284179507A607B707B0F28E
:104640008FEF9FEF08952FB7F89483E08093E900F0
:104650009091E800892F807295FF04C09091F2003C
:1046600080E4891B2FBF08952091B502211103C05A
:104670008FEF9FEF08955FB7F89422E02093E90051
:104680002091F20030E01216130614F421E030E01D
:10469000422FFC0184E6415038F0289A8093B402FE
:1046A0009091F1009193F7CF2115310521F0809180
:1046B000F200882319F05FBFC90108958BE680934B
:1046C000E800F9CF8091C30281110DC082E0809390
:1046D000BF0284E08093C0021092C2021092C10215
:1046E00081E08093C3028FEB92E008953FB7F89486
:1046F0008091BB029091BC02A091BD02B091BE021C
:1047000026B5A89B05C02F3F19F00196A11DB11D2C
:104710003FBFBA2FA92F982F8827820F911DA11D67
:10472000B11DBC01CD0143E0660F771F881F991FA3
:104730004A95D1F708958F929F92AF92BF92CF92F0
:10474000DF92EF92FF926B017C010E9476234B0176
:104750005C01C114D104E104F104F1F00E9476235C
:10476000DC01CB0188199909AA09BB09883E93404D
:10477000A105B10570F321E0C21AD108E108F108E2
:1047800088EE880E83E0981EA11CB11CC114D104D0
:10479000E104F10419F7DDCFFF90EF90DF90CF90A7
:1047A000BF90AF909F908F9008951F920F920FB679
:1047B0000F9211242F933F938F939F93AF93BF93A7
:1047C0008091B6029091B702A091B802B091B9025F
:1047D0003091BA0226E0230F2D3720F40296A11D56
:1047E000B11D05C029E8230F0396A11DB11D20931B
:1047F000BA028093B6029093B702A093B802B09326
:10480000B9028091BB029091BC02A091BD02B0910F
:10481000BE020196A11DB11D8093BB029093BC0204
:10482000A093BD02B093BE02BF91AF919F918F91B3
:104830003F912F910F900FBE0F901F901895CF931F
:10484000DF931F92CDB7DEB7898388EE93E00E9495
:10485000261B811109C041E0BE016F5F7F4F88EECA
:1048600093E00E94B31402C080E090E00F90DF91CB
:10487000CF910895CF93DF93CDB7DEB7AD970FB645
:10488000F894DEBF0FBECDBF789484B5826084BD3E
:1048900084B5816084BD85B5826085BD85B5816044
:1048A00085BD80916E00816080936E0010928100C2
:1048B000809181008260809381008091810081607D
:1048C000809381008091800081608093800080913E
:1048D000910082608093910080919100816080932B
:1048E0009100809190008160809390008091C10040
:1048F00084608093C1008091C10082608093C10078
:104900008091C10081608093C1008091C30081606B
:104910008093C3008091C00082608093C00080912A
:10492000C20081608093C20080917A00846080938D
:104930007A0080917A00826080937A0080917A0078
:104940008E7F80937A0080917A00806880937A00CD
:104950001092B50210924D0210924C028091D70035
:1049600081608093D70080EA8093D80089B58F7EDC
:1049700089BD89B5826089BD09B400FEFDCF61E0C3
:1049800070E080E090E00E949B238091D8008F7CB3
:1049900080618093D8008091E000807F8093E00068
:1049A0008091E1008E7E8093E1008DE08093E200B3
:1049B000559A209A5D9828988FEF9FEF9093D80290
:1049C0008093D702109107016AE070E080E090E0E8
:1049D0000E949B231123B1F36E983F9A219A229A49
:1049E0002398249A54985C9A80E58CBD2C9A299A35
:1049F0002A986E982598299A2A9880E090E00E943B
:104A0000C321833309F02AC681E090E00E94C321CC
:104A10008D3109F023C68FEF90E00E94C321982FBB
:104A200091709093220381FB992790F99093200332
:104A300082FB992790F99093210383FB882780F9C3
:104A4000809323030E94D61310910801113011F4B2
:104A500081EF01C081E360E80E941713112351F038
:104A60009FEF980F9E3F30F01092080160E881E3BD
:104A70000E941713815091E08E3F08F090E09093D0
:104A800053021E821D828E3F98F481E99CE19C8333
:104A90008B838B819C81AD81BE818093E403909355
:104AA000E503A093E603B093E70387E493E112C024
:104AB00081E99CE19C838B838B819C81AD81BE814C
:104AC0008093E4039093E503A093E603B093E70398
:104AD00086EA91E19093E3038093E203259A62E3EF
:104AE00070E080E090E00E949B2380E18093810051
:104AF0001092800082E08093520280E89EE39093BF
:104B0000510280935002909387008093860082E147
:104B10008093810086EA9DE190934F0280934E023C
:104B200081E080936F001E821D828DE89CE19C8352
:104B30008B838B819C81AD81BE818093EA039093AE
:104B4000EB03A093EC03B093ED0381E59DE190931B
:104B5000E9038093E80380915302882309F494C504
:104B60000E943713811190C580E991E0A0E0B0E088
:104B70008093CF029093D002A093D102B093D2023F
:104B80008E010F5F1F4F3E0129E0620E711C32E063
:104B9000832E912CA12CB12C8BEC92E00E946F1CE7
:104BA000892B09F405C3F09063023EE0F31209C0BB
:104BB0008EEE90E00E94E52184E592E00E94D721EC
:104BC000F0C28BEC92E00E94881DEF2DF0E0EC5AD1
:104BD000FD4F80838D3079F034F4882361F08A3082
:104BE00009F0E2C208C0833231F08B3309F0DCC235
:104BF0000E949515D6C280915402873509F41AC2D5
:104C00008CF4803509F483C034F48F33F9F08334A5
:104C100009F4CEC091C2823509F4A6C0863509F4E4
:104C20007FC08AC2823709F4ECC13CF4883509F4AC
:104C3000B2C0853609F4C2C17FC2843709F4A1C06D
:104C40000CF470C2883709F4C3C176C28FE30E94A6
:104C500041228DE492E00E94E52186E50E944122F6
:104C60008BE492E00E94E52182E50E9441228BE4E0
:104C700092E00E94E52184E70E9441228BE492E0C9
:104C80000E94E52188E50E9441228BE492E00E9487
:104C9000E52183E50E9441228BE492E00E94E52118
:104CA00080E50E9441228BE492E00E94E52183E4AA
:104CB0000E9441228BE492E00E94E52182E70E945B
:104CC00041228BE492E00E94E52187E50E94412287
:104CD0008BE492E00E94E52183E70E9441228BE46D
:104CE00092E00E94E52180915302882309F463C178
:104CF00088E70E9441228BE492E00E94E52185E64C
:104D00000E9441228BE492E00E94E52154C182E49A
:104D100091E00E94D72184EE93E00197F1F73EC223
:104D200089E292E00E94E521809153028823C9F034
:104D300081E292E00E94E52185E491E00E947422E4
:104D40004C9903C088E192E002C083E192E00E94A6
:104D5000E5218DE192E00E94E52187E491E00E9447
:104D600074228FEE91E000C68091A6049091A70472
:104D7000009711F48CEA94E0A801481B590BCA0172
:104D800064C00E9405124AE00E94002289E491E07A
:104D90000E94C52103C280915502813519F40E94F9
:104DA0009A13FCC1853409F0F9C10E94C313F6C1FE
:104DB00080915502873459F034F49CEB980F92306F
:104DC00008F446C09CC0833509F47BC098C08AE0D3
:104DD00091E00E94E52188E091E00E94E521809128
:104DE000220390E00E94462286E091E00E94E521A5
:104DF00083E091E00E94E52188E091E00E94E521B6
:104E00008091200390E00E94462286E091E00E947B
:104E1000E52180E091E00E94E52188E091E00E9498
:104E2000E5218091210390E00E94462286E091E0F6
:104E30000E94E5218CE491E00E94742288E091E0D8
:104E40000E94E5218091230390E00E9446229ECF9C
:104E500090915602923591F034F4933409F09EC14A
:104E6000E1E2F3E00DC0933531F0953509F096C1DC
:104E7000E0E2F3E005C0E2E2F3E002C0E3E2F3E0E7
:104E8000853419F481E0808301C0108220912003D1
:104E9000622F660F9091210354E0959F9001112499
:104EA000262B60912203262B9091230368E0969F86
:104EB000C0011124622F682B8FEF90E00E94C12166
:104EC0006DC161E571E086E592E00E949B36892B19
:104ED00009F464C14AE050E060E070E08CE592E0E3
:104EE0000E94DC2E6093E0037727882799274AE009
:104EF0000E9400228DE091E00E94E5214FC1082E22
:104F0000000C990B0E947036892B09F447C18091DF
:104F10005602082E000C990B0E947036892B09F45A
:104F20003DC180915302882309F438C140E150E02B
:104F300060E070E085E592E00E94DC2E562E8091C4
:104F400057028E3609F0B8C380915802082E000C23
:104F5000990B0E947036892B09F4AEC340E150E0F2
:104F600060E070E088E592E00E94DC2EBEE2B515BC
:104F700008F414C16E5FC62ED12CE52CF12C1F92C3
:104F80006F931F925F9288E591E09F938F931F9399
:104F90000F930E94B536C8010E9474220FB6F89490
:104FA000DEBF0FBECDBFCE0CDF1C852D90E08C1573
:104FB0009D050CF46CC38BE491E0C9C4809153024D
:104FC000882309F4EBC00E9469120E94D613E6C040
:104FD00080915502082E000C990B0E947036892B87
:104FE00009F4DCC080915602082E000C990B0E9437
:104FF0007036892B09F4D2C080915302811104C408
:10500000CDC080915502082E000C990B0E9470367D
:10501000892B09F4C3C080915602082E000C990B0D
:105020000E947036892B09F4B9C080915302811116
:1050300015C4B4C080915502833509F04DC09091DC
:105040005602933309F048C080915702082E000C95
:10505000990B0E947036892B09F4A0C040E150E002
:1050600060E070E086E592E00E94DC2EE62E3DE3F3
:10507000361708F493C0862F0E946413F82E61E05F
:1050800070E080E090E00E949B238DE30E94641317
:1050900090E0B4E095958795BA95E1F79F938F934B
:1050A0008F2D90E024E0959587952A95E1F79F93C1
:1050B0008F931F92EF9246E351E05F934F931F93BC
:1050C0000F930E94F030C8010E94D7210FB6F894C8
:1050D000DEBF0FBECDBF62C0082E000C990B0E9430
:1050E0007036892B09F45AC080915602082E000CA4
:1050F000990B0E947036892B09F450C08091570299
:10510000082E000C990B0E947036892B09F446C0BA
:1051100080915802082E000C990B0E947036892B42
:1051200081F43CC080915302882309F40EC40E948C
:10513000371381110AC40EC484E691E00E94D5227F
:1051400030C01B8280915502909156029A838983C8
:1051500040E150E060E070E0C8010E94DC2EF62ED5
:1051600080915702909158029A83898340E150E0E0
:1051700060E070E0C8010E94DC2EE62E8F2D90E0EA
:105180000E94C12180915302882321F06E2D8F2D22
:105190000E94D81292E1F91609F498C381E0809335
:1051A00062021092630204C0F394F0926302F4CCA2
:1051B00080910A01833009F0C0C155245394809135
:1051C000EF03882309F442C28091EF03815080935A
:1051D000EF038091F1036091EE030E946335909399
:1051E000F103E091F10381E08E0F8093F103F0E091
:1051F000EE0FFF1FEE50FC4F80819181909365026E
:10520000809364021092320360912F03662391F021
:1052100070E06150710981E493E00E942F14809145
:10522000C703880F990B84539C4F9093400380933E
:105230003F0304C01092400310923F034091640268
:1052400050916502E0913D03F0913E03518340830C
:1052500090912F03992379F0E0913F03F09140035F
:10526000309749F02081318124273527232F221FB1
:105270002227221F01C021E031E09E3F09F430E0E7
:1052800081E0411553480CF480E0832311F0211193
:1052900032C00E94F90180913203811104C08091D3
:1052A000DF038823B1F080912F038823D1F0E091B0
:1052B0003F03F09140033097A1F0A0913D03B091DE
:1052C0003E032D913C91808191818227932797FD08
:1052D00008C08FE193E00E94501510924003109295
:1052E0003F0380912F038E3FA1F560E070E0CB017A
:1052F0000E949B232EC0983261F5E3E0F0E0F0932A
:105300003803E093370382EE93E00E94261B81115D
:1053100020C02091E2033091E303E091E403F09197
:10532000E5034091E6035091E703CA0195958795FF
:1053300040FF0AC0D901A80FB91F4D915C91E40F3D
:10534000F51F0190F081E02D820F931F0995809346
:10535000E103C0903D03D0903E03D601ED90FC9058
:10536000B701F7FE04C0662777276E197F09072E5D
:10537000000C880B990B0E94AD332DEC3CEC4CE4F7
:105380005EE30E940C340E9437369B017093360313
:10539000609335036091DC03ECECF3E0412C641581
:1053A000C1F081919191A7014827592757FD0FC05E
:1053B000009769F0A701481B590BCA0157FF03C0AA
:1053C000919581959109281739070CF0D0C2439423
:1053D000E6CF6830E1F540E060E08FE193E00E94C5
:1053E000D514E091DD03F0E0E15EFC4F868183306F
:1053F00040F00E94F90140E060E08FE193E00E94FC
:10540000D514F0902F03FA94E091DD03F0E0E15E13
:10541000FC4F86818823D9F080912F038823B9F02F
:105420006F2D70E081E493E00E942F142091C70358
:10543000022E000C330B8091DD0390E02817390712
:1054400011F761E06F0D8FE193E00E94011A409027
:10545000DD03E0913D03F0913E0380819181E42DD5
:10546000F0E0EE0FFF1FE453FC4F9183808381E057
:10547000840D883019F08093DD0306C01092DD039F
:105480008093DC031092DF038091DD039091DC03B5
:10549000981710F48093DC03942D8091C50320911C
:1054A000C1033091C2038730B9F412161306A4F475
:1054B000E091C0036E2F70E04091C60350E0415070
:1054C0005109641775070CF082C2EF5FE093C003C7
:1054D000F0E0E15EFC4F12A2A091C3034A2F50E01E
:1054E000682F70E06F5F7F4F641B750B16161706F1
:1054F0002CF4942D01C0990F6A95EAF7E091C0034E
:10550000F0E0E15EFC4F62A1962B92A32F5F3F4F2C
:105510003093C2032093C103682F082E000C770B31
:10552000FB01E41BF50BF7FD04C08A1B8093C50348
:1055300042C2F7E0F093C5033EC2669B87C08091EC
:1055400062020E94762260EC8BE30E941713582EB1
:10555000882309F47BC00E944713482E57FC5FC084
:1055600020E4251510F420E4522E2C988FEF0E9491
:105570008E1296E6E92E92E0F92E670122242394FA
:10558000312C80E00E948E12D6019C91891711F077
:105590008C93212C3394BFEFCB1ADB0A351488F39C
:1055A0002C9A80910A01823019F4211038C002C06F
:1055B000893039F082E00E94412280E692E00E9428
:1055C000E521312C6701F7018081803120F480E0F2
:1055D00090E00E944622FFEFEF1AFF0AD6016C917D
:1055E00070E080E090E040E10E94002233943514A6
:1055F00048F38CE592E00E94E521642D70E080E0A4
:1056000090E04AE00E9400228AE592E00E94E521B3
:1056100083E00E9441228AE491E00E94742260ECBF
:1056200085E30E941713813121F080910A018111D5
:105630000DC086E30E945113882341F08DE30E9440
:1056400064138AE30E9464130E94AD1380E090E02B
:10565000892B09F4A1CA0E9400009ECA6FE08FEF57
:1056600090E00E94C1218AEC90E00E94D52263E381
:1056700080E090E00E94C1216DE181E090E00E9415
:10568000C1210E946912C7C90E94C3136DCA60E894
:10569000852D0E941713F82E9FE0981720F080E0C8
:1056A00090E00E9446226F2D70E080E090E040E1A3
:1056B0000E940022539479CCEDE3E515B0F0AEE200
:1056C000A51510F060E801C060EC852D0E9417134D
:1056D0001F928F931F925F9289E291E09F938F9325
:1056E0001F930F930E94F030EECCFEE35F1241C097
:1056F00083E291E00E94E5212C981B9B0FC061E0A2
:1057000070E080E090E00E949B2380910901882353
:1057100009F444CD815080930901EFCF8EEF0E94B0
:105720008E129E012F5F3F4F7901690180E00E9438
:105730008E12D6018D936D016A167B06B9F72C9AED
:1057400081E291E00E94E521F701D1907F01FFE025
:10575000FD1520F080E090E00E9446226D2D70E063
:1057600080E090E040E10E9400226E147F0441F747
:1057700022CC29E9521212CDC12CD12C76015C2CFD
:10578000CC2051F030E1C31619F040E2C41218C029
:1057900081E291E00E94E5218AE191E00E94E52109
:1057A0005FE0551520F080E090E00E94462240E145
:1057B000C701B6010E94002287E191E00E94E52125
:1057C00060E8852D0E941713582E6FE0681720F0AF
:1057D00080E090E00E944622652D70E080E090E03D
:1057E00040E10E94002284E691E00E9474228FEF43
:1057F000C81AD80AE80AF80A9FE2C916D104E104D7
:10580000F10409F0BCCFD7CB40E150E060E070E09C
:1058100085E592E00E94DC2ED62E80E3E82EF12C66
:10582000A1E3EA1204C06D2D81E390E002C060E0C4
:10583000C7010E94C121BFEFEB1AFB0AE8E3EE1695
:10584000F10471F70E94941288EE91E00E94E52124
:105850008D2D0E94591287ED91E086C040E150E005
:1058600060E070E085E592E00E94DC2EE62E80ED9F
:1058700091E00E94E5218BE492E00E94E5218E2DCB
:105880000E94591280915702F12C8E36A9F48DECAA
:1058900091E00E94E521C12CD12CC7018C0D9D1DEA
:1058A0000E94C3210E945912FFEFCF1ADF0A20E1A4
:1058B000C216D10491F77FCB89EC91E00E94E521DB
:1058C000C7010E94C3210E94591275CB82E090E06B
:1058D0000E94C3218D3009F061CCA6ECAE1518F4FE
:1058E000A6E5FA2E02C0F6EBFF2E6F2D83E290E0C4
:1058F0000E94C12180915302882321F06F2D83E201
:105900000E94D81280915702909158029A838983FD
:1059100040E150E060E070E0C8010E94DC2E673595
:1059200018F0E7E4FE2E02C077E0F72E6F2D85E039
:1059300090E00E94C12180915302882309F42ECC6B
:105940006F2D85E00E94D81229CC82E491E00E945C
:10595000D72124CC81E292E00E94E52188E891E001
:105960000E94E5218EE791E00E94D52217CC47FCEA
:1059700030CD842D880F990BDC01A453BC4F7D01E1
:105980006D917C919B01770F440B550BD6018D9146
:105990009C91092E000CAA0BBB0B280F391F4A1F24
:1059A0005B1FCA01B901A50194010E949735F70157
:1059B0003183208371CD20932F0310923303809184
:1059C0003203882309F4FBCB50926202F8CB60E0EB
:1059D00070E0CB010E949B2366E671E08FE193E0CB
:1059E0000E94371B67E771E08FE193E00E94371B4D
:1059F000809130030E941F2460E871E08FE193E002
:105A00000E94371B809131030E941F2467E871E0D8
:105A10008FE193E00E94371B842D0E941F246DE8C4
:105A200071E08FE193E00E94371B80912F030E9469
:105A30001F2466E971E08FE193E00E94371B80919B
:105A4000C0030E941F246DE971E08FE193E00E9482
:105A5000371B8091C1030E941F2464EA71E08FE12B
:105A600093E00E94371B809133030E941F246DEA4C
:105A700071E08FE193E00E94371B809137030E9411
:105A80001F2465EB71E08FE193E00E94371B80914A
:105A900032030E941F248AE00E941F2490CFCF93DC
:105AA000DF93EBECF2E01382128288EE93E0A0E049
:105AB000B0E084839583A683B78384E391E09183E8
:105AC00080838FEF9FEF95878487EEEEF3E08AE582
:105AD0008083118213821282CFE1D3E089E393E0C5
