:100000000C94E6020C9468200C9441200C941A2065
:100010000C94F31F0C940E030C940E030C94CC1F41
:100020000C940E030C940E030C948F200C9401215D
:100030000C940E030C940E030C940E030C940E03FC
:100040000C940E030C940E030C940E030C940E03EC
:100050000C9462160C940E030C940E030C94BA27A5
:100060000C940E030C940E030C940E030C940E03CC
:100070000C940E030C940E030C940E030C940E03BC
:100080000C940E030C940E030C940E030C940E03AC
:100090000C940E030C940E030C940E030C940E039C
:1000A0000C940E030C940E030C940E038F269226D0
:1000B000812685268926B326B326B32696269A2638
:1000C0009E26A426A826B326AE26646F6E65004938
:1000D0006E697420656570726F6D20746F20646541
:1000E0006661756C747320616674657220666C61FC
:1000F0007368002E0052656164696E672076616CDA
:100100007565732066726F6D2000666F756E642072
:100110000063633131303120006E6F200043435063
:100120006172746E756D203D00434356657273694C
:100130006F6E203D2000726563656976657220658B
:100140006E61626C6564005374617274696E6720DD
:1001500074696D65726A6F6200666F756E64200007
:100160004D43004D55003B003D004D53002062695A
:10017000747320736574003A2000636372656720AE
:10018000002000433345203D002064656C617931D7
:100190002000206368697053746174757320006374
:1001A0006D645374726F62655265672000556E739B
:1001B0007570706F727465642073686F72742063F9
:1001C0006F6D6D616E6400636F6D6D616E6420654F
:1001D000006973206E6F7420636F72726563746C54
:1001E000792073657420666F722041534B2F4F4FF7
:1001F0004B2E20506C6561736520646F2061206612
:100200006163746F727920726573657420766961B9
:1002100020006F7074696D756D2072656769737405
:1002200065722073657474696E677320666F7220DF
:100230004F4F4B2F41534B206F7065726174696F44
:100240006E00203D2000203A00454550524F4D00A1
:1002500020746F2050415441424C4520646F6E65BC
:100260000077726974652000202D20636F6D7069BE
:100270006C65642061742053657020313020323009
:1002800032302032323A35313A3338002044424756
:1002900000383638200034333320004D687A00634C
:1002A000633131303120005620332E352E302D640D
:1002B00065765F32303230303931305F76342053FA
:1002C00049474E414C6475696E6F200020002055EF
:1002D0007365206F6E65206F662000436F6D6D61E2
:1002E0006E6420746F206C6F6E673A2000206D6220
:1002F0002066206120742070726F6320003B523DA5
:10030000004D4E3B443D003A2053657474696E675E
:10031000205258206661696C6564002076732069FC
:100320006E697476616C20494F434647323D0049FF
:100330004F434647323D0020767320696E697476DC
:10034000616C20504B544354524C303D00504B5440
:100350004354524C303D006363466163746F72795D
:10036000526573657420646F6E65000D2E2D47D342
:10037000913D04320000060010B07157C43023B91B
:1003800000070018146C070091876BF8B611E92A72
:10039000001F4100646F6E65007265616420004556
:1003A0004550524F4D00504F5220646F6E652C00E7
:1003B0005352455320737461727465642C00434337
:1003C000496E697420003A0064756D702C20003A03
:1003D0002053657474696E67205458206661696C97
:1003E0006564003A2053657474696E672054582020
:1003F0006661696C65640063637265672077726922
:100400007465206261636B200020726570656174A1
:10041000732000207061727420006D736720007477
:100420006F206C6F6E672000636F7272757074005E
:1004300073656E6420636D642000544F55540062F0
:100440007265616B206C6F6F7000777269746520E4
:100450006E6577206363726567732023006164644F
:10046000696E672073656E64636C6F636B002065F3
:100470006E643A006C6F636174696E6720646174C6
:10048000612073746172743A00416464696E67201C
:10049000726570656174733A2000416464696E67C7
:1004A000206275636B6574007265617272616E675C
:1004B0006520626567696E70747200416464696E7C
:1004C00067207846534B206D657373616765004103
:1004D0006464696E672072617700416464696E6765
:1004E000206D616E6368657374657200080B0002AD
:1004F00002020100090400000102020000052400BC
:10050000100105240101010424020605240600014E
:100510000705810310004009040100020A000000E1
:1005200007050202400000070583024000000403A3
:10053000090412010002EF0201404123378000014B
:100540000102030141726475696E6F204C4C4300D7
:1005500041726475696E6F204D6963726F000000AF
:100560000000250028002B002E00310004040404A4
:100570000403040502020202040302020202060648
:10058000060606060404020202040404080201101E
:1005900040804010204080408008020401804020BC
:1005A00010020110801020404020000000020009CD
:1005B0000F0000030401000C000000000000000018
:1005C00000000000000000000000E73111241FBE01
:1005D000CFEFDAE0DEBFCDBF12E0A0E0B1E0E2EDA8
:1005E000F3E702C005900D92A03CB107D9F725E0D2
:1005F000A0ECB2E001C01D92A032B207E1F712E018
:10060000C6EED2E004C02197FE010E949B37C53E92
:10061000D107C9F70E94B9280C94E7390C9400005F
:100620002F923F924F925F926F927F928F929F9202
:10063000AF92BF92CF92DF92EF92FF920F931F93F0
:10064000CF93DF93CDB7DEB7C354D1090FB6F8947B
:10065000DEBF0FBECDBF80913C0420918C03811181
:1006600004C0283210F40C94550F10928F0391E0BF
:100670002E3F09F090E09093910340E060E08111FB
:100680003AC28CE793E00E942814F12CAF2CB12CD5
:10069000209139042F8B822F90E00197A816B9067C
:1006A0000CF00EC1F501E458FC4FCF0106962681EF
:1006B000F394222359F3EF2C9501220F331FA90144
:1006C000475D5B4F5A8F498F9C8F8B8F5E8F4D8F0D
:1006D00080913904E816D0F68E2C912CB401645820
:1006E0007C4F1B01DB0116968C91882309F4E6C030
:1006F000E98DFA8DC080D1809401220F331F388F8D
:100700002F8BF901E75DFB4F00811181C601802726
:10071000912797FDD3C04090250450902604609007
:10072000270470902804B80117FF04C066277727B4
:10073000601B710B072E000C880B990B0E949235E1
:10074000A30192010E94F1356F8F78A389A39AA328
:10075000B601D7FE04C0662777276C197D09072EDE
:10076000000C880B990B0E949235A30192010E9404
:10077000F1359B01AC016F8D78A189A19AA10E94EE
:10078000A93720E030E040E05FE30E94F1350E94AD
:1007900087380C191D0917FF03C011950195110920
:1007A000601771070CF48AC0D12CC12C81010A5F3B
:1007B0001F4F80918C03D81608F048C0D8018C9147
:1007C000C81608F043C06D2D70E08EE993E00E94DA
:1007D000EA1380912404082E000C990B88169906C0
:1007E00099F580912004482F50E0D89EC001112433
:1007F000FC0123E0F695E7952A95E1F72091230483
:10080000E21708F587709927FF27E458FC4F2091DD
:10081000210430E0082E02C0359527950A94E2F7AE
:10082000209532A1232368E070E0641B750BDB0187
:10083000A81BB90BA50102C0440F551FAA95E2F7EA
:10084000CA01822B82A3C394D394B3CFAB8DBC8D4A
:100850000C91F1011681ED8DFE8DA081B1812F8962
:10086000388D275D3B4F6901F90180809180E02F31
:10087000F0E09F010E94A1372B013C01412F50E085
:100880009A01D4010E94A137640D751D861D971D24
:10089000E40FF51F9F01FF0F440B550B0E947C379F
:1008A000AD8DBE8D2D933C93100FEB8DFC8D108381
:1008B000D10116961C92F60111821082E39408CFA2
:1008C00010929503109294038FEF80937C03F09124
:1008D0008C03F98F2F2F30E03C8F2B8FBCE7CB2E72
:1008E000B3E0DB2E19E2212E14E0312EE12CF12CA5
:1008F0000FEF1FEF4901330FAA08BB084F89E41619
:1009000008F059C00F3F5FEF150701F5D1018D9138
:100910009C9197FD1BC0F601668170E080E090E03D
:100920000E9492352B013C01C501B4010E94923511
:100930002BE734E14EE25EE30E94F1359B01AC010E
:10094000C301B2010E94BD38181654F1D1018D9136
:100950009C9197FD26C0F801EE0FFF1FE75DFB4F4E
:100960002081318182179307E4F4F601668170E0FB
:1009700080E090E00E9492352B013C01C501B4015A
:100980000E9492352BE734E14EE25EE30E94F1359E
:100990009B01AC01C301B2010E94BD3818160CF4D2
:1009A0008701FFEFEF1AFF0A2FEFC21AD20A32E0D7
:1009B000230E311CA3CF0F3F4FEF140741F00093DC
:1009C0007C0381E090E09093950380939403809161
:1009D000940390919503019709F091C080917F0352
:1009E000882309F48CC06B8D7C8D663A71051CF4EC
:1009F000098D085201C00DE71F89115076E0D72EEE
:100A00001F3F09F475C0E12E012E000CFF08F7010D
:100A1000EE0FFF1FE75DFB4F2081318137FF66C07E
:100A2000319521953109283672E437070CF05EC004
:100A3000E0917C03EE0FFF0BE75DFB4F0190F0812F
:100A4000E02DC901BF010E9454376D32710508F0D5
:100A50004DC0DE9EC001DF9E900D112482179307CA
:100A600008F044C0F701E458FC4FF6806F2D70E0A9
:100A700080E090E00E9492354B015C0160918C0314
:100A800070E080E090E00E9492352AE037ED43EA82
:100A90005DE30E94F1359B01AC01C501B4010E94E8
:100AA0008B3587FF23C081E08F1500F5E12CF12CF9
:100AB000E016E0F457019FEFA91AB90AB5018EE9D3
:100AC00093E00E94EA138091240418130C94A10F60
:100AD000B7018EE993E00E94EA139091240480917B
:100AE0007C0398130C94A10F0C94A40F115088CF81
:100AF00010933B0404C08CE793E00E94281480917B
:100B0000940390919503029709F0DBC180918C03C7
:100B1000883208F4D6C180918D038E5F80938E0356
:100B200010E060918E0370E080918C0390E001975B
:100B300068177907ACF46F5F7F4F8EE993E011116E
:100B40000C9437110E94EA139091240480913B0485
:100B5000981311E080918E038E5F80938E03E1CF16
:100B600010E080918C0390918E03891710F480938C
:100B70008E0340918E0360918D038CE793E00E9479
:100B8000281460918D03112371F080918E0390E001
:100B9000861B9109889794F481E090E090939503E7
:100BA000809394038EC180918C038E3F08F073C1B3
:100BB00090E0861B910988970CF46DC182E00E9439
:100BC000A42380918003882309F4AAC083ED91E0D7
:100BD0000E94EA238BE30E94A423F12C8091390424
:100BE000F81688F58F2D90E0FC01EE0FFF1FE75DF2
:100BF000FB4F008111810115110519F1FC01E45829
:100C0000FC4F86818823E9F08F2D17FF05C0806A8D
:100C100011950195110901C08068E02E07FD04C0FF
:100C2000A02FA068EA2E01C080610E94A4238E2D0F
:100C30000E94A423812F80680E94A4238BE30E943A
:100C4000A423F394CBCF80918E0380FF02C084E471
:100C500001C084E60E94A423E0918D03E0FF19C047
:100C6000E150E0938D03E69580912304E81728F482
:100C7000F0E0E458FC4F82A101C080E08F708068F2
:100C80008F8B0E94A42380918D038E5F80938D03B0
:100C900001C01F8A10918D0380918E03811780F00F
:100CA000E12FE69580912304E81728F4F0E0E4585A
:100CB000FC4FB2A1BF8B8F890E94A4231E5FECCF93
:100CC00086ED91E00E94EA2380917C0360E170E070
:100CD000082E000C990B0E94A92389ED91E00E9437
:100CE000EA2380913B0460E170E0082E000C990B30
:100CF0000E94A9238BE30E94A4238FE394E00E9427
:100D0000181681118FC082E50E94A42360E170E073
:100D100080913E040E9496238BE30E94A42382C00C
:100D20008CED91E00E94EA238BE30E94A42310E063
:100D300080913904181750F5212F30E0C901880F30
:100D4000991FFC01E75DFB4F7F0180819181892B19
:100D5000D9F0F901E458FC4F86818823A9F080E599
:100D60000E94A4236AE070E0812F0E9496238DE305
:100D70000E94A4236AE070E0D7018D919C910E94AB
:100D8000A9238BE30E94A4231F5FD2CF8FED91E0B4
:100D90000E94EA2310918D0380918E03811788F0C1
:100DA000612F70E08EE993E00E94EA1380912404A1
:100DB0006AE070E0082E000C990B0E94A9231F5FC7
:100DC000EBCF82EE91E00E94EA2380917C036AE0FF
:100DD00070E0082E000C990B0E94A92387EE91E089
:100DE0000E94EA2380913B046AE070E0082E000C28
:100DF000990B0E94A9238BE30E94A4238FE394E024
:100E00000E94181681110DC08CEE91E00E94EA2319
:100E10006AE070E080913E040E9496238BE30E947A
:100E2000A4231F8A80919103882331F08FE40E94CC
:100E3000A4238BE30E94A4231092900360918E035D
:100E400080918C0390E0861B91098897D4F0809163
:100E500081038823B1F08150809381036F5F8CE719
:100E600093E00E94E81410928D038DE60E94A42363
:100E70006AE070E0809181030E9496238BE30E94D8
:100E8000A42383E00E94A4238AE00E94A42381E09B
:100E900080938F0317C0662369F080918E0390E0E2
:100EA0008D3F91053CF08CE793E00E94E81410928E
:100EB0008D0307C08CE793E00E94A31481E0809328
:100EC0008F031F8A80918F038111C2C680917D0399
:100ED000B0917E03B8AB811103C0BB2309F4E5C711
:100EE000E8A9EE2309F4B4C680918A0390918B039C
:100EF000892B39F585E490E00E945332FC0182E3AE
:100F000080AF81E085AB108212AA14AA13AA87E0F1
:100F100087AB80E886AB8FEF84AF85AF86AF87AFB6
:100F2000DF01AD5BBF4F1C9211961C928CE793E0E2
:100F300093AF82AF14971D921C92F0938B03E093B2
:100F40008A0380913C04882311F100918A03109157
:100F50008B03D801DA96ED91FC91DB97148A118A04
:100F6000DA96ED91FC91DB97E054FF4F1082512C03
:100F70005801B4E4AB0EB11C442443943801E2E4BC
:100F80006E0E711C1801F3E42F0E311C96C12090D7
:100F90008A0330908B038FEFD101DC968C93DC9722
:100FA000DD968C93DD97DF968C93DF97DE968C939E
:100FB000DE97F101ED5BFF4F10823196108234977E
:100FC00011821082F101108212AA14AA13AA87E0DA
:100FD00087ABEE5BFF4F80913D048083DA960D91E5
:100FE0001C91DB97F801E354FF4FF080B3E0BF158D
:100FF00008F02EC6F801608970E080E090E00E9461
:1010000092352AE037ED43E25DE30E94F1354B0172
:101010005C0120E030E0A9010E94BD3820E030E012
:1010200040E05FE387FD05C0C501B4010E94A93718
:1010300004C0C501B4010E94A8370E948738580136
:10104000F6E0AF0EB11CF801E355FF4F1DA270E0B2
:10105000D5018D915D01861770F1EDA08E2D90E088
:10106000EE20F1F09E01280F391FD901DC90980184
:101070002D0D311D2D0D311D23553F4F40815181C7
:10108000D9012D913C914217530754F421E030E0EF
:101090002C0F3D1F820F931FDC01DC92EA94DECF00
:1010A00021E030E02C0F3D1F820F931FDC017C9369
:1010B000BDA1BF5FBDA37F5F3296F712C9CFFE010E
:1010C0003196FA8BE98BFFA7EEA74091250150914D
:1010D000260160912701709128014FAB58AF69AF8D
:1010E0007AAFB1016E5B7F4F7CAF6BAFC1018D5B9F
:1010F0009F4F9FA38EA3D101AC5BBF4F2496BFAF80
:10110000AEAF24973C96FE8BED8BF9892296FFAF0C
:1011100022978EA58F1B3DA1831708F099C5D10199
:10112000DA964C91DA97DB963C91DB97EEA5FFA51A
:101130002191FFA7EEA7842F932F820F911D820F7D
:10114000911DFC01E355FF4F80819181181619060E
:10115000E4F68FEFDC968C93DC97DD968C93DD972D
:10116000DF968C93DF97DE968C93208131813A8FC6
:10117000298FB901330F880B990B0E94923569AB07
:101180007AAB8BAB9CAB2DEC3CEC4CE45EE30E9469
:10119000F1350E9487387EAF6DAF898D9A8D97FDAE
:1011A0000196AC015595479521965FAF4EAF2197BB
:1011B000BE016F5F7F4F7DA76CA71BA68FEF9FEFD0
:1011C0009CA38BA31AA6DE011996BC8BAB8B4E0198
:1011D000B1E18B0E911CECA5FDA5D190FDA7ECA76C
:1011E000D101DA963C91DA97DB962C91832F922FDE
:1011F0008D0D911D8D0D911DFC01E355FF4F00815B
:101200001181780117FF04C0EE24FF24E01AF10ACF
:1012100021968EAD9FAD21978E199F0997FF03C030
:10122000919581959109EDADFEADE817F907D4F4DC
:101230002DEC3CEC4CEC5EE369A97AA98BA99CA946
:101240000E94F1350E948738898D9A8D8E199F09E9
:1012500097FF03C0919581959109681779070CF064
:101260007FC618C01016110614F00C942611D10177
:10127000DE96DC92FAA5FF5FFAA72BA13CA1200F16
:10128000311F3CA32BA3D101DC968C91DC978F3FBF
:1012900009F07EC38CA52296EFAD22978E1BFDA18F
:1012A0008F1708F498CF31CFD5018C91882379F02E
:1012B000F501808181110DC15394D801DA96CD904A
:1012C000DC90DB97F6018089581670F3A8C2E52CF4
:1012D000F12CB701C60182960E94EA13F601E85587
:1012E000FF4F808190E0F80124AD022E000C330BFB
:1012F0008217930739F025AD022E000C330B8217AD
:101300009307B1F6D801DA96CD90DC90DB97B70160
:10131000C60182960E94EA13F601E855FF4F8080CD
:10132000F80195AC81E0891001C080E080931A0338
:10133000D801DA96CD90DC90DB97B7016150710946
:10134000C60182960E94EA13F601E855FF4F80819C
:10135000F5014082D801DA96ED91FC91DB97518A34
:10136000552009F4B0C090E0891026C0DF962C917A
:10137000DF97022E000C330B8217930709F43FC04E
:10138000DA962D913C91DB97FC01EE0FFF1FE20FE7
:10139000F31FE355FF4FDC968C91A82FAA0FBB0BD0
:1013A000A20FB31FA355BF4F208131818D919C9116
:1013B0002817390724F129C0F80126AD022E000CA8
:1013C000330B82179307D9F022AD33ADFC01EE0F3A
:1013D000FF1FE20FF31FE355FF4FD801DD968C91FD
:1013E000A82FAA0FBB0B2A0F3B1FD901A355BF4F34
:1013F000208131818D919C918217930734F481E093
:10140000891080E080931A0308C0D801DA96ED9124
:10141000FC91DB9781898F5F818B60911A03C801F2
:101420000E94A413FF24FA94F50CB1E0BF1508F054
:1014300043C0F80182AC93ACCF2CD12CB601C401CF
:1014400082960E94EA13F401E855FF4F808190E0F4
:10145000D801DF962C91DF97022E000C330B8217F8
:10146000930741F0DE962C91022E000C330B82176D
:10147000930711F5F80182AC93ACB6016150710984
:10148000C40182960E94EA13F401E855FF4F80815F
:1014900090E0D801DF962C91022E000C330B8217BE
:1014A000930709F4F0C5F80126AD022E000C330BAA
:1014B0008217930709F4E7C5D801DA96ED91FC91FC
:1014C000DB975188F5CE81E0891080E080931A0384
:1014D000EFCED801DA96CD90DC90DB97E52CF12C9D
:1014E000B701C60182960E94EA13F601E855FF4F44
:1014F000C080D12CF80184AD082E000C990B82AC71
:1015000093ACC816D90609F444C685AD082E000C64
:10151000990BC816D90609F43CC6B7016F5F7F4F17
:10152000C40182960E94EA13F401E855FF4F20811E
:1015300080911A03811119C0D801DA96ED91FC91BE
:10154000DB97808990E00297E816F9067CF5DF9634
:101550008C91DF97082E000C990B8C159D0531F5A9
:10156000422F50E0DE968C911AC08130F9F4D801F8
:10157000DA96ED91FC91DB97808990E00297E8166E
:10158000F906A4F4DE968C91DE97082E000C990BD8
:101590008C159D0559F4422F50E0DF968C91082E52
:1015A000000C990B4817590709F42DC1F3018081EC
:1015B000082E000C990BD801D3964D915C91D497CD
:1015C0004817590764F4F1011082D5011C92F80103
:1015D000108212AA14AA13AA27E027AB14C1D801BB
:1015E000DA96ED91FC91DB97528ADA96AD90BC9039
:1015F000DB97BDEF5B1213C0F501808990E0019786
:10160000E816F90661F4E054FF4F81E0808384E03E
:1016100090E0D50159969C938E93589775C0D80148
:10162000DC96EC91DC97EE0FFF0BEA0DFB1DE3550A
:10163000FF4F40815181F601EE0FFF1FEA0DFB1DA8
:10164000E355FF4F60817181F5018089641775074B
:10165000E4F4682F70E061507109E616F706ACF407
:10166000E22FF0E0DD966C91DD97062E000C770BF3
:10167000E617F70709F4C5C5DE966C91062E000C37
:10168000770BE617F70709F4BCC590E00297E81658
:10169000F906D4F5D801DF968C91DF97082E000C5F
:1016A000990BC816D90641F0DE968C91082E000CD5
:1016B000990BC816D90641F5C501820F911D820FFD
:1016C000911DFC01E355FF4F80819181841795079F
:1016D000DCF4B7016E5F7F4FC50182960E94EA136A
:1016E000F501E855FF4F808190E0F80124AD022E0E
:1016F000000C330B8217930709F059C581E0850D63
:1017000051107EC555245394652DD801DA968D91DC
:101710009C91DB970E94E814D801DA96ED91FC9138
:10172000DB97E054FF4F8081811176C5F301808102
:10173000082E000C990BD3962D913C91D497281725
:1017400039070CF469C582E00E94A4238FEE91E072
:101750000E94EA2382EF91E00E94EA23E0918A034B
:10176000F0918B03E4ADEE0FFF0BE75DFB4F6AE0FA
:1017700070E0808191810E94A92387EF91E00E940F
:10178000EA23E0918A03F0918B03E5ADEE0FFF0BA6
:10179000E75DFB4F6AE070E0808191810E94A923A0
:1017A0008CEF91E00E94EA23E0918A03F0918B0391
:1017B000E7ADEE0FFF0BE75DFB4F6AE070E0808165
:1017C00091810E94A92381E092E00E94EA23E091A6
:1017D0008A03F0918B03E6ADEE0FFF0BE75DFB4F45
:1017E0006AE070E0808191810E94A9238BE30E94CE
:1017F000A4238FED91E00E94EA23E0908A03F09009
:101800008B03D12C48C05394D5018C91882309F4C3
:1018100053CD60911A03C8010E94A4134DCDF60167
:10182000528AA8014E5B5F4FD801D3962D913C910F
:10183000D497BEEF5B1220C0FA01808187FD8F5FD5
:101840008595082E000C990BD801DA96ED91FC9144
:10185000DB978217930754F4DF01A054BF4F81E058
:101860008C9384E090E0918F808FD6C4CF01805418
:101870009F4FDC011C92148AFA018081082E000C13
:10188000990B5DCFD216A0F4F701E00FF11F808114
:101890000E942916D3940D2D10E0D701D2968C9179
:1018A000D29790E0D8962C91081719075CF302C0E4
:1018B00080E0EECFD21628F4F701E00FF11F80810F
:1018C00001C080E082958F7060E170E090E00E943E
:1018D000A923F70123A934A9C90168E070E00E9497
:1018E0006837059724F427703327232B89F4D70111
:1018F000D8968C91D81628F4F701E00FF11F80815B
:1019000001C080E08F7060E170E090E00E94A92348
:1019100086E092E00E94EA23E0918A03F0918B0333
:10192000E05CFF4F6AE070E0808191810E94A92312
:101930008AE092E00E94EA23E0918A03F0918B030F
:101940006AE070E083A994A90E94A9238BE30E9416
:10195000A4238FE394E00E94181681110DC08CEE31
:1019600091E00E94EA236AE070E080913E040E94C8
:1019700096238BE30E94A42383E00E94A4238AE0A1
:101980000E94A42310923C0481E080938F0360C1E5
:10199000DF968C91DF978F3F09F47CCCDD968C919C
:1019A000DD978F3F09F476CCDE968C918F3F09F45A
:1019B00071CC2FA938AD49AD5AAD2D873E874F87E1
:1019C000588B29873A874B875C8741E050E059A7BD
:1019D00048A7A12CB12C1FEFD101DA96ED90FC9015
:1019E000DB97F701808990E0A816B9060CF052CC7D
:1019F000B501C70182960E94EA13F701E855FF4F2F
:101A00000081802F90E0D101DC962C91DC97022E92
:101A1000000C330B8217930709F4A9C2DD962C91B1
:101A2000022E000C330B8217930709F4A0C2D101D8
:101A3000DF962C91022E000C330B8217930709F4CA
:101A400096C2F10126AD022E000C330B82179307CC
:101A500009F48DC2D101DA96ED91FC91DB97818971
:101A60009501281B3109ABADBCAD8C91082E000C43
:101A7000990B821793070CF0B5C2A28AF10182ADCF
:101A800093ADDC0152964C91529751966C910E9405
:101A90002814D101DA96ED91FC91DB97DE96BC918A
:101AA000BB8FD101DD96BC91BD8FD101DF960C912A
:101AB000DF97DC96BC91BF8FDF012B8DA20FB11D8C
:101AC00027FDBA9516968C91DF013D8DA30FB11DB0
:101AD00037FDBA951696CC90D12CC80ED11CDF01DB
:101AE000A00FB11D07FDBA9516968C91C81AD108A2
:101AF000DF014F8DA40FB11D47FDBA9516968C914D
:101B0000AEA1BFA11C92C81AD108D7FE03C0D194C0
:101B1000C194D1080D2C000CEE08FF088089E82F35
:101B2000F0E0FEABEDABBF01FF0F880B990B0E94FD
:101B300092352AE037ED43E25DE30E94F1352B0157
:101B40003C0120E030E0A9010E94BD3820E030E0F7
:101B500040E05FE387FD18C2C301B2010E94A937CC
:101B60000E9487386C157D058E059F050CF492CB7D
:101B7000FAA52BA5F2138ECB3D8D4F8D341709F4AA
:101B800089CB5B8D501709F485CB041709F482CB00
:101B9000531709F47FCB541709F47CCB301709F4A1
:101BA00079CBDE011996FE013D9681919D918913B5
:101BB000F0C18E169F06C9F78F8D7B8D6AE0769FE8
:101BC000800D1124AD8D9AE0A99F000D11248A305B
:101BD00008F48C590A3008F40C59AE01475F5F4F86
:101BE000FE013D966F01E82EF12C602F70E0D601CA
:101BF0008D916D01082E000C990B8E159F0509F033
:101C000055C3CE010996FE013D962191022E000C8E
:101C1000330B2617370709F052C3E815F90509F009
:101C20005EC380E0C814D90409F4B9C14F5F5F4FA7
:101C30008111DDCFF101E05CFF4F8BA19CA166E03B
:101C400070E00E94683771836083F8A9F1117DC943
:101C500080917D03882309F428C180913C0481117F
:101C600024C18091940390919503019709F01DC1BF
:101C700080918F03811158C180918C03883208F4C0
:101C800018C182E00E94A42380918003882309F474
:101C90007DC08EE092E00E94EA238BE30E94A423A1
:101CA00040E060E08CE793E00E942814F12C8091E2
:101CB0003904F81688F58F2D90E0FC01EE0FFF1F18
:101CC000E75DFB4F008111810115110519F1FC0140
:101CD000E458FC4F86818823E9F08F2D17FF05C05B
:101CE000806A11950195110901C08068E02E07FDF9
:101CF00004C0B02FB068EB2E01C080610E94A42305
:101D00008E2D0E94A423812F80680E94A4238BE340
:101D10000E94A423F394CBCF80918C0380FF05C055
:101D200084E60E94A42310E010C084E4FACF8091DE
:101D30002304181730F4E12FF0E0E458FC4F22A1FF
:101D40002F8B8F890E94A4231F5F80911D04811710
:101D500070F786ED91E00E94EA2380917C0360E1B8
:101D600070E0082E000C990B0E94A92388E791E0EF
:101D70000E94EA238FE394E00E941816811180C02C
:101D800082E50E94A42360E170E073C081E192E0EB
:101D90000E94EA238BE30E94A42340E060E08CE7EA
:101DA00093E00E94281410E080913904181758F528
:101DB000212F30E0C901880F991FAC01475D5B4FAF
:101DC0007A01DA018D919C91892BD9F0F901E458BF
:101DD000FC4F86818823A9F080E50E94A4236AE055
:101DE00070E0812F0E9496238DE30E94A4236AE075
:101DF00070E0F701808191810E94A9238BE30E940A
:101E0000A4231F5FD1CF8FED91E00E94EA2310E061
:101E100080918C03181788F4612F70E08EE993E0AD
:101E20000E94EA13809124046AE070E0082E000CFE
:101E3000990B0E94A9231F5FEBCF82EE91E00E94D5
:101E4000EA2380917C036AE070E0082E000C990B75
:101E50000E94A9238BE30E94A4238FE394E00E94B5
:101E6000181681110DC08CEE91E00E94EA236AE001
:101E700070E080913E040E9496238BE30E94A4238D
:101E800080919103882331F08FE40E94A4238BE397
:101E90000E94A42383E00E94A4238AE00E94A4233A
:101EA0001092900381E080938F0380918F038111C2
:101EB0003BC0809190038823D9F140913904E9E235
:101EC000F4E080E090E020EDE22E27E0F22E84178F
:101ED00010F010E00CC0219131911216130624F479
:101EE0002E153F050CF47C010196F1CF1F5F809108
:101EF0008C031817C8F4F0EDEF16F7E0FF06A1F019
:101F0000612F70E08EE993E00E94EA13809124042F
:101F1000082E000C990BE816F90641F76FEF610FD8
:101F20008CE793E00E94E814809190038111DDC159
:101F300010918F038CE793E00E94A31410938F03FA
:101F4000D4C175010C94580510933B0482E090E0D5
:101F50009093950380939403E0928D030C947F05F6
:101F6000101611060CF07FC1F101D5AE83C9D10165
:101F7000DA96ED91FC91DB97808990E00197A816A5
:101F8000B90609F040C066CDC301B2010E94A8376E
:101F9000E7CD9F3F39F08F3F09F00BCE03C0882378
:101FA00009F448CE2DA93EA92A193B09EBADFCAD99
:101FB0008081082E000C990B821793070CF06AC9D8
:101FC0001D8719871E871A871F871B87188B1C87F9
:101FD0005FEFA51AB50A68A579A56F5F7F4F79A74E
:101FE00068A7FACCAEA1BFA11C922496EEADFFADBE
:101FF0002497108219871D871A871E871B871F87C2
:102000001C87188BE5CFAEA1BFA18C91811103C0B5
:10201000A18AE1E0EC93D101DA96ED90FC90DB9798
:1020200068A579A5C70182960E94EA13F701E855D1
:10203000FF4F8081BAE00B9F800D11248A3008F495
:102040008C59A0FC03C02D899E8902C02B899C89D4
:10205000E22FF92F90E0482F50E06081262F062EC6
:10206000000C330B2417350719F06F3F19F48083E8
:10207000292F01C02FEF9F5F943009F4A9CF31962B
:102080002F3F59F3A5CFE0901A03D801DA968D902F
:102090009C90DB97B1E0EB123AC0E2E0CE1AD10897
:1020A000B601C40182960E94EA13F401E855FF4F7D
:1020B0009081D801DF968C91DF97981709F464C05E
:1020C000DA968D909C90DB97B601C40182960E94AF
:1020D000EA13F401E855FF4FA081AA0FBB0B8A0E4B
:1020E0009B1ED401A355BF4FF80182AD93AD24AD23
:1020F000E22FEE0FFF0BE80FF91FE355FF4F2D9175
:102100003C918081918128173907F4F13AC0E110A0
:1021100038C0F2E0CF1AD108B601C40182960E94FD
:10212000EA13F401E855FF4F9081D801DE968C91B7
:10213000DE97981749F1DA968D909C90DB97B6015F
:10214000C40182960E94EA13F401E855FF4FA08172
:10215000AA0FBB0B8A0E9B1ED401A355BF4FF801DB
:1021600082AD93AD25ADE22FEE0FFF0BE80FF91F07
:10217000E355FF4F2D913C91808191818217930708
:102180001CF0FA94FA9451C96E2DC8010E94A41350
:10219000F8CFF401808990E00197E816F9060CF079
:1021A000BCC980911A03842580931A032DCB25ADD9
:1021B000022E000C330B8217930709F49FCAC2AC9E
:1021C000D3ACB7016D5F7F4FC60182960E94EA13C0
:1021D000F601E855FF4F808190E0F80127AD022E0F
:1021E000000C330B8217930709F488CAF80126AD57
:1021F000022E000C330B8217930709F085CA7ECAA2
:10220000582E5394D801DA96ED91FC91DB9784E037
:1022100090E0918F808F78CA80913C04882309F4E4
:1022200017CD809190038111AFCB10929E03109235
:102230001D0410921F0410921E0487E08093220454
:1022400010928C0381E08093900302CDF101D7AE10
:102250003BA53F5F3BA74BA15CA1401B510B5CA37F
:102260004BA30C944309D101DC96DC92F1CF0E9480
:10227000EA139091240480913B0498130C94AA05CE
:1022800060918E0370E08EE993E00E94EA139091D2
:10229000240480917C0398130C94AA0580918E03EA
:1022A000815080938E0311E00C94B105FA01808176
:1022B000082E000C990BE816F90651F4A2CCDC01AB
:1022C0002C91022E000C330B6217730719F4A5CC66
:1022D00081E0A8CCE815F905D9F3019696CCC8148D
:1022E000D90409F4A7CC80E0A1CCCD5BDF4F0FB6B9
:1022F000F894DEBF0FBECDBFDF91CF911F910F913C
:10230000FF90EF90DF90CF90BF90AF909F908F9015
:102310007F906F905F904F903F902F90089580E056
:102320000895CF92DF92EF92FF920F931F93F8944C
:102330000E945B27009178031091790320917A0322
:1023400030917B036B017C01C01AD10AE20AF30AC7
:1023500097018601609378037093790380937A03E1
:1023600090937B030A3511052105310578F181E051
:10237000C8168DE7D806E104F10410F4960102C0F6
:1023800021E03DE7669B03C031952195310980919D
:102390004C048A35D8F480914C048F5F80934C04B0
:1023A00080914D0460914B040E94483790934D04F6
:1023B000E0914D04F0E0EE0FFF1FE15BFB4F318336
:1023C000208380914D048F5F80934D0478941F91FA
:1023D0000F91FF90EF90DF90CF9008958F929F9292
:1023E000AF92BF92CF92DF92EF92FF928FB7F894A5
:1023F000C0900505D0900605E0900705F09008050F
:102400008FBF80911D0390911E03A0911F03B09177
:102410002003C816D906EA06FB0648F480911B0380
:1024200090911C03019690931C0380931B03C09210
:102430001D03D0921E03E0921F03F0922003A0918F
:102440001B03B0911C0327E339E841E450E00E94EC
:10245000F7364B015C01C701B60128EE33E040E0DE
:1024600050E00E94D536C501B401620F731F841F6E
:10247000951FFF90EF90DF90CF90BF90AF909F900F
:102480008F900895CF93DF93C2E0D0E0FE01E7592B
:10249000FC4F6491CE010E943F2384E192E00E94B0
:1024A000EA232196CB32D10589F7C0E3D0E0C133CE
:1024B00021F464E881E390E002C060E0CE010E9474
:1024C0003F232196C833D10591F787E593E0DF914B
:1024D000CF910C9451268EBD0DB407FEFDCF8EB565
:1024E0000895CF93DF93D82FC62F2C981B9B0EC037
:1024F00061E070E080E090E00E94802780910E0112
:10250000882359F0815080930E01F0CF8D2F0E94C7
:102510006B128C2F0E946B122C9ADF91CF91089531
:10252000CF93DF93D82FC62F2C981B9B0EC061E052
:1025300070E080E090E00E94802780910D01882368
:1025400061F0815080930D01F0CF8D2F8C2B0E9474
:102550006B1280E00E946B122C9ADF91CF9108954C
:1025600081E191E00E9436268DE493E00E943626B8
:1025700060E888E00E9490126AE070E00E94962372
:1025800087E393E00E9436266AE070E082E30E94CF
:102590005D2681E191E00E9436268FE293E00E9461
:1025A000362660E880E00E9490126AE070E00E94A7
:1025B00096238BE193E00E9436266AE070E08DE07E
:1025C0000E945D2660E888E00E949012823339F410
:1025D00060E880E00E94901291E08D3009F090E078
:1025E000892F089580910801813011F084E301C0A2
:1025F00084EF60EC0C9490122C989FEF20E130E077
:102600001B9B07C0F9013197F1F79150C9F72C9A3C
:1026100004C00E946B122C9A91E0892F0895CF93E9
:10262000C82F2C981B9B10C061E070E080E090E008
:102630000E94802780910C01811102C080E01AC0A5
:10264000815080930C01EECF8C2F0E946B12C82F0B
:102650001B9B0EC061E070E080E090E00E9480274C
:1026600080910B01882351F3815080930B01F0CFAF
:102670002C9A8C2FCF91089586E30E940F1361E06E
:1026800070E080E090E00C948027EE988CEB9CE169
:1026900090931E0180931D018091C70281110E94B9
:1026A0003C1310924C0410924E0410924D04089565
:1026B000CF93DF930E943C13CEEFCF3F91F084E3A2
:1026C0000E940F13DFEFDC0F8077803171F4C111AE
:1026D00008C081E191E00E94362687E093E00E94E5
:1026E00051262598DF91CF91089561E070E080E058
:1026F00090E00E948027CD2FE0CF81E991E1909377
:102700001E0180931D0180916A008F7C80618093FF
:102710006A00EE9A8091C70281110C9458130895B3
:1027200090ED980F9A3070F09FE9980F963010F462
:1027300099EA05C09FEB980F963018F499EC980F22
:1027400001C0982F892F0895FC0187A98730A9F42B
:1027500023A934A91216130684F492A9492F50E034
:1027600020AD30E021503109421753078CF59F5FAF
:1027700092ABDF01A90FB11D1C9295A9492F50E022
:10278000282F30E02F5F3F4F241B350B1216130606
:1027900024F401C0660F2A95EAF722A9DF01A20FEF
:1027A000B11D2C91622B6C9323A934A92F5F3F4F4D
:1027B00034AB23AB282F082E000C330B241B350B16
:1027C00037FD02C0891B01C087E087AB81E0089517
:1027D00080E00895CF93DF93FC01EE57FF4F4081D7
:1027E000469FD001479FB00D1124FD0123E0F695CF
:1027F000E7952A95E1F7EC01CB57DF4F288130E0D0
:10280000E217F3070CF52297288130E0A770BB2769
:1028100002C035952795AA95E2F7E80FF91F308198
:10282000232330E058E0541B469F402D112447706D
:10283000541B02C0359527955A95E2F7FC01EA57DB
:10284000FF4F2083822F01C08FEFDF91CF9108953A
:102850000F931F93CF93DF93DC0150968C91509789
:10286000882309F46BC0FD0136969D01225F3F4F1E
:1028700011922E173F07E1F7411101C0482F262F73
:1028800030E035952795E42FF0E0F595E79560FF6A
:1028900017C0ED01C955DF4F8881281728F4ED01D5
:1028A000C20FD31F9AA101C090E0892F8F70ED0154
:1028B000C80FD11D8E818F5F8E832F5F3F4F01C068
:1028C00090E08D0109551F4F622F70E06E177F0752
:1028D000F0F4E8018881281720F4ED01C60FD71F16
:1028E0009AA1C92FD0E034E0D595C7953A95E1F784
:1028F000CA0FDB1F8E818F5F8E83892F8F70ED0152
:10290000C80FD11D8E818F5F8E832F5FDDCF40FF7B
:1029100015C0ED01C955DF4F8881E81718F4EA0F9B
:10292000FB1F92A1E92FF0E084E0F595E7958A95E9
:10293000E1F7EA0FFB1F86818F5F8683DF91CF91DE
:102940001F910F910895CF93DF93FC01DC01A354F5
:10295000BF4F1C9211961C9212A25D971C92119669
:1029600011961C921E92149687E08C93108A118EF9
:10297000108E59968FEF8C938083EF01C355DF4FF4
:10298000A95BB109CF010E96199219921D92A81751
:10299000B907D1F7138A86E990E0978B868BDF0120
:1029A000A755BF4F40E050E060E87EE34D935D9354
:1029B0006D937C931397118A148A158A57961C92EB
:1029C000128A11A210A283E08583DF91CF9108952E
:1029D0003F924F925F926F927F928F929F92AF92AF
:1029E000BF92CF92DF92EF92FF920F931F93CF93FC
:1029F000DF93DC0154961C925497662309F406C1B8
:102A000050962C915097222309F400C130E0A62E55
:102A1000B12CA216B3069CF0DF91CF911F910F91BC
:102A2000FF90EF90DF90CF90BF90AF909F908F90EE
:102A30007F906F905F904F903F900C94A314EC01A7
:102A40008C010E551F4FF80120813181A216B3066B
:102A500008F0BEC07C01F2E2EF0EF11CFC01EF5564
:102A6000FF4FC9010197A816B90641F41AA21082B6
:102A7000D8011D921C9287E0359668C02D01B4EAFA
:102A80004B0E511CD2014C91649F3001112453E034
:102A9000769467945A95E1F7362C842E912C68E051
:102AA000C62ED12CC601B4010E946837C5010E9410
:102AB0005437009709F44CC0489F802D112498E0AA
:102AC000981BD08037013D14D8F4BE01630D711DF1
:102AD000DB0193964C91939750E0092E02C05595D7
:102AE00047950A94E2F792966C91082E01C0660F02
:102AF0000A94EAF7462BD3014D933D013394E3CF7B
:102B00002A193B09D8012D933C93829E6001839E34
:102B1000D00C929ED00C1124C60168E070E00E9497
:102B20006837DE01AA55BF4F882321F097E0981B34
:102B3000892F01C087E08C93C6018819990997FDF8
:102B4000079623E0959587952A95E1F7808322C023
:102B5000408146194083772450E04F5F5F4FB701B3
:102B6000660D771DC7010E94B439F201608170E0E3
:102B7000C6010E946837669D9001679D300D769D65
:102B8000300D1124D8018D919C911197821B930BCC
:102B90008D939C9381E08C8BF80160817181688BAF
:102BA000662399F0772761507109C7010E94EA13E3
:102BB000FE01E855FF4F8081880F990B83559F4F89
:102BC0008C0F9D1F99A388A321C019A218A21EC013
:102BD00089E291E00E94EA2386E192E00E94EA23E2
:102BE0006AE070E08A2DDF91CF911F910F91FF90E5
:102BF000EF90DF90CF90BF90AF909F908F907F909D
:102C00006F905F904F903F900C949623DF91CF91FF
:102C10001F910F91FF90EF90DF90CF90BF90AF90FA
:102C20009F908F907F906F905F904F903F9008950E
:102C3000FC0180819181892B51F482819381892BC0
:102C400031F48481958121E082278170089580E0AC
:102C50000895CF93C82F803130F46AE070E080E0AF
:102C600090E00E94A92360E170E08C2FCF910C943A
:102C70009623CF93DF93D82F8EEF8D0F8E33F8F4FA
:102C8000C62F0E947112D43151F48C2F807790E0BE
:102C900024E0959587952A95E1F780930A0183E2D0
:102CA00092E00E94EA238D2F0E9429168C2F0E9409
:102CB000291689E292E0DF91CF910C94F023DF9105
:102CC000CF9108951F920F920FB60F9211242F9358
:102CD0003F934F935F936F937F938F939F93AF93A4
:102CE000BF93EF93FF93E091C202F091C302099565
:102CF000FF91EF91BF91AF919F918F917F916F91D4
:102D00005F914F913F912F910F900FBE0F901F90A9
:102D10001895CF93DF9388EC93E00E94362689E4E0
:102D200092E00E94362686EC93E00E945126C0E095
:102D3000D0E0CE010E9441230E9429168CEC92E043
:102D40000E9436268C2F8F708F3021F489E292E01A
:102D50000E94F0232196C833D10559F789E292E009
:102D6000DF91CF910C94F023CF93DF932C981B9B92
:102D70000EC061E070E080E090E00E9480278091CA
:102D80000F01882399F0815080930F01F0CF8EE7D7
:102D90000E946B12C0E3D0E0CE010E9441230E944A
:102DA0006B122196C833D105B9F72C9ADF91CF91D8
:102DB0000895CF93DF938EEB93E00E9436262C9AF2
:102DC00088E390E0FC013197F1F72C980197F1F737
:102DD0002C9A86E590E00197F1F780EB93E00E9452
:102DE000362680E30E940F1386EA93E00E9436267F
:102DF0006AE070E080E090E00E9480272C988FE9E4
:102E000093E00E94362681E891E00E94362689E907
:102E100093E00E9436261B9B0EC061E070E080E0CC
:102E200090E00E948027809110018823C1F1815099
:102E300080931001F0CF80E40E946B12C2E0D0E0DA
:102E4000CE010E9441230E946B1284E192E00E9415
:102E5000EA232196CB32D10599F72C9A80E190E0B4
:102E60000197F1F784E190E00E944123807790E0A0
:102E700024E0959587952A95E1F780930A010E94B1
:102E8000B41684E993E00E94512661E070E080E08E
:102E900090E00E948027DF91CF910C945813DF912E
:102EA000CF9108952F923F924F925F926F927F92AF
:102EB0008F929F92AF92BF92CF92DF92EF92FF924A
:102EC0000F931F93CF93DF93CDB7DEB7C95AD1408D
:102ED0000FB6F894DEBF0FBECDBF0E944513CF5F83
:102EE000DE4F19821882C150D14081E0C85EDE4FAA
:102EF0008883C851D140C75EDE4F19821882C951FC
:102F0000D140C05DDE4F8883C053D140CF5CDE4FDF
:102F100019821882C153D140C85BDE4F8883C854E0
:102F2000D140C75BDE4F19821882C954D140C05AC4
:102F3000DE4F8883C056D140CF59DE4F19821882A8
:102F4000C156D140C858DE4F8883C857D1409E0132
:102F50002F5F3F4F790180E091E0D901FC011D9284
:102F60003197E9F7CB57DE4F39832883C558D140D5
:102F7000CC24CA9408EC12E033243A94212CF1E0DA
:102F8000CB56DE4FF883C559D14088E1D82E2E01AB
:102F90005394D8018C91833509F056C011968C91C9
:102FA000833459F43394E1E0F1E0EC0FFD1FD39C3E
:102FB000E00DF11D1124128221C08D3471F433947F
:102FC000E1E0F1E0EC0FFD1FD39CE00DF11D1124B9
:102FD000B1E0B2838AED94E026C08235A9F433943F
:102FE000E1E0F1E0EC0FFD1FD39CE00DF11D112499
:102FF00022E022838FEC94E00E945126CB56DE4FD4
:103000001882C559D14011C08E3479F43394E1E06F
:10301000F1E0EC0FFD1FD39CE00DF11D112433E016
:1030200032838BEB94E00E945126311031C188EA43
:1030300094E00E94512643E050E068EC72E088E2A0
:1030400093E00E94F71D34C08035D9F5D80112965F
:103050008C9112978D3309F01BC111968C91B0EDB4
:10306000BB2EB80EB7E0BB1508F412C14AE050E021
:10307000BE016B577E4FC80103960E9474332CE04B
:10308000239DF0011124EB0DF11DEE0FFF1FA1E0B8
:10309000B1E0AC0FBD1FEA0FFB1F708767838AE9A1
:1030A00094E00E9451263110F3C0C8010E94EA2327
:1030B000CB57DE4FF982E882C558D14000E010E0DE
:1030C000E7C0823511F5F80181818D3309F0E0C048
:1030D0004AE050E0BE016B577E4FC80102960E9445
:1030E0008A34B62EE1E0F1E0EC0FFD1FD39CE00D39
:1030F000F11D1124678B89E894E00E9436266AE06E
:1031000070E08B2D0E945D26CECF8434D1F5D8019E
:1031100011968C918D3309F0BBC088248394982C30
:103120008C0E9D1ED39C800C911C11245801B2E082
:10313000AB0EB11CF401B482A382A201401B510B5F
:103140004D5F5F4F6BE370E0C80103960E949E39AC
:103150003C01CB57DE4F99838883C558D140D401B9
:1031600016969C938E93159784E794E00E943626DA
:10317000C5010E94EA238EE694E00E943626C30130
:1031800085C08334E9F4F80181818D3309F080C072
:103190004AE050E0BE016B577E4FC80102960E9484
:1031A0008A34E1E0F1E0EC0FFD1FD39CE00DF11D4E
:1031B0001124718360838DE594E00E94512668C0DC
:1031C000863409F065C0D80111968C918D3309F0D1
:1031D0005FC0CB57DE4F88819981C558D140801B95
:1031E000910B5C01B1E0AB1AB108B7FC5C01B5947E
:1031F000A7942A2C8FEF8A0D853008F049C0809162
:10320000C702882309F444C08AE494E00E94362669
:103210006AE070E08A2D0E945D26C558DE4F188254
:10322000CB57D1404E01E1E88E1AEEEF9E0A5801CD
:10323000F2E0AF0EB11C712C4DE0642E670C60E81B
:10324000862D0E949012D4018D934D01F50181913C
:1032500091915F01C758DE4F99838883C957D14048
:1032600040E150E060E070E0CE0187589E4F0E9440
:103270007433862D0E947112CE0187589E4F0E9492
:10328000EA2373947214C0F289E292E00E94F02360
:10329000CB57DE4F88819981C558D140081719074F
:1032A00029F48FE394E00E94512667C0E816F906DE
:1032B00039F00196CB57DE4F99838883C558D140AA
:1032C000CB57DE4F08811981C558D140912CCB577F
:1032D000DE4FA880B980C558D140A90CB11CCB578E
:1032E000DE4FB982A882C558D1400E94C82697FDFA
:1032F0000DC0D5018C93C918CB57DE4FE881F981F9
:10330000C558D14080818B3361F413C08AE394E0C7
:103310000E94512680E394E00E94362688E294E0E1
:103320001AC08A3009F40AC3CC2029F09924939456
:10333000CECFC1101DC084E592E00197F1F78E0158
:1033400013950E94C82697FF09C080E394E00E946D
:1033500036268FE194E00E945126F4C28A3091050E
:10336000A1F3F70181937F01E017F10751F7EDCF4A
:1033700011820115110509F00CCE8091C702882336
:1033800031F18BE30E94FC12811107C081E191E0D1
:103390000E94362683EE93E016C00E943C131EEF77
:1033A0001F3FA1F085E30E940F130FEF010F8077FD
:1033B000803209F0BBC2111109C081E191E00E9485
:1033C00036268FEC93E00E94512601C0259ACD5FEE
:1033D000DE4F8881C350D140811107C0C85EDE4FE7
:1033E0001881C851D140111101C011E021E030E035
:1033F000C157DE4F39832883CF58D14081E091E017
:103400008C0F9D1F38E1339D800D911D1124DC012F
:103410001296CC55DE4FB983A883C45AD140FC0123
:103420007796CA55DE4FF983E883C65AD1409C018E
:103430002D5F3F4FC855DE4F39832883C85AD1408E
:10344000C157DE4F8881CF58D1408150811708F095
:1034500032C28AE194E00E9436266AE070E0C157E9
:10346000DE4F88819981CF58D1400E94A92385E2FF
:1034700092E00E94EA236AE070E0812F0E94962386
:10348000CC55DE4FA881B981C45AD1408C9183308C
:10349000E9F58EE792E00E94F02300E0CA55DE4F86
:1034A000E881F981C65AD140808190E0202F30E038
:1034B000281739077CF0CB56DE4FF881C559D1402B
:1034C000FF2309F4EAC161E070E080E090E00E942F
:1034D0008027E3C1C855DE4FA881B981C85AD140C1
:1034E0006D917C91CE0187589E4F0E947E1FCE0128
:1034F00087589E4F0E940428C758DE4F88819981C3
:10350000C957D1400E94EB320F5FC8CF00E083E182
:1035100094E00E9436266AE070E0802F0E94962395
:1035200085E292E00E94EA236AE070E0832D0E9427
:10353000962389E094E00E943626B8E1B09F70019E
:103540001124CC24C394DC2CCC0EDD1ECE0CDF1C4D
:103550005601E7E1AE0EB11C6AE070E0D601579665
:103560008C910E945D26F6018281823009F08CC028
:10357000912CC557DE4FB982A882CB58D140F7E0D5
:10358000EF0EF11C21E031E02C0F3D1F2E0D3F1DF1
:10359000C357DE4F39832883CD58D140C6010596E5
:1035A000CF56DE4F99838883C159D140D6011396F7
:1035B000C957DE4FB983A883C758D140C557DE4FDE
:1035C000E881F981CB58D1408081981608F05FC11D
:1035D000CF56DE4FA881B981C159D1400D90BC9121
:1035E000A02DC757DE4FB983A883C958D140C9570A
:1035F000DE4FE881F981C758D140C080D1800E9458
:103600005B272B013C017601F701C757DE4F28816C
:103610003981C958D140E216F30668F53FEFE31A45
:10362000F30A80818053C357DE4FE881F981CD587A
:10363000D140E80FF11DE80FF11DA080B1806501B8
:10364000B7FE04C0CC24DD24CA18DB080E945B2727
:103650006415750586059705C8F3B7FE02C02D9859
:1036600001C02D9AC601DD0CAA0BBB0B480E591EDA
:103670006A1E7B1EC9CF0E945B27641575058605EF
:103680009705C8F393949ACF813009F000C1E12CDB
:10369000C357DE4FD982C882CD58D140C056DE4FC5
:1036A000B982A882C05AD140C6010596CE55DE4FD8
:1036B00099838883C25AD140D6011396CA56DE4FE9
:1036C000B983A883C659D140C056DE4FE881F9813D
:1036D000C05AD1408081E81608F0D9C0C357DE4FE8
:1036E000A881B981CD58D140CD90DC90CE55DE4F28
:1036F000E881F981C25AD1400190F081E02DC8568D
:10370000DE4FF983E883C859D140CA56DE4FA881FD
:10371000B981C659D1407C901196FC900E945B27DC
:103720004B015C01C957DE4F7882C758D140C8575A
:10373000DE4FF882C858D140C601DD0CAA0BBB0B86
:10374000CF56DE4F88839983AA83BB83C159D1406A
:10375000880F991FAA1FBB1FC656DE4F8883998307
:10376000AA83BB83CA59D140C856DE4FA881B9810C
:10377000C859D140C957DE4FE881F981C758D140B7
:10378000EA17FB0708F081C08191C957DE4FF98322
:10379000E883C758D1408A3314F097E301C090E31F
:1037A000891B24E030E0C557DE4F39832883CB588E
:1037B000D14038E0C757DE4F3883C958D140A82FD1
:1037C000880FBB0BC256DE4FB983A883CE59D140B8
:1037D00024013501F12CC757DE4FB881C958D140BB
:1037E000CB2ED12CC256DE4FE881F981CE59D14083
:1037F000CE22DF22F11004C0C114D10421F405C08F
:10380000C114D10411F42D9801C02D9ACF56DE4F6A
:1038100088819981AA81BB81C159D140480E591E26
:103820006A1E7B1E0E945B27641575058605970539
:10383000C8F3F39492E0F912DDCFC656DE4F8881CB
:103840009981AA81BB81CA59D140880E991EAA1EAE
:10385000BB1EC757DE4F9881C958D1409695C757B0
:10386000DE4F9883C958D140C557DE4FA881B98132
:10387000CB58D1401197C557DE4FB983A883CB5899
:10388000D140AB2B09F0A4CF6FCFE3941DCF2D987F
:103890000F5F301608F03BCE0ECEC157DE4FE881E9
:1038A000F981CF58D1403196C157DE4FF983E88373
:1038B000CF58D140C5CD2220C1F087EF93E00E94C0
:1038C00036267E01F1E8EF1AFEEFFF0A10E0D7017D
:1038D0006D917D018DE0810F0E9471121F5F211299
:1038E000F6CF89E292E00E94F02388EC92E00E94F9
:1038F000EA23CE0101960E94EA23E1E0F1E0EC0F19
:10390000FD1FB8E13B9EE00DF11D11248281833043
:1039100051F08CE793E00E94A31410924C04109293
:103920004E0410924D040E947D130CC061E070E0C3
:1039300080E090E00E948027102F32CDCC2009F447
:10394000FACC1BCDC755DE4F0FB6F894DEBF0FBEC5
:10395000CDBFDF91CF911F910F91FF90EF90DF903E
:10396000CF90BF90AF909F908F907F906F905F901F
:103970004F903F902F9008950895409124035091C7
:103980002503209122033091230342175307B4F4F7
:103990009091E8009570E1F39091E80092FD19C0D4
:1039A0008093F100809124039091250301968F73F9
:1039B0009927892B19F48EEF8093E80080912403D6
:1039C000909125030196909325038093240381E031
:1039D000089580E00895DF92EF92FF920F931F9376
:1039E000CF93DF93D82EF92EE42E062F10E0C801D6
:1039F0000196880F0E94BD1C83E00E94BD1CCD2D46
:103A0000DF2D0C0F1D1FC017D10789F0E7FE03C083
:103A1000FE01849101C088810E94BD1CF82E80E0C7
:103A20000E94BD1C8F2121968111EDCF01C081E044
:103A3000DF91CF911F910F91FF90EF90DF9008954C
:103A4000DF92EF92FF920F931F93CF93DF93D82EC5
:103A50008A017B01E40EF51EEB01CE15DF0571F046
:103A6000D7FE03C0FE01849101C088810E94BD1C65
:103A700021968111F2CF8FEF9FEF01C0C801DF9136
:103A8000CF911F910F91FF90EF90DF9008956150BB
:103A900030F02091F100FC0120830196F8CF289AA4
:103AA00084E6809303050895CF92DF92EF92FF9210
:103AB0000F931F93CF93DF936C017A018B01C0E0CA
:103AC000D0E0CE15DF0581F0D8016D918D01D601D2
:103AD000ED91FC910190F081E02DC6010995892BB3
:103AE00011F02196EECF7E01C701DF91CF911F919A
:103AF0000F91FF90EF90DF90CF900895CF93DF93D9
:103B00001F92CDB7DEB76983DC01ED91FC91028095
:103B1000F381E02D41E050E0BE016F5F7F4F0995DA
:103B20000F90DF91CF91089583E08093E900809119
:103B3000F200882319F08AE38093E8000895FC01DD
:103B40008485958597FD0BC09FB7F89482E080939C
:103B5000E9008091F2009FBF90E0019608959FB721
:103B6000F89482E08093E9008091F2009FBF90E09A
:103B70000895089580E090E00895FC01CB01642F42
:103B80000994FC0109940E948D390F931F93CF93E0
:103B9000DF931F92CDB7DEB782E0898342E450E025
:103BA0006CEE74E080E80E94201D0E944727DC0133
:103BB00012960D911C9113970115110589F0D801EA
:103BC000ED91FC910280F381E02DBE016F5F7F4F8C
:103BD000C801099597FD04C0F80100851185ECCF57
:103BE00089810F90DF91CF911F910F9108958F924E
:103BF0009F92AF92BF92CF92DF92EF92FF920F937C
:103C00001F93CF93DF936C017B018A0180910701A1
:103C1000882309F45CC080910405882309F457C007
:103C20008091C00280FF05C08091E0008260809397
:103C3000E000E801B12C8AEFA82E93E0892E2AE358
:103C4000922E209711F4BB20D9F10E9408278111F0
:103C50000AC0AA94AA20D9F161E070E080E090E067
:103C60000E948027EECF282F30E0C217D3070CF434
:103C70008C2F9FB7F8948092E9002091E80025FFEF
:103C80001DC0282F30E0C21BD30BF701815020F05C
:103C900041914093F100FACFE20EF31EBB2019F0E0
:103CA0009092E8000AC08091E80085FD07C09092DC
:103CB000E800BB24B394209709F0B12C9FBFC1CF7B
:103CC0005D9A84E6809327031016110644F081E084
:103CD00090E0F6019383828380E090E001C0C80108
:103CE000DF91CF911F910F91FF90EF90DF90CF90D8
:103CF000BF90AF909F908F9008950E94082790E00A
:103D000008950F931F93CF938C01C62F0E9408270D
:103D10008823E1F34C2F50E0B80188E293E0CF9183
:103D20001F910F910C94F71D0F931F93CF93DF9367
:103D30001F92CDB7DEB78C01FC018485958597FF76
:103D40000EC0CE0101960E941927019719F48981AE
:103D500090E002C08FEF9FEFF80195878487F8010C
:103D6000848595850F90DF91CF911F910F910895D4
:103D7000CF93DF931F92CDB7DEB7FC018485958585
:103D800097FD05C02FEF3FEF358724870BC0CE018D
:103D900001960E941927019719F4898190E002C0C9
:103DA0008FEF9FEF0F90DF91CF9108950F931F93A7
:103DB000F8940E945B270091780310917903209179
:103DC0007A0330917B03AB01BC01401B510B620BAA
:103DD000730B22E02093C60280E89EE39093C50215
:103DE0008093C402909387008093860082E1809341
:103DF000810041303DE753076105710588F16699FF
:103E000003C02FEF32E802C021E03DE780914C046F
:103E10008A35D8F480914C048F5F80934C04809154
:103E20004D0460914B040E94483790934D04E091FB
:103E30004D04F0E0EE0FFF1FE15BFB4F3183208369
:103E400080914D048F5F80934D040E945B276093A7
:103E500078037093790380937A0390937B0338C03F
:103E6000413187E258076105710590F181E19DE7D5
:103E7000A0E0B0E0841B950BA60BB70B32E0880FD7
:103E8000991FAA1FBB1F3A95D1F7009731E0A307EE
:103E9000B10520F421E02093C60209C02093C60298
:103EA00023E0B695A795979587952A95D1F7909396
:103EB000C5028093C4028091C4029091C502909380
:103EC0008700809386008091C60280618093810084
:103ED0008091D6020E9469261092D6027894809131
:103EE000210391E0980F90932103811104C01F9149
:103EF0000F910C94EE111F910F910895EF92FF9284
:103F00000F931F93CF93DF93EC01198218821B82CA
:103F10001A821D821C8261157105B9F17B01FB01BA
:103F200001900020E9F731978F01061B170BB801AC
:103F30006F5F7F4F80E090E00E94C738009759F094
:103F4000998388831B830A832C813D81232B81F4F1
:103F5000FC0110820DC088819981009711F00E94A8
:103F6000EB32198218821D821C821B821A820DC0BC
:103F70001D830C83B70188819981DF91CF911F91B7
:103F80000F91FF90EF900C94C639DF91CF911F9164
:103F90000F91FF90EF9008951F920F920FB60F921E
:103FA00011242F933F934F935F936F937F938F933E
:103FB0009F93AF93BF93EF93FF93E0911D01F09117
:103FC0001E010995FF91EF91BF91AF919F918F9144
:103FD0007F916F915F914F913F912F910F900FBE05
:103FE0000F901F9018951F920F920FB60F921124E9
:103FF0002F933F934F935F936F937F938F939F93F1
:10400000AF93BF93EF93FF93E0911B01F0911C01DD
:104010000995FF91EF91BF91AF919F918F917F9102
:104020006F915F914F913F912F910F900FBE0F9025
:104030001F9018951F920F920FB60F9211242F9375
:104040003F934F935F936F937F938F939F93AF9320
:10405000BF93EF93FF93E0911901F0911A01099535
:10406000FF91EF91BF91AF919F918F917F916F9150
:104070005F914F913F912F910F900FBE0F901F9026
:1040800018951F920F920FB60F9211242F933F9302
:104090004F935F936F937F938F939F93AF93BF9350
:1040A000EF93FF93E0911701F09118010995FF91AB
:1040B000EF91BF91AF919F918F917F916F915F91A0
:1040C0004F913F912F910F900FBE0F901F90189519
:1040D0001F920F920FB60F9211242F933F934F937D
:1040E0005F936F937F938F939F93AF93BF93EF9360
:1040F000FF93E0911501F09116010995FF91EF9161
:10410000BF91AF919F918F917F916F915F914F91EF
:104110003F912F910F900FBE0F901F9018951F92F7
:104120000F920FB60F9211248F939F938091E1000D
:104130009091E100937F9093E10083FF0FC0109274
:10414000E90091E09093EB001092EC0092E39093E1
:10415000ED001092040598E09093F00082FF20C0DB
:1041600093E09093E9009091F200992319F09AE37B
:104170009093E80090912703992339F090912703B9
:10418000915090932703992389F1909103059923E6
:1041900039F090910305915090930305992341F1D3
:1041A00084FF10C08091E2008E7E81608093E200E7
:1041B0008091E1008F7E8093E1008091C0028E7E2D
:1041C000806111C080FF16C08091E2008E7E806108
:1041D0008093E2008091E1008E7E8093E1008091E7
:1041E000C0028E7E81608093C00204C05D98CDCFF6
:1041F0002898D6CF9F918F910F900FBE0F901F9050
:1042000018951F920F920FB60F921124CF92DF9242
:10421000EF92FF920F931F932F933F934F935F93D0
:104220006F937F938F939F93AF93BF93EF93FF937E
:10423000CF93DF93CDB7DEB76C97DEBFCDBF1092C3
:10424000E9008091E80083FFFBC168E0CE0145965C
:104250000E94471D82EF8093E8008D8987FF05C08B
:104260009091E80090FFFCCF03C09EEF9093E80090
:10427000982F907609F0C6C09E894F89588D2F8956
:10428000F88C91110CC0803829F48091C102809380
:10429000F10002C01092F1001092F10045C191307E
:1042A00051F4811141C14130510509F03DC1809166
:1042B000C1028D7F0BC0933061F4811135C1413053
:1042C000510509F031C18091C10282608093C10221
:1042D0002BC1953049F48091E80080FFFCCF822FFC
:1042E00080688093E30020C1963009F05EC00B8D9A
:1042F0001C8D22E01092E9001092250310922403F5
:10430000F21232C010922303109222030E94C51DA4
:1043100099E0BE016F5F7F4FDB01E92F1D92EA95A7
:10432000E9F79983FA8291E09E8390EA98879AEF61
:1043300099872091240330912503275F3F4F3C83C9
:104340002B838D831092E900109225031092240391
:10435000109323030093220349E050E080E00E9481
:10436000201D0E94C51DE0C010932303009322036B
:104370000E944727DC0112960D911C91139701159D
:10438000110509F4BBC0D801ED91FC910480F581C1
:10439000E02DBE016B5E7F4FC8010995009709F0C3
:1043A000C7C0F80100851185EACF973009F445C1EF
:1043B000983021F481E08093F100B6C0993009F083
:1043C000B3C0837009F039C1E5E3F1E081E031E089
:1043D00096E32081211109C08EE78093EA001092B4
:1043E000EA008F89809304059FC08093E900309391
:1043F000EB0021912093EC009093ED008F5F8730CC
:1044000041F7EACF8B8D9C8D1092E9001092250325
:10441000109224039093230380932203898D8111AA
:1044200053C08E899D89913A49F4813209F005C1C2
:1044300047E050E060E071E080E0BBC0913209F0FD
:10444000FCC0833269F48F89988DA0E0B0E080933E
:10445000110190931201A0931301B093140164C051
:10446000803269F48091E80082FFFCCF67E080E051
:1044700091E00E94471D8BEF8093E80055C0823287
:1044800009F052C08F8980930701EEEFFFE7859115
:1044900094918B3F9C4D19F0E0E0F8E002C0EEEF04
:1044A000FAE08091000190910101A0910201B09188
:1044B0000301803B9440A105B10509F09EC08091A5
:1044C000070180FF79C099C00E944727FC01028143
:1044D00013810115110509F4B0C0D801ED91FC91CB
:1044E0000190F081E02DBE016B5E7F4FC801099500
:1044F00081111AC0F80100851185EBCFF1E0FF169C
:1045000009F44EC0F3E0FF1298C08F89882309F4A4
:104510004AC0823089F440E86DE080E595E00E9471
:10452000EB1C882309F489C08EEF8093E80088C0D3
:1045300018161906CCF381C0813029F440E86BE0ED
:1045400084E495E0ECCF833009F077C00E944727E0
:10455000DC011296ED90FC9013978E010F5F1F4FB8
:104560006801E114F10479F0D701ED91FC91068026
:10457000F781E02DB801C7010995080F111DF7015A
:10458000E084F184EECFD8011C92F6010190002066
:10459000E9F73197BF016C197D0940E0C601BFCF33
:1045A00062E375E002C06EE275E0FB01449150E009
:1045B00080E80E94201DB8CFEE3F2AE0F20751F0BC
:1045C000808191818737A7E79A0721F09093FF0AAE
:1045D0008093FE0A87E797E791838083809160004C
:1045E000809326039BE088E10FB6F894A89580930A
:1045F00060000FBE9093600097CF808191818737D4
:10460000974709F091CFA8958091600088618093C9
:1046100060008091260380936000EE3FBAE0FB07C4
:1046200039F08091FE0A9091FF0A918380837CCFBC
:104630001092FF0A1092FE0A77CF81E28093EB007E
:104640006C960FB6F894DEBF0FBECDBFDF91CF9151
:10465000FF91EF91BF91AF919F918F917F916F915A
:104660005F914F913F912F911F910F91FF90EF908C
:10467000DF90CF900F900FBE0F901F9018950C9465
:10468000B7360C94AF36009769F0FC01019000201A
:10469000E9F73197AF01481B590BBC0188E293E061
:1046A0000C94F71D80E090E008958F929F92AF9256
:1046B000BF920F931F93CF93DF93CDB7DEB7A19730
:1046C0000FB6F894DEBF0FBECDBF19A2423008F47A
:1046D0004AE08E010F5D1F4F842E912CA12CB12C2E
:1046E000A50194010E94D536E62FB901CA010150F7
:1046F0001109EA3014F4E05D01C0E95CD801EC93E3
:10470000232B242B252B61F7C8010E944323A1965C
:104710000FB6F894DEBF0FBECDBFDF91CF911F91D2
:104720000F91BF90AF909F908F900895AB01682F2D
:104730004115510521F488E293E00C947E1D70E050
:1047400080E090E00C945523682F88E293E00C946D
:104750007E1DCF92DF92EF92FF92CF93DF93611590
:10476000710559F4682F88E293E0DF91CF91FF90B3
:10477000EF90DF90CF900C947E1D6C01990FEE08A6
:10478000FF086A307105D9F4F7FE17C08DE20E9468
:10479000A423EC0166277727CB016C197D098E09CC
:1047A0009F094AE00E9455238C0F9D1FDF91CF91F6
:1047B000FF90EF90DF90CF9008954AE001C0462F20
:1047C000C701B601DF91CF91FF90EF90DF90CF90BE
:1047D0000C9455230C94432387E292E00C944323DA
:1047E000CF93DF930E944323EC010E94EC238C0FB4
:1047F0009D1FDF91CF9108954F925F926F927F92AC
:104800008F929F92AF92BF92CF92DF92EF92FF92E0
:10481000CF93DF9389E292E00E94F0238AE292E054
:104820000E94EA23E0913B04E7FDD4C0EE0FFF0BAA
:10483000E75DFB4F6AE070E0808191810E94A923CF
:1048400081E392E00E94EA23E0913B04EE0FFF0B2C
:10485000E75DFB4F60817181072E000C880B990B7F
:104860000E9492356B017C01E0917C03EE0FFF0BFF
:10487000E75DFB4F60817181072E000C880B990B5F
:104880000E9492359B01AC01C701B6010E94153808
:104890006B017C014B015C019B01AC010E94C238A1
:1048A000882319F080E492E01AC026013701E894C9
:1048B00077F82FEF3FEF4FE75FE7C301B2010E94A8
:1048C000C23881110FC02FEF3FEF4FE75FE7C30101
:1048D000B2010E948B3518162CF484E492E00E94F9
:1048E000432374C02FEF3FEF4FE75FE4C701B601EA
:1048F0000E94BD3818161CF488E492E0F0CF2FEF28
:104900003FEF4FE75FECC701B6010E948B3587FD93
:10491000F3CF20E030E0A901C701B6010E948B353A
:1049200087FF09C08DE20E94A42346015701B7FA10
:10493000B094B7F8B0942AE037ED43EA5BE3C501E1
:10494000B4010E94A9374B015C010E948E386B01B3
:104950007C010E9490359B01AC01C501B4010E940D
:10496000A8374B015C014AE0C701B6010E945523FC
:104970008EE20E94A42320E030E040E251E4C50131
:10498000B4010E94F1354B015C010E948E386B012D
:10499000E12CF12C4AE0C701B6010E945523C70162
:1049A000B6010E9490359B01AC01C501B4010E9483
:1049B000A83720E030E040E251E40E94F1350E9447
:1049C0008E3880E090E04AE00E9455238CE492E02B
:1049D0000E94EA238EE492E00E94EA23E0917C03A5
:1049E000E7FD0BC0EE0FFF0BE75DFB4F6AE070E0E9
:1049F000808191810E94A92304C087E592E00E94F2
:104A0000EA238CE592E00E94EA2360919203709180
:104A1000930380E090E04AE00E94552384E692E010
:104A20000E94EA236AE070E0809139040E94962394
:104A300080E792E00E94EA236AE070E080913A0405
:104A40000E94962383E591E00E94EA2383E792E0A7
:104A50000E94EA23E0919A03F0919B036AE070E0E0
:104A6000808191810E94A9238DE792E00E94EA2330
:104A7000E0919C03F0919D036AE070E08081918158
:104A80000E94A92380E892E00E94EA236AE070E095
:104A900080918D030E9496238BE892E00E94EA2386
:104AA00080913C046AE070E090E00E94A92383E9D1
:104AB00092E00E94EA23809190036AE070E090E027
:104AC0000E94A9230E94EC238EE992E00E94EA232F
:104AD000C0E080918C03C81758F46C2F70E08EE909
:104AE00093E00E94EA13805D0E94A423CF5FF1CF80
:104AF00087EA92E00E94EA238AEA92E00E94EA238F
:104B00006AE070E080918C030E9496238DEA92E027
:104B10000E94F0238FEA92E00E94EA23F12C809118
:104B20003904F81668F589EB92E00E94EA236AE0FE
:104B300070E08F2D0E94962380E992E00E94EA2384
:104B4000CF2DD0E0FE01E458FC4F6AE070E0868192
:104B50000E9496238CEB92E00E94EA23CC0FDD1F8B
:104B6000C75DDB4F88819981009721F06AE070E092
:104B70000E94A9238DEA92E00E94EA23F394CFCF0A
:104B8000DF91CF91FF90EF90DF90CF90BF90AF90EB
:104B90009F908F907F906F905F904F900C94EC233C
:104BA0000F931F93CF93DF93462FC0914504D0916D
:104BB0004604E0914704F091480420914904309163
:104BC0004A0489011595079520FF0BC09E01200F0F
:104BD000311FD9012D913C91E20FF31F0190F0811B
:104BE000E02DBC01CE01800F911FDF91CF911F916D
:104BF0000F9109940F931F93CF93DF930097B9F010
:104C0000EC01FC0101900020E9F731978F01081BAE
:104C1000190B85E494E00E941816811108C0602FDA
:104C2000CE01DF91CF911F910F910C94D02580E0A0
:104C300090E0DF91CF911F910F910895CF93DF9373
:104C40001F92CDB7DEB7898385E494E00E941816E1
:104C5000811106C061E0CE0101960E94D02502C0FC
:104C600080E090E00F90DF91CF9108950F931F9314
:104C7000CF93DF938C01C0E0D0E0F801EC0FFD1F73
:104C80006491662341F088E293E00E947E1D892BA7
:104C900011F02196F2CFCE01DF91CF911F910F91AC
:104CA0000895CF93DF930E943626EC010E94EC23F7
:104CB0008C0F9D1FDF91CF910895CF93DF930E94BA
:104CC0009623EC010E94EC238C0F9D1FDF91CF9166
:104CD0000895E7EBF5E04491E8E9F5E02491E9E790
:104CE000F5E09491992309F452C04423E1F150E096
:104CF000FA013197EF30F105B0F5EA5AFF4F0C9405
:104D00009B37309180003F7707C0309180003F7D16
:104D100003C030918000377F3093800024C034B5C9
:104D20003F7702C034B53F7D34BD1DC03091900047
:104D30003F7707C0309190003F7D03C030919000D5
:104D4000377F309390000FC03091C0003F7703C091
:104D50003091C0003F7D3093C00005C03091C2004B
:104D6000377F3093C200E92FF0E0EE0FFF1FE25AC9
:104D7000FA4FA591B4919FB7F894811104C08C911A
:104D80002095282302C0EC912E2B2C939FBF0895D1
:104D90002FB7F8948091050590910605A09107051D
:104DA000B09108052FBF8093300390933103A093F7
:104DB0003203B093330388E293E00E94B81E97FF5A
:104DC00026C02FB7F8948091050590910605A09113
:104DD0000705B09108052FBF409130035091310372
:104DE0006091320370913303841B950BA60BB70BB4
:104DF00040912C0350912D0360912E0370912F034D
:104E000084179507A607B707B0F28FEF9FEF0895B5
:104E10002FB7F89483E08093E9009091E800892F00
:104E2000807295FF04C09091F20080E4891B2FBF2F
:104E3000089520910405211103C08FEF9FEF08957D
:104E40005FB7F89422E02093E9002091F20030E06F
:104E50001216130614F421E030E0422FFC0184E620
:104E6000415038F0289A809303059091F100919376
:104E7000F7CF2115310521F08091F200882319F038
:104E80005FBFC90108958BE68093E800F9CF809158
:104E9000120581110DC082E080930E0584E080939D
:104EA0000F05109211051092100581E080931205F4
:104EB0008EE095E008953FB7F89480910A059091AF
:104EC0000B05A0910C05B0910D0526B5A89B05C05A
:104ED0002F3F19F00196A11DB11D3FBFBA2FA92F79
:104EE000982F8827820F911DA11DB11DBC01CD01F6
:104EF00043E0660F771F881F991F4A95D1F70895E1
:104F00008F929F92AF92BF92CF92DF92EF92FF92D9
:104F10006B017C010E945B274B015C01C114D10431
:104F2000E104F104F1F00E945B27DC01CB01881958
:104F30009909AA09BB09883E9340A105B10570F300
:104F400021E0C21AD108E108F10888EE880E83E05A
:104F5000981EA11CB11CC114D104E104F10419F77D
:104F6000DDCFFF90EF90DF90CF90BF90AF909F90FC
:104F70008F9008951F920F920FB60F9211242F93C6
:104F80003F938F939F93AF93BF938091050590912B
:104F90000605A0910705B09108053091090526E0A6
:104FA000230F2D3720F40296A11DB11D05C029E85D
:104FB000230F0396A11DB11D2093090580930505BC
:104FC00090930605A0930705B093080580910A0504
:104FD00090910B05A0910C05B0910D050196A11DB6
:104FE000B11D80930A0590930B05A0930C05B09317
:104FF0000D05BF91AF919F918F913F912F910F9090
:105000000FBE0F901F9018959F92AF92BF92CF92B4
:10501000DF92EF92FF920F931F93CF93DF9300D015
:1050200000D000D0CDB7DEB7FC0124813581232B21
:1050300009F48DC08C0168E771E0CE0101960E94F1
:105040007E1FF80184819581C980DA80892B59F00F
:10505000E080F180B601C7010E94CD39009719F0B8
:105060008E199F0902C08FEF9FEFF82EC6010E9494
:10507000EB32FFEFFF1223C068E272E0CE0101962F
:105080000E947E1FF80184819581C980DA80892B76
:1050900059F0E080F180B601C7010E94CD39009738
:1050A00019F08E199F0902C08FEF9FEFF82EC601ED
:1050B0000E94EB32FFEFFF1202C0F801F4802C983F
:1050C0008FE70E946B12E12CEF1488F5CE2CD12CC7
:1050D000F801A480B580CA14DB0448F48081918172
:1050E000009729F0FC01EC0DFD1D808101C080E0DE
:1050F0000E949013982E929480EF982296012F5F31
:105100003F4F2A153B0550F4F801808191810097AB
:1051100029F0FC01E20FF31F808101C080E00E94B2
:105120009013890D0E946B12E394E394CDCF2C9AD7
:1051300018EC60EC85E30E949012833141F461E049
:1051400070E080E090E00E948027115091F7269651
:105150000FB6F894DEBF0FBECDBFDF91CF911F9188
:105160000F91FF90EF90DF90CF90BF90AF909F9006
:105170000895CF93DF93CDB7DEB72C970FB6F89491
:10518000DEBF0FBECDBF789484B5826084BD84B588
:10519000816084BD85B5826085BD85B5816085BD32
:1051A00080916E00816080936E00109281008091EA
:1051B0008100826080938100809181008160809372
:1051C00081008091800081608093800080919100B7
:1051D0008260809391008091910081608093910022
:1051E000809190008160809390008091C1008460E4
:1051F0008093C1008091C10082608093C100809142
:10520000C10081608093C1008091C3008160809360
:10521000C3008091C00082608093C0008091C20072
:1052200081608093C20080917A00846080937A00CC
:1052300080917A00826080937A0080917A008E7FDC
:1052400080937A0080917A00806880937A0010922F
:1052500004051092C1021092C0028091D7008160B3
:105260008093D70080EA8093D80089B58F7E89BD6E
:1052700089B5826089BD09B400FEFDCF61E070E0B0
:1052800080E090E00E9480278091D8008F7C806130
:105290008093D8008091E000807F8093E00080912F
:1052A000E1008E7E8093E1008DE08093E200559ACC
:1052B000209A5D9828988FEF9FEF90933503809305
:1052C0003403109107016AE070E080E090E00E94F2
:1052D00080271123B1F36E983F9A219A229A23983E
:1052E000249A54985C9A80E58CBD2C9A299A2A9825
:1052F0006E982598299A2A9880E090E00E94412390
:10530000833309F008C181E090E00E9441238D3190
:1053100009F001C185EF90E00E94362689E492E011
:105320000E94362683EF90E00E94362683EF90E0BD
:105330000E9436268FEF90E00E944123982F9170B3
:1053400090937F0381FB992790F990937D0382FBD3
:10535000992790F990937E0383FB882780F98093A7
:1053600080038AEC90E00E9451260E9489160E94D8
:10537000D91600910801013011F481EF01C081E3D9
:1053800060E80E949012182F002359F08FEF810FD0
:105390008E3F38F01092080160E881E30E9490127D
:1053A000182F80910801813011F480EF01C080E353
:1053B00060E80E949012082F89E291E00E94362650
:1053C0008DE491E00E94EA2360E170E0812F0E9469
:1053D0005D268DE191E00E9436268DE491E00E94E9
:1053E000EA2360E170E0802F0E945D2611501E3F8D
:1053F00070F089E191E00E94362681E191E00E94FF
:1054000036268AE091E00E94512680E001C081E0CA
:105410008093C7028823E9F08FE992E00E94362644
:1054200089E591E00E9451261E821D8281EC9DE15A
:105430009C838B838B819C81AD81BE818093410451
:1054400090934204A0934304B093440482EF92E10A
:1054500014C01E821D8281EC9DE19C838B838B8115
:105460009C81AD81BE818093410490934204A093BE
:105470004304B09344048FE891E1909340048093F7
:105480003F04259A87E491E00E94512662E370E090
:1054900080E090E00E94802780E18093810010925C
:1054A000800082E08093C60280E89EE39093C5026C
:1054B0008093C402909387008093860082E180935A
:1054C000810086ED9EE19093C3028093C20281E049
:1054D00080936F001E821D828DEB9DE19C838B83E8
:1054E0008B819C81AD81BE81809347049093480459
:1054F000A0934904B0934A0481E89EE19093460446
:10550000809345048091C7028823D9F00E94B0128D
:10551000811117C01BC06FE08FEF90E00E943F2306
:105520008FEC90E00E94512663E380E090E00E94BF
:105530003F236DE181E090E00E943F230E944212F0
:10554000F9CE0E947D1386E391E00AC08FE992E0D4
:105550000E94362681ED91E00E94362687EC91E08C
:105560000E94512680E991E0A0E0B0E080932C03F6
:1055700090932D03A0932E03B0932F039E012F5FD2
:105580003F4F79013E0139E0630E711C72E0872EB6
:10559000912CA12CB12C88E293E00E949F1D892BB5
:1055A00009F411C31091D7021E3049F48BED92E03B
:1055B0000E94362688EC92E00E94F023FDC288E229
:1055C00093E00E94B81EE12FF0E0E853FD4F808386
:1055D0008D30C1F034F48823A9F08A3009F0EFC28D
:1055E00011C0833279F08B3309F0E9C285E691E08E
:1055F0000E94EA236AE070E0812F0E945D260E94EB
:105600005217DAC28091C802873509F414C28CF4AB
:10561000803509F483C034F48F33F9F0833409F40E
:10562000D2C088C2823509F4AAC0863509F47FC089
:1056300081C2823709F4E6C13CF4883509F4B6C06A
:10564000853609F4BAC176C2843709F4A7C00CF4D0
:105650005DC2883709F4BDC16DC28FE30E94A423E7
:105660008EEC92E00E94362686E50E94A4238CEC04
:1056700092E00E94362682E50E94A4238CEC92E000
:105680000E94362684E70E94A4238CEC92E00E94BC
:10569000362688E50E94A4238CEC92E00E943626F0
:1056A00083E50E94A4238CEC92E00E94362680E5DC
:1056B0000E94A4238CEC92E00E94362683E40E9490
:1056C000A4238CEC92E00E94362682E70E94A42359
:1056D0008CEC92E00E94362687E50E94A4238CEC95
:1056E00092E00E94362683E70E94A4238CEC92E08D
:1056F0000E9436268091C702882309F459C188E7A1
:105700000E94A4238CEC92E00E94362685E60E943B
:10571000A4238CEC92E00E9436264AC180E591E0F9
:105720000E94F02384EE93E00197F1F742C287EAEA
:1057300092E00E9436268091C7028823C9F08FE943
:1057400092E00E94362681E792E00E94EA234C997B
:1057500003C086E992E002C081E992E00E94362609
:105760008BE992E00E94362683E591E00E94EA23CD
:105770008CE892E00E94362688E692E0A2C58091ED
:105780001A0590911B05009711F480E295E06AE0FC
:1057900070E0A701481B590BCA016AC00E94EE11B4
:1057A0004AE00E9455230E94EC2303C28091C90263
:1057B000813519F40E944513FCC1853409F0F9C103
:1057C0000E947D13F6C18091C902873459F034F4E8
:1057D0009CEB980F923008F44EC0A3C0833509F4B7
:1057E00083C09FC08AE691E00E94362688E691E059
:1057F0000E94362680917F036AE070E090E00E946C
:10580000A92386E691E00E94362683E691E00E9475
:10581000362688E691E00E94362680917D036AE074
:1058200070E090E00E94A92386E691E00E9436266F
:1058300080E691E00E94362688E691E00E943626B6
:1058400080917E036AE070E090E00E94A92386E6E2
:1058500091E00E94362685E591E00E94EA2388E6E1
:1058600091E00E943626809180036AE070E090E02B
:105870000E94A92398CF9091CA02923591F034F4F6
:10588000933409F096C1EEE7F3E00DC0933531F0A3
:10589000953509F08EC1EDE7F3E005C0EFE7F3E0E1
:1058A00002C0E0E8F3E0853419F481E0808301C0B0
:1058B000108220917D03622F660F90917E0354E049
:1058C000959F90011124262B60917F03262B9091A8
:1058D000800368E0969FC0011124622F682B8FEF30
:1058E00090E00E943F2365C16AE571E08AEC92E096
:1058F0000E94CD39892B09F45CC14AE050E060E098
:1059000070E080ED92E00E947433862F60933D0436
:105910006AE070E00E9496238DE691E00E943626B0
:1059200048C1082E000C990B0E949239892B09F46A
:1059300040C18091CA02082E000C990B0E94923936
:10594000892B09F436C18091C702882309F431C13B
:1059500040E150E060E070E089EC92E00E94743336
:10596000162F8091CB028E3651F48091CC02082EF6
:10597000000C990B0E949239892B09F0D7C31E3372
:1059800008F077C31F3208F072C360E8812F0E94CD
:105990009012082F87ED91E00E94EA23812F0E9448
:1059A000291681E691E00E94EA23802F0E942916A1
:1059B00089E292E00E94F023FCC08091C702882314
:1059C00009F4F7C00E9442120E94D9160E9489165B
:1059D000F0C08091C902082E000C990B0E949239E8
:1059E000892B09F4E6C08091CA02082E000C990B9D
:1059F0000E949239892B09F4DCC08091C702811181
:105A0000C6C3D7C08091C902082E000C990B0E9412
:105A10009239892B09F4CDC08091CA02082E000C5E
:105A2000990B0E949239892B09F4C3C08091C70257
:105A30008111D3C3BEC08091C902833509F040C033
:105A40009091CA029333E1F58091CB02082E000CAD
:105A5000990B0E949239892B09F4ABC040E150E0C8
:105A600060E070E08AEC92E00E947433162F6E338F
:105A700008F09FC0862F0E940F13D82E61E070E0BF
:105A800080E090E00E9480278DE30E940F13082F92
:105A90008FE991E00E943626812F0E94291682E923
:105AA00091E00E9436268D2D82958F700E942916D6
:105AB00089E891E00E943626802F82958F7076CFFC
:105AC000082E000C990B0E949239892B09F471C0A1
:105AD0008091CA02082E000C990B0E949239892BE2
