:100000000C9459010C9424210C94FD200C94810132
:100010000C9481010C9481010C9481010C94810158
:100020000C9481010C9481010C9481010C94810148
:100030000C9481010C94A3210C9481010C948101F6
:100040000C94B3200C9481010C9471210C944B21DD
:100050000C9481010C9481010C9481010C94810118
:100060000C9481010C94810163637265672077723F
:10007000697465206261636B200020726570656140
:1000800074732000207061727420006D736720000B
:10009000746F206C6F6E672000636F72727570747E
:1000A0000073656E6420636D642000544F555400E6
:1000B000627265616B206C6F6F7000616464696E61
:1000C000672073656E64636C6F636B0020656E649C
:1000D0003A006C6F636174696E67206461746120BB
:1000E00073746172743A00416464696E672072656A
:1000F00070656174733A2000416464696E672062C0
:1001000075636B6574007265617272616E676520FC
:10011000626567696E70747200416464696E67201D
:100120007846534B206D6573736167650041646465
:10013000696E672072617700416464696E67206D43
:10014000616E6368657374657200000000002500CD
:1001500028002B0004040404040404040202020224
:10016000020203030303030301020408102040807A
:1001700001020408102001020408102000000008F9
:10018000000201000003040700000000000000005E
:100190004D43004D55003B003D004D53002062692A
:1001A00074732073657400556E737570706F72741C
:1001B00065642073686F727420636F6D6D616E6427
:1001C00000202D20636F6D70696C65642061742060
:1001D0004A756E20323120323032312031373A3494
:1001E000323A34320020444247005620332E352E16
:1001F000302D6465762B3230323130363231205337
:1002000049474E414C6475696E6F200020557365F7
:10021000206F6E65206F662000436F6D6D616E64A8
:1002200020746F206C6F6E673A200020003A0064E3
:10023000756D702C2000646F6E6500496E697420C6
:10024000656570726F6D20746F2064656661756C92
:10025000747320616674657220666C617368002E29
:1002600000454550524F4D0052656164696E6720EC
:1002700076616C7565732066726F6D2000726563C0
:10028000656976657220656E61626C6564005374A1
:10029000617274696E672074696D65726A6F62005D
:1002A000206D622066206120742070726F632000D0
:1002B000CA2111241FBECFEFD8E0DEBFCDBF12E0B0
:1002C000A0E0B1E0E8E9FAE502C005900D92A43C97
:1002D000B107D9F725E0A4ECB2E001C01D92AA3124
:1002E000B207E1F711E0C9E5D1E004C02197FE01B2
:1002F0000E94D72BC835D107C9F70E944E220C9413
:100300004A2D0C940000FC010994FC01CB01642FE0
:1003100009943FB7F8948091E3029091E402A09190
:10032000E502B091E60226B5A89B05C02F3F19F063
:100330000196A11DB11D3FBFBA2FA92F982F882765
:10034000BC01CD01620F711D811D911D42E0660F40
:10035000771F881F991F4A95D1F708958F929F9212
:10036000AF92BF92CF92DF92EF92FF924B015C016E
:100370000E9489016B017C010E9489016C197D0931
:100380008E099F09683E734081059105A8F321E01D
:10039000821A9108A108B10888EEC80E83E0D81E21
:1003A000E11CF11C81149104A104B10429F7FF9010
:1003B000EF90DF90CF90BF90AF909F908F90089577
:1003C0000895AF92BF92CF92DF92EF92FF920F9378
:1003D0001F93CF93DF936C017B018B01040F151FDB
:1003E000EB015E01AE18BF08C017D10759F0699143
:1003F000D601ED91FC910190F081E02DC6010995A7
:10040000892B79F7C501DF91CF911F910F91FF9053
:10041000EF90DF90CF90BF90AF900895FC01538D87
:10042000448D252F30E0842F90E0821B930B5417CE
:1004300010F0CF96089501970895FC01918D828D5B
:10044000981761F0A28DAE0FBF2FB11D5D968C91F4
:10045000928D9F5F9F73928F90E008958FEF9FEF33
:1004600008952FB7F8948091E7029091E802A09147
:10047000E902B091EA022FBF8093F4029093F50253
:10048000A093F602B093F7028CEE92E00E941D0258
:1004900097FF26C02FB7F8948091E7029091E80269
:1004A000A091E902B091EA022FBF4091F40250916D
:1004B000F5026091F6027091F702841B950BA60B72
:1004C000B70B4091F0025091F1026091F2027091ED
:1004D000F30284179507A607B707B0F28FEF9FEFD7
:1004E0000895FC01918D828D981731F0828DE80F6F
:1004F000F11D858D90E008958FEF9FEF0895FC0129
:10050000918D228D892F90E0805C9F4F821B9109F5
:100510008F73992708958CEE92E00E947F0221E06C
:10052000892B09F420E0822F0895FC01A48DA80FE7
:10053000B92FB11DA35ABF4F2C91848D90E0019625
:100540008F739927848FA689B7892C93A089B18945
:100550008C91837080648C93938D848D981306C0E6
:100560000288F389E02D80818F7D80830895EF924A
:10057000FF920F931F93CF93DF93EC0181E0888F5D
:100580009B8D8C8D98131AC0E889F989808185FF2D
:1005900015C09FB7F894EE89FF896083E889F989CF
:1005A00080818370806480839FBF81E090E0DF91D1
:1005B000CF911F910F91FF90EF900895F62E0B8D24
:1005C00010E00F5F1F4F0F731127E02E8C8D8E11DF
:1005D0000CC00FB607FCFACFE889F989808185FF46
:1005E000F5CFCE010E949502F1CFEB8DEC0FFD2FE0
:1005F000F11DE35AFF4FF0829FB7F8940B8FEA8901
:10060000FB8980818062CFCF682F8CEE92E00C94C2
:10061000B7020F931F93CF93DF938C01D0E0C0E01C
:10062000F801EC0FFD1F6491662341F08CEE92E01F
:100630000E94B702892B11F02196F2CFCE01DF91F3
:10064000CF911F910F910895CF93DF93EC01888D87
:100650008823B9F0AA89BB89E889F9898C9185FD3D
:1006600003C0808186FD0DC00FB607FCF7CF8C91CB
:1006700085FFF2CF808185FFEDCFCE010E949502EC
:10068000E9CFDF91CF9108950F931F93CF938C0102
:10069000C62F8CEE92E00E940E02892BD1F34C2FD4
:1006A00050E0B8018CEE92E0CF911F910F910C9425
:1006B000E1018F929F92AF92BF92CF92DF92EF9221
:1006C000FF928FB7F8948090E7029090E802A09094
:1006D000E902B090EA028FBF8091C6029091C702F2
:1006E000A091C802B091C90288169906AA06BB0655
:1006F00048F48091C4029091C50201969093C5027E
:100700008093C4028092C6029092C702A092C8024F
:10071000B092C902A091C402B091C50227E339E8A2
:1007200041E450E00E942C2B6B017C01C501B40117
:1007300028EE33E040E050E00E940A2BC701B601EA
:10074000620F731F841F951FFF90EF90DF90CF9073
:10075000BF90AF909F908F900895CF92DF92EF92CD
:10076000FF920F931F93F8940E94890100918903CF
:1007700010918A0320918B0330918C03DC01CB0113
:10078000801B910BA20BB30B42E04093DE0221E0F1
:100790003DE73093DD022093DC0230938700209305
:1007A000860022E12093810081302DE79207A10588
:1007B000B10508F46DC04A9968C02FEF32E8809106
:1007C0005D048A35D8F480915D048F5F80935D0469
:1007D00080915E0460915C040E947D2B90935E0486
:1007E000E0915E04F0E0EE0FFF1FE05AFB4F318313
:1007F000208380915E048F5F80935E040E94890154
:100800006093890370938A0380938B0390938C0386
:100810002091DF02E9E8F1E09491E5E7F1E08491CD
:10082000E1E6F1E0E491EE23E9F0992359F0933009
:1008300009F475C008F068C0913009F476C09230B0
:1008400009F477C0F0E0EE0FFF1FE65BFE4FA591C5
:10085000B4919FB7F894EC91211178C080958E23C4
:100860008C939FBF1092DF0278948091CA0291E02E
:10087000980F9093CA0281116BC01F910F91FF9046
:10088000EF90DF90CF900C94590321E03DE797CF94
:10089000813157E29507A105B10508F4B9CF01E10F
:1008A0001DE720E030E068017901C81AD90AEA0A98
:1008B000FB0A8601970153E0000F111F221F331F0F
:1008C0005A95D1F70115110551E025073105A8F416
:1008D00081E08093DE021093DD020093DC028091C0
:1008E000DC029091DD0290938700809386008091D6
:1008F000DE028061809381008BCF4093DE02D09234
:10090000DD02C092DC02EBCF9730B1F09830D1F02D
:10091000943009F097CF909180009F7D03C0909113
:1009200080009F77909380008DCF94B59F7794BD82
:1009300089CF94B59F7DFBCF9091B0009F77909326
:10094000B00080CF9091B0009F7DF9CF8E2B88CFE3
:100950001F910F91FF90EF90DF90CF900895E8984E
:1009600080EE91E09093010180930001ECE5F4E0CA
:100970001182138212820895CF92DF92EF92FF923A
:100980000F931F93F8940E9489010091890310919D
:100990008A0320918B0330918C036B017C01C01A78
:1009A000D10AE20AF30A6093890370938A03809361
:1009B0008B0390938C038AE5C816D104E104F104FB
:1009C00098F181E0C8168DE7D806E104F10430F013
:1009D000CC24C3949DE7D92EE12CF12C96014A9B9F
:1009E00004C0222733272C193D0980915D048A35E4
:1009F000D8F480915D048F5F80935D0480915E04E4
:100A000060915C040E947D2B90935E04E0915E04F3
:100A1000F0E0EE0FFF1FE05AFB4F318320838091FF
:100A20005E048F5F80935E0478941F910F91FF9016
:100A3000EF90DF90CF900895CF93DF93FC0187A9CB
:100A400043A954A9873081F4141615066CF4A2A9A1
:100A500020AD2150330BA21713067CF5AF5FA2AB7C
:100A6000AE0FBF2FB11D1C9275A9C72FD0E0282F44
:100A700030E02F5F3F4F2C1B3D0B1216130624F462
:100A800001C0660F2A95EAF7A2A9AE0FBF2FB11DCC
:100A90009C91692B6C934F5F5F4F54AB43AB282FF6
:100AA000082E000C330B2C1B3D0B871B37FD87E0FA
:100AB00087AB81E0DF91CF91089580E0FBCFCF93AA
:100AC000DF93DC011296ED91FC91139714962D9112
:100AD0003C911597E901D595C7958D919C918C0F07
:100AE0009D1F20FF08C0DC012D913C91E20FF31FF8
:100AF0000190F081E02DDF91CF910994CF93DF93A6
:100B0000FC01EE57FF4F4081469FF001479FF00DDB
:100B10001124DF0123E0B695A7952A95E1F7EC01B2
:100B2000CB57DF4F28812A171B0629F124F1229782
:100B3000288130E0E770FF27E90102C0D595C7950D
:100B4000EA95E2F7A80FB91F2C912C2330E058E06A
:100B5000541B469F402D11244770541B02C03595ED
:100B600027955A95E2F78A579F4FFC012083822FE1
:100B7000DF91CF9108958FEFFBCF0F931F93CF930A
:100B8000DF93FC018089882309F469C016821782EB
:100B9000108611861286138614861586411101C0AF
:100BA000482F262F30E035952795A42FB0E0B59536
:100BB000A79580E060FF14C0EF01C955DF4F888121
:100BC0002817A0F5EF01C20FD31F8AA1C82FCF703D
:100BD000CE0FDF2FD11D9E819F5F9E832F5F3F4FE2
:100BE000BF0169557F4F022F10E00A171B0700F560
:100BF000EB019881291720F4E801CE0FDF1F8AA1AD
:100C0000C82FD0E034E0D595C7953A95E1F7CE0FDF
:100C1000DF1F9E819F5F9E83C82FCF70CE0FDF2F77
:100C2000D11D9E819F5F9E832F5FDDCF80E0CECF61
:100C300040FF15C0EF01C955DF4F9881A91720F477
:100C4000AE0FBF1F92968C9190E024E0959587950A
:100C50002A95E1F7E80FF91F86818F5F8683DF9180
:100C6000CF911F910F910895CF93DF93FC019C01C9
:100C700023543F4FD9011C9211961C9212A25D97EA
:100C80001C92119611961C921E92149687E08C93DA
:100C9000108A118E108E59968FEF8C938083529705
:100CA000CF0106961D921D92EC011992CE01A2175A
:100CB000B307C1F7138A86E990E0978B868BDF0133
:100CC000A755BF4F40E050E060E87EE34D935D9351
:100CD0006D937C931397118A148A158A57961C92E8
:100CE000128A11A210A283E08583DF91CF9108952B
:100CF000CF93DF93E0E097FF07C02DE2FB01208355
:100D0000919581959109E1E0AEE0B1E050E02D913F
:100D10003D9140E38217930728F04F5F821B930BAE
:100D200051E0F8CF552329F0EB01CE0FD11D4883B8
:100D3000EF5F21FFECCFDB01AE0FB11D805D8C9327
:100D4000EF5FE60FF72FF11D1082CB01DF91CF91FE
:100D50000895FC0180819181892B51F482819381D6
:100D6000892B31F48481958121E082278170089557
:100D700080E008950F931F93CF93DF931F92CDB719
:100D8000DEB769838C0107531F4FC8010E94A90673
:100D900081110DC041E0BE016F5F7F4FC8010E940D
:100DA0005F050F90DF91CF911F910F91089590E013
:100DB00080E0F7CFCF93DF93EC018031910538F0DD
:100DC00024E0969587952A95E1F70E94DA06CF7080
:100DD000DD27CD5CDE4F68818DE893E0DF91CF9118
:100DE0000C94BA068CEB94E090930101809300017F
:100DF000E9E6F0E080818C7F81608083E89A089545
:100E0000FC0101900020E9F73197AF01481B590B15
:100E1000BC018CEE92E00C94E1018F929F92AF9214
:100E2000BF920F931F93CF93DF93CDB7DEB7A197F8
:100E30000FB6F894DEBF0FBECDBF19A2423008F442
:100E40004AE08E010F5D1F4F842E912CB12CA12CF6
:100E5000A50194010E940A2BE62FB901CA01EA30CC
:100E6000F4F4E05DD801EE938D01232B242B252B88
:100E700079F790E080E0109719F0CD010E9400070B
:100E8000A1960FB6F894DEBF0FBECDBFDF91CF9114
:100E90001F910F91BF90AF909F908F900895E95C44
:100EA000E1CF462F682F70E090E080E00C940D07B2
:100EB000CF92DF92EF92FF92CF93DF936C01990F65
:100EC000EE08FF08F7FE17C08DE20E940403EC0154
:100ED00066277727CB016C197D098E099F094AE0A7
:100EE0000E940D078C0F9D1FDF91CF91FF90EF9017
:100EF000DF90CF9008954AE0C701B601DF91CF910E
:100F0000FF90EF90DF90CF900C940D07CF93C82FF8
:100F1000803120F490E080E00E94580760E170E0AA
:100F20008C2FCF910C945107009711F00C9400076F
:100F300090E080E0089584E491E00C940007CF9362
:100F4000DF930E940903EC010E949B078C0F9D1FF9
:100F5000DF91CF910895CF93DF936AE070E00E9414
:100F60005107EC010E949B078C0F9D1FDF91CF91D1
:100F70000895CF93DF93D0E0C0E0009719F00E946E
:100F80000007EC010E949B078C0F9D1FDF91CF9102
:100F900008954F925F926F927F928F929F92AF923D
:100FA000BF92CF92DF92EF92FF92CF93DF9386E4CE
:100FB00091E00E94B90787E491E00E949407E091D4
:100FC0004C04E7FD42C0EE0FFF0BE65CFB4F808157
:100FD00091810E9458078EE491E00E949407E0916D
:100FE0004C04EE0FFF0BE65CFB4F60817181072E16
:100FF000000C880B990B0E94C7296B017C01E091C2
:101000008D03EE0FFF0BE65CFB4F60817181072EB5
:10101000000C880B990B0E94C7299B01AC01C701EA
:10102000B6010E944A2C6B017C014B015C01AC01B2
:101030009B010E94F72C882309F486C08DE591E07E
:101040000E9400078CE20E94040389E691E00E945E
:101050009407E0918D03E7FD07C1EE0FFF0BE65CFF
:10106000FB4F808191810E94580787E791E00E94A1
:1010700094076091A3037091A40390E080E04AE09C
:101080000E940D078FE791E00E9494076AE070E0EC
:1010900080914A040E9451078BE891E00E949407D6
:1010A0006AE070E080914B040E94510789E20E943F
:1010B00004038EE891E00E949407E091AB03F09165
:1010C000AC03808191810E94580788E991E00E94D9
:1010D0009407E091AD03F091AE03808191810E946D
:1010E00058078BE991E00E9494076AE070E08091D4
:1010F0009E030E94510786EA91E00E949407809126
:101100004D0490E00E9458078EEA91E00E949407F7
:101110008091A10390E00E9458070E949B0789EBF1
:1011200091E00E949407C0E080919D03C81708F0E9
:10113000A0C06C2F70E08FEA93E00E947E05805D76
:101140000E940403CF5FF0CF26013701E89477F8BF
:101150002FEF3FEF4FE75FE7C301B2010E94F72C8B
:1011600081110DC02FEF3FEF4FE75FE7C301B201E1
:101170000E94C02918161CF481E691E061CF2FEF80
:101180003FEF4FE75FE4C701B6010E94F22C18164B
:101190001CF485E691E054CF2FEF3FEF4FE75FEC73
:1011A000C701B6010E94C02987FDF3CF20E030E0DF
:1011B000A901C701B6010E94C02987FF09C08DE2BD
:1011C0000E94040346015701B7FAB094B7F8B094EF
:1011D0002AE037ED43EA5BE3C501B4010E94DE2B50
:1011E0004B015C010E94C32C6B017C010E94C5294C
:1011F0009B01AC01C501B4010E94DD2B4B015C01D8
:101200004AE0C701B6010E940D078EE20E94040366
:1012100020E030E040E251E4C501B4010E94262AFA
:101220004B015C010E94C32C6B01F12CE12C4AE0C4
:10123000C701B6010E940D07C701B6010E94C5296A
:101240009B01AC01C501B4010E94DD2B20E030E020
:1012500040E251E40E94262A0E94C32C90E080E0E4
:101260004AE00E940D07EECE82E791E00E949407CB
:10127000FCCE82EC91E00E94940785EC91E00E9404
:1012800094076AE070E080919D030E9451078DE50C
:101290000E9404030E949B0788EC91E00E9494073F
:1012A000F12C80914A04F81650F582ED91E00E94ED
:1012B00094076AE070E08F2D0E9451078BEA91E05D
:1012C0000E949407CF2DD0E0FE01E357FC4F6AE067
:1012D00070E086810E94510785ED91E00E9494079D
:1012E000CC0FDD1FC65CDB4F88819981009711F020
:1012F0000E9458078DE50E940403F394D2CFDF913A
:10130000CF91FF90EF90DF90CF90BF90AF909F90E4
:101310008F907F906F905F904F900C949B07EF920F
:10132000FF920F931F93CF93DF9361157105E1F047
:101330008B01FB0101900020E9F731977F01E61A4C
:10134000F70AEC01C753DF4FCE010E94A9068111B5
:101350000BC04E2DB801CE01DF91CF911F910F919F
:10136000FF90EF900C945F0590E080E0DF91CF91CB
:101370001F910F91FF90EF9008950C94E42A0C9424
:10138000EC2A2F923F924F925F926F927F928F92B0
:101390009F92AF92BF92CF92DF92EF92FF920F9304
:1013A0001F93CF93DF93CDB7DEB7C059D1400FB6AF
:1013B000F894DEBF0FBECDBF0E94AF04CF5FDE4FFB
:1013C00019821882C150D14081E0C85EDE4F888307
:1013D000C851D140C75EDE4F19821882C951D14031
:1013E000C05DDE4F8883C053D140CF5CDE4F198291
:1013F0001882C153D140C85BDE4F8883C854D140A6
:10140000C75BDE4F19821882C954D140C05ADE4FE3
:101410008883C056D140CF59DE4F19821882C156F9
:10142000D140C858DE4F8883C857D1409E012F5FF6
:101430003F4F790180E091E0D901FC011D92319785
:10144000E9F7C758DE4F39832883C957D140442470
:101450004A940BEC12E033243A94CA57DE4F1882B8
:10146000C658D140F1E0CB57DE4FF883C558D14084
:1014700088E1582E3E01739492E0292ED8018C9178
:10148000833509F061C111968C91833409F028C12C
:101490003394E1E0F1E0EC0FFD1F539CE00DF11DF2
:1014A00011241282CB57DE4F1882C558D14031101B
:1014B00014C086E091E00E949F0743E050E06BEC8F
:1014C00072E08CEE92E00E94E101C758DE4FF98293
:1014D000E882C957D14010E000E0C758DE4F88814C
:1014E0009981C957D1408017910709F0FBC180EB62
:1014F00090E00E949F07CD5FDE4F8881C350D140AE
:10150000811107C0C85EDE4F2880C851D14021102C
:1015100002C022242394CF57DE4F19821882C1586B
:10152000D14081E091E08C0F9D1FB8E1B39D800D0B
:10153000911D1124FC013296C157DE4FF983E883D7
:10154000CF58D140CF57DE4FF881C158D140F21566
:1015500008F034C38BE890E00E940903CF57DE4FB8
:1015600028813981C158D1402F5F3F4FCF57DE4F7F
:1015700039832883C158D140C9010E9458078FE29E
:101580000E9404036AE070E0822D0E94510710E07F
:1015900084E890E00E9409036AE070E0812F0E94D5
:1015A00051078FE20E9404036AE070E0832D0E94DD
:1015B00051078AE790E00E940903EE24E394FE2C91
:1015C000EC0EFD1E38E1319FE00CF11C1124670187
:1015D00087E1C80ED11CD70157968C910E94AB07AA
:1015E000F7018281823009F007C200E0C158DE4F66
:1015F000D982C882CF57D14097012B5F3F4FCD573B
:10160000DE4F39832883C358D140C7010396C5589C
:10161000DE4F99838883CB57D14081E090E08C0FD7
:101620009D1FA8E11A9F800D911D1124FC01379682
:10163000C358DE4FF983E883CD57D140C158DE4F00
:10164000A881B981CF57D1408C91081708F099C271
:10165000CD57DE4FE881F981C358D1408080918019
:10166000C558DE4FA881B981CB57D140CC90119697
:10167000DC900E9489012B013C017601F701E814FE
:10168000F90408F0B0C1BFEFEB1AFB0AE081E053A8
:10169000F0E0EE0FFF1FC358DE4F28813981CD5790
:1016A000D140E20FF31FF395A080B1806501B7FE32
:1016B00004C0CC24DD24CA18DB080E94890164150B
:1016C000750586059705C8F3B7FE8BC12B98C60133
:1016D000DD0CAA0BBB0B480E591E6A1E7B1ECECF1B
:1016E0008D3481F43394E1E0F1E0EC0FFD1F539C65
:1016F000E00DF11D1124B1E0B28388E391E00E9476
:101700009F07D5CE823579F43394E1E0F1E0EC0F18
:10171000FD1F539CE00DF11D112422828DE291E00A
:101720000E949F07BFCE8E3409F0C1CE3394E1E012
:10173000F1E0EC0FFD1F539CE00DF11D112423E09F
:10174000228389E191E0DBCF803591F512968C916F
:1017500012978D3309F0C1CE1196EC91B0EDDB2ECE
:10176000DE0EB7E0BD1508F4B8CE4AE050E0BE0189
:1017700067587E4FC80103960E94B2272CE0239D34
:10178000F0011124ED0DF11DEE0FFF1FA1E0B1E0FE
:10179000AC0FBD1FEA0FFB1F7087678388EF90E0D7
:1017A0000E949F07311099CEC8010E9494078DCEE8
:1017B000823501F5F80181818D3309F08ECE4AE042
:1017C00050E0BE0167587E4FC80102960E94C928AA
:1017D000D62EE1E0F1E0EC0FFD1F539CE00DF11D72
:1017E0001124678B87EE90E00E9409038D2D0E94E3
:1017F000AB07D8CF8434D9F511968C918D3309F08D
:101800006CCE88248394982C8C0E9D1E539C800C47
:10181000911C11246801B2E0CB0ED11CF401D482DA
:10182000C382A301401B510B4D5F5F4F6BE370E020
:10183000C80103960E94082D5C01C758DE4F9983AA
:101840008883C957D140D40116969C938E931597DF
:1018500082ED90E00E940903C6010E9494078CEC7F
:1018600090E00E940903C5010E94B90736CE833477
:10187000E9F4F80181818D3309F02FCE4AE050E080
:10188000BE0167587E4FC80102960E94C928E1E058
:10189000F1E0EC0FFD1F539CE00DF11D112471834D
:1018A00060838BEB90E00E949F0717CEC758DE4FF6
:1018B00028813981C957D140863409F00ECE11965E
:1018C0008C918D3309F009CE201B310BC901019792
:1018D00097FDC90195958795CA57DE4F8883C658ED
:1018E000D140FBCDE816F90639F00196C758DE4F16
:1018F00099838883C957D140C758DE4F0881198121
:10190000C957D140B12CC758DE4FC880D980C957BC
:10191000D140CB0CD11CC758DE4FD982C882C957E1
:10192000D1400E94310297FD17C0F60180834B1809
:10193000C758DE4FE881F981C957D14080818B3388
:1019400089F54420A1F111820115110509F096CD08
:10195000D2CDBB24B394D7CF8BEA90E00E949F07EF
:1019600081EA90E00E94090389E990E00E949F07C4
:10197000C057DE4F0FB6F894DEBF0FBECDBFDF916C
:10198000CF911F910F91FF90EF90DF90CF90BF907C
:10199000AF909F908F907F906F905F904F903F900F
:1019A0002F9008958A3009F43EC14110D2CF8BEABE
:1019B00094E00197F1F78E0113950E94310297FD93
:1019C00009C08A30910531F0D7018D937D010A1746
:1019D0001B0799F781EA90E00E94090380E990E0F3
:1019E000C5CF2B9A74CE0E948901641575058605B2
:1019F0009705C8F30F5F22CE813009F0C2C000E026
:101A0000C158DE4FF982E882CF57D140C757DE4F29
:101A1000D982C882C958D140C7010596C357DE4F45
:101A200099838883CD58D140D7011396C358DE4F90
:101A3000B983A883CD57D140C757DE4FE881F981DC
:101A4000C958D1408081081708F09BC0C158DE4FAB
:101A5000A881B981CF57D1404D905C90C357DE4FDC
:101A6000E881F981CD58D1400190F081E02DC9572E
:101A7000DE4FF983E883C758D140C358DE4FA881B1
:101A8000B981CD57D140CC901196DC900E9489014C
:101A90004B015C01C558DE4FC882CB57D140C458BA
:101AA000DE4FD882CC57D140052C000C6608770851
:101AB000C957DE4FE881F981C758D140C558DE4F7C
:101AC00028813981CB57D1402E173F0708F057C0E6
:101AD000D9018D91C558DE4FB983A883CB57D1402A
:101AE00090E38A330CF097E3891B94E0E92EF12C04
:101AF00028E0C22EE82F880FFF0BC557DE4FF98371
:101B0000E883CB58D140D12CC557DE4F288139818D
:101B1000CB58D1402C213D21CD57DE4F398328832E
:101B2000C358D140232B39F52B9A840C951CA61C45
:101B3000B71C0E948901681579058A059B05C8F3C1
:101B4000CD57DE4F88819981C358D140892BA9F4A4
:101B50002B98840C951CA61CB71C0E948901681543
:101B600079058A059B05C8F3D594C79491E0E91AD5
:101B7000F10849F69DCF2B98D8CF2B9AEACF0F5F6B
:101B80005BCFC157DE4FA881B981CF58D1408C912E
:101B9000833009F02B981F5F311608F0F9CCCB5732
:101BA000DE4FB881C558D140BB2309F4CBCC61E0EE
:101BB00070E080E090E00E94AE01C4CCCA57DE4FD6
:101BC000E881C658D140EE2341F088E690E00E94BB
:101BD000090386E491E00E94B9078BEC92E00E9431
:101BE0009407CE0101960E949407E1E0F1E0EC0F2A
:101BF000FD1F28E1329EE00DF11D1124828183300A
:101C000069F08DE893E00E94340610925D04109212
:101C10005F0410925E040E94F206AACE88ED91E065
:101C20000E94B907F8CF442009F4C1CE64CC0F93C9
:101C30001F93CF93DF9300D01F92CDB7DEB78CEE0A
:101C400092E00E947F02892B71F01091D9021E3020
:101C500091F489E192E00E9409038BEC92E00E94EA
:101C6000B9071092D9020F900F900F90DF91CF918A
:101C70001F910F9108958CEE92E00E941D02E12FBA
:101C8000F0E0E553FD4F80838D3029F0B4F48823D4
:101C900011F08A30B9F48091CB02863509F4A5C0E1
:101CA00054F5833409F4B3C08CF48F3309F43FC086
:101CB00087EA91E00E949F07D4CF833261F38B3390
:101CC00009F4A5C11F5F1093D902B9CF803509F47B
:101CD00083C0823569F720911405309115052115CF
:101CE000310511F42AE135E0CE010196821B930BF8
:101CF0000E94580719C0843784F482370CF068C0FA
:101D0000873509F426C1883599F68091CC02813552
:101D100009F078C00E94AF045BC0843749F60E9486
:101D200059034AE00E940D070E949B0751C08FE3B0
:101D30000E9404038CE092E00E94090386E50E9461
:101D400004038BE292E00E94090382E50E940403EF
:101D50008BE292E00E94090384E70E9404038BE275
:101D600092E00E94090388E50E9404038BE292E05E
:101D70000E94090383E50E9404038BE292E00E9423
:101D8000090380E50E9404038BE292E00E940903AC
:101D900083E40E9404038BE292E00E94090382E73D
:101DA0000E9404038BE292E00E94090387E50E94EF
:101DB00004038BE292E00E94090383E70E9404037C
:101DC0008BE292E00E94090386E491E00E94B90749
:101DD00081E08093DF0245CF84EF91E00E94B90754
:101DE0008BEC97E00197F1F7F3CF8AEE91E00E9438
:101DF000090385EE91E00E94090381EC91E00E94C5
:101E00009F07E6CF853421F70E94F206E1CF80914B
:101E1000CC02873409F44EC06CF59CEB980F9230DD
:101E2000B8F69091CD02923509F48BC00CF081C0C8
:101E3000EFE8F3E0933461F6853409F088C081E07F
:101E4000808360918E03660F80918F0324E0829FD0
:101E5000C0011124682B80919003682B809191031D
:101E600028E0829FC0011124682B8FEF90E00E9430
:101E7000BF09AECF833509F0ABCF6CEF71E08DECCD
:101E800092E00E94272D892B09F4A2CF4AE050E06E
:101E900070E060E083ED92E00E94B227862F6093AD
:101EA0004E046AE070E00E9451078DE991E00E94C3
:101EB00009038ECF8AE991E00E94090388E991E045
:101EC0000E9409038091900390E00E94580786E9E0
:101ED00091E00E94090383E991E00E94090388E9E7
:101EE00091E00E94090380918E0390E00E945807C0
:101EF00086E991E00E94090380E991E00E940903CC
:101F000088E991E00E94090380918F0390E00E948C
:101F1000580786E991E00E94090387EF91E00E944B
:101F2000940788E991E00E9409038091910390E071
:101F3000DFCE933549F0EEE8F3E0953509F47CCF38
:101F400047CFE1E9F3E078CFE0E9F3E075CF108225
:101F500078CF8091CC02833529F49091CD029333D0
:101F600009F436CF082E000C990B0E94FC2C892B0B
:101F700009F42ECF8091CD02082E000C990B0E94FF
:101F8000FC2C892B09F424CF8091CE02082E000C62
:101F9000990B0E94FC2C892B09F41ACF8091CF0257
:101FA000082E000C990B0E94FC2C892B09F410CFF1
:101FB0001B828091CC029091CD029A83898340E16B
:101FC00050E070E060E0CE0101960E94B227062F3B
:101FD0008091CE029091CF029A83898340E150E0B4
:101FE00070E060E0CE0101960E94B227162F802F8C
:101FF00090E00E94BF096AE070E0802F0E945107C4
:102000008DE30E940403812F0E94AB07E1CE83E0A1
:1020100092E00E9494078091D9020E94AB070E942F
:10202000C1091FCE0E948B0281110C94170E0895D6
:102030002F923F924F925F926F927F928F929F92D8
:10204000AF92BF92CF92DF92EF92FF920F931F93C6
:10205000CF93DF9300D01F92CDB7DEB7DC0154964B
:102060001C925497662309F46FC050962C9122233A
:1020700009F46AC06217B8F00F900F900F90DF91CB
:10208000CF911F910F91FF90EF90DF90CF90BF9075
:10209000AF909F908F907F906F905F904F903F9008
:1020A0002F900C943406462E9B838A83E62FF0E013
:1020B000309709F410C18C010E551F4FD8012D9196
:1020C0003C91E217F30708F006C17C01B2E2EB0E87
:1020D000F11C8F559F4F5C01C9010197E817F90763
:1020E00009F048C0EA81FB8112A2D5011C92F801D7
:1020F0001182108287E0EA81FB81EA55FF4F8083DD
:1021000081E0AA81BB8154968C935497F801608139
:1021100050966C93662309F4D9C06150770BC701C0
:102120000E947E05EA81FB81E855FF4F8081880F80
:10213000990B83559F4F2A813B81820F931FD901B1
:1021400091969C938E9390970F900F900F90DF91A4
:10215000CF911F910F91FF90EF90DF90CF90BF90A4
:10216000AF909F908F907F906F905F904F903F9037
:102170002F9008952A803B8044EA240E311CD1011F
:102180004C91649F2001112453E0569447945A9532
:10219000E1F74982842E912C68E0C62ED12CC6012D
:1021A000B4010E949D2BCF010E94892BBC01D50157
:1021B0009C91320177246115710509F465C0469F31
:1021C000802D112468E0681BB2E26B0E711C2A801E
:1021D0003B80260C371CA701742DD9807D19491628
:1021E000B0F4D101CD901D016C90712C062E02C06F
:1021F000759467940A94E2F7082E01C0CC0C0A94F7
:10220000EAF7C628DA01CD92AD014394E5CF20FD6F
:1022100011C04A815B81470F511DAA81BB81A40D6A
:10222000B11D92969C9101C0990F8A95EAF7DA0147
:1022300092969C932E1B3F0BF80131832083829E44
:10224000F001839EF00D929EF00D1124CF0168E005
:1022500070E00E949D2BAA81BB81AA55BF4F8823A5
:1022600089F097E0981B892F8C93CF0188199909E1
:1022700097FD079623E0959587952A95E1F7D50177
:102280008C933ECF87E0F0CF9419F5019083492FCE
:1022900050E04F5F5F4FB701660D771DC7010E9489
:1022A000152DD1016C9170E0C6010E949D2B669D99
:1022B0009001679D300D769D300D1124F8018081CD
:1022C0009181821B930B918380831ACFEA81FB81DA
:1022D00011A210A239CF86E191E00E94940786E115
:1022E00092E00E9494076AE070E0842D0F900F90B6
:1022F0000F90DF91CF911F910F91FF90EF90DF90A2
:10230000CF90BF90AF909F908F907F906F905F9095
:102310004F903F902F900C9451072F923F924F92E5
:102320005F926F927F928F929F92AF92BF92CF9265
:10233000DF92EF92FF920F931F93CF93DF93CDB76E
:10234000DEB7C355D1090FB6F894DEBF0FBECDBFBF
:102350009E012F5F3F4F38A72FA386E1D9011D9221
:102360008A95E9F780914D0420919D03811103C066
:10237000283208F497C31092A00391E02E3F09F091
:1023800090E09093A20340E060E0811168C28DE884
:1023900093E00E94BD05B12C8B2C912CB0914A0486
:1023A000BFA7EB2FE150FF0B8E169F060CF008C164
:1023B000B394F401E357FC4FCF0106962681222304
:1023C00059F3AB2C9401220F331FA901465C5B4FDC
:1023D00058AB4FA79AAB89AB5CAB4BAB80914A042F
:1023E000A816D0F6EA2CF12CB70163577C4F1B01DD
:1023F000DB0116968C91882309F4E0C0EFA5F8A9BB
:10240000C080D180F701EE0FFF1FE65CFB4F00811B
:102410001181C6018027912797FDD0C040903604D6
:10242000509037046090380470903904B80117FF59
:1024300004C066277727601B710B072E000C880BE2
:10244000990B0E94C729A30192010E94262A6DAB15
:102450007EAB8FAB98AFB601D7FE04C06627772757
:102460006C197D09072E000C880B990B0E94C72957
:10247000A30192010E94262A9B01AC016DA97EA9AD
:102480008FA998AD0E94DE2B20E030E040E05FE3B2
:102490000E94262A0E94BC2C0C191D0917FF03C09C
:1024A000119501951109601771070CF487C0D12CA3
:1024B000712CF6E02F0E311CD101CC9080919D0340
:1024C000D81608F044C07C1408F041C06D2D70E0AF
:1024D0008FEA93E00E947E0580913504082E000C5F
:1024E000990BE816F90689F520913104422F50E046
:1024F000D29E90011124F90173E0F695E7957A9543
:10250000E1F780913404E817F8F427703327FF27A8
:10251000E357FC4F8091320490E0022E02C0959563
:1025200087950A94E2F7809592A1892368E070E08C
:10253000641B750BAB01421B530B940101C0220FAE
:102540004A95EAF7822B82A37394D394B5CFA9A9B5
:10255000BAA9DC904D2D50E0EBA9FCA9A081B18176
:102560009A010E94D02B2B013C018701000F111F03
:10257000065C1B4FEC2DF0E0D8018D919C919F01E2
:10258000DC010E94D02B640D751D861D971D4E0F1A
:102590005F1F9A01550F440B550B0E94B12BEBA9FD
:1025A000FCA931832083DC0CA9A9BAA9DC92F7012C
:1025B000E357FC4F1682F80111821082A3940ECFCC
:1025C0001092A6031092A5038FEF80938D03F091D4
:1025D0009D03F9AB2AE3222E24E0322E10E000E026
:1025E000EE24EA94FE2C8F2E912CB12CA12C2FA539
:1025F000021708F055C0D101CD90DD901D01BFEF4D
:10260000EB16FB0609F5D7FC48C0F801E357FC4F71
:10261000668170E090E080E00E94C7292B013C01B8
:10262000C501B4010E94C7292BE734E14EE25EE305
:102630000E94262A9B01AC01C301B2010E94F22C28
:10264000181624F4780129C0D7FC27C0F701EE0F33
:10265000FF1FE65CFB4F80819181C816D906ECF420
:10266000F801E357FC4F668170E090E080E00E9443
:10267000C7292B013C01C501B4010E94C7292BE7E2
:1026800034E14EE25EE30E94262A9B01AC01C301C5
:10269000B2010E94F22C1816ACF20F5F1F4FA7CFA9
:1026A000EFEFEE16FE0641F0E0928D0381E090E040
:1026B0009093A6038093A5038091A5039091A60310
:1026C000019709F08FC080919003882309F48AC094
:1026D00089A9863A08F085EA18EDF12EF80E0FA5C3
:1026E0000150002E000C110B86E0982EE02EFFEF1B
:1026F0000F1709F4B1C0F801EE0FFF1FE65CFB4FA6
:102700008081918197FFA5C022273327281B390B91
:1027100089399D4B0CF49DC0E0918D03EE0FFF0BAA
:10272000E65CFB4F0190F081E02DC901BF010E94E2
:10273000892B6D32710508F08CC09E9EC0019F9E52
:10274000900D11248217930708F083C0F801E35716
:10275000FC4FD6806D2D70E090E080E00E94C7298C
:102760002B013C0160919D0370E090E080E00E94AD
:10277000C7292AE037ED43EA5DE30E94262A9B0140
:10278000AC01C301B2010E94C02987FF62C051E0C1
:102790005D1508F05EC0D12CC12CCF1408F059C0D3
:1027A00056016FEFA61AB60AB5018FEA93E00E94B0
:1027B0007E0580913504E8124AC0B6018FEA93E0A5
:1027C0000E947E059091350480918D0398133FC03F
:1027D000E0924C0482E090E09093A6038093A503DE
:1027E000C0929E038091A5039091A603029711F0D9
:1027F0000C94891F80919D03883210F40C94891FDA
:1028000080919E038E5F80939F0310E060919F03F1
:1028100070E080919D038150990B6817790724F52A
:102820006F5F7F4F8FEA93E011110C94491F0E9454
:102830007E0511E09091350480914C04981301C0FD
:1028400010E080919F038E5F80939F03DFCF65012F
:10285000A4CF015011094ACF00934C04C3CF8DE897
:1028600093E00E94BD05BECF10E00C94651F8091DF
:102870009D038E3F08F0D7C1861B990B88970CF4F7
:10288000D2C162E08DE893E00E94BA068091910384
:10289000882309F42BC163E272E08DE893E00E9483
:1028A0008F09F12C80914A04F816C8F58F2D90E01D
:1028B000FC01EE0FFF1FE65CFB4F0081118101154B
:1028C000110539F183579C4FDC0116968C918823B2
:1028D00001F16F2D17FF1FC0606A11950195110955
:1028E000E02E07FD1AC06894E7F88DE893E00E9497
:1028F000BA066E2D8DE893E00E94BA06612F6068DB
:102900008DE893E00E94BA066BE38DE893E00E94A5
:10291000BA06F394C7CF6068E3CF6061E6CF8091D9
:102920009F0364E480FF64E68DE893E00E94BA06AA
:10293000E0919E03E0FF33C0E150E0939E03E695F3
:1029400080913404E81748F5F0E0E357FC4F82A18A
:102950008F7080688FA7682F8DE893E00E94BA0679
:1029600080919E038E5F80939E0310919E038091C1
:102970009F038117B0F0E12FE69580913404E817AA
:1029800028F4F0E0E357FC4FB2A1BFA76FA58DE894
:1029900093E00E94BA061E5FEACF80E0D9CF1FA65F
:1029A000E4CF67E272E08DE893E00E948F096091C6
:1029B0008D03605D8DE893E00E94BA066AE272E0E2
:1029C0008DE893E00E948F0960914C04605D8DE872
:1029D00093E00E94BA066BE38DE893E00E94BA068A
:1029E00080E594E00E94A90681110FC062E58DE8A0
:1029F00093E00E94BA0680914F0490E00E94DA06AC
:102A00006BE38DE893E00E94BA068091A2038823CD
:102A100031F06EE372E08DE893E00E948F0910922E
:102A2000A10360919F0380919D03861B990B88975A
:102A3000FCF0809192038823D9F081508093920317
:102A40006F5F8DE893E00E94181010929E036DE670
:102A50008DE893E00E94BA0660919203605D8DE874
:102A600093E00E94BA066BE38DE893E00E94BA06F9
:102A700063E08DE893E00E94BA066AE08DE893E097
:102A80000E94BA0681E08093A0038091A003811187
:102A90000C949E1D80918F0390918E039111DAC04A
:102AA0008111DBC08091A00381110C94211F8091C2
:102AB000A103882311F40C94251F40914A04EAE3F2
:102AC000F4E090E080E020EDE22E27E0F22E841783
:102AD00010F00C94031F219131911216130624F467
:102AE0002E153F050CF47C010196F1CF6DE272E0EA
:102AF0008DE893E00E948F0910E080914A04181736
:102B0000C0F5812F90E09C01220F331FF901E65C94
:102B1000FB4F7F0120813181232B49F183579C4F4B
:102B2000DC0116968C91882311F160E58DE893E025
:102B30000E94BA0660E3610F8DE893E00E94BA0636
:102B40006DE38DE893E00E94BA06BE016F5F7F4F90
:102B5000F701808191810E947806BC018DE893E0A5
:102B60000E948F096BE38DE893E00E94BA061F5F15
:102B7000C4CF68E572E08DE893E00E948F09109160
:102B80009E0380919F03811778F0612F70E08FEA98
:102B900093E00E947E0560913504605D8DE893E0CE
:102BA0000E94BA061F5FEDCF61E372E08DE893E00B
:102BB0000E948F0960918D03605D8DE893E00E9413
:102BC000BA0666E372E08DE893E00E948F09609197
:102BD0004C04605D8DE893E00E94BA066BE38DE8DB
:102BE00093E00E94BA0680E594E00E94A906811154
:102BF00018C06BE372E08DE893E00E948F0980912A
:102C00004F04BE016F5F7F4F90E00E947806BC01C9
:102C10008DE893E00E948F096BE38DE893E00E94BA
:102C2000BA061FA6F2CE662361F080919F038D3F06
:102C300040F08DE893E00E94181010929E030C94CF
:102C4000891F8DE893E00E94340681E08093A00301
:102C50000C94891F882309F471C780919B0390917C
:102C60009C03892B39F585E490E00E948D26FC01B8
:102C700082E380AF81E085AB108212AA14AA13AA66
:102C800087E087AB80E886AB8FEF84AF85AF86AFF8
:102C900087AFDF01AD5BBF4F1C9211961C928DE890
:102CA00093E093AF82AF14971D921C92F0939C0314
:102CB000E0939B0380914D04811121C0E0919B031F
:102CC000F0919C038FEF84AF85AF87AF86AFDF01B4
:102CD000AD5BBF4F1C9211961C9214971D921C92D3
:102CE000108212AA14AA13AA87E087ABE0919B0373
:102CF000F0919C03EE5BFF4F80914E0480838091A6
:102D00004D0481110C94B61F20909B0330909C03BE
:102D1000D101DA960D911C91F801E354FF4FF08038
:102D2000B3E0BF1508F00AC7F801608970E090E0D1
:102D300080E00E94C7292AE037ED43E25DE30E946C
:102D4000262A4B015C0120E030E0A9010E94F22C10
:102D500020E030E040E05FE387FD38C0C501B4010A
:102D60000E94DE2B0E94BC2CA8014A5F5F4F980195
:102D700023553F4F812C90E0DA018D91AD018617EC
:102D800090F1E82DF0E03196A7E1B0E0AC0FBD1F67
:102D9000EA0FFB1F882D8823F1F0DF011297EC90DA
:102DA000AE2DB0E0AA0FBB1FA00FB11F5D017DEAE1
:102DB000A70EB11CD901CD90DC90D501AD90BC908F
:102DC000CA14DB0444F4E2928150E5CFC501B4019A
:102DD0000E94DD2BC7CFE7E1F0E0EC0FFD1FE80F0D
:102DE000F11D908383949F5F2E5F3F4FF912C4CFF4
:102DF000FE017796F8A7EFA32196FFAFEEAF2197DC
:102E000040910A0150910B0160910C0170910D01EC
:102E100029964CAF5DAF6EAF7FAF2997B1016D5B67
:102E20007F4F7CAF6BAFC1018E5B9F4F2B969FAFE7
:102E30008EAF2B97D101AC5BBF4F6496BFAFAEAFE7
:102E400064973C96FEA7EDA7FFA12E96FFAF2E97A5
:102E50008FAD8F1B881508F071C6D101DA96ED9100
:102E6000FC912196AEADBFAD21978D912196BFAF5C
:102E7000AEAF219790E0880F991FE80FF91FE35537
:102E8000FF4F8081918118161906F4F68FEFD1015A
:102E9000DC968C93DC97DD968C93DD97DF968C9394
:102EA000DF97DE968C93208131813AAB29ABC90143
:102EB00037FD0196AC01559547952D965FAF4EAF06
:102EC0002D97BE01695E7F4F23967FAF6EAF23972C
:102ED0001EAE1DAE8FEF9FEF9AAF89AF29A93AA919
:102EE000032E000C440B550B62962CAF3DAF4EAF3A
:102EF0005FAF6297AE01415E5F4F5AA749A7605F1F
:102F00007F4F7CA76BA722968FAD22972E967FAD21
:102F10002E97871B881508F097CF2396AEADBFADCF
:102F20002397DD902396BFAFAEAF2397D101DA96FA
:102F3000ED91FC918D2D90E0880F991FE80FF91FFE
:102F4000E355FF4F0081118162966CAD7DAD8EAD72
:102F50009FAD62970E94C7292B013C01780117FFA2
:102F600004C0EE24FF24E01AF10A2DEC3CEC4CE402
:102F70005EE3C301B2010E94262A0E94BC2C2D965A
:102F80008EAD9FAD2D978E199F0997FF03C0919528
:102F900081959109681779070CF0BEC72DEC3CECC0
:102FA0004CEC5EE3C301B2010E94262A0E94BC2CB5
:102FB00089A99AA98E199F0997FF03C091958195B8
:102FC0009109681779070CF49ECF101611060CF4BE
:102FD0004CC1D101DC96DC92A6C7F101D6AEBDADE5
:102FE000BF5FBDAFE9ADFAADE00FF11FFAAFE9AFDA
:102FF000D101DC968C91DC978F3F09F484CFDF966A
:103000008C91DF978F3F09F47ECFDD968C91DD9711
:103010008F3F09F478CFDE968C918F3F09F473CF00
:1030200029962CAD3DAD4EAD5FAD29972BA33CA3AA
:103030004DA35EA32F8F38A349A35AA3B12CA12C73
:103040001FEFD101DA96ED90FC90F70180898A1587
:103050001B0409F00CF457CFB501C70182960E94FA
:103060007E05F701E855FF4F0081802F90E0D101E8
:10307000DC962C91DC97022E000C330BDA96ED9146
:10308000FC91DB9782179307D1F0DD962C91DD97A9
:10309000022E000C330B8217930789F0DF962C91D8
:1030A000DF97022E000C330B8217930741F0DE9658
:1030B0002C91022E000C330B8217930739F4808970
:1030C0008150990BA816B90609F0D3C081899501E2
:1030D000281B31092B96AEADBFAD2B978C91082ED6
:1030E000000C990B821793070CF003C1A28AF1011F
:1030F00082AD93ADDC0152964C91529751966C91F2
:103100000E94BD05D101DA96ED91FC91DB97DE9628
:10311000BC91BBABD101DD969C90DD97DF960C9105
:10312000DF97DC96BC91BDABDF012BA9A20FB11DCF
:1031300027FDBA951696CC90DF01A90DB11D97FC1D
:10314000BA9516968C91C80EDD24DD1CDF01A00F08
:10315000B11D07FDBA9516968C91C81AD108DF01EA
:103160003DA9A30FB11D37FDBA9516968C91ABAD55
:10317000BCAD1C92C81AD108D7FE03C0D194C1942B
:10318000D1080D2C000CEE08FF088089E82FF0E034
:103190002596FFAFEEAF2597BF01FF0F880B990B68
:1031A0000E94C7292AE037ED43E25DE30E94262A08
:1031B0002B013C0120E030E0A9010E94F22C20E02C
:1031C00030E040E05FE387FD8FC0C301B2010E94A1
:1031D000DE2B0E94BC2C6C157D058E059F050CF422
:1031E00092CEFDAD2EADF2138ECE3DA9931609F40D
:1031F0008ACE4BA9401709F486CE031709F483CE73
:10320000491509F480CE431709F47DCE901609F4D0
:103210007ACEDE015F96FE01B39681919D9189176A
:1032200009F452C79F3F19F08F3F09F04DC725960B
:103230002EAD3FAD25972A193B092B96EEADFFAD7C
:103240002B978081082E000C990B821793070CF0A6
:103250005ACE1BA31F8F1CA318A31DA319A31EA323
:103260001AA33FEFA31AB30AECCED101DD96DC928C
:10327000B6CEABADBCAD8C91811105C0A18AE1E0A9
:10328000ABADBCADEC93D101DA96ED90FC90B501FD
:103290006F5F7F4FC70182960E947E05F701E85558
:1032A000FF4F2081BAE00B9F200D11242A3008F433
:1032B0002C599DA58EA5A0FE02C099A58AA5E92F2F
:1032C000F82F80E0422F50E09191692F092E000CD9
:1032D000770B64177507F1F4982F8F5F843009F42A
:1032E000C0CF9F3F89F3BDCFC301B2010E94DD2B48
:1032F00070CFABADBCAD1C926496EEADFFAD6497E4
:1033000010821F8F1BA318A31CA319A31DA31AA30C
:103310001EA3A7CF9F3F21F4DF0111972C93DCCF91
:103320009FEFDBCFDE962C91DE97022E000C330B45
:103330002E173F07D9F0DA962D913C91DB97EE0FCF
:10334000FF1FE20FF31FE355FF4FDD968C91A82F6F
:10335000AA0FBB0BA20FB31FA355BF4F2081318112
:103360008D919C91821793070CF0A6C681E089107D
:1033700080E08093EB02E090EB026E2DC8010E948A
:103380001C055A94F801C2ACD3ACF1E0F51508F471
:1033900062C0D801DA96ED91FC915188F5018081E7
:1033A000882309F42CC1D801DA96CD90DC90E52C65
:1033B000F12CB701C60182960E947E05F601E85500
:1033C000FF4FC080D12CF80184AD082E000C990B62
:1033D00082AC93ACC816D90639F085AD082E000C26
:1033E000990BC816D90649F4D40150968C91815096
:1033F000990BE816F9060CF4F4C0B7016F5F7F4F24
:10340000C40182960E947E05F401E855FF4FE081D9
:103410008091EB02882309F4F4C0813009F00FC1D8
:10342000D801DA968D919C91DC0150968C91825056
:10343000990BE816F9060CF002C1D801DE968C91C2
:10344000DE97082E000C990B8C159D0509F0F7C02E
:10345000DF968C91EEC0852C912CB401C60182962A
:103460000E947E05F601E855FF4F808190E0F8014B
:1034700027AD022E000C330B8217930741F026ADC7
:10348000022E000C330B8217930709F082CFD8016C
:10349000DA96CD90DC90B40161507109C601829634
:1034A0000E947E05F601E855FF4F808190E0F8010B
:1034B00027AD022E000C330B8217930741F026AD87
:1034C000022E000C330B8217930709F062CFD8014C
:1034D000DA96CD90DC90B1E0EB1241C0E2E08E1ABA
:1034E0009108B401C60182960E947E05F601E85556
:1034F000FF4F9081D801DF968C91981307C06E2DF5
:10350000C8010E941C055A945A943CCFF801C2ACE1
:10351000D3ACB401C60182960E947E05F601E8553F
:10352000FF4F8081880F990BC80ED91EFDEACF0E80
:10353000D11CD801DA96ED91FC91DB97DC968C9149
:10354000880F990BE80FF91FE355FF4FD6012D9116
:103550003C9180819181281739078CF2D4CFE110FA
:10356000D2CFB2E08B1A9108B401C60182960E94B4
:103570007E05F601E855FF4F9081F80186AD98175A
:1035800009F4BDCFC2ACD3ACB401C60182960E948F
:103590007E05F601E855FF4F8081880F990BC80E14
:1035A000D91EFDEACF0ED11CD801DA96ED91FC911F
:1035B000DB97DD968C91880F990BE80FF91FE35587
:1035C000FF4FD6012D913C91808191818217930705
:1035D0000CF495CF98CF81E0891080E08093EB02C6
:1035E000DDCE8091EB0284258093EB02D5018C9196
:1035F000882329F06091EB02C8010E941C055394B6
:10360000D9C4D801DA968D919C91DC0150968C91A9
:103610008250990BE816F90694F4D801DF968C9144
:10362000DF97082E000C990B8C159D0541F4DE9652
:103630008C91082E000C990BE8171906C1F0D301E4
:103640008C91082E000C990BD801D3962D913C91AA
:10365000D497281739076CF4F1011082D5011C9218
:10366000F801108212AA14AA13AA27E027AB5394D8
:10367000BDCFDA968D919C91DC0152965C92D80177
:10368000DA96AD90BC90BDEF5B1213C0D501509699
:103690008C918E3F71F4F501E054FF4F81E08083FF
:1036A000D801DA96ED91FC9184E090E0918F808FC3
:1036B00076C0D801DC968C91A82FAA0FBB0BAA0D5F
:1036C000BB1DA355BF4F8D919C91D50150962C9158
:1036D00030E0D601AA0FBB1FAA0DBB1DA355BF4FDB
:1036E0004D915C9148175907E4F4A90141505109E3
:1036F000E416F506B4F46E2F70E0D801DD964C9117
:10370000DD97042E000C550B6417750709F432C1C0
:10371000DE964C91042E000C550B6417750709F4C6
:1037200029C122503109E216F306CCF5D801DF9603
:103730002C91DF97022E000C330BC216D30641F0FA
:10374000DE962C91022E000C330BC216D30639F5EF
:10375000F0E0EE0FFF1FEA0DFB1DE355FF4F208148
:10376000318128173907DCF4B7016E5F7F4FC5013F
:1037700082960E947E05F501E855FF4F808190E01A
:10378000F80124AD022E000C330B8217930709F0C9
:10379000C8C081E0850D5110ECC055245394652DAF
:1037A000F80182AD93AD0E941810D801DA96ED9120
:1037B000FC91DB97E054FF4F8081811100C1F30140
:1037C0008081082E000C990BD3962D913C912817DF
:1037D00039070CF4F4C062E08DE893E00E94BA0669
:1037E00061E472E08DE893E00E948F09E0919B0311
:1037F000F0919C03E4ADEE0FFF0BE65CFB4FBE01C6
:103800006F5F7F4F808191810E947806BC018DE8B7
:1038100093E00E948F0968E472E08DE893E00E94D3
:103820008F09E0919B03F0919C03E5ADEE0FFF0B38
:10383000E65CFB4FBE016F5F7F4F808191810E94EC
:103840007806BC018DE893E00E948F096DE472E078
:103850008DE893E00E948F09E0919B03F0919C0317
:10386000E7ADEE0FFF0BE65CFB4FBE016F5F7F4FD6
:10387000808191810E947806BC018DE893E00E94CE
:103880008F0962E572E08DE893E00E948F09E09174
:103890009B03F0919C03E6ADEE0FFF0BE65CFB4F44
:1038A000BE016F5F7F4F808191810E947806BC01CD
:1038B0008DE893E00E948F0967E572E08DE893E060
:1038C0000E948F09E0909B03F0909C0310E0F701A9
:1038D00090AD82A9181708F09CC080E0191718F461
:1038E000E10FF11D8081282F30E0F4E03595279518
:1038F000FA95E1F72A3008F488C0295C2F8B8F7085
:103900008A3008F484C0895C888F198EBE01695E94
:103910007F4FD701DA968D919C910E948F091F5F8E
:10392000D6CFC2ACD3AC25AD022E000C330B821720
:10393000930709F42ECFB7016D5F7F4FC6018296C2
:103940000E947E05F601E855FF4F808190E0F80166
:1039500027AD022E000C330B8217930709F419CF01
:1039600026AD022E000C330B8217930709F017CFF8
:1039700010CF582E539494CE528AAE5BBF4FFEEFB9
:103980005F123DC0F80142AD53AD8C9187FD8F5F52
:103990008595082E000C990BF80123A934A9FA018A
:1039A000E054FF4F8217930724F581E08083D8010C
:1039B000DA96ED91FC9184E090E0918F808F809178
:1039C0004D04882309F4BAC08091A1038111B3C0CA
:1039D0001092AF0310922E041092300410922F0414
:1039E00087E08093330410929D0381E08093A103CC
:1039F000A5C01082F80182AD93ADFC01148A8C91B0
:103A0000082E000C990BD801DFCE205D77CF805DAA
:103A10007BCF22AD33AD60E0191718F4E10FF11D33
:103A2000608170E0E4E075956795EA95E1F76A30AA
:103A300008F4F1C0695CC9010E94BA06D701D396A7
:103A40002D913C91C90168E070E00E949D2B059783
:103A500024F427703327232B89F4F70182AD93AD2B
:103A600020AD60E0121718F4E10FF11D60816F7056
:103A70006A3008F4D2C0695C0E94BA066BE572E055
:103A80008DE893E00E948F09E0919B03F0919C03E5
:103A9000E05CFF4FBE016F5F7F4F808191810E948C
:103AA0007806BC018DE893E00E948F096FE572E013
:103AB0008DE893E00E948F09E0919B03F0919C03B5
:103AC000BE016F5F7F4F83A994A90E947806BC0155
:103AD0008DE893E00E948F096BE38DE893E00E94EC
:103AE000BA0680E594E00E94A906811118C06BE334
:103AF00072E08DE893E00E948F0980914F04BE012F
:103B00006F5F7F4F90E00E947806BC018DE893E0E4
:103B10000E948F096BE38DE893E00E94BA0663E090
:103B20008DE893E00E94BA066AE08DE893E00E9477
:103B3000BA0610924D0481E08093A00380918E0319
:103B4000882311F40C94521580914D0481110C942A
:103B500052158091A5039091A603019711F00C9442
:103B600052158091A00381116CC180919D03883210
:103B700010F40C94571562E08DE893E00E94BA06A9
:103B800080919103882309F4AFC063E672E08DE869
:103B900093E00E948F0940E060E08DE893E00E948E
:103BA000BD05F12C80914A04F816E8F58F2D90E0C0
:103BB000FC01EE0FFF1FE65CFB4F00811181011538
:103BC000110539F183579C4FDC0116968C9188239F
:103BD00001F16F2D17FF23C0606A1195019511093E
:103BE000E02E07FD1EC06894E7F88DE893E00E9480
:103BF000BA066E2D8DE893E00E94BA06612F6068C8
:103C00008DE893E00E94BA066BE38DE893E00E9492
:103C1000BA06F394C7CF605D0ECF605D2DCF6068AC
:103C2000DFCF6061E2CF80919D0364E680FF64E4B2
:103C30008DE893E00E94BA0610E080912E0481176F
:103C400088F080913404181730F4E12FF0E0E35746
:103C5000FC4FB2A1BFA76FA58DE893E00E94BA0602
:103C60001F5FEBCF67E272E08DE893E00E948F095F
:103C700060918D03605D8DE893E00E94BA066BE36E
:103C80008DE893E00E94BA0680E594E00E94A906C0
:103C900081110FC062E58DE893E00E94BA06809121
:103CA0004F0490E00E94DA066BE38DE893E00E94F7
:103CB000BA068091A203882331F06EE372E08DE8AA
:103CC00093E00E948F0963E08DE893E00E94BA06BA
:103CD0006AE08DE893E00E94BA061092A10381E0A9
:103CE0008093A0030C94521567E672E08DE893E090
:103CF0000E948F0940E060E08DE893E00E94BD05DE
:103D000010E080914A041817C0F5812F90E09C01C3
:103D1000220F331FF901E65CFB4F7F0120813181C7
:103D2000232B49F183579C4FDC0116968C918823F5
:103D300011F160E58DE893E00E94BA0660E3610F3F
:103D40008DE893E00E94BA066DE38DE893E00E944F
:103D5000BA06BE016F5F7F4FF701808191810E949B
:103D60007806BC018DE893E00E948F096BE38DE833
:103D700093E00E94BA061F5FC4CF68E572E08DE849
:103D800093E00E948F0910E080919D03181778F44A
:103D9000612F70E08FEA93E00E947E056091350408
:103DA000605D8DE893E00E94BA061F5FEDCF61E38E
:103DB00072E08DE893E00E948F0960918D03605D51
:103DC0008DE893E00E94BA066BE38DE893E00E94D1
:103DD000BA0680E594E00E94A90681116ACF6BE3E0
:103DE00072E08DE893E00E948F0980914F04BE013C
:103DF0006F5F7F4F90E00E947806BC018DE893E0F2
:103E00000E948F0951CF10E080919D031817C8F4CC
:103E1000F0EDEF16F7E0FF06A1F0612F70E08FEAFA
:103E200093E00E947E0580913504082E000C990BCA
:103E3000E816F90661F56FEF610F8DE893E00E94D7
:103E400018108091A103811108C01091A0038DE882
:103E500093E00E9434061093A003CD5ADF4F0FB6B3
:103E6000F894DEBF0FBECDBFDF91CF911F910F91B0
:103E7000FF90EF90DF90CF90BF90AF909F908F908A
:103E80007F906F905F904F903F902F9008951F5FAD
:103E9000BBCF0E947E059091350480914C0498130D
:103EA0000C94211460919F0370E08FEA93E00E94CC
:103EB0007E059091350480918D0398130C94211404
:103EC00080919F03815080939F0380919D039091E7
:103ED0009F03891710F480939F0340919F03609183
:103EE0009E038DE893E00E94BD0560919E0311231F
:103EF00011F40C94371480919F03861B990B8897BB
:103F000014F00C94411481E090E09093A603809308
:103F1000A5031FA60C944515101611060CF45DC8D8
:103F2000D101DF96DC92BEADBF5FBEAFE9ADFAADA9
:103F3000E01BF10B5BC86F5F7F4FFDC04E175F0743
:103F4000D1F7E615F70509F472C941E05FEFE51A0C
:103F5000F50A4111D8C0F101E05CFF4F89AD9AAD7F
:103F600066E070E00E949D2B7183608300919B034B
:103F700010919C03D801DA96ED91FC91DB97148A9D
:103F8000DA96ED91FC91DB97118ADA96ED91FC912E
:103F9000E054FF4F1082512C5801B4E4AB0EB11C19
:103FA000442443943801E2E46E0E711C1801F3E4DA
:103FB0002F0E311CD801DA96CD90DC90DB97F601FC
:103FC0008089581608F0D8CCD5018C918111E6C9AA
:103FD000E52CF12CB701C60182960E947E05F60100
:103FE000E855FF4F808190E0F80124AD022E000CCF
:103FF000330B8217930741F025AD022E000C330BD3
:104000008217930709F0CAC9D801DA96CD90DC90DF
:10401000B701C60182960E947E05F601E855FF4F62
:104020008080F80195AC81E0891001C080E0809328
:10403000EB02D801DA96CD90DC90B701615071099E
:10404000C60182960E947E05F601E855FF4F8081E9
:10405000F5014082D801DA96ED91FC91DB97518A07
:10406000552009F4B8CAE82FF0E089105BC9DF9643
:104070002C91DF97022E000C330B2E173F0709F40B
:1040800075C9DA962D913C91DF01AA0FBB1FA20FD3
:10409000B31FA355BF4FF80184ADE82FEE0FFF0B00
:1040A000E20FF31FE355FF4F2D913C9180819181E9
:1040B000281739070CF45AC9D801DA96ED91FC910A
:1040C00081898F5F818B57C92BA53CA52E173F0790
:1040D00009F0A3C88DA95BA96AE0569F800D112441
:1040E000969E000D11248A3008F48C590A3008F489
:1040F0000C59DE015F967D019E012D5D3F4F390118
:1041000090E0202F30E0D3014D913D01042E000CB2
:10411000550B4817590749F0D7014C91042E000C54
:10412000550B8417950709F00CCFBE01615E7F4FD8
:10413000AE014D5D5F4FDA01CD90AD010C2C000C4E
:10414000DD08C216D30649F0DB01CC900C2C000C24
:10415000DD082C153D0509F0F1CEE615F70509F44B
:10416000FACE40E0F3CE1F920F920FB60F921124B9
:104170002F933F938F939F93AF93BF938091E702C9
:104180009091E802A091E902B091EA023091E20236
:1041900023E0230F2D3758F50196A11DB11D209363
:1041A000E2028093E7029093E802A093E902B093C1
:1041B000EA028091E3029091E402A091E502B091BD
:1041C000E6020196A11DB11D8093E3029093E402E3
:1041D000A093E502B093E602BF91AF919F918F91BA
:1041E0003F912F910F900FBE0F901F90189526E8CA
:1041F000230F0296A11DB11DD2CF1F920F920FB6B1
:104200000F9211242F933F934F935F936F937F935C
:104210008F939F93AF93BF93EF93FF93E09102012E
:10422000F09103010995FF91EF91BF91AF919F919B
:104230008F917F916F915F914F913F912F910F904F
:104240000FBE0F901F9018951F920F920FB60F92EE
:1042500011242F933F934F935F936F937F938F938B
:104260009F93AF93BF93EF93FF93E0910001F09181
:1042700001010995FF91EF91BF91AF919F918F91AE
:104280007F916F915F914F913F912F910F900FBE52
:104290000F901F9018951F920F920FB60F92112436
:1042A0002F933F934F935F936F937F938F939F933E
:1042B000AF93BF93EF93FF938CEE92E00E94950231
:1042C000FF91EF91BF91AF919F918F917F916F91EE
:1042D0005F914F913F912F910F900FBE0F901F90C4
:1042E00018951F920F920FB60F9211242F938F9350
:1042F0009F93EF93FF93E091FC02F091FD02808188
:10430000E0910203F091030382FD1BC09081809134
:1043100005038F5F8F7320910603821741F0E091B0
:104320000503F0E0E451FD4F958F80930503FF9165
:10433000EF919F918F912F910F900FBE0F901F9033
:1043400018958081F4CF1F920F920FB60F9211240F
:104350002F933F934F935F936F937F938F939F938D
:10436000AF93BF93EF93FF93E091DA02F091DB02FA
:104370000995FF91EF91BF91AF919F918F917F919F
:104380006F915F914F913F912F910F900FBE0F90C2
:104390001F901895CF93DF93ECEEF2E01382128218
:1043A00088EE93E0A0E0B0E084839583A683B78392
:1043B00085E291E09183808385EC90E09587848706
:1043C00084EC90E09787868780EC90E0918B808BDF
:1043D00081EC90E0938B828B82EC90E0958B848BC8
:1043E00086EC90E0978B868B118E128E138E148E36
:1043F000ECE5F4E08AE58083118213821282CDE835
:10440000D3E087EA93E09F8F8E8F19A218A28FE7DF
:104410008093340484E0809331041AA210922E0415
:104420001092300410922F0487E08093330480EFC1
:104430008093320410924F04109251041092500451
:104440001092530410925204109255041092540486
:104450001092570410925604109259041092580466
:1044600010925B0410925A041B8E1A8ECE010E9489
:10447000340681E180934E041D8281E08C831F8687
:104480001E860E9489016093890370938A0380933A
:104490008B0390938C03DF91CF910895CF93DF939B
:1044A00000D000D000D0CDB7DEB7789484B582605C
:1044B00084BD84B5816084BD85B5826085BD85B5C8
:1044C000816085BD80916E00816080936E00109246
:1044D00081008091810082608093810080918100C1
:1044E0008160809381008091800081608093800052
:1044F0008091B10084608093B1008091B0008160B0
:104500008093B00080917A00846080937A008091DB
:104510007A00826080937A0080917A008160809333
:104520007A0080917A00806880937A001092C100AE
:10453000E091FC02F091FD0282E08083E091FC02B8
:10454000F091FD021082E091F802F091F9021082E0
:10455000E091FA02F091FB0280E180831092040363
:10456000E0910003F091010386E08083E091FE0278
:10457000F091FF02808180618083E091FE02F091E2
:10458000FF02808188608083E091FE02F091FF024B
:10459000808180688083E091FE02F091FF0280813B
:1045A0008F7D80832BEF92E061E070E081E0890FE6
:1045B000883109F00EC25298259A90E080E00E945E
:1045C000BD09833309F067C281E090E00E94BD0914
:1045D0008D3109F060C288E692E00E94090381E60D
:1045E00092E00E9409038FE592E00E9409038FE5A3
:1045F00092E00E9409038FEF90E00E94BD09982F7E
:1046000091709093900381FB992790F990938E037A
:1046100082FB992790F990938F0383FB882780F979
:104620008093910386E392E00E949F078FE292E0DD
:104630000E94090381E692E00E9409038DE292E064
:104640000E949F0710E000E0C8010E94E42A0E9437
:1046500086078BE292E00E940903802F8F708F30D3
:1046600021F486E491E00E94B9070F5F1F4F0833E1
:10467000110551F786E491E00E94B907239A8EE86C
:1046800092E00E949F0762E370E080E090E00E9469
:10469000AE0180E1809381001092800082E08093DF
:1046A000DE0281E09DE79093DD028093DC0290932F
:1046B00087008093860082E1809381008DEA93E0F9
:1046C0009093DB028093DA0281E080936F0085E8AB
:1046D00091E09C838B831E821D828B819C81AD81A6
:1046E000BE818093580490935904A0935A04B093C8
:1046F0005B0484E493E090935704809356040E94F3
:10470000F2068DE792E00E949F0780E991E0A0E029
:10471000B0E08093F0029093F102A093F202B09384
:10472000F30252E0452E512C612C712C9924939464
:1047300067E0862E73E0A72EB12C80915D0488235C
:1047400009F4E3C280915D04815080935D048091FF
:104750005F0460915C040E947D2B90935F04E09164
:104760005F0481E08E0F80935F04F0E0EE0FFF1F87
:10477000E05AFB4F808191819093E1028093E002A7
:104780001092A00360919D03662309F498C16150C3
:10479000770B8FEA93E00E947E0580913504880FA5
:1047A000990B865C9B4F9093AE038093AD03E09191
:1047B000AB03F091AC038091E0029091E102918310
:1047C000808390919D03E091AB03F091AC0399231A
:1047D00009F47AC1A091AD03B091AE03109709F42A
:1047E00073C1208131814D915C913527232F221F88
:1047F0002227221F81E040815181411553480CF44A
:1048000080E031E09E3F09F430E0832311F0211174
:104810005DC10E948D118091A003811104C080911F
:104820004D048823B1F080919D038823D1F0E0915D
:10483000AD03F091AE033097A1F0A091AB03B0911E
:10484000AC038D919C91208131818227932797FD24
:1048500008C08DE893E00E9434061092AE031092D7
:10486000AD0380919D038E3FA1F42FB7F894609122
:10487000E7027091E8028091E9029091EA022FBF6D
:104880004AE00E940D0780EA92E00E949F070E9482
:10489000C907C090AB03D090AC03F6010081118131
:1048A000B80117FF04C066277727601B710B072E1E
:1048B000000C880B990B0E94C7292DEC3CEC4CE4B2
:1048C0005EE30E94262A0E94C32C9B017093A403DE
:1048D0006093A30370914A04EAE3F4E060E0761782
:1048E000D1F081919191A8014827592757FD1AC10C
:1048F000009709F417C1A801481B590BCA0157FFBB
:1049000003C0919581959109281739070CF40AC1C4
:10491000162F67FF09C17830D9F540E060E08DE8D7
:1049200093E00E94BD05E0914B04F0E0E357FC4F9B
:104930008681833040F00E948D1140E060E08DE878
:1049400093E00E94BD0510919D031150E0914B042E
:10495000F0E0E357FC4F86818823D1F080919D03DE
:104960008823B1F0612F70E08FEA93E00E947E050A
:1049700080913504082E000C990B20914B042817C8
:10498000190619F761E0610F8DE893E00E94181095
:1049900010914B04E091AB03F091AC0380819181C5
:1049A000E12FF0E0EE0FFF1FE65CFB4F9183808369
:1049B00081E0810F883009F468C180934B048091B5
:1049C0004B0490914A04981708F0CDC080934A0494
:1049D000CAC08B3009F45CC08D3009F459C08431F1
:1049E00008F056C0EAE2F0E0883030F0E4E2F0E0AF
:1049F000263010F0E7E2F0E030818E3088F143EFAE
:104A0000490FDB0102C0AA0FBB1F4A95E2F7AD01B7
:104A100040954323EAE2F0E0883030F0E4E2F0E051
:104A2000263010F0E7E2F0E04083EBE2F0E088307F
:104A300030F0E5E2F0E0263010F0E8E2F0E030811E
:104A40008E30C0F09D50F62F01C0FF0F9A95EAF707
:104A50009F2FE5E2F0E02630C8F0E8E2F0E016C073
:104A6000482F4770FB0102C0EE0FFF1F4A95E2F787
:104A7000AF01CECF982F9770462F01C0440F9A9563
:104A8000EAF7942FEBE2F0E0883018F7932B90834D
:104A90002F5F982F8BCD6FE08FEF90E00E94BF09C2
:104AA0008BE392E00E949F0763E390E080E00E9426
:104AB000BF096DE181E090E00E94BF099CCD10929A
:104AC000AE031092AD0373CE21E094CE983209F07C
:104AD000E0CEB092A603A092A50380E594E00E94E8
:104AE000A9068111D6CEE0915204F0915304209191
:104AF000540430915504A90155954795809150046F
:104B000090915104840F951F20FF08C0DC012D9166
:104B10003C91E20FF31F0190F081E02D0995809305
:104B20004F04B7CE6F5FDBCE862F880F990BDC0169
:104B3000A65CBB4F7D016D917C91072E000C880B0C
:104B4000990BF60120813181032E000C440B550B8B
:104B5000620F731F841F951FA30192010E94B12B46
:104B6000D7012D933C93312F2091330480912F0452
:104B700090913004273009F096C0181619060CF0F1
:104B800092C0E0912E04409134044150550BE4173B
:104B900015060CF481C00E94C9076BE672E08DE82F
:104BA00093E00E948F0960919E038DE893E00E943C
:104BB000BA0664E872E08DE893E00E948F09609184
:104BC0009F038DE893E00E94BA066BE872E08DE8DF
:104BD00093E00E948F09612F8DE893E00E94BA064E
:104BE00061E972E08DE893E00E948F0960919D0376
:104BF0008DE893E00E94BA066AE972E08DE893E0DE
:104C00000E948F0960912E048DE893E00E94BA06FD
:104C100061EA72E08DE893E00E948F0960912F04B1
:104C20008DE893E00E94BA0668EA72E08DE893E0AE
:104C30000E948F096091A1038DE893E00E94BA065B
:104C400061EB72E08DE893E00E948F096091A5030B
:104C50008DE893E00E94BA0669EB72E08DE893E07C
:104C60000E948F096091A0038DE893E00E94BA062C
:104C70006AE08DE893E00E94BA068091A003882341
:104C800009F45BCD9092DF0258CD10924B048093D3
:104C90004A0410924D0493CEEF5FE0932E04F0E0AF
:104CA000E357FC4F12A2A09131044A2F50E0622F2B
:104CB00070E06F5F7F4F641B750B161617062CF4A0
:104CC000312F01C0330F6A95EAF7E0912E04F0E02E
:104CD000E357FC4F62A1362B32A301969093300428
:104CE00080932F04622F022E000C770B641B750B30
:104CF00077FD08C02A1B2093330480939D031092F4
:104D0000A103BBCF80923304F8CF0E948B0288238B
:104D100009F413CD0E94170E10CD0F931F93CF935C
:104D2000DF938230910510F482E090E0E091160567
:104D3000F091170530E020E0B0E0A0E0309799F462
:104D40002115310509F44AC0281B390B24303105DF
:104D5000D8F58A819B816115710589F1FB019383E7
:104D60008283FE0111C04081518102811381481765
:104D70005907E0F04817590799F4109761F0129617
:104D80000C93129713961C933296CF01DF91CF911B
:104D90001F910F9108950093160510931705F4CFF6
:104DA0002115310551F04217530738F0A901DB01F5
:104DB0009A01BD01DF01F801C1CFEF01F9CF909356
:104DC000170580931605CDCFFE01E20FF31F8193E7
:104DD00091932250310939832883D7CF209114052C
:104DE00030911505232B41F42091060130910701E4
:104DF000309315052093140520910401309105018D
:104E00002115310541F42DB73EB74091080150916D
:104E10000901241B350BE0911405F0911505E217EB
:104E2000F307A0F42E1B3F0B2817390778F0AC01CD
:104E30004E5F5F4F2417350748F04E0F5F1F5093AA
:104E4000150540931405819391939FCFF0E0E0E026
:104E50009CCFCF93DF930097E9F0FC013297138248
:104E60001282A0911605B0911705ED0130E020E007
:104E70001097A1F420813181820F931F2091140596
:104E8000309115052817390709F061C0F093150511
:104E9000E0931405DF91CF910895EA01CE17DF0763
:104EA000E8F54A815B819E0141155105B1F7E901A1
:104EB000FB83EA8349915991C40FD51FEC17FD0775
:104EC00061F4808191810296840F951FE901998395
:104ED0008883828193819B838A83F0E0E0E012964D
:104EE0008D919C9113970097B9F52D913C91119755
:104EF000CD010296820F931F209114053091150564
:104F00002817390739F6309751F510921705109286
:104F10001605B0931505A0931405BCCFD383C283A7
:104F200040815181840F951FC817D90761F44E5FE6
:104F30005F4F88819981480F591F518340838A812F
:104F40009B81938382832115310509F0B0CFF093C3
:104F50001705E09316059ECFFD01DC01C0CF13823B
:104F60001282D7CFB0E0A0E0E8EBF7E20C94382B48
:104F70005C016B017A016115710519F0FB019183E8
:104F80008083E114F10451F0C7010297839730F058
:104F900040E030E020E090E072C05E01E501219643
:104FA000F5011081812F90E00E94B429892BA9F787
:104FB0001D3201F52196F501118101E0E114F104A2
:104FC00009F4DAC0F0E1EF16F10409F082C0103301
:104FD00059F488818F7D883509F076C01981229631
:104FE0000260F0E1EF2EF12C812C912CA12C88E0B5
:104FF000B82E8CC01B3221F4E5012296F5011181F7
:1050000000E0DCCFEAE0EE16F10409F4BBC0F0E109
:10501000EF16F10409F06DC0E7CF78E0E72EF12C30
:10502000812C912CA12C60E1B62E70C03FE9310F8C
:105030003A3128F439EA332E80C021E09AC0302F6B
:105040003170C114D10431F0222309F12197F60106
:10505000D183C08327FF21C060E070E080E090E84A
:10506000311104C06FEF7FEF8FEF9FE722E230E056
:105070003093190520931805462F372F282F642FBA
:10508000732F822FCDB7DEB7E1E10C94542B01FFD3
:1050900004C02297F601D183C083332341F0909559
:1050A0008095709561957F4F8F4F9F4FE5CF97FF0C
:1050B000E3CF82E290E090931905809318056FEF9B
:1050C0007FEF8FEF9FE7D8CF10E3E114F10409F4ED
:1050D000A4CF28E0E216F10409F4A2CF0CF092CF9D
:1050E000812C912CA12CE0E4BE2E82E0E816F10484
:1050F00069F060E070E080E090E897010F2C000C10
:10510000440B550B0E940A2B49015A0120E060E034
:1051100070E0CB0127010F2C000C66087708FE0118
:1051200050ED352E310E39E0331540F43FEB310FA1
:105130003A3108F07BCF49EC342E310E3E141F0477
:105140000CF07DCF27FD15C086169706A806B90678
:1051500078F0A30192010E94FA2A630D711D811D4E
:10516000911D61307105810520E8920708F465CF33
:105170002FEF21961081D3CF103309F42ACF2AE0E4
:10518000E22EF12C9CEC892E982CA82C9CE0B92EB8
:10519000BDCFB0E0A0E0EFECF8E20C94382B5C015E
:1051A0006B017A016115710519F0FB019183808310
:1051B000E114F10449F0C7010297839728F060E0F9
:1051C00070E0CB019CC05E01E5012196F5011081E4
:1051D000812F90E00E94B429892BA9F71D3209F094
:1051E00056C02196F501118101E0E114F10409F4A2
:1051F000AEC0F0E1EF16F10409F08EC0103341F4B7
:1052000088818F7D883509F083C0198122960260DC
:10521000E0E1EE2EF12C88248A94982CA82CFFE053
:10522000BF2E20E060E070E0CB0127010F2C000CC6
:1052300066087708FE0150ED352E310E39E0331542
:1052400038F43FEB310F3A31A0F549EC342E310EF2
:105250003E141F04BCF52F3FB9F086169706A8062A
:10526000B90670F1A30192010E94FA2A232D30E0C1
:1052700050E040E0620F731F841F951F6217730791
:1052800084079507E8F021E021961081D3CF1B32E7
:1052900021F4E5012296F501118100E0A6CF78E026
:1052A000E72EF12C88248A94982CA82C6FE1B62E36
:1052B000B8CF3FE9310F3A3128F439EA332EC7CF5E
:1052C0002FEFE2CFC114D10431F02223E9F021976E
:1052D000F601D183C08300FF07C09095809570953B
:1052E00061957F4F8F4F9F4F2F3F49F482E290E0AF
:1052F00090931905809318056FEF7FEFCB01CDB721
:10530000DEB7E1E10C94542B01FFE5CF2297E0CF0B
:1053100010E3E114F10419F23AE0E316F104E9F0C4
:1053200080E1E816F10409F473CFE8E0EE16F10429
:1053300009F4B8CF6FEF7FEFCB0197010F2C000C72
:10534000440B550B0E940A2B49015A016ACF1033B6
:1053500009F456CF9AE0E92EF12C89E9882E982C91
:10536000A82C89E1B82E5DCF91110C94BD29803213
:1053700019F089508550C8F708959927882708950E
:105380000E94022A08F481E00895E89409C097FB7E
:105390003EF490958095709561957F4F8F4F9F4F0C
:1053A0009923A9F0F92F96E9BB279395F695879550
:1053B00077956795B795F111F8CFFAF4BB0F11F413
:1053C00060FF1BC06F5F7F4F8F4F9F4F16C08823BA
:1053D00011F096E911C0772321F09EE8872F762FF0
:1053E00005C0662371F096E8862F70E060E02AF031
:1053F0009A95660F771F881FDAF7880F969587951D
:1054000097F90895990F0008550FAA0BE0E8FEEFF1
:1054100016161706E807F907C0F012161306E40778
:10542000F50798F0621B730B840B950B39F40A2671
:1054300061F0232B242B252B21F408950A2609F44F
:10544000A140A6958FEF811D811D08950E94392AE4
:105450000C94AA2A0E949C2A38F00E94A32A20F0C9
:10546000952311F00C94932A0C94992A11240C94EE
:10547000DE2A0E94BB2A70F3959FC1F3950F50E07E
:10548000551F629FF001729FBB27F00DB11D639FF6
:10549000AA27F00DB11DAA1F649F6627B00DA11D9C
:1054A000661F829F2227B00DA11D621F739FB00D42
:1054B000A11D621F839FA00D611D221F749F3327B2
:1054C000A00D611D231F849F600D211D822F762F4B
:1054D0006A2F11249F5750409AF0F1F088234AF028
:1054E000EE0FFF1FBB1F661F771F881F9150504094
:1054F000A9F79E3F510580F00C94932A0C94DE2A64
:105500005F3FE4F3983ED4F3869577956795B7951A
:10551000F795E7959F5FC1F7FE2B880F911D969534
:10552000879597F9089597F99F6780E870E060E0A4
:1055300008959FEF80EC089500240A94161617062C
:1055400018060906089500240A9412161306140674
:1055500005060895092E0394000C11F4882352F0D7
:10556000BB0F40F4BF2B11F460FF04C06F5F7F4F8F
:105570008F4F9F4F089557FD9058440F551F59F076
:105580005F3F71F04795880F97FB991F61F09F3F30
:1055900079F087950895121613061406551FF2CF59
:1055A0004695F1DF08C0161617061806991FF1CFA9
:1055B00086957105610508940895E894BB276627D0
:1055C0007727CB0197F90895F999FECF92BD81BD58
:1055D000F89A992780B50895262FF999FECF1FBA1A
:1055E00092BD81BD20BD0FB6F894FA9AF99A0FBE0C
:1055F00001960895DB018F939F930E942C2BBF91FE
:10560000AF91A29F800D911DA39F900DB29F900D11
:1056100011240895A1E21A2EAA1BBB1BFD010DC087
:10562000AA1FBB1FEE1FFF1FA217B307E407F50752
:1056300020F0A21BB30BE40BF50B661F771F881F2E
:10564000991F1A9469F760957095809590959B01C4
:10565000AC01BD01CF0108950E946E2BA59F900D56
:10566000B49F900DA49F800D911D112408952F9239
:105670003F924F925F926F927F928F929F92AF92E2
:10568000BF92CF92DF92EF92FF920F931F93CF932F
:10569000DF93CDB7DEB7CA1BDB0B0FB6F894DEBFC6
:1056A0000FBECDBF09942A88398848885F846E84EC
:1056B0007D848C849B84AA84B984C884DF80EE8036
:1056C000FD800C811B81AA81B981CE0FD11D0FB63F
:1056D000F894DEBF0FBECDBFED010895A29FB001CB
:1056E000B39FC001A39F700D811D1124911DB29F16
:1056F000700D811D1124911D0895991B79E004C03E
:10570000991F961708F0961B881F7A95C9F7809500
:105710000895AA1BBB1B51E107C0AA1FBB1FA617F8
:10572000B70710F0A61BB70B881F991F5A95A9F74A
:1057300080959095BC01CD01089597FB072E16F436
:10574000009407D077FD09D00E94892B07FC05D073
:105750003EF4909581959F4F0895709561957F4F88
:105760000895052E97FB1EF400940E94C82B57FD48
:1057700007D00E940A2B07FC03D04EF40C94C82BD0
:1057800050954095309521953F4F4F4F5F4F08956D
:1057900090958095709561957F4F8F4F9F4F08959D
:1057A0000E946E2BB7FF0895821B930B0895EE0F96
:1057B000FF1F0590F491E02D09945058BB27AA27AC
:1057C0000E94F52B0C94AA2A0E949C2A38F00E9471
:1057D000A32A20F039F49F3F19F426F40C94992A57
:1057E0000EF4E095E7FB0C94932AE92F0E94BB2A64
:1057F00058F3BA17620773078407950720F079F406
:10580000A6F50C94DD2A0EF4E0950B2EBA2FA02DF0
:105810000B01B90190010C01CA01A0011124FF275D
:10582000591B99F0593F50F4503E68F11A16F04058
:10583000A22F232F342F4427585FF3CF4695379557
:105840002795A795F0405395C9F77EF41F16BA0B1C
:10585000620B730B840BBAF09150A1F0FF0FBB1FCA
:10586000661F771F881FC2F70EC0BA0F621F731F13
:10587000841F48F4879577956795B795F7959E3F70
:1058800008F0B0CF9395880F08F09927EE0F979501
:10589000879508950E945E2C0C94AA2A0E94A32A40
:1058A00058F00E949C2A40F029F45F3F29F00C94A4
:1058B000932A51110C94DE2A0C94992A0E94BB2A37
:1058C00068F39923B1F3552391F3951B550BBB272F
:1058D000AA2762177307840738F09F5F5F4F220F74
:1058E000331F441FAA1FA9F335D00E2E3AF0E0E86B
:1058F00032D091505040E695001CCAF72BD0FE2FB5
:1059000029D0660F771F881FBB1F26173707480748
:10591000AB07B0E809F0BB0B802DBF01FF27935800
:105920005F4F3AF09E3F510578F00C94932A0C9407
:10593000DE2A5F3FE4F3983ED4F38695779567952A
:10594000B795F7959F5FC9F7880F911D9695879535
:1059500097F90895E1E0660F771F881FBB1F621754
:1059600073078407BA0720F0621B730B840BBA0B12
:10597000EE1F88F7E09508950E94C32C6894B1113A
:105980000C94DE2A08950E94C32A88F09F5798F04D
:10599000B92F9927B751B0F0E1F0660F771F881F34
:1059A000991F1AF0BA95C9F714C0B13091F00E944E
:1059B000DD2AB1E008950C94DD2A672F782F88271F
:1059C000B85F39F0B93FCCF3869577956795B39575
:1059D000D9F73EF490958095709561957F4F8F4FE4
:1059E0009F4F08950E94022A08F48FEF08950E94A5
:1059F000022A880B990B089591110C94BD298053AC
:105A00008A5028F0865C806281568650B0F70895EF
:105A1000FC014150504030F001900616D1F731970B
:105A2000CF0108958827992708956817790768F4A2
:105A3000FB01DC01E40FF51FA40FB51F02C00290AB
:105A40000E9241505040D8F708950C94412DFB011F
:105A500051915523A9F0BF01DC014D91451741112A
:105A6000E1F759F4CD010190002049F04D91401526
:105A70004111C9F3FB014111EFCF81E090E00197A3
:105A80000895FB01DC0102C001900D92415050408D
:085A9000D8F70895F894FFCF48
:105A9800E001E00100001A058000FFFFFFFF10276A
:105AA800E80364000A006275666665724D6F766584
:105AB8000000000000B702E1010E0224037F021D6E
:105AC8000271023031323334353637383941424386
