:100000000C94B3010C9461210C943A210C941321AB
:100010000C94EC200C94DB010C94DB010C94C520B7
:100020000C94DB010C94DB010C9488210C94F721D7
:100030000C94DB010C94DB010C94DB010C94DB01D0
:100040000C94DB010C94DB010C94DB010C94DB01C0
:100050000C9429240C94DB010C94DB010C947B2080
:100060000C94DB010C94DB010C94DB010C94DB01A0
:100070000C94DB010C94DB010C94DB010C94DB0190
:100080000C94DB010C94DB010C94DB010C94DB0180
:100090000C94DB010C94DB010C94DB010C94DB0170
:1000A0000C94DB010C94DB010C94DB01636346616F
:1000B00063746F7279526573657420646F6E650046
:1000C0000D2E2D47D3913D04320000060010B07173
:1000D00057C43023B900070018146C070091876BD0
:1000E000F8B611E92A001F4100746F206C6F6E672B
:1000F0002000636F72727570740073656E642063A4
:100100006D642000080B00020202000009040000D8
:100110000102020000052400100105240101010470
:10012000240206052406000107058103100040098A
:10013000040100020A000000070502024000000757
:100140000583024000000403090412010002EF02CB
:1001500001404123378000010102030141726475AF
:10016000696E6F204C4C430041726475696E6F205C
:100170004D6963726F00496E697420656570726FB6
:100180006D20746F2064656661756C7473206166A0
:1001900074657220666C61736800436F6D6D616E8B
:1001A0006420746F206C6F6E673A20004D43004DE1
:1001B00055003B003D004D5300206269747320736D
:1001C0006574003A20006363726567200020004375
:1001D0003345203D002064656C6179312000206347
:1001E0006869705374617475732000636D6453742F
:1001F000726F62655265672000556E737570706F1F
:10020000727465642073686F727420636F6D6D61C2
:100210006E6400636F6D6D616E64206500697320AC
:100220006E6F7420636F72726563746C792073658E
:100230007420666F722041534B2F4F4F4B2E20502E
:100240006C6561736520646F206120666163746F03
:100250007279207265736574207669612000203D93
:100260002000203A00454550524F4D0020746F2029
:1002700050415441424C4520646F6E65007772696D
:1002800074652000202D20636F6D70696C6564209B
:100290006174204A756E2032312032303231203183
:1002A000373A34343A333700383638200034333371
:1002B00020004D687A0063633131303120005620D0
:1002C000332E352E302D6465762B32303231303678
:1002D0003231205349474E414C6475696E6F20009E
:1002E000200020557365206F6E65206F6620003BEF
:1002F000523D004D4E3B443D0000000000250028CB
:10030000002B002E00310004040404040304050241
:1003100002020204030202020206060606060604A0
:10032000040202020404040802011040804010206C
:1003300040804080080204018040201002011080AB
:1003400010204040200000000200090F00000304BC
:1003500001000C0000000000000000000000000090
:1003600000000000502411241FBECFEFDAE0DEBFF2
:10037000CDBF12E0A0E0B1E0EEE0F9E602C00590EA
:100380000D92AA30B107D9F724E0AAE0B2E001C08B
:100390001D92AA36B207E1F711E0C3EBD1E004C029
:1003A0002197FE010E948233C23BD107C9F70E9408
:1003B000BC240C9485340C940000FC010994FC01CD
:1003C000CB01642F0994E2E5F3E02491E3E3F3E049
:1003D0003491E4E1F3E09491992309F430C02223AD
:1003E000E9F021502F30D0F4E22FF0E0E650FE4F3C
:1003F0000C94823328022C020902200224020E02ED
:100400000E020E022F02350239023D0243020E0295
:100410004702209180002F7720938000E92FF0E0A1
:10042000EE0FFF1FE750FD4FA591B4919FB7F894D1
:10043000EC91811132C030953E233C939FBF0895CB
:10044000209180002F7DE8CF20918000277FE4CF8E
:1004500024B52F7724BDE2CF24B52F7DFBCF20918B
:1004600090002F7720939000D9CF209190002F7D7E
:10047000F9CF20919000277FF5CF2091C0002F77F2
:100480002093C000CBCF2091C0002F7DF9CF2091C9
:10049000C200277F2093C200C1CF3E2BCECF2FB703
:1004A000F89483E08093E9009091E800892F8072AE
:1004B00095FF04C09091F20080E4891B2FBF08953E
:1004C000FC0180918302882311F13FB7F89482E008
:1004D0008093E9002091F200822F90E0181619060F
:1004E00014F481E090E0882339F0289A44E64093A0
:1004F00082024091F1004083222339F02091F200E2
:10050000211103C02BE62093E8003FBF08958FEF31
:100510009FEF089580917A0281110DC082E080934F
:10052000760284E08093770210927902109278022A
:1005300081E080937A0286E792E008953FB7F894CD
:100540008091720290917302A0917402B091750231
:1005500026B5A89B05C02F3F19F00196A11DB11D1E
:100560003FBFBA2FA92F982F8827BC01CD01620F5A
:10057000711D811D911D43E0660F771F881F991F14
:100580004A95D1F708958F929F92AF92BF92CF92E2
:10059000DF92EF92FF926B017C010E949E024B0161
:1005A0005C01C114D104E104F104B9F00E949E027F
:1005B000681979098A099B09683E7340810591058C
:1005C00080F321E0C21AD108E108F10888EE880E14
:1005D00083E0981EA11CB11CE4CFFF90EF90DF9048
:1005E000CF90BF90AF909F908F90089580E0089536
:1005F00008954091130250911402209111023091FC
:10060000120242175307B4F49091E8009570E1F399
:100610009091E80092FD19C08093F100809113023F
:100620009091140201968F739927892B19F48EEFFC
:100630008093E800809113029091140201969093A8
:1006400014028093130281E0089580E00895EF92F0
:10065000FF920F931F93CF93DF93F82E192FE62E5F
:10066000042F81E0860F880F0E94F90283E00E9428
:10067000F902CF2DD12FEC0EFD2EF11CCE15DF058A
:10068000B9F007FF13C0FE0184910E94F902182FF0
:1006900080E00E94F902812321968111EFCFDF9142
:1006A000CF911F910F91FF90EF9008958881EDCF2A
:1006B00081E0F5CFDF92EF92FF920F931F93CF93DC
:1006C000DF93D82E8A01EB017B01E40EF51ECE15D7
:1006D000DF0559F0D7FE12C0FE0184910E94F90295
:1006E00021968111F4CF0FEF1FEFC801DF91CF9159
:1006F0001F910F91FF90EF90DF9008958881EECFCA
:100700000F931F93CF93DF931F92CDB7DEB782E095
:10071000898342E450E064E071E080E80E945A037B
:100720000E948A02DC0112960D911C91011511059F
:1007300089F0D801ED91FC910280F381E02DBE019A
:100740006F5F7F4FC801099597FD04C0F8010085D0
:100750001185ECCF89810F90DF91CF911F910F917F
:100760000895615030F02091F100FC012083019642
:10077000F8CF289A84E68093820208958F929F9200
:10078000AF92BF92CF92DF92EF92FF920F931F939F
:10079000CF93DF936C017B018A018091150188233F
:1007A00009F45CC080918302882309F457C08091CA
:1007B000170280FF05C08091E00082608093E00016
:1007C000E801B12C8AEFA82E93E0892E2AE3922E1D
:1007D000209711F4BB20D9F10E944F0281110AC069
:1007E000AA94AA20D9F161E070E080E090E00E9434
:1007F000C302EECF8C171D0611F00CF08C2F9FB7A3
:10080000F8948092E9002091E80025FD02C09FBF86
:10081000DFCF282F30E0C21BD30BF701815020F02F
:1008200041914093F100FACFE20EF31EBB2021F07C
:100830009092E800B12CEBCF8091E80085FDE7CFE6
:100840009092E800BB24B394209709F3F3CF5D9A0C
:1008500084E680931602101611063CF081E090E0C9
:10086000F6019383828310E000E0C801DF91CF910D
:100870001F910F91FF90EF90DF90CF90BF90AF90BE
:100880009F908F900895CF93DF931F92CDB7DEB7DF
:100890006983DC01ED91FC910280F381E02D41E060
:1008A00050E0BE016F5F7F4F09950F90DF91CF91B0
:1008B0000895682F89E892E00C9443040F931F93E6
:1008C000CF93DF938C01D0E0C0E0F801EC0FFD1F67
:1008D0006491662341F089E892E00E944304892BE9
:1008E00011F02196F2CFCE01DF91CF911F910F91A0
:1008F000089583E08093E9008091F200882319F045
:100900008AE38093E80008950E944F0290E00895E2
:10091000CF93DF931F92CDB7DEB7FC018485958519
:1009200097FD08C02FEF3FEF358724870F90DF91A9
:10093000CF910895CE0101960E946002019719F4AB
:10094000898190E0F3CF8FEF9FEFF0CF2FB7F8942E
:100950008091840290918502A0918602B0918702D5
:100960002FBF8093910290939202A0939302B09331
:10097000940289E892E00E94880497FF26C02FB76E
:10098000F8948091840290918502A0918602B091A2
:1009900087022FBF40919102509192026091930281
:1009A00070919402841B950BA60BB70B40918D029E
:1009B00050918E0260918F0270919002841795077A
:1009C000A607B707B0F28FEF9FEF08950F931F931D
:1009D000CF93DF931F92CDB7DEB78C01FC018485E6
:1009E000958597FF0BC0CE0101960E94600201978A
:1009F00071F4898190E0F80195878487F8018485F6
:100A000095850F90DF91CF911F910F9108958FEFF2
:100A10009FEFF1CFFC018485958597FD0BC09FB7B3
:100A2000F89482E08093E9008091F2009FBF90E00B
:100A3000019608959FB7F89482E08093E900809131
:100A4000F2009FBF90E008950F931F93CF938C0106
:100A5000C62F0E944F028823E1F34C2F50E0B801CB
:100A600089E892E0CF911F910F910C94BE038F9271
:100A70009F92AF92BF92CF92DF92EF92FF928FB789
:100A8000F8948090840290908502A0908602B090A5
:100A900087028FBF80910C0290910D02A0910E02EF
:100AA000B0910F0288169906AA06BB0648F48091F9
:100AB0000A0290910B02019690930B0280930A0216
:100AC00080920C0290920D02A0920E02B0920F0240
:100AD000A0910A02B0910B0227E339E841E450E00B
:100AE0000E94DE326B017C01C501B40128EE33E0C7
:100AF00040E050E00E94BC32C701B601620F731F94
:100B0000841F951FFF90EF90DF90CF90BF90AF9024
:100B10009F908F9008950F931F93F8940E949E02C8
:100B20000091D9021091DA022091DB023091DC02AF
:100B3000AB01BC01401B510B620B730B22E02093F5
:100B40001D0280E89EE390931C0280931B02909309
:100B500087008093860082E18093810041303DE7E9
:100B600053076105710508F443C066993EC02FEF35
:100B700032E88091AD038A35D8F48091AD038F5F60
:100B80008093AD038091AE036091AC030E942F333C
:100B90009093AE03E091AE03F0E0EE0FFF1FE0553F
:100BA000FC4F318320838091AE038F5F8093AE032F
:100BB0000E949E026093D9027093DA028093DB0256
:100BC0009093DC02809170020E94E3011092700207
:100BD00078948091100291E0980F90931002811107
:100BE00040C01F910F910C94370521E03DE7C1CF24
:100BF000413187E258076105710520F381E19DE7E6
:100C0000A0E0B0E0841B950BA60BB70B32E0880F79
:100C1000991FAA1FBB1F3A95D1F7009731E0A30790
:100C2000B105A8F421E020931D0290931C0280934B
:100C30001B0280911B0290911C029093870080936D
:100C4000860080911D02806180938100BBCF20933C
:100C50001D0223E0B695A795979587952A95D1F71C
:100C6000E4CF1F910F910895CF92DF92EF92FF9200
:100C70000F931F93F8940E949E020091D902109145
:100C8000DA022091DB023091DC026B017C01C01A98
:100C9000D10AE20AF30A6093D9027093DA028093D0
:100CA000DB029093DC028AE5C816D104E104F1046A
:100CB00098F181E0C8168DE7D806E104F10430F020
:100CC000CC24C3949DE7D92EE12CF12C9601669B90
:100CD00004C0222733272C193D098091AD038A35A2
:100CE000D8F48091AD038F5F8093AD038091AE0304
:100CF0006091AC030E942F339093AE03E091AE035A
:100D0000F0E0EE0FFF1FE055FC4F31832083809110
:100D1000AE038F5F8093AE0378941F910F91FF9085
:100D2000EF90DF90CF9008958EBD0DB407FEFDCFFC
:100D30008EB508951F93CF93DF93182FD62F2C983D
:100D4000CFEF1B9B0AC061E070E080E090E00E9462
:100D5000C302CC2349F0C150F4CF812F0E949406E6
:100D60008D2F0E9494062C9ADF91CF911F910895A8
:100D70001F93CF93DF93182FD62F2C98CFEF1B9B69
:100D80000AC061E070E080E090E00E94C302CC23E2
:100D900059F0C150F4CF812F8D2B0E94940680E032
:100DA0000E949406C82F2C9A8C2FDF91CF911F910F
:100DB000089580911601813021F084E360EC0C9459
:100DC000B80684EFFBCF60E888E00E94B806823363
:100DD00039F460E880E00E94B80691E08D3009F0B7
:100DE00090E0892F08952C989FEF20E130E01B9B25
:100DF00008C0F9013197F1F79150C9F72C9A80E0BA
:100E000008950E9494062C9A81E00895CF93DF9371
:100E1000D82F2C98CFEF1B9B0FC061E070E080E0D3
:100E200090E00E94C302C11105C0D0E08D2FDF9178
:100E3000CF910895C150EFCF8D2F0E949406D82FE7
:100E4000CFEF1B9B0AC061E070E080E090E00E9461
:100E5000C302CC2351F3C150F4CF2C9AE7CF86E3E1
:100E60000E94060761E070E080E090E00C94C3020D
:100E7000EE9888EF92E090930D0180930C018091A1
:100E80001E0281110E942F071092AD031092AF0332
:100E90001092AE030895CF930E942F07CFEF84E303
:100EA0000E940607C1508077803141F061E070E018
:100EB00080E090E00E94C302C111F1CF2598CF914C
:100EC000089584E396E090930D0180930C01809146
:100ED0006A008F7C806180936A00EE9A80911E0286
:100EE00081110C944B07089590ED980F9A3030F0D3
:100EF0009FE9980F963020F499EA980F892F08956A
:100F00009FEB980F963010F499ECF7CF982FF6CF0F
:100F1000CF93DF93FC01EE57FF4F4081469FF001D6
:100F2000479FF00D1124DF0123E0B695A7952A9580
:100F3000E1F7EC01CB57DF4F28812A171B0629F177
:100F400024F12297288130E0E770FF27E90102C0F1
:100F5000D595C795EA95E2F7A80FB91F2C912C23D8
:100F600030E058E0541B469F402D11244770541B1D
:100F700002C0359527955A95E2F78A579F4FFC0195
:100F80002083822FDF91CF9108958FEFFBCFCF93F6
:100F9000DF93FC0187A943A954A9873081F4141673
:100FA00015066CF4A2A920AD2150330BA21713062D
:100FB0007CF5AF5FA2ABAE0FBF2FB11D1C9275A920
:100FC000C72FD0E0282F30E02F5F3F4F2C1B3D0B69
:100FD0001216130624F401C0660F2A95EAF7A2A997
:100FE000AE0FBF2FB11D9C91692B6C934F5F5F4F6C
:100FF00054AB43AB282F082E000C330B2C1B3D0B9E
:10100000871B37FD87E087AB81E0DF91CF910895A3
:1010100080E0FBCFCF93DF93DC011296ED91FC9142
:10102000139714962D913C911597E901D595C79585
:101030008D919C918C0F9D1F20FF08C0DC012D918C
:101040003C91E20FF31F0190F081E02DDF91CF91F1
:1010500009940F931F93CF93DF93FC01808988231A
:1010600009F469C0168217821086118612861386CB
:1010700014861586411101C0482F262F30E0359582
:101080002795A42FB0E0B595A79580E060FF14C028
:10109000EF01C955DF4F88812817A0F5EF01C20F76
:1010A000D31F8AA1C82FCF70CE0FDF2FD11D9E81F5
:1010B0009F5F9E832F5F3F4FBF0169557F4F022F78
:1010C00010E00A171B0700F5EB019881291720F49F
:1010D000E801CE0FDF1F8AA1C82FD0E034E0D595FC
:1010E000C7953A95E1F7CE0FDF1F9E819F5F9E83E4
:1010F000C82FCF70CE0FDF2FD11D9E819F5F9E83A3
:101100002F5FDDCF80E0CECF40FF15C0EF01C95586
:10111000DF4F9881A91720F4AE0FBF1F92968C91D4
:1011200090E024E0959587952A95E1F7E80FF91F5F
:1011300086818F5F8683DF91CF911F910F910895F4
:10114000CF93DF93FC019C0123543F4FD9011C92A4
:1011500011961C9212A25D971C92119611961C92E8
:101160001E92149687E08C93108A118E108E5996D9
:101170008FEF8C9380835297CF0106961D921D921C
:10118000EC011992CE01A217B307C1F7138A86E9C1
:1011900090E0978B868BDF01A755BF4F40E050E072
:1011A00060E87EE34D935D936D937C931397118A72
:1011B000148A158A57961C92128A11A210A283E0F3
:1011C0008583DF91CF910895CF93DF93E0E097FF80
:1011D00007C02DE2FB012083919581959109E1E003
:1011E000A2E2B1E050E02D913D9140E382179307D8
:1011F00028F04F5F821B930B51E0F8CF552329F065
:10120000EB01CE0FD11D4883EF5F21FFECCFDB0157
:10121000AE0FB11D805D8C93EF5FE60FF72FF11DD0
:101220001082CB01DF91CF910895FC0180819181E3
:10123000892B51F482819381892B31F484819581AA
:1012400021E082278170089580E008950F931F9315
:10125000CF93DF931F92CDB7DEB769838C0107531D
:101260001F4FC8010E94150981110DC041E0BE0148
:101270006F5F7F4FC8010E940A080F90DF91CF91E6
:101280001F910F91089590E080E0F7CFCF93DF9307
:10129000EC018031910538F024E0969587952A95E8
:1012A000E1F70E944609CF70DD27CD5BDE4F6881F4
:1012B0008DED92E0DF91CF910C942609FC01019015
:1012C0000020E9F73197AF01481B590BBC0189E8B1
:1012D00092E00C94BE038F929F92AF92BF920F93B5
:1012E0001F93CF93DF93CDB7DEB7A1970FB6F894D6
:1012F000DEBF0FBECDBF19A2423008F44AE08E0116
:101300000F5D1F4F842E912CB12CA12CA5019401AF
:101310000E94BC32E62FB901CA01EA30F4F4E05D64
:10132000D801EE938D01232B242B252B79F790E008
:1013300080E0109719F0CD010E945E09A1960FB6CA
:10134000F894DEBF0FBECDBFDF91CF911F910F91FB
:10135000BF90AF909F908F900895E95CE1CFCF92BE
:10136000DF92EF92FF92CF93DF936C01990FEE081B
:10137000FF08F7FE17C08DE20E945904EC016627B2
:101380007727CB016C197D098E099F094AE00E94DD
:101390006B098C0F9D1FDF91CF91FF90EF90DF9035
:1013A000CF9008954AE0C701B601DF91CF91FF9039
:1013B000EF90DF90CF900C946B09CF93C82F8031C2
:1013C00020F490E080E00E94AF096C2F70E090E084
:1013D00080E040E1CF910C946B09CF93DF930E94A2
:1013E0005E09EC0184E591E00E945E098C0F9D1F6F
:1013F000DF91CF910895CF93DF93D82F8EEF8D0F8C
:101400008E33F0F4C62F0E949A06D43151F48C2FFB
:1014100090E024E0959587952A95E1F78770809371
:10142000170187E50E9459048D2F0E94DD098C2F3A
:101430000E94DD0986E591E0DF91CF910C94ED09E2
:10144000DF91CF910895009711F00C945E0990E020
:1014500080E00895CF93DF930E945E04EC0184E561
:1014600091E00E945E098C0F9D1FDF91CF9108953E
:10147000CF92DF92EF92FF92CF93DF936C01990F9F
:10148000EE08FF08F7FE1DC08DE20E945904EC0132
:1014900066277727CB016C197D098E099F094AE0E1
:1014A0000E946B09C80FD91F84E591E00E945E0974
:1014B0008C0F9D1FDF91CF91FF90EF90DF90CF9029
:1014C00008954AE0C701B6010E946B09EC01ECCF18
:1014D000EF92FF920F931F93CF93DF9361157105E6
:1014E000E1F08B01FB0101900020E9F731977F01CA
:1014F000E61AF70AEC01C753DF4FCE010E94150927
:1015000081110BC04E2DB801CE01DF91CF911F91FB
:101510000F91FF90EF900C940A0890E080E0DF912B
:10152000CF911F910F91FF90EF9008950C949E32F0
:10153000CF93DF93C2E0D0E0FE01E254FF4F64910D
:10154000CE010E94960A2196CB32D105A9F7D0E0B0
:10155000C0E0C13079F464E881E390E00E94960A2B
:101560002196C830D105A9F78CEA90E0DF91CF91A0
:101570000C942A0A60E0CE01C096F0CF0C9496320B
:10158000CF93DF932C98CFEF1B9B0AC061E070E0F4
:1015900080E090E00E94C302CC2389F0C150F4CFD8
:1015A0008EE70E949406C0E3D0E0CE010E94BE0AFE
:1015B0000E9494062196C833D105B9F72C9ADF9181
:1015C000CF910895CF93DF932C9A88E390E0FC01AC
:1015D0003197F1F72C980197F1F72C9A86E590E076
:1015E0000197F1F780E30E9406076AE070E080E06F
:1015F00090E00E94C3022C98CFEF1B9B0AC061E0D1
:1016000070E080E090E00E94C302CC2371F1C150F1
:10161000F4CF80E40E949406C2E0D0E0CE010E94A4
:10162000BE0A0E9494062196CB32D105B9F72C9AB6
:1016300080E190E00197F1F784E190E00E94BE0A1A
:1016400090E024E0959587952A95E1F7877080933F
:1016500017010E94C00A61E070E080E090E00E9403
:10166000C302DF91CF910C944B07DF91CF91089586
:101670002F923F924F925F926F927F928F929F92A2
:10168000AF92BF92CF92DF92EF92FF920F931F9390
:10169000CF93DF93CDB7DEB7CD59D1400FB6F894D5
:1016A000DEBF0FBECDBF0E943807CF5FDE4F19826D
:1016B0001882C150D14081E0C85EDE4F8883C85196
:1016C000D140C75EDE4F19821882C951D140C05D3A
:1016D000DE4F8883C053D140CF5CDE4F1982188221
:1016E000C153D140C85BDE4F8883C854D140C75B2B
:1016F000DE4F19821882C954D140C05ADE4F888308
:10170000C056D140CF59DE4F19821882C156D14000
:10171000C858DE4F8883C857D1409E012F5F3F4F86
:10172000290180E091E0D901FC011D923197E9F790
:10173000CE57DE4F39832883C258D14066246A943D
:101740000FE112E0EE24EA94C557DE4F1882CB5821
:10175000D140F1E0C257DE4FF883CE58D14088E146
:10176000782E4E0193949CE0F92ED8018C9183350C
:1017700009F06EC111968C91833481F4E394E1E019
:10178000F1E0EC0FFD1F7E9CE00DF11D1124128293
:10179000C257DE4F1882CE58D1400EC08D3409F0AA
:1017A0003AC1E394E1E0F1E0EC0FFD1F7E9CE00D17
:1017B000F11D1124B1E0B283E11010C043E050E00C
:1017C0006FE172E089E892E00E94BE03CE57DE4FDF
:1017D00059824882C258D14010E000E0CE57DE4F17
:1017E00088819981C258D14080179107C1F148166C
:1017F000590639F00196CE57DE4F99838883C25837
:10180000D140CE57DE4F08811981C258D140B12C4A
:10181000CE57DE4FC880D980C258D140CB0CD11CE6
:10182000CE57DE4FD982C882C258D1400E94A6044A
:1018300097FDFCC1D6018C936B18CE57DE4FE88123
:10184000F981C258D14080818B3309F011C26620E2
:1018500009F413C211820115110509F086CF809198
:101860001E02882361F08BE30E94F306882339F07F
:101870000E942F071EEF1F3F09F019C2259ACD5F66
:10188000DE4F8881C350D140811124C2C85EDE4F33
:10189000F881C851D140C657DE4FF883CA58D140AD
:1018A000F11106C021E0C657DE4F2883CA58D14047
:1018B000C157DE4F1882CF58D1408E2D90E0C856C8
:1018C000DE4F99838883C859D14081E091E08C0F25
:1018D0009D1FA8E1AE9D800D911D1124FC01339642
:1018E000C656DE4FF983E883CA59D1409C012E5F6A
:1018F0003F4FC456DE4F39832883CC59D140F12C59
:1019000001E011E00C0F1D1F38E13F9D000D111D7E
:101910001124D80112968C91823009F0EDC1912CDE
:10192000F8017796C857DE4FF983E883C858D1404D
:1019300098012B5F3F4FC457DE4F39832883CC5823
:10194000D140C8010396CC57DE4F99838883C45891
:10195000D14081E090E08C0F9D1FA8E1FA9E800DA0
:10196000911D1124FC013796CA57DE4FF983E88395
:10197000C658D140C857DE4FA881B981C858D14058
:101980008C91981608F0CCC2C457DE4FE881F981DB
:10199000CC58D14020803180CC57DE4FA881B9810E
:1019A000C458D140CC901196DC900E949E022B012D
:1019B0003C018601F8010215130508F094C10F5F80
:1019C0001F4FE081E053F0E0EE0FFF1FCA57DE4FDC
:1019D00028813981C658D140E20FF31FF395A080CA
:1019E000B1806501B7FE04C0CC24DD24CA18DB0831
:1019F0000E949E026415750586059705C8F3B7FE1B
:101A000070C12D98C601DD0CAA0BBB0B480E591EE8
:101A10006A1E7B1ECFCF823561F4E394E1E0F1E0F2
:101A2000EC0FFD1F7E9CE00DF11D112422E02283AE
:101A3000AFCE8E3409F0C0CEE394E1E0F1E0EC0FDC
:101A4000FD1F7E9CE00DF11D112433E03283B4CEE6
:101A5000803569F512968C9112978D3309F0BECEC0
:101A60001196EC91B0EDDB2EDE0EB7E0BD1508F45B
:101A7000B5CE4AE050E0BE016E577E4FC8010396D6
:101A80000E94642FFE9CF0011124ED0DF11DEE0F5C
:101A9000FF1F21E031E02C0F3D1FE20FF31F708785
:101AA0006783E1109BCEC8010E94230A8FCE823546
:101AB000C1F411968C918D3309F090CE4AE050E03C
:101AC000BE016E577E4FC80102960E947B30E1E056
:101AD000F1E0EC0FFD1F7E9CE00DF11D1124678BE2
:101AE000E0CF843449F5F80181818D3309F076CE59
:101AF000CC24C394DC2CCC0EDD1E7E9CC00CD11CEF
:101B00001124C8010296D60114969C938E931397C4
:101B1000A401401B510B4D5F5F4F6BE370E00196DA
:101B20000E944334CE57DE4F99838883C258D140F8
:101B3000F6019683858352CE8334C9F411968C9135
:101B40008D3309F04BCE4AE050E0BE016E577E4F18
:101B5000C80102960E947B30E1E0F1E0EC0FFD1F2E
:101B60007E9CE00DF11D11247183608337CECE572A
:101B7000DE4F28813981C258D140863409F02ECEFB
:101B8000F80181818D3309F029CE201B310BC90169
:101B9000019797FDC90195958795C557DE4F8883B5
:101BA000CB58D1408150853008F018CE80911E026C
:101BB000882309F413CECF57DE4F1882C158D14085
:101BC0005E01F7E8AF1AFEEFBF0A680122E0C20E1D
:101BD000D11C312C5DE0252E230C60E8822D0E9463
:101BE000B806D5018D935D01F601819191916F0148
:101BF000C158DE4F99838883CF57D14040E150E0F0
:101C000070E060E0CE0181589E4F0E94642F822DCB
:101C10000E949A063394C557DE4FF881CB58D140C5
:101C20003F16C0F2DBCDBB24B394F2CD8AEF90E037
:101C30000E945E0482EF90E00E942A0AC356DE4FA3
:101C40000FB6F894DEBF0FBECDBFDF91CF911F91CD
:101C50000F91FF90EF90DF90CF90BF90AF909F904B
:101C60008F907F906F905F904F903F902F9008954E
:101C70008A3009F4C4C16110D6CF84E592E001979F
:101C8000F1F78E0113950E94A60497FD09C08A30D2
:101C9000910531F0F20181932F010E171F0799F77B
:101CA0008AEF90E00E945E0489EE90E0C5CF85E364
:101CB0000E9406070FEF010F8077803241F061E04C
:101CC00070E080E090E00E94C302102FD4CD11118B
:101CD000D5CDD5CD31E0C657DE4F3883CA58D14077
:101CE000E7CD2D9A8FCE0E949E026415750586055C
:101CF0009705C8F393943ECE813009F0CAC0C85707
:101D0000DE4F1882C858D1406801C8014796CE56A8
:101D1000DE4F99838883C259D140D8011596CA569F
:101D2000DE4FB983A883C659D140F8013396CA570C
:101D3000DE4FF983E883C658D140CE56DE4FA881E6
:101D4000B981C259D1408C91C857DE4FB881C8586B
:101D5000D140B81708F0E4C0F60140805180CA565F
:101D6000DE4FA881B981C659D1400D90BC91A02DFC
:101D7000C057DE4FB983A883C059D140CA57DE4F40
:101D8000E881F981C658D140708011810E949E027D
:101D90004B015C01CC57DE4F7882C458D140CB5701
:101DA000DE4F1883C558D140052C000C6608770813
:101DB000C057DE4F28813981C059D140CC57DE4F02
:101DC00088819981C458D1408217930708F055C083
:101DD000DC018D91CC57DE4FB983A883C458D14024
:101DE00090E38A330CF097E3891B04E010E038E0BD
:101DF000232EE82F880FFF0BCC56DE4FF983E883A4
:101E0000C459D140312CCC56DE4F28813981C45978
:101E1000D14022213321C457DE4F39832883CC5847
:101E2000D140232B31F52D9A840C951CA61CB71C90
:101E30000E949E02681579058A059B05C8F3C45760
:101E4000DE4F88819981CC58D140892BA1F42D98FF
:101E5000840C951CA61CB71C0E949E02681579056F
:101E60008A059B05C8F3359427940150110951F652
:101E70009FCF2D98D9CF2D9AEBCFC857DE4F9881A1
:101E8000C858D1409F5FC857DE4F9883C858D1408B
:101E900054CF833009F044C0712C5801A7E1AA0E39
:101EA000B11C0B5F1F4FF50180817816C8F5D80172
:101EB0008D909C90C656DE4FE881F981CA59D14079
:101EC000C080D1802C988FE70E949406C814D90452
:101ED00098F4D6018C910E947407682E629490EF5A
:101EE0006922F60181810E947407860D0E94940682
:101EF000F2E0CF0ED11CEACF2C9A88ECD82E60EC01
:101F000085E30E94B806833149F461E070E080E027
:101F100090E00E94C302DA94D110F1CF7394C3CF42
:101F2000C456DE4FA881B981CC59D1408C91833001
:101F300009F02D98F394EF1408F0E2CCC257DE4F6D
:101F4000B881CE58D140BB2331F061E070E080E031
:101F500090E00E94C302C157DE4FE881CF58D140C4
:101F6000EF5FC157DE4FE883CF58D140C657DE4FF1
:101F7000F881CA58D140FE13C2CCC557DE4F288124
:101F8000CB58D1402223A9F07E0137E8E31A3EEF77
:101F9000F30A10E0D7016D917D018DE0810F0E9461
:101FA0009A061F5FC557DE4FB881CB58D140B11399
:101FB000F1CFCE0101960E94230A88E1C856DE4F78
:101FC00028813981C859D140829FF001839FF00D4B
:101FD000112481E091E08C0F9D1FE80FF91F828191
:101FE000833051F08DED92E00E94A0081092AD0375
:101FF0001092AF031092AE030E9461071FCE6620BD
:1020000009F43BCE2CCC2F923F924F925F926F926D
:102010007F928F929F92AF92BF92CF92DF92EF9278
:10202000FF920F931F93CF93DF9300D01F92CDB7F2
:10203000DEB7DC0154961C925497662309F46EC0F7
:1020400050962C91222309F469C06217B8F00F90C2
:102050000F900F90DF91CF911F910F91FF90EF9014
:10206000DF90CF90BF90AF909F908F907F906F90B8
:102070005F904F903F902F900C94A008E62FF0E0D7
:10208000309709F44BC08C010E551F4FD8012D918C
:102090003C91E217F30708F041C09B838A837C01DF
:1020A000B2E2EB0EF11C8F559F4F5C01C901019705
:1020B000E817F90709F048C0EA81FB8112A2D501AF
:1020C0001C92F8011182108287E0EA81FB81EA55B7
:1020D000FF4F808381E0AA81BB8154968C935497F3
:1020E000F801608150966C93662309F4D9C0615061
:1020F000770BC7010E948807EA81FB81E855FF4FF3
:102100008081880F990B83559F4F2A813B81820FD5
:10211000931FD90191969C938E9390970F900F9057
:102120000F90DF91CF911F910F91FF90EF90DF9073
:10213000CF90BF90AF909F908F907F906F905F9067
:102140004F903F902F9008952A803B8044EA240EC0
:10215000311CD1014C91649F2001112453E056940D
:1021600047945A95E1F74982842E912C68E0C62E57
:10217000D12CC601B4010E944F33CF010E943B33E2
:10218000BC01D5019C91320177246115710509F4D8
:1021900065C0469F802D112468E0681BB2E26B0E7B
:1021A000711C2A803B80260C371CA701742DD98016
:1021B0007D194916B0F4D101CD901D016C90712CA0
:1021C000062E02C0759467940A94E2F7082E01C0A7
:1021D000CC0C0A94EAF7C628DA01CD92AD014394FB
:1021E000E5CF20FD11C04A815B81470F511DAA81B7
:1021F000BB81A40DB11D92969C9101C0990F8A9547
:10220000EAF7DA0192969C932E1B3F0BF80131837B
:102210002083829EF001839EF00D929EF00D11248A
:10222000CF0168E070E00E944F33AA81BB81AA55BC
:10223000BF4F882389F097E0981B892F8C93CF019B
:102240008819990997FD079623E0959587952A9512
:10225000E1F7D5018C933ECF87E0F0CF9419F501DB
:102260009083492F50E04F5F5F4FB701660D771D98
:10227000C7010E945034D1016C9170E0C6010E94E8
:102280004F33669D9001679D300D769D300D112472
:10229000F80180819181821B930B918380831ACFF7
:1022A000EA81FB8111A210A239CF2F923F924F9267
:1022B0005F926F927F928F929F92AF92BF92CF92D6
:1022C000DF92EF92FF920F931F93CF93DF93CDB7DF
:1022D000DEB7C355D1090FB6F894DEBF0FBECDBF30
:1022E0009E012F5F3F4F38A72FA386E1D9011D9292
:1022F0008A95E9F780919D032091ED02811103C039
:10230000283208F497C31092F00291E02E3F09F0B2
:1023100090E09093F20240E060E0811168C28DEDA0
:1023200092E00E942908B12C8B2C912CB0919A0339
:10233000BFA7EB2FE150FF0B8E169F060CF008C1D4
:10234000B394F401E352FD4FCF0106962681222378
:1023500059F3AB2C9401220F331FA90146575C4F50
:1023600058AB4FA79AAB89AB5CAB4BAB80919A0350
:10237000A816D0F6EA2CF12CB70163527D4F1B0151
:10238000DB0116968C91882309F4E0C0EFA5F8A92B
:10239000C080D180F701EE0FFF1FE657FC4F008190
:1023A0001181C6018027912797FDD0C040908603F8
:1023B000509087036090880370908903B80117FFDD
:1023C00004C066277727601B710B072E000C880B53
:1023D000990B0E947931A30192010E94D8316DAB13
:1023E0007EAB8FAB98AFB601D7FE04C066277727C8
:1023F0006C197D09072E000C880B990B0E9479310E
:10240000A30192010E94D8319B01AC016DA97EA964
:102410008FA998AD0E94903320E030E040E05FE368
:102420000E94D8310E94FC330C191D0917FF03C00C
:10243000119501951109601771070CF487C0D12C13
:10244000712CF6E02F0E311CD101CC908091ED0261
:10245000D81608F044C07C1408F041C06D2D70E01F
:102460008FEF92E00E94880780918503082E000C70
:10247000990BE816F90689F520918103422F50E067
:10248000D29E90011124F90173E0F695E7957A95B3
:10249000E1F780918403E817F8F427703327FF27CA
:1024A000E352FD4F8091820390E0022E02C0959589
:1024B00087950A94E2F7809592A1892368E070E0FD
:1024C000641B750BAB01421B530B940101C0220F1F
:1024D0004A95EAF7822B82A37394D394B5CFA9A926
:1024E000BAA9DC904D2D50E0EBA9FCA9A081B181E7
:1024F0009A010E9488332B013C018701000F111FB4
:1025000006571C4FEC2DF0E0D8018D919C919F0156
:10251000DC010E948833640D751D861D971D4E0FCA
:102520005F1F9A01550F440B550B0E946333EBA9B3
:10253000FCA931832083DC0CA9A9BAA9DC92F7019C
:10254000E352FD4F1682F80111821082A3940ECF40
:102550001092F6021092F5028FEF8093DD02F09157
:10256000ED02F9AB2AE8222E23E0322E10E000E043
:10257000EE24EA94FE2C8F2E912CB12CA12C2FA5A9
:10258000021708F055C0D101CD90DD901D01BFEFBD
:10259000EB16FB0609F5D7FC48C0F801E352FD4FE6
:1025A000668170E090E080E00E9479312B013C016F
:1025B000C501B4010E9479312BE734E14EE25EE3BC
:1025C0000E94D8319B01AC01C301B2010E94323498
:1025D000181624F4780129C0D7FC27C0F701EE0FA4
:1025E000FF1FE657FC4F80819181C816D906ECF495
:1025F000F801E352FD4F668170E090E080E00E94B8
:1026000079312B013C01C501B4010E9479312BE7DE
:1026100034E14EE25EE30E94D8319B01AC01C3017C
:10262000B2010E9432341816ACF20F5F1F4FA7CFD1
:10263000EFEFEE16FE0641F0E092DD0281E090E061
:102640009093F6028093F5028091F5029091F60244
:10265000019709F08FC08091E002882309F48AC0B5
:1026600089A9863A08F085EA18EDF12EF80E0FA533
:102670000150002E000C110B86E0982EE02EFFEF8B
:102680000F1709F4B1C0F801EE0FFF1FE657FC4F1A
:102690008081918197FFA5C022273327281B390B02
:1026A00089399D4B0CF49DC0E091DD02EE0FFF0BCC
:1026B000E657FC4F0190F081E02DC901BF010E9457
:1026C0003B336D32710508F08CC09E9EC0019F9E09
:1026D000900D11248217930708F083C0F801E3528C
:1026E000FD4FD6806D2D70E090E080E00E94793142
:1026F0002B013C016091ED0270E090E080E00E94CF
:1027000079312AE037ED43EA5DE30E94D8319B013D
:10271000AC01C301B2010E94723187FF62C051E077
:102720005D1508F05EC0D12CC12CCF1408F059C043
:1027300056016FEFA61AB60AB5018FEF92E00E941C
:10274000880780918503E8124AC0B6018FEF92E0B6
:102750000E948807909185038091DD0298133FC005
:10276000E0929C0382E090E09093F6028093F50261
:10277000C092EE028091F5029091F602029711F05C
:102780000C94511F8091ED02883210F40C94511F6B
:102790008091EE028E5F8093EF0210E06091EF0275
:1027A00070E08091ED028150990B6817790724F54C
:1027B0006F5F7F4F8FEF92E011110C94111F0E94F9
:1027C000880711E09091850380919C03981301C0C4
:1027D00010E08091EF028E5F8093EF02DFCF650102
:1027E000A4CF015011094ACF00939C03C3CF8DEDB4
:1027F00092E00E942908BECF10E00C942D1F80911A
:10280000ED028E3F08F0D7C1861B990B88970CF418
:10281000D2C162E08DED92E00E9426098091E10232
:10282000882309F42BC167E571E08DED92E00E94E9
:10283000680AF12C80919A03F816C8F58F2D90E064
:10284000FC01EE0FFF1FE657FC4F008111810115BF
:10285000110539F183529D4FDC0116968C91882326
:1028600001F16F2D17FF1FC0606A119501951109C5
:10287000E02E07FD1AC06894E7F88DED92E00E9403
:1028800026096E2D8DED92E00E942609612F606869
:102890008DED92E00E9426096BE38DED92E00E949F
:1028A0002609F394C7CF6068E3CF6061E6CF8091DB
:1028B000EF0264E480FF64E68DED92E00E94260959
:1028C000E091EE02E0FF33C0E150E093EE02E695C6
:1028D00080918403E81748F5F0E0E352FD4F82A1B0
:1028E0008F7080688FA7682F8DED92E00E94260977
:1028F0008091EE028E5F8093EE021091EE02809145
:10290000EF028117B0F0E12FE69580918403E8177C
:1029100028F4F0E0E352FD4FB2A1BFA76FA58DED03
:1029200092E00E9426091E5FEACF80E0D9CF1FA661
:10293000E4CF6BE571E08DED92E00E94680A609152
:10294000DD02605D8DED92E00E9426096EE571E08A
:102950008DED92E00E94680A60919C03605D8DEDB0
:1029600092E00E9426096BE38DED92E00E94260919
:1029700080EA93E00E94150981110FC062E58DED98
:1029800092E00E94260980919F0390E00E944609F0
:102990006BE38DED92E00E9426098091F20288237C
:1029A00031F062E771E08DED92E00E94680A1092CA
:1029B000F1026091EF028091ED02861B990B8897DE
:1029C000FCF08091E2028823D9F081508093E202EA
:1029D0006F5F8DED92E00E9403101092EE026DE6A3
:1029E0008DED92E00E9426096091E202605D8DED1E
:1029F00092E00E9426096BE38DED92E00E94260989
:102A000063E08DED92E00E9426096AE08DED92E090
:102A10000E94260981E08093F0028091F0028111EA
:102A20000C94661D8091DF029091DE029111DAC054
:102A30008111DBC08091F00281110C94E91E80911C
:102A4000F102882311F40C94ED1E40919A03EAE8F8
:102A5000F3E090E080E020EDE22E27E0F22E8417F4
:102A600010F00C94CB1E219131911216130624F410
:102A70002E153F050CF47C010196F1CF61E671E063
:102A80008DED92E00E94680A10E080919A03181779
:102A9000C0F5812F90E09C01220F331FF901E6570A
:102AA000FC4F7F0120813181232B49F183529D4FBF
:102AB000DC0116968C91882311F160E58DED92E092
:102AC0000E94260960E3610F8DED92E00E942609C5
:102AD0006DE38DED92E00E942609BE016F5F7F4F8E
:102AE000F701808191810E94E408BC018DED92E0A4
:102AF0000E94680A6BE38DED92E00E9426091F5F39
:102B0000C4CF6CE871E08DED92E00E94680A1091EC
:102B1000EE028091EF02811778F0612F70E08FEF65
:102B200092E00E94880760918503605D8DED92E0E0
:102B30000E9426091F5FEDCF65E671E08DED92E002
:102B40000E94680A6091DD02605D8DED92E00E9456
:102B500026096AE671E08DED92E00E94680A6091B4
:102B60009C03605D8DED92E00E9426096BE38DED84
:102B700092E00E94260980EA93E00E9415098111E3
:102B800018C06FE671E08DED92E00E94680A8091B6
:102B90009F03BE016F5F7F4F90E00E94E408BC017D
:102BA0008DED92E00E94680A6BE38DED92E00E9449
:102BB00026091FA6F2CE662361F08091EF028D3FB9
:102BC00040F08DED92E00E9403101092EE020C9402
:102BD000511F8DED92E00E94A00881E08093F002E9
:102BE0000C94511F882309F471C78091EB029091D6
:102BF000EC02892B39F585E490E00E943F2EFC0120
:102C000082E380AF81E085AB108212AA14AA13AAD6
:102C100087E087AB80E886AB8FEF84AF85AF86AF68
:102C200087AFDF01AD5BBF4F1C9211961C928DEDFB
:102C300092E093AF82AF14971D921C92F093EC0236
:102C4000E093EB0280919D03811121C0E091EB02A2
:102C5000F091EC028FEF84AF85AF87AF86AFDF01D5
:102C6000AD5BBF4F1C9211961C9214971D921C9243
:102C7000108212AA14AA13AA87E087ABE091EB0294
:102C8000F091EC02EE5BFF4F80919E038083809178
:102C90009D0381110C947E1F2090EB023090EC027A
:102CA000D101DA960D911C91F801E354FF4FF080A9
:102CB000B3E0BF1508F00AC7F801608970E090E042
:102CC00080E00E9479312AE037ED43E25DE30E9423
:102CD000D8314B015C0120E030E0A9010E94323480
:102CE00020E030E040E05FE387FD38C0C501B4017B
:102CF0000E9490330E94FC33A8014A5F5F4F980105
:102D000023553F4F812C90E0DA018D91AD0186175C
:102D100090F1E82DF0E03196A7E1B0E0AC0FBD1FD7
:102D2000EA0FFB1F882D8823F1F0DF011297EC904A
:102D3000AE2DB0E0AA0FBB1FA00FB11F5D017DEA51
:102D4000A70EB11CD901CD90DC90D501AD90BC90FF
:102D5000CA14DB0444F4E2928150E5CFC501B4010A
:102D60000E948F33C7CFE7E1F0E0EC0FFD1FE80FC3
:102D7000F11D908383949F5F2E5F3F4FF912C4CF64
:102D8000FE017796F8A7EFA32196FFAFEEAF21974C
:102D900040911E0150911F0160912001709121010D
:102DA00029964CAF5DAF6EAF7FAF2997B1016D5BD8
:102DB0007F4F7CAF6BAFC1018E5B9F4F2B969FAF58
:102DC0008EAF2B97D101AC5BBF4F6496BFAFAEAF58
:102DD00064973C96FEA7EDA7FFA12E96FFAF2E9716
:102DE0008FAD8F1B881508F071C6D101DA96ED9171
:102DF000FC912196AEADBFAD21978D912196BFAFCD
:102E0000AEAF219790E0880F991FE80FF91FE355A7
:102E1000FF4F8081918118161906F4F68FEFD101CA
:102E2000DC968C93DC97DD968C93DD97DF968C9304
:102E3000DF97DE968C93208131813AAB29ABC901B3
:102E400037FD0196AC01559547952D965FAF4EAF76
:102E50002D97BE01695E7F4F23967FAF6EAF23979C
:102E60001EAE1DAE8FEF9FEF9AAF89AF29A93AA989
:102E7000032E000C440B550B62962CAF3DAF4EAFAA
:102E80005FAF6297AE01415E5F4F5AA749A7605F8F
:102E90007F4F7CA76BA722968FAD22972E967FAD92
:102EA0002E97871B881508F097CF2396AEADBFAD40
:102EB0002397DD902396BFAFAEAF2397D101DA966B
:102EC000ED91FC918D2D90E0880F991FE80FF91F6F
:102ED000E355FF4F0081118162966CAD7DAD8EADE3
:102EE0009FAD62970E9479312B013C01780117FF59
:102EF00004C0EE24FF24E01AF10A2DEC3CEC4CE473
:102F00005EE3C301B2010E94D8310E94FC332D96CA
:102F10008EAD9FAD2D978E199F0997FF03C0919598
:102F200081959109681779070CF0BEC72DEC3CEC30
:102F30004CEC5EE3C301B2010E94D8310E94FC3325
:102F400089A99AA98E199F0997FF03C09195819528
:102F50009109681779070CF49ECF101611060CF42E
:102F60004CC1D101DC96DC92A6C7F101D6AEBDAD55
:102F7000BF5FBDAFE9ADFAADE00FF11FFAAFE9AF4A
:102F8000D101DC968C91DC978F3F09F484CFDF96DA
:102F90008C91DF978F3F09F47ECFDD968C91DD9782
:102FA0008F3F09F478CFDE968C918F3F09F473CF71
:102FB00029962CAD3DAD4EAD5FAD29972BA33CA31B
:102FC0004DA35EA32F8F38A349A35AA3B12CA12CE4
:102FD0001FEFD101DA96ED90FC90F70180898A15F8
:102FE0001B0409F00CF457CFB501C70182960E946B
:102FF0008807F701E855FF4F0081802F90E0D1014D
:10300000DC962C91DC97022E000C330BDA96ED91B6
:10301000FC91DB9782179307D1F0DD962C91DD9719
:10302000022E000C330B8217930789F0DF962C9148
:10303000DF97022E000C330B8217930741F0DE96C8
:103040002C91022E000C330B8217930739F48089E0
:103050008150990BA816B90609F0D3C08189950152
:10306000281B31092B96AEADBFAD2B978C91082E46
:10307000000C990B821793070CF003C1A28AF1018F
:1030800082AD93ADDC0152964C91529751966C9162
:103090000E942908D101DA96ED91FC91DB97DE962A
:1030A000BC91BBABD101DD969C90DD97DF960C9176
:1030B000DF97DC96BC91BDABDF012BA9A20FB11D40
:1030C00027FDBA951696CC90DF01A90DB11D97FC8E
:1030D000BA9516968C91C80EDD24DD1CDF01A00F79
:1030E000B11D07FDBA9516968C91C81AD108DF015B
:1030F0003DA9A30FB11D37FDBA9516968C91ABADC6
:10310000BCAD1C92C81AD108D7FE03C0D194C1949B
:10311000D1080D2C000CEE08FF088089E82FF0E0A4
:103120002596FFAFEEAF2597BF01FF0F880B990BD8
:103130000E9479312AE037ED43E25DE30E94D83105
:103140002B013C0120E030E0A9010E94323420E054
:1031500030E040E05FE387FD8FC0C301B2010E9411
:1031600090330E94FC336C157D058E059F050CF491
:1031700092CEFDAD2EADF2138ECE3DA9931609F47D
:103180008ACE4BA9401709F486CE031709F483CEE3
:10319000491509F480CE431709F47DCE901609F441
:1031A0007ACEDE015F96FE01B39681919D918917DB
:1031B00009F452C79F3F19F08F3F09F04DC725967C
:1031C0002EAD3FAD25972A193B092B96EEADFFADED
:1031D0002B978081082E000C990B821793070CF017
:1031E0005ACE1BA31F8F1CA318A31DA319A31EA394
:1031F0001AA33FEFA31AB30AECCED101DD96DC92FD
:10320000B6CEABADBCAD8C91811105C0A18AE1E019
:10321000ABADBCADEC93D101DA96ED90FC90B5016D
:103220006F5F7F4FC70182960E948807F701E855BC
:10323000FF4F2081BAE00B9F200D11242A3008F4A3
:103240002C599DA58EA5A0FE02C099A58AA5E92F9F
:10325000F82F80E0422F50E09191692F092E000C49
:10326000770B64177507F1F4982F8F5F843009F49A
:10327000C0CF9F3F89F3BDCFC301B2010E948F33FE
:1032800070CFABADBCAD1C926496EEADFFAD649754
:1032900010821F8F1BA318A31CA319A31DA31AA37D
:1032A0001EA3A7CF9F3F21F4DF0111972C93DCCF02
:1032B0009FEFDBCFDE962C91DE97022E000C330BB6
:1032C0002E173F07D9F0DA962D913C91DB97EE0F40
:1032D000FF1FE20FF31FE355FF4FDD968C91A82FE0
:1032E000AA0FBB0BA20FB31FA355BF4F2081318183
:1032F0008D919C91821793070CF0A6C681E08910EE
:1033000080E080938802E09088026E2DC8010E94C0
:10331000C7075A94F801C2ACD3ACF1E0F51508F434
:1033200062C0D801DA96ED91FC915188F501808157
:10333000882309F42CC1D801DA96CD90DC90E52CD5
:10334000F12CB701C60182960E948807F601E85564
:10335000FF4FC080D12CF80184AD082E000C990BD2
:1033600082AC93ACC816D90639F085AD082E000C96
:10337000990BC816D90649F4D40150968C91815006
:10338000990BE816F9060CF4F4C0B7016F5F7F4F94
:10339000C40182960E948807F401E855FF4FE0813E
:1033A00080918802882309F4F4C0813009F00FC1AC
:1033B000D801DA968D919C91DC0150968C918250C7
:1033C000990BE816F9060CF002C1D801DE968C9133
:1033D000DE97082E000C990B8C159D0509F0F7C09F
:1033E000DF968C91EEC0852C912CB401C60182969B
:1033F0000E948807F601E855FF4F808190E0F801B0
:1034000027AD022E000C330B8217930741F026AD37
:10341000022E000C330B8217930709F082CFD801DC
:10342000DA96CD90DC90B40161507109C6018296A4
:103430000E948807F601E855FF4F808190E0F8016F
:1034400027AD022E000C330B8217930741F026ADF7
:10345000022E000C330B8217930709F062CFD801BC
:10346000DA96CD90DC90B1E0EB1241C0E2E08E1A2A
:103470009108B401C60182960E948807F601E855BA
:10348000FF4F9081D801DF968C91981307C06E2D65
:10349000C8010E94C7075A945A943CCFF801C2ACA5
:1034A000D3ACB401C60182960E948807F601E855A4
:1034B000FF4F8081880F990BC80ED91EFDEACF0EF1
:1034C000D11CD801DA96ED91FC91DB97DC968C91BA
:1034D000880F990BE80FF91FE355FF4FD6012D9187
:1034E0003C9180819181281739078CF2D4CFE1106B
:1034F000D2CFB2E08B1A9108B401C60182960E9425
:103500008807F601E855FF4F9081F80186AD9817BE
:1035100009F4BDCFC2ACD3ACB401C60182960E94FF
:103520008807F601E855FF4F8081880F990BC80E78
:10353000D91EFDEACF0ED11CD801DA96ED91FC918F
:10354000DB97DD968C91880F990BE80FF91FE355F7
:10355000FF4FD6012D913C91808191818217930775
:103560000CF495CF98CF81E0891080E08093880299
:10357000DDCE80918802842580938802D5018C91CC
:10358000882329F060918802C8010E94C7075394DC
:10359000D9C4D801DA968D919C91DC0150968C911A
:1035A0008250990BE816F90694F4D801DF968C91B5
:1035B000DF97082E000C990B8C159D0541F4DE96C3
:1035C0008C91082E000C990BE8171906C1F0D30155
:1035D0008C91082E000C990BD801D3962D913C911B
:1035E000D497281739076CF4F1011082D5011C9289
:1035F000F801108212AA14AA13AA27E027AB539449
:10360000BDCFDA968D919C91DC0152965C92D801E7
:10361000DA96AD90BC90BDEF5B1213C0D501509609
:103620008C918E3F71F4F501E054FF4F81E080836F
:10363000D801DA96ED91FC9184E090E0918F808F33
:1036400076C0D801DC968C91A82FAA0FBB0BAA0DCF
:10365000BB1DA355BF4F8D919C91D50150962C91C8
:1036600030E0D601AA0FBB1FAA0DBB1DA355BF4F4B
:103670004D915C9148175907E4F4A9014150510953
:10368000E416F506B4F46E2F70E0D801DD964C9187
:10369000DD97042E000C550B6417750709F432C131
:1036A000DE964C91042E000C550B6417750709F437
:1036B00029C122503109E216F306CCF5D801DF9674
:1036C0002C91DF97022E000C330BC216D30641F06B
:1036D000DE962C91022E000C330BC216D30639F560
:1036E000F0E0EE0FFF1FEA0DFB1DE355FF4F2081B9
:1036F000318128173907DCF4B7016E5F7F4FC501B0
:1037000082960E948807F501E855FF4F808190E07E
:10371000F80124AD022E000C330B8217930709F039
:10372000C8C081E0850D5110ECC055245394652D1F
:10373000F80182AD93AD0E940310D801DA96ED91A5
:10374000FC91DB97E054FF4F8081811100C1F301B0
:103750008081082E000C990BD3962D913C9128174F
:1037600039070CF4F4C062E08DED92E00E94260966
:1037700065E771E08DED92E00E94680AE091EB024E
:10378000F091EC02E4ADEE0FFF0BE657FC4FBE01EB
:103790006F5F7F4F808191810E94E408BC018DEDB5
:1037A00092E00E94680A6CE771E08DED92E00E9461
:1037B000680AE091EB02F091EC02E5ADEE0FFF0B31
:1037C000E657FC4FBE016F5F7F4F808191810E9461
:1037D000E408BC018DED92E00E94680A61E871E0A6
:1037E0008DED92E00E94680AE091EB02F091EC020C
:1037F000E7ADEE0FFF0BE657FC4FBE016F5F7F4F4B
:10380000808191810E94E408BC018DED92E00E94CC
:10381000680A66E871E08DED92E00E94680AE09126
:10382000EB02F091EC02E6ADEE0FFF0BE657FC4F1A
:10383000BE016F5F7F4F808191810E94E408BC01CF
:103840008DED92E00E94680A6BE871E08DED92E0E8
:103850000E94680AE090EB02F090EC0210E0F701A1
:1038600090AD82A9181708F09CC080E0191718F4D1
:10387000E10FF11D8081282F30E0F4E03595279588
:10388000FA95E1F72A3008F488C0295C2F8B8F70F5
:103890008A3008F484C0895C888F198EBE01695E05
:1038A0007F4FD701DA968D919C910E94680A1F5F25
:1038B000D6CFC2ACD3AC25AD022E000C330B821791
:1038C000930709F42ECFB7016D5F7F4FC601829633
:1038D0000E948807F601E855FF4F808190E0F801CB
:1038E00027AD022E000C330B8217930709F419CF72
:1038F00026AD022E000C330B8217930709F017CF69
:1039000010CF582E539494CE528AAE5BBF4FFEEF29
:103910005F123DC0F80142AD53AD8C9187FD8F5FC2
:103920008595082E000C990BF80123A934A9FA01FA
:10393000E054FF4F8217930724F581E08083D8017C
:10394000DA96ED91FC9184E090E0918F808F8091E8
:103950009D03882309F4BAC08091F1028111B3C09C
:103960001092FF0210927E031092800310927F0348
:1039700087E0809383031092ED0281E08093F1024F
:10398000A5C01082F80182AD93ADFC01148A8C9120
:10399000082E000C990BD801DFCE205D77CF805D1B
:1039A0007BCF22AD33AD60E0191718F4E10FF11DA4
:1039B000608170E0E4E075956795EA95E1F76A301B
:1039C00008F4F1C0695CC9010E942609D701D396A9
:1039D0002D913C91C90168E070E00E944F3305973A
:1039E00024F427703327232B89F4F70182AD93AD9C
:1039F00020AD60E0121718F4E10FF11D60816F70C7
:103A00006A3008F4D2C0695C0E9426096FE871E050
:103A10008DED92E00E94680AE091EB02F091EC02D9
:103A2000E05CFF4FBE016F5F7F4F808191810E94FC
:103A3000E408BC018DED92E00E94680A63E971E040
:103A40008DED92E00E94680AE091EB02F091EC02A9
:103A5000BE016F5F7F4F83A994A90E94E408BC0157
:103A60008DED92E00E94680A6BE38DED92E00E947A
:103A7000260980EA93E00E941509811118C06FE6BB
:103A800071E08DED92E00E94680A80919F03BE0173
:103A90006F5F7F4F90E00E94E408BC018DED92E0E3
:103AA0000E94680A6BE38DED92E00E94260963E0B4
:103AB0008DED92E00E9426096AE08DED92E00E9471
:103AC000260910929D0381E08093F0028091DE022E
:103AD000882311F40C941A1580919D0381110C9484
:103AE0001A158091F5029091F602019711F00C944D
:103AF0001A158091F00281116CC18091ED0288321B
:103B000010F40C941F1562E08DED92E00E942609DE
:103B10008091E102882309F4AFC067E971E08DED7F
:103B200092E00E94680A40E060E08DED92E00E9421
:103B30002908F12C80919A03F816E8F58F2D90E072
:103B4000FC01EE0FFF1FE657FC4F008111810115AC
:103B5000110539F183529D4FDC0116968C91882313
:103B600001F16F2D17FF23C0606A119501951109AE
:103B7000E02E07FD1EC06894E7F88DED92E00E94EC
:103B800026096E2D8DED92E00E942609612F606856
:103B90008DED92E00E9426096BE38DED92E00E948C
:103BA0002609F394C7CF605D0ECF605D2DCF6068AE
:103BB000DFCF6061E2CF8091ED0264E680FF64E4D4
:103BC0008DED92E00E94260910E080917E0381171E
:103BD00088F080918403181730F4E12FF0E0E3526D
:103BE000FD4FB2A1BFA76FA58DED92E00E942609FF
:103BF0001F5FEBCF6BE571E08DED92E00E94680AEC
:103C00006091DD02605D8DED92E00E9426096BE31C
:103C10008DED92E00E94260980EA93E00E9415094A
:103C200081110FC062E58DED92E00E94260980911E
:103C30009F0390E00E9446096BE38DED92E00E94A5
:103C400026098091F202882331F062E771E08DED60
:103C500092E00E94680A63E08DED92E00E942609DE
:103C60006AE08DED92E00E9426091092F10281E057
:103C70008093F0020C941A156BE971E08DED92E0DF
:103C80000E94680A40E060E08DED92E00E94290801
:103C900010E080919A031817C0F5812F90E09C01E5
:103CA000220F331FF901E657FC4F7F01208131813C
:103CB000232B49F183529D4FDC0116968C9188236A
:103CC00011F160E58DED92E00E94260960E3610F3D
:103CD0008DED92E00E9426096DE38DED92E00E9449
:103CE0002609BE016F5F7F4FF701808191810E949D
:103CF000E408BC018DED92E00E94680A6BE38DED53
:103D000092E00E9426091F5FC4CF6CE871E08DED40
:103D100092E00E94680A10E08091ED02181778F492
:103D2000612F70E08FEF92E00E9488076091850319
:103D3000605D8DED92E00E9426091F5FEDCF65E684
:103D400071E08DED92E00E94680A6091DD02605D95
:103D50008DED92E00E9426096BE38DED92E00E94CA
:103D6000260980EA93E00E94150981116ACF6FE667
:103D700071E08DED92E00E94680A80919F03BE0180
:103D80006F5F7F4F90E00E94E408BC018DED92E0F0
:103D90000E94680A51CF10E08091ED021817C8F414
:103DA000F0EDEF16F7E0FF06A1F0612F70E08FEF66
:103DB00092E00E94880780918503082E000C990BE1
:103DC000E816F90661F56FEF610F8DED92E00E9444
:103DD00003108091F102811108C01091F0028DED65
:103DE00092E00E94A0081093F002CD5ADF4F0FB668
:103DF000F894DEBF0FBECDBFDF91CF911F910F9121
:103E0000FF90EF90DF90CF90BF90AF909F908F90FA
:103E10007F906F905F904F903F902F9008951F5F1D
:103E2000BBCF0E9488079091850380919C039813D3
:103E30000C94E9136091EF0270E08FEF92E00E9422
:103E40008807909185038091DD0298130C94E91303
:103E50008091EF0281508093EF028091ED0290916A
:103E6000EF02891710F48093EF024091EF02609106
:103E7000EE028DED92E00E9429086091EE0211237E
:103E800011F40C94FF138091EF02861B990B889715
:103E900014F00C94091481E090E09093F602809362
:103EA000F5021FA60C940D15101611060CF45DC832
:103EB000D101DF96DC92BEADBF5FBEAFE9ADFAAD1A
:103EC000E01BF10B5BC86F5F7F4FFDC04E175F07B4
:103ED000D1F7E615F70509F472C941E05FEFE51A7D
:103EE000F50A4111D8C0F101E05CFF4F89AD9AADF0
:103EF00066E070E00E944F33718360830091EB02B3
:103F00001091EC02D801DA96ED91FC91DB97148ABE
:103F1000DA96ED91FC91DB97118ADA96ED91FC919E
:103F2000E054FF4F1082512C5801B4E4AB0EB11C89
:103F3000442443943801E2E46E0E711C1801F3E44A
:103F40002F0E311CD801DA96CD90DC90DB97F6016C
:103F50008089581608F0D8CCD5018C918111E6C91A
:103F6000E52CF12CB701C60182960E948807F60164
:103F7000E855FF4F808190E0F80124AD022E000C3F
:103F8000330B8217930741F025AD022E000C330B43
:103F90008217930709F0CAC9D801DA96CD90DC9050
:103FA000B701C60182960E948807F601E855FF4FC7
:103FB0008080F80195AC81E0891001C080E0809399
:103FC0008802D801DA96CD90DC90B7016150710972
:103FD000C60182960E948807F601E855FF4F80814E
:103FE000F5014082D801DA96ED91FC91DB97518A78
:103FF000552009F4B8CAE82FF0E089105BC9DF96B4
:104000002C91DF97022E000C330B2E173F0709F47B
:1040100075C9DA962D913C91DF01AA0FBB1FA20F43
:10402000B31FA355BF4FF80184ADE82FEE0FFF0B70
:10403000E20FF31FE355FF4F2D913C918081918159
:10404000281739070CF45AC9D801DA96ED91FC917A
:1040500081898F5F818B57C92BA53CA52E173F0700
:1040600009F0A3C88DA95BA96AE0569F800D1124B1
:10407000969E000D11248A3008F48C590A3008F4F9
:104080000C59DE015F967D019E012D5D3F4F390188
:1040900090E0202F30E0D3014D913D01042E000C23
:1040A000550B4817590749F0D7014C91042E000CC5
:1040B000550B8417950709F00CCFBE01615E7F4F49
:1040C000AE014D5D5F4FDA01CD90AD010C2C000CBF
:1040D000DD08C216D30649F0DB01CC900C2C000C95
:1040E000DD082C153D0509F0F1CEE615F70509F4BC
:1040F000FACE40E0F3CE1F920F920FB60F9211242A
:104100002F933F938F939F93AF93BF93809184029C
:1041100090918502A0918602B09187023091710240
:1041200026E0230F2D3758F50296A11DB11D2093CF
:1041300071028093840290938502A0938602B093CB
:1041400087028091720290917302A0917402B091E3
:1041500075020196A11DB11D8093720290937302A6
:10416000A0937402B0937502BF91AF919F918F910C
:104170003F912F910F900FBE0F901F90189529E837
:10418000230F0396A11DB11DD2CF1F920F920FB620
:104190000F9211242F933F934F935F936F937F93CD
:1041A0008F939F93AF93BF93EF93FF93E0910C0195
:1041B000F0910D010995FF91EF91BF91AF919F9102
:1041C0008F917F916F915F914F913F912F910F90C0
:1041D0000FBE0F901F9018951F920F920FB60F925F
:1041E00011242F933F934F935F936F937F938F93FC
:1041F0009F93AF93BF93EF93FF93E0910A01F091E8
:104200000B010995FF91EF91BF91AF919F918F9114
:104210007F916F915F914F913F912F910F900FBEC2
:104220000F901F9018951F920F920FB60F921124A6
:104230002F933F934F935F936F937F938F939F93AE
:10424000AF93BF93EF93FF93E0910801F0910901C1
:104250000995FF91EF91BF91AF919F918F917F91C0
:104260006F915F914F913F912F910F900FBE0F90E3
:104270001F9018951F920F920FB60F9211242F9333
:104280003F934F935F936F937F938F939F93AF93DE
:10429000BF93EF93FF93E0910601F0910701099519
:1042A000FF91EF91BF91AF919F918F917F916F910E
:1042B0005F914F913F912F910F900FBE0F901F90E4
:1042C00018951F920F920FB60F9211242F933F93C0
:1042D0004F935F936F937F938F939F93AF93BF930E
:1042E000EF93FF93E0910401F09105010995FF918F
:1042F000EF91BF91AF919F918F917F916F915F915E
:104300004F913F912F910F900FBE0F901F901895D6
:104310001F920F920FB60F9211248F939F9380914B
:10432000E1009091E100937F9093E10083FF0FC043
:104330001092E90091E09093EB001092EC0092E370
:104340009093ED001092830298E09093F00082FF2A
:1043500022C093E09093E9009091F200992319F024
:104360009AE39093E80090911602992341F090917E
:104370001602915090931602911101C05D98909190
:104380008202992341F0909182029150909382028F
:10439000911101C0289884FF18C08091E2008E7EA0
:1043A00081608093E2008091E1008F7E8093E10044
:1043B000809117028E7E8061809317029F918F916A
:1043C0000F900FBE0F901F90189580FFF7CF809130
:1043D000E2008E7E80618093E2008091E1008E7E1B
:1043E0008093E100809117028E7E8160E5CF1F925D
:1043F0000F920FB60F921124CF92DF92EF92FF929D
:104400000F931F932F933F934F935F936F937F93DC
:104410008F939F93AF93BF93EF93FF93CF93DF93CC
:10442000CDB7DEB76C97DEBFCDBF1092E9008091AB
:10443000E80083FF25C068E0CE0145960E94B103E5
:1044400082EF8093E8008D8987FF39C09091E80062
:1044500090FFFCCF982F907609F034C19E894F8948
:10446000588D2F89F88C911131C0803861F5809179
:1044700018028093F1001092F1008EEF8093E80013
:104480006C960FB6F894DEBF0FBECDBFDF91CF9113
:10449000FF91EF91BF91AF919F918F917F916F911C
:1044A0005F914F913F912F911F910F91FF90EF904E
:1044B000DF90CF900F900FBE0F901F9018959EEF3A
:1044C0009093E800C7CF1092F100D5CF913059F406
:1044D0008111D3CF4130510581F6809118028D7F33
:1044E00080931802CACF933049F48111C6CF41306E
:1044F000510519F6809118028260F2CF953041F48F
:104500008091E80080FFFCCF20682093E300B5CFC6
:10451000963009F0A9C00B8D1C8D22E01092E900A5
:104520001092140210921302F2122EC01092120274
:10453000109211020E9480031F8299E09983FA82EF
:1045400091E09E8390EA98879AEF998720911302D1
:1045500030911402275F3F4F3C832B838D83109251
:10456000E9001092140210921302109312020093A9
:10457000110249E050E0BE016F5F7F4F80E00E9472
:104580005A030E94800379CF109312020093110204
:104590000E948A02DC0112960D911C9101151105F1
:1045A00009F451C1D801ED91FC910480F581E02D11
:1045B000BE016B5E7F4FC8010995009709F03EC1AF
:1045C000F80100851185EACFF3E0FF120EC08F8954
:1045D000882309F440C0823061F440E86DE088E649
:1045E00091E00E942703811148CF81E28093EB0084
:1045F00047CF813029F440E86BE08CE591E0F1CFC2
:10460000833099F70E948A02DC011296ED90FC90AB
:104610008E010F5F1F4F6801E114F10479F0D7019B
:10462000ED91FC910680F781E02DB801C701099555
:10463000080F111DF701E084F184EECFD8011C9220
:10464000F60101900020E9F73197BF016C197D094F
:1046500040E0C601C6CF66E471E0FB01449150E042
:1046600080E80E945A0309CF973009F4BECF9830F2
:1046700021F481E08093F10000CF993009F0FDCE64
:10468000837009F0B2CFEBE2F1E081E031E096E334
:104690002191222371F08093E9003093EB00DF0138
:1046A00011972C912093EC009093ED008F5F873051
:1046B00079F78EE78093EA001092EA008F89809361
:1046C0008302DBCE8B8D9C8D1092E9001092140238
:1046D000109213029093120280931102898D81111E
:1046E00092C08E899D89913A49F4813209F07DCF3B
:1046F00047E050E06EE071E080E0B3CF913209F026
:1047000074CF833269F48F89988DB0E0A0E08093F4
:10471000000190930101A0930201B0930301ADCE7B
:10472000803269F48091E80082FFFCCF67E08EE080
:1047300091E00E94B1038BEF8093E8009ECE82321D
:1047400009F09BCE8F8980931501EEEFFFE78591ED
:1047500094918B3F9C4D51F1E0E0F8E080910E0187
:1047600090910F01A0911001B0911101803B9440F4
:10477000A105B105F1F48091150180FD1AC0EE3F4D
:104780008AE0F80789F587E797E79183808380912E
:1047900060008093150288E19BE00FB6F894A8951D
:1047A000809360000FBE9093600067CEEEEFFAE05A
:1047B000D5CF808191818737974709F05ECEA89544
:1047C00080916000886180936000809115028093E1
:1047D0006000EE3F2AE0F20789F08091FE0A909196
:1047E000FF0A9183808349CE808191818737980722
:1047F00051F29093FF0A8093FE0AC5CF1092FF0AF0
:104800001092FE0A3ACE0E948A02DC0112960D91A5
:104810001C910115110509F4E8CED801ED91FC9128
:104820000190F081E02DBE016B5E7F4FC8010995BC
:10483000811123CEF80100851185EBCF18161906DA
:104840000CF41BCED2CEF1E0FF12BECE6AE471E0D2
:1048500004CF1F920F920FB60F9211242F933F9304
:104860004F935F936F937F938F939F93AF93BF9378
:10487000EF93FF93E0911902F0911A020995FF91CD
:10488000EF91BF91AF919F918F917F916F915F91C8
:104890004F913F912F910F900FBE0F901F90189541
:1048A000CF93DF93E9E8F2E01382128288EE93E07F
:1048B000A0E0B0E084839583A683B78385E391E08D
:1048C000918380838FEF9FEF95878487ECEAF3E0F5
:1048D0008AE58083118213821282CDEDD2E087EFC8
:1048E00092E09F8F8E8F19A218A28FE78093840386
:1048F00084E0809381031AA210927E0310928003B9
:1049000010927F0387E08093830380EF809382037C
:1049100010929F031092A1031092A0031092A30380
:104920001092A2031092A5031092A4031092A70361
:104930001092A6031092A9031092A8031092AB0341
:104940001092AA031B8E1A8ECE010E94A00881E14C
:1049500080939E031D8281E08C831F861E860E94A9
:104960009E026093D9027093DA028093DB029093E7
:10497000DC02DF91CF910895CF93DF93CDB7DEB7FF
:1049800028970FB6F894DEBF0FBECDBF789484B5DC
:10499000826084BD84B5816084BD85B5826085BD3B
:1049A00085B5816085BD80916E00816080936E00C9
:1049B00010928100809181008260809381008091BB
:1049C000810081608093810080918000816080936C
:1049D000800080919100826080939100809191008D
:1049E000816080939100809190008160809390001D
:1049F0008091C10084608093C1008091C100826079
:104A00008093C1008091C10081608093C10080913A
:104A1000C30081608093C3008091C0008260809356
:104A2000C0008091C20081608093C20080917A00B2
:104A3000846080937A0080917A00826080937A000B
:104A400080917A008E7F80937A0080917A008068CE
:104A500080937A001092830210921802109217022B
:104A60008091D70081608093D70080EA8093D8003E
:104A700089B58F7E89BD89B5826089BD89B5182FBA
:104A8000117080FFFBCF61E070E080E090E00E9459
:104A9000C3028091D8008F7C80618093D800809180
:104AA000E000807F8093E0008091E1008E7E809323
:104AB000E1008DE08093E200559A209A5D98289855
:104AC0008FEF9FEF909396028093950200911501CE
:104AD0006AE070E080E090E00E94C3020023B1F33E
:104AE00047E150E06BEFF62E79E1E72EE1E1DE2EB3
:104AF00007E061E070E0F5E18F2E912C22E02F15A8
:104B000008F0ABC08AEF8F0D843008F4A6C0A42F44
:104B10008E2D841B843009F4A0C088F0863079F093
:104B20008C3069F027E230E0853059F0902F941BEB
:104B300024E230E0963028F420E330E002C02AE29C
:104B400030E0F9019081BD2DBA1BB43098F5940185
:104B5000241B350BFB0102C0EE0FFF1F2A95E2F765
:104B60009F0120959223853008F442C0863009F4D5
:104B70003FC08C30E9F127E230E0853031F0202F62
:104B80002A1B2630C0F124E230E0F9019083853001
:104B9000A8F1863099F18C3089F128E230E0853037
:104BA00079F1902F9A1B25E230E0963048F521E309
:104BB00030E026C0202F2A1B243038F49B01042E1D
:104BC00001C0220F0A94EAF7CCCF823079F083300B
:104BD00059F02FE7863031F2813131F0863131F0F2
:104BE0002FEB873109F0BECF2EEFBCCF2DEFBACF20
:104BF0002AE230E0CACF20E330E0C7CF2BE230E03A
:104C0000F9012081B430C0F45401A41AB50A962FDA
:104C100001C0990FAA94EAF78630D9F08C30C9F018
:104C2000853009F466C2802F8A1BA5E2B0E0863089
:104C300090F4A1E3B0E00FC0902F9A1B943008F0DD
:104C400044C2962F042E01C0990F0A94EAF78530CA
:104C500018F7ABE2B0E0922B9C93F39441505109CA
:104C6000F1E1FF124BCF6E983F9A219A229A239836
:104C7000249A54985C9A80E58CBD2C9A299A2A989B
:104C80006E982598299A2A9890E080E00E94BE0AA2
:104C9000833331F481E090E00E94BE0A8D31A9F0A7
:104CA0006FE08FEF90E00E94960A86E791E00E9405
:104CB0002A0A63E390E080E00E94960A6DE181E0B9
:104CC00090E00E94960A0E94980A8FEF90E00E945E
:104CD000BE0A982F91709093E00281FB992790F97A
:104CE0009093DE0282FB992790F99093DF0283FB79
:104CF000882780F98093E1020E94E20A1091160150
:104D000081EF113009F081E360E80E94B8061123B9
:104D100051F09FEF980F9E3F30F01092160160E81F
:104D200081E30E94B80681508E3F08F4E5C11092DD
:104D30001E028DED91E09C838B831E821D828B81F0
:104D40009C81AD81BE818093A2039093A303A09325
:104D5000A403B093A50386EF92E09093A103809300
:104D6000A003259A62E370E080E090E00E94C30215
:104D700080E1809381001092800082E080931D0288
:104D800080E89EE390931C0280931B02909387001F
:104D90008093860082E1809381008BE895E0909378
:104DA0001A028093190281E080936F008FED91E0E9
:104DB0009C838B831E821D828B819C81AD81BE81F1
:104DC0008093A8039093A903A093AA03B093AB0385
:104DD00084E295E09093A7038093A60380911E023E
:104DE0008111A2C10E94610780E991E0A0E0B0E0DA
:104DF00080938D0290938E02A0938F02B0939002C5
:104E00009E012F5F3F4F79013E0139E0630E711C17
:104E100052E0852E912CA12CB12C89E892E00E94C1
:104E20000A05892B79F010912D021E3009F081C1FD
:104E30008AE991E00E945E048FE192E00E94ED0910
:104E400010922D0280911701833009F089C6442405
:104E500043948091AD03882309F4F9C68091AD0392
:104E600081508093AD038091AF036091AC030E94A9
:104E70002F339093AF03E091AF0381E08E0F8093C7
:104E8000AF03F0E0EE0FFF1FE055FC4F80819181F2
:104E900090932F0280932E021092F0026091ED0207
:104EA000662309F433C56150770B8FEF92E00E94BF
:104EB000880780918503880F990B86579C4F9093A4
:104EC000FE028093FD02E091FB02F091FC028091D2
:104ED0002E0290912F02918380839091ED02E091B8
:104EE000FB02F091FC02992309F415C5A091FD0283
:104EF000B091FE02109709F40EC5208131814D91C9
:104F00005C913527232F221F2227221F81E0408119
:104F10005181411553480CF480E031E09E3F09F483
:104F200030E0832311F02111F8C40E9455118091C3
:104F3000F002811104C080919D038823B1F080911B
:104F4000ED028823D1F0E091FD02F091FE0230974E
:104F5000A1F0A091FB02B091FC028D919C91208167
:104F600031818227932797FD08C08DED92E00E9442
:104F7000A0081092FE021092FD028091ED028E3F79
:104F800029F460E070E0CB010E94C302C090FB02F4
:104F9000D090FC02F60100811181B80117FF04C016
:104FA00066277727601B710B072E000C880B990B67
:104FB0000E9479312DEC3CEC4CE45EE30E94D83148
:104FC0000E9403349B017093F4026093F30260919A
:104FD0009A03EAE8F3E0512C6515C9F081919191AB
:104FE000A8014827592757FDC6C4009709F4C3C430
:104FF000A801481B590BCA0157FF03C09195819521
:105000009109281739070CF4B6C457FEB6C46830A6
:10501000D9F540E060E08DED92E00E942908E09132
:105020009B03F0E0E352FD4F8681833040F00E9405
:10503000551140E060E08DED92E00E94290810914A
:10504000ED021150E0919B03F0E0E352FD4F8681A9
:105050008823D1F08091ED028823B1F0612F70E0B8
:105060008FEF92E00E94880780918503082E000C44
:10507000990B20919B032817190619F761E0610F1E
:105080008DED92E00E94031050909B03E091FB0293
:10509000F091FC0280819181E52DF0E0EE0FFF1F81
:1050A000E657FC4F9183808381E0850D883009F4B9
:1050B000CFC480939B0380919B0390919A03981790
:1050C00008F079C480939A0376C4823009F4C7C586
:1050D000833009F4C7C5863051F0813131F0863113
:1050E00009F4CAC5873109F0C0C5912F9CCD90E85D
:1050F000B0CDA8E2B0E0AFCD81E080931E028DED8F
:1051000091E09C838B831E821D828B819C81AD816B
:10511000BE818093A2039093A303A093A403B093B2
:10512000A50389ED96E019CE0E94E30681115ACEBF
:105130005BCE89E892E00E948804E12FF0E0E15E16
:10514000FD4F80838D3029F0CCF4882311F08A3014
:10515000D1F480911F02873509F4EFC2F4F5803550
:1051600009F4F8C0A4F48F3309F490C0833409F42F
:1051700025C189EF91E00E942A0A62CE833249F369
:105180008B3309F4C0C31F5F10932D0246CE8235C6
:1051900009F4EFC0863569F78EEB92E00E945E0459
:1051A00080911E028823A1F086EB92E00E945E04AB
:1051B00088E20E9459044C99D9C08DEA92E00E947D
:1051C0005E0482EB92E00E945E0489E20E94590430
:1051D00084E892E00E942A0AC5C0823709F45EC2C0
:1051E0007CF4883509F4DEC0853619F680911E02FC
:1051F000882309F4B7C00E94980A0E94E20AB2C04C
:10520000843709F4C5C00CF468C3883709F0B1CFFE
:1052100080912002082E000C990B0E943734892BB4
:1052200009F4A0C080912102082E000C990B0E9465
:105230003734892B09F496C080911E02882309F423
:1052400091C040E150E070E060E080E292E00E94B6
:10525000642FD62E00E310E06D2D81E390E0013342
:1052600011F060E0C8010E94960A0F5F1F4F0833DB
:10527000110591F70E94C00A8DE792E00E945E043A
:105280008D2D0E94DD098CE692E0A4CF8FE30E9471
:10529000590482EE92E00E945E0486E50E94590461
:1052A00080EE92E00E945E0482E50E94590480EE46
:1052B00092E00E945E0484E70E94590480EE92E02E
:1052C0000E945E0488E50E94590480EE92E00E94EC
:1052D0005E0483E50E94590480EE92E00E945E0421
:1052E00080E50E94590480EE92E00E945E0483E40F
:1052F0000E94590480EE92E00E945E0482E70E94C0
:10530000590480EE92E00E945E0487E50E945904F1
:1053100080EE92E00E945E0483E70E94590480EED2
:1053200092E00E945E0480911E02882371F088E75B
:105330000E94590480EE92E00E945E0485E60E947D
:10534000590480EE92E00E945E0486E591E00E949E
:10535000ED0908C08FE991E00E94ED0984EE93E029
:105360000197F1F781E0809370026ACD88EA92E0BC
:1053700026CF8091640490916504009711F48AE629
:1053800094E0A701481B590BCA010E94380AEACFD2
:105390000E9437054AE00E946B0984E591E00E9473
:1053A0005E09E0CF80912002813519F40E94380710
:1053B000D9CF8534B9F60E946107D4CF80912002FD
:1053C000873409F484C00CF061C09CEB980F9230D4
:1053D00008F4BCC0082E000C990B0E943734892BAE
:1053E00009F280912102082E000C990B0E9437349B
:1053F000892B09F4B7CF80911E02882309F4B2CF1C
:1054000040E150E070E060E080E292E00E94642FB2
:10541000162F809122028E3609F0CEC08091230291
:10542000082E000C990B0E943734892B09F4C4C054
:1054300040E150E070E060E083E292E00E94642F7F
:105440001F3208F08FCF02E0060F83E40E94590458
:10545000812F0E94DD098EE60E945904802F0E9450
:10546000DD098DE30E945904D12EE12FE00FFF27C3
:10547000FF1F8F01D01611060CF067CF60E88D2D4D
:105480000E94B8060E94DD09D394F4CF833509F059
:10549000A1CF67EA71E081E292E00E946234892B39
:1054A00009F460CF4AE050E070E060E087E292E00B
:1054B0000E94642F60939E037727882799274AE0EC
:1054C0000E946B0989EB91E00E945E044BCF86EB52
:1054D00091E00E945E0484EB91E00E945E04809162
:1054E000E00290E00E94AF0982EB91E00E945E042E
:1054F0008FEA91E00E945E0484EB91E00E945E04DA
:105500008091DE0290E00E94AF0982EB91E00E9460
:105510005E048CEA91E00E945E0484EB91E00E94BC
:105520005E048091DF0290E00E94AF0982EB91E07F
:105530000E945E0482EA91E00E94230A84EB91E0DB
:105540000E945E048091E10290E01FCF90912102C1
:10555000923569F114F5EFEDF2E0933409F002CFE2
:10556000853441F581E080836091DE02660F809191
:10557000DF0254E0859FC0011124682B8091E00276
:10558000682B8091E102A8E08A9FC0011124682B5A
:105590008FEF90E00E94960AE5CE933529F0EEED6C
:1055A000F2E09535E9F2DECEE0EEF2E0D9CFE1EEC1
:1055B000F2E0D6CF1082D8CF1E33B0F01E3309F000
:1055C00047C08FEC91E00E945E042C981FEF1B9B5C
:1055D00021C061E070E080E090E00E94C3021123EE
:1055E00009F4C0CE1150F3CF60E81F3208F060EC30
:1055F000812F0E94B806082F83E40E945904812F4E
:105600000E94DD098EEA91E00E94230A802F0E9409
:10561000DD099BCE8EEF0E9494068E010F5F1F4F17
:10562000680180E00E949406D6018D936D016A1690
:105630007B06B9F72C9A8DEC91E00E945E04F8018C
:1056400081918F010E94DD09C016D106A1F77DCEA0
:10565000193909F087CE10E0112341F0103111F013
:10566000103279F48DEC91E00E945E0486EC91E0BA
:105670000E945E04812F0E94DD0983EC91E00E946C
:105680005E0460E8812F0E94B8060E94DD0980E276
:105690000E9459041F5F1F32F9F657CE80912002F5
:1056A000082E000C990B0E943734892B09F45ACE2E
:1056B00080912102082E000C990B0E943734892B0F
:1056C00009F450CE80911E02882309F44BCE40E1AC
:1056D00050E070E060E080E292E00E94642F062FCC
:1056E00085E692E00E945E0480EE92E00E945E04F5
:1056F000802F0E94DD098091220210E08E36A9F4ED
:1057000082E692E00E945E04D12CC12CC8018C0D6F
:105710009D1D0E94BE0A0E94DD09FFEFCF1ADF0A1D
:1057200020E1C216D10491F710CE8EE592E00E94DE
:105730005E04C8010E94BE0A6ACF809120028335B0
:1057400009F040C0909121029333E1F5809122024B
:10575000082E000C990B0E943734892B09F402CED5
:1057600040E150E070E060E081E292E00E94642F4E
:10577000162F6E3308F0F6CD862F0E940607D82E1E
:1057800061E070E080E090E00E94C3028DE30E943F
:105790000607082F8BEE91E00E945E04812F0E9485
:1057A000DD098EED91E00E945E048D2D82958F7053
:1057B0000E94DD0985ED91E00E945E04802F8295B4
:1057C0008F7025CF082E000C990B0E943734892B3F
:1057D00009F4C8CD80912102082E000C990B0E947B
:1057E0003734892B09F4BECD80912202082E000C9B
:1057F000990B0E943734892B09F4B4CD8091230290
:10580000082E000C990B0E943734892B09F4AACD7D
:105810001B8280912002909121029A83898340E12A
:1058200050E070E060E0C7010E94642F062F809175
:105830002202909123029A83898340E150E070E034
:1058400060E0C7010E94642F162F802F90E00E9415
:10585000960A80911E02882321F0612F802F0E94DA
:10586000FB09023109F07ECD82E090E00E94BE0A81
:105870008D3009F077CD173C70F116E5612F83E28A
:1058800090E00E94960A80911E02882321F0612FE9
:1058900083E20E94FB0980912202909123029A8365
:1058A000898340E150E070E060E0C7010E94642F0E
:1058B00017E4673508F417E0612F85E090E00E9457
:1058C000960A80911E02882309F44CCD612F85E051
:1058D0000E94FB0947CD16EBD1CF80911E028111AA
:1058E00003C08FE991E033CD0E94E3068111F9CF27
:1058F00086EB92E00E945E048DE192E00E945E04DD
:1059000083E192E067CC0E94380B9ACA1092FE02A3
:105910001092FD02D8CA21E0F9CA983209F036CBBC
:1059200043E050E05093F6024093F50280EA93E0A2
:105930000E94150981112ACBE091A203F091A303E3
:105940002091A4033091A503C901959587954091B5
:10595000A0035091A103840F951F20FF08C0DC0114
:105960002D913C91E20FF31F0190F081E02D0995FC
:1059700080939F030BCB53942FCB052D000F110B5E
:1059800006571C4FD8016D917C91072E000C880B97
:10599000990BF60120813181032E000C440B550B2D
:1059A000620F731F841F951FA50194010E9463332A
:1059B000D8012D933C93952D8091830320917F03F3
:1059C000309180038730A1F4121613068CF4E09115
:1059D0007E03409184034150550BE41715060CF0EB
:1059E00042C0EF5FE0937E03F0E0E352FD4F12A26E
:1059F000A09181034A2F50E0682F70E06F5F7F4FC6
:105A0000641B750B161617062CF4952D01C0990F03
:105A10006A95EAF7E0917E03F0E0E352FD4F62A160
:105A2000962B92A32F5F3F4F3093800320937F03E9
:105A3000682F082E000C770B641B750B77FD0FC0C9
:105A40008A1B809383032093ED021092F10280C0A1
:105A500010929B0380939A0310929D032CCBB7E086
:105A6000B0938303F0CF60E070E0CB010E94C302EB
:105A700062EB71E08DED92E00E94680A6091EE02A7
:105A80008DED92E00E9426096BEC71E08DED92E0C5
:105A90000E94680A6091EF028DED92E00E94260953
:105AA00062ED71E08DED92E00E94680A652D8DED4A
:105AB00092E00E94260968ED71E08DED92E00E946F
:105AC000680A6091ED028DED92E00E94260961EE78
:105AD00071E08DED92E00E94680A60917E038DED89
